{
  "_format": "hh-sol-artifact-1",
  "contractName": "AdlHandler",
  "sourceName": "contracts/exchange/AdlHandler.sol",
  "abi": [
    {
      "inputs": [
        {
          "internalType": "contract RoleStore",
          "name": "_roleStore",
          "type": "address"
        },
        {
          "internalType": "contract DataStore",
          "name": "_dataStore",
          "type": "address"
        },
        {
          "internalType": "contract EventEmitter",
          "name": "_eventEmitter",
          "type": "address"
        },
        {
          "internalType": "contract OrderVault",
          "name": "_orderVault",
          "type": "address"
        },
        {
          "internalType": "contract Oracle",
          "name": "_oracle",
          "type": "address"
        },
        {
          "internalType": "contract SwapHandler",
          "name": "_swapHandler",
          "type": "address"
        },
        {
          "internalType": "contract IReferralStorage",
          "name": "_referralStorage",
          "type": "address"
        }
      ],
      "stateMutability": "nonpayable",
      "type": "constructor"
    },
    {
      "inputs": [
        {
          "internalType": "int256",
          "name": "pnlToPoolFactor",
          "type": "int256"
        },
        {
          "internalType": "uint256",
          "name": "maxPnlFactorForAdl",
          "type": "uint256"
        }
      ],
      "name": "AdlNotRequired",
      "type": "error"
    },
    {
      "inputs": [
        {
          "internalType": "uint256[]",
          "name": "compactedValues",
          "type": "uint256[]"
        },
        {
          "internalType": "uint256",
          "name": "index",
          "type": "uint256"
        },
        {
          "internalType": "uint256",
          "name": "slotIndex",
          "type": "uint256"
        },
        {
          "internalType": "string",
          "name": "label",
          "type": "string"
        }
      ],
      "name": "CompactedArrayOutOfBounds",
      "type": "error"
    },
    {
      "inputs": [
        {
          "internalType": "bytes32",
          "name": "key",
          "type": "bytes32"
        }
      ],
      "name": "DisabledFeature",
      "type": "error"
    },
    {
      "inputs": [
        {
          "internalType": "address",
          "name": "market",
          "type": "address"
        }
      ],
      "name": "DisabledMarket",
      "type": "error"
    },
    {
      "inputs": [
        {
          "internalType": "uint256",
          "name": "index",
          "type": "uint256"
        }
      ],
      "name": "EmptyCompactedBlockNumber",
      "type": "error"
    },
    {
      "inputs": [],
      "name": "EmptyMarket",
      "type": "error"
    },
    {
      "inputs": [
        {
          "internalType": "int256",
          "name": "nextPnlToPoolFactor",
          "type": "int256"
        },
        {
          "internalType": "int256",
          "name": "pnlToPoolFactor",
          "type": "int256"
        }
      ],
      "name": "InvalidAdl",
      "type": "error"
    },
    {
      "inputs": [
        {
          "internalType": "address",
          "name": "market",
          "type": "address"
        }
      ],
      "name": "InvalidSwapMarket",
      "type": "error"
    },
    {
      "inputs": [
        {
          "internalType": "int256",
          "name": "nextPnlToPoolFactor",
          "type": "int256"
        },
        {
          "internalType": "uint256",
          "name": "minPnlFactorForAdl",
          "type": "uint256"
        }
      ],
      "name": "PnlOvercorrected",
      "type": "error"
    },
    {
      "inputs": [
        {
          "internalType": "address",
          "name": "msgSender",
          "type": "address"
        },
        {
          "internalType": "string",
          "name": "role",
          "type": "string"
        }
      ],
      "name": "Unauthorized",
      "type": "error"
    },
    {
      "inputs": [
        {
          "internalType": "uint256",
          "name": "oracleBlockNumberType",
          "type": "uint256"
        }
      ],
      "name": "UnsupportedOracleBlockNumberType",
      "type": "error"
    },
    {
      "anonymous": false,
      "inputs": [
        {
          "indexed": false,
          "internalType": "string",
          "name": "reason",
          "type": "string"
        }
      ],
      "name": "OracleError",
      "type": "event"
    },
    {
      "inputs": [],
      "name": "dataStore",
      "outputs": [
        {
          "internalType": "contract DataStore",
          "name": "",
          "type": "address"
        }
      ],
      "stateMutability": "view",
      "type": "function"
    },
    {
      "inputs": [],
      "name": "eventEmitter",
      "outputs": [
        {
          "internalType": "contract EventEmitter",
          "name": "",
          "type": "address"
        }
      ],
      "stateMutability": "view",
      "type": "function"
    },
    {
      "inputs": [
        {
          "internalType": "address",
          "name": "account",
          "type": "address"
        },
        {
          "internalType": "address",
          "name": "market",
          "type": "address"
        },
        {
          "internalType": "address",
          "name": "collateralToken",
          "type": "address"
        },
        {
          "internalType": "bool",
          "name": "isLong",
          "type": "bool"
        },
        {
          "internalType": "uint256",
          "name": "sizeDeltaUsd",
          "type": "uint256"
        },
        {
          "components": [
            {
              "internalType": "uint256",
              "name": "signerInfo",
              "type": "uint256"
            },
            {
              "internalType": "address[]",
              "name": "tokens",
              "type": "address[]"
            },
            {
              "internalType": "uint256[]",
              "name": "compactedMinOracleBlockNumbers",
              "type": "uint256[]"
            },
            {
              "internalType": "uint256[]",
              "name": "compactedMaxOracleBlockNumbers",
              "type": "uint256[]"
            },
            {
              "internalType": "uint256[]",
              "name": "compactedOracleTimestamps",
              "type": "uint256[]"
            },
            {
              "internalType": "uint256[]",
              "name": "compactedDecimals",
              "type": "uint256[]"
            },
            {
              "internalType": "uint256[]",
              "name": "compactedMinPrices",
              "type": "uint256[]"
            },
            {
              "internalType": "uint256[]",
              "name": "compactedMinPricesIndexes",
              "type": "uint256[]"
            },
            {
              "internalType": "uint256[]",
              "name": "compactedMaxPrices",
              "type": "uint256[]"
            },
            {
              "internalType": "uint256[]",
              "name": "compactedMaxPricesIndexes",
              "type": "uint256[]"
            },
            {
              "internalType": "bytes[]",
              "name": "signatures",
              "type": "bytes[]"
            },
            {
              "internalType": "address[]",
              "name": "priceFeedTokens",
              "type": "address[]"
            },
            {
              "internalType": "address[]",
              "name": "realtimeFeedTokens",
              "type": "address[]"
            },
            {
              "internalType": "bytes[]",
              "name": "realtimeFeedData",
              "type": "bytes[]"
            }
          ],
          "internalType": "struct OracleUtils.SetPricesParams",
          "name": "oracleParams",
          "type": "tuple"
        }
      ],
      "name": "executeAdl",
      "outputs": [],
      "stateMutability": "nonpayable",
      "type": "function"
    },
    {
      "inputs": [],
      "name": "oracle",
      "outputs": [
        {
          "internalType": "contract Oracle",
          "name": "",
          "type": "address"
        }
      ],
      "stateMutability": "view",
      "type": "function"
    },
    {
      "inputs": [],
      "name": "orderVault",
      "outputs": [
        {
          "internalType": "contract OrderVault",
          "name": "",
          "type": "address"
        }
      ],
      "stateMutability": "view",
      "type": "function"
    },
    {
      "inputs": [],
      "name": "referralStorage",
      "outputs": [
        {
          "internalType": "contract IReferralStorage",
          "name": "",
          "type": "address"
        }
      ],
      "stateMutability": "view",
      "type": "function"
    },
    {
      "inputs": [],
      "name": "roleStore",
      "outputs": [
        {
          "internalType": "contract RoleStore",
          "name": "",
          "type": "address"
        }
      ],
      "stateMutability": "view",
      "type": "function"
    },
    {
      "inputs": [],
      "name": "swapHandler",
      "outputs": [
        {
          "internalType": "contract SwapHandler",
          "name": "",
          "type": "address"
        }
      ],
      "stateMutability": "view",
      "type": "function"
    },
    {
      "inputs": [
        {
          "internalType": "address",
          "name": "market",
          "type": "address"
        },
        {
          "internalType": "bool",
          "name": "isLong",
          "type": "bool"
        },
        {
          "components": [
            {
              "internalType": "uint256",
              "name": "signerInfo",
              "type": "uint256"
            },
            {
              "internalType": "address[]",
              "name": "tokens",
              "type": "address[]"
            },
            {
              "internalType": "uint256[]",
              "name": "compactedMinOracleBlockNumbers",
              "type": "uint256[]"
            },
            {
              "internalType": "uint256[]",
              "name": "compactedMaxOracleBlockNumbers",
              "type": "uint256[]"
            },
            {
              "internalType": "uint256[]",
              "name": "compactedOracleTimestamps",
              "type": "uint256[]"
            },
            {
              "internalType": "uint256[]",
              "name": "compactedDecimals",
              "type": "uint256[]"
            },
            {
              "internalType": "uint256[]",
              "name": "compactedMinPrices",
              "type": "uint256[]"
            },
            {
              "internalType": "uint256[]",
              "name": "compactedMinPricesIndexes",
              "type": "uint256[]"
            },
            {
              "internalType": "uint256[]",
              "name": "compactedMaxPrices",
              "type": "uint256[]"
            },
            {
              "internalType": "uint256[]",
              "name": "compactedMaxPricesIndexes",
              "type": "uint256[]"
            },
            {
              "internalType": "bytes[]",
              "name": "signatures",
              "type": "bytes[]"
            },
            {
              "internalType": "address[]",
              "name": "priceFeedTokens",
              "type": "address[]"
            },
            {
              "internalType": "address[]",
              "name": "realtimeFeedTokens",
              "type": "address[]"
            },
            {
              "internalType": "bytes[]",
              "name": "realtimeFeedData",
              "type": "bytes[]"
            }
          ],
          "internalType": "struct OracleUtils.SetPricesParams",
          "name": "oracleParams",
          "type": "tuple"
        }
      ],
      "name": "updateAdlState",
      "outputs": [],
      "stateMutability": "nonpayable",
      "type": "function"
    }
  ],
  "bytecode": "0x61016060405234801561001157600080fd5b506040516142913803806142918339810160408190526100309161007e565b6001600160a01b0395861660805295851660a05292841660c05290831660e052821661012052811661010052166101405261011a565b6001600160a01b038116811461007b57600080fd5b50565b600080600080600080600060e0888a03121561009957600080fd5b87516100a481610066565b60208901519097506100b581610066565b60408901519096506100c681610066565b60608901519095506100d781610066565b60808901519094506100e881610066565b60a08901519093506100f981610066565b60c089015190925061010a81610066565b8091505092959891949750929550565b60805160a05160c05160e05161010051610120516101405161403961025860003960008181608c015261135c015260008181610117015281816102300152818161035f015281816105a00152818161092401528181610a7401528181610b4c01528181610cea0152611307015260008181610153015261133101526000818161017a01526112dc0152600081816101a101528181610272015281816106b201528181610ab601528181610cc801526112b101526000818160c90152610f8301526000818160f00152818161025101528181610386015281816105050152818161057f01528181610683015281816107d2015281816109030152818161098601528181610a9501528181610b7501528181610ca601528181610db101528181610eb40152818161124301528181611288015261180601526140396000f3fe608060405234801561001057600080fd5b50600436106100825760003560e01c80626cc35e146100875780634a4a7b04146100c4578063660d0d67146100eb5780637dc0d1d01461011257806388189be8146101395780638a53aaac1461014e57806393845e46146101755780639ff78c301461019c578063fc619f41146101c3575b600080fd5b6100ae7f000000000000000000000000000000000000000000000000000000000000000081565b6040516100bb91906129cf565b60405180910390f35b6100ae7f000000000000000000000000000000000000000000000000000000000000000081565b6100ae7f000000000000000000000000000000000000000000000000000000000000000081565b6100ae7f000000000000000000000000000000000000000000000000000000000000000081565b61014c610147366004612a1f565b6101d6565b005b6100ae7f000000000000000000000000000000000000000000000000000000000000000081565b6100ae7f000000000000000000000000000000000000000000000000000000000000000081565b6100ae7f000000000000000000000000000000000000000000000000000000000000000081565b61014c6101d1366004612aae565b610a58565b6101de610dad565b61022e6040516020016101f090612b0f565b604051602081830303815290604052805190602001206040518060400160405280600a81526020016920a2262fa5a2a2a822a960b11b815250610f6c565b7f00000000000000000000000000000000000000000000000000000000000000007f00000000000000000000000000000000000000000000000000000000000000007f000000000000000000000000000000000000000000000000000000000000000061029a84612e06565b6040516304a76ae360e21b81526001600160a01b0385169063129dab8c906102ca9086908690869060040161317f565b600060405180830381600087803b1580156102e457600080fd5b505af11580156102f8573d6000803e3d6000fd5b5050505061035060405180610120016040528060008152602001606081526020016060815260200160008019168152602001600015158152602001600081526020016000815260200160008152602001600081525090565b5a815260006001600160a01b037f00000000000000000000000000000000000000000000000000000000000000001663f81a03c37f00000000000000000000000000000000000000000000000000000000000000006103b36101808b018b613338565b6103c16101a08d018d613338565b6040518663ffffffff1660e01b81526004016103e19594939291906133b1565b6000604051808303816000875af1158015610400573d6000803e3d6000fd5b505050506040513d6000823e601f3d908101601f1916820160405261042891908101906134ee565b905061048361043a6040890189613338565b808060200260200160405190810160405280939291908181526020018383602002808284376000920191909152506104799250505060208a018a613338565b905083600061101c565b60208301526104e16104986060890189613338565b808060200260200160405190810160405280939291908181526020018383602002808284376000920191909152506104d79250505060208a018a613338565b905083600161101c565b826040018190525073__$f1c6d6b2bd25207c7e7320f7c6bcfa9419$__6385671ac57f00000000000000000000000000000000000000000000000000000000000000008d8c86604001516040518563ffffffff1660e01b815260040161054a949392919061361c565b60006040518083038186803b15801561056257600080fd5b505af4158015610576573d6000803e3d6000fd5b505050506106167f00000000000000000000000000000000000000000000000000000000000000007f00000000000000000000000000000000000000000000000000000000000000008d8c6040516020016105fb9060208082526016908201527513505617d4139317d19050d513d497d193d497d0511360521b604082015260600190565b604051602081830303815290604052805190602001206111e0565b60a085015260c084015215156080830181905261065b578160c001518260a001516040516368376c5f60e11b8152600401610652929190613650565b60405180910390fd5b73__$f1c6d6b2bd25207c7e7320f7c6bcfa9419$__63dbadc9b96040518061010001604052807f00000000000000000000000000000000000000000000000000000000000000006001600160a01b031681526020017f00000000000000000000000000000000000000000000000000000000000000006001600160a01b031681526020018f6001600160a01b031681526020018e6001600160a01b031681526020018d6001600160a01b031681526020018c151581526020018b815260200185602001516000815181106107315761073161365e565b60200260200101518152506040518263ffffffff1660e01b81526004016107589190613674565b602060405180830381865af4158015610775573d6000803e3d6000fd5b505050506040513d601f19601f8201168201806040525081019061079991906136f6565b6060830181905260405163fdfc26f360e01b815260009173__$9dcb75ef0bb6c4288f2ccffe7dc492c4eb$__9163fdfc26f3916107fb917f0000000000000000000000000000000000000000000000000000000000000000919060040161370f565b600060405180830381865af4158015610818573d6000803e3d6000fd5b505050506040513d6000823e601f3d908101601f1916820160405261084091908101906138a0565b905060006108628460600151838b61085790612e06565b875133906001611220565b8051516040820151602001515191925061089791610892903090600781111561088d5761088d6139ce565b6114be565b611554565b604051630893a94f60e41b815273__$18943158f75973db0541c3d7c8650b2485$__9063893a94f0906108ce908490600401613bd0565b60006040518083038186803b1580156108e657600080fd5b505af41580156108fa573d6000803e3d6000fd5b5050505061094c7f00000000000000000000000000000000000000000000000000000000000000007f00000000000000000000000000000000000000000000000000000000000000008f8e600161157f565b60e0850181905260c085015113610981578360e001518460c0015160405162753f0f60e61b8152600401610652929190613650565b6109ac7f00000000000000000000000000000000000000000000000000000000000000008e8d611712565b61010085018190526109bd90611796565b8460e0015112156109ee578360e00151846101000151604051634f85e3ef60e11b8152600401610652929190613650565b50505050836001600160a01b031662ccf1556040518163ffffffff1660e01b8152600401600060405180830381600087803b158015610a2c57600080fd5b505af1158015610a40573d6000803e3d6000fd5b5050505050505050610a50611804565b505050505050565b610a60610dad565b610a726040516020016101f090612b0f565b7f00000000000000000000000000000000000000000000000000000000000000007f00000000000000000000000000000000000000000000000000000000000000007f0000000000000000000000000000000000000000000000000000000000000000610ade84612e06565b6040516304a76ae360e21b81526001600160a01b0385169063129dab8c90610b0e9086908690869060040161317f565b600060405180830381600087803b158015610b2857600080fd5b505af1158015610b3c573d6000803e3d6000fd5b5060009250506001600160a01b037f000000000000000000000000000000000000000000000000000000000000000016905063f81a03c37f0000000000000000000000000000000000000000000000000000000000000000610ba26101808a018a613338565b610bb06101a08c018c613338565b6040518663ffffffff1660e01b8152600401610bd09594939291906133b1565b6000604051808303816000875af1158015610bef573d6000803e3d6000fd5b505050506040513d6000823e601f3d908101601f19168201604052610c1791908101906134ee565b90506000610c74610c2b6060890189613338565b80806020026020016040519081016040528093929190818152602001838360200280828437600092019190915250610c6a9250505060208a018a613338565b905084600161101c565b60405163e0cc1a0d60e01b815290915073__$f1c6d6b2bd25207c7e7320f7c6bcfa9419$__9063e0cc1a0d90610d18907f0000000000000000000000000000000000000000000000000000000000000000907f0000000000000000000000000000000000000000000000000000000000000000907f0000000000000000000000000000000000000000000000000000000000000000908f908f908990600401613cf7565b60006040518083038186803b158015610d3057600080fd5b505af4158015610d44573d6000803e3d6000fd5b505050505050836001600160a01b031662ccf1556040518163ffffffff1660e01b8152600401600060405180830381600087803b158015610d8457600080fd5b505af1158015610d98573d6000803e3d6000fd5b5050505050505050610da8611804565b505050565b60007f00000000000000000000000000000000000000000000000000000000000000006001600160a01b031663bd02d0f5604051602001610ded90613d3b565b604051602081830303815290604052805190602001206040518263ffffffff1660e01b8152600401610e2191815260200190565b602060405180830381865afa158015610e3e573d6000803e3d6000fd5b505050506040513d601f19601f82011682018060405250810190610e6291906136f6565b90508015610eb25760405162461bcd60e51b815260206004820152601f60248201527f5265656e7472616e637947756172643a207265656e7472616e742063616c6c006044820152606401610652565b7f00000000000000000000000000000000000000000000000000000000000000006001600160a01b031663e2a4853a604051602001610ef090613d3b565b6040516020818303038152906040528051906020012060016040518363ffffffff1660e01b8152600401610f25929190613650565b6020604051808303816000875af1158015610f44573d6000803e3d6000fd5b505050506040513d601f19601f82011682018060405250810190610f6891906136f6565b5050565b60405163ac4ab3fb60e01b81526001600160a01b037f0000000000000000000000000000000000000000000000000000000000000000169063ac4ab3fb90610fba903390869060040161370f565b602060405180830381865afa158015610fd7573d6000803e3d6000fd5b505050506040513d601f19601f82011682018060405250810190610ffb9190613d6c565b610f6857338160405163a35b150b60e01b8152600401610652929190613d89565b6060600083518561102d9190613dc3565b6001600160401b0381111561104457611044612b33565b60405190808252806020026020018201604052801561106d578160200160208202803683370190505b50905060005b858110156110aa5761108587826118bd565b8282815181106110975761109761365e565b6020908102919091010152600101611073565b5060008360018111156110bf576110bf6139ce565b0361112d5760005b8451811015611127578481815181106110e2576110e261365e565b602002602001015160e001516001600160401b03168282886111049190613dc3565b815181106111145761111461365e565b60209081029190910101526001016110c7565b506111d7565b6001836001811115611141576111416139ce565b036111a95760005b8451811015611127578481815181106111645761116461365e565b602002602001015160a001516001600160401b03168282886111869190613dc3565b815181106111965761119661365e565b6020908102919091010152600101611149565b8260018111156111bb576111bb6139ce565b60405163b602928160e01b815260040161065291815260200190565b95945050505050565b6000806000806111f0898861192f565b905060006111fe89836119c0565b905061120d8a83838a8a611b36565b9450945094505050955095509592505050565b611228612804565b611230612804565b60208101889052604081018790526112737f000000000000000000000000000000000000000000000000000000000000000061126e895160c0015190565b611b8a565b60608083019190915281516001600160a01b037f000000000000000000000000000000000000000000000000000000000000000081811690925283517f0000000000000000000000000000000000000000000000000000000000000000821660209091015283517f0000000000000000000000000000000000000000000000000000000000000000821660409182015284517f00000000000000000000000000000000000000000000000000000000000000008316940184905284517f0000000000000000000000000000000000000000000000000000000000000000831660809091015284517f000000000000000000000000000000000000000000000000000000000000000090921660a0909201919091526101808901516101a08a0151915163f81a03c360e01b81526000949363f81a03c3936113b7939192600401613dd6565b6000604051808303816000875af11580156113d6573d6000803e3d6000fd5b505050506040513d6000823e601f3d908101601f191682016040526113fe91908101906134ee565b9050611416876040015188602001515183600061101c565b60808301526060870151602088015151611433919083600161101c565b60a0830152604082015151608001516001600160a01b03161561146d5781515160408301515160800151611467919061192f565b60c08301525b6001600160a01b03861660e08301526101008201859052610120820184600181111561149b5761149b6139ce565b908160018111156114ae576114ae6139ce565b9052509098975050505050505050565b6000604051602001611500906020808252601c908201527b11561150d5551157d0511317d191505515549157d11254d05093115160221b604082015260600190565b60408051601f198184030181528282528051602091820120908301526001600160a01b03851690820152606081018390526080015b6040516020818303038152906040528051906020012090505b92915050565b61155e8282611c45565b15610f685760405163dd70e0c960e01b815260048101829052602401610652565b60008061158c878661192f565b905060006040518060600160405280886001600160a01b0316635dcf719485602001516040518263ffffffff1660e01b81526004016115cb91906129cf565b6040805180830381865afa1580156115e7573d6000803e3d6000fd5b505050506040513d601f19601f8201168201806040525081019061160b9190613e3d565b8152602001886001600160a01b0316635dcf719485604001516040518263ffffffff1660e01b815260040161164091906129cf565b6040805180830381865afa15801561165c573d6000803e3d6000fd5b505050506040513d601f19601f820116820180604052508101906116809190613e3d565b8152602001886001600160a01b0316635dcf719485606001516040518263ffffffff1660e01b81526004016116b591906129cf565b6040805180830381865afa1580156116d1573d6000803e3d6000fd5b505050506040513d601f19601f820116820180604052508101906116f59190613e3d565b905290506117068883838888611cb1565b98975050505050505050565b6000836001600160a01b031663bd02d0f561172d8585611cf5565b6040518263ffffffff1660e01b815260040161174b91815260200190565b602060405180830381865afa158015611768573d6000803e3d6000fd5b505050506040513d601f19601f8201168201806040525081019061178c91906136f6565b90505b9392505050565b60006001600160ff1b038211156118005760405162461bcd60e51b815260206004820152602860248201527f53616665436173743a2076616c756520646f65736e27742066697420696e2061604482015267371034b73a191a9b60c11b6064820152608401610652565b5090565b7f00000000000000000000000000000000000000000000000000000000000000006001600160a01b031663e2a4853a60405160200161184290613d3b565b6040516020818303038152906040528051906020012060006040518363ffffffff1660e01b8152600401611877929190613650565b6020604051808303816000875af1158015611896573d6000803e3d6000fd5b505050506040513d601f19601f820116820180604052508101906118ba91906136f6565b50565b6000806119098484604060c0600019901c6040518060400160405280601f81526020017f676574556e636f6d7061637465644f7261636c65426c6f636b4e756d62657200815250611d6d565b90508060000361178f5760405163349f5fdd60e11b815260048101849052602401610652565b611937612893565b60405163a8d8fff560e01b815260009073__$ff439aa65a80c9eec648f15db20b189505$__9063a8d8fff5906119739087908790600401613e8d565b608060405180830381865af4158015611990573d6000803e3d6000fd5b505050506040513d601f19601f820116820180604052508101906119b49190613ea7565b905061178f8482611e0a565b6119c86128ba565b6040518060600160405280846001600160a01b0316635dcf719485602001516040518263ffffffff1660e01b8152600401611a0391906129cf565b6040805180830381865afa158015611a1f573d6000803e3d6000fd5b505050506040513d601f19601f82011682018060405250810190611a439190613e3d565b8152602001846001600160a01b0316635dcf719485604001516040518263ffffffff1660e01b8152600401611a7891906129cf565b6040805180830381865afa158015611a94573d6000803e3d6000fd5b505050506040513d601f19601f82011682018060405250810190611ab89190613e3d565b8152602001846001600160a01b0316635dcf719485606001516040518263ffffffff1660e01b8152600401611aed91906129cf565b6040805180830381865afa158015611b09573d6000803e3d6000fd5b505050506040513d601f19601f82011682018060405250810190611b2d9190613e3d565b90529392505050565b600080600080611b4a898989896001611cb1565b90506000611b5e8a878b600001518a611ed3565b905060008083138015611b78575081611b7684611f4e565b115b9b929a50909850909650505050505050565b6060600082516001600160401b03811115611ba757611ba7612b33565b604051908082528060200260200182016040528015611be057816020015b611bcd612893565b815260200190600190039081611bc55790505b50905060005b8351811015611c3d576000848281518110611c0357611c0361365e565b60200260200101519050611c178682611fa0565b838381518110611c2957611c2961365e565b602090810291909101015250600101611be6565b509392505050565b604051633d70e7e560e11b8152600481018290526000906001600160a01b03841690637ae1cfca90602401602060405180830381865afa158015611c8d573d6000803e3d6000fd5b505050506040513d601f19601f8201168201806040525081019061178f9190613d6c565b600080611cc2878787878715612031565b905080600003611cd65760009150506111d7565b6000611ce98888886000015188886120b7565b90506117068183612148565b6000604051602001611d339060208082526018908201527713525397d4139317d19050d513d497d05195115497d0511360421b604082015260600190565b60408051601f198184030181528282528051602091820120908301526001600160a01b038516908201528215156060820152608001611535565b600080611d7c85610100613f43565b90506000611d8a8288613f43565b905087518110611db5578787828660405163bdec9c0d60e01b81526004016106529493929190613f65565b6000888281518110611dc957611dc961365e565b602002602001015190506000878484611de29190613f96565b611dec908b613fad565b611df69190613f96565b9190911c8616935050505095945050505050565b80516001600160a01b0316611e32576040516302fde0d760e11b815260040160405180910390fd5b6000826001600160a01b0316637ae1cfca611e50846000015161218f565b6040518263ffffffff1660e01b8152600401611e6e91815260200190565b602060405180830381865afa158015611e8b573d6000803e3d6000fd5b505050506040513d601f19601f82011682018060405250810190611eaf9190613d6c565b90508015610da85781516040516309f8c93760e01b815261065291906004016129cf565b6000846001600160a01b031663bd02d0f5611eef868686612211565b6040518263ffffffff1660e01b8152600401611f0d91815260200190565b602060405180830381865afa158015611f2a573d6000803e3d6000fd5b505050506040513d601f19601f820116820180604052508101906111d791906136f6565b6000808212156118005760405162461bcd60e51b815260206004820181905260248201527f53616665436173743a2076616c7565206d75737420626520706f7369746976656044820152606401610652565b611fa8612893565b60405163a8d8fff560e01b815260009073__$ff439aa65a80c9eec648f15db20b189505$__9063a8d8fff590611fe49087908790600401613e8d565b608060405180830381865af4158015612001573d6000803e3d6000fd5b505050506040513d601f19601f820116820180604052508101906120259190613ea7565b905061178f84826122a0565b60008083612043578560600151612049565b85604001515b905060006120588888846122e7565b90506000841561208657856120755786604001516020015161207f565b8660200151602001515b90506120a0565b856120965760408701515161209d565b6020870151515b90505b6120aa8183613f96565b9998505050505050505050565b6000806120cd6120c8888887612385565b611796565b905060006120dc8888876123e3565b90508115806120e9575080155b156120f9576000925050506111d7565b600061210687878761242a565b905060006121176120c88385613f96565b905060008761212f5761212a8286613fc0565b612139565b6121398583613fc0565b9b9a5050505050505050505050565b60008061215d61215785612463565b84612474565b90506000841361217e5761217081611796565b61217990613fe7565b612187565b61218781611796565b949350505050565b60006040516020016121c7906020808252601290820152711254d7d3505492d15517d11254d05093115160721b604082015260600190565b60408051601f198184030181528282528051602091820120908301526001600160a01b03841690820152606001604051602081830303815290604052805190602001209050919050565b6000604051602001612245906020808252600e908201526d26a0ac2fa827262fa320a1aa27a960911b604082015260600190565b60408051601f1981840301815282825280516020918201209083015281018590526001600160a01b0384166060820152821515608082015260a0015b6040516020818303038152906040528051906020012090509392505050565b6122aa8282611e0a565b80606001516001600160a01b031681604001516001600160a01b031603610f685780516040516332e6f44d60e21b815261065291906004016129cf565b6000806122fc84604001518560600151612482565b905080856001600160a01b031663bd02d0f561231c8760000151876124b1565b6040518263ffffffff1660e01b815260040161233a91815260200190565b602060405180830381865afa158015612357573d6000803e3d6000fd5b505050506040513d601f19601f8201168201806040525081019061237b91906136f6565b6111d79190613f43565b60008061239a84604001518560600151612482565b905060006123b38686600001518760400151878661251f565b905060006123cc8787600001518860600151888761251f565b90506123d88183613dc3565b979650505050505050565b6000806123f884604001518560600151612482565b90506000612411868660000151876040015187866125af565b905060006123cc878760000151886060015188876125af565b6000821561244b578161243e578351612444565b83602001515b905061178f565b8161245a57836020015161178c565b50509051919050565b600080821215611800575060000390565b600061178f838360006125cc565b6000816001600160a01b0316836001600160a01b0316146124a45760016124a7565b60025b60ff169392505050565b60006040516020016124e2906020808252600b908201526a1413d3d317d05353d5539560aa1b604082015260600190565b60408051601f198184030181528282528051602091820120908301526001600160a01b038086169183019190915283166060820152608001611535565b600081866001600160a01b031663bd02d0f561253c888888612614565b6040518263ffffffff1660e01b815260040161255a91815260200190565b602060405180830381865afa158015612577573d6000803e3d6000fd5b505050506040513d601f19601f8201168201806040525081019061259b91906136f6565b6125a59190613f43565b9695505050505050565b600081866001600160a01b031663bd02d0f561253c88888861268c565b6000836000036125de5750600061178f565b81156125fd576124448468327cb2734119d3b7a9601e1b8560016126c9565b61178c8468327cb2734119d3b7a9601e1b8561271a565b6000604051602001612647906020808252600d908201526c13d4115397d2539511549154d5609a1b604082015260600190565b60408051601f198184030181528282528051602091820120908301526001600160a01b038087169183019190915284166060820152821515608082015260a001612281565b6000604051602001612647906020808252601790820152764f50454e5f494e5445524553545f494e5f544f4b454e5360481b604082015260600190565b6000806126d786868661271a565b905060018360028111156126ed576126ed6139ce565b14801561270a57506000848061270557612705613f2d565b868809115b156111d7576125a5600182613dc3565b60008080600019858709858702925082811083820303915050806000036127545783828161274a5761274a613f2d565b049250505061178f565b80841161279b5760405162461bcd60e51b81526020600482015260156024820152744d6174683a206d756c446976206f766572666c6f7760581b6044820152606401610652565b60008486880960026001871981018816978890046003810283188082028403028082028403028082028403028082028403028082028403029081029092039091026000889003889004909101858311909403939093029303949094049190911702949350505050565b604080516102008101825260006101408201818152610160830182905261018083018290526101a083018290526101c083018290526101e08301829052825260208201529081016128536128e7565b8152602001606081526020016060815260200160608152602001612875612893565b8152600060208201819052604082018190526060909101905b905290565b60408051608081018252600080825260208201819052918101829052606081019190915290565b60405180606001604052806128cd6129a8565b81526020016128da6129a8565b815260200161288e6129a8565b604080516101408101909152600060608083018281526080840183905260a0840183905260c0840183905260e0840183905261010084019290925261012083015281526020810161298560408051610140810190915280600081526020016000815260200160008152602001600081526020016000815260200160008152602001600081526020016000815260200160008152602001600081525090565b815260408051606081018252600080825260208281018290529282015291015290565b604051806040016040528060008152602001600081525090565b6001600160a01b03169052565b6001600160a01b0391909116815260200190565b6001600160a01b03811681146118ba57600080fd5b80151581146118ba57600080fd5b60006101c08284031215612a1957600080fd5b50919050565b60008060008060008060c08789031215612a3857600080fd5b8635612a43816129e3565b95506020870135612a53816129e3565b94506040870135612a63816129e3565b93506060870135612a73816129f8565b92506080870135915060a08701356001600160401b03811115612a9557600080fd5b612aa189828a01612a06565b9150509295509295509295565b600080600060608486031215612ac357600080fd5b8335612ace816129e3565b92506020840135612ade816129f8565b915060408401356001600160401b03811115612af957600080fd5b612b0586828701612a06565b9150509250925092565b6020808252600a908201526920a2262fa5a2a2a822a960b11b604082015260600190565b634e487b7160e01b600052604160045260246000fd5b6040516101c081016001600160401b0381118282101715612b6c57612b6c612b33565b60405290565b60405161012081016001600160401b0381118282101715612b6c57612b6c612b33565b60405161014081016001600160401b0381118282101715612b6c57612b6c612b33565b604051606081016001600160401b0381118282101715612b6c57612b6c612b33565b60405160e081016001600160401b0381118282101715612b6c57612b6c612b33565b604051601f8201601f191681016001600160401b0381118282101715612c2457612c24612b33565b604052919050565b60006001600160401b03821115612c4557612c45612b33565b5060051b60200190565b600082601f830112612c6057600080fd5b8135612c73612c6e82612c2c565b612bfc565b8082825260208201915060208360051b860101925085831115612c9557600080fd5b602085015b83811015612cbb578035612cad816129e3565b835260209283019201612c9a565b5095945050505050565b600082601f830112612cd657600080fd5b8135612ce4612c6e82612c2c565b8082825260208201915060208360051b860101925085831115612d0657600080fd5b602085015b83811015612cbb578035835260209283019201612d0b565b600082601f830112612d3457600080fd5b8135612d42612c6e82612c2c565b8082825260208201915060208360051b860101925085831115612d6457600080fd5b602085015b83811015612cbb5780356001600160401b03811115612d8757600080fd5b8601603f81018813612d9857600080fd5b60208101356001600160401b03811115612db457612db4612b33565b612dc7601f8201601f1916602001612bfc565b8181526040838301018a1015612ddc57600080fd5b81604084016020830137600060208383010152808652505050602083019250602081019050612d69565b60006101c08236031215612e1957600080fd5b612e21612b49565b8235815260208301356001600160401b03811115612e3e57600080fd5b612e4a36828601612c4f565b60208301525060408301356001600160401b03811115612e6957600080fd5b612e7536828601612cc5565b60408301525060608301356001600160401b03811115612e9457600080fd5b612ea036828601612cc5565b60608301525060808301356001600160401b03811115612ebf57600080fd5b612ecb36828601612cc5565b60808301525060a08301356001600160401b03811115612eea57600080fd5b612ef636828601612cc5565b60a08301525060c08301356001600160401b03811115612f1557600080fd5b612f2136828601612cc5565b60c08301525060e08301356001600160401b03811115612f4057600080fd5b612f4c36828601612cc5565b60e0830152506101008301356001600160401b03811115612f6c57600080fd5b612f7836828601612cc5565b610100830152506101208301356001600160401b03811115612f9957600080fd5b612fa536828601612cc5565b610120830152506101408301356001600160401b03811115612fc657600080fd5b612fd236828601612d23565b610140830152506101608301356001600160401b03811115612ff357600080fd5b612fff36828601612c4f565b610160830152506101808301356001600160401b0381111561302057600080fd5b61302c36828601612c4f565b610180830152506101a08301356001600160401b0381111561304d57600080fd5b61305936828601612d23565b6101a08301525092915050565b600081518084526020840193506020830160005b828110156130a15781516001600160a01b031686526020958601959091019060010161307a565b5093949350505050565b600081518084526020840193506020830160005b828110156130a15781518652602095860195909101906001016130bf565b6000815180845260005b81811015613103576020818501810151868301820152016130e7565b506000602082860101526020601f19601f83011685010191505092915050565b600082825180855260208501945060208160051b8301016020850160005b8381101561317357601f1985840301885261315d8383516130dd565b6020988901989093509190910190600101613141565b50909695505050505050565b6001600160a01b03848116825283166020808301919091526060604083018190528351908301528201516101c060808301526000906131c2610220840182613066565b90506040840151605f198483030160a08501526131df82826130ab565b9150506060840151605f198483030160c08501526131fd82826130ab565b9150506080840151605f198483030160e085015261321b82826130ab565b91505060a0840151605f198483030161010085015261323a82826130ab565b91505060c0840151605f198483030161012085015261325982826130ab565b91505060e0840151605f198483030161014085015261327882826130ab565b915050610100840151605f198483030161016085015261329882826130ab565b915050610120840151605f19848303016101808501526132b882826130ab565b915050610140840151605f19848303016101a08501526132d88282613123565b915050610160840151605f19848303016101c08501526132f88282613066565b915050610180840151605f19848303016101e08501526133188282613066565b9150506101a0840151605f19848303016102008501526123d88282613123565b6000808335601e1984360301811261334f57600080fd5b8301803591506001600160401b0382111561336957600080fd5b6020019150600581901b360382131561338157600080fd5b9250929050565b81835281816020850137506000828201602090810191909152601f909101601f19169091010190565b6001600160a01b0386168152606060208201819052810184905260008560808301825b878110156134045782356133e7816129e3565b6001600160a01b03168252602092830192909101906001016133d4565b50838103604085015284815260208082019250600586901b82010186600036829003601e19015b8882101561349b57848403601f19018652823581811261344a57600080fd5b8a016020810190356001600160401b0381111561346657600080fd5b80360382131561347557600080fd5b613480868284613388565b9550505060208301925060208601955060018201915061342b565b50919b9a5050505050505050505050565b805163ffffffff811681146134c057600080fd5b919050565b8051601781900b81146134c057600080fd5b80516001600160401b03811681146134c057600080fd5b60006020828403121561350057600080fd5b81516001600160401b0381111561351657600080fd5b8201601f8101841361352757600080fd5b8051613535612c6e82612c2c565b808282526020820191506020610120840285010192508683111561355857600080fd5b6020840193505b828410156125a557610120848803121561357857600080fd5b613580612b72565b84518152613590602086016134ac565b60208201526135a1604086016134c5565b60408201526135b2606086016134c5565b60608201526135c3608086016134c5565b60808201526135d460a086016134d7565b60a082015260c085810151908201526135ef60e086016134d7565b60e082015261360161010086016134d7565b6101008201528252610120939093019260209091019061355f565b6001600160a01b0385811682528416602082015282151560408201526080606082018190526000906125a5908301846130ab565b918252602082015260400190565b634e487b7160e01b600052603260045260246000fd5b81516001600160a01b039081168252602080840151821690830152604080840151909116908201526060808301516101008301916136b4908401826129c2565b5060808301516136c760808401826129c2565b5060a08301516136db60a084018215159052565b5060c083015160c083015260e083015160e083015292915050565b60006020828403121561370857600080fd5b5051919050565b6001600160a01b03929092168252602082015260400190565b80516134c0816129e3565b600082601f83011261374457600080fd5b8151613752612c6e82612c2c565b8082825260208201915060208360051b86010192508583111561377457600080fd5b602085015b83811015612cbb57805161378c816129e3565b835260209283019201613779565b8051600881106134c057600080fd5b8051600381106134c057600080fd5b600061014082840312156137cb57600080fd5b6137d3612b95565b90506137de8261379a565b81526137ec602083016137a9565b602082015260408281015190820152606080830151908201526080808301519082015260a0808301519082015260c0808301519082015260e0808301519082015261010080830151908201526101209182015191810191909152919050565b60006060828403121561385d57600080fd5b613865612bb8565b90508151613872816129f8565b81526020820151613882816129f8565b60208201526040820151613895816129f8565b604082015292915050565b6000602082840312156138b257600080fd5b81516001600160401b038111156138c857600080fd5b82016101c081850312156138db57600080fd5b6138e3612bb8565b81516001600160401b038111156138f957600080fd5b820160e0818703121561390b57600080fd5b613913612bda565b61391c82613728565b815261392a60208301613728565b602082015261393b60408301613728565b604082015261394c60608301613728565b606082015261395d60808301613728565b608082015261396e60a08301613728565b60a082015260c08201516001600160401b0381111561398c57600080fd5b61399888828501613733565b60c0830152508252506139ae85602084016137b8565b60208201526139c185610160840161384b565b6040820152949350505050565b634e487b7160e01b600052602160045260246000fd5b600881106139f4576139f46139ce565b9052565b600381106139f4576139f46139ce565b613a138282516139e4565b6020810151613a2560208401826139f8565b5060408101516040830152606081015160608301526080810151608083015260a081015160a083015260c081015160c083015260e081015160e08301526101008101516101008301526101208101516101208301525050565b80516101c080845281516001600160a01b0390811691850191909152602082015181166101e0850152604082015116610200840152606081015160009190613aca6102208601826129c2565b506080810151613ade6102408601826129c2565b5060a0810151613af26102608601826129c2565b5060c0015160e0610280850152613b0d6102a0850182613066565b90506020830151613b216020860182613a08565b5060408381015180511515610160870152602081015115156101808701529081015115156101a0860152611c3d565b80516001600160a01b03908116835260208083015182169084015260408083015182169084015260609182015116910152565b600081518084526020840193506020830160005b828110156130a157613baa868351613b50565b6080959095019460209190910190600101613b97565b600281106139f4576139f46139ce565b60208152613c2860208201835180516001600160a01b03908116835260208083015182169084015260408083015182169084015260608083015182169084015260808083015182169084015260a09182015116910152565b602082015160e082015260006040830151610240610100840152613c50610260840182613a7e565b90506060840151601f1984830301610120850152613c6e8282613b83565b9150506080840151601f1984830301610140850152613c8d82826130ab565b91505060a0840151601f1984830301610160850152613cac82826130ab565b91505060c0840151613cc2610180850182613b50565b5060e0840151613cd66102008501826129c2565b50610100840151610220840152610120840151611c3d610240850182613bc0565b6001600160a01b0387811682528681166020830152858116604083015284166060820152821515608082015260c060a08201819052600090611706908301846130ab565b6020808252601790820152765245454e5452414e43595f47554152445f53544154555360481b604082015260600190565b600060208284031215613d7e57600080fd5b815161178f816129f8565b6001600160a01b038316815260406020820181905260009061178c908301846130dd565b634e487b7160e01b600052601160045260246000fd5b8082018082111561154e5761154e613dad565b6001600160a01b0384168152606060208083018290528451918301829052600091908501906080840190835b81811015613e295783516001600160a01b0316835260209384019390920191600101613e02565b505083810360408501526123d88186613123565b60006040828403128015613e5057600080fd5b50604080519081016001600160401b0381118282101715613e7357613e73612b33565b604052825181526020928301519281019290925250919050565b6001600160a01b0392831681529116602082015260400190565b60006080828403128015613eba57600080fd5b50604051608081016001600160401b0381118282101715613edd57613edd612b33565b6040528251613eeb816129e3565b81526020830151613efb816129e3565b60208201526040830151613f0e816129e3565b60408201526060830151613f21816129e3565b60608201529392505050565b634e487b7160e01b600052601260045260246000fd5b600082613f6057634e487b7160e01b600052601260045260246000fd5b500490565b608081526000613f7860808301876130ab565b85602084015284604084015282810360608401526123d881856130dd565b808202811582820484141761154e5761154e613dad565b8181038181111561154e5761154e613dad565b8181036000831280158383131683831282161715613fe057613fe0613dad565b5092915050565b6000600160ff1b8201613ffc57613ffc613dad565b506000039056fea2646970667358221220f37ba835315c0a1e47d5873f540e51cee04cda5ce67fee2cdc3378cac93cb67764736f6c634300081a0033",
  "linkReferences": {
    "contracts/adl/AdlUtils.sol": {
      "AdlUtils": [
        {
          "length": 20,
          "start": 1859
        },
        {
          "length": 20,
          "start": 2229
        },
        {
          "length": 20,
          "start": 3806
        }
      ]
    },
    "contracts/market/MarketStoreUtils.sol": {
      "MarketStoreUtils": [
        {
          "length": 20,
          "start": 7073
        },
        {
          "length": 20,
          "start": 8722
        }
      ]
    },
    "contracts/order/OrderStoreUtils.sol": {
      "OrderStoreUtils": [
        {
          "length": 20,
          "start": 2570
        }
      ]
    },
    "contracts/order/OrderUtils.sol": {
      "OrderUtils": [
        {
          "length": 20,
          "start": 2814
        }
      ]
    }
  },
  "deployedLinkReferences": {
    "contracts/adl/AdlUtils.sol": {
      "AdlUtils": [
        {
          "length": 20,
          "start": 1259
        },
        {
          "length": 20,
          "start": 1629
        },
        {
          "length": 20,
          "start": 3206
        }
      ]
    },
    "contracts/market/MarketStoreUtils.sol": {
      "MarketStoreUtils": [
        {
          "length": 20,
          "start": 6473
        },
        {
          "length": 20,
          "start": 8122
        }
      ]
    },
    "contracts/order/OrderStoreUtils.sol": {
      "OrderStoreUtils": [
        {
          "length": 20,
          "start": 1970
        }
      ]
    },
    "contracts/order/OrderUtils.sol": {
      "OrderUtils": [
        {
          "length": 20,
          "start": 2214
        }
      ]
    }
  }
}