{
  "_format": "hh-sol-artifact-1",
  "contractName": "PriceFeed",
  "sourceName": "contracts/oracle/PriceFeed.sol",
  "abi": [
    {
      "inputs": [],
      "stateMutability": "nonpayable",
      "type": "constructor"
    },
    {
      "inputs": [],
      "name": "aggregator",
      "outputs": [
        {
          "internalType": "address",
          "name": "",
          "type": "address"
        }
      ],
      "stateMutability": "view",
      "type": "function"
    },
    {
      "inputs": [],
      "name": "answer",
      "outputs": [
        {
          "internalType": "int256",
          "name": "",
          "type": "int256"
        }
      ],
      "stateMutability": "view",
      "type": "function"
    },
    {
      "inputs": [
        {
          "internalType": "uint80",
          "name": "",
          "type": "uint80"
        }
      ],
      "name": "answers",
      "outputs": [
        {
          "internalType": "int256",
          "name": "",
          "type": "int256"
        }
      ],
      "stateMutability": "view",
      "type": "function"
    },
    {
      "inputs": [],
      "name": "decimals",
      "outputs": [
        {
          "internalType": "uint256",
          "name": "",
          "type": "uint256"
        }
      ],
      "stateMutability": "view",
      "type": "function"
    },
    {
      "inputs": [],
      "name": "description",
      "outputs": [
        {
          "internalType": "string",
          "name": "",
          "type": "string"
        }
      ],
      "stateMutability": "view",
      "type": "function"
    },
    {
      "inputs": [],
      "name": "gov",
      "outputs": [
        {
          "internalType": "address",
          "name": "",
          "type": "address"
        }
      ],
      "stateMutability": "view",
      "type": "function"
    },
    {
      "inputs": [
        {
          "internalType": "address",
          "name": "",
          "type": "address"
        }
      ],
      "name": "isAdmin",
      "outputs": [
        {
          "internalType": "bool",
          "name": "",
          "type": "bool"
        }
      ],
      "stateMutability": "view",
      "type": "function"
    },
    {
      "inputs": [],
      "name": "latestAnswer",
      "outputs": [
        {
          "internalType": "int256",
          "name": "",
          "type": "int256"
        }
      ],
      "stateMutability": "view",
      "type": "function"
    },
    {
      "inputs": [],
      "name": "latestRound",
      "outputs": [
        {
          "internalType": "uint80",
          "name": "",
          "type": "uint80"
        }
      ],
      "stateMutability": "view",
      "type": "function"
    },
    {
      "inputs": [],
      "name": "latestRoundData",
      "outputs": [
        {
          "internalType": "uint80",
          "name": "",
          "type": "uint80"
        },
        {
          "internalType": "int256",
          "name": "",
          "type": "int256"
        },
        {
          "internalType": "uint256",
          "name": "",
          "type": "uint256"
        },
        {
          "internalType": "uint256",
          "name": "",
          "type": "uint256"
        },
        {
          "internalType": "uint80",
          "name": "",
          "type": "uint80"
        }
      ],
      "stateMutability": "view",
      "type": "function"
    },
    {
      "inputs": [],
      "name": "roundId",
      "outputs": [
        {
          "internalType": "uint80",
          "name": "",
          "type": "uint80"
        }
      ],
      "stateMutability": "view",
      "type": "function"
    },
    {
      "inputs": [
        {
          "internalType": "address",
          "name": "_account",
          "type": "address"
        },
        {
          "internalType": "bool",
          "name": "_isAdmin",
          "type": "bool"
        }
      ],
      "name": "setAdmin",
      "outputs": [],
      "stateMutability": "nonpayable",
      "type": "function"
    },
    {
      "inputs": [
        {
          "internalType": "int256",
          "name": "_answer",
          "type": "int256"
        }
      ],
      "name": "setLatestAnswer",
      "outputs": [],
      "stateMutability": "nonpayable",
      "type": "function"
    }
  ],
  "bytecode": "0x60c06040526009608090815268141c9a58d95199595960ba1b60a0526002906100289082610108565b5034801561003557600080fd5b50600580546001600160a01b031916339081179091556000908152600760205260409020805460ff191660011790556101c6565b634e487b7160e01b600052604160045260246000fd5b600181811c9082168061009357607f821691505b6020821081036100b357634e487b7160e01b600052602260045260246000fd5b50919050565b601f82111561010357806000526020600020601f840160051c810160208510156100e05750805b601f840160051c820191505b8181101561010057600081556001016100ec565b50505b505050565b81516001600160401b0381111561012157610121610069565b6101358161012f845461007f565b846100b9565b6020601f82116001811461016957600083156101515750848201515b600019600385901b1c1916600184901b178455610100565b600084815260208120601f198516915b828110156101995787850151825560209485019460019092019101610179565b50848210156101b75786840151600019600387901b60f8161c191681555b50505050600190811b01905550565b6105b9806101d56000396000f3fe608060405234801561001057600080fd5b50600436106100af5760003560e01c806304ea97b0146100b457806312d43a51146100c9578063245a7bfc146100f957806324d7806c1461010c578063313ce5671461013f5780634b0bddd2146101565780634c295ca31461016957806350d25bcd14610189578063668a0f02146101915780637284e416146101b657806385bb7d69146101cb5780638cd221c9146101d4578063feaf968c146101e7575b600080fd5b6100c76100c23660046103c3565b610223565b005b6005546100dc906001600160a01b031681565b6040516001600160a01b0390911681526020015b60405180910390f35b6003546100dc906001600160a01b031681565b61012f61011a3660046103f8565b60076020526000908152604090205460ff1681565b60405190151581526020016100f0565b61014860045481565b6040519081526020016100f0565b6100c761016436600461041a565b6102a7565b610148610177366004610456565b60066020526000908152604090205481565b600054610148565b6001546001600160501b03165b6040516001600160501b0390911681526020016100f0565b6101be6102fc565b6040516100f0919061047f565b61014860005481565b60015461019e906001600160501b031681565b6101ef61038a565b604080516001600160501b03968716815260208101959095528401929092526060830152909116608082015260a0016100f0565b3360009081526007602052604090205460ff1661025b5760405162461bcd60e51b8152600401610252906104cd565b60405180910390fd5b60018054610274916001600160501b0390911690610511565b600180546001600160501b0319166001600160501b03929092169182179055600082815590815260066020526040902055565b6005546001600160a01b031633146102d15760405162461bcd60e51b8152600401610252906104cd565b6001600160a01b03919091166000908152600760205260409020805460ff1916911515919091179055565b6002805461030990610536565b80601f016020809104026020016040519081016040528092919081815260200182805461033590610536565b80156103825780601f1061035757610100808354040283529160200191610382565b820191906000526020600020905b81548152906001019060200180831161036557829003601f168201915b505050505081565b60015460008054909182918291829182916001600160501b031690826103b1603c42610570565b92989197509550909350600092509050565b6000602082840312156103d557600080fd5b5035919050565b80356001600160a01b03811681146103f357600080fd5b919050565b60006020828403121561040a57600080fd5b610413826103dc565b9392505050565b6000806040838503121561042d57600080fd5b610436836103dc565b91506020830135801515811461044b57600080fd5b809150509250929050565b60006020828403121561046857600080fd5b81356001600160501b038116811461041357600080fd5b602081526000825180602084015260005b818110156104ad5760208186018101516040868401015201610490565b506000604082850101526040601f19601f83011684010191505092915050565b602080825260149082015273283934b1b2a332b2b21d103337b93134b23232b760611b604082015260600190565b634e487b7160e01b600052601160045260246000fd5b6001600160501b038181168382160190811115610530576105306104fb565b92915050565b600181811c9082168061054a57607f821691505b60208210810361056a57634e487b7160e01b600052602260045260246000fd5b50919050565b81810381811115610530576105306104fb56fea2646970667358221220b63bcd5d63f3756958fc5bbc05b7dfea91c02f894904c9217899dcd97643e09964736f6c634300081a0033",
  "linkReferences": {},
  "deployedLinkReferences": {}
}