{
  "_format": "hh-sol-artifact-1",
  "contractName": "FeeDistributor",
  "sourceName": "contracts/fee/FeeDistributor.sol",
  "abi": [
    {
      "inputs": [
        {
          "internalType": "contract RoleStore",
          "name": "_roleStore",
          "type": "address"
        },
        {
          "internalType": "contract DataStore",
          "name": "_dataStore",
          "type": "address"
        },
        {
          "internalType": "contract EventEmitter",
          "name": "_eventEmitter",
          "type": "address"
        },
        {
          "internalType": "contract IVaultV1",
          "name": "_vaultV1",
          "type": "address"
        },
        {
          "internalType": "contract IRouterV1",
          "name": "_routerV1",
          "type": "address"
        },
        {
          "internalType": "address",
          "name": "_routerV2",
          "type": "address"
        },
        {
          "internalType": "contract IExchangeRouter",
          "name": "_exchangeRouterV2",
          "type": "address"
        },
        {
          "internalType": "address",
          "name": "_bridgingToken",
          "type": "address"
        }
      ],
      "stateMutability": "nonpayable",
      "type": "constructor"
    },
    {
      "inputs": [],
      "name": "EmptyReceiver",
      "type": "error"
    },
    {
      "inputs": [
        {
          "internalType": "address",
          "name": "msgSender",
          "type": "address"
        },
        {
          "internalType": "string",
          "name": "role",
          "type": "string"
        }
      ],
      "name": "Unauthorized",
      "type": "error"
    },
    {
      "inputs": [
        {
          "internalType": "bytes32",
          "name": "orderKey",
          "type": "bytes32"
        },
        {
          "components": [
            {
              "components": [
                {
                  "internalType": "address",
                  "name": "account",
                  "type": "address"
                },
                {
                  "internalType": "address",
                  "name": "receiver",
                  "type": "address"
                },
                {
                  "internalType": "address",
                  "name": "callbackContract",
                  "type": "address"
                },
                {
                  "internalType": "address",
                  "name": "uiFeeReceiver",
                  "type": "address"
                },
                {
                  "internalType": "address",
                  "name": "market",
                  "type": "address"
                },
                {
                  "internalType": "address",
                  "name": "initialCollateralToken",
                  "type": "address"
                },
                {
                  "internalType": "address[]",
                  "name": "swapPath",
                  "type": "address[]"
                }
              ],
              "internalType": "struct Order.Addresses",
              "name": "addresses",
              "type": "tuple"
            },
            {
              "components": [
                {
                  "internalType": "enum Order.OrderType",
                  "name": "orderType",
                  "type": "uint8"
                },
                {
                  "internalType": "enum Order.DecreasePositionSwapType",
                  "name": "decreasePositionSwapType",
                  "type": "uint8"
                },
                {
                  "internalType": "uint256",
                  "name": "sizeDeltaUsd",
                  "type": "uint256"
                },
                {
                  "internalType": "uint256",
                  "name": "initialCollateralDeltaAmount",
                  "type": "uint256"
                },
                {
                  "internalType": "uint256",
                  "name": "triggerPrice",
                  "type": "uint256"
                },
                {
                  "internalType": "uint256",
                  "name": "acceptablePrice",
                  "type": "uint256"
                },
                {
                  "internalType": "uint256",
                  "name": "executionFee",
                  "type": "uint256"
                },
                {
                  "internalType": "uint256",
                  "name": "callbackGasLimit",
                  "type": "uint256"
                },
                {
                  "internalType": "uint256",
                  "name": "minOutputAmount",
                  "type": "uint256"
                },
                {
                  "internalType": "uint256",
                  "name": "updatedAtBlock",
                  "type": "uint256"
                }
              ],
              "internalType": "struct Order.Numbers",
              "name": "numbers",
              "type": "tuple"
            },
            {
              "components": [
                {
                  "internalType": "bool",
                  "name": "isLong",
                  "type": "bool"
                },
                {
                  "internalType": "bool",
                  "name": "shouldUnwrapNativeToken",
                  "type": "bool"
                },
                {
                  "internalType": "bool",
                  "name": "isFrozen",
                  "type": "bool"
                }
              ],
              "internalType": "struct Order.Flags",
              "name": "flags",
              "type": "tuple"
            }
          ],
          "internalType": "struct Order.Props",
          "name": "order",
          "type": "tuple"
        },
        {
          "components": [
            {
              "components": [
                {
                  "components": [
                    {
                      "internalType": "string",
                      "name": "key",
                      "type": "string"
                    },
                    {
                      "internalType": "address",
                      "name": "value",
                      "type": "address"
                    }
                  ],
                  "internalType": "struct EventUtils.AddressKeyValue[]",
                  "name": "items",
                  "type": "tuple[]"
                },
                {
                  "components": [
                    {
                      "internalType": "string",
                      "name": "key",
                      "type": "string"
                    },
                    {
                      "internalType": "address[]",
                      "name": "value",
                      "type": "address[]"
                    }
                  ],
                  "internalType": "struct EventUtils.AddressArrayKeyValue[]",
                  "name": "arrayItems",
                  "type": "tuple[]"
                }
              ],
              "internalType": "struct EventUtils.AddressItems",
              "name": "addressItems",
              "type": "tuple"
            },
            {
              "components": [
                {
                  "components": [
                    {
                      "internalType": "string",
                      "name": "key",
                      "type": "string"
                    },
                    {
                      "internalType": "uint256",
                      "name": "value",
                      "type": "uint256"
                    }
                  ],
                  "internalType": "struct EventUtils.UintKeyValue[]",
                  "name": "items",
                  "type": "tuple[]"
                },
                {
                  "components": [
                    {
                      "internalType": "string",
                      "name": "key",
                      "type": "string"
                    },
                    {
                      "internalType": "uint256[]",
                      "name": "value",
                      "type": "uint256[]"
                    }
                  ],
                  "internalType": "struct EventUtils.UintArrayKeyValue[]",
                  "name": "arrayItems",
                  "type": "tuple[]"
                }
              ],
              "internalType": "struct EventUtils.UintItems",
              "name": "uintItems",
              "type": "tuple"
            },
            {
              "components": [
                {
                  "components": [
                    {
                      "internalType": "string",
                      "name": "key",
                      "type": "string"
                    },
                    {
                      "internalType": "int256",
                      "name": "value",
                      "type": "int256"
                    }
                  ],
                  "internalType": "struct EventUtils.IntKeyValue[]",
                  "name": "items",
                  "type": "tuple[]"
                },
                {
                  "components": [
                    {
                      "internalType": "string",
                      "name": "key",
                      "type": "string"
                    },
                    {
                      "internalType": "int256[]",
                      "name": "value",
                      "type": "int256[]"
                    }
                  ],
                  "internalType": "struct EventUtils.IntArrayKeyValue[]",
                  "name": "arrayItems",
                  "type": "tuple[]"
                }
              ],
              "internalType": "struct EventUtils.IntItems",
              "name": "intItems",
              "type": "tuple"
            },
            {
              "components": [
                {
                  "components": [
                    {
                      "internalType": "string",
                      "name": "key",
                      "type": "string"
                    },
                    {
                      "internalType": "bool",
                      "name": "value",
                      "type": "bool"
                    }
                  ],
                  "internalType": "struct EventUtils.BoolKeyValue[]",
                  "name": "items",
                  "type": "tuple[]"
                },
                {
                  "components": [
                    {
                      "internalType": "string",
                      "name": "key",
                      "type": "string"
                    },
                    {
                      "internalType": "bool[]",
                      "name": "value",
                      "type": "bool[]"
                    }
                  ],
                  "internalType": "struct EventUtils.BoolArrayKeyValue[]",
                  "name": "arrayItems",
                  "type": "tuple[]"
                }
              ],
              "internalType": "struct EventUtils.BoolItems",
              "name": "boolItems",
              "type": "tuple"
            },
            {
              "components": [
                {
                  "components": [
                    {
                      "internalType": "string",
                      "name": "key",
                      "type": "string"
                    },
                    {
                      "internalType": "bytes32",
                      "name": "value",
                      "type": "bytes32"
                    }
                  ],
                  "internalType": "struct EventUtils.Bytes32KeyValue[]",
                  "name": "items",
                  "type": "tuple[]"
                },
                {
                  "components": [
                    {
                      "internalType": "string",
                      "name": "key",
                      "type": "string"
                    },
                    {
                      "internalType": "bytes32[]",
                      "name": "value",
                      "type": "bytes32[]"
                    }
                  ],
                  "internalType": "struct EventUtils.Bytes32ArrayKeyValue[]",
                  "name": "arrayItems",
                  "type": "tuple[]"
                }
              ],
              "internalType": "struct EventUtils.Bytes32Items",
              "name": "bytes32Items",
              "type": "tuple"
            },
            {
              "components": [
                {
                  "components": [
                    {
                      "internalType": "string",
                      "name": "key",
                      "type": "string"
                    },
                    {
                      "internalType": "bytes",
                      "name": "value",
                      "type": "bytes"
                    }
                  ],
                  "internalType": "struct EventUtils.BytesKeyValue[]",
                  "name": "items",
                  "type": "tuple[]"
                },
                {
                  "components": [
                    {
                      "internalType": "string",
                      "name": "key",
                      "type": "string"
                    },
                    {
                      "internalType": "bytes[]",
                      "name": "value",
                      "type": "bytes[]"
                    }
                  ],
                  "internalType": "struct EventUtils.BytesArrayKeyValue[]",
                  "name": "arrayItems",
                  "type": "tuple[]"
                }
              ],
              "internalType": "struct EventUtils.BytesItems",
              "name": "bytesItems",
              "type": "tuple"
            },
            {
              "components": [
                {
                  "components": [
                    {
                      "internalType": "string",
                      "name": "key",
                      "type": "string"
                    },
                    {
                      "internalType": "string",
                      "name": "value",
                      "type": "string"
                    }
                  ],
                  "internalType": "struct EventUtils.StringKeyValue[]",
                  "name": "items",
                  "type": "tuple[]"
                },
                {
                  "components": [
                    {
                      "internalType": "string",
                      "name": "key",
                      "type": "string"
                    },
                    {
                      "internalType": "string[]",
                      "name": "value",
                      "type": "string[]"
                    }
                  ],
                  "internalType": "struct EventUtils.StringArrayKeyValue[]",
                  "name": "arrayItems",
                  "type": "tuple[]"
                }
              ],
              "internalType": "struct EventUtils.StringItems",
              "name": "stringItems",
              "type": "tuple"
            }
          ],
          "internalType": "struct EventUtils.EventLogData",
          "name": "",
          "type": "tuple"
        }
      ],
      "name": "afterOrderCancellation",
      "outputs": [],
      "stateMutability": "nonpayable",
      "type": "function"
    },
    {
      "inputs": [],
      "name": "bridgingToken",
      "outputs": [
        {
          "internalType": "address",
          "name": "",
          "type": "address"
        }
      ],
      "stateMutability": "view",
      "type": "function"
    },
    {
      "inputs": [
        {
          "internalType": "uint256",
          "name": "startIndexV2",
          "type": "uint256"
        },
        {
          "internalType": "uint256",
          "name": "endIndexV2",
          "type": "uint256"
        }
      ],
      "name": "claimFees",
      "outputs": [],
      "stateMutability": "nonpayable",
      "type": "function"
    },
    {
      "inputs": [],
      "name": "dataStore",
      "outputs": [
        {
          "internalType": "contract DataStore",
          "name": "",
          "type": "address"
        }
      ],
      "stateMutability": "view",
      "type": "function"
    },
    {
      "inputs": [],
      "name": "eventEmitter",
      "outputs": [
        {
          "internalType": "contract EventEmitter",
          "name": "",
          "type": "address"
        }
      ],
      "stateMutability": "view",
      "type": "function"
    },
    {
      "inputs": [],
      "name": "exchangeRouterV2",
      "outputs": [
        {
          "internalType": "contract IExchangeRouter",
          "name": "",
          "type": "address"
        }
      ],
      "stateMutability": "view",
      "type": "function"
    },
    {
      "inputs": [],
      "name": "roleStore",
      "outputs": [
        {
          "internalType": "contract RoleStore",
          "name": "",
          "type": "address"
        }
      ],
      "stateMutability": "view",
      "type": "function"
    },
    {
      "inputs": [],
      "name": "routerV1",
      "outputs": [
        {
          "internalType": "contract IRouterV1",
          "name": "",
          "type": "address"
        }
      ],
      "stateMutability": "view",
      "type": "function"
    },
    {
      "inputs": [],
      "name": "routerV2",
      "outputs": [
        {
          "internalType": "address",
          "name": "",
          "type": "address"
        }
      ],
      "stateMutability": "view",
      "type": "function"
    },
    {
      "inputs": [
        {
          "internalType": "bytes32",
          "name": "feeBatchKey",
          "type": "bytes32"
        },
        {
          "internalType": "uint256",
          "name": "tokenIndex",
          "type": "uint256"
        },
        {
          "internalType": "address[]",
          "name": "path",
          "type": "address[]"
        },
        {
          "internalType": "uint256",
          "name": "swapAmount",
          "type": "uint256"
        },
        {
          "internalType": "uint256",
          "name": "minOut",
          "type": "uint256"
        }
      ],
      "name": "swapFeesUsingV1",
      "outputs": [],
      "stateMutability": "nonpayable",
      "type": "function"
    },
    {
      "inputs": [
        {
          "internalType": "bytes32",
          "name": "feeBatchKey",
          "type": "bytes32"
        },
        {
          "internalType": "uint256",
          "name": "tokenIndex",
          "type": "uint256"
        },
        {
          "internalType": "address",
          "name": "market",
          "type": "address"
        },
        {
          "internalType": "address[]",
          "name": "swapPath",
          "type": "address[]"
        },
        {
          "internalType": "uint256",
          "name": "swapAmount",
          "type": "uint256"
        },
        {
          "internalType": "uint256",
          "name": "executionFee",
          "type": "uint256"
        },
        {
          "internalType": "uint256",
          "name": "minOut",
          "type": "uint256"
        }
      ],
      "name": "swapFeesUsingV2",
      "outputs": [],
      "stateMutability": "payable",
      "type": "function"
    },
    {
      "inputs": [],
      "name": "vaultV1",
      "outputs": [
        {
          "internalType": "contract IVaultV1",
          "name": "",
          "type": "address"
        }
      ],
      "stateMutability": "view",
      "type": "function"
    }
  ],
  "bytecode": "0x61018060405234801561001157600080fd5b50604051613c60380380613c6083398101604081905261003091610089565b60016000556001600160a01b0397881660805295871660a05293861660c05291851660e0528416610100528316610120528216610140521661016052610139565b6001600160a01b038116811461008657600080fd5b50565b600080600080600080600080610100898b0312156100a657600080fd5b88516100b181610071565b60208a01519098506100c281610071565b60408a01519097506100d381610071565b60608a01519096506100e481610071565b60808a01519095506100f581610071565b60a08a015190945061010681610071565b60c08a015190935061011781610071565b60e08a015190925061012881610071565b809150509295985092959890939650565b60805160a05160c05160e05161010051610120516101405161016051613a2361023d6000396000818161019a015281816103620152610a8301526000818160ae0152610340015260008181610166015261031e0152600081816102020152610a6101526000818160fe0152818161078401528181610dbc0152610e3501526000818161026b0152818161104e01526110a70152600081816101ce015281816102fc01528181610444015281816104df01528181610594015281816106830152818161080d0152818161094a015281816109a001528181610a3f01528181610fa60152818161102d01526110860152600081816101320152610b030152613a236000f3fe6080604052600436106100975760003560e01c80630a602d351461009c5780631ee00bc3146100ec5780634a4a7b0414610120578063502f7446146101545780635a445bce14610188578063660d0d67146101bc578063714981e0146101f05780638afe631d1461022457806390cdaaba146102395780639ff78c3014610259578063cdd1c61e1461028d578063f940bfa1146102ad575b600080fd5b3480156100a857600080fd5b506100d07f000000000000000000000000000000000000000000000000000000000000000081565b6040516001600160a01b03909116815260200160405180910390f35b3480156100f857600080fd5b506100d07f000000000000000000000000000000000000000000000000000000000000000081565b34801561012c57600080fd5b506100d07f000000000000000000000000000000000000000000000000000000000000000081565b34801561016057600080fd5b506100d07f000000000000000000000000000000000000000000000000000000000000000081565b34801561019457600080fd5b506100d07f000000000000000000000000000000000000000000000000000000000000000081565b3480156101c857600080fd5b506100d07f000000000000000000000000000000000000000000000000000000000000000081565b3480156101fc57600080fd5b506100d07f000000000000000000000000000000000000000000000000000000000000000081565b610237610232366004611ac0565b6102cd565b005b34801561024557600080fd5b50610237610254366004612b11565b6103d1565b34801561026557600080fd5b506100d07f000000000000000000000000000000000000000000000000000000000000000081565b34801561029957600080fd5b506102376102a8366004612c77565b6106e7565b3480156102b957600080fd5b506102376102c8366004612c99565b610a10565b60405163e1af6c2d60e01b815273__$adc2203bb4e1bd4beebbd2bb27c02cd615$__9063e1af6c2d90610398907f0000000000000000000000000000000000000000000000000000000000000000907f0000000000000000000000000000000000000000000000000000000000000000907f0000000000000000000000000000000000000000000000000000000000000000907f0000000000000000000000000000000000000000000000000000000000000000908e908e908e908e908e908e908e90600401612d35565b60006040518083038186803b1580156103b057600080fd5b505af41580156103c4573d6000803e3d6000fd5b5050505050505050505050565b610440604051602001610402906020808252600a908201526921a7a72a2927a62622a960b11b604082015260600190565b604051602081830303815290604052805190602001206040518060400160405280600a81526020016921a7a72a2927a62622a960b11b815250610aec565b60007f00000000000000000000000000000000000000000000000000000000000000006001600160a01b031663a6ed563e61047a86610ba5565b6040518263ffffffff1660e01b815260040161049891815260200190565b602060405180830381865afa1580156104b5573d6000803e3d6000fd5b505050506040513d601f19601f820116820180604052508101906104d99190612dae565b905060007f00000000000000000000000000000000000000000000000000000000000000006001600160a01b031663bd02d0f561051587610c29565b6040518263ffffffff1660e01b815260040161053391815260200190565b602060405180830381865afa158015610550573d6000803e3d6000fd5b505050506040513d601f19601f820116820180604052508101906105749190612dae565b9050600073__$0bd2986ff9eae1ca31d173b6c133f035a7$__63fdfc26f37f0000000000000000000000000000000000000000000000000000000000000000856040518363ffffffff1660e01b81526004016105d1929190612dc7565b600060405180830381865af41580156105ee573d6000803e3d6000fd5b505050506040513d6000823e601f3d908101601f191682016040526106169190810190612ea5565b905061062785602001516060015190565b8160400151838151811061063d5761063d612f76565b602002602001018181516106519190612fa2565b90525060405163e1fbaed360e01b815273__$0bd2986ff9eae1ca31d173b6c133f035a7$__9063e1fbaed3906106af907f00000000000000000000000000000000000000000000000000000000000000009087908690600401612fe7565b60006040518083038186803b1580156106c757600080fd5b505af41580156106db573d6000803e3d6000fd5b50505050505050505050565b6106ef610c6a565b61077860405160200161072d906020808252601790820152762322a2afa224a9aa2924a12aaa24a7a72fa5a2a2a822a960491b604082015260600190565b60405160208183030381529060405280519060200120604051806040016040528060178152602001762322a2afa224a9aa2924a12aaa24a7a72fa5a2a2a822a960491b815250610aec565b6107806117f2565b60007f00000000000000000000000000000000000000000000000000000000000000006001600160a01b0316630842b0766040518163ffffffff1660e01b8152600401602060405180830381865afa1580156107e0573d6000803e3d6000fd5b505050506040513d601f19601f820116820180604052508101906108049190612dae565b905060006108337f00000000000000000000000000000000000000000000000000000000000000008686610cc3565b805190915060006108458260026130a7565b61084f9085612fa2565b9050806001600160401b0381111561086957610869611930565b604051908082528060200260200182016040528015610892578160200160208202803683370190505b508552806001600160401b038111156108ad576108ad611930565b6040519080825280602002602001820160405280156108d6578160200160208202803683370190505b506020860152806001600160401b038111156108f4576108f4611930565b60405190808252806020026020018201604052801561091d578160200160208202803683370190505b50604086015261092d8585610d90565b945061093b85848685610f57565b9450426060860152600061096e7f000000000000000000000000000000000000000000000000000000000000000061121d565b60405163e1fbaed360e01b815290915073__$0bd2986ff9eae1ca31d173b6c133f035a7$__9063e1fbaed3906109cc907f00000000000000000000000000000000000000000000000000000000000000009085908b90600401612fe7565b60006040518083038186803b1580156109e457600080fd5b505af41580156109f8573d6000803e3d6000fd5b50505050505050505050610a0c6001600055565b5050565b604051635cc28b0760e01b815273__$adc2203bb4e1bd4beebbd2bb27c02cd615$__90635cc28b0790610ab5907f0000000000000000000000000000000000000000000000000000000000000000907f0000000000000000000000000000000000000000000000000000000000000000907f0000000000000000000000000000000000000000000000000000000000000000908b908b908b908b908b906004016130be565b60006040518083038186803b158015610acd57600080fd5b505af4158015610ae1573d6000803e3d6000fd5b505050505050505050565b60405163ac4ab3fb60e01b81526001600160a01b037f0000000000000000000000000000000000000000000000000000000000000000169063ac4ab3fb90610b3a9033908690600401612dc7565b602060405180830381865afa158015610b57573d6000803e3d6000fd5b505050506040513d601f19601f82011682018060405250810190610b7b9190613118565b610a0c57338160405163a35b150b60e01b8152600401610b9c929190613182565b60405180910390fd5b6000604051602001610be8906020808252601e908201527f4645455f4449535452494255544f525f535741505f4645455f42415443480000604082015260600190565b60408051601f198184030181528282528051602091820120908301528101839052606001604051602081830303815290604052805190602001209050919050565b6000604051602001610be8906020808252818101527f4645455f4449535452494255544f525f535741505f544f4b454e5f494e444558604082015260600190565b600260005403610cbc5760405162461bcd60e51b815260206004820152601f60248201527f5265656e7472616e637947756172643a207265656e7472616e742063616c6c006044820152606401610b9c565b6002600055565b6060836001600160a01b031663e7e4148e604051602001610d03906020808252600b908201526a13505492d15517d31254d560aa1b604082015260600190565b60408051601f198184030181529082905280516020909101206001600160e01b031960e084901b16825260048201526024810186905260448101859052606401600060405180830381865afa158015610d60573d6000803e3d6000fd5b505050506040513d6000823e601f3d908101601f19168201604052610d8891908101906131a6565b949350505050565b610d986117f2565b60005b82811015610f4c57604051630e468baf60e41b8152600481018290526000907f00000000000000000000000000000000000000000000000000000000000000006001600160a01b03169063e468baf090602401602060405180830381865afa158015610e0b573d6000803e3d6000fd5b505050506040513d601f19601f82011682018060405250810190610e2f91906131da565b905060007f00000000000000000000000000000000000000000000000000000000000000006001600160a01b031663f255527883306040518363ffffffff1660e01b8152600401610e819291906131f7565b6020604051808303816000875af1158015610ea0573d6000803e3d6000fd5b505050506040513d601f19601f82011682018060405250810190610ec49190612dae565b90508186600001518481518110610edd57610edd612f76565b60200260200101906001600160a01b031690816001600160a01b0316815250508086602001518481518110610f1457610f14612f76565b6020026020010181815250508086604001518481518110610f3757610f37612f76565b60209081029190910101525050600101610d9b565b508290505b92915050565b610f5f6117f2565b60005b82811015611213576000858281518110610f7e57610f7e612f76565b60200260200101519050600073__$ff439aa65a80c9eec648f15db20b189505$__63a8d8fff57f0000000000000000000000000000000000000000000000000000000000000000846040518363ffffffff1660e01b8152600401610fe39291906131f7565b608060405180830381865af4158015611000573d6000803e3d6000fd5b505050506040513d601f19601f820116820180604052508101906110249190613211565b9050600061107d7f00000000000000000000000000000000000000000000000000000000000000007f00000000000000000000000000000000000000000000000000000000000000008460000151856040015130611260565b905060006110d67f00000000000000000000000000000000000000000000000000000000000000007f00000000000000000000000000000000000000000000000000000000000000008560000151866060015130611260565b905060006110e58660026130a7565b6110ef908a612fa2565b905083604001518b60000151828151811061110c5761110c612f76565b60200260200101906001600160a01b031690816001600160a01b031681525050828b60200151828151811061114357611143612f76565b602002602001018181525050828b60400151828151811061116657611166612f76565b602090810291909101015260608401518b51611183836001612fa2565b8151811061119357611193612f76565b6001600160a01b039092166020928302919091018201528b015182906111ba836001612fa2565b815181106111ca576111ca612f76565b602090810291909101015260408b015182906111e7836001612fa2565b815181106111f7576111f7612f76565b6020908102919091010152505060019093019250610f62915050565b5093949350505050565b60008061122983611446565b905060008382604051602001611240929190612dc7565b60408051601f198184030181529190528051602090910120949350505050565b600061126b826114fc565b60006112778585611526565b60405163bd02d0f560e01b8152600481018290529091506000906001600160a01b0389169063bd02d0f590602401602060405180830381865afa1580156112c2573d6000803e3d6000fd5b505050506040513d601f19601f820116820180604052508101906112e69190612dae565b604051637152429d60e11b815260048101849052600060248201529091506001600160a01b0389169063e2a4853a906044016020604051808303816000875af1158015611337573d6000803e3d6000fd5b505050506040513d601f19601f8201168201806040525081019061135b9190612dae565b5060405163078d3b7960e01b81526001600160a01b03868116600483015285811660248301526044820183905287169063078d3b7990606401600060405180830381600087803b1580156113ae57600080fd5b505af11580156113c2573d6000803e3d6000fd5b5050604051632c9800af60e11b815273__$e53db83827f4e07ebc418caf7145b8c2d5$__9250635930015e91506113ff908b908a906004016131f7565b60006040518083038186803b15801561141757600080fd5b505af415801561142b573d6000803e3d6000fd5b5050505061143b878786846115b6565b979650505050505050565b6000816001600160a01b031663340dbab3604051602001611480906020808252600590820152644e4f4e434560d81b604082015260600190565b60408051601f198184030181529082905280516020909101206001600160e01b031960e084901b1682526004820152600160248201526044016020604051808303816000875af11580156114d8573d6000803e3d6000fd5b505050506040513d601f19601f82011682018060405250810190610f519190612dae565b6001600160a01b0381166115235760405163d551823d60e01b815260040160405180910390fd5b50565b60006040516020016115609060208082526014908201527310d31052535050931157d1915157d05353d5539560621b604082015260600190565b60408051601f198184030181528282528051602091820120908301526001600160a01b03808616918301919091528316606082015260800160405160208183030381529060405280519060200120905092915050565b6115be61181a565b80516115cb9060026116dd565b6040805180820190915260068152651b585c9ad95d60d21b602082015281516115f79160009087611742565b6040805180820190915260088152673932b1b2b4bb32b960c11b602082015281516116259160019086611742565b60208101516116359060016116dd565b611672600060405180604001604052806009815260200168199959505b5bdd5b9d60ba1b81525084846020015161179f909392919063ffffffff16565b846001600160a01b03166324de01e4611691866001600160a01b031690565b836040518363ffffffff1660e01b81526004016116af9291906138e7565b600060405180830381600087803b1580156116c957600080fd5b505af1158015610ae1573d6000803e3d6000fd5b806001600160401b038111156116f5576116f5611930565b60405190808252806020026020018201604052801561173b57816020015b6040805180820190915260608152600060208201528152602001906001900390816117135790505b5090915250565b818460000151848151811061175957611759612f76565b602002602001015160000181905250808460000151848151811061177f5761177f612f76565b6020908102919091018101516001600160a01b0390921691015250505050565b81846000015184815181106117b6576117b6612f76565b60200260200101516000018190525080846000015184815181106117dc576117dc612f76565b6020026020010151602001818152505050505050565b6040518060800160405280606081526020016060815260200160608152602001600081525090565b604080516101208101909152606060e082018181526101008301919091528190815260200161185c604051806040016040528060608152602001606081525090565b815260200161187e604051806040016040528060608152602001606081525090565b81526020016118a0604051806040016040528060608152602001606081525090565b81526020016118c2604051806040016040528060608152602001606081525090565b81526020016118e4604051806040016040528060608152602001606081525090565b8152602001611906604051806040016040528060608152602001606081525090565b905290565b6001600160a01b038116811461152357600080fd5b803561192b8161190b565b919050565b634e487b7160e01b600052604160045260246000fd5b60405161014081016001600160401b038111828210171561196957611969611930565b60405290565b604051606081016001600160401b038111828210171561196957611969611930565b604080519081016001600160401b038111828210171561196957611969611930565b60405160e081016001600160401b038111828210171561196957611969611930565b604051608081016001600160401b038111828210171561196957611969611930565b604051601f8201601f191681016001600160401b0381118282101715611a1f57611a1f611930565b604052919050565b60006001600160401b03821115611a4057611a40611930565b5060051b60200190565b600082601f830112611a5b57600080fd5b8135611a6e611a6982611a27565b6119f7565b8082825260208201915060208360051b860101925085831115611a9057600080fd5b602085015b83811015611ab6578035611aa88161190b565b835260209283019201611a95565b5095945050505050565b600080600080600080600060e0888a031215611adb57600080fd5b87359650602088013595506040880135611af48161190b565b945060608801356001600160401b03811115611b0f57600080fd5b611b1b8a828b01611a4a565b979a969950949760808101359660a0820135965060c090910135945092505050565b80356008811061192b57600080fd5b80356003811061192b57600080fd5b60006101408284031215611b6e57600080fd5b611b76611946565b9050611b8182611b3d565b8152611b8f60208301611b4c565b602082015260408281013590820152606080830135908201526080808301359082015260a0808301359082015260c0808301359082015260e0808301359082015261010080830135908201526101209182013591810191909152919050565b801515811461152357600080fd5b600060608284031215611c0e57600080fd5b611c1661196f565b90508135611c2381611bee565b81526020820135611c3381611bee565b60208201526040820135611c4681611bee565b604082015292915050565b600082601f830112611c6257600080fd5b8135602083016000806001600160401b03841115611c8257611c82611930565b50601f8301601f1916602001611c97816119f7565b915050828152858383011115611cac57600080fd5b82826020830137600092810160200192909252509392505050565b600082601f830112611cd857600080fd5b8135611ce6611a6982611a27565b8082825260208201915060208360051b860101925085831115611d0857600080fd5b602085015b83811015611ab65780356001600160401b03811115611d2b57600080fd5b86016040818903601f19011215611d4157600080fd5b611d49611991565b60208201356001600160401b03811115611d6257600080fd5b611d718a602083860101611c51565b82525060408201356001600160401b03811115611d8d57600080fd5b611d9c8a602083860101611a4a565b6020830152508085525050602083019250602081019050611d0d565b600060408284031215611dca57600080fd5b611dd2611991565b905081356001600160401b03811115611dea57600080fd5b8201601f81018413611dfb57600080fd5b8035611e09611a6982611a27565b8082825260208201915060208360051b850101925086831115611e2b57600080fd5b602084015b83811015611ebc5780356001600160401b03811115611e4e57600080fd5b85016040818a03601f19011215611e6457600080fd5b611e6c611991565b60208201356001600160401b03811115611e8557600080fd5b611e948b602083860101611c51565b82525060408201359150611ea78261190b565b60208181019290925284529283019201611e30565b50845250505060208201356001600160401b03811115611edb57600080fd5b611ee784828501611cc7565b60208301525092915050565b600082601f830112611f0457600080fd5b8135611f12611a6982611a27565b8082825260208201915060208360051b860101925085831115611f3457600080fd5b602085015b83811015611ab65780356001600160401b03811115611f5757600080fd5b86016040818903601f19011215611f6d57600080fd5b611f75611991565b60208201356001600160401b03811115611f8e57600080fd5b611f9d8a602083860101611c51565b82525060408201356001600160401b03811115611fb957600080fd5b60208184010192505088601f830112611fd157600080fd5b8135611fdf611a6982611a27565b8082825260208201915060208360051b86010192508b83111561200157600080fd5b6020850194505b82851015612023578435825260209485019490910190612008565b8060208501525050508085525050602083019250602081019050611f39565b60006040828403121561205457600080fd5b61205c611991565b905081356001600160401b0381111561207457600080fd5b8201601f8101841361208557600080fd5b8035612093611a6982611a27565b8082825260208201915060208360051b8501019250868311156120b557600080fd5b602084015b8381101561213e5780356001600160401b038111156120d857600080fd5b85016040818a03601f190112156120ee57600080fd5b6120f6611991565b60208201356001600160401b0381111561210f57600080fd5b61211e8b602083860101611c51565b8252506040919091013560208083019190915290845292830192016120ba565b50845250505060208201356001600160401b0381111561215d57600080fd5b611ee784828501611ef3565b60006040828403121561217b57600080fd5b612183611991565b905081356001600160401b0381111561219b57600080fd5b8201601f810184136121ac57600080fd5b80356121ba611a6982611a27565b8082825260208201915060208360051b8501019250868311156121dc57600080fd5b602084015b8381101561213e5780356001600160401b038111156121ff57600080fd5b85016040818a03601f1901121561221557600080fd5b61221d611991565b60208201356001600160401b0381111561223657600080fd5b6122458b602083860101611c51565b8252506040919091013560208083019190915290845292830192016121e1565b600082601f83011261227657600080fd5b8135612284611a6982611a27565b8082825260208201915060208360051b8601019250858311156122a657600080fd5b602085015b83811015611ab65780356001600160401b038111156122c957600080fd5b86016040818903601f190112156122df57600080fd5b6122e7611991565b60208201356001600160401b0381111561230057600080fd5b61230f8a602083860101611c51565b82525060408201356001600160401b0381111561232b57600080fd5b60208184010192505088601f83011261234357600080fd5b8135612351611a6982611a27565b8082825260208201915060208360051b86010192508b83111561237357600080fd5b6020850194505b8285101561239e57843561238d81611bee565b82526020948501949091019061237a565b80602085015250505080855250506020830192506020810190506122ab565b6000604082840312156123cf57600080fd5b6123d7611991565b905081356001600160401b038111156123ef57600080fd5b8201601f8101841361240057600080fd5b803561240e611a6982611a27565b8082825260208201915060208360051b85010192508683111561243057600080fd5b602084015b838110156124c15780356001600160401b0381111561245357600080fd5b85016040818a03601f1901121561246957600080fd5b612471611991565b60208201356001600160401b0381111561248a57600080fd5b6124998b602083860101611c51565b825250604082013591506124ac82611bee565b60208181019290925284529283019201612435565b50845250505060208201356001600160401b038111156124e057600080fd5b611ee784828501612265565b6000604082840312156124fe57600080fd5b612506611991565b905081356001600160401b0381111561251e57600080fd5b8201601f8101841361252f57600080fd5b803561253d611a6982611a27565b8082825260208201915060208360051b85010192508683111561255f57600080fd5b602084015b8381101561213e5780356001600160401b0381111561258257600080fd5b85016040818a03601f1901121561259857600080fd5b6125a0611991565b60208201356001600160401b038111156125b957600080fd5b6125c88b602083860101611c51565b825250604091909101356020808301919091529084529283019201612564565b600082601f8301126125f957600080fd5b8135612607611a6982611a27565b8082825260208201915060208360051b86010192508583111561262957600080fd5b602085015b83811015611ab65780356001600160401b0381111561264c57600080fd5b86016040818903601f1901121561266257600080fd5b61266a611991565b60208201356001600160401b0381111561268357600080fd5b6126928a602083860101611c51565b82525060408201356001600160401b038111156126ae57600080fd5b60208184010192505088601f8301126126c657600080fd5b81356126d4611a6982611a27565b8082825260208201915060208360051b86010192508b8311156126f657600080fd5b602085015b838110156127375780356001600160401b0381111561271957600080fd5b6127288e6020838a0101611c51565b845250602092830192016126fb565b50806020850152505050808552505060208301925060208101905061262e565b60006040828403121561276957600080fd5b612771611991565b905081356001600160401b0381111561278957600080fd5b8201601f8101841361279a57600080fd5b80356127a8611a6982611a27565b8082825260208201915060208360051b8501019250868311156127ca57600080fd5b602084015b8381101561287a5780356001600160401b038111156127ed57600080fd5b85016040818a03601f1901121561280357600080fd5b61280b611991565b60208201356001600160401b0381111561282457600080fd5b6128338b602083860101611c51565b82525060408201356001600160401b0381111561284f57600080fd5b61285e8b602083860101611c51565b60208301525080855250506020830192506020810190506127cf565b50845250505060208201356001600160401b0381111561289957600080fd5b611ee7848285016125e8565b6000604082840312156128b757600080fd5b6128bf611991565b905081356001600160401b038111156128d757600080fd5b8201601f810184136128e857600080fd5b80356128f6611a6982611a27565b8082825260208201915060208360051b85010192508683111561291857600080fd5b602084015b8381101561287a5780356001600160401b0381111561293b57600080fd5b85016040818a03601f1901121561295157600080fd5b612959611991565b60208201356001600160401b0381111561297257600080fd5b6129818b602083860101611c51565b82525060408201356001600160401b0381111561299d57600080fd5b6129ac8b602083860101611c51565b602083015250808552505060208301925060208101905061291d565b600060e082840312156129da57600080fd5b6129e26119b3565b905081356001600160401b038111156129fa57600080fd5b612a0684828501611db8565b82525060208201356001600160401b03811115612a2257600080fd5b612a2e84828501612042565b60208301525060408201356001600160401b03811115612a4d57600080fd5b612a5984828501612169565b60408301525060608201356001600160401b03811115612a7857600080fd5b612a84848285016123bd565b60608301525060808201356001600160401b03811115612aa357600080fd5b612aaf848285016124ec565b60808301525060a08201356001600160401b03811115612ace57600080fd5b612ada84828501612757565b60a08301525060c08201356001600160401b03811115612af957600080fd5b612b05848285016128a5565b60c08301525092915050565b600080600060608486031215612b2657600080fd5b8335925060208401356001600160401b03811115612b4357600080fd5b84016101c08187031215612b5657600080fd5b612b5e61196f565b81356001600160401b03811115612b7457600080fd5b820160e08189031215612b8657600080fd5b612b8e6119b3565b612b9782611920565b8152612ba560208301611920565b6020820152612bb660408301611920565b6040820152612bc760608301611920565b6060820152612bd860808301611920565b6080820152612be960a08301611920565b60a082015260c08201356001600160401b03811115612c0757600080fd5b612c138a828501611a4a565b60c083015250825250612c298760208401611b5b565b6020820152612c3c876101608401611bfc565b60408281019190915290935085013590506001600160401b03811115612c6157600080fd5b612c6d868287016129c8565b9150509250925092565b60008060408385031215612c8a57600080fd5b50508035926020909101359150565b600080600080600060a08688031215612cb157600080fd5b853594506020860135935060408601356001600160401b03811115612cd557600080fd5b612ce188828901611a4a565b9598949750949560608101359550608001359392505050565b600081518084526020840193506020830160005b828110156112135781516001600160a01b0316865260209586019590910190600101612d0e565b6001600160a01b038c811682528b811660208301528a8116604083015289811660608301526080820189905260a08201889052861660c082015261016060e08201819052600090612d8890830187612cfa565b610100830195909552506101208101929092526101409091015298975050505050505050565b600060208284031215612dc057600080fd5b5051919050565b6001600160a01b03929092168252602082015260400190565b600082601f830112612df157600080fd5b8151612dff611a6982611a27565b8082825260208201915060208360051b860101925085831115612e2157600080fd5b602085015b83811015611ab6578051612e398161190b565b835260209283019201612e26565b600082601f830112612e5857600080fd5b8151612e66611a6982611a27565b8082825260208201915060208360051b860101925085831115612e8857600080fd5b602085015b83811015611ab6578051835260209283019201612e8d565b600060208284031215612eb757600080fd5b81516001600160401b03811115612ecd57600080fd5b820160808185031215612edf57600080fd5b612ee76119d5565b81516001600160401b03811115612efd57600080fd5b612f0986828501612de0565b82525060208201516001600160401b03811115612f2557600080fd5b612f3186828501612e47565b60208301525060408201516001600160401b03811115612f5057600080fd5b612f5c86828501612e47565b604083015250606091820151918101919091529392505050565b634e487b7160e01b600052603260045260246000fd5b634e487b7160e01b600052601160045260246000fd5b80820180821115610f5157610f51612f8c565b600081518084526020840193506020830160005b82811015611213578151865260209586019590910190600101612fc9565b60018060a01b038416815282602082015260606040820152600060e0820183516080606085015281815180845261010086019150602083019350600092505b808310156130515783516001600160a01b031682526020938401936001939093019290910190613026565b506020860151858203605f19016080870152925061306f8184612fb5565b925050506040840151605f198483030160a085015261308e8282612fb5565b915050606084015160c084015280915050949350505050565b8082028115828204841417610f5157610f51612f8c565b6001600160a01b038981168252888116602083015287166040820152606081018690526080810185905261010060a0820181905260009061310190830186612cfa565b60c08301949094525060e001529695505050505050565b60006020828403121561312a57600080fd5b815161313581611bee565b9392505050565b6000815180845260005b8181101561316257602081850181015186830182015201613146565b506000602082860101526020601f19601f83011685010191505092915050565b6001600160a01b0383168152604060208201819052600090610d889083018461313c565b6000602082840312156131b857600080fd5b81516001600160401b038111156131ce57600080fd5b610d8884828501612de0565b6000602082840312156131ec57600080fd5b81516131358161190b565b6001600160a01b0392831681529116602082015260400190565b6000608082840312801561322457600080fd5b5061322d6119d5565b82516132388161190b565b815260208301516132488161190b565b6020820152604083015161325b8161190b565b6040820152606083015161326e8161190b565b60608201529392505050565b600082825180855260208501945060208160051b8301016020850160005b8381101561332157601f1985840301885281518051604085526132be604086018261313c565b6020928301518682038785015280518083529084019360009350909101905b808310156133085783516001600160a01b0316825260209384019360019390930192909101906132dd565b5060209a8b019a90955093909301925050600101613298565b50909695505050505050565b60006040830182516040855281815180845260608701915060608160051b880101935060208301925060005b818110156133a757605f19888603018352835180516040875261337f604088018261313c565b6020928301516001600160a01b03169783019790975250938401939290920191600101613359565b50505050602083015184820360208601526133c2828261327a565b95945050505050565b600082825180855260208501945060208160051b8301016020850160005b8381101561332157601f19858403018852815180516040855261340f604086018261313c565b6020928301518682038785015280518083529084019360009350909101905b80831015613451578351825260208201915060208401935060018301925061342e565b5060209a8b019a909550939093019250506001016133e9565b60006040830182516040855281815180845260608701915060608160051b880101935060208301925060005b818110156134db57605f1988860301835283518051604087526134bc604088018261313c565b6020928301519783019790975250938401939290920191600101613496565b50505050602083015184820360208601526133c282826133cb565b60006040830182516040855281815180845260608701915060608160051b880101935060208301925060005b818110156134db57605f198886030183528351805160408752613548604088018261313c565b6020928301519783019790975250938401939290920191600101613522565b600082825180855260208501945060208160051b8301016020850160005b8381101561332157601f1985840301885281518051604085526135ab604086018261313c565b6020928301518682038785015280518083529084019360009350909101905b808310156135ef578351151582526020820191506020840193506001830192506135ca565b5060209a8b019a90955093909301925050600101613585565b60006040830182516040855281815180845260608701915060608160051b880101935060208301925060005b8181101561367b57605f19888603018352835180516040875261365a604088018261313c565b60209283015115159783019790975250938401939290920191600101613634565b50505050602083015184820360208601526133c28282613567565b60006040830182516040855281815180845260608701915060608160051b880101935060208301925060005b818110156134db57605f1988860301835283518051604087526136e8604088018261313c565b60209283015197830197909752509384019392909201916001016136c2565b600082825180855260208501945060208160051b8301016020850160005b8381101561332157601f19858403018852815180516040855261374b604086018261313c565b6020928301518682038785015280518083529084019391925081830191600582901b84010160005b828110156137a457601f1985830301845261378f82875161313c565b60209687019694909401939150600101613773565b508097505050505050602082019150602088019750600181019050613725565b60006040830182516040855281815180845260608701915060608160051b880101935060208301925060005b8181101561384857605f198886030183528351805160408752613816604088018261313c565b9050602082015191508681036020880152613831818361313c565b9650505060209384019392909201916001016137f0565b50505050602083015184820360208601526133c28282613707565b60006040830182516040855281815180845260608701915060608160051b880101935060208301925060005b8181101561384857605f1988860301835283518051604087526138b5604088018261313c565b90506020820151915086810360208801526138d0818361313c565b96505050602093840193929092019160010161388f565b60608152600b60608201526a1199595cd0db185a5b595960aa1b608082015282602082015260a060408201526000825160e060a084015261392c61018084018261332d565b90506020840151609f198483030160c0850152613949828261346a565b9150506040840151609f198483030160e085015261396782826134f6565b9150506060840151609f19848303016101008501526139868282613608565b9150506080840151609f19848303016101208501526139a58282613696565b91505060a0840151609f19848303016101408501526139c482826137c4565b91505060c0840151609f19848303016101608501526139e38282613863565b969550505050505056fea264697066735822122026fc6fc0af9cd0d262f13a53e120b300e9fec075edaee67f263fd29ee183940a64736f6c634300081a0033",
  "linkReferences": {
    "contracts/fee/FeeBatchStoreUtils.sol": {
      "FeeBatchStoreUtils": [
        {
          "length": 20,
          "start": 1975
        },
        {
          "length": 20,
          "start": 2208
        },
        {
          "length": 20,
          "start": 3005
        }
      ]
    },
    "contracts/fee/FeeSwapUtils.sol": {
      "FeeSwapUtils": [
        {
          "length": 20,
          "start": 1305
        },
        {
          "length": 20,
          "start": 3164
        }
      ]
    },
    "contracts/market/MarketStoreUtils.sol": {
      "MarketStoreUtils": [
        {
          "length": 20,
          "start": 4553
        }
      ]
    },
    "contracts/market/MarketUtils.sol": {
      "MarketUtils": [
        {
          "length": 20,
          "start": 5648
        }
      ]
    }
  },
  "deployedLinkReferences": {
    "contracts/fee/FeeBatchStoreUtils.sol": {
      "FeeBatchStoreUtils": [
        {
          "length": 20,
          "start": 1402
        },
        {
          "length": 20,
          "start": 1635
        },
        {
          "length": 20,
          "start": 2432
        }
      ]
    },
    "contracts/fee/FeeSwapUtils.sol": {
      "FeeSwapUtils": [
        {
          "length": 20,
          "start": 732
        },
        {
          "length": 20,
          "start": 2591
        }
      ]
    },
    "contracts/market/MarketStoreUtils.sol": {
      "MarketStoreUtils": [
        {
          "length": 20,
          "start": 3980
        }
      ]
    },
    "contracts/market/MarketUtils.sol": {
      "MarketUtils": [
        {
          "length": 20,
          "start": 5075
        }
      ]
    }
  }
}