{
  "_format": "hh-sol-artifact-1",
  "contractName": "ExchangeRouter",
  "sourceName": "contracts/router/ExchangeRouter.sol",
  "abi": [
    {
      "inputs": [
        {
          "internalType": "contract Router",
          "name": "_router",
          "type": "address"
        },
        {
          "internalType": "contract RoleStore",
          "name": "_roleStore",
          "type": "address"
        },
        {
          "internalType": "contract DataStore",
          "name": "_dataStore",
          "type": "address"
        },
        {
          "internalType": "contract EventEmitter",
          "name": "_eventEmitter",
          "type": "address"
        },
        {
          "internalType": "contract IDepositHandler",
          "name": "_depositHandler",
          "type": "address"
        },
        {
          "internalType": "contract IWithdrawalHandler",
          "name": "_withdrawalHandler",
          "type": "address"
        },
        {
          "internalType": "contract IOrderHandler",
          "name": "_orderHandler",
          "type": "address"
        }
      ],
      "stateMutability": "nonpayable",
      "type": "constructor"
    },
    {
      "inputs": [
        {
          "internalType": "uint256",
          "name": "adjustedClaimableAmount",
          "type": "uint256"
        },
        {
          "internalType": "uint256",
          "name": "claimedAmount",
          "type": "uint256"
        }
      ],
      "name": "CollateralAlreadyClaimed",
      "type": "error"
    },
    {
      "inputs": [
        {
          "internalType": "bytes32",
          "name": "key",
          "type": "bytes32"
        }
      ],
      "name": "DisabledFeature",
      "type": "error"
    },
    {
      "inputs": [
        {
          "internalType": "address",
          "name": "market",
          "type": "address"
        }
      ],
      "name": "DisabledMarket",
      "type": "error"
    },
    {
      "inputs": [
        {
          "internalType": "address",
          "name": "market",
          "type": "address"
        },
        {
          "internalType": "address",
          "name": "token",
          "type": "address"
        }
      ],
      "name": "EmptyAddressInMarketTokenBalanceValidation",
      "type": "error"
    },
    {
      "inputs": [],
      "name": "EmptyDeposit",
      "type": "error"
    },
    {
      "inputs": [],
      "name": "EmptyHoldingAddress",
      "type": "error"
    },
    {
      "inputs": [],
      "name": "EmptyMarket",
      "type": "error"
    },
    {
      "inputs": [],
      "name": "EmptyOrder",
      "type": "error"
    },
    {
      "inputs": [],
      "name": "EmptyReceiver",
      "type": "error"
    },
    {
      "inputs": [
        {
          "internalType": "address",
          "name": "token",
          "type": "address"
        }
      ],
      "name": "EmptyTokenTranferGasLimit",
      "type": "error"
    },
    {
      "inputs": [
        {
          "internalType": "uint256",
          "name": "marketsLength",
          "type": "uint256"
        },
        {
          "internalType": "uint256",
          "name": "tokensLength",
          "type": "uint256"
        }
      ],
      "name": "InvalidClaimAffiliateRewardsInput",
      "type": "error"
    },
    {
      "inputs": [
        {
          "internalType": "uint256",
          "name": "marketsLength",
          "type": "uint256"
        },
        {
          "internalType": "uint256",
          "name": "tokensLength",
          "type": "uint256"
        },
        {
          "internalType": "uint256",
          "name": "timeKeysLength",
          "type": "uint256"
        }
      ],
      "name": "InvalidClaimCollateralInput",
      "type": "error"
    },
    {
      "inputs": [
        {
          "internalType": "uint256",
          "name": "marketsLength",
          "type": "uint256"
        },
        {
          "internalType": "uint256",
          "name": "tokensLength",
          "type": "uint256"
        }
      ],
      "name": "InvalidClaimFundingFeesInput",
      "type": "error"
    },
    {
      "inputs": [
        {
          "internalType": "uint256",
          "name": "marketsLength",
          "type": "uint256"
        },
        {
          "internalType": "uint256",
          "name": "tokensLength",
          "type": "uint256"
        }
      ],
      "name": "InvalidClaimUiFeesInput",
      "type": "error"
    },
    {
      "inputs": [
        {
          "internalType": "address",
          "name": "market",
          "type": "address"
        },
        {
          "internalType": "address",
          "name": "token",
          "type": "address"
        },
        {
          "internalType": "uint256",
          "name": "balance",
          "type": "uint256"
        },
        {
          "internalType": "uint256",
          "name": "expectedMinBalance",
          "type": "uint256"
        }
      ],
      "name": "InvalidMarketTokenBalance",
      "type": "error"
    },
    {
      "inputs": [
        {
          "internalType": "address",
          "name": "market",
          "type": "address"
        },
        {
          "internalType": "address",
          "name": "token",
          "type": "address"
        },
        {
          "internalType": "uint256",
          "name": "balance",
          "type": "uint256"
        },
        {
          "internalType": "uint256",
          "name": "claimableFundingFeeAmount",
          "type": "uint256"
        }
      ],
      "name": "InvalidMarketTokenBalanceForClaimableFunding",
      "type": "error"
    },
    {
      "inputs": [
        {
          "internalType": "address",
          "name": "market",
          "type": "address"
        },
        {
          "internalType": "address",
          "name": "token",
          "type": "address"
        },
        {
          "internalType": "uint256",
          "name": "balance",
          "type": "uint256"
        },
        {
          "internalType": "uint256",
          "name": "collateralAmount",
          "type": "uint256"
        }
      ],
      "name": "InvalidMarketTokenBalanceForCollateralAmount",
      "type": "error"
    },
    {
      "inputs": [
        {
          "internalType": "uint256",
          "name": "uiFeeFactor",
          "type": "uint256"
        },
        {
          "internalType": "uint256",
          "name": "maxUiFeeFactor",
          "type": "uint256"
        }
      ],
      "name": "InvalidUiFeeFactor",
      "type": "error"
    },
    {
      "inputs": [
        {
          "internalType": "address",
          "name": "token",
          "type": "address"
        },
        {
          "internalType": "address",
          "name": "receiver",
          "type": "address"
        },
        {
          "internalType": "uint256",
          "name": "amount",
          "type": "uint256"
        }
      ],
      "name": "TokenTransferError",
      "type": "error"
    },
    {
      "inputs": [
        {
          "internalType": "address",
          "name": "msgSender",
          "type": "address"
        },
        {
          "internalType": "string",
          "name": "role",
          "type": "string"
        }
      ],
      "name": "Unauthorized",
      "type": "error"
    },
    {
      "anonymous": false,
      "inputs": [
        {
          "indexed": false,
          "internalType": "string",
          "name": "reason",
          "type": "string"
        },
        {
          "indexed": false,
          "internalType": "bytes",
          "name": "returndata",
          "type": "bytes"
        }
      ],
      "name": "TokenTransferReverted",
      "type": "event"
    },
    {
      "inputs": [
        {
          "internalType": "bytes32",
          "name": "key",
          "type": "bytes32"
        }
      ],
      "name": "cancelDeposit",
      "outputs": [],
      "stateMutability": "payable",
      "type": "function"
    },
    {
      "inputs": [
        {
          "internalType": "bytes32",
          "name": "key",
          "type": "bytes32"
        }
      ],
      "name": "cancelOrder",
      "outputs": [],
      "stateMutability": "payable",
      "type": "function"
    },
    {
      "inputs": [
        {
          "internalType": "bytes32",
          "name": "key",
          "type": "bytes32"
        }
      ],
      "name": "cancelWithdrawal",
      "outputs": [],
      "stateMutability": "payable",
      "type": "function"
    },
    {
      "inputs": [
        {
          "internalType": "address[]",
          "name": "markets",
          "type": "address[]"
        },
        {
          "internalType": "address[]",
          "name": "tokens",
          "type": "address[]"
        },
        {
          "internalType": "address",
          "name": "receiver",
          "type": "address"
        }
      ],
      "name": "claimAffiliateRewards",
      "outputs": [
        {
          "internalType": "uint256[]",
          "name": "",
          "type": "uint256[]"
        }
      ],
      "stateMutability": "payable",
      "type": "function"
    },
    {
      "inputs": [
        {
          "internalType": "address[]",
          "name": "markets",
          "type": "address[]"
        },
        {
          "internalType": "address[]",
          "name": "tokens",
          "type": "address[]"
        },
        {
          "internalType": "uint256[]",
          "name": "timeKeys",
          "type": "uint256[]"
        },
        {
          "internalType": "address",
          "name": "receiver",
          "type": "address"
        }
      ],
      "name": "claimCollateral",
      "outputs": [
        {
          "internalType": "uint256[]",
          "name": "",
          "type": "uint256[]"
        }
      ],
      "stateMutability": "payable",
      "type": "function"
    },
    {
      "inputs": [
        {
          "internalType": "address[]",
          "name": "markets",
          "type": "address[]"
        },
        {
          "internalType": "address[]",
          "name": "tokens",
          "type": "address[]"
        },
        {
          "internalType": "address",
          "name": "receiver",
          "type": "address"
        }
      ],
      "name": "claimFundingFees",
      "outputs": [
        {
          "internalType": "uint256[]",
          "name": "",
          "type": "uint256[]"
        }
      ],
      "stateMutability": "payable",
      "type": "function"
    },
    {
      "inputs": [
        {
          "internalType": "address[]",
          "name": "markets",
          "type": "address[]"
        },
        {
          "internalType": "address[]",
          "name": "tokens",
          "type": "address[]"
        },
        {
          "internalType": "address",
          "name": "receiver",
          "type": "address"
        }
      ],
      "name": "claimUiFees",
      "outputs": [
        {
          "internalType": "uint256[]",
          "name": "",
          "type": "uint256[]"
        }
      ],
      "stateMutability": "payable",
      "type": "function"
    },
    {
      "inputs": [
        {
          "components": [
            {
              "internalType": "address",
              "name": "receiver",
              "type": "address"
            },
            {
              "internalType": "address",
              "name": "callbackContract",
              "type": "address"
            },
            {
              "internalType": "address",
              "name": "uiFeeReceiver",
              "type": "address"
            },
            {
              "internalType": "address",
              "name": "market",
              "type": "address"
            },
            {
              "internalType": "address",
              "name": "initialLongToken",
              "type": "address"
            },
            {
              "internalType": "address",
              "name": "initialShortToken",
              "type": "address"
            },
            {
              "internalType": "address[]",
              "name": "longTokenSwapPath",
              "type": "address[]"
            },
            {
              "internalType": "address[]",
              "name": "shortTokenSwapPath",
              "type": "address[]"
            },
            {
              "internalType": "uint256",
              "name": "minMarketTokens",
              "type": "uint256"
            },
            {
              "internalType": "bool",
              "name": "shouldUnwrapNativeToken",
              "type": "bool"
            },
            {
              "internalType": "uint256",
              "name": "executionFee",
              "type": "uint256"
            },
            {
              "internalType": "uint256",
              "name": "callbackGasLimit",
              "type": "uint256"
            }
          ],
          "internalType": "struct DepositUtils.CreateDepositParams",
          "name": "params",
          "type": "tuple"
        }
      ],
      "name": "createDeposit",
      "outputs": [
        {
          "internalType": "bytes32",
          "name": "",
          "type": "bytes32"
        }
      ],
      "stateMutability": "payable",
      "type": "function"
    },
    {
      "inputs": [
        {
          "components": [
            {
              "components": [
                {
                  "internalType": "address",
                  "name": "receiver",
                  "type": "address"
                },
                {
                  "internalType": "address",
                  "name": "callbackContract",
                  "type": "address"
                },
                {
                  "internalType": "address",
                  "name": "uiFeeReceiver",
                  "type": "address"
                },
                {
                  "internalType": "address",
                  "name": "market",
                  "type": "address"
                },
                {
                  "internalType": "address",
                  "name": "initialCollateralToken",
                  "type": "address"
                },
                {
                  "internalType": "address[]",
                  "name": "swapPath",
                  "type": "address[]"
                }
              ],
              "internalType": "struct IBaseOrderUtils.CreateOrderParamsAddresses",
              "name": "addresses",
              "type": "tuple"
            },
            {
              "components": [
                {
                  "internalType": "uint256",
                  "name": "sizeDeltaUsd",
                  "type": "uint256"
                },
                {
                  "internalType": "uint256",
                  "name": "initialCollateralDeltaAmount",
                  "type": "uint256"
                },
                {
                  "internalType": "uint256",
                  "name": "triggerPrice",
                  "type": "uint256"
                },
                {
                  "internalType": "uint256",
                  "name": "acceptablePrice",
                  "type": "uint256"
                },
                {
                  "internalType": "uint256",
                  "name": "executionFee",
                  "type": "uint256"
                },
                {
                  "internalType": "uint256",
                  "name": "callbackGasLimit",
                  "type": "uint256"
                },
                {
                  "internalType": "uint256",
                  "name": "minOutputAmount",
                  "type": "uint256"
                }
              ],
              "internalType": "struct IBaseOrderUtils.CreateOrderParamsNumbers",
              "name": "numbers",
              "type": "tuple"
            },
            {
              "internalType": "enum Order.OrderType",
              "name": "orderType",
              "type": "uint8"
            },
            {
              "internalType": "enum Order.DecreasePositionSwapType",
              "name": "decreasePositionSwapType",
              "type": "uint8"
            },
            {
              "internalType": "bool",
              "name": "isLong",
              "type": "bool"
            },
            {
              "internalType": "bool",
              "name": "shouldUnwrapNativeToken",
              "type": "bool"
            },
            {
              "internalType": "bytes32",
              "name": "referralCode",
              "type": "bytes32"
            }
          ],
          "internalType": "struct IBaseOrderUtils.CreateOrderParams",
          "name": "params",
          "type": "tuple"
        }
      ],
      "name": "createOrder",
      "outputs": [
        {
          "internalType": "bytes32",
          "name": "",
          "type": "bytes32"
        }
      ],
      "stateMutability": "payable",
      "type": "function"
    },
    {
      "inputs": [
        {
          "components": [
            {
              "internalType": "address",
              "name": "receiver",
              "type": "address"
            },
            {
              "internalType": "address",
              "name": "callbackContract",
              "type": "address"
            },
            {
              "internalType": "address",
              "name": "uiFeeReceiver",
              "type": "address"
            },
            {
              "internalType": "address",
              "name": "market",
              "type": "address"
            },
            {
              "internalType": "address[]",
              "name": "longTokenSwapPath",
              "type": "address[]"
            },
            {
              "internalType": "address[]",
              "name": "shortTokenSwapPath",
              "type": "address[]"
            },
            {
              "internalType": "uint256",
              "name": "minLongTokenAmount",
              "type": "uint256"
            },
            {
              "internalType": "uint256",
              "name": "minShortTokenAmount",
              "type": "uint256"
            },
            {
              "internalType": "bool",
              "name": "shouldUnwrapNativeToken",
              "type": "bool"
            },
            {
              "internalType": "uint256",
              "name": "executionFee",
              "type": "uint256"
            },
            {
              "internalType": "uint256",
              "name": "callbackGasLimit",
              "type": "uint256"
            }
          ],
          "internalType": "struct WithdrawalUtils.CreateWithdrawalParams",
          "name": "params",
          "type": "tuple"
        }
      ],
      "name": "createWithdrawal",
      "outputs": [
        {
          "internalType": "bytes32",
          "name": "",
          "type": "bytes32"
        }
      ],
      "stateMutability": "payable",
      "type": "function"
    },
    {
      "inputs": [],
      "name": "dataStore",
      "outputs": [
        {
          "internalType": "contract DataStore",
          "name": "",
          "type": "address"
        }
      ],
      "stateMutability": "view",
      "type": "function"
    },
    {
      "inputs": [],
      "name": "depositHandler",
      "outputs": [
        {
          "internalType": "contract IDepositHandler",
          "name": "",
          "type": "address"
        }
      ],
      "stateMutability": "view",
      "type": "function"
    },
    {
      "inputs": [],
      "name": "eventEmitter",
      "outputs": [
        {
          "internalType": "contract EventEmitter",
          "name": "",
          "type": "address"
        }
      ],
      "stateMutability": "view",
      "type": "function"
    },
    {
      "inputs": [
        {
          "internalType": "bytes[]",
          "name": "data",
          "type": "bytes[]"
        }
      ],
      "name": "multicall",
      "outputs": [
        {
          "internalType": "bytes[]",
          "name": "results",
          "type": "bytes[]"
        }
      ],
      "stateMutability": "payable",
      "type": "function"
    },
    {
      "inputs": [],
      "name": "orderHandler",
      "outputs": [
        {
          "internalType": "contract IOrderHandler",
          "name": "",
          "type": "address"
        }
      ],
      "stateMutability": "view",
      "type": "function"
    },
    {
      "inputs": [],
      "name": "roleStore",
      "outputs": [
        {
          "internalType": "contract RoleStore",
          "name": "",
          "type": "address"
        }
      ],
      "stateMutability": "view",
      "type": "function"
    },
    {
      "inputs": [],
      "name": "router",
      "outputs": [
        {
          "internalType": "contract Router",
          "name": "",
          "type": "address"
        }
      ],
      "stateMutability": "view",
      "type": "function"
    },
    {
      "inputs": [
        {
          "internalType": "address",
          "name": "receiver",
          "type": "address"
        },
        {
          "internalType": "uint256",
          "name": "amount",
          "type": "uint256"
        }
      ],
      "name": "sendNativeToken",
      "outputs": [],
      "stateMutability": "payable",
      "type": "function"
    },
    {
      "inputs": [
        {
          "internalType": "address",
          "name": "token",
          "type": "address"
        },
        {
          "internalType": "address",
          "name": "receiver",
          "type": "address"
        },
        {
          "internalType": "uint256",
          "name": "amount",
          "type": "uint256"
        }
      ],
      "name": "sendTokens",
      "outputs": [],
      "stateMutability": "payable",
      "type": "function"
    },
    {
      "inputs": [
        {
          "internalType": "address",
          "name": "receiver",
          "type": "address"
        },
        {
          "internalType": "uint256",
          "name": "amount",
          "type": "uint256"
        }
      ],
      "name": "sendWnt",
      "outputs": [],
      "stateMutability": "payable",
      "type": "function"
    },
    {
      "inputs": [
        {
          "internalType": "address",
          "name": "market",
          "type": "address"
        },
        {
          "internalType": "address",
          "name": "callbackContract",
          "type": "address"
        }
      ],
      "name": "setSavedCallbackContract",
      "outputs": [],
      "stateMutability": "payable",
      "type": "function"
    },
    {
      "inputs": [
        {
          "internalType": "uint256",
          "name": "uiFeeFactor",
          "type": "uint256"
        }
      ],
      "name": "setUiFeeFactor",
      "outputs": [],
      "stateMutability": "payable",
      "type": "function"
    },
    {
      "inputs": [
        {
          "internalType": "bytes32",
          "name": "key",
          "type": "bytes32"
        },
        {
          "components": [
            {
              "internalType": "address[]",
              "name": "primaryTokens",
              "type": "address[]"
            },
            {
              "components": [
                {
                  "internalType": "uint256",
                  "name": "min",
                  "type": "uint256"
                },
                {
                  "internalType": "uint256",
                  "name": "max",
                  "type": "uint256"
                }
              ],
              "internalType": "struct Price.Props[]",
              "name": "primaryPrices",
              "type": "tuple[]"
            }
          ],
          "internalType": "struct OracleUtils.SimulatePricesParams",
          "name": "simulatedOracleParams",
          "type": "tuple"
        }
      ],
      "name": "simulateExecuteDeposit",
      "outputs": [],
      "stateMutability": "payable",
      "type": "function"
    },
    {
      "inputs": [
        {
          "internalType": "bytes32",
          "name": "key",
          "type": "bytes32"
        },
        {
          "components": [
            {
              "internalType": "address[]",
              "name": "primaryTokens",
              "type": "address[]"
            },
            {
              "components": [
                {
                  "internalType": "uint256",
                  "name": "min",
                  "type": "uint256"
                },
                {
                  "internalType": "uint256",
                  "name": "max",
                  "type": "uint256"
                }
              ],
              "internalType": "struct Price.Props[]",
              "name": "primaryPrices",
              "type": "tuple[]"
            }
          ],
          "internalType": "struct OracleUtils.SimulatePricesParams",
          "name": "simulatedOracleParams",
          "type": "tuple"
        }
      ],
      "name": "simulateExecuteOrder",
      "outputs": [],
      "stateMutability": "payable",
      "type": "function"
    },
    {
      "inputs": [
        {
          "internalType": "bytes32",
          "name": "key",
          "type": "bytes32"
        },
        {
          "components": [
            {
              "internalType": "address[]",
              "name": "primaryTokens",
              "type": "address[]"
            },
            {
              "components": [
                {
                  "internalType": "uint256",
                  "name": "min",
                  "type": "uint256"
                },
                {
                  "internalType": "uint256",
                  "name": "max",
                  "type": "uint256"
                }
              ],
              "internalType": "struct Price.Props[]",
              "name": "primaryPrices",
              "type": "tuple[]"
            }
          ],
          "internalType": "struct OracleUtils.SimulatePricesParams",
          "name": "simulatedOracleParams",
          "type": "tuple"
        }
      ],
      "name": "simulateExecuteWithdrawal",
      "outputs": [],
      "stateMutability": "payable",
      "type": "function"
    },
    {
      "inputs": [
        {
          "internalType": "bytes32",
          "name": "key",
          "type": "bytes32"
        },
        {
          "internalType": "uint256",
          "name": "sizeDeltaUsd",
          "type": "uint256"
        },
        {
          "internalType": "uint256",
          "name": "acceptablePrice",
          "type": "uint256"
        },
        {
          "internalType": "uint256",
          "name": "triggerPrice",
          "type": "uint256"
        },
        {
          "internalType": "uint256",
          "name": "minOutputAmount",
          "type": "uint256"
        }
      ],
      "name": "updateOrder",
      "outputs": [],
      "stateMutability": "payable",
      "type": "function"
    },
    {
      "inputs": [],
      "name": "withdrawalHandler",
      "outputs": [
        {
          "internalType": "contract IWithdrawalHandler",
          "name": "",
          "type": "address"
        }
      ],
      "stateMutability": "view",
      "type": "function"
    }
  ],
  "bytecode": "0x61016060405234801561001157600080fd5b5060405161523938038061523983398101604081905261003091610083565b60016000556001600160a01b0395861660805295851660a05292841660c05290831660e052821661010052811661012052166101405261011f565b6001600160a01b038116811461008057600080fd5b50565b600080600080600080600060e0888a03121561009e57600080fd5b87516100a98161006b565b60208901519097506100ba8161006b565b60408901519096506100cb8161006b565b60608901519095506100dc8161006b565b60808901519094506100ed8161006b565b60a08901519093506100fe8161006b565b60c089015190925061010f8161006b565b8091505092959891949750929550565b60805160a05160c05160e051610100516101205161014051614fe0610259600039600081816103c70152818161073001528181610b5101528181610fe801526111800152600081816101a401528181610cfb01528181610e5b015261133a015260008181610319015281816108ed01528181610ca5015261139001526000818161034d0152818161056901528181610a5201528181610c52015281816114ab01526116e40152600081816102ac015281816104a90152818161054801528181610679015281816107cf0152818161099701528181610a3101528181610bf301528181610c3101528181610d6c01528181610ecc0152818161103501528181611095015281816113fe0152818161148a0152818161163701526116c301526000818161044701526115720152600061022c0152614fe06000f3fe60806040526004361061013c5760003560e01c806301a9cbb214610141578063073fb09e1461016a578063263ea0fa1461017f5780632c2f3c071461019257806331404484146101d357806349287a22146101e65780634a393a41146101f95780634a4a7b041461021a57806353ead2d31461024e5780635a03cd94146102615780635b4e9561146102745780636331d7a714610287578063660d0d671461029a5780637213c5a0146102ce5780637489ec23146102e15780637d39aaf1146102f45780639c8b2cfb146103075780639ff78c301461033b578063aab286f81461036f578063ac9650d814610382578063ad23c5a1146103a2578063b5848305146103b5578063b9e2f5ee146103e9578063c41b1ab3146103fc578063e6d66ac81461040f578063e9249b5714610422578063f887ea4014610435575b600080fd5b61015461014f36600461388d565b610469565b6040516101619190613908565b60405180910390f35b61017d61017836600461394b565b61065a565b005b61017d61018d366004613984565b610711565b34801561019e57600080fd5b506101c67f000000000000000000000000000000000000000000000000000000000000000081565b6040516101619190613aab565b61017d6101e1366004613abf565b610795565b6101546101f436600461388d565b610960565b61020c610207366004613ad8565b610b2e565b604051908152602001610161565b34801561022657600080fd5b506101c67f000000000000000000000000000000000000000000000000000000000000000081565b61017d61025c366004613b13565b610bdd565b61017d61026f366004613abf565b610c23565b61020c610282366004613b3f565b610c83565b61017d610295366004613984565b610cdc565b3480156102a657600080fd5b506101c67f000000000000000000000000000000000000000000000000000000000000000081565b61017d6102dc366004613abf565b610d32565b61017d6102ef366004613abf565b610e92565b61017d610302366004613b13565b61101f565b34801561031357600080fd5b506101c67f000000000000000000000000000000000000000000000000000000000000000081565b34801561034757600080fd5b506101c67f000000000000000000000000000000000000000000000000000000000000000081565b61017d61037d366004613b7a565b61105b565b610395610390366004613bb5565b611203565b6040516101619190613c7a565b61020c6103b0366004613cdf565b611317565b3480156103c157600080fd5b506101c67f000000000000000000000000000000000000000000000000000000000000000081565b61017d6103f7366004613984565b611371565b61015461040a36600461388d565b6113c7565b61017d61041d366004613d1a565b61152a565b610154610430366004613d5b565b6115e0565b34801561044157600080fd5b506101c67f000000000000000000000000000000000000000000000000000000000000000081565b6060610473611793565b82518451146104a457835183516040516374cee48d60e01b815260040161049b929190613e57565b60405180910390fd5b6104d67f00000000000000000000000000000000000000000000000000000000000000006104d1306117ec565b611879565b835133906000906001600160401b038111156104f4576104f46136dc565b60405190808252806020026020018201604052801561051d578160200160208202803683370190505b50905060005b86518110156106455773__$00d18be641c3a4f9ed15a2e39383149bb3$__637ed7d8ea7f00000000000000000000000000000000000000000000000000000000000000007f0000000000000000000000000000000000000000000000000000000000000000868b868151811061059b5761059b613e65565b60200260200101518b87815181106105b5576105b5613e65565b60200260200101518b6040518763ffffffff1660e01b81526004016105df96959493929190613e88565b602060405180830381865af41580156105fc573d6000803e3d6000fd5b505050506040513d601f19601f820116820180604052508101906106209190613ec2565b82828151811061063257610632613e65565b6020908102919091010152600101610523565b509150506106536001600055565b9392505050565b610662611793565b60405163b3678d5b60e01b81526001600160a01b037f00000000000000000000000000000000000000000000000000000000000000008116600483015233602483015280841660448301528216606482015273__$d7e28679fbfe4f4a6e86262d9995c4a909$__9063b3678d5b9060840160006040518083038186803b1580156106eb57600080fd5b505af41580156106ff573d6000803e3d6000fd5b5050505061070d6001600055565b5050565b610719611793565b60405163131f507d60e11b81526001600160a01b037f0000000000000000000000000000000000000000000000000000000000000000169063263ea0fa906107679085908590600401613f20565b600060405180830381600087803b15801561078157600080fd5b505af11580156106ff573d6000803e3d6000fd5b61079d611793565b60405163fdfc26f360e01b815260009073__$b63e253a228f0e32f671cc49c7fc32477c$__9063fdfc26f3906107f9907f0000000000000000000000000000000000000000000000000000000000000000908690600401613fa0565b600060405180830381865af4158015610816573d6000803e3d6000fd5b505050506040513d6000823e601f3d908101601f1916820160405261083e91908101906140fe565b9050600061084b82515190565b6001600160a01b031603610872576040516395b66fe960e01b815260040160405180910390fd5b3361087c82515190565b6001600160a01b0316146108d7576040805163a35b150b60e01b8152336004820152602481019190915260196044820152781858d8dbdd5b9d08199bdc8818d85b98d95b11195c1bdcda5d603a1b606482015260840161049b565b604051630c50112160e21b8152600481018390527f00000000000000000000000000000000000000000000000000000000000000006001600160a01b0316906331404484906024015b600060405180830381600087803b15801561093a57600080fd5b505af115801561094e573d6000803e3d6000fd5b505050505061095d6001600055565b50565b606061096a611793565b82518451146109925783518351604051635b3043dd60e01b815260040161049b929190613e57565b6109bf7f00000000000000000000000000000000000000000000000000000000000000006104d1306118a4565b835133906000906001600160401b038111156109dd576109dd6136dc565b604051908082528060200260200182016040528015610a06578160200160208202803683370190505b50905060005b86518110156106455773__$9d4130ea52f4c58807a0c72df3e6362e69$__63d57d53997f00000000000000000000000000000000000000000000000000000000000000007f00000000000000000000000000000000000000000000000000000000000000008a8581518110610a8357610a83613e65565b60200260200101518a8681518110610a9d57610a9d613e65565b6020026020010151888b6040518763ffffffff1660e01b8152600401610ac896959493929190613e88565b602060405180830381865af4158015610ae5573d6000803e3d6000fd5b505050506040513d601f19601f82011682018060405250810190610b099190613ec2565b828281518110610b1b57610b1b613e65565b6020908102919091010152600101610a0c565b6000610b38611793565b60405163718a30b960e11b815233906001600160a01b037f0000000000000000000000000000000000000000000000000000000000000000169063e314617290610b889084908790600401614416565b6020604051808303816000875af1158015610ba7573d6000803e3d6000fd5b505050506040513d601f19601f82011682018060405250810190610bcb9190613ec2565b915050610bd86001600055565b919050565b610be5611793565b610bee826118f8565b610c197f0000000000000000000000000000000000000000000000000000000000000000838361191f565b61070d6001600055565b610c2b611793565b33610c787f00000000000000000000000000000000000000000000000000000000000000007f00000000000000000000000000000000000000000000000000000000000000008385611a24565b5061095d6001600055565b6000610c8d611793565b60405162bd80c160e61b815233906001600160a01b037f00000000000000000000000000000000000000000000000000000000000000001690632f60304090610b889084908790600401614520565b610ce4611793565b604051636331d7a760e01b81526001600160a01b037f00000000000000000000000000000000000000000000000000000000000000001690636331d7a7906107679085908590600401613f20565b610d3a611793565b60405163fdfc26f360e01b815260009073__$3dc24d71d6ebafc0c4ce8ac2f69cd1548a$__9063fdfc26f390610d96907f0000000000000000000000000000000000000000000000000000000000000000908690600401613fa0565b600060405180830381865af4158015610db3573d6000803e3d6000fd5b505050506040513d6000823e601f3d908101601f19168201604052610ddb9190810190614665565b905033610de782515190565b6001600160a01b031614610e45576040805163a35b150b60e01b81523360048201526024810191909152601c60448201527b1858d8dbdd5b9d08199bdc8818d85b98d95b15da5d1a191c985dd85b60221b606482015260840161049b565b6040516303909e2d60e51b8152600481018390527f00000000000000000000000000000000000000000000000000000000000000006001600160a01b031690637213c5a090602401610920565b610e9a611793565b60405163fdfc26f360e01b815260009073__$9dcb75ef0bb6c4288f2ccffe7dc492c4eb$__9063fdfc26f390610ef6907f0000000000000000000000000000000000000000000000000000000000000000908690600401613fa0565b600060405180830381865af4158015610f13573d6000803e3d6000fd5b505050506040513d6000823e601f3d908101601f19168201604052610f3b919081019061488b565b90506000610f4882515190565b6001600160a01b031603610f6f57604051631630779760e01b815260040160405180910390fd5b33610f7982515190565b6001600160a01b031614610fd2576040805163a35b150b60e01b81523360048201526024810191909152601760448201527630b1b1b7bab73a103337b91031b0b731b2b627b93232b960491b606482015260840161049b565b604051637489ec2360e01b8152600481018390527f00000000000000000000000000000000000000000000000000000000000000006001600160a01b031690637489ec2390602401610920565b611027611793565b611030826118f8565b610c197f00000000000000000000000000000000000000000000000000000000000000008383611bf2565b611063611793565b60405163fdfc26f360e01b815260009073__$9dcb75ef0bb6c4288f2ccffe7dc492c4eb$__9063fdfc26f3906110bf907f0000000000000000000000000000000000000000000000000000000000000000908a90600401613fa0565b600060405180830381865af41580156110dc573d6000803e3d6000fd5b505050506040513d6000823e601f3d908101601f19168201604052611104919081019061488b565b90503361111082515190565b6001600160a01b031614611169576040805163a35b150b60e01b81523360048201526024810191909152601760448201527630b1b1b7bab73a103337b9103ab83230ba32a7b93232b960491b606482015260840161049b565b6040516396fe6a9360e01b81526001600160a01b037f000000000000000000000000000000000000000000000000000000000000000016906396fe6a93906111bf90899089908990899089908990600401614a22565b600060405180830381600087803b1580156111d957600080fd5b505af11580156111ed573d6000803e3d6000fd5b50505050506111fc6001600055565b5050505050565b6060816001600160401b0381111561121d5761121d6136dc565b60405190808252806020026020018201604052801561125057816020015b606081526020019060019003908161123b5790505b50905060005b8281101561130f576000803086868581811061127457611274613e65565b90506020028101906112869190614b27565b604051611294929190614b6d565b600060405180830381855af49150503d80600081146112cf576040519150601f19603f3d011682016040523d82523d6000602084013e6112d4565b606091505b5091509150816112e7576112e781611c7b565b808484815181106112fa576112fa613e65565b60209081029190910101525050600101611256565b505b92915050565b6000611321611793565b604051634c5a91e560e11b815233906001600160a01b037f000000000000000000000000000000000000000000000000000000000000000016906398b523ca90610b889084908790600401614b7d565b611379611793565b604051635cf17af760e11b81526001600160a01b037f0000000000000000000000000000000000000000000000000000000000000000169063b9e2f5ee906107679085908590600401613f20565b60606113d1611793565b82518451146113f95783518351604051637363cfa560e01b815260040161049b929190613e57565b6114267f00000000000000000000000000000000000000000000000000000000000000006104d130611cb4565b61142f826118f8565b835133906000906001600160401b0381111561144d5761144d6136dc565b604051908082528060200260200182016040528015611476578160200160208202803683370190505b50905060005b8651811015610645576115057f00000000000000000000000000000000000000000000000000000000000000007f00000000000000000000000000000000000000000000000000000000000000008984815181106114dc576114dc613e65565b60200260200101518985815181106114f6576114f6613e65565b6020026020010151878a611d03565b82828151811061151757611517613e65565b602090810291909101015260010161147c565b611532611793565b61153b826118f8565b6040516303704f0f60e31b81526001600160a01b0384811660048301523360248301819052848216604484015260648301849052917f000000000000000000000000000000000000000000000000000000000000000090911690631b82787890608401600060405180830381600087803b1580156115b857600080fd5b505af11580156115cc573d6000803e3d6000fd5b50505050506115db6001600055565b505050565b60606115ea611793565b835185511415806115fd57508251845114155b156116325784518451845160405163216068f960e11b815260048101939093526024830191909152604482015260640161049b565b61165f7f00000000000000000000000000000000000000000000000000000000000000006104d130611f88565b611668826118f8565b845133906000906001600160401b03811115611686576116866136dc565b6040519080825280602002602001820160405280156116af578160200160208202803683370190505b50905060005b875181101561177d576117587f00000000000000000000000000000000000000000000000000000000000000007f00000000000000000000000000000000000000000000000000000000000000008a848151811061171557611715613e65565b60200260200101518a858151811061172f5761172f613e65565b60200260200101518a868151811061174957611749613e65565b6020026020010151888b611fd5565b82828151811061176a5761176a613e65565b60209081029190910101526001016116b5565b5091505061178b6001600055565b949350505050565b6002600054036117e55760405162461bcd60e51b815260206004820152601f60248201527f5265656e7472616e637947756172643a207265656e7472616e742063616c6c00604482015260640161049b565b6002600055565b600060405160200161182f906020808252601e908201527f434c41494d5f55495f464545535f464541545552455f44495341424c45440000604082015260600190565b60408051601f198184030181528282528051602091820120908301526001600160a01b03841690820152606001604051602081830303815290604052805190602001209050919050565b611883828261243d565b1561070d5760405163dd70e0c960e01b81526004810182905260240161049b565b600060405160200161182f9060208082526028908201527f434c41494d5f414646494c494154455f524557415244535f464541545552455f604082015267111254d05093115160c21b606082015260800190565b6001600160a01b03811661095d5760405163d551823d60e01b815260040160405180910390fd5b8060000361192c57505050565b611935826118f8565b6000836001600160a01b031663bd02d0f5604051602001611987906020808252601f908201527f4e41544956455f544f4b454e5f5452414e534645525f4741535f4c494d495400604082015260600190565b604051602081830303815290604052805190602001206040518263ffffffff1660e01b81526004016119bb91815260200190565b602060405180830381865afa1580156119d8573d6000803e3d6000fd5b505050506040513d601f19601f820116820180604052508101906119fc9190613ec2565b90506000806000806000868887f190508015611a19575050505050565b6111fc858585611bf2565b6000846001600160a01b031663bd02d0f5604051602001611a6a9060208082526011908201527026a0ac2faaa4afa322a2afa320a1aa27a960791b604082015260600190565b604051602081830303815290604052805190602001206040518263ffffffff1660e01b8152600401611a9e91815260200190565b602060405180830381865afa158015611abb573d6000803e3d6000fd5b505050506040513d601f19601f82011682018060405250810190611adf9190613ec2565b905080821115611b06578181604051638146813960e01b815260040161049b929190613e57565b846001600160a01b031663e2a4853a611b1e856124a9565b846040518363ffffffff1660e01b8152600401611b3c929190613e57565b6020604051808303816000875af1158015611b5b573d6000803e3d6000fd5b505050506040513d601f19601f82011682018060405250810190611b7f9190613ec2565b506040516311bfdfd160e21b815273__$c1eebf06e53d0bd092f667687cf73e1ebf$__906346ff7f4490611bbb90879087908790600401614c94565b60006040518083038186803b158015611bd357600080fd5b505af4158015611be7573d6000803e3d6000fd5b505050505050505050565b80600003611bff57505050565b611c08826118f8565b6000611c13846124dc565b9050806001600160a01b031663d0e30db0836040518263ffffffff1660e01b81526004016000604051808303818588803b158015611c5057600080fd5b505af1158015611c64573d6000803e3d6000fd5b5050505050611c7584828585612589565b50505050565b600080611c87836127bf565b915091508015611cab578160405162461bcd60e51b815260040161049b9190614cb8565b6115db8361284f565b600060405160200161182f9060208082526023908201527f434c41494d5f46554e44494e475f464545535f464541545552455f444953414260408201526213115160ea1b606082015260800190565b600080611d11868686612858565b60405163bd02d0f560e01b8152600481018290529091506000906001600160a01b038a169063bd02d0f590602401602060405180830381865afa158015611d5c573d6000803e3d6000fd5b505050506040513d601f19601f82011682018060405250810190611d809190613ec2565b604051637152429d60e11b81529091506001600160a01b038a169063e2a4853a90611db2908590600090600401613e57565b6020604051808303816000875af1158015611dd1573d6000803e3d6000fd5b505050506040513d601f19601f82011682018060405250810190611df59190613ec2565b506000896001600160a01b031663e98aabc1611e118a8a6128c9565b846040518363ffffffff1660e01b8152600401611e2f929190613e57565b6020604051808303816000875af1158015611e4e573d6000803e3d6000fd5b505050506040513d601f19601f82011682018060405250810190611e729190613ec2565b60405163078d3b7960e01b81529091506001600160a01b0389169063078d3b7990611ea5908a9089908790600401614c94565b600060405180830381600087803b158015611ebf57600080fd5b505af1158015611ed3573d6000803e3d6000fd5b50505050611ee18a89612930565b604051634ee4c83160e01b81526001600160a01b03808b166004830152808a166024830152808916604483015280881660648301528616608482015260a4810183905260c4810182905273__$c1eebf06e53d0bd092f667687cf73e1ebf$__90634ee4c8319060e40160006040518083038186803b158015611f6257600080fd5b505af4158015611f76573d6000803e3d6000fd5b50939c9b505050505050505050505050565b600060405160200161182f9060208082526021908201527f434c41494d5f434f4c4c41544552414c5f464541545552455f44495341424c456040820152601160fa1b606082015260800190565b600080886001600160a01b031663bd02d0f5611ff389898989612948565b6040518263ffffffff1660e01b815260040161201191815260200190565b602060405180830381865afa15801561202e573d6000803e3d6000fd5b505050506040513d601f19601f820116820180604052508101906120529190613ec2565b90506000808a6001600160a01b031663bd02d0f56120718b8b8b6129c0565b6040518263ffffffff1660e01b815260040161208f91815260200190565b602060405180830381865afa1580156120ac573d6000803e3d6000fd5b505050506040513d601f19601f820116820180604052508101906120d09190613ec2565b905060008b6001600160a01b031663bd02d0f56120ef8c8c8c8c612a15565b6040518263ffffffff1660e01b815260040161210d91815260200190565b602060405180830381865afa15801561212a573d6000803e3d6000fd5b505050506040513d601f19601f8201168201806040525081019061214e9190613ec2565b905080821161215d578061215f565b815b9250505060008a6001600160a01b031663bd02d0f56121808b8b8b8b612a26565b6040518263ffffffff1660e01b815260040161219e91815260200190565b602060405180830381865afa1580156121bb573d6000803e3d6000fd5b505050506040513d601f19601f820116820180604052508101906121df9190613ec2565b905060006121ed8484612a65565b9050818111612213578082604051631d8db13960e31b815260040161049b929190613e57565b600061221f8383614ce1565b90508c6001600160a01b031663e2a4853a61223c8d8d8d8d612a26565b846040518363ffffffff1660e01b815260040161225a929190613e57565b6020604051808303816000875af1158015612279573d6000803e3d6000fd5b505050506040513d601f19601f8201168201806040525081019061229d9190613ec2565b5060008d6001600160a01b031663e98aabc16122b98e8e612a7e565b846040518363ffffffff1660e01b81526004016122d7929190613e57565b6020604051808303816000875af11580156122f6573d6000803e3d6000fd5b505050506040513d601f19601f8201168201806040525081019061231a9190613ec2565b60405163078d3b7960e01b81529091506001600160a01b038d169063078d3b799061234d908e908c908790600401614c94565b600060405180830381600087803b15801561236757600080fd5b505af115801561237b573d6000803e3d6000fd5b505050506123898e8d612930565b6040516359e8c46f60e11b81526001600160a01b03808f166004830152808e166024830152808d166044830152606482018c9052808b166084830152891660a482015260c4810183905260e4810182905273__$c1eebf06e53d0bd092f667687cf73e1ebf$__9063b3d188de906101040160006040518083038186803b15801561241257600080fd5b505af4158015612426573d6000803e3d6000fd5b509398505050505050505050979650505050505050565b604051633d70e7e560e11b8152600481018290526000906001600160a01b03841690637ae1cfca90602401602060405180830381865afa158015612485573d6000803e3d6000fd5b505050506040513d601f19601f820116820180604052508101906106539190614cf4565b600060405160200161182f906020808252600d908201526c2aa4afa322a2afa320a1aa27a960991b604082015260600190565b6000816001600160a01b03166321f8a7216040516020016125149060208082526003908201526215d39560ea1b604082015260600190565b604051602081830303815290604052805190602001206040518263ffffffff1660e01b815260040161254891815260200190565b602060405180830381865afa158015612565573d6000803e3d6000fd5b505050506040513d601f19601f820116820180604052508101906113119190614d11565b8015611c7557612598826118f8565b6000846001600160a01b031663bd02d0f56125b286612a8f565b6040518263ffffffff1660e01b81526004016125d091815260200190565b602060405180830381865afa1580156125ed573d6000803e3d6000fd5b505050506040513d601f19601f820116820180604052508101906126119190613ec2565b9050806000036126365783604051634fe14bfd60e11b815260040161049b9190613aab565b600061264485858585612acd565b5090508015612654575050611c75565b6000866001600160a01b03166321f8a721604051602001612698906020808252600f908201526e484f4c44494e475f4144445245535360881b604082015260600190565b604051602081830303815290604052805190602001206040518263ffffffff1660e01b81526004016126cc91815260200190565b602060405180830381865afa1580156126e9573d6000803e3d6000fd5b505050506040513d601f19601f8201168201806040525081019061270d9190614d11565b90506001600160a01b03811661273657604051633a6de2f560e21b815260040160405180910390fd5b60008061274588848888612acd565b915091508115612759575050505050611c75565b6000612764826127bf565b5090507fc9f14d9a0a9b46470c7c0b6c508f8283abaab7f795f153953c58cd4250824dae8183604051612798929190614d2e565b60405180910390a188888860405163012f3b8f60e71b815260040161049b93929190614c94565b606060006044835110156127e6575050604080516020810190915260008082529092909150565b60006127f3846020015190565b90506307b9e43360e51b6001600160e01b031982160161283257600484019350838060200190518101906128279190614d53565b946001945092505050565b600060405180602001604052806000815250909250925050915091565b80518060208301fd5b600060405160200161286990614dde565b60408051601f198184030181528282528051602091820120908301526001600160a01b038087169183019190915280851660608301528316608082015260a0015b6040516020818303038152906040528051906020012090509392505050565b60006040516020016128da90614dde565b60408051601f198184030181528282528051602091820120908301526001600160a01b03808616918301919091528316606082015260800160405160208183030381529060405280519060200120905092915050565b600061293c8383612c35565b90506115db8382612ce2565b600060405160200161295990614e10565b60408051601f198184030181528282528051602091820120908301526001600160a01b0380881691830191909152808616606083015260808201859052831660a082015260c001604051602081830303815290604052805190602001209050949350505050565b60006040516020016129d190614e45565b60408051601f198184030181528282528051602091820120908301526001600160a01b0380871691830191909152841660608201526080810183905260a0016128aa565b600060405160200161295990614e45565b60006040516020016129599060208082526019908201527810d3105253515117d0d3d31310551154905317d05353d55395603a1b604082015260600190565b6000610653838368327cb2734119d3b7a9601e1b612d25565b60006040516020016128da90614e10565b600060405160200161182f906020808252601890820152771513d2d15397d514905394d1915497d1d054d7d31253525560421b604082015260600190565b60006060600063a9059cbb60e01b8686604051602401612aee929190613fa0565b604051602081830303815290604052906001600160e01b0319166020820180516001600160e01b0383818316178352505050509050600080886001600160a01b03168684604051612b3f9190614e7a565b60006040518083038160008787f1925050503d8060008114612b7d576040519150601f19603f3d011682016040523d82523d6000602084013e612b82565b606091505b50915091508115612c23578051600003612be0576001600160a01b0389163b612be05760006040518060400160405280601481526020017310d85b1b081d1bc81b9bdb8b58dbdb9d1c9858dd60621b81525094509450505050612c2c565b60008151118015612c02575080806020019051810190612c009190614cf4565b155b15612c1557600094509250612c2c915050565b600194509250612c2c915050565b60009450925050505b94509492505050565b60408051608081018252600080825260208201819052918101829052606081019190915260405163a8d8fff560e01b815260009073__$ff439aa65a80c9eec648f15db20b189505$__9063a8d8fff590612c959087908790600401614e96565b608060405180830381865af4158015612cb2573d6000803e3d6000fd5b505050506040513d601f19601f82011682018060405250810190612cd69190614eb0565b90506106538482612d32565b612cf182828360400151612dfb565b80606001516001600160a01b031681604001516001600160a01b031603612d16575050565b61070d82828360600151612dfb565b600061178b848484612ff9565b80516001600160a01b0316612d5a576040516302fde0d760e11b815260040160405180910390fd5b6000826001600160a01b0316637ae1cfca612d7884600001516130e3565b6040518263ffffffff1660e01b8152600401612d9691815260200190565b602060405180830381865afa158015612db3573d6000803e3d6000fd5b505050506040513d601f19601f82011682018060405250810190612dd79190614cf4565b905080156115db5781516040516309f8c93760e01b815261049b9190600401613aab565b81516001600160a01b03161580612e1957506001600160a01b038116155b15612e3c57815160405163e474a42560e01b815261049b91908390600401614e96565b81516040516370a0823160e01b81526000916001600160a01b038416916370a0823191612e6b91600401613aab565b602060405180830381865afa158015612e88573d6000803e3d6000fd5b505050506040513d601f19601f82011682018060405250810190612eac9190613ec2565b90506000612ebb85858561311b565b905080821015612ee75783516040516333a1ea6b60e01b815261049b9190859085908590600401614f36565b6000612efb8686600001518660018061343e565b9050612f10868660000151866000600161343e565b612f1a9082614f5f565b905080831015612f4657845160405163808c464f60e01b815261049b9190869086908590600401614f36565b6000866001600160a01b031663bd02d0f5612f658860000151886128c9565b6040518263ffffffff1660e01b8152600401612f8391815260200190565b602060405180830381865afa158015612fa0573d6000803e3d6000fd5b505050506040513d601f19601f82011682018060405250810190612fc49190613ec2565b905080841015612ff0578551604051639dd026db60e01b815261049b9190879087908590600401614f36565b50505050505050565b60008080600019858709858702925082811083820303915050806000036130335783828161302957613029614f72565b0492505050610653565b80841161307a5760405162461bcd60e51b81526020600482015260156024820152744d6174683a206d756c446976206f766572666c6f7760581b604482015260640161049b565b60008486880960026001871981018816978890046003810283188082028403028082028403028082028403028082028403028082028403029081029092039091026000889003889004909101858311909403939093029303949094049190911702949350505050565b600060405160200161182f906020808252601290820152711254d7d3505492d15517d11254d05093115160721b604082015260600190565b60006131566040518060c001604052806000815260200160008152602001600081526020016000815260200160008152602001600081525090565b846001600160a01b031663bd02d0f56131738660000151866134ce565b6040518263ffffffff1660e01b815260040161319191815260200190565b602060405180830381865afa1580156131ae573d6000803e3d6000fd5b505050506040513d601f19601f820116820180604052508101906131d29190613ec2565b815283516131e2908690856134ff565b602082015283516001600160a01b0386169063bd02d0f5906132049086612a7e565b6040518263ffffffff1660e01b815260040161322291815260200190565b602060405180830381865afa15801561323f573d6000803e3d6000fd5b505050506040513d601f19601f820116820180604052508101906132639190613ec2565b604082015283516001600160a01b0386169063bd02d0f5906132859086613579565b6040518263ffffffff1660e01b81526004016132a391815260200190565b602060405180830381865afa1580156132c0573d6000803e3d6000fd5b505050506040513d601f19601f820116820180604052508101906132e49190613ec2565b606082015283516001600160a01b0386169063bd02d0f59061330690866135b3565b6040518263ffffffff1660e01b815260040161332491815260200190565b602060405180830381865afa158015613341573d6000803e3d6000fd5b505050506040513d601f19601f820116820180604052508101906133659190613ec2565b608082015283516001600160a01b0386169063bd02d0f59061338790866135f0565b6040518263ffffffff1660e01b81526004016133a591815260200190565b602060405180830381865afa1580156133c2573d6000803e3d6000fd5b505050506040513d601f19601f820116820180604052508101906133e69190613ec2565b60a082018190526080820151606083015160408401516020850151855161340d9190614f5f565b6134179190614f5f565b6134219190614f5f565b61342b9190614f5f565b6134359190614f5f565b95945050505050565b600081866001600160a01b031663bd02d0f561345b888888613626565b6040518263ffffffff1660e01b815260040161347991815260200190565b602060405180830381865afa158015613496573d6000803e3d6000fd5b505050506040513d601f19601f820116820180604052508101906134ba9190613ec2565b6134c49190614f88565b9695505050505050565b60006040516020016128da906020808252600b908201526a1413d3d317d05353d5539560aa1b604082015260600190565b6000836001600160a01b031663bd02d0f561351a858561369f565b6040518263ffffffff1660e01b815260040161353891815260200190565b602060405180830381865afa158015613555573d6000803e3d6000fd5b505050506040513d601f19601f8201168201806040525081019061178b9190613ec2565b60006040516020016128da9060208082526014908201527310d31052535050931157d1915157d05353d5539560621b604082015260600190565b60006040516020016128da9060208082526017908201527610d31052535050931157d55257d1915157d05353d55395604a1b604082015260600190565b60006040516020016128da9060208082526010908201526f10519192531250551157d49155d0549160821b604082015260600190565b600060405160200161365a906020808252600e908201526d434f4c4c41544552414c5f53554d60901b604082015260600190565b60408051601f198184030181528282528051602091820120908301526001600160a01b038087169183019190915284166060820152821515608082015260a0016128aa565b60006040516020016128da9060208082526017908201527614d5d05417d253541050d517d413d3d317d05353d55395604a1b604082015260600190565b634e487b7160e01b600052604160045260246000fd5b604080519081016001600160401b0381118282101715613714576137146136dc565b60405290565b604051606081016001600160401b0381118282101715613714576137146136dc565b60405161012081016001600160401b0381118282101715613714576137146136dc565b60405160e081016001600160401b0381118282101715613714576137146136dc565b60405161014081016001600160401b0381118282101715613714576137146136dc565b604051601f8201601f191681016001600160401b03811182821017156137cc576137cc6136dc565b604052919050565b60006001600160401b038211156137ed576137ed6136dc565b5060051b60200190565b6001600160a01b038116811461095d57600080fd5b8035610bd8816137f7565b600082601f83011261382857600080fd5b813561383b613836826137d4565b6137a4565b8082825260208201915060208360051b86010192508583111561385d57600080fd5b602085015b83811015613883578035613875816137f7565b835260209283019201613862565b5095945050505050565b6000806000606084860312156138a257600080fd5b83356001600160401b038111156138b857600080fd5b6138c486828701613817565b93505060208401356001600160401b038111156138e057600080fd5b6138ec86828701613817565b92505060408401356138fd816137f7565b809150509250925092565b602080825282518282018190526000918401906040840190835b81811015613940578351835260209384019390920191600101613922565b509095945050505050565b6000806040838503121561395e57600080fd5b8235613969816137f7565b91506020830135613979816137f7565b809150509250929050565b6000806040838503121561399757600080fd5b8235915060208301356001600160401b038111156139b457600080fd5b8301604081860312156139c657600080fd5b6139ce6136f2565b81356001600160401b038111156139e457600080fd5b6139f087828501613817565b82525060208201356001600160401b03811115613a0c57600080fd5b80830192505085601f830112613a2157600080fd5b8135613a2f613836826137d4565b8082825260208201915060208360061b860101925088831115613a5157600080fd5b6020850194505b82851015613a99576040858a031215613a7057600080fd5b613a786136f2565b85358152602080870135818301529083526040909501949190910190613a58565b60208401525093969095509350505050565b6001600160a01b0391909116815260200190565b600060208284031215613ad157600080fd5b5035919050565b600060208284031215613aea57600080fd5b81356001600160401b03811115613b0057600080fd5b82016101a0818503121561065357600080fd5b60008060408385031215613b2657600080fd5b8235613b31816137f7565b946020939093013593505050565b600060208284031215613b5157600080fd5b81356001600160401b03811115613b6757600080fd5b8201610180818503121561065357600080fd5b600080600080600060a08688031215613b9257600080fd5b505083359560208501359550604085013594606081013594506080013592509050565b60008060208385031215613bc857600080fd5b82356001600160401b03811115613bde57600080fd5b8301601f81018513613bef57600080fd5b80356001600160401b03811115613c0557600080fd5b8560208260051b8401011115613c1a57600080fd5b6020919091019590945092505050565b60005b83811015613c45578181015183820152602001613c2d565b50506000910152565b60008151808452613c66816020860160208601613c2a565b601f01601f19169290920160200192915050565b6000602082016020835280845180835260408501915060408160051b86010192506020860160005b82811015613cd357603f19878603018452613cbe858351613c4e565b94506020938401939190910190600101613ca2565b50929695505050505050565b600060208284031215613cf157600080fd5b81356001600160401b03811115613d0757600080fd5b8201610160818503121561065357600080fd5b600080600060608486031215613d2f57600080fd5b8335613d3a816137f7565b92506020840135613d4a816137f7565b929592945050506040919091013590565b60008060008060808587031215613d7157600080fd5b84356001600160401b03811115613d8757600080fd5b613d9387828801613817565b94505060208501356001600160401b03811115613daf57600080fd5b613dbb87828801613817565b93505060408501356001600160401b03811115613dd757600080fd5b8501601f81018713613de857600080fd5b8035613df6613836826137d4565b8082825260208201915060208360051b850101925089831115613e1857600080fd5b6020840193505b82841015613e3a578335825260209384019390910190613e1f565b9450613e4c925050506060860161380c565b905092959194509250565b918252602082015260400190565b634e487b7160e01b600052603260045260246000fd5b6001600160a01b03169052565b6001600160a01b0396871681529486166020860152928516604085015290841660608401528316608083015290911660a082015260c00190565b600060208284031215613ed457600080fd5b5051919050565b600081518084526020840193506020830160005b82811015613f165781516001600160a01b0316865260209586019590910190600101613eef565b5093949350505050565b8281526040602082015260008251604080840152613f416080840182613edb565b602085810151603f1986840301606087015280518084529082019350600092909101905b80831015613f95578351805183526020810151602084015250604082019150602084019350600183019250613f65565b509695505050505050565b6001600160a01b03929092168252602082015260400190565b8051610bd8816137f7565b600082601f830112613fd557600080fd5b8151613fe3613836826137d4565b8082825260208201915060208360051b86010192508583111561400557600080fd5b602085015b8381101561388357805161401d816137f7565b83526020928301920161400a565b600060c0828403121561403d57600080fd5b60405160c081016001600160401b038111828210171561405f5761405f6136dc565b604090815283518252602080850151908301528381015190820152606080840151908201526080808401519082015260a0928301519281019290925250919050565b801515811461095d57600080fd5b6000602082840312156140c157600080fd5b604051602081016001600160401b03811182821017156140e3576140e36136dc565b806040525080915082516140f6816140a1565b905292915050565b60006020828403121561411057600080fd5b81516001600160401b0381111561412657600080fd5b8201610100818503121561413957600080fd5b61414161371a565b81516001600160401b0381111561415757600080fd5b8201610120818703121561416a57600080fd5b61417261373c565b61417b82613fb9565b815261418960208301613fb9565b602082015261419a60408301613fb9565b60408201526141ab60608301613fb9565b60608201526141bc60808301613fb9565b60808201526141cd60a08301613fb9565b60a08201526141de60c08301613fb9565b60c082015260e08201516001600160401b038111156141fc57600080fd5b61420888828501613fc4565b60e0830152506101008201516001600160401b0381111561422857600080fd5b61423488828501613fc4565b6101008301525082525061424b856020840161402b565b602082015261425d8560e084016140af565b6040820152949350505050565b6000808335601e1984360301811261428157600080fd5b83016020810192503590506001600160401b038111156142a057600080fd5b8060051b36038213156142b257600080fd5b9250929050565b81835260208301925060008160005b84811015613f165781356142db816137f7565b6001600160a01b0316865260209586019591909101906001016142c8565b60008135614306816137f7565b6001600160a01b03168352602082013561431f816137f7565b6001600160a01b03166020840152604082013561433b816137f7565b6001600160a01b031660408401526060820135614357816137f7565b6143646060850182613e7b565b506143716080830161380c565b61437e6080850182613e7b565b5061438c60a083018361426a565b60c060a086015261343560c0860182846142b9565b6008811061095d57600080fd5b8035610bd8816143a1565b634e487b7160e01b600052602160045260246000fd5b600881106143df576143df6143b9565b9052565b6003811061095d57600080fd5b8035610bd8816143e3565b600381106143df576143df6143b9565b8035610bd8816140a1565b6001600160a01b038316815260406020820152600082353684900360be1901811261444057600080fd5b6101a060408401526144586101e084018583016142f9565b90506144a66060840160208601803582526020808201359083015260408082013590830152606080820135908301526080808201359083015260a0808201359083015260c090810135910152565b6144b361010085016143ae565b6144c16101408501826143cf565b506144cf61012085016143f0565b6144dd6101608501826143fb565b506144eb610140850161440b565b1515610180840152614500610160850161440b565b15156101a084015261018093909301356101c09092019190915250919050565b6001600160a01b03831681526040602082018190526145499082016145448461380c565b613e7b565b60006145576020840161380c565b6145646060840182613e7b565b506145716040840161380c565b61457e6080840182613e7b565b5061458b6060840161380c565b61459860a0840182613e7b565b506145a56080840161380c565b6145b260c0840182613e7b565b506145bf60a0840161380c565b6145cc60e0840182613e7b565b506145da60c084018461426a565b6101806101008501526145f26101c0850182846142b9565b91505061460260e085018561426a565b848303603f190161012086015261461a8382846142b9565b6101008701356101408701529250614638915050610120850161440b565b80151561016085015250610140840135610180840152610160909301356101a09092019190915250919050565b60006020828403121561467757600080fd5b81516001600160401b0381111561468d57600080fd5b820161010081850312156146a057600080fd5b6146a861371a565b81516001600160401b038111156146be57600080fd5b820160e081870312156146d057600080fd5b6146d861375f565b6146e182613fb9565b81526146ef60208301613fb9565b602082015261470060408301613fb9565b604082015261471160608301613fb9565b606082015261472260808301613fb9565b608082015260a08201516001600160401b0381111561474057600080fd5b61474c88828501613fc4565b60a08301525060c08201516001600160401b0381111561476b57600080fd5b61477788828501613fc4565b60c08301525082525061424b856020840161402b565b8051610bd8816143a1565b8051610bd8816143e3565b600061014082840312156147b657600080fd5b6147be613781565b90506147c98261478d565b81526147d760208301614798565b602082015260408281015190820152606080830151908201526080808301519082015260a0808301519082015260c0808301519082015260e0808301519082015261010080830151908201526101209182015191810191909152919050565b60006060828403121561484857600080fd5b61485061371a565b9050815161485d816140a1565b8152602082015161486d816140a1565b60208201526040820151614880816140a1565b604082015292915050565b60006020828403121561489d57600080fd5b81516001600160401b038111156148b357600080fd5b82016101c081850312156148c657600080fd5b6148ce61371a565b81516001600160401b038111156148e457600080fd5b820160e081870312156148f657600080fd5b6148fe61375f565b61490782613fb9565b815261491560208301613fb9565b602082015261492660408301613fb9565b604082015261493760608301613fb9565b606082015261494860808301613fb9565b608082015261495960a08301613fb9565b60a082015260c08201516001600160401b0381111561497757600080fd5b61498388828501613fc4565b60c08301525082525061499985602084016147a3565b602082015261425d856101608401614836565b6149b78282516143cf565b60208101516149c960208401826143fb565b5060408101516040830152606081015160608301526080810151608083015260a081015160a083015260c081015160c083015260e081015160e08301526101008101516101008301526101208101516101208301525050565b86815285602082015284604082015283606082015282608082015260c060a0820152600082516101c060c084015260018060a01b0381511661028084015260018060a01b036020820151166102a084015260018060a01b036040820151166102c08401526060810151614a996102e0850182613e7b565b506080810151614aad610300850182613e7b565b5060a0810151614ac1610320850182613e7b565b5060c0015160e0610340840152614adc610360840182613edb565b90506020840151614af060e08501826149ac565b5060408481015180511515610220860152602081015115156102408601529081015115156102608501525098975050505050505050565b6000808335601e19843603018112614b3e57600080fd5b8301803591506001600160401b03821115614b5857600080fd5b6020019150368190038213156142b257600080fd5b8183823760009101908152919050565b6001600160a01b0383168152604060208201819052614ba19082016145448461380c565b6000614baf6020840161380c565b614bbc6060840182613e7b565b50614bc96040840161380c565b614bd66080840182613e7b565b50614be36060840161380c565b614bf060a0840182613e7b565b50614bfe608084018461426a565b61016060c0850152614c156101a0850182846142b9565b915050614c2560a085018561426a565b848303603f190160e0860152614c3c8382846142b9565b60c08701356101008781019190915260e0880135610120880152909350614c6792508601905061440b565b80151561014085015250610120840135610160840152610140909301356101809092019190915250919050565b6001600160a01b039384168152919092166020820152604081019190915260600190565b6020815260006106536020830184613c4e565b634e487b7160e01b600052601160045260246000fd5b8181038181111561131157611311614ccb565b600060208284031215614d0657600080fd5b8151610653816140a1565b600060208284031215614d2357600080fd5b8151610653816137f7565b604081526000614d416040830185613c4e565b82810360208401526134358185613c4e565b600060208284031215614d6557600080fd5b81516001600160401b03811115614d7b57600080fd5b8201601f81018413614d8c57600080fd5b80516001600160401b03811115614da557614da56136dc565b614db8601f8201601f19166020016137a4565b818152856020838501011115614dcd57600080fd5b613435826020830160208601613c2a565b60208082526018908201527710d31052535050931157d1955391125391d7d05353d5539560421b604082015260600190565b6020808252601b908201527a10d31052535050931157d0d3d31310551154905317d05353d55395602a1b604082015260600190565b6020808252601b908201527a21a620a4a6a0a12622afa1a7a62620aa22a920a62fa320a1aa27a960291b604082015260600190565b60008251614e8c818460208701613c2a565b9190910192915050565b6001600160a01b0392831681529116602082015260400190565b60006080828403128015614ec357600080fd5b50604051608081016001600160401b0381118282101715614ee657614ee66136dc565b6040528251614ef4816137f7565b81526020830151614f04816137f7565b60208201526040830151614f17816137f7565b60408201526060830151614f2a816137f7565b60608201529392505050565b6001600160a01b0394851681529290931660208301526040820152606081019190915260800190565b8082018082111561131157611311614ccb565b634e487b7160e01b600052601260045260246000fd5b600082614fa557634e487b7160e01b600052601260045260246000fd5b50049056fea264697066735822122072b61629023e1a491bc4af333fcc80a48007803d9922671a081cc1ba4e6450d264736f6c634300081a0033",
  "linkReferences": {
    "contracts/callback/CallbackUtils.sol": {
      "CallbackUtils": [
        {
          "length": 20,
          "start": 2319
        }
      ]
    },
    "contracts/deposit/DepositStoreUtils.sol": {
      "DepositStoreUtils": [
        {
          "length": 20,
          "start": 2568
        }
      ]
    },
    "contracts/fee/FeeUtils.sol": {
      "FeeUtils": [
        {
          "length": 20,
          "start": 1927
        }
      ]
    },
    "contracts/market/MarketEventUtils.sol": {
      "MarketEventUtils": [
        {
          "length": 20,
          "start": 7656
        },
        {
          "length": 20,
          "start": 8582
        },
        {
          "length": 20,
          "start": 9781
        }
      ]
    },
    "contracts/market/MarketStoreUtils.sol": {
      "MarketStoreUtils": [
        {
          "length": 20,
          "start": 11972
        }
      ]
    },
    "contracts/order/OrderStoreUtils.sol": {
      "OrderStoreUtils": [
        {
          "length": 20,
          "start": 4357
        },
        {
          "length": 20,
          "start": 4814
        }
      ]
    },
    "contracts/referral/ReferralUtils.sol": {
      "ReferralUtils": [
        {
          "length": 20,
          "start": 3184
        }
      ]
    },
    "contracts/withdrawal/WithdrawalStoreUtils.sol": {
      "WithdrawalStoreUtils": [
        {
          "length": 20,
          "start": 4005
        }
      ]
    }
  },
  "deployedLinkReferences": {
    "contracts/callback/CallbackUtils.sol": {
      "CallbackUtils": [
        {
          "length": 20,
          "start": 1718
        }
      ]
    },
    "contracts/deposit/DepositStoreUtils.sol": {
      "DepositStoreUtils": [
        {
          "length": 20,
          "start": 1967
        }
      ]
    },
    "contracts/fee/FeeUtils.sol": {
      "FeeUtils": [
        {
          "length": 20,
          "start": 1326
        }
      ]
    },
    "contracts/market/MarketEventUtils.sol": {
      "MarketEventUtils": [
        {
          "length": 20,
          "start": 7055
        },
        {
          "length": 20,
          "start": 7981
        },
        {
          "length": 20,
          "start": 9180
        }
      ]
    },
    "contracts/market/MarketStoreUtils.sol": {
      "MarketStoreUtils": [
        {
          "length": 20,
          "start": 11371
        }
      ]
    },
    "contracts/order/OrderStoreUtils.sol": {
      "OrderStoreUtils": [
        {
          "length": 20,
          "start": 3756
        },
        {
          "length": 20,
          "start": 4213
        }
      ]
    },
    "contracts/referral/ReferralUtils.sol": {
      "ReferralUtils": [
        {
          "length": 20,
          "start": 2583
        }
      ]
    },
    "contracts/withdrawal/WithdrawalStoreUtils.sol": {
      "WithdrawalStoreUtils": [
        {
          "length": 20,
          "start": 3404
        }
      ]
    }
  }
}