{
  "_format": "hh-sol-artifact-1",
  "contractName": "SnapshotToken",
  "sourceName": "contracts/tokens/SnapshotToken.sol",
  "abi": [
    {
      "inputs": [
        {
          "internalType": "string",
          "name": "_name",
          "type": "string"
        },
        {
          "internalType": "string",
          "name": "_symbol",
          "type": "string"
        },
        {
          "internalType": "uint256",
          "name": "_initialSupply",
          "type": "uint256"
        }
      ],
      "stateMutability": "nonpayable",
      "type": "constructor"
    },
    {
      "anonymous": false,
      "inputs": [
        {
          "indexed": true,
          "internalType": "address",
          "name": "owner",
          "type": "address"
        },
        {
          "indexed": true,
          "internalType": "address",
          "name": "spender",
          "type": "address"
        },
        {
          "indexed": false,
          "internalType": "uint256",
          "name": "value",
          "type": "uint256"
        }
      ],
      "name": "Approval",
      "type": "event"
    },
    {
      "anonymous": false,
      "inputs": [
        {
          "indexed": true,
          "internalType": "address",
          "name": "from",
          "type": "address"
        },
        {
          "indexed": true,
          "internalType": "address",
          "name": "to",
          "type": "address"
        },
        {
          "indexed": false,
          "internalType": "uint256",
          "name": "value",
          "type": "uint256"
        }
      ],
      "name": "Transfer",
      "type": "event"
    },
    {
      "inputs": [
        {
          "internalType": "address",
          "name": "_account",
          "type": "address"
        }
      ],
      "name": "addAdmin",
      "outputs": [],
      "stateMutability": "nonpayable",
      "type": "function"
    },
    {
      "inputs": [
        {
          "internalType": "address",
          "name": "_account",
          "type": "address"
        }
      ],
      "name": "addNonStakingAccount",
      "outputs": [],
      "stateMutability": "nonpayable",
      "type": "function"
    },
    {
      "inputs": [
        {
          "internalType": "address",
          "name": "",
          "type": "address"
        }
      ],
      "name": "admins",
      "outputs": [
        {
          "internalType": "bool",
          "name": "",
          "type": "bool"
        }
      ],
      "stateMutability": "view",
      "type": "function"
    },
    {
      "inputs": [
        {
          "internalType": "address",
          "name": "_owner",
          "type": "address"
        },
        {
          "internalType": "address",
          "name": "_spender",
          "type": "address"
        }
      ],
      "name": "allowance",
      "outputs": [
        {
          "internalType": "uint256",
          "name": "",
          "type": "uint256"
        }
      ],
      "stateMutability": "view",
      "type": "function"
    },
    {
      "inputs": [
        {
          "internalType": "address",
          "name": "",
          "type": "address"
        },
        {
          "internalType": "address",
          "name": "",
          "type": "address"
        }
      ],
      "name": "allowances",
      "outputs": [
        {
          "internalType": "uint256",
          "name": "",
          "type": "uint256"
        }
      ],
      "stateMutability": "view",
      "type": "function"
    },
    {
      "inputs": [
        {
          "internalType": "address",
          "name": "_spender",
          "type": "address"
        },
        {
          "internalType": "uint256",
          "name": "_amount",
          "type": "uint256"
        }
      ],
      "name": "approve",
      "outputs": [
        {
          "internalType": "bool",
          "name": "",
          "type": "bool"
        }
      ],
      "stateMutability": "nonpayable",
      "type": "function"
    },
    {
      "inputs": [
        {
          "internalType": "address",
          "name": "_account",
          "type": "address"
        }
      ],
      "name": "balanceOf",
      "outputs": [
        {
          "internalType": "uint256",
          "name": "",
          "type": "uint256"
        }
      ],
      "stateMutability": "view",
      "type": "function"
    },
    {
      "inputs": [
        {
          "internalType": "address",
          "name": "",
          "type": "address"
        }
      ],
      "name": "balances",
      "outputs": [
        {
          "internalType": "uint256",
          "name": "",
          "type": "uint256"
        }
      ],
      "stateMutability": "view",
      "type": "function"
    },
    {
      "inputs": [
        {
          "internalType": "address[]",
          "name": "_accounts",
          "type": "address[]"
        },
        {
          "internalType": "uint256[]",
          "name": "_amounts",
          "type": "uint256[]"
        }
      ],
      "name": "batchMint",
      "outputs": [],
      "stateMutability": "nonpayable",
      "type": "function"
    },
    {
      "inputs": [
        {
          "internalType": "address",
          "name": "_account",
          "type": "address"
        },
        {
          "internalType": "uint256",
          "name": "_amount",
          "type": "uint256"
        }
      ],
      "name": "burn",
      "outputs": [],
      "stateMutability": "nonpayable",
      "type": "function"
    },
    {
      "inputs": [
        {
          "internalType": "address",
          "name": "_receiver",
          "type": "address"
        }
      ],
      "name": "claim",
      "outputs": [],
      "stateMutability": "nonpayable",
      "type": "function"
    },
    {
      "inputs": [],
      "name": "decimals",
      "outputs": [
        {
          "internalType": "uint8",
          "name": "",
          "type": "uint8"
        }
      ],
      "stateMutability": "view",
      "type": "function"
    },
    {
      "inputs": [],
      "name": "gov",
      "outputs": [
        {
          "internalType": "address",
          "name": "",
          "type": "address"
        }
      ],
      "stateMutability": "view",
      "type": "function"
    },
    {
      "inputs": [],
      "name": "inPrivateTransferMode",
      "outputs": [
        {
          "internalType": "bool",
          "name": "",
          "type": "bool"
        }
      ],
      "stateMutability": "view",
      "type": "function"
    },
    {
      "inputs": [
        {
          "internalType": "address",
          "name": "",
          "type": "address"
        }
      ],
      "name": "isHandler",
      "outputs": [
        {
          "internalType": "bool",
          "name": "",
          "type": "bool"
        }
      ],
      "stateMutability": "view",
      "type": "function"
    },
    {
      "inputs": [
        {
          "internalType": "address",
          "name": "",
          "type": "address"
        }
      ],
      "name": "isMinter",
      "outputs": [
        {
          "internalType": "bool",
          "name": "",
          "type": "bool"
        }
      ],
      "stateMutability": "view",
      "type": "function"
    },
    {
      "inputs": [
        {
          "internalType": "address",
          "name": "_account",
          "type": "address"
        },
        {
          "internalType": "uint256",
          "name": "_amount",
          "type": "uint256"
        }
      ],
      "name": "mint",
      "outputs": [],
      "stateMutability": "nonpayable",
      "type": "function"
    },
    {
      "inputs": [],
      "name": "name",
      "outputs": [
        {
          "internalType": "string",
          "name": "",
          "type": "string"
        }
      ],
      "stateMutability": "view",
      "type": "function"
    },
    {
      "inputs": [
        {
          "internalType": "address",
          "name": "",
          "type": "address"
        }
      ],
      "name": "nonStakingAccounts",
      "outputs": [
        {
          "internalType": "bool",
          "name": "",
          "type": "bool"
        }
      ],
      "stateMutability": "view",
      "type": "function"
    },
    {
      "inputs": [],
      "name": "nonStakingSupply",
      "outputs": [
        {
          "internalType": "uint256",
          "name": "",
          "type": "uint256"
        }
      ],
      "stateMutability": "view",
      "type": "function"
    },
    {
      "inputs": [
        {
          "internalType": "address",
          "name": "_account",
          "type": "address"
        },
        {
          "internalType": "address",
          "name": "_receiver",
          "type": "address"
        }
      ],
      "name": "recoverClaim",
      "outputs": [],
      "stateMutability": "nonpayable",
      "type": "function"
    },
    {
      "inputs": [
        {
          "internalType": "address",
          "name": "_account",
          "type": "address"
        }
      ],
      "name": "removeAdmin",
      "outputs": [],
      "stateMutability": "nonpayable",
      "type": "function"
    },
    {
      "inputs": [
        {
          "internalType": "address",
          "name": "_account",
          "type": "address"
        }
      ],
      "name": "removeNonStakingAccount",
      "outputs": [],
      "stateMutability": "nonpayable",
      "type": "function"
    },
    {
      "inputs": [
        {
          "internalType": "address",
          "name": "_gov",
          "type": "address"
        }
      ],
      "name": "setGov",
      "outputs": [],
      "stateMutability": "nonpayable",
      "type": "function"
    },
    {
      "inputs": [
        {
          "internalType": "address",
          "name": "_handler",
          "type": "address"
        },
        {
          "internalType": "bool",
          "name": "_isActive",
          "type": "bool"
        }
      ],
      "name": "setHandler",
      "outputs": [],
      "stateMutability": "nonpayable",
      "type": "function"
    },
    {
      "inputs": [
        {
          "internalType": "bool",
          "name": "_inPrivateTransferMode",
          "type": "bool"
        }
      ],
      "name": "setInPrivateTransferMode",
      "outputs": [],
      "stateMutability": "nonpayable",
      "type": "function"
    },
    {
      "inputs": [
        {
          "internalType": "string",
          "name": "_name",
          "type": "string"
        },
        {
          "internalType": "string",
          "name": "_symbol",
          "type": "string"
        }
      ],
      "name": "setInfo",
      "outputs": [],
      "stateMutability": "nonpayable",
      "type": "function"
    },
    {
      "inputs": [
        {
          "internalType": "address",
          "name": "_minter",
          "type": "address"
        },
        {
          "internalType": "bool",
          "name": "_isActive",
          "type": "bool"
        }
      ],
      "name": "setMinter",
      "outputs": [],
      "stateMutability": "nonpayable",
      "type": "function"
    },
    {
      "inputs": [
        {
          "internalType": "address[]",
          "name": "_yieldTrackers",
          "type": "address[]"
        }
      ],
      "name": "setYieldTrackers",
      "outputs": [],
      "stateMutability": "nonpayable",
      "type": "function"
    },
    {
      "inputs": [
        {
          "internalType": "address",
          "name": "_account",
          "type": "address"
        }
      ],
      "name": "stakedBalance",
      "outputs": [
        {
          "internalType": "uint256",
          "name": "",
          "type": "uint256"
        }
      ],
      "stateMutability": "view",
      "type": "function"
    },
    {
      "inputs": [],
      "name": "symbol",
      "outputs": [
        {
          "internalType": "string",
          "name": "",
          "type": "string"
        }
      ],
      "stateMutability": "view",
      "type": "function"
    },
    {
      "inputs": [],
      "name": "totalStaked",
      "outputs": [
        {
          "internalType": "uint256",
          "name": "",
          "type": "uint256"
        }
      ],
      "stateMutability": "view",
      "type": "function"
    },
    {
      "inputs": [],
      "name": "totalSupply",
      "outputs": [
        {
          "internalType": "uint256",
          "name": "",
          "type": "uint256"
        }
      ],
      "stateMutability": "view",
      "type": "function"
    },
    {
      "inputs": [
        {
          "internalType": "address",
          "name": "_recipient",
          "type": "address"
        },
        {
          "internalType": "uint256",
          "name": "_amount",
          "type": "uint256"
        }
      ],
      "name": "transfer",
      "outputs": [
        {
          "internalType": "bool",
          "name": "",
          "type": "bool"
        }
      ],
      "stateMutability": "nonpayable",
      "type": "function"
    },
    {
      "inputs": [
        {
          "internalType": "address",
          "name": "_sender",
          "type": "address"
        },
        {
          "internalType": "address",
          "name": "_recipient",
          "type": "address"
        },
        {
          "internalType": "uint256",
          "name": "_amount",
          "type": "uint256"
        }
      ],
      "name": "transferFrom",
      "outputs": [
        {
          "internalType": "bool",
          "name": "",
          "type": "bool"
        }
      ],
      "stateMutability": "nonpayable",
      "type": "function"
    },
    {
      "inputs": [
        {
          "internalType": "address",
          "name": "_token",
          "type": "address"
        },
        {
          "internalType": "address",
          "name": "_account",
          "type": "address"
        },
        {
          "internalType": "uint256",
          "name": "_amount",
          "type": "uint256"
        }
      ],
      "name": "withdrawToken",
      "outputs": [],
      "stateMutability": "nonpayable",
      "type": "function"
    },
    {
      "inputs": [
        {
          "internalType": "uint256",
          "name": "",
          "type": "uint256"
        }
      ],
      "name": "yieldTrackers",
      "outputs": [
        {
          "internalType": "address",
          "name": "",
          "type": "address"
        }
      ],
      "stateMutability": "view",
      "type": "function"
    }
  ],
  "bytecode": "0x608060405234801561001057600080fd5b5060405161248e38038061248e83398101604081905261002f9161030d565b82828282828260006100418482610408565b50600161004e8382610408565b50600480546001600160a01b0319163390811790915561006e908261007c565b5050505050505050506104fd565b6001600160a01b0382166100e25760405162461bcd60e51b815260206004820152602360248201527f42617365546f6b656e3a206d696e7420746f20746865207a65726f206164647260448201526265737360e81b606482015260840160405180910390fd5b6100eb826101a1565b6002546100f8908261023f565b6002556001600160a01b03821660009081526005602052604090205461011e908261023f565b6001600160a01b03831660009081526005602090815260408083209390935560089052205460ff161561015c57600354610158908261023f565b6003555b6040518181526001600160a01b038316906000907fddf252ad1be2c89b69c2b068fc378daa952ba7f163c4a11628f55a4df523b3ef9060200160405180910390a35050565b60005b60075481101561023b576000600782815481106101c3576101c36104c6565b600091825260209091200154604051635fd6196560e01b81526001600160a01b03858116600483015290911691508190635fd6196590602401600060405180830381600087803b15801561021657600080fd5b505af115801561022a573d6000803e3d6000fd5b5050600190930192506101a4915050565b5050565b600061024b82846104dc565b90505b92915050565b634e487b7160e01b600052604160045260246000fd5b600082601f83011261027b57600080fd5b81516001600160401b0381111561029457610294610254565b604051601f8201601f19908116603f011681016001600160401b03811182821017156102c2576102c2610254565b6040528181528382016020018510156102da57600080fd5b60005b828110156102f9576020818601810151838301820152016102dd565b506000918101602001919091529392505050565b60008060006060848603121561032257600080fd5b83516001600160401b0381111561033857600080fd5b6103448682870161026a565b602086015190945090506001600160401b0381111561036257600080fd5b61036e8682870161026a565b925050604084015190509250925092565b600181811c9082168061039357607f821691505b6020821081036103b357634e487b7160e01b600052602260045260246000fd5b50919050565b601f82111561040357806000526020600020601f840160051c810160208510156103e05750805b601f840160051c820191505b8181101561040057600081556001016103ec565b50505b505050565b81516001600160401b0381111561042157610421610254565b6104358161042f845461037f565b846103b9565b6020601f82116001811461046957600083156104515750848201515b600019600385901b1c1916600184901b178455610400565b600084815260208120601f198516915b828110156104995787850151825560209485019460019092019101610479565b50848210156104b75786840151600019600387901b60f8161c191681555b50505050600190811b01905550565b634e487b7160e01b600052603260045260246000fd5b8082018082111561024e57634e487b7160e01b600052601160045260246000fd5b611f828061050c6000396000f3fe608060405234801561001057600080fd5b50600436106101b75760003560e01c806301e33667146101bc57806306fdde03146101d1578063095ea7b3146101ef57806312d43a51146102125780631785f53c1461023257806318160ddd146102455780631e83409a1461025c57806323b872dd1461026f578063276eab4e1461028257806327e235e314610295578063313ce567146102b557806340c10f19146102cf578063429b62e5146102e257806346ea87af1461030557806352cd38d91461032857806355b6ed5c1461033b5780635a47a1a7146103665780636021726714610379578063622890771461038c578063685731071461039f57806370480275146103b257806370a08231146103c5578063817b1cd2146103ee5780639554381a146103f657806395d89b4114610419578063996f11ee146104215780639cb7de4b146104345780639dc29fac14610447578063a9059cbb1461045a578063a923fc401461046d578063aa271e1a14610480578063c93be636146104a3578063cf456ae7146104ac578063cfad57a2146104bf578063dd62ed3e146104d2578063dfbaefb11461050b578063fb30d91614610518575b600080fd5b6101cf6101ca366004611801565b61052b565b005b6101d9610577565b6040516101e69190611862565b60405180910390f35b6102026101fd366004611895565b610605565b60405190151581526020016101e6565b600454610225906001600160a01b031681565b6040516101e691906118bf565b6101cf6102403660046118d3565b61061c565b61024e60025481565b6040519081526020016101e6565b6101cf61026a3660046118d3565b610667565b61020261027d366004611801565b610718565b6101cf6102903660046119cb565b6107b2565b61024e6102a33660046118d3565b60056020526000908152604090205481565b6102bd601281565b60405160ff90911681526020016101e6565b6101cf6102dd366004611895565b6107ef565b6102026102f03660046118d3565b60096020526000908152604090205460ff1681565b6102026103133660046118d3565b600b6020526000908152604090205460ff1681565b6102256103363660046119ff565b610828565b61024e610349366004611a18565b600660209081526000928352604080842090915290825290205481565b6101cf610374366004611a5c565b610852565b61024e6103873660046118d3565b61088f565b6101cf61039a3660046118d3565b6108d4565b6101cf6103ad366004611a79565b6109c0565b6101cf6103c03660046118d3565b610a4b565b61024e6103d33660046118d3565b6001600160a01b031660009081526005602052604090205490565b61024e610a99565b6102026104043660046118d3565b60086020526000908152604090205460ff1681565b6101d9610ab7565b6101cf61042f366004611a18565b610ac4565b6101cf610442366004611b3b565b610ba0565b6101cf610455366004611895565b610bf5565b610202610468366004611895565b610c2e565b6101cf61047b366004611be1565b610c3b565b61020261048e3660046118d3565b600c6020526000908152604090205460ff1681565b61024e60035481565b6101cf6104ba366004611b3b565b610c7e565b6101cf6104cd3660046118d3565b610cd3565b61024e6104e0366004611a18565b6001600160a01b03918216600090815260066020908152604080832093909416825291909152205490565b600a546102029060ff1681565b6101cf6105263660046118d3565b610d1f565b6004546001600160a01b0316331461055e5760405162461bcd60e51b815260040161055590611c48565b60405180910390fd5b6105726001600160a01b0384168383610df6565b505050565b6000805461058490611c76565b80601f01602080910402602001604051908101604052809291908181526020018280546105b090611c76565b80156105fd5780601f106105d2576101008083540402835291602001916105fd565b820191906000526020600020905b8154815290600101906020018083116105e057829003601f168201915b505050505081565b6000610612338484610e48565b5060015b92915050565b6004546001600160a01b031633146106465760405162461bcd60e51b815260040161055590611c48565b6001600160a01b03166000908152600960205260409020805460ff19169055565b60005b6007548110156107145760006007828154811061068957610689611cb0565b6000918252602090912001546040516310e059a160e11b81526001600160a01b03909116915081906321c0b342906106c79033908790600401611cc6565b6020604051808303816000875af11580156106e6573d6000803e3d6000fd5b505050506040513d601f19601f8201168201806040525081019061070a9190611ce0565b505060010161066a565b5050565b336000908152600b602052604081205460ff16156107435761073b848484610f76565b5060016107ab565b600061078d836040518060600160405280602c8152602001611eb1602c91396001600160a01b038816600090815260066020908152604080832033845290915290205491906111e4565b905061079a853383610e48565b6107a5858585610f76565b60019150505b9392505050565b6004546001600160a01b031633146107dc5760405162461bcd60e51b815260040161055590611c48565b805161071490600790602084019061176b565b336000908152600c602052604090205460ff1661081e5760405162461bcd60e51b815260040161055590611cf9565b6107148282611210565b6007818154811061083857600080fd5b6000918252602090912001546001600160a01b0316905081565b6004546001600160a01b0316331461087c5760405162461bcd60e51b815260040161055590611c48565b600a805460ff1916911515919091179055565b6001600160a01b03811660009081526008602052604081205460ff16156108b857506000919050565b506001600160a01b031660009081526005602052604090205490565b3360009081526009602052604090205460ff166109035760405162461bcd60e51b815260040161055590611c48565b6001600160a01b03811660009081526008602052604090205460ff16156109775760405162461bcd60e51b815260206004820152602260248201527f42617365546f6b656e3a205f6163636f756e7420616c7265616479206d61726b604482015261195960f21b6064820152608401610555565b61098081611320565b6001600160a01b0381166000908152600860209081526040808320805460ff1916600117905560059091529020546003546109ba916113bd565b60035550565b336000908152600c602052604090205460ff166109ef5760405162461bcd60e51b815260040161055590611cf9565b60005b8251811015610572576000838281518110610a0f57610a0f611cb0565b602002602001015190506000838381518110610a2d57610a2d611cb0565b60200260200101519050610a418282611210565b50506001016109f2565b6004546001600160a01b03163314610a755760405162461bcd60e51b815260040161055590611c48565b6001600160a01b03166000908152600960205260409020805460ff19166001179055565b6000610ab26003546002546113c990919063ffffffff16565b905090565b6001805461058490611c76565b3360009081526009602052604090205460ff16610af35760405162461bcd60e51b815260040161055590611c48565b60005b60075481101561057257600060078281548110610b1557610b15611cb0565b6000918252602090912001546040516310e059a160e11b81526001600160a01b03909116915081906321c0b34290610b539087908790600401611cc6565b6020604051808303816000875af1158015610b72573d6000803e3d6000fd5b505050506040513d601f19601f82011682018060405250810190610b969190611ce0565b5050600101610af6565b6004546001600160a01b03163314610bca5760405162461bcd60e51b815260040161055590611c48565b6001600160a01b03919091166000908152600b60205260409020805460ff1916911515919091179055565b336000908152600c602052604090205460ff16610c245760405162461bcd60e51b815260040161055590611cf9565b61071482826113d5565b6000610612338484610f76565b6004546001600160a01b03163314610c655760405162461bcd60e51b815260040161055590611c48565b6000610c718382611d7d565b5060016105728282611d7d565b6004546001600160a01b03163314610ca85760405162461bcd60e51b815260040161055590611c48565b6001600160a01b03919091166000908152600c60205260409020805460ff1916911515919091179055565b6004546001600160a01b03163314610cfd5760405162461bcd60e51b815260040161055590611c48565b600480546001600160a01b0319166001600160a01b0392909216919091179055565b3360009081526009602052604090205460ff16610d4e5760405162461bcd60e51b815260040161055590611c48565b6001600160a01b03811660009081526008602052604090205460ff16610db65760405162461bcd60e51b815260206004820152601e60248201527f42617365546f6b656e3a205f6163636f756e74206e6f74206d61726b656400006044820152606401610555565b610dbf81611320565b6001600160a01b0381166000908152600860209081526040808320805460ff1916905560059091529020546003546109ba916113c9565b604080516001600160a01b038416602482015260448082018490528251808303909101815260649091019091526020810180516001600160e01b031663a9059cbb60e01b179052610572908490611506565b6001600160a01b038316610eaf5760405162461bcd60e51b815260206004820152602860248201527f42617365546f6b656e3a20617070726f76652066726f6d20746865207a65726f604482015267206164647265737360c01b6064820152608401610555565b6001600160a01b038216610f145760405162461bcd60e51b815260206004820152602660248201527f42617365546f6b656e3a20617070726f766520746f20746865207a65726f206160448201526564647265737360d01b6064820152608401610555565b6001600160a01b0383811660008181526006602090815260408083209487168084529482529182902085905590518481527f8c5be1e5ebec7d5bd14f71427d1e84f3dd0314c0f7b2291e5b200ac8c7c3b92591015b60405180910390a3505050565b6001600160a01b038316610fde5760405162461bcd60e51b815260206004820152602960248201527f42617365546f6b656e3a207472616e736665722066726f6d20746865207a65726044820152686f206164647265737360b81b6064820152608401610555565b6001600160a01b0382166110445760405162461bcd60e51b815260206004820152602760248201527f42617365546f6b656e3a207472616e7366657220746f20746865207a65726f206044820152666164647265737360c81b6064820152608401610555565b600a5460ff16156110bc57336000908152600b602052604090205460ff166110bc5760405162461bcd60e51b815260206004820152602560248201527f42617365546f6b656e3a206d73672e73656e646572206e6f742077686974656c6044820152641a5cdd195960da1b6064820152608401610555565b6110c583611320565b6110ce82611320565b61110b816040518060600160405280602a8152602001611edd602a91396001600160a01b03861660009081526005602052604090205491906111e4565b6001600160a01b03808516600090815260056020526040808220939093559084168152205461113a90826113bd565b6001600160a01b0380841660009081526005602090815260408083209490945591861681526008909152205460ff161561117f5760035461117b90826113c9565b6003555b6001600160a01b03821660009081526008602052604090205460ff16156111b1576003546111ad90826113bd565b6003555b816001600160a01b0316836001600160a01b0316600080516020611f0783398151915283604051610f6991815260200190565b600081848411156112085760405162461bcd60e51b81526004016105559190611862565b505050900390565b6001600160a01b0382166112725760405162461bcd60e51b815260206004820152602360248201527f42617365546f6b656e3a206d696e7420746f20746865207a65726f206164647260448201526265737360e81b6064820152608401610555565b61127b82611320565b60025461128890826113bd565b6002556001600160a01b0382166000908152600560205260409020546112ae90826113bd565b6001600160a01b03831660009081526005602090815260408083209390935560089052205460ff16156112ec576003546112e890826113bd565b6003555b6040518181526001600160a01b03831690600090600080516020611f07833981519152906020015b60405180910390a35050565b60005b6007548110156107145760006007828154811061134257611342611cb0565b600091825260209091200154604051635fd6196560e01b81526001600160a01b0390911691508190635fd619659061137e9086906004016118bf565b600060405180830381600087803b15801561139857600080fd5b505af11580156113ac573d6000803e3d6000fd5b505060019093019250611323915050565b60006107ab8284611e51565b60006107ab8284611e64565b6001600160a01b0382166114395760405162461bcd60e51b815260206004820152602560248201527f42617365546f6b656e3a206275726e2066726f6d20746865207a65726f206164604482015264647265737360d81b6064820152608401610555565b61144282611320565b61147f81604051806060016040528060268152602001611f27602691396001600160a01b03851660009081526005602052604090205491906111e4565b6001600160a01b0383166000908152600560205260409020556002546114a590826113c9565b6002556001600160a01b03821660009081526008602052604090205460ff16156114da576003546114d690826113c9565b6003555b6040518181526000906001600160a01b03841690600080516020611f0783398151915290602001611314565b600061155b826040518060400160405280602081526020017f5361666545524332303a206c6f772d6c6576656c2063616c6c206661696c6564815250856001600160a01b03166115db9092919063ffffffff16565b905080516000148061157c57508080602001905181019061157c9190611e77565b6105725760405162461bcd60e51b815260206004820152602a60248201527f5361666545524332303a204552433230206f7065726174696f6e20646964206e6044820152691bdd081cdd58d8d9595960b21b6064820152608401610555565b60606115ea84846000856115f2565b949350505050565b6060824710156116535760405162461bcd60e51b815260206004820152602660248201527f416464726573733a20696e73756666696369656e742062616c616e636520666f6044820152651c8818d85b1b60d21b6064820152608401610555565b600080866001600160a01b0316858760405161166f9190611e94565b60006040518083038185875af1925050503d80600081146116ac576040519150601f19603f3d011682016040523d82523d6000602084013e6116b1565b606091505b50915091506116c2878383876116cd565b979650505050505050565b6060831561173c578251600003611735576001600160a01b0385163b6117355760405162461bcd60e51b815260206004820152601d60248201527f416464726573733a2063616c6c20746f206e6f6e2d636f6e74726163740000006044820152606401610555565b50816115ea565b6115ea83838151156117515781518083602001fd5b8060405162461bcd60e51b81526004016105559190611862565b8280548282559060005260206000209081019282156117c0579160200282015b828111156117c057825182546001600160a01b0319166001600160a01b0390911617825560209092019160019091019061178b565b506117cc9291506117d0565b5090565b5b808211156117cc57600081556001016117d1565b80356001600160a01b03811681146117fc57600080fd5b919050565b60008060006060848603121561181657600080fd5b61181f846117e5565b925061182d602085016117e5565b929592945050506040919091013590565b60005b83811015611859578181015183820152602001611841565b50506000910152565b602081526000825180602084015261188181604085016020870161183e565b601f01601f19169190910160400192915050565b600080604083850312156118a857600080fd5b6118b1836117e5565b946020939093013593505050565b6001600160a01b0391909116815260200190565b6000602082840312156118e557600080fd5b6107ab826117e5565b634e487b7160e01b600052604160045260246000fd5b604051601f8201601f191681016001600160401b038111828210171561192c5761192c6118ee565b604052919050565b60006001600160401b0382111561194d5761194d6118ee565b5060051b60200190565b600082601f83011261196857600080fd5b813561197b61197682611934565b611904565b8082825260208201915060208360051b86010192508583111561199d57600080fd5b602085015b838110156119c1576119b3816117e5565b8352602092830192016119a2565b5095945050505050565b6000602082840312156119dd57600080fd5b81356001600160401b038111156119f357600080fd5b6115ea84828501611957565b600060208284031215611a1157600080fd5b5035919050565b60008060408385031215611a2b57600080fd5b611a34836117e5565b9150611a42602084016117e5565b90509250929050565b8015158114611a5957600080fd5b50565b600060208284031215611a6e57600080fd5b81356107ab81611a4b565b60008060408385031215611a8c57600080fd5b82356001600160401b03811115611aa257600080fd5b611aae85828601611957565b92505060208301356001600160401b03811115611aca57600080fd5b8301601f81018513611adb57600080fd5b8035611ae961197682611934565b8082825260208201915060208360051b850101925087831115611b0b57600080fd5b6020840193505b82841015611b2d578335825260209384019390910190611b12565b809450505050509250929050565b60008060408385031215611b4e57600080fd5b611b57836117e5565b91506020830135611b6781611a4b565b809150509250929050565b600082601f830112611b8357600080fd5b81356001600160401b03811115611b9c57611b9c6118ee565b611baf601f8201601f1916602001611904565b818152846020838601011115611bc457600080fd5b816020850160208301376000918101602001919091529392505050565b60008060408385031215611bf457600080fd5b82356001600160401b03811115611c0a57600080fd5b611c1685828601611b72565b92505060208301356001600160401b03811115611c3257600080fd5b611c3e85828601611b72565b9150509250929050565b6020808252601490820152732130b9b2aa37b5b2b71d103337b93134b23232b760611b604082015260600190565b600181811c90821680611c8a57607f821691505b602082108103611caa57634e487b7160e01b600052602260045260246000fd5b50919050565b634e487b7160e01b600052603260045260246000fd5b6001600160a01b0392831681529116602082015260400190565b600060208284031215611cf257600080fd5b5051919050565b6020808252601c908201527b26b4b73a30b13632a130b9b2aa37b5b2b71d103337b93134b23232b760211b604082015260600190565b601f82111561057257806000526020600020601f840160051c81016020851015611d565750805b601f840160051c820191505b81811015611d765760008155600101611d62565b5050505050565b81516001600160401b03811115611d9657611d966118ee565b611daa81611da48454611c76565b84611d2f565b6020601f821160018114611dde5760008315611dc65750848201515b600019600385901b1c1916600184901b178455611d76565b600084815260208120601f198516915b82811015611e0e5787850151825560209485019460019092019101611dee565b5084821015611e2c5786840151600019600387901b60f8161c191681555b50505050600190811b01905550565b634e487b7160e01b600052601160045260246000fd5b8082018082111561061657610616611e3b565b8181038181111561061657610616611e3b565b600060208284031215611e8957600080fd5b81516107ab81611a4b565b60008251611ea681846020870161183e565b919091019291505056fe42617365546f6b656e3a207472616e7366657220616d6f756e74206578636565647320616c6c6f77616e636542617365546f6b656e3a207472616e7366657220616d6f756e7420657863656564732062616c616e6365ddf252ad1be2c89b69c2b068fc378daa952ba7f163c4a11628f55a4df523b3ef42617365546f6b656e3a206275726e20616d6f756e7420657863656564732062616c616e6365a26469706673582212208228ae44a90683d841de88a3f08ae52fe651d7c665314d6db0045e92446172ff64736f6c634300081a0033",
  "linkReferences": {},
  "deployedLinkReferences": {}
}