{
  "_format": "hh-sol-artifact-1",
  "contractName": "Chain",
  "sourceName": "contracts/chain/Chain.sol",
  "abi": [
    {
      "inputs": [],
      "name": "ARBITRUM_CHAIN_ID",
      "outputs": [
        {
          "internalType": "uint256",
          "name": "",
          "type": "uint256"
        }
      ],
      "stateMutability": "view",
      "type": "function"
    },
    {
      "inputs": [],
      "name": "ARBITRUM_SEPOLIA_CHAIN_ID",
      "outputs": [
        {
          "internalType": "uint256",
          "name": "",
          "type": "uint256"
        }
      ],
      "stateMutability": "view",
      "type": "function"
    },
    {
      "inputs": [],
      "name": "arbSys",
      "outputs": [
        {
          "internalType": "contract ArbSys",
          "name": "",
          "type": "ArbSys"
        }
      ],
      "stateMutability": "view",
      "type": "function"
    }
  ],
  "bytecode": "0x60c46037600b82828239805160001a607314602a57634e487b7160e01b600052600060045260246000fd5b30600052607381538281f3fe730000000000000000000000000000000000000000301460806040526004361060475760003560e01c80631057d40f14604c5780631fab59fb146070578063cdcdd548146086575b600080fd5b6053606481565b6040516001600160a01b0390911681526020015b60405180910390f35b607962066eee81565b6040519081526020016067565b607961a4b18156fea26469706673582212209e7a232cd5dd38f12601517ccaa2ccb64ba7b6da8b3bba7b24e733152a31bd0a64736f6c634300081a0033",
  "linkReferences": {},
  "deployedLinkReferences": {}
}