{
  "_format": "hh-sol-artifact-1",
  "contractName": "BaseToken",
  "sourceName": "contracts/tokens/BaseToken.sol",
  "abi": [
    {
      "inputs": [
        {
          "internalType": "string",
          "name": "_name",
          "type": "string"
        },
        {
          "internalType": "string",
          "name": "_symbol",
          "type": "string"
        },
        {
          "internalType": "uint256",
          "name": "_initialSupply",
          "type": "uint256"
        }
      ],
      "stateMutability": "nonpayable",
      "type": "constructor"
    },
    {
      "anonymous": false,
      "inputs": [
        {
          "indexed": true,
          "internalType": "address",
          "name": "owner",
          "type": "address"
        },
        {
          "indexed": true,
          "internalType": "address",
          "name": "spender",
          "type": "address"
        },
        {
          "indexed": false,
          "internalType": "uint256",
          "name": "value",
          "type": "uint256"
        }
      ],
      "name": "Approval",
      "type": "event"
    },
    {
      "anonymous": false,
      "inputs": [
        {
          "indexed": true,
          "internalType": "address",
          "name": "from",
          "type": "address"
        },
        {
          "indexed": true,
          "internalType": "address",
          "name": "to",
          "type": "address"
        },
        {
          "indexed": false,
          "internalType": "uint256",
          "name": "value",
          "type": "uint256"
        }
      ],
      "name": "Transfer",
      "type": "event"
    },
    {
      "inputs": [
        {
          "internalType": "address",
          "name": "_account",
          "type": "address"
        }
      ],
      "name": "addAdmin",
      "outputs": [],
      "stateMutability": "nonpayable",
      "type": "function"
    },
    {
      "inputs": [
        {
          "internalType": "address",
          "name": "_account",
          "type": "address"
        }
      ],
      "name": "addNonStakingAccount",
      "outputs": [],
      "stateMutability": "nonpayable",
      "type": "function"
    },
    {
      "inputs": [
        {
          "internalType": "address",
          "name": "",
          "type": "address"
        }
      ],
      "name": "admins",
      "outputs": [
        {
          "internalType": "bool",
          "name": "",
          "type": "bool"
        }
      ],
      "stateMutability": "view",
      "type": "function"
    },
    {
      "inputs": [
        {
          "internalType": "address",
          "name": "_owner",
          "type": "address"
        },
        {
          "internalType": "address",
          "name": "_spender",
          "type": "address"
        }
      ],
      "name": "allowance",
      "outputs": [
        {
          "internalType": "uint256",
          "name": "",
          "type": "uint256"
        }
      ],
      "stateMutability": "view",
      "type": "function"
    },
    {
      "inputs": [
        {
          "internalType": "address",
          "name": "",
          "type": "address"
        },
        {
          "internalType": "address",
          "name": "",
          "type": "address"
        }
      ],
      "name": "allowances",
      "outputs": [
        {
          "internalType": "uint256",
          "name": "",
          "type": "uint256"
        }
      ],
      "stateMutability": "view",
      "type": "function"
    },
    {
      "inputs": [
        {
          "internalType": "address",
          "name": "_spender",
          "type": "address"
        },
        {
          "internalType": "uint256",
          "name": "_amount",
          "type": "uint256"
        }
      ],
      "name": "approve",
      "outputs": [
        {
          "internalType": "bool",
          "name": "",
          "type": "bool"
        }
      ],
      "stateMutability": "nonpayable",
      "type": "function"
    },
    {
      "inputs": [
        {
          "internalType": "address",
          "name": "_account",
          "type": "address"
        }
      ],
      "name": "balanceOf",
      "outputs": [
        {
          "internalType": "uint256",
          "name": "",
          "type": "uint256"
        }
      ],
      "stateMutability": "view",
      "type": "function"
    },
    {
      "inputs": [
        {
          "internalType": "address",
          "name": "",
          "type": "address"
        }
      ],
      "name": "balances",
      "outputs": [
        {
          "internalType": "uint256",
          "name": "",
          "type": "uint256"
        }
      ],
      "stateMutability": "view",
      "type": "function"
    },
    {
      "inputs": [
        {
          "internalType": "address",
          "name": "_receiver",
          "type": "address"
        }
      ],
      "name": "claim",
      "outputs": [],
      "stateMutability": "nonpayable",
      "type": "function"
    },
    {
      "inputs": [],
      "name": "decimals",
      "outputs": [
        {
          "internalType": "uint8",
          "name": "",
          "type": "uint8"
        }
      ],
      "stateMutability": "view",
      "type": "function"
    },
    {
      "inputs": [],
      "name": "gov",
      "outputs": [
        {
          "internalType": "address",
          "name": "",
          "type": "address"
        }
      ],
      "stateMutability": "view",
      "type": "function"
    },
    {
      "inputs": [],
      "name": "inPrivateTransferMode",
      "outputs": [
        {
          "internalType": "bool",
          "name": "",
          "type": "bool"
        }
      ],
      "stateMutability": "view",
      "type": "function"
    },
    {
      "inputs": [
        {
          "internalType": "address",
          "name": "",
          "type": "address"
        }
      ],
      "name": "isHandler",
      "outputs": [
        {
          "internalType": "bool",
          "name": "",
          "type": "bool"
        }
      ],
      "stateMutability": "view",
      "type": "function"
    },
    {
      "inputs": [],
      "name": "name",
      "outputs": [
        {
          "internalType": "string",
          "name": "",
          "type": "string"
        }
      ],
      "stateMutability": "view",
      "type": "function"
    },
    {
      "inputs": [
        {
          "internalType": "address",
          "name": "",
          "type": "address"
        }
      ],
      "name": "nonStakingAccounts",
      "outputs": [
        {
          "internalType": "bool",
          "name": "",
          "type": "bool"
        }
      ],
      "stateMutability": "view",
      "type": "function"
    },
    {
      "inputs": [],
      "name": "nonStakingSupply",
      "outputs": [
        {
          "internalType": "uint256",
          "name": "",
          "type": "uint256"
        }
      ],
      "stateMutability": "view",
      "type": "function"
    },
    {
      "inputs": [
        {
          "internalType": "address",
          "name": "_account",
          "type": "address"
        },
        {
          "internalType": "address",
          "name": "_receiver",
          "type": "address"
        }
      ],
      "name": "recoverClaim",
      "outputs": [],
      "stateMutability": "nonpayable",
      "type": "function"
    },
    {
      "inputs": [
        {
          "internalType": "address",
          "name": "_account",
          "type": "address"
        }
      ],
      "name": "removeAdmin",
      "outputs": [],
      "stateMutability": "nonpayable",
      "type": "function"
    },
    {
      "inputs": [
        {
          "internalType": "address",
          "name": "_account",
          "type": "address"
        }
      ],
      "name": "removeNonStakingAccount",
      "outputs": [],
      "stateMutability": "nonpayable",
      "type": "function"
    },
    {
      "inputs": [
        {
          "internalType": "address",
          "name": "_gov",
          "type": "address"
        }
      ],
      "name": "setGov",
      "outputs": [],
      "stateMutability": "nonpayable",
      "type": "function"
    },
    {
      "inputs": [
        {
          "internalType": "address",
          "name": "_handler",
          "type": "address"
        },
        {
          "internalType": "bool",
          "name": "_isActive",
          "type": "bool"
        }
      ],
      "name": "setHandler",
      "outputs": [],
      "stateMutability": "nonpayable",
      "type": "function"
    },
    {
      "inputs": [
        {
          "internalType": "bool",
          "name": "_inPrivateTransferMode",
          "type": "bool"
        }
      ],
      "name": "setInPrivateTransferMode",
      "outputs": [],
      "stateMutability": "nonpayable",
      "type": "function"
    },
    {
      "inputs": [
        {
          "internalType": "string",
          "name": "_name",
          "type": "string"
        },
        {
          "internalType": "string",
          "name": "_symbol",
          "type": "string"
        }
      ],
      "name": "setInfo",
      "outputs": [],
      "stateMutability": "nonpayable",
      "type": "function"
    },
    {
      "inputs": [
        {
          "internalType": "address[]",
          "name": "_yieldTrackers",
          "type": "address[]"
        }
      ],
      "name": "setYieldTrackers",
      "outputs": [],
      "stateMutability": "nonpayable",
      "type": "function"
    },
    {
      "inputs": [
        {
          "internalType": "address",
          "name": "_account",
          "type": "address"
        }
      ],
      "name": "stakedBalance",
      "outputs": [
        {
          "internalType": "uint256",
          "name": "",
          "type": "uint256"
        }
      ],
      "stateMutability": "view",
      "type": "function"
    },
    {
      "inputs": [],
      "name": "symbol",
      "outputs": [
        {
          "internalType": "string",
          "name": "",
          "type": "string"
        }
      ],
      "stateMutability": "view",
      "type": "function"
    },
    {
      "inputs": [],
      "name": "totalStaked",
      "outputs": [
        {
          "internalType": "uint256",
          "name": "",
          "type": "uint256"
        }
      ],
      "stateMutability": "view",
      "type": "function"
    },
    {
      "inputs": [],
      "name": "totalSupply",
      "outputs": [
        {
          "internalType": "uint256",
          "name": "",
          "type": "uint256"
        }
      ],
      "stateMutability": "view",
      "type": "function"
    },
    {
      "inputs": [
        {
          "internalType": "address",
          "name": "_recipient",
          "type": "address"
        },
        {
          "internalType": "uint256",
          "name": "_amount",
          "type": "uint256"
        }
      ],
      "name": "transfer",
      "outputs": [
        {
          "internalType": "bool",
          "name": "",
          "type": "bool"
        }
      ],
      "stateMutability": "nonpayable",
      "type": "function"
    },
    {
      "inputs": [
        {
          "internalType": "address",
          "name": "_sender",
          "type": "address"
        },
        {
          "internalType": "address",
          "name": "_recipient",
          "type": "address"
        },
        {
          "internalType": "uint256",
          "name": "_amount",
          "type": "uint256"
        }
      ],
      "name": "transferFrom",
      "outputs": [
        {
          "internalType": "bool",
          "name": "",
          "type": "bool"
        }
      ],
      "stateMutability": "nonpayable",
      "type": "function"
    },
    {
      "inputs": [
        {
          "internalType": "address",
          "name": "_token",
          "type": "address"
        },
        {
          "internalType": "address",
          "name": "_account",
          "type": "address"
        },
        {
          "internalType": "uint256",
          "name": "_amount",
          "type": "uint256"
        }
      ],
      "name": "withdrawToken",
      "outputs": [],
      "stateMutability": "nonpayable",
      "type": "function"
    },
    {
      "inputs": [
        {
          "internalType": "uint256",
          "name": "",
          "type": "uint256"
        }
      ],
      "name": "yieldTrackers",
      "outputs": [
        {
          "internalType": "address",
          "name": "",
          "type": "address"
        }
      ],
      "stateMutability": "view",
      "type": "function"
    }
  ],
  "bytecode": "0x608060405234801561001057600080fd5b50604051611ef9380380611ef983398101604081905261002f91610301565b600061003b84826103fc565b50600161004883826103fc565b50600480546001600160a01b031916339081179091556100689082610070565b5050506104f1565b6001600160a01b0382166100d65760405162461bcd60e51b815260206004820152602360248201527f42617365546f6b656e3a206d696e7420746f20746865207a65726f206164647260448201526265737360e81b606482015260840160405180910390fd5b6100df82610195565b6002546100ec9082610233565b6002556001600160a01b0382166000908152600560205260409020546101129082610233565b6001600160a01b03831660009081526005602090815260408083209390935560089052205460ff16156101505760035461014c9082610233565b6003555b6040518181526001600160a01b038316906000907fddf252ad1be2c89b69c2b068fc378daa952ba7f163c4a11628f55a4df523b3ef9060200160405180910390a35050565b60005b60075481101561022f576000600782815481106101b7576101b76104ba565b600091825260209091200154604051635fd6196560e01b81526001600160a01b03858116600483015290911691508190635fd6196590602401600060405180830381600087803b15801561020a57600080fd5b505af115801561021e573d6000803e3d6000fd5b505060019093019250610198915050565b5050565b600061023f82846104d0565b90505b92915050565b634e487b7160e01b600052604160045260246000fd5b600082601f83011261026f57600080fd5b81516001600160401b0381111561028857610288610248565b604051601f8201601f19908116603f011681016001600160401b03811182821017156102b6576102b6610248565b6040528181528382016020018510156102ce57600080fd5b60005b828110156102ed576020818601810151838301820152016102d1565b506000918101602001919091529392505050565b60008060006060848603121561031657600080fd5b83516001600160401b0381111561032c57600080fd5b6103388682870161025e565b602086015190945090506001600160401b0381111561035657600080fd5b6103628682870161025e565b925050604084015190509250925092565b600181811c9082168061038757607f821691505b6020821081036103a757634e487b7160e01b600052602260045260246000fd5b50919050565b601f8211156103f757806000526020600020601f840160051c810160208510156103d45750805b601f840160051c820191505b818110156103f457600081556001016103e0565b50505b505050565b81516001600160401b0381111561041557610415610248565b610429816104238454610373565b846103ad565b6020601f82116001811461045d57600083156104455750848201515b600019600385901b1c1916600184901b1784556103f4565b600084815260208120601f198516915b8281101561048d578785015182556020948501946001909201910161046d565b50848210156104ab5786840151600019600387901b60f8161c191681555b50505050600190811b01905550565b634e487b7160e01b600052603260045260246000fd5b8082018082111561024257634e487b7160e01b600052601160045260246000fd5b6119f9806105006000396000f3fe608060405234801561001057600080fd5b50600436106101805760003560e01c806301e336671461018557806306fdde031461019a578063095ea7b3146101b857806312d43a51146101db5780631785f53c146101fb57806318160ddd1461020e5780631e83409a1461022557806323b872dd14610238578063276eab4e1461024b57806327e235e31461025e578063313ce5671461027e578063429b62e51461029857806346ea87af146102bb57806352cd38d9146102de57806355b6ed5c146102f15780635a47a1a71461031c578063602172671461032f5780636228907714610342578063704802751461035557806370a0823114610368578063817b1cd2146103915780639554381a1461039957806395d89b41146103bc578063996f11ee146103c45780639cb7de4b146103d7578063a9059cbb146103ea578063a923fc40146103fd578063c93be63614610410578063cfad57a214610419578063dd62ed3e1461042c578063dfbaefb114610465578063fb30d91614610472575b600080fd5b6101986101933660046113da565b610485565b005b6101a26104d1565b6040516101af919061143b565b60405180910390f35b6101cb6101c636600461146e565b61055f565b60405190151581526020016101af565b6004546101ee906001600160a01b031681565b6040516101af9190611498565b6101986102093660046114ac565b610576565b61021760025481565b6040519081526020016101af565b6101986102333660046114ac565b6105c1565b6101cb6102463660046113da565b610672565b61019861025936600461150d565b61070c565b61021761026c3660046114ac565b60056020526000908152604090205481565b610286601281565b60405160ff90911681526020016101af565b6101cb6102a63660046114ac565b60096020526000908152604090205460ff1681565b6101cb6102c93660046114ac565b600b6020526000908152604090205460ff1681565b6101ee6102ec3660046115b4565b610749565b6102176102ff3660046115cd565b600660209081526000928352604080842090915290825290205481565b61019861032a366004611611565b610773565b61021761033d3660046114ac565b6107b0565b6101986103503660046114ac565b6107f5565b6101986103633660046114ac565b6108e1565b6102176103763660046114ac565b6001600160a01b031660009081526005602052604090205490565b61021761092f565b6101cb6103a73660046114ac565b60086020526000908152604090205460ff1681565b6101a261094d565b6101986103d23660046115cd565b61095a565b6101986103e536600461162e565b610a36565b6101cb6103f836600461146e565b610a8b565b61019861040b3660046116d4565b610a98565b61021760035481565b6101986104273660046114ac565b610adb565b61021761043a3660046115cd565b6001600160a01b03918216600090815260066020908152604080832093909416825291909152205490565b600a546101cb9060ff1681565b6101986104803660046114ac565b610b27565b6004546001600160a01b031633146104b85760405162461bcd60e51b81526004016104af9061173b565b60405180910390fd5b6104cc6001600160a01b0384168383610bfe565b505050565b600080546104de90611769565b80601f016020809104026020016040519081016040528092919081815260200182805461050a90611769565b80156105575780601f1061052c57610100808354040283529160200191610557565b820191906000526020600020905b81548152906001019060200180831161053a57829003601f168201915b505050505081565b600061056c338484610c50565b5060015b92915050565b6004546001600160a01b031633146105a05760405162461bcd60e51b81526004016104af9061173b565b6001600160a01b03166000908152600960205260409020805460ff19169055565b60005b60075481101561066e576000600782815481106105e3576105e36117a3565b6000918252602090912001546040516310e059a160e11b81526001600160a01b03909116915081906321c0b3429061062190339087906004016117b9565b6020604051808303816000875af1158015610640573d6000803e3d6000fd5b505050506040513d601f19601f8201168201806040525081019061066491906117d3565b50506001016105c4565b5050565b336000908152600b602052604081205460ff161561069d57610695848484610d7e565b506001610705565b60006106e7836040518060600160405280602c815260200161196e602c91396001600160a01b03881660009081526006602090815260408083203384529091529020549190610ffe565b90506106f4853383610c50565b6106ff858585610d7e565b60019150505b9392505050565b6004546001600160a01b031633146107365760405162461bcd60e51b81526004016104af9061173b565b805161066e906007906020840190611344565b6007818154811061075957600080fd5b6000918252602090912001546001600160a01b0316905081565b6004546001600160a01b0316331461079d5760405162461bcd60e51b81526004016104af9061173b565b600a805460ff1916911515919091179055565b6001600160a01b03811660009081526008602052604081205460ff16156107d957506000919050565b506001600160a01b031660009081526005602052604090205490565b3360009081526009602052604090205460ff166108245760405162461bcd60e51b81526004016104af9061173b565b6001600160a01b03811660009081526008602052604090205460ff16156108985760405162461bcd60e51b815260206004820152602260248201527f42617365546f6b656e3a205f6163636f756e7420616c7265616479206d61726b604482015261195960f21b60648201526084016104af565b6108a18161102a565b6001600160a01b0381166000908152600860209081526040808320805460ff1916600117905560059091529020546003546108db916110c7565b60035550565b6004546001600160a01b0316331461090b5760405162461bcd60e51b81526004016104af9061173b565b6001600160a01b03166000908152600960205260409020805460ff19166001179055565b60006109486003546002546110d390919063ffffffff16565b905090565b600180546104de90611769565b3360009081526009602052604090205460ff166109895760405162461bcd60e51b81526004016104af9061173b565b60005b6007548110156104cc576000600782815481106109ab576109ab6117a3565b6000918252602090912001546040516310e059a160e11b81526001600160a01b03909116915081906321c0b342906109e990879087906004016117b9565b6020604051808303816000875af1158015610a08573d6000803e3d6000fd5b505050506040513d601f19601f82011682018060405250810190610a2c91906117d3565b505060010161098c565b6004546001600160a01b03163314610a605760405162461bcd60e51b81526004016104af9061173b565b6001600160a01b03919091166000908152600b60205260409020805460ff1916911515919091179055565b600061056c338484610d7e565b6004546001600160a01b03163314610ac25760405162461bcd60e51b81526004016104af9061173b565b6000610ace838261183a565b5060016104cc828261183a565b6004546001600160a01b03163314610b055760405162461bcd60e51b81526004016104af9061173b565b600480546001600160a01b0319166001600160a01b0392909216919091179055565b3360009081526009602052604090205460ff16610b565760405162461bcd60e51b81526004016104af9061173b565b6001600160a01b03811660009081526008602052604090205460ff16610bbe5760405162461bcd60e51b815260206004820152601e60248201527f42617365546f6b656e3a205f6163636f756e74206e6f74206d61726b6564000060448201526064016104af565b610bc78161102a565b6001600160a01b0381166000908152600860209081526040808320805460ff1916905560059091529020546003546108db916110d3565b604080516001600160a01b038416602482015260448082018490528251808303909101815260649091019091526020810180516001600160e01b031663a9059cbb60e01b1790526104cc9084906110df565b6001600160a01b038316610cb75760405162461bcd60e51b815260206004820152602860248201527f42617365546f6b656e3a20617070726f76652066726f6d20746865207a65726f604482015267206164647265737360c01b60648201526084016104af565b6001600160a01b038216610d1c5760405162461bcd60e51b815260206004820152602660248201527f42617365546f6b656e3a20617070726f766520746f20746865207a65726f206160448201526564647265737360d01b60648201526084016104af565b6001600160a01b0383811660008181526006602090815260408083209487168084529482529182902085905590518481527f8c5be1e5ebec7d5bd14f71427d1e84f3dd0314c0f7b2291e5b200ac8c7c3b92591015b60405180910390a3505050565b6001600160a01b038316610de65760405162461bcd60e51b815260206004820152602960248201527f42617365546f6b656e3a207472616e736665722066726f6d20746865207a65726044820152686f206164647265737360b81b60648201526084016104af565b6001600160a01b038216610e4c5760405162461bcd60e51b815260206004820152602760248201527f42617365546f6b656e3a207472616e7366657220746f20746865207a65726f206044820152666164647265737360c81b60648201526084016104af565b600a5460ff1615610ec457336000908152600b602052604090205460ff16610ec45760405162461bcd60e51b815260206004820152602560248201527f42617365546f6b656e3a206d73672e73656e646572206e6f742077686974656c6044820152641a5cdd195960da1b60648201526084016104af565b610ecd8361102a565b610ed68261102a565b610f13816040518060600160405280602a815260200161199a602a91396001600160a01b0386166000908152600560205260409020549190610ffe565b6001600160a01b038085166000908152600560205260408082209390935590841681522054610f4290826110c7565b6001600160a01b0380841660009081526005602090815260408083209490945591861681526008909152205460ff1615610f8757600354610f8390826110d3565b6003555b6001600160a01b03821660009081526008602052604090205460ff1615610fb957600354610fb590826110c7565b6003555b816001600160a01b0316836001600160a01b03167fddf252ad1be2c89b69c2b068fc378daa952ba7f163c4a11628f55a4df523b3ef83604051610d7191815260200190565b600081848411156110225760405162461bcd60e51b81526004016104af919061143b565b505050900390565b60005b60075481101561066e5760006007828154811061104c5761104c6117a3565b600091825260209091200154604051635fd6196560e01b81526001600160a01b0390911691508190635fd6196590611088908690600401611498565b600060405180830381600087803b1580156110a257600080fd5b505af11580156110b6573d6000803e3d6000fd5b50506001909301925061102d915050565b6000610705828461190e565b60006107058284611921565b6000611134826040518060400160405280602081526020017f5361666545524332303a206c6f772d6c6576656c2063616c6c206661696c6564815250856001600160a01b03166111b49092919063ffffffff16565b90508051600014806111555750808060200190518101906111559190611934565b6104cc5760405162461bcd60e51b815260206004820152602a60248201527f5361666545524332303a204552433230206f7065726174696f6e20646964206e6044820152691bdd081cdd58d8d9595960b21b60648201526084016104af565b60606111c384846000856111cb565b949350505050565b60608247101561122c5760405162461bcd60e51b815260206004820152602660248201527f416464726573733a20696e73756666696369656e742062616c616e636520666f6044820152651c8818d85b1b60d21b60648201526084016104af565b600080866001600160a01b031685876040516112489190611951565b60006040518083038185875af1925050503d8060008114611285576040519150601f19603f3d011682016040523d82523d6000602084013e61128a565b606091505b509150915061129b878383876112a6565b979650505050505050565b6060831561131557825160000361130e576001600160a01b0385163b61130e5760405162461bcd60e51b815260206004820152601d60248201527f416464726573733a2063616c6c20746f206e6f6e2d636f6e747261637400000060448201526064016104af565b50816111c3565b6111c3838381511561132a5781518083602001fd5b8060405162461bcd60e51b81526004016104af919061143b565b828054828255906000526020600020908101928215611399579160200282015b8281111561139957825182546001600160a01b0319166001600160a01b03909116178255602090920191600190910190611364565b506113a59291506113a9565b5090565b5b808211156113a557600081556001016113aa565b80356001600160a01b03811681146113d557600080fd5b919050565b6000806000606084860312156113ef57600080fd5b6113f8846113be565b9250611406602085016113be565b929592945050506040919091013590565b60005b8381101561143257818101518382015260200161141a565b50506000910152565b602081526000825180602084015261145a816040850160208701611417565b601f01601f19169190910160400192915050565b6000806040838503121561148157600080fd5b61148a836113be565b946020939093013593505050565b6001600160a01b0391909116815260200190565b6000602082840312156114be57600080fd5b610705826113be565b634e487b7160e01b600052604160045260246000fd5b604051601f8201601f191681016001600160401b0381118282101715611505576115056114c7565b604052919050565b60006020828403121561151f57600080fd5b81356001600160401b0381111561153557600080fd5b8201601f8101841361154657600080fd5b80356001600160401b0381111561155f5761155f6114c7565b8060051b61156f602082016114dd565b9182526020818401810192908101908784111561158b57600080fd5b6020850194505b8385101561129b576115a3856113be565b825260209485019490910190611592565b6000602082840312156115c657600080fd5b5035919050565b600080604083850312156115e057600080fd5b6115e9836113be565b91506115f7602084016113be565b90509250929050565b801515811461160e57600080fd5b50565b60006020828403121561162357600080fd5b813561070581611600565b6000806040838503121561164157600080fd5b61164a836113be565b9150602083013561165a81611600565b809150509250929050565b600082601f83011261167657600080fd5b81356001600160401b0381111561168f5761168f6114c7565b6116a2601f8201601f19166020016114dd565b8181528460208386010111156116b757600080fd5b816020850160208301376000918101602001919091529392505050565b600080604083850312156116e757600080fd5b82356001600160401b038111156116fd57600080fd5b61170985828601611665565b92505060208301356001600160401b0381111561172557600080fd5b61173185828601611665565b9150509250929050565b6020808252601490820152732130b9b2aa37b5b2b71d103337b93134b23232b760611b604082015260600190565b600181811c9082168061177d57607f821691505b60208210810361179d57634e487b7160e01b600052602260045260246000fd5b50919050565b634e487b7160e01b600052603260045260246000fd5b6001600160a01b0392831681529116602082015260400190565b6000602082840312156117e557600080fd5b5051919050565b601f8211156104cc57806000526020600020601f840160051c810160208510156118135750805b601f840160051c820191505b81811015611833576000815560010161181f565b5050505050565b81516001600160401b03811115611853576118536114c7565b611867816118618454611769565b846117ec565b6020601f82116001811461189b57600083156118835750848201515b600019600385901b1c1916600184901b178455611833565b600084815260208120601f198516915b828110156118cb57878501518255602094850194600190920191016118ab565b50848210156118e95786840151600019600387901b60f8161c191681555b50505050600190811b01905550565b634e487b7160e01b600052601160045260246000fd5b80820180821115610570576105706118f8565b81810381811115610570576105706118f8565b60006020828403121561194657600080fd5b815161070581611600565b60008251611963818460208701611417565b919091019291505056fe42617365546f6b656e3a207472616e7366657220616d6f756e74206578636565647320616c6c6f77616e636542617365546f6b656e3a207472616e7366657220616d6f756e7420657863656564732062616c616e6365a26469706673582212204f4f11ddcdfd76b2a61a1aac2aad7270f7bcb3b7328a00f414c100643480670a64736f6c634300081a0033",
  "linkReferences": {},
  "deployedLinkReferences": {}
}