{
  "_format": "hh-sol-artifact-1",
  "contractName": "MarketUtils",
  "sourceName": "contracts/market/MarketUtils.sol",
  "abi": [
    {
      "inputs": [
        {
          "internalType": "address",
          "name": "market",
          "type": "address"
        }
      ],
      "name": "DisabledMarket",
      "type": "error"
    },
    {
      "inputs": [
        {
          "internalType": "address",
          "name": "market",
          "type": "address"
        },
        {
          "internalType": "address",
          "name": "token",
          "type": "address"
        }
      ],
      "name": "EmptyAddressInMarketTokenBalanceValidation",
      "type": "error"
    },
    {
      "inputs": [],
      "name": "EmptyMarket",
      "type": "error"
    },
    {
      "inputs": [
        {
          "internalType": "address",
          "name": "market",
          "type": "address"
        },
        {
          "internalType": "address",
          "name": "token",
          "type": "address"
        },
        {
          "internalType": "uint256",
          "name": "balance",
          "type": "uint256"
        },
        {
          "internalType": "uint256",
          "name": "expectedMinBalance",
          "type": "uint256"
        }
      ],
      "name": "InvalidMarketTokenBalance",
      "type": "error"
    },
    {
      "inputs": [
        {
          "internalType": "address",
          "name": "market",
          "type": "address"
        },
        {
          "internalType": "address",
          "name": "token",
          "type": "address"
        },
        {
          "internalType": "uint256",
          "name": "balance",
          "type": "uint256"
        },
        {
          "internalType": "uint256",
          "name": "claimableFundingFeeAmount",
          "type": "uint256"
        }
      ],
      "name": "InvalidMarketTokenBalanceForClaimableFunding",
      "type": "error"
    },
    {
      "inputs": [
        {
          "internalType": "address",
          "name": "market",
          "type": "address"
        },
        {
          "internalType": "address",
          "name": "token",
          "type": "address"
        },
        {
          "internalType": "uint256",
          "name": "balance",
          "type": "uint256"
        },
        {
          "internalType": "uint256",
          "name": "collateralAmount",
          "type": "uint256"
        }
      ],
      "name": "InvalidMarketTokenBalanceForCollateralAmount",
      "type": "error"
    },
    {
      "inputs": [
        {
          "internalType": "uint256",
          "name": "x",
          "type": "uint256"
        }
      ],
      "name": "PRBMathUD60x18__Exp2InputTooBig",
      "type": "error"
    },
    {
      "inputs": [
        {
          "internalType": "uint256",
          "name": "x",
          "type": "uint256"
        }
      ],
      "name": "PRBMathUD60x18__LogInputTooSmall",
      "type": "error"
    },
    {
      "inputs": [
        {
          "internalType": "uint256",
          "name": "prod1",
          "type": "uint256"
        }
      ],
      "name": "PRBMath__MulDivFixedPointOverflow",
      "type": "error"
    },
    {
      "inputs": [],
      "name": "UnableToGetBorrowingFactorEmptyPoolUsd",
      "type": "error"
    },
    {
      "inputs": [],
      "name": "UnableToGetFundingFactorEmptyOpenInterest",
      "type": "error"
    },
    {
      "inputs": [
        {
          "internalType": "contract DataStore",
          "name": "dataStore",
          "type": "DataStore"
        },
        {
          "components": [
            {
              "internalType": "address",
              "name": "marketToken",
              "type": "address"
            },
            {
              "internalType": "address",
              "name": "indexToken",
              "type": "address"
            },
            {
              "internalType": "address",
              "name": "longToken",
              "type": "address"
            },
            {
              "internalType": "address",
              "name": "shortToken",
              "type": "address"
            }
          ],
          "internalType": "struct Market.Props",
          "name": "market",
          "type": "tuple"
        },
        {
          "components": [
            {
              "internalType": "uint256",
              "name": "min",
              "type": "uint256"
            },
            {
              "internalType": "uint256",
              "name": "max",
              "type": "uint256"
            }
          ],
          "internalType": "struct Price.Props",
          "name": "indexTokenPrice",
          "type": "tuple"
        },
        {
          "components": [
            {
              "internalType": "uint256",
              "name": "min",
              "type": "uint256"
            },
            {
              "internalType": "uint256",
              "name": "max",
              "type": "uint256"
            }
          ],
          "internalType": "struct Price.Props",
          "name": "longTokenPrice",
          "type": "tuple"
        },
        {
          "components": [
            {
              "internalType": "uint256",
              "name": "min",
              "type": "uint256"
            },
            {
              "internalType": "uint256",
              "name": "max",
              "type": "uint256"
            }
          ],
          "internalType": "struct Price.Props",
          "name": "shortTokenPrice",
          "type": "tuple"
        },
        {
          "internalType": "bytes32",
          "name": "pnlFactorType",
          "type": "bytes32"
        },
        {
          "internalType": "bool",
          "name": "maximize",
          "type": "bool"
        }
      ],
      "name": "getMarketTokenPrice",
      "outputs": [
        {
          "internalType": "int256",
          "name": "",
          "type": "int256"
        },
        {
          "components": [
            {
              "internalType": "int256",
              "name": "poolValue",
              "type": "int256"
            },
            {
              "internalType": "int256",
              "name": "longPnl",
              "type": "int256"
            },
            {
              "internalType": "int256",
              "name": "shortPnl",
              "type": "int256"
            },
            {
              "internalType": "int256",
              "name": "netPnl",
              "type": "int256"
            },
            {
              "internalType": "uint256",
              "name": "longTokenAmount",
              "type": "uint256"
            },
            {
              "internalType": "uint256",
              "name": "shortTokenAmount",
              "type": "uint256"
            },
            {
              "internalType": "uint256",
              "name": "longTokenUsd",
              "type": "uint256"
            },
            {
              "internalType": "uint256",
              "name": "shortTokenUsd",
              "type": "uint256"
            },
            {
              "internalType": "uint256",
              "name": "totalBorrowingFees",
              "type": "uint256"
            },
            {
              "internalType": "uint256",
              "name": "borrowingFeePoolFactor",
              "type": "uint256"
            },
            {
              "internalType": "uint256",
              "name": "impactPoolAmount",
              "type": "uint256"
            }
          ],
          "internalType": "struct MarketPoolValueInfo.Props",
          "name": "",
          "type": "tuple"
        }
      ],
      "stateMutability": "view",
      "type": "function"
    },
    {
      "inputs": [
        {
          "internalType": "contract DataStore",
          "name": "dataStore",
          "type": "DataStore"
        },
        {
          "components": [
            {
              "internalType": "address",
              "name": "marketToken",
              "type": "address"
            },
            {
              "internalType": "address",
              "name": "indexToken",
              "type": "address"
            },
            {
              "internalType": "address",
              "name": "longToken",
              "type": "address"
            },
            {
              "internalType": "address",
              "name": "shortToken",
              "type": "address"
            }
          ],
          "internalType": "struct Market.Props",
          "name": "market",
          "type": "tuple"
        },
        {
          "components": [
            {
              "internalType": "uint256",
              "name": "min",
              "type": "uint256"
            },
            {
              "internalType": "uint256",
              "name": "max",
              "type": "uint256"
            }
          ],
          "internalType": "struct Price.Props",
          "name": "indexTokenPrice",
          "type": "tuple"
        },
        {
          "components": [
            {
              "internalType": "uint256",
              "name": "min",
              "type": "uint256"
            },
            {
              "internalType": "uint256",
              "name": "max",
              "type": "uint256"
            }
          ],
          "internalType": "struct Price.Props",
          "name": "longTokenPrice",
          "type": "tuple"
        },
        {
          "components": [
            {
              "internalType": "uint256",
              "name": "min",
              "type": "uint256"
            },
            {
              "internalType": "uint256",
              "name": "max",
              "type": "uint256"
            }
          ],
          "internalType": "struct Price.Props",
          "name": "shortTokenPrice",
          "type": "tuple"
        },
        {
          "internalType": "bytes32",
          "name": "pnlFactorType",
          "type": "bytes32"
        },
        {
          "internalType": "bool",
          "name": "maximize",
          "type": "bool"
        }
      ],
      "name": "getPoolValueInfo",
      "outputs": [
        {
          "components": [
            {
              "internalType": "int256",
              "name": "poolValue",
              "type": "int256"
            },
            {
              "internalType": "int256",
              "name": "longPnl",
              "type": "int256"
            },
            {
              "internalType": "int256",
              "name": "shortPnl",
              "type": "int256"
            },
            {
              "internalType": "int256",
              "name": "netPnl",
              "type": "int256"
            },
            {
              "internalType": "uint256",
              "name": "longTokenAmount",
              "type": "uint256"
            },
            {
              "internalType": "uint256",
              "name": "shortTokenAmount",
              "type": "uint256"
            },
            {
              "internalType": "uint256",
              "name": "longTokenUsd",
              "type": "uint256"
            },
            {
              "internalType": "uint256",
              "name": "shortTokenUsd",
              "type": "uint256"
            },
            {
              "internalType": "uint256",
              "name": "totalBorrowingFees",
              "type": "uint256"
            },
            {
              "internalType": "uint256",
              "name": "borrowingFeePoolFactor",
              "type": "uint256"
            },
            {
              "internalType": "uint256",
              "name": "impactPoolAmount",
              "type": "uint256"
            }
          ],
          "internalType": "struct MarketPoolValueInfo.Props",
          "name": "",
          "type": "tuple"
        }
      ],
      "stateMutability": "view",
      "type": "function"
    },
    {
      "inputs": [
        {
          "internalType": "contract DataStore",
          "name": "dataStore",
          "type": "DataStore"
        },
        {
          "components": [
            {
              "internalType": "address",
              "name": "marketToken",
              "type": "address"
            },
            {
              "internalType": "address",
              "name": "indexToken",
              "type": "address"
            },
            {
              "internalType": "address",
              "name": "longToken",
              "type": "address"
            },
            {
              "internalType": "address",
              "name": "shortToken",
              "type": "address"
            }
          ],
          "internalType": "struct Market.Props",
          "name": "market",
          "type": "tuple"
        }
      ],
      "name": "validateMarketTokenBalance",
      "outputs": [],
      "stateMutability": "view",
      "type": "function"
    },
    {
      "inputs": [
        {
          "internalType": "contract DataStore",
          "name": "dataStore",
          "type": "DataStore"
        },
        {
          "internalType": "address",
          "name": "_market",
          "type": "address"
        }
      ],
      "name": "validateMarketTokenBalance",
      "outputs": [],
      "stateMutability": "view",
      "type": "function"
    },
    {
      "inputs": [
        {
          "internalType": "contract DataStore",
          "name": "dataStore",
          "type": "DataStore"
        },
        {
          "components": [
            {
              "internalType": "address",
              "name": "marketToken",
              "type": "address"
            },
            {
              "internalType": "address",
              "name": "indexToken",
              "type": "address"
            },
            {
              "internalType": "address",
              "name": "longToken",
              "type": "address"
            },
            {
              "internalType": "address",
              "name": "shortToken",
              "type": "address"
            }
          ],
          "internalType": "struct Market.Props[]",
          "name": "markets",
          "type": "tuple[]"
        }
      ],
      "name": "validateMarketTokenBalance",
      "outputs": [],
      "stateMutability": "view",
      "type": "function"
    }
  ],
  "bytecode": "0x614b44610039600b82828239805160001a607314602c57634e487b7160e01b600052600060045260246000fd5b30600052607381538281f3fe730000000000000000000000000000000000000000301460806040526004361061008d5760003560e01c80631450a8791461009257806339b1348f146100b45780635930015e146100c75780637b672c9a146100da5780637d494dc3146100ed578063b656ff7a14610117578063c468d13514610137578063d2ab7dc014610157578063f2e2a4f514610177575b600080fd5b81801561009e57600080fd5b506100b26100ad366004614478565b610197565b005b6100b26100c23660046144e9565b610240565b6100b26100d536600461451f565b610287565b6100b26100e8366004614558565b6102a4565b6101006100fb366004614626565b6102db565b60405161010e929190614725565b60405180910390f35b81801561012357600080fd5b506100b261013236600461473a565b610374565b81801561014357600080fd5b506100b26101523660046147a8565b61039e565b81801561016357600080fd5b506100b26101723660046147f3565b6104bb565b61018a610185366004614626565b61060d565b60405161010e919061484e565b60006101a5868585856108e1565b9150506101b9868686600001518585610945565b856001600160a01b031663e2a4853a6101d6866000015185610a55565b426040518363ffffffff1660e01b81526004016101f492919061485d565b6020604051808303816000875af1158015610213573d6000803e3d6000fd5b505050506040513d601f19601f82011682018060405250810190610237919061486b565b50505050505050565b61024f82828360400151610afc565b80606001516001600160a01b031681604001516001600160a01b031603610274575050565b61028382828360600151610afc565b5050565b60006102938383610cfa565b905061029f8382610240565b505050565b60005b815181101561029f576102d3838383815181106102c6576102c6614884565b6020026020010151610240565b6001016102a7565b60006102e561419d565b60006102f48960000151610dae565b905060006103078b8b8b8b8b8b8b61060d565b9050816000036103315761032668327cb2734119d3b7a9601e1b610e12565b935091506103689050565b8051600003610347576000935091506103689050565b6000610360670de0b6b3a7640000836000015185610e80565b945090925050505b97509795505050505050565b600061038588888888888888610ec9565b905061039388888884610f10565b505050505050505050565b6000806103ab8584610f97565b915091506103cc8585856103be86610e12565b6103c7906148b0565b61112d565b50604051633a5d319360e21b815273__$c1eebf06e53d0bd092f667687cf73e1ebf$__9063e974c64c9061040a9087908790879087906004016148cc565b60006040518083038186803b15801561042257600080fd5b505af4158015610436573d6000803e3d6000fd5b50505050846001600160a01b031663e2a4853a61045285611223565b426040518363ffffffff1660e01b815260040161047092919061485d565b6020604051808303816000875af115801561048f573d6000803e3d6000fd5b505050506040513d601f19601f820116820180604052508101906104b3919061486b565b505050505050565b60006104c88584846112bc565b90506104ed85858560000151866040015160018660600151600001516000015161166a565b61051085858560000151866040015160008660600151602001516000015161166a565b61053385858560000151866060015160018660600151600001516020015161166a565b61055685858560000151866060015160008660600151602001516020015161166a565b82516040840151608083015151516105749288928892600190611769565b610597858585600001518660400151600086608001516020015160000151611769565b6105ba858585600001518660600151600186608001516000015160200151611769565b6105dd858585600001518660600151600086608001516020015160200151611769565b6105f08584600001518360400151611830565b50846001600160a01b031663e2a4853a61045285600001516118ab565b61061561419d565b61061d61419d565b61062c89898a604001516118e3565b60808201526060880151610643908a908a906118e3565b60a08201526106528684611981565b816080015161066191906148f5565b60c08201526106708584611981565b8160a0015161067f91906148f5565b60e0820181905260c082015161069d916106989161490c565b610e12565b815260408051606081018252888152602081018890529081018690526106c68a8a836001611998565b6101008301526106d98a8a836000611998565b82610100018181516106eb919061490c565b9052506040516001600160a01b038b169063bd02d0f590610740906020016020808252601d908201527f424f52524f57494e475f4645455f52454345495645525f464143544f52000000604082015260600190565b604051602081830303815290604052805190602001206040518263ffffffff1660e01b815260040161077491815260200190565b602060405180830381865afa158015610791573d6000803e3d6000fd5b505050506040513d601f19601f820116820180604052508101906107b5919061486b565b6107cb9068327cb2734119d3b7a9601e1b61491f565b61012083018190526101008301516107e79161069891906119ed565b825183906107f6908390614932565b9052506108088a8a8a60018815611a06565b60208301819052895160c0840151610827928d9291600191908a611a92565b602083015261083b8a8a8a60008815611a06565b60408301819052895160e084015161085a928d9291600091908a611a92565b6040830181905260208301516108709190614932565b606083018190528251610883919061495a565b82528851610892908b90611ae2565b61014083015260006108a5898615611981565b8361014001516108b591906148f5565b90506108c081610e12565b835184906108cf90839061495a565b905250919a9950505050505050505050565b60008060006108f587876000015186611aef565b9050600061090588888888611b1b565b9050600061091889896000015188611d08565b9050600061092683856148f5565b90506000610934828461490c565b9b919a509098505050505050505050565b6000856001600160a01b031663340dbab36109608686611d5e565b846040518363ffffffff1660e01b815260040161097e92919061485d565b6020604051808303816000875af115801561099d573d6000803e3d6000fd5b505050506040513d601f19601f820116820180604052508101906109c1919061486b565b60405163d206b70560e01b81526001600160a01b038088166004830152861660248201528415156044820152606481018490526084810182905290915073__$c1eebf06e53d0bd092f667687cf73e1ebf$__9063d206b7059060a40160006040518083038186803b158015610a3557600080fd5b505af4158015610a49573d6000803e3d6000fd5b50505050505050505050565b6000604051602001610aa79060208082526026908201527f43554d554c41544956455f424f52524f57494e475f464143544f525f5550444160408201526515115117d05560d21b606082015260800190565b60408051601f198184030181528282528051602091820120908301526001600160a01b0385169082015282151560608201526080015b6040516020818303038152906040528051906020012090505b92915050565b81516001600160a01b03161580610b1a57506001600160a01b038116155b15610b4657815160405163e474a42560e01b8152610b3d91908390600401614981565b60405180910390fd5b81516040516370a0823160e01b81526000916001600160a01b038416916370a0823191610b759160040161499b565b602060405180830381865afa158015610b92573d6000803e3d6000fd5b505050506040513d601f19601f82011682018060405250810190610bb6919061486b565b90506000610bc5858585611d9f565b905080821015610bf15783516040516333a1ea6b60e01b8152610b3d91908590859085906004016148cc565b6000610c05868660000151866001806120b9565b9050610c1a86866000015186600060016120b9565b610c24908261490c565b905080831015610c5057845160405163808c464f60e01b8152610b3d91908690869085906004016148cc565b6000866001600160a01b031663bd02d0f5610c6f88600001518861213f565b6040518263ffffffff1660e01b8152600401610c8d91815260200190565b602060405180830381865afa158015610caa573d6000803e3d6000fd5b505050506040513d601f19601f82011682018060405250810190610cce919061486b565b905080841015610237578551604051639dd026db60e01b8152610b3d91908790879085906004016148cc565b60408051608081018252600080825260208201819052918101829052606081019190915260405163a8d8fff560e01b815260009073__$ff439aa65a80c9eec648f15db20b189505$__9063a8d8fff590610d5a9087908790600401614981565b608060405180830381865af4158015610d77573d6000803e3d6000fd5b505050506040513d601f19601f82011682018060405250810190610d9b91906149af565b9050610da784826121ba565b9392505050565b6000816001600160a01b03166318160ddd6040518163ffffffff1660e01b8152600401602060405180830381865afa158015610dee573d6000803e3d6000fd5b505050506040513d601f19601f82011682018060405250810190610af6919061486b565b60006001600160ff1b03821115610e7c5760405162461bcd60e51b815260206004820152602860248201527f53616665436173743a2076616c756520646f65736e27742066697420696e2061604482015267371034b73a191a9b60c11b6064820152608401610b3d565b5090565b600080610e9685610e9086612283565b85612296565b905060008413610eb757610ea981610e12565b610eb2906148b0565b610ec0565b610ec081610e12565b95945050505050565b600080610ed78989896122a3565b9050610ee386866119ed565b610eed908261491f565b9050610ef984846119ed565b610f03908261490c565b9998505050505050505050565b6000846001600160a01b031663e2a4853a610f2b86866122ba565b846040518363ffffffff1660e01b8152600401610f4992919061485d565b6020604051808303816000875af1158015610f68573d6000803e3d6000fd5b505050506040513d601f19601f82011682018060405250810190610f8c919061486b565b90505b949350505050565b6000806000610fa685856122ef565b905080600003610fbb57600092509050611126565b6000856001600160a01b031663bd02d0f5610fd587612368565b6040518263ffffffff1660e01b8152600401610ff391815260200190565b602060405180830381865afa158015611010573d6000803e3d6000fd5b505050506040513d601f19601f82011682018060405250810190611034919061486b565b90508060000361104a5750600092509050611126565b6000866001600160a01b031663bd02d0f5611064886123ba565b6040518263ffffffff1660e01b815260040161108291815260200190565b602060405180830381865afa15801561109f573d6000803e3d6000fd5b505050506040513d601f19601f820116820180604052508101906110c3919061486b565b90508083116110db5760008394509450505050611126565b60006110e7828561491f565b905060006110f589896123fd565b9050600061110382866119ed565b9050828111156111105750815b8061111b818861491f565b975097505050505050505b9250929050565b600080856001600160a01b0316638ca498b061114886612495565b856040518363ffffffff1660e01b815260040161116692919061485d565b6020604051808303816000875af1158015611185573d6000803e3d6000fd5b505050506040513d601f19601f820116820180604052508101906111a9919061486b565b60405163555a997960e01b815290915073__$c1eebf06e53d0bd092f667687cf73e1ebf$__9063555a9979906111e99088908890889087906004016148cc565b60006040518083038186803b15801561120157600080fd5b505af4158015611215573d6000803e3d6000fd5b509298975050505050505050565b60006040516020016112729060208082526023908201527f504f534954494f4e5f494d504143545f504f4f4c5f444953545249425554454460408201526217d05560ea1b606082015260800190565b60408051601f198184030181528282528051602091820120908301526001600160a01b03841690820152606001604051602081830303815290604052805190602001209050919050565b6112c46141f7565b6112cc6141f7565b6112d4614233565b60006112e8866040015187606001516124d6565b90506113008787600001518860400151600185612505565b8251515285516060870151611319918991600185612505565b8251516020015285516040870151611335918991600085612505565b8251602001515285516060870151611351918991600085612505565b8251602090810151810191909152825151908101519051611372919061490c565b6020808401919091528251810151908101519051611390919061490c565b6040830152602082015115806113a857506040820151155b156113b857829350505050610da7565b6113c6878760000151612522565b606083015260408201516020830151116113e45781604001516113ea565b81602001515b82608001818152505061141087876000015184602001518560400151866060015161253d565b604086015215158452602084018190526080830151606084015161143c92611437916148f5565b6119ed565b60a0830181905261144e908290614a2e565b60a083015282511561149f5760a0820151825151516020840151611473929190612296565b60c083015260a082015182515160209081015190840151611495929190612296565b60e08301526114e5565b60a08201518251602001515160408401516114bb929190612296565b60c083015260a08201518251602090810151015160408401516114df929190612296565b60e08301525b8251156115a35760c082015182515151602080880151015161150a9291906001612ba7565b6060840151515260e08201518251516020908101516040880151909101516115359291906001612ba7565b83606001516000015160200181815250506115638260c0015183604001518760200151602001516000612ba7565b83608001516020015160000181815250506115918260e0015183604001518760400151602001516000612ba7565b6080840151602090810151015261165f565b6115c88260c00151836000015160200151600001518760200151602001516001612ba7565b83606001516020015160000181815250506115fe8260e00151836000015160200151602001518760400151602001516001612ba7565b836060015160200151602001818152505061162c8260c0015183602001518760200151602001516000612ba7565b6080840151515260e08201516020808401516040880151909101516116549291906000612ba7565b608084015151602001525b509095945050505050565b80156104b3576000866001600160a01b0316633dbacd1a61168c878787612c0f565b846040518363ffffffff1660e01b81526004016116aa92919061485d565b6020604051808303816000875af11580156116c9573d6000803e3d6000fd5b505050506040513d601f19601f820116820180604052508101906116ed919061486b565b6040516261034760e41b815290915073__$c1eebf06e53d0bd092f667687cf73e1ebf$__9063061034709061173090899089908990899089908990600401614a42565b60006040518083038186803b15801561174857600080fd5b505af415801561175c573d6000803e3d6000fd5b5050505050505050505050565b80156104b3576000866001600160a01b0316633dbacd1a61178b878787612cb0565b846040518363ffffffff1660e01b81526004016117a992919061485d565b6020604051808303816000875af11580156117c8573d6000803e3d6000fd5b505050506040513d601f19601f820116820180604052508101906117ec919061486b565b604051636d6b205960e01b815290915073__$c1eebf06e53d0bd092f667687cf73e1ebf$__90636d6b20599061173090899089908990899089908990600401614a42565b6000836001600160a01b0316633e49bed061184a85612cfd565b846040518363ffffffff1660e01b815260040161186892919061485d565b6020604051808303816000875af1158015611887573d6000803e3d6000fd5b505050506040513d601f19601f82011682018060405250810190610f8f919061486b565b60006040516020016112729060208082526012908201527111955391125391d7d554111055115117d05560721b604082015260600190565b6000806118f8846040015185606001516124d6565b905080856001600160a01b031663bd02d0f5611918876000015187612d40565b6040518263ffffffff1660e01b815260040161193691815260200190565b602060405180830381865afa158015611953573d6000803e3d6000fd5b505050506040513d601f19601f82011682018060405250810190611977919061486b565b610ec09190614a2e565b60008161198f578251610da7565b50506020015190565b6000806119a6868685612d71565b905060006119b6878787876108e1565b50905060006119ca888860000151876122a3565b9050806119d784846119ed565b6119e1919061491f565b98975050505050505050565b6000610da7838368327cb2734119d3b7a9601e1b612296565b600080611a17610698888887612d71565b90506000611a26888887612dcf565b9050811580611a33575080155b15611a4357600092505050610ec0565b6000611a50878787612e16565b90506000611a6161069883856148f5565b9050600087611a7957611a74828661495a565b611a83565b611a83858361495a565b9b9a5050505050505050505050565b600080841215611aa3575082611ad8565b6000611ab188848989612e4f565b90506000611ac261069886846119ed565b9050808613611ad15785611ad3565b805b925050505b9695505050505050565b600080610ec08484610f97565b600080611afd858585612ea6565b905080600003611b11576000915050610da7565b610ec0814261491f565b600080611b2a86868686612ec1565b905080600003611b3e576000915050610f8f565b6000866001600160a01b0316637ae1cfca604051602001611b9c9060208082526023908201527f534b49505f424f52524f57494e475f4645455f464f525f534d414c4c45525f5360408201526249444560e81b606082015260800190565b604051602081830303815290604052805190602001206040518263ffffffff1660e01b8152600401611bd091815260200190565b602060405180830381865afa158015611bed573d6000803e3d6000fd5b505050506040513d601f19601f82011682018060405250810190611c119190614a7d565b90508015611c79576000611c2788886001612d71565b90506000611c3789896000612d71565b9050858015611c4557508082105b15611c57576000945050505050610f8f565b85158015611c6457508181105b15611c76576000945050505050610f8f565b50505b6000611c89888888886000612efd565b905080600003611cac57604051630d5f5aef60e31b815260040160405180910390fd5b6000611cbd89896000015188612f76565b90506000611ccb8583612f91565b90506000611cd98285612ff0565b90506000611cec8c8c600001518b612ffe565b9050611cf882826119ed565b9c9b505050505050505050505050565b6000836001600160a01b031663bd02d0f5611d238585611d5e565b6040518263ffffffff1660e01b8152600401611d4191815260200190565b602060405180830381865afa158015611887573d6000803e3d6000fd5b6000604051602001610aa7906020808252601b908201527a21aaa6aaa620aa24ab22afa127a92927aba4a723afa320a1aa27a960291b604082015260600190565b6000611dda6040518060c001604052806000815260200160008152602001600081526020016000815260200160008152602001600081525090565b846001600160a01b031663bd02d0f5611df7866000015186612d40565b6040518263ffffffff1660e01b8152600401611e1591815260200190565b602060405180830381865afa158015611e32573d6000803e3d6000fd5b505050506040513d601f19601f82011682018060405250810190611e56919061486b565b81528351611e6690869085613019565b602082015283516001600160a01b0386169063bd02d0f590611e889086613034565b6040518263ffffffff1660e01b8152600401611ea691815260200190565b602060405180830381865afa158015611ec3573d6000803e3d6000fd5b505050506040513d601f19601f82011682018060405250810190611ee7919061486b565b604082015283516001600160a01b0386169063bd02d0f590611f099086613075565b6040518263ffffffff1660e01b8152600401611f2791815260200190565b602060405180830381865afa158015611f44573d6000803e3d6000fd5b505050506040513d601f19601f82011682018060405250810190611f68919061486b565b606082015283516001600160a01b0386169063bd02d0f590611f8a90866130af565b6040518263ffffffff1660e01b8152600401611fa891815260200190565b602060405180830381865afa158015611fc5573d6000803e3d6000fd5b505050506040513d601f19601f82011682018060405250810190611fe9919061486b565b608082015283516001600160a01b0386169063bd02d0f59061200b90866130ec565b6040518263ffffffff1660e01b815260040161202991815260200190565b602060405180830381865afa158015612046573d6000803e3d6000fd5b505050506040513d601f19601f8201168201806040525081019061206a919061486b565b60a0820181905260808201516060830151604084015160208501518551612091919061490c565b61209b919061490c565b6120a5919061490c565b6120af919061490c565b610ec0919061490c565b600081866001600160a01b031663bd02d0f56120d6888888613122565b6040518263ffffffff1660e01b81526004016120f491815260200190565b602060405180830381865afa158015612111573d6000803e3d6000fd5b505050506040513d601f19601f82011682018060405250810190612135919061486b565b611ad89190614a2e565b600060405160200161217d9060208082526018908201527710d31052535050931157d1955391125391d7d05353d5539560421b604082015260600190565b60408051601f198184030181528282528051602091820120908301526001600160a01b038086169183019190915283166060820152608001610add565b80516001600160a01b03166121e2576040516302fde0d760e11b815260040160405180910390fd5b6000826001600160a01b0316637ae1cfca6122008460000151613156565b6040518263ffffffff1660e01b815260040161221e91815260200190565b602060405180830381865afa15801561223b573d6000803e3d6000fd5b505050506040513d601f19601f8201168201806040525081019061225f9190614a7d565b9050801561029f5781516040516309f8c93760e01b8152610b3d919060040161499b565b600080821215610e7c5781600003610af6565b6000610f8f84848461318e565b6000836001600160a01b031663bd02d0f5611d2385855b6000604051602001610aa7906020808252600f908201526e544f54414c5f424f52524f57494e4760881b604082015260600190565b6000826001600160a01b031663bd02d0f561230984612495565b6040518263ffffffff1660e01b815260040161232791815260200190565b602060405180830381865afa158015612344573d6000803e3d6000fd5b505050506040513d601f19601f82011682018060405250810190610da7919061486b565b60006040516020016112729060208082526026908201527f504f534954494f4e5f494d504143545f504f4f4c5f444953545249425554494f6040820152654e5f5241544560d01b606082015260800190565b6000604051602001611272906020808252601f908201527f4d494e5f504f534954494f4e5f494d504143545f504f4f4c5f414d4f554e5400604082015260600190565b600080836001600160a01b031663bd02d0f561241885611223565b6040518263ffffffff1660e01b815260040161243691815260200190565b602060405180830381865afa158015612453573d6000803e3d6000fd5b505050506040513d601f19601f82011682018060405250810190612477919061486b565b90508060000361248b576000915050610af6565b610f8f814261491f565b6000604051602001611272906020808252601b908201527a1413d4d2551253d397d253541050d517d413d3d317d05353d55395602a1b604082015260600190565b6000816001600160a01b0316836001600160a01b0316146124f85760016124fb565b60025b60ff169392505050565b600081866001600160a01b031663bd02d0f56120d6888888613278565b600080836001600160a01b031663bd02d0f5612418856118ab565b6000806000612598604051806101400160405280600081526020016000815260200160008152602001600081526020016000815260200160008152602001600081526020016000815260200160008152602001600081525090565b6125a287876132ab565b81526125ae868861490c565b602082015280516000036125ce5760006001600093509350935050612b9c565b80602001516000036125f3576040516311423d9560e01b815260040160405180910390fd5b6125fd89896132cd565b60608201819052815161260f91612f91565b6080820181905260208201516126259190612ff0565b8160a00181815250506126676040518060c001604052806000815260200160008152602001600081526020016000815260200160008152602001600081525090565b896001600160a01b031663bd02d0f561267f8b6132e7565b6040518263ffffffff1660e01b815260040161269d91815260200190565b602060405180830381865afa1580156126ba573d6000803e3d6000fd5b505050506040513d601f19601f820116820180604052508101906126de919061486b565b6040820181905260000361271d576126f68a8a613335565b6040830181905260a083015161270b916119ed565b87891160009450945094505050612b9c565b6127278a8a61334f565b60c0830181905261273790612283565b60e08301526001600160a01b038a1663bd02d0f56127548b613369565b6040518263ffffffff1660e01b815260040161277291815260200190565b602060405180830381865afa15801561278f573d6000803e3d6000fd5b505050506040513d601f19601f820116820180604052508101906127b3919061486b565b81526001600160a01b038a1663bd02d0f56127cd8b6133ab565b6040518263ffffffff1660e01b81526004016127eb91815260200190565b602060405180830381865afa158015612808573d6000803e3d6000fd5b505050506040513d601f19601f8201168201806040525081019061282c919061486b565b602082015260c082015161010083018190526000908190811280156128505750888a115b80612869575060008460c0015112801561286957508989115b905080156128a157825160a0850151111561288757600191506128a6565b82602001518460a00151101561289c57600291505b6128a6565b600191505b60018260028111156128ba576128ba614a9a565b036129175760006128ca89610e12565b6128df6106988760a0015187604001516119ed565b6128e99190614ab0565b9050898b10156128ff576128fc816148b0565b90505b808560c0015161290f9190614932565b610100860152505b600282600281111561292b5761292b614a9a565b14801561293b575060e084015115155b15612a48578b6001600160a01b031663bd02d0f56129588d6133ee565b6040518263ffffffff1660e01b815260040161297691815260200190565b602060405180830381865afa158015612993573d6000803e3d6000fd5b505050506040513d601f19601f820116820180604052508101906129b7919061486b565b606084018190526000906129cc908a906148f5565b9050808560e0015111612a00576129e68560e00151610e12565b8560c001516129f59190614ae0565b610100860152612a46565b6000612a0f8660e00151610e12565b8660c00151612a1e9190614ae0565b905080612a34838860e00151610698919061491f565b612a3e9190614ab0565b610100870152505b505b8b6001600160a01b031663bd02d0f5612a608d61343c565b6040518263ffffffff1660e01b8152600401612a7e91815260200190565b602060405180830381865afa158015612a9b573d6000803e3d6000fd5b505050506040513d601f19601f82011682018060405250810190612abf919061486b565b60808401526001600160a01b038c1663bd02d0f5612adc8d61347f565b6040518263ffffffff1660e01b8152600401612afa91815260200190565b602060405180830381865afa158015612b17573d6000803e3d6000fd5b505050506040513d601f19601f82011682018060405250810190612b3b919061486b565b60a08401819052610100850151612b54916000906134c2565b6101008501819052608084015160a0850151612b719291906134c2565b6101208501819052612b8290612283565b600085610120015113856101000151965096509650505050505b955095509592505050565b6000841580612bb4575083155b15612bc157506000610f8f565b6000612beb86612be466038d7ea4c6800068327cb2734119d3b7a9601e1b6148f5565b8786613522565b90508215612c0557612bfd8185613549565b915050610f8f565b612bfd8482614a2e565b6000604051602001612c50906020808252601b908201527a46554e44494e475f4645455f414d4f554e545f5045525f53495a4560281b604082015260600190565b60408051601f198184030181528282528051602091820120908301526001600160a01b038087169183019190915284166060820152821515608082015260a0015b6040516020818303038152906040528051906020012090509392505050565b6000604051602001612c509060208082526021908201527f434c41494d41424c455f46554e44494e475f414d4f554e545f5045525f53495a6040820152604560f81b606082015260800190565b6000604051602001611272906020808252601f908201527f53415645445f46554e44494e475f464143544f525f5045525f5345434f4e4400604082015260600190565b600060405160200161217d906020808252600b908201526a1413d3d317d05353d5539560aa1b604082015260600190565b600080612d86846040015185606001516124d6565b90506000612d9f86866000015187604001518786612505565b90506000612db887876000015188606001518887612505565b9050612dc4818361490c565b979650505050505050565b600080612de4846040015185606001516124d6565b90506000612dfd8686600001518760400151878661356c565b90506000612db88787600001518860600151888761356c565b60008215612e375781612e2a578351612e30565b83602001515b9050610da7565b81612e46578360200151610f8f565b50509051919050565b6000846001600160a01b031663bd02d0f5612e6b868686613589565b6040518263ffffffff1660e01b8152600401612e8991815260200190565b602060405180830381865afa158015610f68573d6000803e3d6000fd5b6000836001600160a01b031663bd02d0f5611d238585610a55565b6000808215612ef2576000612ed7878786612dcf565b855160200151909150612eea90826148f5565b915050610f8c565b611ad8868685612d71565b60008083612f0f578560600151612f15565b85604001515b90506000612f248888846118e3565b905060008415612f525785612f4157866040015160200151612f4b565b8660200151602001515b9050612f6c565b85612f6257604087015151612f69565b6020870151515b90505b610f0381836148f5565b6000836001600160a01b031663bd02d0f5611d2385856135fd565b600068327cb2734119d3b7a9601e1b831015612faf57506000610af6565b68327cb2734119d3b7a9601e1b8203612fc9575081610af6565b6000612fe5612fd78561363c565b612fe08561363c565b61364d565b9050610f8f8161368f565b6000610da7838360006136a0565b6000836001600160a01b031663bd02d0f5611d2385856136e8565b6000836001600160a01b031663bd02d0f5611d23858561371e565b600060405160200161217d906020808252601b908201527a10d31052535050931157d0d3d31310551154905317d05353d55395602a1b604082015260600190565b600060405160200161217d9060208082526014908201527310d31052535050931157d1915157d05353d5539560621b604082015260600190565b600060405160200161217d9060208082526017908201527610d31052535050931157d55257d1915157d05353d55395604a1b604082015260600190565b600060405160200161217d9060208082526010908201526f10519192531250551157d49155d0549160821b604082015260600190565b6000604051602001612c50906020808252600e908201526d434f4c4c41544552414c5f53554d60901b604082015260600190565b6000604051602001611272906020808252601290820152711254d7d3505492d15517d11254d05093115160721b604082015260600190565b60008080600019858709858702925082811083820303915050806000036131c8578382816131be576131be614a18565b0492505050610da7565b80841161320f5760405162461bcd60e51b81526020600482015260156024820152744d6174683a206d756c446976206f766572666c6f7760581b6044820152606401610b3d565b60008486880960026001871981018816978890046003810283188082028403028082028403028082028403028082028403028082028403029081029092039091026000889003889004909101858311909403939093029303949094049190911702949350505050565b6000604051602001612c50906020808252600d908201526c13d4115397d2539511549154d5609a1b604082015260600190565b60008183116132c3576132be838361491f565b610da7565b610da7828461491f565b6000826001600160a01b031663bd02d0f56123098461375b565b60006040516020016112729060208082526022908201527f46554e44494e475f494e4352454153455f464143544f525f5045525f5345434f604082015261139160f21b606082015260800190565b6000826001600160a01b031663bd02d0f561230984613798565b6000826001600160a01b031663dc97d96261230984612cfd565b6000604051602001611272906020808252601c908201527b5448524553484f4c445f464f525f535441424c455f46554e44494e4760201b604082015260600190565b6000604051602001611272906020808252601e908201527f5448524553484f4c445f464f525f44454352454153455f46554e44494e470000604082015260600190565b60006040516020016112729060208082526022908201527f46554e44494e475f44454352454153455f464143544f525f5045525f5345434f604082015261139160f21b606082015260800190565b6000604051602001611272906020808252601d908201527f4d494e5f46554e44494e475f464143544f525f5045525f5345434f4e44000000604082015260600190565b6000604051602001611272906020808252601d908201527f4d41585f46554e44494e475f464143544f525f5045525f5345434f4e44000000604082015260600190565b6000806134ce85612283565b9050838110156134db5750825b828111156134e65750815b60008515613509576134fa61069887612283565b6135049087614ae0565b61350c565b60015b90508061351883610e12565b611ad89190614ab0565b6000811561353e5761353785858560016137cc565b9050610f8f565b610f8c85858561318e565b6000816001613558828661490c565b613562919061491f565b610da79190614a2e565b600081866001600160a01b031663bd02d0f56120d688888861381d565b60006040516020016135bd906020808252600e908201526d26a0ac2fa827262fa320a1aa27a960911b604082015260600190565b60408051601f1981840301815282825280516020918201209083015281018590526001600160a01b0384166060820152821515608082015260a001612c91565b6000604051602001610aa7906020808252601990820152782127a92927aba4a723afa2ac2827a722a72a2fa320a1aa27a960391b604082015260600190565b6000610af664e8d4a5100083614a2e565b60008260000361367557811561366457600061366e565b670de0b6b3a76400005b9050610af6565b610da761368a6136848561385a565b84613910565b61391c565b6000610af664e8d4a51000836148f5565b6000836000036136b257506000610da7565b81156136d157612e308468327cb2734119d3b7a9601e1b8560016137cc565b610f8f8468327cb2734119d3b7a9601e1b8561318e565b6000604051602001610aa79060208082526010908201526f2127a92927aba4a723afa320a1aa27a960811b604082015260600190565b600060405160200161217d9060208082526017908201527614d5d05417d253541050d517d413d3d317d05353d55395604a1b604082015260600190565b600060405160200161127290602080825260179082015276232aa72224a723afa2ac2827a722a72a2fa320a1aa27a960491b604082015260600190565b6000604051602001611272906020808252600e908201526d232aa72224a723afa320a1aa27a960911b604082015260600190565b6000806137da86868661318e565b905060018360028111156137f0576137f0614a9a565b14801561380d57506000848061380857613808614a18565b868809115b15610f8c57611ad860018261490c565b6000604051602001612c50906020808252601790820152764f50454e5f494e5445524553545f494e5f544f4b454e5360481b604082015260600190565b6000670de0b6b3a764000082101561388857604051633621413760e21b815260048101839052602401610b3d565b600061389d670de0b6b3a76400008404613962565b670de0b6b3a764000081029250905082811c670de0b6b3a763ffff1981016138c6575050919050565b6706f05b59d3b200005b801561390857670de0b6b3a7640000828002049150671bc16d674ec800008210613900579283019260019190911c905b60011c6138d0565b505050919050565b6000610da78383613a45565b6000680a688906bd8b000000821061394a57604051634a4f26f160e01b815260048101839052602401610b3d565b670de0b6b3a7640000604083901b04610da781613b0b565b6000600160801b821061398257608091821c9161397f908261490c565b90505b600160401b82106139a057604091821c9161399d908261490c565b90505b600160201b82106139be57602091821c916139bb908261490c565b90505b6201000082106139db57601091821c916139d8908261490c565b90505b61010082106139f757600891821c916139f4908261490c565b90505b60108210613a1257600491821c91613a0f908261490c565b90505b60048210613a2d57600291821c91613a2a908261490c565b90505b60028210613a4057610af660018261490c565b919050565b60008080600019848609848602925082811083820303915050670de0b6b3a76400008110613a895760405163698d9a0160e11b815260048101829052602401610b3d565b600080670de0b6b3a764000086880991506706f05b59d3b1ffff8211905082600003613ac75780670de0b6b3a7640000850401945050505050610af6565b620400008285030493909111909103600160ee1b02919091177faccb18165bd6fe31ae1cf318dc5b51eee0e1ba569b88cd74c1773b91fac106690201905092915050565b600160bf1b6001603f1b821615613b2b5768016a09e667f3bcc9090260401c5b6001603e1b821615613b46576801306fe0a31b7152df0260401c5b6001603d1b821615613b61576801172b83c7d517adce0260401c5b6001603c1b821615613b7c5768010b5586cf9890f62a0260401c5b6001603b1b821615613b97576801059b0d31585743ae0260401c5b6001603a1b821615613bb257680102c9a3e778060ee70260401c5b600160391b821615613bcd5768010163da9fb33356d80260401c5b600160381b821615613be857680100b1afa5abcbed610260401c5b600160371b821615613c035768010058c86da1c09ea20260401c5b600160361b821615613c1e576801002c605e2e8cec500260401c5b600160351b821615613c3957680100162f3904051fa10260401c5b600160341b821615613c54576801000b175effdc76ba0260401c5b600160331b821615613c6f57680100058ba01fb9f96d0260401c5b600160321b821615613c8a5768010002c5cc37da94920260401c5b600160311b821615613ca5576801000162e525ee05470260401c5b600160301b821615613cc05768010000b17255775c040260401c5b6001602f1b821615613cdb576801000058b91b5bc9ae0260401c5b6001602e1b821615613cf657680100002c5c89d5ec6d0260401c5b6001602d1b821615613d115768010000162e43f4f8310260401c5b6001602c1b821615613d2c57680100000b1721bcfc9a0260401c5b6001602b1b821615613d475768010000058b90cf1e6e0260401c5b6001602a1b821615613d62576801000002c5c863b73f0260401c5b600160291b821615613d7d57680100000162e430e5a20260401c5b600160281b821615613d98576801000000b1721835510260401c5b600160271b821615613db357680100000058b90c0b490260401c5b600160261b821615613dce5768010000002c5c8601cc0260401c5b600160251b821615613de9576801000000162e42fff00260401c5b600160241b821615613e045768010000000b17217fbb0260401c5b600160231b821615613e1f576801000000058b90bfce0260401c5b600160221b821615613e3a57680100000002c5c85fe30260401c5b600160211b821615613e555768010000000162e42ff10260401c5b600160201b821615613e7057680100000000b17217f80260401c5b6380000000821615613e8b5768010000000058b90bfc0260401c5b6340000000821615613ea6576801000000002c5c85fe0260401c5b6320000000821615613ec157680100000000162e42ff0260401c5b6310000000821615613edc576801000000000b17217f0260401c5b6308000000821615613ef757680100000000058b90c00260401c5b6304000000821615613f125768010000000002c5c8600260401c5b6302000000821615613f2d576801000000000162e4300260401c5b6301000000821615613f485768010000000000b172180260401c5b62800000821615613f62576801000000000058b90c0260401c5b62400000821615613f7c57680100000000002c5c860260401c5b62200000821615613f965768010000000000162e430260401c5b62100000821615613fb057680100000000000b17210260401c5b62080000821615613fca5768010000000000058b910260401c5b62040000821615613fe4576801000000000002c5c80260401c5b62020000821615613ffe57680100000000000162e40260401c5b620100008216156140175761b172600160401b010260401c5b61800082161561402f576158b9600160401b010260401c5b61400082161561404757612c5d600160401b010260401c5b61200082161561405f5761162e600160401b010260401c5b61100082161561407757610b17600160401b010260401c5b61080082161561408f5761058c600160401b010260401c5b6104008216156140a7576102c6600160401b010260401c5b6102008216156140bf57610163600160401b010260401c5b6101008216156140d65760b1600160401b010260401c5b60808216156140ec576059600160401b010260401c5b604082161561410257602c600160401b010260401c5b6020821615614118576016600160401b010260401c5b601082161561412e57600b600160401b010260401c5b6008821615614144576006600160401b010260401c5b600482161561415a576003600160401b010260401c5b6002821615614170576001600160401b010260401c5b6001821615614186576001600160401b010260401c5b670de0b6b3a76400000260409190911c60bf031c90565b60405180610160016040528060008152602001600081526020016000815260200160008152602001600081526020016000815260200160008152602001600081526020016000815260200160008152602001600081525090565b6040518060a00160405280600015158152602001600081526020016000815260200161422161427e565b815260200161422e61427e565b905290565b60405180610100016040528061424761427e565b8152602001600081526020016000815260200160008152602001600081526020016000815260200160008152602001600081525090565b6040805160808101825260009181018281526060820192909252908190815260200161422e604051806040016040528060008152602001600081525090565b6001600160a01b03811681146142d257600080fd5b50565b634e487b7160e01b600052604160045260246000fd5b604051608081016001600160401b038111828210171561430d5761430d6142d5565b60405290565b604051601f8201601f191681016001600160401b038111828210171561433b5761433b6142d5565b604052919050565b60006080828403121561435557600080fd5b61435d6142eb565b9050813561436a816142bd565b8152602082013561437a816142bd565b6020820152604082013561438d816142bd565b604082015260608201356143a0816142bd565b606082015292915050565b6000604082840312156143bd57600080fd5b604080519081016001600160401b03811182821017156143df576143df6142d5565b604052823581526020928301359281019290925250919050565b600060c0828403121561440b57600080fd5b604051606081016001600160401b038111828210171561442d5761442d6142d5565b60405290508061443d84846143ab565b815261444c84604085016143ab565b602082015261445e84608085016143ab565b60408201525092915050565b80151581146142d257600080fd5b60008060008060006101a0868803121561449157600080fd5b853561449c816142bd565b945060208601356144ac816142bd565b93506144bb8760408801614343565b92506144ca8760c088016143f9565b91506101808601356144db8161446a565b809150509295509295909350565b60008060a083850312156144fc57600080fd5b8235614507816142bd565b91506145168460208501614343565b90509250929050565b6000806040838503121561453257600080fd5b823561453d816142bd565b9150602083013561454d816142bd565b809150509250929050565b6000806040838503121561456b57600080fd5b8235614576816142bd565b915060208301356001600160401b0381111561459157600080fd5b8301601f810185136145a257600080fd5b80356001600160401b038111156145bb576145bb6142d5565b6145ca60208260051b01614313565b8082825260208201915060208360071b8501019250878311156145ec57600080fd5b6020840193505b82841015614618576146058885614343565b82526020820191506080840193506145f3565b809450505050509250929050565b60008060008060008060006101a0888a03121561464257600080fd5b873561464d816142bd565b965061465c8960208a01614343565b955061466b8960a08a016143ab565b945061467a8960e08a016143ab565b935061468a896101208a016143ab565b925061016088013591506101808801356146a38161446a565b8091505092959891949750929550565b805182526020810151602083015260408101516040830152606081015160608301526080810151608083015260a081015160a083015260c081015160c083015260e081015160e08301526101008101516101008301526101208101516101208301526101408101516101408301525050565b8281526101808101610da760208301846146b3565b600080600080600080600060e0888a03121561475557600080fd5b8735614760816142bd565b96506020880135614770816142bd565b955060408801356147808161446a565b969995985095966060810135965060808101359560a0820135955060c0909101359350915050565b6000806000606084860312156147bd57600080fd5b83356147c8816142bd565b925060208401356147d8816142bd565b915060408401356147e8816142bd565b809150509250925092565b600080600080610180858703121561480a57600080fd5b8435614815816142bd565b93506020850135614825816142bd565b92506148348660408701614343565b91506148438660c087016143f9565b905092959194509250565b6101608101610af682846146b3565b918252602082015260400190565b60006020828403121561487d57600080fd5b5051919050565b634e487b7160e01b600052603260045260246000fd5b634e487b7160e01b600052601160045260246000fd5b6000600160ff1b82016148c5576148c561489a565b5060000390565b6001600160a01b0394851681529290931660208301526040820152606081019190915260800190565b8082028115828204841417610af657610af661489a565b80820180821115610af657610af661489a565b81810381811115610af657610af661489a565b80820182811260008312801582168215821617156149525761495261489a565b505092915050565b818103600083128015838313168383128216171561497a5761497a61489a565b5092915050565b6001600160a01b0392831681529116602082015260400190565b6001600160a01b0391909116815260200190565b600060808284031280156149c257600080fd5b506149cb6142eb565b82516149d6816142bd565b815260208301516149e6816142bd565b602082015260408301516149f9816142bd565b60408201526060830151614a0c816142bd565b60608201529392505050565b634e487b7160e01b600052601260045260246000fd5b600082614a3d57614a3d614a18565b500490565b6001600160a01b039687168152948616602086015292909416604084015215156060830152608082019290925260a081019190915260c00190565b600060208284031215614a8f57600080fd5b8151610da78161446a565b634e487b7160e01b600052602160045260246000fd5b80820260008212600160ff1b84141615614acc57614acc61489a565b8181058314821517610af657610af661489a565b600082614aef57614aef614a18565b600160ff1b821460001984141615614b0957614b0961489a565b50059056fea2646970667358221220fc4f810c1e109b80c7b688147fa409763d9200256ce576c0bde3eb4f964db11964736f6c634300081a0033",
  "linkReferences": {
    "contracts/market/MarketEventUtils.sol": {
      "MarketEventUtils": [
        {
          "length": 20,
          "start": 1045
        },
        {
          "length": 20,
          "start": 2617
        },
        {
          "length": 20,
          "start": 4596
        },
        {
          "length": 20,
          "start": 5943
        },
        {
          "length": 20,
          "start": 6199
        }
      ]
    },
    "contracts/market/MarketStoreUtils.sol": {
      "MarketStoreUtils": [
        {
          "length": 20,
          "start": 3433
        }
      ]
    }
  },
  "deployedLinkReferences": {
    "contracts/market/MarketEventUtils.sol": {
      "MarketEventUtils": [
        {
          "length": 20,
          "start": 988
        },
        {
          "length": 20,
          "start": 2560
        },
        {
          "length": 20,
          "start": 4539
        },
        {
          "length": 20,
          "start": 5886
        },
        {
          "length": 20,
          "start": 6142
        }
      ]
    },
    "contracts/market/MarketStoreUtils.sol": {
      "MarketStoreUtils": [
        {
          "length": 20,
          "start": 3376
        }
      ]
    }
  }
}