{
  "_format": "hh-sol-artifact-1",
  "contractName": "RevertingCallbackReceiver",
  "sourceName": "contracts/mock/RevertingCallbackReceiver.sol",
  "abi": [
    {
      "inputs": [
        {
          "internalType": "bytes32",
          "name": "",
          "type": "bytes32"
        },
        {
          "components": [
            {
              "components": [
                {
                  "internalType": "address",
                  "name": "account",
                  "type": "address"
                },
                {
                  "internalType": "address",
                  "name": "receiver",
                  "type": "address"
                },
                {
                  "internalType": "address",
                  "name": "callbackContract",
                  "type": "address"
                },
                {
                  "internalType": "address",
                  "name": "uiFeeReceiver",
                  "type": "address"
                },
                {
                  "internalType": "address",
                  "name": "market",
                  "type": "address"
                },
                {
                  "internalType": "address",
                  "name": "initialLongToken",
                  "type": "address"
                },
                {
                  "internalType": "address",
                  "name": "initialShortToken",
                  "type": "address"
                },
                {
                  "internalType": "address[]",
                  "name": "longTokenSwapPath",
                  "type": "address[]"
                },
                {
                  "internalType": "address[]",
                  "name": "shortTokenSwapPath",
                  "type": "address[]"
                }
              ],
              "internalType": "struct Deposit.Addresses",
              "name": "addresses",
              "type": "tuple"
            },
            {
              "components": [
                {
                  "internalType": "uint256",
                  "name": "initialLongTokenAmount",
                  "type": "uint256"
                },
                {
                  "internalType": "uint256",
                  "name": "initialShortTokenAmount",
                  "type": "uint256"
                },
                {
                  "internalType": "uint256",
                  "name": "minMarketTokens",
                  "type": "uint256"
                },
                {
                  "internalType": "uint256",
                  "name": "updatedAtBlock",
                  "type": "uint256"
                },
                {
                  "internalType": "uint256",
                  "name": "executionFee",
                  "type": "uint256"
                },
                {
                  "internalType": "uint256",
                  "name": "callbackGasLimit",
                  "type": "uint256"
                }
              ],
              "internalType": "struct Deposit.Numbers",
              "name": "numbers",
              "type": "tuple"
            },
            {
              "components": [
                {
                  "internalType": "bool",
                  "name": "shouldUnwrapNativeToken",
                  "type": "bool"
                }
              ],
              "internalType": "struct Deposit.Flags",
              "name": "flags",
              "type": "tuple"
            }
          ],
          "internalType": "struct Deposit.Props",
          "name": "",
          "type": "tuple"
        },
        {
          "components": [
            {
              "components": [
                {
                  "components": [
                    {
                      "internalType": "string",
                      "name": "key",
                      "type": "string"
                    },
                    {
                      "internalType": "address",
                      "name": "value",
                      "type": "address"
                    }
                  ],
                  "internalType": "struct EventUtils.AddressKeyValue[]",
                  "name": "items",
                  "type": "tuple[]"
                },
                {
                  "components": [
                    {
                      "internalType": "string",
                      "name": "key",
                      "type": "string"
                    },
                    {
                      "internalType": "address[]",
                      "name": "value",
                      "type": "address[]"
                    }
                  ],
                  "internalType": "struct EventUtils.AddressArrayKeyValue[]",
                  "name": "arrayItems",
                  "type": "tuple[]"
                }
              ],
              "internalType": "struct EventUtils.AddressItems",
              "name": "addressItems",
              "type": "tuple"
            },
            {
              "components": [
                {
                  "components": [
                    {
                      "internalType": "string",
                      "name": "key",
                      "type": "string"
                    },
                    {
                      "internalType": "uint256",
                      "name": "value",
                      "type": "uint256"
                    }
                  ],
                  "internalType": "struct EventUtils.UintKeyValue[]",
                  "name": "items",
                  "type": "tuple[]"
                },
                {
                  "components": [
                    {
                      "internalType": "string",
                      "name": "key",
                      "type": "string"
                    },
                    {
                      "internalType": "uint256[]",
                      "name": "value",
                      "type": "uint256[]"
                    }
                  ],
                  "internalType": "struct EventUtils.UintArrayKeyValue[]",
                  "name": "arrayItems",
                  "type": "tuple[]"
                }
              ],
              "internalType": "struct EventUtils.UintItems",
              "name": "uintItems",
              "type": "tuple"
            },
            {
              "components": [
                {
                  "components": [
                    {
                      "internalType": "string",
                      "name": "key",
                      "type": "string"
                    },
                    {
                      "internalType": "int256",
                      "name": "value",
                      "type": "int256"
                    }
                  ],
                  "internalType": "struct EventUtils.IntKeyValue[]",
                  "name": "items",
                  "type": "tuple[]"
                },
                {
                  "components": [
                    {
                      "internalType": "string",
                      "name": "key",
                      "type": "string"
                    },
                    {
                      "internalType": "int256[]",
                      "name": "value",
                      "type": "int256[]"
                    }
                  ],
                  "internalType": "struct EventUtils.IntArrayKeyValue[]",
                  "name": "arrayItems",
                  "type": "tuple[]"
                }
              ],
              "internalType": "struct EventUtils.IntItems",
              "name": "intItems",
              "type": "tuple"
            },
            {
              "components": [
                {
                  "components": [
                    {
                      "internalType": "string",
                      "name": "key",
                      "type": "string"
                    },
                    {
                      "internalType": "bool",
                      "name": "value",
                      "type": "bool"
                    }
                  ],
                  "internalType": "struct EventUtils.BoolKeyValue[]",
                  "name": "items",
                  "type": "tuple[]"
                },
                {
                  "components": [
                    {
                      "internalType": "string",
                      "name": "key",
                      "type": "string"
                    },
                    {
                      "internalType": "bool[]",
                      "name": "value",
                      "type": "bool[]"
                    }
                  ],
                  "internalType": "struct EventUtils.BoolArrayKeyValue[]",
                  "name": "arrayItems",
                  "type": "tuple[]"
                }
              ],
              "internalType": "struct EventUtils.BoolItems",
              "name": "boolItems",
              "type": "tuple"
            },
            {
              "components": [
                {
                  "components": [
                    {
                      "internalType": "string",
                      "name": "key",
                      "type": "string"
                    },
                    {
                      "internalType": "bytes32",
                      "name": "value",
                      "type": "bytes32"
                    }
                  ],
                  "internalType": "struct EventUtils.Bytes32KeyValue[]",
                  "name": "items",
                  "type": "tuple[]"
                },
                {
                  "components": [
                    {
                      "internalType": "string",
                      "name": "key",
                      "type": "string"
                    },
                    {
                      "internalType": "bytes32[]",
                      "name": "value",
                      "type": "bytes32[]"
                    }
                  ],
                  "internalType": "struct EventUtils.Bytes32ArrayKeyValue[]",
                  "name": "arrayItems",
                  "type": "tuple[]"
                }
              ],
              "internalType": "struct EventUtils.Bytes32Items",
              "name": "bytes32Items",
              "type": "tuple"
            },
            {
              "components": [
                {
                  "components": [
                    {
                      "internalType": "string",
                      "name": "key",
                      "type": "string"
                    },
                    {
                      "internalType": "bytes",
                      "name": "value",
                      "type": "bytes"
                    }
                  ],
                  "internalType": "struct EventUtils.BytesKeyValue[]",
                  "name": "items",
                  "type": "tuple[]"
                },
                {
                  "components": [
                    {
                      "internalType": "string",
                      "name": "key",
                      "type": "string"
                    },
                    {
                      "internalType": "bytes[]",
                      "name": "value",
                      "type": "bytes[]"
                    }
                  ],
                  "internalType": "struct EventUtils.BytesArrayKeyValue[]",
                  "name": "arrayItems",
                  "type": "tuple[]"
                }
              ],
              "internalType": "struct EventUtils.BytesItems",
              "name": "bytesItems",
              "type": "tuple"
            },
            {
              "components": [
                {
                  "components": [
                    {
                      "internalType": "string",
                      "name": "key",
                      "type": "string"
                    },
                    {
                      "internalType": "string",
                      "name": "value",
                      "type": "string"
                    }
                  ],
                  "internalType": "struct EventUtils.StringKeyValue[]",
                  "name": "items",
                  "type": "tuple[]"
                },
                {
                  "components": [
                    {
                      "internalType": "string",
                      "name": "key",
                      "type": "string"
                    },
                    {
                      "internalType": "string[]",
                      "name": "value",
                      "type": "string[]"
                    }
                  ],
                  "internalType": "struct EventUtils.StringArrayKeyValue[]",
                  "name": "arrayItems",
                  "type": "tuple[]"
                }
              ],
              "internalType": "struct EventUtils.StringItems",
              "name": "stringItems",
              "type": "tuple"
            }
          ],
          "internalType": "struct EventUtils.EventLogData",
          "name": "",
          "type": "tuple"
        }
      ],
      "name": "afterDepositCancellation",
      "outputs": [],
      "stateMutability": "pure",
      "type": "function"
    },
    {
      "inputs": [
        {
          "internalType": "bytes32",
          "name": "",
          "type": "bytes32"
        },
        {
          "components": [
            {
              "components": [
                {
                  "internalType": "address",
                  "name": "account",
                  "type": "address"
                },
                {
                  "internalType": "address",
                  "name": "receiver",
                  "type": "address"
                },
                {
                  "internalType": "address",
                  "name": "callbackContract",
                  "type": "address"
                },
                {
                  "internalType": "address",
                  "name": "uiFeeReceiver",
                  "type": "address"
                },
                {
                  "internalType": "address",
                  "name": "market",
                  "type": "address"
                },
                {
                  "internalType": "address",
                  "name": "initialLongToken",
                  "type": "address"
                },
                {
                  "internalType": "address",
                  "name": "initialShortToken",
                  "type": "address"
                },
                {
                  "internalType": "address[]",
                  "name": "longTokenSwapPath",
                  "type": "address[]"
                },
                {
                  "internalType": "address[]",
                  "name": "shortTokenSwapPath",
                  "type": "address[]"
                }
              ],
              "internalType": "struct Deposit.Addresses",
              "name": "addresses",
              "type": "tuple"
            },
            {
              "components": [
                {
                  "internalType": "uint256",
                  "name": "initialLongTokenAmount",
                  "type": "uint256"
                },
                {
                  "internalType": "uint256",
                  "name": "initialShortTokenAmount",
                  "type": "uint256"
                },
                {
                  "internalType": "uint256",
                  "name": "minMarketTokens",
                  "type": "uint256"
                },
                {
                  "internalType": "uint256",
                  "name": "updatedAtBlock",
                  "type": "uint256"
                },
                {
                  "internalType": "uint256",
                  "name": "executionFee",
                  "type": "uint256"
                },
                {
                  "internalType": "uint256",
                  "name": "callbackGasLimit",
                  "type": "uint256"
                }
              ],
              "internalType": "struct Deposit.Numbers",
              "name": "numbers",
              "type": "tuple"
            },
            {
              "components": [
                {
                  "internalType": "bool",
                  "name": "shouldUnwrapNativeToken",
                  "type": "bool"
                }
              ],
              "internalType": "struct Deposit.Flags",
              "name": "flags",
              "type": "tuple"
            }
          ],
          "internalType": "struct Deposit.Props",
          "name": "",
          "type": "tuple"
        },
        {
          "components": [
            {
              "components": [
                {
                  "components": [
                    {
                      "internalType": "string",
                      "name": "key",
                      "type": "string"
                    },
                    {
                      "internalType": "address",
                      "name": "value",
                      "type": "address"
                    }
                  ],
                  "internalType": "struct EventUtils.AddressKeyValue[]",
                  "name": "items",
                  "type": "tuple[]"
                },
                {
                  "components": [
                    {
                      "internalType": "string",
                      "name": "key",
                      "type": "string"
                    },
                    {
                      "internalType": "address[]",
                      "name": "value",
                      "type": "address[]"
                    }
                  ],
                  "internalType": "struct EventUtils.AddressArrayKeyValue[]",
                  "name": "arrayItems",
                  "type": "tuple[]"
                }
              ],
              "internalType": "struct EventUtils.AddressItems",
              "name": "addressItems",
              "type": "tuple"
            },
            {
              "components": [
                {
                  "components": [
                    {
                      "internalType": "string",
                      "name": "key",
                      "type": "string"
                    },
                    {
                      "internalType": "uint256",
                      "name": "value",
                      "type": "uint256"
                    }
                  ],
                  "internalType": "struct EventUtils.UintKeyValue[]",
                  "name": "items",
                  "type": "tuple[]"
                },
                {
                  "components": [
                    {
                      "internalType": "string",
                      "name": "key",
                      "type": "string"
                    },
                    {
                      "internalType": "uint256[]",
                      "name": "value",
                      "type": "uint256[]"
                    }
                  ],
                  "internalType": "struct EventUtils.UintArrayKeyValue[]",
                  "name": "arrayItems",
                  "type": "tuple[]"
                }
              ],
              "internalType": "struct EventUtils.UintItems",
              "name": "uintItems",
              "type": "tuple"
            },
            {
              "components": [
                {
                  "components": [
                    {
                      "internalType": "string",
                      "name": "key",
                      "type": "string"
                    },
                    {
                      "internalType": "int256",
                      "name": "value",
                      "type": "int256"
                    }
                  ],
                  "internalType": "struct EventUtils.IntKeyValue[]",
                  "name": "items",
                  "type": "tuple[]"
                },
                {
                  "components": [
                    {
                      "internalType": "string",
                      "name": "key",
                      "type": "string"
                    },
                    {
                      "internalType": "int256[]",
                      "name": "value",
                      "type": "int256[]"
                    }
                  ],
                  "internalType": "struct EventUtils.IntArrayKeyValue[]",
                  "name": "arrayItems",
                  "type": "tuple[]"
                }
              ],
              "internalType": "struct EventUtils.IntItems",
              "name": "intItems",
              "type": "tuple"
            },
            {
              "components": [
                {
                  "components": [
                    {
                      "internalType": "string",
                      "name": "key",
                      "type": "string"
                    },
                    {
                      "internalType": "bool",
                      "name": "value",
                      "type": "bool"
                    }
                  ],
                  "internalType": "struct EventUtils.BoolKeyValue[]",
                  "name": "items",
                  "type": "tuple[]"
                },
                {
                  "components": [
                    {
                      "internalType": "string",
                      "name": "key",
                      "type": "string"
                    },
                    {
                      "internalType": "bool[]",
                      "name": "value",
                      "type": "bool[]"
                    }
                  ],
                  "internalType": "struct EventUtils.BoolArrayKeyValue[]",
                  "name": "arrayItems",
                  "type": "tuple[]"
                }
              ],
              "internalType": "struct EventUtils.BoolItems",
              "name": "boolItems",
              "type": "tuple"
            },
            {
              "components": [
                {
                  "components": [
                    {
                      "internalType": "string",
                      "name": "key",
                      "type": "string"
                    },
                    {
                      "internalType": "bytes32",
                      "name": "value",
                      "type": "bytes32"
                    }
                  ],
                  "internalType": "struct EventUtils.Bytes32KeyValue[]",
                  "name": "items",
                  "type": "tuple[]"
                },
                {
                  "components": [
                    {
                      "internalType": "string",
                      "name": "key",
                      "type": "string"
                    },
                    {
                      "internalType": "bytes32[]",
                      "name": "value",
                      "type": "bytes32[]"
                    }
                  ],
                  "internalType": "struct EventUtils.Bytes32ArrayKeyValue[]",
                  "name": "arrayItems",
                  "type": "tuple[]"
                }
              ],
              "internalType": "struct EventUtils.Bytes32Items",
              "name": "bytes32Items",
              "type": "tuple"
            },
            {
              "components": [
                {
                  "components": [
                    {
                      "internalType": "string",
                      "name": "key",
                      "type": "string"
                    },
                    {
                      "internalType": "bytes",
                      "name": "value",
                      "type": "bytes"
                    }
                  ],
                  "internalType": "struct EventUtils.BytesKeyValue[]",
                  "name": "items",
                  "type": "tuple[]"
                },
                {
                  "components": [
                    {
                      "internalType": "string",
                      "name": "key",
                      "type": "string"
                    },
                    {
                      "internalType": "bytes[]",
                      "name": "value",
                      "type": "bytes[]"
                    }
                  ],
                  "internalType": "struct EventUtils.BytesArrayKeyValue[]",
                  "name": "arrayItems",
                  "type": "tuple[]"
                }
              ],
              "internalType": "struct EventUtils.BytesItems",
              "name": "bytesItems",
              "type": "tuple"
            },
            {
              "components": [
                {
                  "components": [
                    {
                      "internalType": "string",
                      "name": "key",
                      "type": "string"
                    },
                    {
                      "internalType": "string",
                      "name": "value",
                      "type": "string"
                    }
                  ],
                  "internalType": "struct EventUtils.StringKeyValue[]",
                  "name": "items",
                  "type": "tuple[]"
                },
                {
                  "components": [
                    {
                      "internalType": "string",
                      "name": "key",
                      "type": "string"
                    },
                    {
                      "internalType": "string[]",
                      "name": "value",
                      "type": "string[]"
                    }
                  ],
                  "internalType": "struct EventUtils.StringArrayKeyValue[]",
                  "name": "arrayItems",
                  "type": "tuple[]"
                }
              ],
              "internalType": "struct EventUtils.StringItems",
              "name": "stringItems",
              "type": "tuple"
            }
          ],
          "internalType": "struct EventUtils.EventLogData",
          "name": "",
          "type": "tuple"
        }
      ],
      "name": "afterDepositExecution",
      "outputs": [],
      "stateMutability": "pure",
      "type": "function"
    }
  ],
  "bytecode": "0x6080604052348015600f57600080fd5b506113798061001f6000396000f3fe608060405234801561001057600080fd5b50600436106100365760003560e01c80634ef189b81461003b578063a02ba64d1461003b575b600080fd5b61004e61004936600461119f565b610050565b005b60405162461bcd60e51b815260206004820152600560248201526432b93937b960d91b604482015260640160405180910390fd5b634e487b7160e01b600052604160045260246000fd5b604080519081016001600160401b03811182821017156100bc576100bc610084565b60405290565b60405160e081016001600160401b03811182821017156100bc576100bc610084565b604051606081016001600160401b03811182821017156100bc576100bc610084565b60405161012081016001600160401b03811182821017156100bc576100bc610084565b604051601f8201601f191681016001600160401b038111828210171561015157610151610084565b604052919050565b80356001600160a01b038116811461017057600080fd5b919050565b60006001600160401b0382111561018e5761018e610084565b5060051b60200190565b600082601f8301126101a957600080fd5b81356101bc6101b782610175565b610129565b8082825260208201915060208360051b8601019250858311156101de57600080fd5b602085015b83811015610202576101f481610159565b8352602092830192016101e3565b5095945050505050565b600060c0828403121561021e57600080fd5b60405160c081016001600160401b038111828210171561024057610240610084565b604090815283358252602080850135908301528381013590820152606080840135908201526080808401359082015260a0928301359281019290925250919050565b8035801515811461017057600080fd5b6000602082840312156102a457600080fd5b604051602081016001600160401b03811182821017156102c6576102c6610084565b6040529050806102d583610282565b905292915050565b600082601f8301126102ee57600080fd5b8135602083016000806001600160401b0384111561030e5761030e610084565b50601f8301601f191660200161032381610129565b91505082815285838301111561033857600080fd5b82826020830137600092810160200192909252509392505050565b600082601f83011261036457600080fd5b81356103726101b782610175565b8082825260208201915060208360051b86010192508583111561039457600080fd5b602085015b838110156102025780356001600160401b038111156103b757600080fd5b86016040818903601f190112156103cd57600080fd5b6103d561009a565b60208201356001600160401b038111156103ee57600080fd5b6103fd8a6020838601016102dd565b82525060408201356001600160401b0381111561041957600080fd5b6104288a602083860101610198565b6020830152508085525050602083019250602081019050610399565b60006040828403121561045657600080fd5b61045e61009a565b905081356001600160401b0381111561047657600080fd5b8201601f8101841361048757600080fd5b80356104956101b782610175565b8082825260208201915060208360051b8501019250868311156104b757600080fd5b602084015b8381101561054a5780356001600160401b038111156104da57600080fd5b85016040818a03601f190112156104f057600080fd5b6104f861009a565b60208201356001600160401b0381111561051157600080fd5b6105208b6020838601016102dd565b82525061052f60408301610159565b602082015280855250506020830192506020810190506104bc565b50845250505060208201356001600160401b0381111561056957600080fd5b61057584828501610353565b60208301525092915050565b600082601f83011261059257600080fd5b81356105a06101b782610175565b8082825260208201915060208360051b8601019250858311156105c257600080fd5b602085015b838110156102025780356001600160401b038111156105e557600080fd5b86016040818903601f190112156105fb57600080fd5b61060361009a565b60208201356001600160401b0381111561061c57600080fd5b61062b8a6020838601016102dd565b82525060408201356001600160401b0381111561064757600080fd5b60208184010192505088601f83011261065f57600080fd5b813561066d6101b782610175565b8082825260208201915060208360051b86010192508b83111561068f57600080fd5b6020850194505b828510156106b1578435825260209485019490910190610696565b80602085015250505080855250506020830192506020810190506105c7565b6000604082840312156106e257600080fd5b6106ea61009a565b905081356001600160401b0381111561070257600080fd5b8201601f8101841361071357600080fd5b80356107216101b782610175565b8082825260208201915060208360051b85010192508683111561074357600080fd5b602084015b838110156107cc5780356001600160401b0381111561076657600080fd5b85016040818a03601f1901121561077c57600080fd5b61078461009a565b60208201356001600160401b0381111561079d57600080fd5b6107ac8b6020838601016102dd565b825250604091909101356020808301919091529084529283019201610748565b50845250505060208201356001600160401b038111156107eb57600080fd5b61057584828501610581565b60006040828403121561080957600080fd5b61081161009a565b905081356001600160401b0381111561082957600080fd5b8201601f8101841361083a57600080fd5b80356108486101b782610175565b8082825260208201915060208360051b85010192508683111561086a57600080fd5b602084015b838110156107cc5780356001600160401b0381111561088d57600080fd5b85016040818a03601f190112156108a357600080fd5b6108ab61009a565b60208201356001600160401b038111156108c457600080fd5b6108d38b6020838601016102dd565b82525060409190910135602080830191909152908452928301920161086f565b600082601f83011261090457600080fd5b81356109126101b782610175565b8082825260208201915060208360051b86010192508583111561093457600080fd5b602085015b838110156102025780356001600160401b0381111561095757600080fd5b86016040818903601f1901121561096d57600080fd5b61097561009a565b60208201356001600160401b0381111561098e57600080fd5b61099d8a6020838601016102dd565b82525060408201356001600160401b038111156109b957600080fd5b60208184010192505088601f8301126109d157600080fd5b81356109df6101b782610175565b8082825260208201915060208360051b86010192508b831115610a0157600080fd5b6020850194505b82851015610a2a57610a1985610282565b825260209485019490910190610a08565b8060208501525050508085525050602083019250602081019050610939565b600060408284031215610a5b57600080fd5b610a6361009a565b905081356001600160401b03811115610a7b57600080fd5b8201601f81018413610a8c57600080fd5b8035610a9a6101b782610175565b8082825260208201915060208360051b850101925086831115610abc57600080fd5b602084015b83811015610b4f5780356001600160401b03811115610adf57600080fd5b85016040818a03601f19011215610af557600080fd5b610afd61009a565b60208201356001600160401b03811115610b1657600080fd5b610b258b6020838601016102dd565b825250610b3460408301610282565b60208201528085525050602083019250602081019050610ac1565b50845250505060208201356001600160401b03811115610b6e57600080fd5b610575848285016108f3565b600060408284031215610b8c57600080fd5b610b9461009a565b905081356001600160401b03811115610bac57600080fd5b8201601f81018413610bbd57600080fd5b8035610bcb6101b782610175565b8082825260208201915060208360051b850101925086831115610bed57600080fd5b602084015b838110156107cc5780356001600160401b03811115610c1057600080fd5b85016040818a03601f19011215610c2657600080fd5b610c2e61009a565b60208201356001600160401b03811115610c4757600080fd5b610c568b6020838601016102dd565b825250604091909101356020808301919091529084529283019201610bf2565b600082601f830112610c8757600080fd5b8135610c956101b782610175565b8082825260208201915060208360051b860101925085831115610cb757600080fd5b602085015b838110156102025780356001600160401b03811115610cda57600080fd5b86016040818903601f19011215610cf057600080fd5b610cf861009a565b60208201356001600160401b03811115610d1157600080fd5b610d208a6020838601016102dd565b82525060408201356001600160401b03811115610d3c57600080fd5b60208184010192505088601f830112610d5457600080fd5b8135610d626101b782610175565b8082825260208201915060208360051b86010192508b831115610d8457600080fd5b602085015b83811015610dc55780356001600160401b03811115610da757600080fd5b610db68e6020838a01016102dd565b84525060209283019201610d89565b508060208501525050508085525050602083019250602081019050610cbc565b600060408284031215610df757600080fd5b610dff61009a565b905081356001600160401b03811115610e1757600080fd5b8201601f81018413610e2857600080fd5b8035610e366101b782610175565b8082825260208201915060208360051b850101925086831115610e5857600080fd5b602084015b83811015610f085780356001600160401b03811115610e7b57600080fd5b85016040818a03601f19011215610e9157600080fd5b610e9961009a565b60208201356001600160401b03811115610eb257600080fd5b610ec18b6020838601016102dd565b82525060408201356001600160401b03811115610edd57600080fd5b610eec8b6020838601016102dd565b6020830152508085525050602083019250602081019050610e5d565b50845250505060208201356001600160401b03811115610f2757600080fd5b61057584828501610c76565b600060408284031215610f4557600080fd5b610f4d61009a565b905081356001600160401b03811115610f6557600080fd5b8201601f81018413610f7657600080fd5b8035610f846101b782610175565b8082825260208201915060208360051b850101925086831115610fa657600080fd5b602084015b83811015610f085780356001600160401b03811115610fc957600080fd5b85016040818a03601f19011215610fdf57600080fd5b610fe761009a565b60208201356001600160401b0381111561100057600080fd5b61100f8b6020838601016102dd565b82525060408201356001600160401b0381111561102b57600080fd5b61103a8b6020838601016102dd565b6020830152508085525050602083019250602081019050610fab565b600060e0828403121561106857600080fd5b6110706100c2565b905081356001600160401b0381111561108857600080fd5b61109484828501610444565b82525060208201356001600160401b038111156110b057600080fd5b6110bc848285016106d0565b60208301525060408201356001600160401b038111156110db57600080fd5b6110e7848285016107f7565b60408301525060608201356001600160401b0381111561110657600080fd5b61111284828501610a49565b60608301525060808201356001600160401b0381111561113157600080fd5b61113d84828501610b7a565b60808301525060a08201356001600160401b0381111561115c57600080fd5b61116884828501610de5565b60a08301525060c08201356001600160401b0381111561118757600080fd5b61119384828501610f33565b60c08301525092915050565b6000806000606084860312156111b457600080fd5b8335925060208401356001600160401b038111156111d157600080fd5b840161010081870312156111e457600080fd5b6111ec6100e4565b81356001600160401b0381111561120257600080fd5b8201610120818903121561121557600080fd5b61121d610106565b61122682610159565b815261123460208301610159565b602082015261124560408301610159565b604082015261125660608301610159565b606082015261126760808301610159565b608082015261127860a08301610159565b60a082015261128960c08301610159565b60c082015260e08201356001600160401b038111156112a757600080fd5b6112b38a828501610198565b60e0830152506101008201356001600160401b038111156112d357600080fd5b6112df8a828501610198565b610100830152508252506112f6876020840161020c565b60208201526113088760e08401610292565b60408281019190915290935085013590506001600160401b0381111561132d57600080fd5b61133986828701611056565b915050925092509256fea2646970667358221220a2df1a0bce6e4de0e30f17e240d254c900a1c9d965f318a227563587605d08cd64736f6c634300081a0033",
  "linkReferences": {},
  "deployedLinkReferences": {}
}