{
  "_format": "hh-sol-artifact-1",
  "contractName": "Token",
  "sourceName": "contracts/tokens/Token.sol",
  "abi": [
    {
      "inputs": [],
      "stateMutability": "nonpayable",
      "type": "constructor"
    },
    {
      "anonymous": false,
      "inputs": [
        {
          "indexed": true,
          "internalType": "address",
          "name": "owner",
          "type": "address"
        },
        {
          "indexed": true,
          "internalType": "address",
          "name": "spender",
          "type": "address"
        },
        {
          "indexed": false,
          "internalType": "uint256",
          "name": "value",
          "type": "uint256"
        }
      ],
      "name": "Approval",
      "type": "event"
    },
    {
      "anonymous": false,
      "inputs": [
        {
          "indexed": true,
          "internalType": "address",
          "name": "from",
          "type": "address"
        },
        {
          "indexed": true,
          "internalType": "address",
          "name": "to",
          "type": "address"
        },
        {
          "indexed": false,
          "internalType": "uint256",
          "name": "value",
          "type": "uint256"
        }
      ],
      "name": "Transfer",
      "type": "event"
    },
    {
      "inputs": [
        {
          "internalType": "address",
          "name": "owner",
          "type": "address"
        },
        {
          "internalType": "address",
          "name": "spender",
          "type": "address"
        }
      ],
      "name": "allowance",
      "outputs": [
        {
          "internalType": "uint256",
          "name": "",
          "type": "uint256"
        }
      ],
      "stateMutability": "view",
      "type": "function"
    },
    {
      "inputs": [
        {
          "internalType": "address",
          "name": "spender",
          "type": "address"
        },
        {
          "internalType": "uint256",
          "name": "amount",
          "type": "uint256"
        }
      ],
      "name": "approve",
      "outputs": [
        {
          "internalType": "bool",
          "name": "",
          "type": "bool"
        }
      ],
      "stateMutability": "nonpayable",
      "type": "function"
    },
    {
      "inputs": [
        {
          "internalType": "address",
          "name": "account",
          "type": "address"
        }
      ],
      "name": "balanceOf",
      "outputs": [
        {
          "internalType": "uint256",
          "name": "",
          "type": "uint256"
        }
      ],
      "stateMutability": "view",
      "type": "function"
    },
    {
      "inputs": [],
      "name": "decimals",
      "outputs": [
        {
          "internalType": "uint8",
          "name": "",
          "type": "uint8"
        }
      ],
      "stateMutability": "view",
      "type": "function"
    },
    {
      "inputs": [
        {
          "internalType": "address",
          "name": "spender",
          "type": "address"
        },
        {
          "internalType": "uint256",
          "name": "subtractedValue",
          "type": "uint256"
        }
      ],
      "name": "decreaseAllowance",
      "outputs": [
        {
          "internalType": "bool",
          "name": "",
          "type": "bool"
        }
      ],
      "stateMutability": "nonpayable",
      "type": "function"
    },
    {
      "inputs": [],
      "name": "deposit",
      "outputs": [],
      "stateMutability": "payable",
      "type": "function"
    },
    {
      "inputs": [
        {
          "internalType": "address",
          "name": "spender",
          "type": "address"
        },
        {
          "internalType": "uint256",
          "name": "addedValue",
          "type": "uint256"
        }
      ],
      "name": "increaseAllowance",
      "outputs": [
        {
          "internalType": "bool",
          "name": "",
          "type": "bool"
        }
      ],
      "stateMutability": "nonpayable",
      "type": "function"
    },
    {
      "inputs": [
        {
          "internalType": "address",
          "name": "account",
          "type": "address"
        },
        {
          "internalType": "uint256",
          "name": "amount",
          "type": "uint256"
        }
      ],
      "name": "mint",
      "outputs": [],
      "stateMutability": "nonpayable",
      "type": "function"
    },
    {
      "inputs": [],
      "name": "name",
      "outputs": [
        {
          "internalType": "string",
          "name": "",
          "type": "string"
        }
      ],
      "stateMutability": "view",
      "type": "function"
    },
    {
      "inputs": [],
      "name": "symbol",
      "outputs": [
        {
          "internalType": "string",
          "name": "",
          "type": "string"
        }
      ],
      "stateMutability": "view",
      "type": "function"
    },
    {
      "inputs": [],
      "name": "totalSupply",
      "outputs": [
        {
          "internalType": "uint256",
          "name": "",
          "type": "uint256"
        }
      ],
      "stateMutability": "view",
      "type": "function"
    },
    {
      "inputs": [
        {
          "internalType": "address",
          "name": "recipient",
          "type": "address"
        },
        {
          "internalType": "uint256",
          "name": "amount",
          "type": "uint256"
        }
      ],
      "name": "transfer",
      "outputs": [
        {
          "internalType": "bool",
          "name": "",
          "type": "bool"
        }
      ],
      "stateMutability": "nonpayable",
      "type": "function"
    },
    {
      "inputs": [
        {
          "internalType": "address",
          "name": "sender",
          "type": "address"
        },
        {
          "internalType": "address",
          "name": "recipient",
          "type": "address"
        },
        {
          "internalType": "uint256",
          "name": "amount",
          "type": "uint256"
        }
      ],
      "name": "transferFrom",
      "outputs": [
        {
          "internalType": "bool",
          "name": "",
          "type": "bool"
        }
      ],
      "stateMutability": "nonpayable",
      "type": "function"
    },
    {
      "inputs": [
        {
          "internalType": "uint256",
          "name": "amount",
          "type": "uint256"
        }
      ],
      "name": "withdraw",
      "outputs": [],
      "stateMutability": "nonpayable",
      "type": "function"
    },
    {
      "inputs": [
        {
          "internalType": "address",
          "name": "token",
          "type": "address"
        },
        {
          "internalType": "address",
          "name": "account",
          "type": "address"
        },
        {
          "internalType": "uint256",
          "name": "amount",
          "type": "uint256"
        }
      ],
      "name": "withdrawToken",
      "outputs": [],
      "stateMutability": "nonpayable",
      "type": "function"
    }
  ],
  "bytecode": "0x608060405234801561001057600080fd5b506040805180820190915260058152642a37b5b2b760d91b602082015260039061003a9082610116565b506040805180820190915260058152642a27a5a2a760d91b60208201526004906100649082610116565b506005805460ff191660121790556101d4565b634e487b7160e01b600052604160045260246000fd5b600181811c908216806100a157607f821691505b6020821081036100c157634e487b7160e01b600052602260045260246000fd5b50919050565b601f82111561011157806000526020600020601f840160051c810160208510156100ee5750805b601f840160051c820191505b8181101561010e57600081556001016100fa565b50505b505050565b81516001600160401b0381111561012f5761012f610077565b6101438161013d845461008d565b846100c7565b6020601f821160018114610177576000831561015f5750848201515b600019600385901b1c1916600184901b17845561010e565b600084815260208120601f198516915b828110156101a75787850151825560209485019460019092019101610187565b50848210156101c55786840151600019600387901b60f8161c191681555b50505050600190811b01905550565b610d0e806101e36000396000f3fe6080604052600436106100b85760003560e01c806301e33667146100bd57806306fdde03146100df578063095ea7b31461010a57806318160ddd1461013a57806323b872dd146101595780632e1a7d4d14610179578063313ce5671461019957806339509351146101bb57806340c10f19146101db57806370a08231146101fb57806395d89b4114610231578063a457c2d714610246578063a9059cbb14610266578063d0e30db014610286578063dd62ed3e1461028e575b600080fd5b3480156100c957600080fd5b506100dd6100d8366004610a6f565b6102d4565b005b3480156100eb57600080fd5b506100f461034d565b6040516101019190610aac565b60405180910390f35b34801561011657600080fd5b5061012a610125366004610afa565b6103df565b6040519015158152602001610101565b34801561014657600080fd5b506002545b604051908152602001610101565b34801561016557600080fd5b5061012a610174366004610a6f565b6103f6565b34801561018557600080fd5b506100dd610194366004610b24565b61045f565b3480156101a557600080fd5b5060055460405160ff9091168152602001610101565b3480156101c757600080fd5b5061012a6101d6366004610afa565b6104fc565b3480156101e757600080fd5b506100dd6101f6366004610afa565b610532565b34801561020757600080fd5b5061014b610216366004610b3d565b6001600160a01b031660009081526020819052604090205490565b34801561023d57600080fd5b506100f461053c565b34801561025257600080fd5b5061012a610261366004610afa565b61054b565b34801561027257600080fd5b5061012a610281366004610afa565b61059a565b6100dd6105a7565b34801561029a57600080fd5b5061014b6102a9366004610b58565b6001600160a01b03918216600090815260016020908152604080832093909416825291909152205490565b60405163a9059cbb60e01b81526001600160a01b0383811660048301526024820183905284169063a9059cbb906044016020604051808303816000875af1158015610323573d6000803e3d6000fd5b505050506040513d601f19601f820116820180604052508101906103479190610b8b565b50505050565b60606003805461035c90610bad565b80601f016020809104026020016040519081016040528092919081815260200182805461038890610bad565b80156103d55780601f106103aa576101008083540402835291602001916103d5565b820191906000526020600020905b8154815290600101906020018083116103b857829003601f168201915b5050505050905090565b60006103ec3384846105b3565b5060015b92915050565b60006104038484846106d8565b610455843361045085604051806060016040528060288152602001610c6c602891396001600160a01b038a1660009081526001602090815260408083203384529091529020549190610849565b6105b3565b5060019392505050565b336000908152602081905260409020548111156104c15760405162461bcd60e51b815260206004820152601b60248201527a546f6b656e3a20696e73756666696369656e742062616c616e636560281b60448201526064015b60405180910390fd5b6104cb3382610875565b604051339082156108fc029083906000818181858888f193505050501580156104f8573d6000803e3d6000fd5b5050565b3360008181526001602090815260408083206001600160a01b038716845290915281205490916103ec918590610450908661096f565b6104f88282610982565b60606004805461035c90610bad565b60006103ec338461045085604051806060016040528060258152602001610cb4602591393360009081526001602090815260408083206001600160a01b038d1684529091529020549190610849565b60006103ec3384846106d8565b6105b13334610982565b565b6001600160a01b0383166106155760405162461bcd60e51b8152602060048201526024808201527f45524332303a20617070726f76652066726f6d20746865207a65726f206164646044820152637265737360e01b60648201526084016104b8565b6001600160a01b0382166106765760405162461bcd60e51b815260206004820152602260248201527f45524332303a20617070726f766520746f20746865207a65726f206164647265604482015261737360f01b60648201526084016104b8565b6001600160a01b0383811660008181526001602090815260408083209487168084529482529182902085905590518481527f8c5be1e5ebec7d5bd14f71427d1e84f3dd0314c0f7b2291e5b200ac8c7c3b92591015b60405180910390a3505050565b6001600160a01b03831661073c5760405162461bcd60e51b815260206004820152602560248201527f45524332303a207472616e736665722066726f6d20746865207a65726f206164604482015264647265737360d81b60648201526084016104b8565b6001600160a01b03821661079e5760405162461bcd60e51b815260206004820152602360248201527f45524332303a207472616e7366657220746f20746865207a65726f206164647260448201526265737360e81b60648201526084016104b8565b6107db81604051806060016040528060268152602001610c46602691396001600160a01b0386166000908152602081905260409020549190610849565b6001600160a01b03808516600090815260208190526040808220939093559084168152205461080a908261096f565b6001600160a01b03838116600081815260208181526040918290209490945551848152909291861691600080516020610c9483398151915291016106cb565b6000818484111561086d5760405162461bcd60e51b81526004016104b89190610aac565b505050900390565b6001600160a01b0382166108d55760405162461bcd60e51b815260206004820152602160248201527f45524332303a206275726e2066726f6d20746865207a65726f206164647265736044820152607360f81b60648201526084016104b8565b61091281604051806060016040528060228152602001610c24602291396001600160a01b0385166000908152602081905260409020549190610849565b6001600160a01b0383166000908152602081905260409020556002546109389082610a47565b6002556040518181526000906001600160a01b03841690600080516020610c94833981519152906020015b60405180910390a35050565b600061097b8284610bfd565b9392505050565b6001600160a01b0382166109d85760405162461bcd60e51b815260206004820152601f60248201527f45524332303a206d696e7420746f20746865207a65726f20616464726573730060448201526064016104b8565b6002546109e5908261096f565b6002556001600160a01b038216600090815260208190526040902054610a0b908261096f565b6001600160a01b03831660008181526020818152604080832094909455925184815291929091600080516020610c948339815191529101610963565b600061097b8284610c10565b80356001600160a01b0381168114610a6a57600080fd5b919050565b600080600060608486031215610a8457600080fd5b610a8d84610a53565b9250610a9b60208501610a53565b929592945050506040919091013590565b602081526000825180602084015260005b81811015610ada5760208186018101516040868401015201610abd565b506000604082850101526040601f19601f83011684010191505092915050565b60008060408385031215610b0d57600080fd5b610b1683610a53565b946020939093013593505050565b600060208284031215610b3657600080fd5b5035919050565b600060208284031215610b4f57600080fd5b61097b82610a53565b60008060408385031215610b6b57600080fd5b610b7483610a53565b9150610b8260208401610a53565b90509250929050565b600060208284031215610b9d57600080fd5b8151801515811461097b57600080fd5b600181811c90821680610bc157607f821691505b602082108103610be157634e487b7160e01b600052602260045260246000fd5b50919050565b634e487b7160e01b600052601160045260246000fd5b808201808211156103f0576103f0610be7565b818103818111156103f0576103f0610be756fe45524332303a206275726e20616d6f756e7420657863656564732062616c616e636545524332303a207472616e7366657220616d6f756e7420657863656564732062616c616e636545524332303a207472616e7366657220616d6f756e74206578636565647320616c6c6f77616e6365ddf252ad1be2c89b69c2b068fc378daa952ba7f163c4a11628f55a4df523b3ef45524332303a2064656372656173656420616c6c6f77616e63652062656c6f77207a65726fa264697066735822122005058a5149ffcfe27d6c3977c6c1cac2a3c6a246a3e49ad97949395a8d8eff2864736f6c634300081a0033",
  "linkReferences": {},
  "deployedLinkReferences": {}
}