{
  "_format": "hh-sol-artifact-1",
  "contractName": "Bridge",
  "sourceName": "contracts/tokens/Bridge.sol",
  "abi": [
    {
      "inputs": [
        {
          "internalType": "address",
          "name": "_token",
          "type": "address"
        },
        {
          "internalType": "address",
          "name": "_wToken",
          "type": "address"
        }
      ],
      "stateMutability": "nonpayable",
      "type": "constructor"
    },
    {
      "inputs": [],
      "name": "gov",
      "outputs": [
        {
          "internalType": "address",
          "name": "",
          "type": "address"
        }
      ],
      "stateMutability": "view",
      "type": "function"
    },
    {
      "inputs": [
        {
          "internalType": "address",
          "name": "_gov",
          "type": "address"
        }
      ],
      "name": "setGov",
      "outputs": [],
      "stateMutability": "nonpayable",
      "type": "function"
    },
    {
      "inputs": [],
      "name": "token",
      "outputs": [
        {
          "internalType": "address",
          "name": "",
          "type": "address"
        }
      ],
      "stateMutability": "view",
      "type": "function"
    },
    {
      "inputs": [
        {
          "internalType": "uint256",
          "name": "_amount",
          "type": "uint256"
        },
        {
          "internalType": "address",
          "name": "_receiver",
          "type": "address"
        }
      ],
      "name": "unwrap",
      "outputs": [],
      "stateMutability": "nonpayable",
      "type": "function"
    },
    {
      "inputs": [],
      "name": "wToken",
      "outputs": [
        {
          "internalType": "address",
          "name": "",
          "type": "address"
        }
      ],
      "stateMutability": "view",
      "type": "function"
    },
    {
      "inputs": [
        {
          "internalType": "address",
          "name": "_token",
          "type": "address"
        },
        {
          "internalType": "address",
          "name": "_account",
          "type": "address"
        },
        {
          "internalType": "uint256",
          "name": "_amount",
          "type": "uint256"
        }
      ],
      "name": "withdrawToken",
      "outputs": [],
      "stateMutability": "nonpayable",
      "type": "function"
    },
    {
      "inputs": [
        {
          "internalType": "uint256",
          "name": "_amount",
          "type": "uint256"
        },
        {
          "internalType": "address",
          "name": "_receiver",
          "type": "address"
        }
      ],
      "name": "wrap",
      "outputs": [],
      "stateMutability": "nonpayable",
      "type": "function"
    }
  ],
  "bytecode": "0x6080604052348015600f57600080fd5b506040516107ed3803806107ed833981016040819052602c916087565b6001600081905580546001600160a01b03199081163317909155600280546001600160a01b039485169083161790556003805492909316911617905560b5565b80516001600160a01b0381168114608257600080fd5b919050565b60008060408385031215609957600080fd5b60a083606c565b915060ac60208401606c565b90509250929050565b610729806100c46000396000f3fe608060405234801561001057600080fd5b506004361061006d5760003560e01c806301e33667146100725780630babd8641461008757806312d43a51146100b657806313bac820146100c95780637647691d146100dc578063cfad57a2146100ef578063fc0c546a14610102575b600080fd5b6100856100803660046105a4565b610115565b005b60035461009a906001600160a01b031681565b6040516001600160a01b03909116815260200160405180910390f35b60015461009a906001600160a01b031681565b6100856100d73660046105e1565b610161565b6100856100ea3660046105e1565b6101a6565b6100856100fd36600461060d565b6101dd565b60025461009a906001600160a01b031681565b6001546001600160a01b031633146101485760405162461bcd60e51b815260040161013f9061062f565b60405180910390fd5b61015c6001600160a01b0384168383610229565b505050565b61016961028c565b600254610181906001600160a01b03163330856102e5565b600354610198906001600160a01b03168284610229565b6101a26001600055565b5050565b6101ae61028c565b6003546101c6906001600160a01b03163330856102e5565b600254610198906001600160a01b03168284610229565b6001546001600160a01b031633146102075760405162461bcd60e51b815260040161013f9061062f565b600180546001600160a01b0319166001600160a01b0392909216919091179055565b6040516001600160a01b03831660248201526044810182905261015c90849063a9059cbb60e01b906064015b60408051601f198184030181529190526020810180516001600160e01b03166001600160e01b031990931692909217909152610323565b6002600054036102de5760405162461bcd60e51b815260206004820152601f60248201527f5265656e7472616e637947756172643a207265656e7472616e742063616c6c00604482015260640161013f565b6002600055565b6040516001600160a01b038085166024830152831660448201526064810182905261031d9085906323b872dd60e01b90608401610255565b50505050565b6000610378826040518060400160405280602081526020017f5361666545524332303a206c6f772d6c6576656c2063616c6c206661696c6564815250856001600160a01b03166103f89092919063ffffffff16565b9050805160001480610399575080806020019051810190610399919061065e565b61015c5760405162461bcd60e51b815260206004820152602a60248201527f5361666545524332303a204552433230206f7065726174696f6e20646964206e6044820152691bdd081cdd58d8d9595960b21b606482015260840161013f565b6060610407848460008561040f565b949350505050565b6060824710156104705760405162461bcd60e51b815260206004820152602660248201527f416464726573733a20696e73756666696369656e742062616c616e636520666f6044820152651c8818d85b1b60d21b606482015260840161013f565b600080866001600160a01b0316858760405161048c91906106a4565b60006040518083038185875af1925050503d80600081146104c9576040519150601f19603f3d011682016040523d82523d6000602084013e6104ce565b606091505b50915091506104df878383876104ea565b979650505050505050565b60608315610559578251600003610552576001600160a01b0385163b6105525760405162461bcd60e51b815260206004820152601d60248201527f416464726573733a2063616c6c20746f206e6f6e2d636f6e7472616374000000604482015260640161013f565b5081610407565b610407838381511561056e5781518083602001fd5b8060405162461bcd60e51b815260040161013f91906106c0565b80356001600160a01b038116811461059f57600080fd5b919050565b6000806000606084860312156105b957600080fd5b6105c284610588565b92506105d060208501610588565b929592945050506040919091013590565b600080604083850312156105f457600080fd5b8235915061060460208401610588565b90509250929050565b60006020828403121561061f57600080fd5b61062882610588565b9392505050565b60208082526015908201527423b7bb32b93730b136329d103337b93134b23232b760591b604082015260600190565b60006020828403121561067057600080fd5b8151801515811461062857600080fd5b60005b8381101561069b578181015183820152602001610683565b50506000910152565b600082516106b6818460208701610680565b9190910192915050565b60208152600082518060208401526106df816040850160208701610680565b601f01601f1916919091016040019291505056fea26469706673582212203c6b503b4288fedd1464148a6e7cc9e90fe5adfa3396f4f652bb5932fe142b7464736f6c634300081a0033",
  "linkReferences": {},
  "deployedLinkReferences": {}
}