{
  "_format": "hh-sol-artifact-1",
  "contractName": "KeeperReader",
  "sourceName": "contracts/reader/KeeperReader.sol",
  "abi": [
    {
      "inputs": [
        {
          "internalType": "contract DataStore",
          "name": "dataStore",
          "type": "address"
        },
        {
          "internalType": "uint256",
          "name": "start",
          "type": "uint256"
        },
        {
          "internalType": "uint256",
          "name": "end",
          "type": "uint256"
        }
      ],
      "name": "getOrders",
      "outputs": [
        {
          "components": [
            {
              "components": [
                {
                  "internalType": "address",
                  "name": "account",
                  "type": "address"
                },
                {
                  "internalType": "address",
                  "name": "receiver",
                  "type": "address"
                },
                {
                  "internalType": "address",
                  "name": "callbackContract",
                  "type": "address"
                },
                {
                  "internalType": "address",
                  "name": "uiFeeReceiver",
                  "type": "address"
                },
                {
                  "internalType": "address",
                  "name": "market",
                  "type": "address"
                },
                {
                  "internalType": "address",
                  "name": "initialCollateralToken",
                  "type": "address"
                },
                {
                  "internalType": "address[]",
                  "name": "swapPath",
                  "type": "address[]"
                }
              ],
              "internalType": "struct Order.Addresses",
              "name": "addresses",
              "type": "tuple"
            },
            {
              "components": [
                {
                  "internalType": "enum Order.OrderType",
                  "name": "orderType",
                  "type": "uint8"
                },
                {
                  "internalType": "enum Order.DecreasePositionSwapType",
                  "name": "decreasePositionSwapType",
                  "type": "uint8"
                },
                {
                  "internalType": "uint256",
                  "name": "sizeDeltaUsd",
                  "type": "uint256"
                },
                {
                  "internalType": "uint256",
                  "name": "initialCollateralDeltaAmount",
                  "type": "uint256"
                },
                {
                  "internalType": "uint256",
                  "name": "triggerPrice",
                  "type": "uint256"
                },
                {
                  "internalType": "uint256",
                  "name": "acceptablePrice",
                  "type": "uint256"
                },
                {
                  "internalType": "uint256",
                  "name": "executionFee",
                  "type": "uint256"
                },
                {
                  "internalType": "uint256",
                  "name": "callbackGasLimit",
                  "type": "uint256"
                },
                {
                  "internalType": "uint256",
                  "name": "minOutputAmount",
                  "type": "uint256"
                },
                {
                  "internalType": "uint256",
                  "name": "updatedAtBlock",
                  "type": "uint256"
                }
              ],
              "internalType": "struct Order.Numbers",
              "name": "numbers",
              "type": "tuple"
            },
            {
              "components": [
                {
                  "internalType": "bool",
                  "name": "isLong",
                  "type": "bool"
                },
                {
                  "internalType": "bool",
                  "name": "shouldUnwrapNativeToken",
                  "type": "bool"
                },
                {
                  "internalType": "bool",
                  "name": "isFrozen",
                  "type": "bool"
                }
              ],
              "internalType": "struct Order.Flags",
              "name": "flags",
              "type": "tuple"
            }
          ],
          "internalType": "struct Order.Props[]",
          "name": "",
          "type": "tuple[]"
        }
      ],
      "stateMutability": "view",
      "type": "function"
    },
    {
      "inputs": [
        {
          "internalType": "contract DataStore",
          "name": "dataStore",
          "type": "address"
        },
        {
          "internalType": "contract IReferralStorage",
          "name": "referralStorage",
          "type": "address"
        },
        {
          "components": [
            {
              "components": [
                {
                  "internalType": "uint256",
                  "name": "min",
                  "type": "uint256"
                },
                {
                  "internalType": "uint256",
                  "name": "max",
                  "type": "uint256"
                }
              ],
              "internalType": "struct Price.Props",
              "name": "indexTokenPrice",
              "type": "tuple"
            },
            {
              "components": [
                {
                  "internalType": "uint256",
                  "name": "min",
                  "type": "uint256"
                },
                {
                  "internalType": "uint256",
                  "name": "max",
                  "type": "uint256"
                }
              ],
              "internalType": "struct Price.Props",
              "name": "longTokenPrice",
              "type": "tuple"
            },
            {
              "components": [
                {
                  "internalType": "uint256",
                  "name": "min",
                  "type": "uint256"
                },
                {
                  "internalType": "uint256",
                  "name": "max",
                  "type": "uint256"
                }
              ],
              "internalType": "struct Price.Props",
              "name": "shortTokenPrice",
              "type": "tuple"
            }
          ],
          "internalType": "struct MarketUtils.MarketPrices",
          "name": "marketPrices",
          "type": "tuple"
        },
        {
          "components": [
            {
              "components": [
                {
                  "internalType": "address",
                  "name": "account",
                  "type": "address"
                },
                {
                  "internalType": "address",
                  "name": "market",
                  "type": "address"
                },
                {
                  "internalType": "address",
                  "name": "collateralToken",
                  "type": "address"
                }
              ],
              "internalType": "struct Position.Addresses",
              "name": "addresses",
              "type": "tuple"
            },
            {
              "components": [
                {
                  "internalType": "uint256",
                  "name": "sizeInUsd",
                  "type": "uint256"
                },
                {
                  "internalType": "uint256",
                  "name": "sizeInTokens",
                  "type": "uint256"
                },
                {
                  "internalType": "uint256",
                  "name": "collateralAmount",
                  "type": "uint256"
                },
                {
                  "internalType": "uint256",
                  "name": "borrowingFactor",
                  "type": "uint256"
                },
                {
                  "internalType": "uint256",
                  "name": "fundingFeeAmountPerSize",
                  "type": "uint256"
                },
                {
                  "internalType": "uint256",
                  "name": "longTokenClaimableFundingAmountPerSize",
                  "type": "uint256"
                },
                {
                  "internalType": "uint256",
                  "name": "shortTokenClaimableFundingAmountPerSize",
                  "type": "uint256"
                },
                {
                  "internalType": "uint256",
                  "name": "increasedAtBlock",
                  "type": "uint256"
                },
                {
                  "internalType": "uint256",
                  "name": "decreasedAtBlock",
                  "type": "uint256"
                }
              ],
              "internalType": "struct Position.Numbers",
              "name": "numbers",
              "type": "tuple"
            },
            {
              "components": [
                {
                  "internalType": "bool",
                  "name": "isLong",
                  "type": "bool"
                }
              ],
              "internalType": "struct Position.Flags",
              "name": "flags",
              "type": "tuple"
            }
          ],
          "internalType": "struct Position.Props",
          "name": "position",
          "type": "tuple"
        },
        {
          "components": [
            {
              "internalType": "address",
              "name": "marketToken",
              "type": "address"
            },
            {
              "internalType": "address",
              "name": "indexToken",
              "type": "address"
            },
            {
              "internalType": "address",
              "name": "longToken",
              "type": "address"
            },
            {
              "internalType": "address",
              "name": "shortToken",
              "type": "address"
            }
          ],
          "internalType": "struct Market.Props",
          "name": "market",
          "type": "tuple"
        },
        {
          "internalType": "bool",
          "name": "shouldValidateMinCollateralUsd",
          "type": "bool"
        }
      ],
      "name": "isPositionLiquidatable",
      "outputs": [
        {
          "internalType": "bool",
          "name": "",
          "type": "bool"
        },
        {
          "internalType": "string",
          "name": "",
          "type": "string"
        },
        {
          "components": [
            {
              "internalType": "int256",
              "name": "remainingCollateralUsd",
              "type": "int256"
            },
            {
              "internalType": "int256",
              "name": "minCollateralUsd",
              "type": "int256"
            },
            {
              "internalType": "int256",
              "name": "minCollateralUsdForLeverage",
              "type": "int256"
            }
          ],
          "internalType": "struct PositionUtils.IsPositionLiquidatableInfo",
          "name": "",
          "type": "tuple"
        }
      ],
      "stateMutability": "view",
      "type": "function"
    }
  ],
  "bytecode": "0x6080604052348015600f57600080fd5b506111068061001f6000396000f3fe608060405234801561001057600080fd5b50600436106100365760003560e01c806327b62ad91461003b5780635691a90a14610064575b600080fd5b61004e610049366004610438565b610086565b60405161005b919061056f565b60405180910390f35b6100776100723660046108ac565b6101d3565b60405161005b93929190610a97565b60606000610095858585610293565b9050600081516001600160401b038111156100b2576100b2610695565b6040519080825280602002602001820160405280156100eb57816020015b6100d861035f565b8152602001906001900390816100d05790505b50905060005b82518110156101c957600083828151811061010e5761010e610af1565b602090810291909101015160405163fdfc26f360e01b81526001600160a01b038a1660048201526024810182905290915073__$9dcb75ef0bb6c4288f2ccffe7dc492c4eb$__9063fdfc26f390604401600060405180830381865af415801561017b573d6000803e3d6000fd5b505050506040513d6000823e601f3d908101601f191682016040526101a39190810190610ca7565b8383815181106101b5576101b5610af1565b6020908102919091010152506001016100f1565b5095945050505050565b600060606101fb60405180606001604052806000815260200160008152602001600081525090565b604051633e2d58cd60e21b815273__$91a1a7f12f728c8759f4be979bae55555f$__9063f8b563349061023c908c908c908b908b908e908c90600401610e18565b600060405180830381865af4158015610259573d6000803e3d6000fd5b505050506040513d6000823e601f3d908101601f191682016040526102819190810190610f80565b92509250925096509650969350505050565b6060836001600160a01b031663f069052a6040516020016102d2906020808252600a908201526913d491115497d31254d560b21b604082015260600190565b60408051601f198184030181529082905280516020909101206001600160e01b031960e084901b16825260048201526024810186905260448101859052606401600060405180830381865afa15801561032f573d6000803e3d6000fd5b505050506040513d6000823e601f3d908101601f19168201604052610357919081019061103b565b949350505050565b604080516101408101909152600060608083018281526080840183905260a0840183905260c0840183905260e084018390526101008401929092526101208301528152602081016103fd60408051610140810190915280600081526020016000815260200160008152602001600081526020016000815260200160008152602001600081526020016000815260200160008152602001600081525090565b815260408051606081018252600080825260208281018290529282015291015290565b6001600160a01b038116811461043557600080fd5b50565b60008060006060848603121561044d57600080fd5b833561045881610420565b95602085013595506040909401359392505050565b6001600160a01b03169052565b600081518084526020840193506020830160005b828110156104b55781516001600160a01b031686526020958601959091019060010161048e565b5093949350505050565b634e487b7160e01b600052602160045260246000fd5b600881106104e5576104e56104bf565b9052565b600381106104e5576104e56104bf565b6105048282516104d5565b602081015161051660208401826104e9565b5060408101516040830152606081015160608301526080810151608083015260a081015160a083015260c081015160c083015260e081015160e08301526101008101516101008301526101208101516101208301525050565b6000602082016020835280845180835260408501915060408160051b86010192506020860160005b8281101561068957868503603f19018452815180516101c080885281516001600160a01b0390811691890191909152602082015181166101e089015260408201511661020088015260608101516105f261022089018261046d565b50608081015161060661024089018261046d565b5060a081015161061a61026089018261046d565b5060c0015160e06102808801526106356102a088018261047a565b9050602082015161064960208901826104f9565b5060409182015180511515610160890152602081015115156101808901529182015115156101a08801529550506020938401939190910190600101610597565b50929695505050505050565b634e487b7160e01b600052604160045260246000fd5b604051606081016001600160401b03811182821017156106cd576106cd610695565b60405290565b60405161012081016001600160401b03811182821017156106cd576106cd610695565b60405161014081016001600160401b03811182821017156106cd576106cd610695565b60405160e081016001600160401b03811182821017156106cd576106cd610695565b604051601f8201601f191681016001600160401b038111828210171561076357610763610695565b604052919050565b60006040828403121561077d57600080fd5b604080519081016001600160401b038111828210171561079f5761079f610695565b604052823581526020928301359281019290925250919050565b801515811461043557600080fd5b80356107d2816107b9565b919050565b6000602082840312156107e957600080fd5b604051602081016001600160401b038111828210171561080b5761080b610695565b604052905080823561081c816107b9565b905292915050565b60006080828403121561083657600080fd5b604051608081016001600160401b038111828210171561085857610858610695565b604052905080823561086981610420565b8152602083013561087981610420565b6020820152604083013561088c81610420565b6040820152606083013561089f81610420565b6060919091015292915050565b6000806000806000808688036103408112156108c757600080fd5b87356108d281610420565b965060208801356108e281610420565b955060c0603f19820112156108f657600080fd5b506108ff6106ab565b61090c8960408a0161076b565b815261091b8960808a0161076b565b602082015261092d8960c08a0161076b565b60408201528094505061010087016000818a036101a081121561094e578182fd5b6109566106ab565b9150606081121561096657600080fd5b61096e6106ab565b833561097981610420565b8152602084013561098981610420565b6020820152604084013561099c81610420565b60408201528252610120605f19820112156109b657600080fd5b506109bf6106d3565b606083810135825260808085013560208085019190915260a080870135604086015260c0808801359486019490945260e080880135938601939093526101008088013591860191909152610120870135938501939093526101408601359184019190915261016085013591830191909152820152610a418a61018084016107d7565b60408201529350610a589050886102a08901610824565b9150610a6761032088016107c7565b90509295509295509295565b60005b83811015610a8e578181015183820152602001610a76565b50506000910152565b831515815260a06020820152600083518060a0840152610abe8160c0850160208801610a73565b60c0601f19601f830116840101915050825160408301526020830151606083015260408301516080830152949350505050565b634e487b7160e01b600052603260045260246000fd5b80516107d281610420565b60006001600160401b03821115610b2b57610b2b610695565b5060051b60200190565b600082601f830112610b4657600080fd5b8151610b59610b5482610b12565b61073b565b8082825260208201915060208360051b860101925085831115610b7b57600080fd5b602085015b838110156101c9578051610b9381610420565b835260209283019201610b80565b8051600881106107d257600080fd5b8051600381106107d257600080fd5b60006101408284031215610bd257600080fd5b610bda6106f6565b9050610be582610ba1565b8152610bf360208301610bb0565b602082015260408281015190820152606080830151908201526080808301519082015260a0808301519082015260c0808301519082015260e0808301519082015261010080830151908201526101209182015191810191909152919050565b600060608284031215610c6457600080fd5b610c6c6106ab565b90508151610c79816107b9565b81526020820151610c89816107b9565b60208201526040820151610c9c816107b9565b604082015292915050565b600060208284031215610cb957600080fd5b81516001600160401b03811115610ccf57600080fd5b82016101c08185031215610ce257600080fd5b610cea6106ab565b81516001600160401b03811115610d0057600080fd5b820160e08187031215610d1257600080fd5b610d1a610719565b610d2382610b07565b8152610d3160208301610b07565b6020820152610d4260408301610b07565b6040820152610d5360608301610b07565b6060820152610d6460808301610b07565b6080820152610d7560a08301610b07565b60a082015260c08201516001600160401b03811115610d9357600080fd5b610d9f88828501610b35565b60c083015250825250610db58560208401610bbf565b6020820152610dc8856101608401610c52565b6040820152949350505050565b610dea82825180518252602090810151910152565b602081810151805160408501529081015160608401525060400151805160808301526020015160a090910152565b60006103408201905060018060a01b038816825260018060a01b0387166020830152855160018060a01b03815116604084015260018060a01b03602082015116606084015260018060a01b036040820151166080840152506020860151805160a0840152602081015160c0840152604081015160e08401526060810151610100840152608081015161012084015260a081015161014084015260c081015161016084015260e08101516101808401526101008101516101a0840152506040860151610ee96101c08401825115159052565b5084516001600160a01b039081166101e08401526020860151811661020084015260408601518116610220840152606086015116610240830152610f31610260830185610dd5565b821515610320830152979650505050505050565b600060608284031215610f5757600080fd5b610f5f6106ab565b82518152602080840151908201526040928301519281019290925250919050565b600080600060a08486031215610f9557600080fd5b8351610fa0816107b9565b60208501519093506001600160401b03811115610fbc57600080fd5b8401601f81018613610fcd57600080fd5b80516001600160401b03811115610fe657610fe6610695565b610ff9601f8201601f191660200161073b565b81815287602083850101111561100e57600080fd5b61101f826020830160208601610a73565b8094505050506110328560408601610f45565b90509250925092565b60006020828403121561104d57600080fd5b81516001600160401b0381111561106357600080fd5b8201601f8101841361107457600080fd5b8051611082610b5482610b12565b8082825260208201915060208360051b8501019250868311156110a457600080fd5b6020840193505b828410156110c65783518252602093840193909101906110ab565b969550505050505056fea2646970667358221220040d7d458f94e2a7d5b359c6d61bdffad531cfbbfce8526cf27f047b3b63a3c064736f6c634300081a0033",
  "linkReferences": {
    "contracts/order/OrderStoreUtils.sol": {
      "OrderStoreUtils": [
        {
          "length": 20,
          "start": 352
        }
      ]
    },
    "contracts/position/PositionUtils.sol": {
      "PositionUtils": [
        {
          "length": 20,
          "start": 553
        }
      ]
    }
  },
  "deployedLinkReferences": {
    "contracts/order/OrderStoreUtils.sol": {
      "OrderStoreUtils": [
        {
          "length": 20,
          "start": 321
        }
      ]
    },
    "contracts/position/PositionUtils.sol": {
      "PositionUtils": [
        {
          "length": 20,
          "start": 522
        }
      ]
    }
  }
}