{
  "_format": "hh-sol-artifact-1",
  "contractName": "PositionStoreUtils",
  "sourceName": "contracts/position/PositionStoreUtils.sol",
  "abi": [
    {
      "inputs": [
        {
          "internalType": "bytes32",
          "name": "key",
          "type": "bytes32"
        }
      ],
      "name": "PositionNotFound",
      "type": "error"
    },
    {
      "inputs": [],
      "name": "ACCOUNT",
      "outputs": [
        {
          "internalType": "bytes32",
          "name": "",
          "type": "bytes32"
        }
      ],
      "stateMutability": "view",
      "type": "function"
    },
    {
      "inputs": [],
      "name": "BORROWING_FACTOR",
      "outputs": [
        {
          "internalType": "bytes32",
          "name": "",
          "type": "bytes32"
        }
      ],
      "stateMutability": "view",
      "type": "function"
    },
    {
      "inputs": [],
      "name": "COLLATERAL_AMOUNT",
      "outputs": [
        {
          "internalType": "bytes32",
          "name": "",
          "type": "bytes32"
        }
      ],
      "stateMutability": "view",
      "type": "function"
    },
    {
      "inputs": [],
      "name": "COLLATERAL_TOKEN",
      "outputs": [
        {
          "internalType": "bytes32",
          "name": "",
          "type": "bytes32"
        }
      ],
      "stateMutability": "view",
      "type": "function"
    },
    {
      "inputs": [],
      "name": "DECREASED_AT_BLOCK",
      "outputs": [
        {
          "internalType": "bytes32",
          "name": "",
          "type": "bytes32"
        }
      ],
      "stateMutability": "view",
      "type": "function"
    },
    {
      "inputs": [],
      "name": "FUNDING_FEE_AMOUNT_PER_SIZE",
      "outputs": [
        {
          "internalType": "bytes32",
          "name": "",
          "type": "bytes32"
        }
      ],
      "stateMutability": "view",
      "type": "function"
    },
    {
      "inputs": [],
      "name": "INCREASED_AT_BLOCK",
      "outputs": [
        {
          "internalType": "bytes32",
          "name": "",
          "type": "bytes32"
        }
      ],
      "stateMutability": "view",
      "type": "function"
    },
    {
      "inputs": [],
      "name": "IS_LONG",
      "outputs": [
        {
          "internalType": "bytes32",
          "name": "",
          "type": "bytes32"
        }
      ],
      "stateMutability": "view",
      "type": "function"
    },
    {
      "inputs": [],
      "name": "LONG_TOKEN_CLAIMABLE_FUNDING_AMOUNT_PER_SIZE",
      "outputs": [
        {
          "internalType": "bytes32",
          "name": "",
          "type": "bytes32"
        }
      ],
      "stateMutability": "view",
      "type": "function"
    },
    {
      "inputs": [],
      "name": "MARKET",
      "outputs": [
        {
          "internalType": "bytes32",
          "name": "",
          "type": "bytes32"
        }
      ],
      "stateMutability": "view",
      "type": "function"
    },
    {
      "inputs": [],
      "name": "SHORT_TOKEN_CLAIMABLE_FUNDING_AMOUNT_PER_SIZE",
      "outputs": [
        {
          "internalType": "bytes32",
          "name": "",
          "type": "bytes32"
        }
      ],
      "stateMutability": "view",
      "type": "function"
    },
    {
      "inputs": [],
      "name": "SIZE_IN_TOKENS",
      "outputs": [
        {
          "internalType": "bytes32",
          "name": "",
          "type": "bytes32"
        }
      ],
      "stateMutability": "view",
      "type": "function"
    },
    {
      "inputs": [],
      "name": "SIZE_IN_USD",
      "outputs": [
        {
          "internalType": "bytes32",
          "name": "",
          "type": "bytes32"
        }
      ],
      "stateMutability": "view",
      "type": "function"
    },
    {
      "inputs": [
        {
          "internalType": "contract DataStore",
          "name": "dataStore",
          "type": "DataStore"
        },
        {
          "internalType": "bytes32",
          "name": "key",
          "type": "bytes32"
        }
      ],
      "name": "get",
      "outputs": [
        {
          "components": [
            {
              "components": [
                {
                  "internalType": "address",
                  "name": "account",
                  "type": "address"
                },
                {
                  "internalType": "address",
                  "name": "market",
                  "type": "address"
                },
                {
                  "internalType": "address",
                  "name": "collateralToken",
                  "type": "address"
                }
              ],
              "internalType": "struct Position.Addresses",
              "name": "addresses",
              "type": "tuple"
            },
            {
              "components": [
                {
                  "internalType": "uint256",
                  "name": "sizeInUsd",
                  "type": "uint256"
                },
                {
                  "internalType": "uint256",
                  "name": "sizeInTokens",
                  "type": "uint256"
                },
                {
                  "internalType": "uint256",
                  "name": "collateralAmount",
                  "type": "uint256"
                },
                {
                  "internalType": "uint256",
                  "name": "borrowingFactor",
                  "type": "uint256"
                },
                {
                  "internalType": "uint256",
                  "name": "fundingFeeAmountPerSize",
                  "type": "uint256"
                },
                {
                  "internalType": "uint256",
                  "name": "longTokenClaimableFundingAmountPerSize",
                  "type": "uint256"
                },
                {
                  "internalType": "uint256",
                  "name": "shortTokenClaimableFundingAmountPerSize",
                  "type": "uint256"
                },
                {
                  "internalType": "uint256",
                  "name": "increasedAtBlock",
                  "type": "uint256"
                },
                {
                  "internalType": "uint256",
                  "name": "decreasedAtBlock",
                  "type": "uint256"
                }
              ],
              "internalType": "struct Position.Numbers",
              "name": "numbers",
              "type": "tuple"
            },
            {
              "components": [
                {
                  "internalType": "bool",
                  "name": "isLong",
                  "type": "bool"
                }
              ],
              "internalType": "struct Position.Flags",
              "name": "flags",
              "type": "tuple"
            }
          ],
          "internalType": "struct Position.Props",
          "name": "",
          "type": "tuple"
        }
      ],
      "stateMutability": "view",
      "type": "function"
    }
  ],
  "bytecode": "0x612ae0610039600b82828239805160001a607314602c57634e487b7160e01b600052600060045260246000fd5b30600052607381538281f3fe73000000000000000000000000000000000000000030146080604052600436106100da5760003560e01c806318ed19e1146100df57806321cd56bf146101015780633332c5be1461011c57806355179790146101245780635c0ca0a01461012c57806372374d971461013457806374b6fe131461013c578063a5ec72751461015c578063b837888f14610164578063d276322c1461016c578063e90524f214610174578063ed955e201461017c578063f01cce5214610184578063f46f16c21461018c578063f5f1f1a714610194578063fdfc26f31461019c575b600080fd5b8180156100eb57600080fd5b506100ff6100fa366004612546565b6101bc565b005b610109610d09565b6040519081526020015b60405180910390f35b610109610d31565b610109610d40565b610109610d4f565b610109610d5e565b81801561014857600080fd5b506100ff61015736600461268f565b610d6d565b6101096117d1565b6101096117e0565b6101096117ef565b6101096117fe565b61010961180d565b61010961181c565b61010961182b565b61010961183a565b6101af6101aa3660046126d1565b611849565b60405161011391906126fd565b826001600160a01b031663c80f4c626040516020016101da906127b7565b60405160208183030381529060405280519060200120846040518363ffffffff1660e01b815260040161020e9291906127de565b600060405180830381600087803b15801561022857600080fd5b505af115801561023c573d6000803e3d6000fd5b50505050826001600160a01b031663c80f4c6261026061025b84515190565b61234d565b846040518363ffffffff1660e01b815260040161027e9291906127de565b600060405180830381600087803b15801561029857600080fd5b505af11580156102ac573d6000803e3d6000fd5b50505050826001600160a01b031663ca446dd9836040516020016102cf906127ec565b604051602081830303815290604052805190602001206040516020016102f69291906127de565b6040516020818303038152906040528051906020012061031584515190565b6040518363ffffffff1660e01b815260040161033292919061280d565b6020604051808303816000875af1158015610351573d6000803e3d6000fd5b505050506040513d601f19601f820116820180604052508101906103759190612824565b50826001600160a01b031663ca446dd98360405160200161039590612841565b604051602081830303815290604052805190602001206040516020016103bc9291906127de565b604051602081830303815290604052805190602001206103de84516020015190565b6040518363ffffffff1660e01b81526004016103fb92919061280d565b6020604051808303816000875af115801561041a573d6000803e3d6000fd5b505050506040513d601f19601f8201168201806040525081019061043e9190612824565b50826001600160a01b031663ca446dd98360405160200161045e90612861565b604051602081830303815290604052805190602001206040516020016104859291906127de565b604051602081830303815290604052805190602001206104a784516040015190565b6040518363ffffffff1660e01b81526004016104c492919061280d565b6020604051808303816000875af11580156104e3573d6000803e3d6000fd5b505050506040513d601f19601f820116820180604052508101906105079190612824565b50826001600160a01b031663e2a4853a836040516020016105279061288b565b6040516020818303038152906040528051906020012060405160200161054e9291906127de565b6040516020818303038152906040528051906020012061057084602001515190565b6040518363ffffffff1660e01b815260040161058d9291906127de565b6020604051808303816000875af11580156105ac573d6000803e3d6000fd5b505050506040513d601f19601f820116820180604052508101906105d091906128b0565b50826001600160a01b031663e2a4853a836040516020016105f0906128c9565b604051602081830303815290604052805190602001206040516020016106179291906127de565b6040516020818303038152906040528051906020012061063c84602090810151015190565b6040518363ffffffff1660e01b81526004016106599291906127de565b6020604051808303816000875af1158015610678573d6000803e3d6000fd5b505050506040513d601f19601f8201168201806040525081019061069c91906128b0565b50826001600160a01b031663e2a4853a836040516020016106bc906128f1565b604051602081830303815290604052805190602001206040516020016106e39291906127de565b6040516020818303038152906040528051906020012061070884602001516040015190565b6040518363ffffffff1660e01b81526004016107259291906127de565b6020604051808303816000875af1158015610744573d6000803e3d6000fd5b505050506040513d601f19601f8201168201806040525081019061076891906128b0565b50826001600160a01b031663e2a4853a836040516020016107889061291c565b604051602081830303815290604052805190602001206040516020016107af9291906127de565b604051602081830303815290604052805190602001206107d484602001516060015190565b6040518363ffffffff1660e01b81526004016107f19291906127de565b6020604051808303816000875af1158015610810573d6000803e3d6000fd5b505050506040513d601f19601f8201168201806040525081019061083491906128b0565b50826001600160a01b031663e2a4853a8360405160200161085490612946565b6040516020818303038152906040528051906020012060405160200161087b9291906127de565b604051602081830303815290604052805190602001206108a084602001516080015190565b6040518363ffffffff1660e01b81526004016108bd9291906127de565b6020604051808303816000875af11580156108dc573d6000803e3d6000fd5b505050506040513d601f19601f8201168201806040525081019061090091906128b0565b50826001600160a01b031663e2a4853a836040516020016109209061297b565b604051602081830303815290604052805190602001206040516020016109479291906127de565b6040516020818303038152906040528051906020012061096c846020015160a0015190565b6040518363ffffffff1660e01b81526004016109899291906127de565b6020604051808303816000875af11580156109a8573d6000803e3d6000fd5b505050506040513d601f19601f820116820180604052508101906109cc91906128b0565b50826001600160a01b031663e2a4853a836040516020016109ec906129c7565b60405160208183030381529060405280519060200120604051602001610a139291906127de565b60405160208183030381529060405280519060200120610a38846020015160c0015190565b6040518363ffffffff1660e01b8152600401610a559291906127de565b6020604051808303816000875af1158015610a74573d6000803e3d6000fd5b505050506040513d601f19601f82011682018060405250810190610a9891906128b0565b50826001600160a01b031663e2a4853a83604051602001610ab890612a14565b60405160208183030381529060405280519060200120604051602001610adf9291906127de565b60405160208183030381529060405280519060200120610b04846020015160e0015190565b6040518363ffffffff1660e01b8152600401610b219291906127de565b6020604051808303816000875af1158015610b40573d6000803e3d6000fd5b505050506040513d601f19601f82011682018060405250810190610b6491906128b0565b50826001600160a01b031663e2a4853a83604051602001610b8490612a40565b60405160208183030381529060405280519060200120604051602001610bab9291906127de565b60405160208183030381529060405280519060200120610bd18460200151610100015190565b6040518363ffffffff1660e01b8152600401610bee9291906127de565b6020604051808303816000875af1158015610c0d573d6000803e3d6000fd5b505050506040513d601f19601f82011682018060405250810190610c3191906128b0565b50826001600160a01b031663abfdcced83604051602001610c5190612a6c565b60405160208183030381529060405280519060200120604051602001610c789291906127de565b60405160208183030381529060405280519060200120610c9a84604001515190565b6040516001600160e01b031960e085901b1681526004810192909252151560248201526044016020604051808303816000875af1158015610cdf573d6000803e3d6000fd5b505050506040513d601f19601f82011682018060405250810190610d039190612a8d565b50505050565b604051602001610d18906128c9565b6040516020818303038152906040528051906020012081565b604051602001610d1890612a6c565b604051602001610d189061291c565b604051602001610d18906129c7565b604051602001610d1890612a40565b826001600160a01b03166391d4403c604051602001610d8b906127b7565b60405160208183030381529060405280519060200120846040518363ffffffff1660e01b8152600401610dbf9291906127de565b602060405180830381865afa158015610ddc573d6000803e3d6000fd5b505050506040513d601f19601f82011682018060405250810190610e009190612a8d565b610e2457604051630426cfff60e41b81526004810183905260240160405180910390fd5b826001600160a01b0316639921c3cc604051602001610e42906127b7565b60405160208183030381529060405280519060200120846040518363ffffffff1660e01b8152600401610e769291906127de565b600060405180830381600087803b158015610e9057600080fd5b505af1158015610ea4573d6000803e3d6000fd5b50505050826001600160a01b0316639921c3cc610ec08361234d565b846040518363ffffffff1660e01b8152600401610ede9291906127de565b600060405180830381600087803b158015610ef857600080fd5b505af1158015610f0c573d6000803e3d6000fd5b50505050826001600160a01b0316639faf6fb683604051602001610f2f906127ec565b60405160208183030381529060405280519060200120604051602001610f569291906127de565b604051602081830303815290604052805190602001206040518263ffffffff1660e01b8152600401610f8a91815260200190565b600060405180830381600087803b158015610fa457600080fd5b505af1158015610fb8573d6000803e3d6000fd5b50505050826001600160a01b0316639faf6fb683604051602001610fdb90612841565b604051602081830303815290604052805190602001206040516020016110029291906127de565b604051602081830303815290604052805190602001206040518263ffffffff1660e01b815260040161103691815260200190565b600060405180830381600087803b15801561105057600080fd5b505af1158015611064573d6000803e3d6000fd5b50505050826001600160a01b0316639faf6fb68360405160200161108790612861565b604051602081830303815290604052805190602001206040516020016110ae9291906127de565b604051602081830303815290604052805190602001206040518263ffffffff1660e01b81526004016110e291815260200190565b600060405180830381600087803b1580156110fc57600080fd5b505af1158015611110573d6000803e3d6000fd5b50505050826001600160a01b03166342c3bd96836040516020016111339061288b565b6040516020818303038152906040528051906020012060405160200161115a9291906127de565b604051602081830303815290604052805190602001206040518263ffffffff1660e01b815260040161118e91815260200190565b600060405180830381600087803b1580156111a857600080fd5b505af11580156111bc573d6000803e3d6000fd5b50505050826001600160a01b03166342c3bd96836040516020016111df906128c9565b604051602081830303815290604052805190602001206040516020016112069291906127de565b604051602081830303815290604052805190602001206040518263ffffffff1660e01b815260040161123a91815260200190565b600060405180830381600087803b15801561125457600080fd5b505af1158015611268573d6000803e3d6000fd5b50505050826001600160a01b03166342c3bd968360405160200161128b906128f1565b604051602081830303815290604052805190602001206040516020016112b29291906127de565b604051602081830303815290604052805190602001206040518263ffffffff1660e01b81526004016112e691815260200190565b600060405180830381600087803b15801561130057600080fd5b505af1158015611314573d6000803e3d6000fd5b50505050826001600160a01b03166342c3bd96836040516020016113379061291c565b6040516020818303038152906040528051906020012060405160200161135e9291906127de565b604051602081830303815290604052805190602001206040518263ffffffff1660e01b815260040161139291815260200190565b600060405180830381600087803b1580156113ac57600080fd5b505af11580156113c0573d6000803e3d6000fd5b50505050826001600160a01b03166342c3bd96836040516020016113e390612946565b6040516020818303038152906040528051906020012060405160200161140a9291906127de565b604051602081830303815290604052805190602001206040518263ffffffff1660e01b815260040161143e91815260200190565b600060405180830381600087803b15801561145857600080fd5b505af115801561146c573d6000803e3d6000fd5b50505050826001600160a01b03166342c3bd968360405160200161148f9061297b565b604051602081830303815290604052805190602001206040516020016114b69291906127de565b604051602081830303815290604052805190602001206040518263ffffffff1660e01b81526004016114ea91815260200190565b600060405180830381600087803b15801561150457600080fd5b505af1158015611518573d6000803e3d6000fd5b50505050826001600160a01b03166342c3bd968360405160200161153b906129c7565b604051602081830303815290604052805190602001206040516020016115629291906127de565b604051602081830303815290604052805190602001206040518263ffffffff1660e01b815260040161159691815260200190565b600060405180830381600087803b1580156115b057600080fd5b505af11580156115c4573d6000803e3d6000fd5b50505050826001600160a01b03166342c3bd96836040516020016115e790612a14565b6040516020818303038152906040528051906020012060405160200161160e9291906127de565b604051602081830303815290604052805190602001206040518263ffffffff1660e01b815260040161164291815260200190565b600060405180830381600087803b15801561165c57600080fd5b505af1158015611670573d6000803e3d6000fd5b50505050826001600160a01b03166342c3bd968360405160200161169390612a40565b604051602081830303815290604052805190602001206040516020016116ba9291906127de565b604051602081830303815290604052805190602001206040518263ffffffff1660e01b81526004016116ee91815260200190565b600060405180830381600087803b15801561170857600080fd5b505af115801561171c573d6000803e3d6000fd5b50505050826001600160a01b0316639fe7ac128360405160200161173f90612a6c565b604051602081830303815290604052805190602001206040516020016117669291906127de565b604051602081830303815290604052805190602001206040518263ffffffff1660e01b815260040161179a91815260200190565b600060405180830381600087803b1580156117b457600080fd5b505af11580156117c8573d6000803e3d6000fd5b50505050505050565b604051602001610d1890612a14565b604051602001610d189061297b565b604051602001610d18906128f1565b604051602001610d18906127ec565b604051602001610d189061288b565b604051602001610d1890612946565b604051602001610d1890612841565b604051602001610d1890612861565b6118516123cd565b6118596123cd565b836001600160a01b03166391d4403c604051602001611877906127b7565b60405160208183030381529060405280519060200120856040518363ffffffff1660e01b81526004016118ab9291906127de565b602060405180830381865afa1580156118c8573d6000803e3d6000fd5b505050506040513d601f19601f820116820180604052508101906118ec9190612a8d565b6118f7579050612347565b6119c6846001600160a01b03166321f8a72185604051602001611919906127ec565b604051602081830303815290604052805190602001206040516020016119409291906127de565b604051602081830303815290604052805190602001206040518263ffffffff1660e01b815260040161197491815260200190565b602060405180830381865afa158015611991573d6000803e3d6000fd5b505050506040513d601f19601f820116820180604052508101906119b59190612824565b82516001600160a01b039091169052565b611a99846001600160a01b03166321f8a721856040516020016119e890612841565b60405160208183030381529060405280519060200120604051602001611a0f9291906127de565b604051602081830303815290604052805190602001206040518263ffffffff1660e01b8152600401611a4391815260200190565b602060405180830381865afa158015611a60573d6000803e3d6000fd5b505050506040513d601f19601f82011682018060405250810190611a849190612824565b82516001600160a01b03909116602090910152565b611b6c846001600160a01b03166321f8a72185604051602001611abb90612861565b60405160208183030381529060405280519060200120604051602001611ae29291906127de565b604051602081830303815290604052805190602001206040518263ffffffff1660e01b8152600401611b1691815260200190565b602060405180830381865afa158015611b33573d6000803e3d6000fd5b505050506040513d601f19601f82011682018060405250810190611b579190612824565b82516001600160a01b03909116604090910152565b611c32846001600160a01b031663bd02d0f585604051602001611b8e9061288b565b60405160208183030381529060405280519060200120604051602001611bb59291906127de565b604051602081830303815290604052805190602001206040518263ffffffff1660e01b8152600401611be991815260200190565b602060405180830381865afa158015611c06573d6000803e3d6000fd5b505050506040513d601f19601f82011682018060405250810190611c2a91906128b0565b602083015152565b611cfa846001600160a01b031663bd02d0f585604051602001611c54906128c9565b60405160208183030381529060405280519060200120604051602001611c7b9291906127de565b604051602081830303815290604052805190602001206040518263ffffffff1660e01b8152600401611caf91815260200190565b602060405180830381865afa158015611ccc573d6000803e3d6000fd5b505050506040513d601f19601f82011682018060405250810190611cf091906128b0565b6020808401510152565b611dc3846001600160a01b031663bd02d0f585604051602001611d1c906128f1565b60405160208183030381529060405280519060200120604051602001611d439291906127de565b604051602081830303815290604052805190602001206040518263ffffffff1660e01b8152600401611d7791815260200190565b602060405180830381865afa158015611d94573d6000803e3d6000fd5b505050506040513d601f19601f82011682018060405250810190611db891906128b0565b602083015160400152565b611e8c846001600160a01b031663bd02d0f585604051602001611de59061291c565b60405160208183030381529060405280519060200120604051602001611e0c9291906127de565b604051602081830303815290604052805190602001206040518263ffffffff1660e01b8152600401611e4091815260200190565b602060405180830381865afa158015611e5d573d6000803e3d6000fd5b505050506040513d601f19601f82011682018060405250810190611e8191906128b0565b602083015160600152565b611f55846001600160a01b031663bd02d0f585604051602001611eae90612946565b60405160208183030381529060405280519060200120604051602001611ed59291906127de565b604051602081830303815290604052805190602001206040518263ffffffff1660e01b8152600401611f0991815260200190565b602060405180830381865afa158015611f26573d6000803e3d6000fd5b505050506040513d601f19601f82011682018060405250810190611f4a91906128b0565b602083015160800152565b61201e846001600160a01b031663bd02d0f585604051602001611f779061297b565b60405160208183030381529060405280519060200120604051602001611f9e9291906127de565b604051602081830303815290604052805190602001206040518263ffffffff1660e01b8152600401611fd291815260200190565b602060405180830381865afa158015611fef573d6000803e3d6000fd5b505050506040513d601f19601f8201168201806040525081019061201391906128b0565b602083015160a00152565b6120e7846001600160a01b031663bd02d0f585604051602001612040906129c7565b604051602081830303815290604052805190602001206040516020016120679291906127de565b604051602081830303815290604052805190602001206040518263ffffffff1660e01b815260040161209b91815260200190565b602060405180830381865afa1580156120b8573d6000803e3d6000fd5b505050506040513d601f19601f820116820180604052508101906120dc91906128b0565b602083015160c00152565b6121b0846001600160a01b031663bd02d0f58560405160200161210990612a14565b604051602081830303815290604052805190602001206040516020016121309291906127de565b604051602081830303815290604052805190602001206040518263ffffffff1660e01b815260040161216491815260200190565b602060405180830381865afa158015612181573d6000803e3d6000fd5b505050506040513d601f19601f820116820180604052508101906121a591906128b0565b602083015160e00152565b61227a846001600160a01b031663bd02d0f5856040516020016121d290612a40565b604051602081830303815290604052805190602001206040516020016121f99291906127de565b604051602081830303815290604052805190602001206040518263ffffffff1660e01b815260040161222d91815260200190565b602060405180830381865afa15801561224a573d6000803e3d6000fd5b505050506040513d601f19601f8201168201806040525081019061226e91906128b0565b60208301516101000152565b612344846001600160a01b0316637ae1cfca8560405160200161229c90612a6c565b604051602081830303815290604052805190602001206040516020016122c39291906127de565b604051602081830303815290604052805190602001206040518263ffffffff1660e01b81526004016122f791815260200190565b602060405180830381865afa158015612314573d6000803e3d6000fd5b505050506040513d601f19601f820116820180604052508101906123389190612a8d565b60408301519015159052565b90505b92915050565b6000604051602001612388906020808252601590820152741050d0d3d5539517d413d4d2551253d397d31254d5605a1b604082015260600190565b60405160208183030381529060405280519060200120826040516020016123b092919061280d565b604051602081830303815290604052805190602001209050919050565b6040805160c081019091526000606082018181526080830182905260a0830191909152819081526020016124466040518061012001604052806000815260200160008152602001600081526020016000815260200160008152602001600081526020016000815260200160008152602001600081525090565b81526040805160208181019092526000815291015290565b6001600160a01b038116811461247357600080fd5b50565b604051606081016001600160401b03811182821017156124a657634e487b7160e01b600052604160045260246000fd5b60405290565b60405161012081016001600160401b03811182821017156124a657634e487b7160e01b600052604160045260246000fd5b801515811461247357600080fd5b6000602082840312156124fd57600080fd5b604051602081016001600160401b038111828210171561252d57634e487b7160e01b600052604160045260246000fd5b604052905080823561253e816124dd565b905292915050565b60008060008385036101e081121561255d57600080fd5b84356125688161245e565b935060208501359250603f1981016101a081121561258557600080fd5b61258d612476565b606082121561259b57600080fd5b6125a3612476565b915060408701356125b38161245e565b825260608701356125c38161245e565b602083015260808701356125d68161245e565b6040830152818152610120609f19840112156125f157600080fd5b6125f96124ac565b60a088810135825260c0808a013560208085019190915260e0808c01356040860152610100808d013560608701526101208d013560808701526101408d0135948601949094526101608c0135928501929092526101808b0135918401919091526101a08a01359183018290528301829052909350915061267d886101c089016124eb565b60408201528093505050509250925092565b6000806000606084860312156126a457600080fd5b83356126af8161245e565b92506020840135915060408401356126c68161245e565b809150509250925092565b600080604083850312156126e457600080fd5b82356126ef8161245e565b946020939093013593505050565b60006101a082019050825160018060a01b03815116835260018060a01b03602082015116602084015260018060a01b0360408201511660408401525060208301518051606084015260208101516080840152604081015160a0840152606081015160c0840152608081015160e084015260a081015161010084015260c081015161012084015260e08101516101408401526101008101516101608401525060408301516127b06101808401825115159052565b5092915050565b6020808252600d908201526c1413d4d2551253d397d31254d5609a1b604082015260600190565b918252602082015260400190565b6020808252600790820152661050d0d3d5539560ca1b604082015260600190565b9182526001600160a01b0316602082015260400190565b60006020828403121561283657600080fd5b81516123448161245e565b60208082526006908201526513505492d15560d21b604082015260600190565b60208082526010908201526f21a7a62620aa22a920a62faa27a5a2a760811b604082015260600190565b6020808252600b908201526a14d2569157d25397d554d160aa1b604082015260600190565b6000602082840312156128c257600080fd5b5051919050565b6020808252600e908201526d53495a455f494e5f544f4b454e5360901b604082015260600190565b60208082526011908201527010d3d31310551154905317d05353d55395607a1b604082015260600190565b60208082526010908201526f2127a92927aba4a723afa320a1aa27a960811b604082015260600190565b6020808252601b908201527a46554e44494e475f4645455f414d4f554e545f5045525f53495a4560281b604082015260600190565b6020808252602c908201527f4c4f4e475f544f4b454e5f434c41494d41424c455f46554e44494e475f414d4f60408201526b554e545f5045525f53495a4560a01b606082015260800190565b6020808252602d908201527f53484f52545f544f4b454e5f434c41494d41424c455f46554e44494e475f414d60408201526c4f554e545f5045525f53495a4560981b606082015260800190565b602080825260129082015271494e435245415345445f41545f424c4f434b60701b604082015260600190565b6020808252601290820152714445435245415345445f41545f424c4f434b60701b604082015260600190565b60208082526007908201526649535f4c4f4e4760c81b604082015260600190565b600060208284031215612a9f57600080fd5b8151612344816124dd56fea2646970667358221220841e9de5f3e8c201da071ca7939c8d494f9b7cee7177a66a69effaaaa1843cc264736f6c634300081a0033",
  "linkReferences": {},
  "deployedLinkReferences": {}
}