{
  "_format": "hh-sol-artifact-1",
  "contractName": "MockRealtimeFeedVerifier",
  "sourceName": "contracts/mock/MockRealtimeFeedVerifier.sol",
  "abi": [
    {
      "inputs": [
        {
          "internalType": "bytes",
          "name": "data",
          "type": "bytes"
        }
      ],
      "name": "verify",
      "outputs": [
        {
          "internalType": "bytes",
          "name": "",
          "type": "bytes"
        }
      ],
      "stateMutability": "pure",
      "type": "function"
    }
  ],
  "bytecode": "0x6080604052348015600f57600080fd5b506101a78061001f6000396000f3fe608060405234801561001057600080fd5b506004361061002b5760003560e01c80638e760afe14610030575b600080fd5b61004161003e36600461006d565b90565b60405161004e9190610123565b60405180910390f35b634e487b7160e01b600052604160045260246000fd5b60006020828403121561007f57600080fd5b81356001600160401b0381111561009557600080fd5b8201601f810184136100a657600080fd5b80356001600160401b038111156100bf576100bf610057565b604051601f8201601f19908116603f011681016001600160401b03811182821017156100ed576100ed610057565b60405281815282820160200186101561010557600080fd5b81602084016020830137600091810160200191909152949350505050565b602081526000825180602084015260005b818110156101515760208186018101516040868401015201610134565b506000604082850101526040601f19601f8301168401019150509291505056fea26469706673582212204c8be911cb1d7b1bf9f41024e8d08739daabcf794aeb1477d05d73306c197e7164736f6c634300081a0033",
  "linkReferences": {},
  "deployedLinkReferences": {}
}