{
  "_format": "hh-sol-artifact-1",
  "contractName": "WithdrawalHandler",
  "sourceName": "contracts/exchange/WithdrawalHandler.sol",
  "abi": [
    {
      "inputs": [
        {
          "internalType": "contract RoleStore",
          "name": "_roleStore",
          "type": "address"
        },
        {
          "internalType": "contract DataStore",
          "name": "_dataStore",
          "type": "address"
        },
        {
          "internalType": "contract EventEmitter",
          "name": "_eventEmitter",
          "type": "address"
        },
        {
          "internalType": "contract WithdrawalVault",
          "name": "_withdrawalVault",
          "type": "address"
        },
        {
          "internalType": "contract Oracle",
          "name": "_oracle",
          "type": "address"
        }
      ],
      "stateMutability": "nonpayable",
      "type": "constructor"
    },
    {
      "inputs": [
        {
          "internalType": "uint256[]",
          "name": "compactedValues",
          "type": "uint256[]"
        },
        {
          "internalType": "uint256",
          "name": "index",
          "type": "uint256"
        },
        {
          "internalType": "uint256",
          "name": "slotIndex",
          "type": "uint256"
        },
        {
          "internalType": "string",
          "name": "label",
          "type": "string"
        }
      ],
      "name": "CompactedArrayOutOfBounds",
      "type": "error"
    },
    {
      "inputs": [
        {
          "internalType": "bytes32",
          "name": "key",
          "type": "bytes32"
        }
      ],
      "name": "DisabledFeature",
      "type": "error"
    },
    {
      "inputs": [
        {
          "internalType": "uint256",
          "name": "index",
          "type": "uint256"
        }
      ],
      "name": "EmptyCompactedBlockNumber",
      "type": "error"
    },
    {
      "inputs": [],
      "name": "EndOfOracleSimulation",
      "type": "error"
    },
    {
      "inputs": [
        {
          "internalType": "uint256",
          "name": "startingGas",
          "type": "uint256"
        },
        {
          "internalType": "uint256",
          "name": "estimatedGasLimit",
          "type": "uint256"
        },
        {
          "internalType": "uint256",
          "name": "minAdditionalGasForExecution",
          "type": "uint256"
        }
      ],
      "name": "InsufficientExecutionGas",
      "type": "error"
    },
    {
      "inputs": [
        {
          "internalType": "uint256",
          "name": "startingGas",
          "type": "uint256"
        },
        {
          "internalType": "uint256",
          "name": "minHandleErrorGas",
          "type": "uint256"
        }
      ],
      "name": "InsufficientExecutionGasForErrorHandling",
      "type": "error"
    },
    {
      "inputs": [
        {
          "internalType": "uint256",
          "name": "gas",
          "type": "uint256"
        },
        {
          "internalType": "uint256",
          "name": "minHandleExecutionErrorGas",
          "type": "uint256"
        }
      ],
      "name": "InsufficientHandleExecutionErrorGas",
      "type": "error"
    },
    {
      "inputs": [
        {
          "internalType": "uint256",
          "name": "primaryTokensLength",
          "type": "uint256"
        },
        {
          "internalType": "uint256",
          "name": "primaryPricesLength",
          "type": "uint256"
        }
      ],
      "name": "InvalidPrimaryPricesForSimulation",
      "type": "error"
    },
    {
      "inputs": [
        {
          "internalType": "uint256",
          "name": "requestAge",
          "type": "uint256"
        },
        {
          "internalType": "uint256",
          "name": "requestExpirationAge",
          "type": "uint256"
        },
        {
          "internalType": "string",
          "name": "requestType",
          "type": "string"
        }
      ],
      "name": "RequestNotYetCancellable",
      "type": "error"
    },
    {
      "inputs": [
        {
          "internalType": "address",
          "name": "msgSender",
          "type": "address"
        },
        {
          "internalType": "string",
          "name": "role",
          "type": "string"
        }
      ],
      "name": "Unauthorized",
      "type": "error"
    },
    {
      "inputs": [
        {
          "internalType": "uint256",
          "name": "oracleBlockNumberType",
          "type": "uint256"
        }
      ],
      "name": "UnsupportedOracleBlockNumberType",
      "type": "error"
    },
    {
      "anonymous": false,
      "inputs": [
        {
          "indexed": false,
          "internalType": "string",
          "name": "reason",
          "type": "string"
        }
      ],
      "name": "OracleError",
      "type": "event"
    },
    {
      "inputs": [
        {
          "internalType": "bytes32",
          "name": "key",
          "type": "bytes32"
        },
        {
          "components": [
            {
              "components": [
                {
                  "internalType": "address",
                  "name": "account",
                  "type": "address"
                },
                {
                  "internalType": "address",
                  "name": "receiver",
                  "type": "address"
                },
                {
                  "internalType": "address",
                  "name": "callbackContract",
                  "type": "address"
                },
                {
                  "internalType": "address",
                  "name": "uiFeeReceiver",
                  "type": "address"
                },
                {
                  "internalType": "address",
                  "name": "market",
                  "type": "address"
                },
                {
                  "internalType": "address[]",
                  "name": "longTokenSwapPath",
                  "type": "address[]"
                },
                {
                  "internalType": "address[]",
                  "name": "shortTokenSwapPath",
                  "type": "address[]"
                }
              ],
              "internalType": "struct Withdrawal.Addresses",
              "name": "addresses",
              "type": "tuple"
            },
            {
              "components": [
                {
                  "internalType": "uint256",
                  "name": "marketTokenAmount",
                  "type": "uint256"
                },
                {
                  "internalType": "uint256",
                  "name": "minLongTokenAmount",
                  "type": "uint256"
                },
                {
                  "internalType": "uint256",
                  "name": "minShortTokenAmount",
                  "type": "uint256"
                },
                {
                  "internalType": "uint256",
                  "name": "updatedAtBlock",
                  "type": "uint256"
                },
                {
                  "internalType": "uint256",
                  "name": "executionFee",
                  "type": "uint256"
                },
                {
                  "internalType": "uint256",
                  "name": "callbackGasLimit",
                  "type": "uint256"
                }
              ],
              "internalType": "struct Withdrawal.Numbers",
              "name": "numbers",
              "type": "tuple"
            },
            {
              "components": [
                {
                  "internalType": "bool",
                  "name": "shouldUnwrapNativeToken",
                  "type": "bool"
                }
              ],
              "internalType": "struct Withdrawal.Flags",
              "name": "flags",
              "type": "tuple"
            }
          ],
          "internalType": "struct Withdrawal.Props",
          "name": "withdrawal",
          "type": "tuple"
        },
        {
          "components": [
            {
              "internalType": "uint256",
              "name": "signerInfo",
              "type": "uint256"
            },
            {
              "internalType": "address[]",
              "name": "tokens",
              "type": "address[]"
            },
            {
              "internalType": "uint256[]",
              "name": "compactedMinOracleBlockNumbers",
              "type": "uint256[]"
            },
            {
              "internalType": "uint256[]",
              "name": "compactedMaxOracleBlockNumbers",
              "type": "uint256[]"
            },
            {
              "internalType": "uint256[]",
              "name": "compactedOracleTimestamps",
              "type": "uint256[]"
            },
            {
              "internalType": "uint256[]",
              "name": "compactedDecimals",
              "type": "uint256[]"
            },
            {
              "internalType": "uint256[]",
              "name": "compactedMinPrices",
              "type": "uint256[]"
            },
            {
              "internalType": "uint256[]",
              "name": "compactedMinPricesIndexes",
              "type": "uint256[]"
            },
            {
              "internalType": "uint256[]",
              "name": "compactedMaxPrices",
              "type": "uint256[]"
            },
            {
              "internalType": "uint256[]",
              "name": "compactedMaxPricesIndexes",
              "type": "uint256[]"
            },
            {
              "internalType": "bytes[]",
              "name": "signatures",
              "type": "bytes[]"
            },
            {
              "internalType": "address[]",
              "name": "priceFeedTokens",
              "type": "address[]"
            },
            {
              "internalType": "address[]",
              "name": "realtimeFeedTokens",
              "type": "address[]"
            },
            {
              "internalType": "bytes[]",
              "name": "realtimeFeedData",
              "type": "bytes[]"
            }
          ],
          "internalType": "struct OracleUtils.SetPricesParams",
          "name": "oracleParams",
          "type": "tuple"
        },
        {
          "internalType": "address",
          "name": "keeper",
          "type": "address"
        }
      ],
      "name": "_executeWithdrawal",
      "outputs": [],
      "stateMutability": "nonpayable",
      "type": "function"
    },
    {
      "inputs": [
        {
          "internalType": "bytes32",
          "name": "key",
          "type": "bytes32"
        }
      ],
      "name": "cancelWithdrawal",
      "outputs": [],
      "stateMutability": "nonpayable",
      "type": "function"
    },
    {
      "inputs": [
        {
          "internalType": "address",
          "name": "account",
          "type": "address"
        },
        {
          "components": [
            {
              "internalType": "address",
              "name": "receiver",
              "type": "address"
            },
            {
              "internalType": "address",
              "name": "callbackContract",
              "type": "address"
            },
            {
              "internalType": "address",
              "name": "uiFeeReceiver",
              "type": "address"
            },
            {
              "internalType": "address",
              "name": "market",
              "type": "address"
            },
            {
              "internalType": "address[]",
              "name": "longTokenSwapPath",
              "type": "address[]"
            },
            {
              "internalType": "address[]",
              "name": "shortTokenSwapPath",
              "type": "address[]"
            },
            {
              "internalType": "uint256",
              "name": "minLongTokenAmount",
              "type": "uint256"
            },
            {
              "internalType": "uint256",
              "name": "minShortTokenAmount",
              "type": "uint256"
            },
            {
              "internalType": "bool",
              "name": "shouldUnwrapNativeToken",
              "type": "bool"
            },
            {
              "internalType": "uint256",
              "name": "executionFee",
              "type": "uint256"
            },
            {
              "internalType": "uint256",
              "name": "callbackGasLimit",
              "type": "uint256"
            }
          ],
          "internalType": "struct WithdrawalUtils.CreateWithdrawalParams",
          "name": "params",
          "type": "tuple"
        }
      ],
      "name": "createWithdrawal",
      "outputs": [
        {
          "internalType": "bytes32",
          "name": "",
          "type": "bytes32"
        }
      ],
      "stateMutability": "nonpayable",
      "type": "function"
    },
    {
      "inputs": [],
      "name": "dataStore",
      "outputs": [
        {
          "internalType": "contract DataStore",
          "name": "",
          "type": "address"
        }
      ],
      "stateMutability": "view",
      "type": "function"
    },
    {
      "inputs": [],
      "name": "eventEmitter",
      "outputs": [
        {
          "internalType": "contract EventEmitter",
          "name": "",
          "type": "address"
        }
      ],
      "stateMutability": "view",
      "type": "function"
    },
    {
      "inputs": [
        {
          "internalType": "bytes32",
          "name": "key",
          "type": "bytes32"
        },
        {
          "components": [
            {
              "internalType": "uint256",
              "name": "signerInfo",
              "type": "uint256"
            },
            {
              "internalType": "address[]",
              "name": "tokens",
              "type": "address[]"
            },
            {
              "internalType": "uint256[]",
              "name": "compactedMinOracleBlockNumbers",
              "type": "uint256[]"
            },
            {
              "internalType": "uint256[]",
              "name": "compactedMaxOracleBlockNumbers",
              "type": "uint256[]"
            },
            {
              "internalType": "uint256[]",
              "name": "compactedOracleTimestamps",
              "type": "uint256[]"
            },
            {
              "internalType": "uint256[]",
              "name": "compactedDecimals",
              "type": "uint256[]"
            },
            {
              "internalType": "uint256[]",
              "name": "compactedMinPrices",
              "type": "uint256[]"
            },
            {
              "internalType": "uint256[]",
              "name": "compactedMinPricesIndexes",
              "type": "uint256[]"
            },
            {
              "internalType": "uint256[]",
              "name": "compactedMaxPrices",
              "type": "uint256[]"
            },
            {
              "internalType": "uint256[]",
              "name": "compactedMaxPricesIndexes",
              "type": "uint256[]"
            },
            {
              "internalType": "bytes[]",
              "name": "signatures",
              "type": "bytes[]"
            },
            {
              "internalType": "address[]",
              "name": "priceFeedTokens",
              "type": "address[]"
            },
            {
              "internalType": "address[]",
              "name": "realtimeFeedTokens",
              "type": "address[]"
            },
            {
              "internalType": "bytes[]",
              "name": "realtimeFeedData",
              "type": "bytes[]"
            }
          ],
          "internalType": "struct OracleUtils.SetPricesParams",
          "name": "oracleParams",
          "type": "tuple"
        }
      ],
      "name": "executeWithdrawal",
      "outputs": [],
      "stateMutability": "nonpayable",
      "type": "function"
    },
    {
      "inputs": [],
      "name": "oracle",
      "outputs": [
        {
          "internalType": "contract Oracle",
          "name": "",
          "type": "address"
        }
      ],
      "stateMutability": "view",
      "type": "function"
    },
    {
      "inputs": [],
      "name": "roleStore",
      "outputs": [
        {
          "internalType": "contract RoleStore",
          "name": "",
          "type": "address"
        }
      ],
      "stateMutability": "view",
      "type": "function"
    },
    {
      "inputs": [
        {
          "internalType": "bytes32",
          "name": "key",
          "type": "bytes32"
        },
        {
          "components": [
            {
              "internalType": "address[]",
              "name": "primaryTokens",
              "type": "address[]"
            },
            {
              "components": [
                {
                  "internalType": "uint256",
                  "name": "min",
                  "type": "uint256"
                },
                {
                  "internalType": "uint256",
                  "name": "max",
                  "type": "uint256"
                }
              ],
              "internalType": "struct Price.Props[]",
              "name": "primaryPrices",
              "type": "tuple[]"
            }
          ],
          "internalType": "struct OracleUtils.SimulatePricesParams",
          "name": "params",
          "type": "tuple"
        }
      ],
      "name": "simulateExecuteWithdrawal",
      "outputs": [],
      "stateMutability": "nonpayable",
      "type": "function"
    },
    {
      "inputs": [],
      "name": "withdrawalVault",
      "outputs": [
        {
          "internalType": "contract WithdrawalVault",
          "name": "",
          "type": "address"
        }
      ],
      "stateMutability": "view",
      "type": "function"
    }
  ],
  "bytecode": "0x61012060405234801561001157600080fd5b50604051613b77380380613b7783398101604081905261003091610071565b6001600160a01b0393841660805293831660a05290821660c052811660e05216610100526100e6565b6001600160a01b038116811461006e57600080fd5b50565b600080600080600060a0868803121561008957600080fd5b855161009481610059565b60208701519095506100a581610059565b60408701519094506100b681610059565b60608701519093506100c781610059565b60808701519092506100d881610059565b809150509295509295909350565b60805160a05160c05160e05161010051613975610202600039600081816101650152818161025f015281816105aa01528181610c520152610dc301526000818161012b015281816109c501528181610b3901528181610d9401526113c50152600081816101ad015281816102a1015281816109a401528181610b1701528181610d6501526113a301526000818160ad015261105d015260008181610104015281816102800152818161034e015281816103d9015281816104050152818161043201528181610785015281816108a401528181610a9e01528181610af501528181610c0401528181610c7f01528181610d3601528181610e8f01528181610f92015281816112dd01528181611381015261143001526139756000f3fe608060405234801561001057600080fd5b506004361061008e5760003560e01c8063185add7f146100935780634a4a7b04146100a85780636331d7a7146100ec578063660d0d67146100ff57806369d42148146101265780637213c5a01461014d5780637dc0d1d01461016057806398b523ca146101875780639ff78c30146101a8578063c81f7033146101cf575b600080fd5b6100a66100a1366004611ed8565b6101e2565b005b6100cf7f000000000000000000000000000000000000000000000000000000000000000081565b6040516001600160a01b0390911681526020015b60405180910390f35b6100a66100fa36600461212d565b610558565b6100cf7f000000000000000000000000000000000000000000000000000000000000000081565b6100cf7f000000000000000000000000000000000000000000000000000000000000000081565b6100a661015b366004612254565b610875565b6100cf7f000000000000000000000000000000000000000000000000000000000000000081565b61019a61019536600461226d565b610a7d565b6040519081526020016100e3565b6100cf7f000000000000000000000000000000000000000000000000000000000000000081565b6100a66101dd366004612706565b610bb6565b6101ea610e8b565b61025d60405160200161021d906020808252600c908201526b27a92222a92fa5a2a2a822a960a11b604082015260600190565b604051602081830303815290604052805190602001206040518060400160405280600c81526020016b27a92222a92fa5a2a2a822a960a11b815250611046565b7f00000000000000000000000000000000000000000000000000000000000000007f00000000000000000000000000000000000000000000000000000000000000007f00000000000000000000000000000000000000000000000000000000000000006102c984612896565b6040516304a76ae360e21b81526001600160a01b0385169063129dab8c906102f990869086908690600401612b29565b600060405180830381600087803b15801561031357600080fd5b505af1158015610327573d6000803e3d6000fd5b5050505060005a9050600073__$3dc24d71d6ebafc0c4ce8ac2f69cd1548a$__63fdfc26f37f00000000000000000000000000000000000000000000000000000000000000008a6040518363ffffffff1660e01b815260040161038b929190612b55565b600060405180830381865af41580156103a8573d6000803e3d6000fd5b505050506040513d6000823e601f3d908101601f191682016040526103d09190810190612c60565b905060006103fe7f0000000000000000000000000000000000000000000000000000000000000000836110f6565b905061042b7f00000000000000000000000000000000000000000000000000000000000000008483611245565b60006104577f000000000000000000000000000000000000000000000000000000000000000085611293565b60405163c81f703360e01b8152909150309063c81f7033908390610485908e9088908f90339060040161301b565b600060405180830381600088803b15801561049f57600080fd5b5087f1935050505080156104b1575060015b6104f2573d8080156104df576040519150601f19603f3d011682016040523d82523d6000602084013e6104e4565b606091505b506104f08b86836112d8565b505b50505050836001600160a01b031662ccf1556040518163ffffffff1660e01b8152600401600060405180830381600087803b15801561053057600080fd5b505af1158015610544573d6000803e3d6000fd5b505050505050505061055461142e565b5050565b6105a860405160200161056a90613232565b604051602081830303815290604052805190602001206040518060400160405280600a81526020016921a7a72a2927a62622a960b11b815250611046565b7f000000000000000000000000000000000000000000000000000000000000000081806020015151816000015151146106085780515160208201515160405163663de02360e01b81526105ff929190600401613256565b60405180910390fd5b60005b8151518110156106d85760008260000151828151811061062d5761062d613264565b6020026020010151905060008360200151838151811061064f5761064f613264565b6020908102919091018101516040516347cba33d60e01b81526001600160a01b03858116600483015282516024830152928201516044820152909250908616906347cba33d90606401600060405180830381600087803b1580156106b257600080fd5b505af11580156106c6573d6000803e3d6000fd5b50506001909401935061060b92505050565b506106e1610e8b565b610753604051806101c0016040528060008152602001606081526020016060815260200160608152602001606081526020016060815260200160608152602001606081526020016060815260200160608152602001606081526020016060815260200160608152602001606081525090565b60405163fdfc26f360e01b815260009073__$3dc24d71d6ebafc0c4ce8ac2f69cd1548a$__9063fdfc26f3906107af907f0000000000000000000000000000000000000000000000000000000000000000908a90600401612b55565b600060405180830381865af41580156107cc573d6000803e3d6000fd5b505050506040513d6000823e601f3d908101601f191682016040526107f49190810190612c60565b60405163c81f703360e01b8152909150309063c81f70339061082090899085908790339060040161327a565b600060405180830381600087803b15801561083a57600080fd5b505af115801561084e573d6000803e3d6000fd5b50505050505061085c61142e565b6040516327246e6d60e11b815260040160405180910390fd5b61087d610e8b565b61088f60405160200161056a90613232565b60005a60405163fdfc26f360e01b81529091507f00000000000000000000000000000000000000000000000000000000000000009060009073__$3dc24d71d6ebafc0c4ce8ac2f69cd1548a$__9063fdfc26f3906108f39085908890600401612b55565b600060405180830381865af4158015610910573d6000803e3d6000fd5b505050506040513d6000823e601f3d908101601f191682016040526109389190810190612c60565b905061094c82610947306114e4565b61157c565b6109878261095f83602001516060015190565b6040518060400160405280600a81526020016915da5d1a191c985dd85b60b21b8152506115a7565b73__$b16dc1d178619391e781edffc4bee00572$__63e923fdc4837f00000000000000000000000000000000000000000000000000000000000000007f0000000000000000000000000000000000000000000000000000000000000000886109ee87515190565b60408051808201825260158152741554d15497d2539255125055115117d0d05390d153605a1b602082015290516001600160e01b031960e089901b168152610a3f9695949392918c916004016132bf565b60006040518083038186803b158015610a5757600080fd5b505af4158015610a6b573d6000803e3d6000fd5b50505050505050610a7a61142e565b50565b6000610a87610e8b565b610a9960405160200161056a90613232565b610ac67f0000000000000000000000000000000000000000000000000000000000000000610947306116b4565b6040516322d0c78160e11b815273__$b16dc1d178619391e781edffc4bee00572$__906345a18f0290610b65907f0000000000000000000000000000000000000000000000000000000000000000907f0000000000000000000000000000000000000000000000000000000000000000907f00000000000000000000000000000000000000000000000000000000000000009089908990600401613329565b602060405180830381865af4158015610b82573d6000803e3d6000fd5b505050506040513d601f19601f82011682018060405250810190610ba6919061345e565b9050610bb061142e565b92915050565b333014610bfa576040805163a35b150b60e01b815233600480830191909152602482019290925260448101919091526329a2a62360e11b60648201526084016105ff565b60005a9050610c2c7f000000000000000000000000000000000000000000000000000000000000000061094730611702565b6101808301516101a084015160405163f81a03c360e01b81526000926001600160a01b037f0000000000000000000000000000000000000000000000000000000000000000169263f81a03c392610ca9927f0000000000000000000000000000000000000000000000000000000000000000929091600401613477565b6000604051808303816000875af1158015610cc8573d6000803e3d6000fd5b505050506040513d6000823e601f3d908101601f19168201604052610cf09190810190613526565b90506000610d0a8560400151866020015151846000611751565b90506000610d248660600151876020015151856001611751565b905060006040518061012001604052807f00000000000000000000000000000000000000000000000000000000000000006001600160a01b031681526020017f00000000000000000000000000000000000000000000000000000000000000006001600160a01b031681526020017f00000000000000000000000000000000000000000000000000000000000000006001600160a01b031681526020017f00000000000000000000000000000000000000000000000000000000000000006001600160a01b031681526020018a8152602001848152602001838152602001876001600160a01b0316815260200186815250905073__$dc5a8e47eade308c27fad0f4e67e7ca7d0$__63ddbba25f828a6040518363ffffffff1660e01b8152600401610e50929190613654565b60006040518083038186803b158015610e6857600080fd5b505af4158015610e7c573d6000803e3d6000fd5b50505050505050505050505050565b60007f00000000000000000000000000000000000000000000000000000000000000006001600160a01b031663bd02d0f5604051602001610ecb90613719565b604051602081830303815290604052805190602001206040518263ffffffff1660e01b8152600401610eff91815260200190565b602060405180830381865afa158015610f1c573d6000803e3d6000fd5b505050506040513d601f19601f82011682018060405250810190610f40919061345e565b90508015610f905760405162461bcd60e51b815260206004820152601f60248201527f5265656e7472616e637947756172643a207265656e7472616e742063616c6c0060448201526064016105ff565b7f00000000000000000000000000000000000000000000000000000000000000006001600160a01b031663e2a4853a604051602001610fce90613719565b6040516020818303038152906040528051906020012060016040518363ffffffff1660e01b8152600401611003929190613256565b6020604051808303816000875af1158015611022573d6000803e3d6000fd5b505050506040513d601f19601f82011682018060405250810190610554919061345e565b60405163ac4ab3fb60e01b81526001600160a01b037f0000000000000000000000000000000000000000000000000000000000000000169063ac4ab3fb906110949033908690600401612b55565b602060405180830381865afa1580156110b1573d6000803e3d6000fd5b505050506040513d601f19601f820116820180604052508101906110d5919061374a565b61055457338160405163a35b150b60e01b81526004016105ff929190613767565b600080836001600160a01b031663bd02d0f5611110611915565b6040518263ffffffff1660e01b815260040161112e91815260200190565b602060405180830381865afa15801561114b573d6000803e3d6000fd5b505050506040513d601f19601f8201168201806040525081019061116f919061345e565b9050600061117f845160c0015190565b51845160a001515161119191906137a1565b9050600061119f83836137b4565b9050806111b1866020015160a0015190565b876001600160a01b031663bd02d0f56111c861196b565b6040518263ffffffff1660e01b81526004016111e691815260200190565b602060405180830381865afa158015611203573d6000803e3d6000fd5b505050506040513d601f19601f82011682018060405250810190611227919061345e565b61123191906137a1565b61123b91906137a1565b9695505050505050565b6000611250846119c7565b905061125c81836137a1565b83101561128d5760405163bb416f9360e01b81526004810184905260248101839052604481018290526064016105ff565b50505050565b60008061129f84611a8c565b9050808310156112c6578281604051631e4a4e5960e21b81526004016105ff929190613256565b6112d081846137cb565b949350505050565b6113027f000000000000000000000000000000000000000000000000000000000000000082611af0565b600061130f826020015190565b905061131a81611b3e565b8061133557506001600160e01b0319811663dd70e0c960e01b145b156113435761134382611b74565b600061134e83611b7d565b50604051633a48ff7160e21b815290915073__$b16dc1d178619391e781edffc4bee00572$__9063e923fdc4906113f7907f0000000000000000000000000000000000000000000000000000000000000000907f0000000000000000000000000000000000000000000000000000000000000000907f0000000000000000000000000000000000000000000000000000000000000000908b9033908c908a908d906004016137de565b60006040518083038186803b15801561140f57600080fd5b505af4158015611423573d6000803e3d6000fd5b505050505050505050565b7f00000000000000000000000000000000000000000000000000000000000000006001600160a01b031663e2a4853a60405160200161146c90613719565b6040516020818303038152906040528051906020012060006040518363ffffffff1660e01b81526004016114a1929190613256565b6020604051808303816000875af11580156114c0573d6000803e3d6000fd5b505050506040513d601f19601f82011682018060405250810190610a7a919061345e565b60006040516020016115329060208082526022908201527f43414e43454c5f5749544844524157414c5f464541545552455f44495341424c604082015261115160f21b606082015260800190565b60408051601f198184030181528282528051602091820120908301526001600160a01b03841690820152606001604051602081830303815290604052805190602001209050919050565b6115868282611c0d565b156105545760405163dd70e0c960e01b8152600481018290526024016105ff565b6000836001600160a01b031663bd02d0f56040516020016115f8906020808252601c908201527b524551554553545f45585049524154494f4e5f424c4f434b5f41474560201b604082015260600190565b604051602081830303815290604052805190602001206040518263ffffffff1660e01b815260040161162c91815260200190565b602060405180830381865afa158015611649573d6000803e3d6000fd5b505050506040513d601f19601f8201168201806040525081019061166d919061345e565b905060008361167a611c80565b61168491906137cb565b9050818110156116ad57808284604051631d04cc8760e31b81526004016105ff9392919061384a565b5050505050565b60006040516020016115329060208082526022908201527f4352454154455f5749544844524157414c5f464541545552455f44495341424c604082015261115160f21b606082015260800190565b60006040516020016115329060208082526023908201527f455845435554455f5749544844524157414c5f464541545552455f444953414260408201526213115160ea1b606082015260800190565b6060600083518561176291906137a1565b6001600160401b0381111561177957611779611f33565b6040519080825280602002602001820160405280156117a2578160200160208202803683370190505b50905060005b858110156117df576117ba8782611cfc565b8282815181106117cc576117cc613264565b60209081029190910101526001016117a8565b5060008360018111156117f4576117f4613869565b036118625760005b845181101561185c5784818151811061181757611817613264565b602002602001015160e001516001600160401b031682828861183991906137a1565b8151811061184957611849613264565b60209081029190910101526001016117fc565b5061190c565b600183600181111561187657611876613869565b036118de5760005b845181101561185c5784818151811061189957611899613264565b602002602001015160a001516001600160401b03168282886118bb91906137a1565b815181106118cb576118cb613264565b602090810291909101015260010161187e565b8260018111156118f0576118f0613869565b60405163b602928160e01b81526004016105ff91815260200190565b95945050505050565b60006040516020016119509060208082526015908201527414d25391d31157d4d5d05417d1d054d7d312535255605a1b604082015260600190565b60405160208183030381529060405280519060200120905090565b60006040516020016119a59060208082526014908201527315d2551211149055d05317d1d054d7d31253525560621b604082015260600190565b60408051601f1981840301815282825280516020918201209083015201611950565b6000816001600160a01b031663bd02d0f5604051602001611a17906020808252818101527f4d494e5f4144444954494f4e414c5f4741535f464f525f455845435554494f4e604082015260600190565b604051602081830303815290604052805190602001206040518263ffffffff1660e01b8152600401611a4b91815260200190565b602060405180830381865afa158015611a68573d6000803e3d6000fd5b505050506040513d601f19601f82011682018060405250810190610bb0919061345e565b6000816001600160a01b031663bd02d0f5604051602001611a179060208082526029908201527f4d494e5f48414e444c455f455845435554494f4e5f4552524f525f4741535f5460408201526813d7d193d495d0549160ba1b606082015260800190565b8051151580611afe57503215155b15611b07575050565b60005a90506000611b1784611d6e565b90508082101561128d578181604051633083b9e560e01b81526004016105ff929190613256565b6000611b4982611dc0565b15611b5657506001919050565b611b5f82611e02565b15611b6c57506001919050565b506000919050565b80518060208301fd5b60606000604483511015611ba4575050604080516020810190915260008082529092909150565b6000611bb1846020015190565b90506307b9e43360e51b6001600160e01b0319821601611bf05760048401935083806020019051810190611be5919061387f565b946001945092505050565b600060405180602001604052806000815250909250925050915091565b604051633d70e7e560e11b8152600481018290526000906001600160a01b03841690637ae1cfca90602401602060405180830381865afa158015611c55573d6000803e3d6000fd5b505050506040513d601f19601f82011682018060405250810190611c79919061374a565b9392505050565b6000611c8a611e24565b15611cf75760646001600160a01b031663a3b1b31d6040518163ffffffff1660e01b8152600401602060405180830381865afa158015611cce573d6000803e3d6000fd5b505050506040513d601f19601f82011682018060405250810190611cf2919061345e565b905090565b504390565b600080611d488484604060c0600019901c6040518060400160405280601f81526020017f676574556e636f6d7061637465644f7261636c65426c6f636b4e756d62657200815250611e3b565b905080600003611c795760405163349f5fdd60e11b8152600481018490526024016105ff565b6000816001600160a01b031663bd02d0f5604051602001611a17906020808252601e908201527f4d494e5f48414e444c455f455845435554494f4e5f4552524f525f4741530000604082015260600190565b600063010dcfd160e71b6001600160e01b0319831601611de257506001919050565b6341f057fb60e11b6001600160e01b0319831601611b6c57506001919050565b600063329b5fdb60e01b6001600160e01b0319831601611b6c57506001919050565b600061a4b1461480611cf25750504662066eee1490565b600080611e4a856101006138ec565b90506000611e5882886138ec565b905087518110611e83578787828660405163bdec9c0d60e01b81526004016105ff949392919061390e565b6000888281518110611e9757611e97613264565b602002602001015190506000878484611eb091906137b4565b611eba908b6137cb565b611ec491906137b4565b9190911c8616935050505095945050505050565b60008060408385031215611eeb57600080fd5b8235915060208301356001600160401b03811115611f0857600080fd5b83016101c08186031215611f1b57600080fd5b809150509250929050565b6001600160a01b03169052565b634e487b7160e01b600052604160045260246000fd5b604080519081016001600160401b0381118282101715611f6b57611f6b611f33565b60405290565b60405160c081016001600160401b0381118282101715611f6b57611f6b611f33565b604051602081016001600160401b0381118282101715611f6b57611f6b611f33565b6040516101c081016001600160401b0381118282101715611f6b57611f6b611f33565b604051606081016001600160401b0381118282101715611f6b57611f6b611f33565b60405160e081016001600160401b0381118282101715611f6b57611f6b611f33565b60405161012081016001600160401b0381118282101715611f6b57611f6b611f33565b604051601f8201601f191681016001600160401b038111828210171561206757612067611f33565b604052919050565b60006001600160401b0382111561208857612088611f33565b5060051b60200190565b6001600160a01b0381168114610a7a57600080fd5b80356120b281612092565b919050565b600082601f8301126120c857600080fd5b81356120db6120d68261206f565b61203f565b8082825260208201915060208360051b8601019250858311156120fd57600080fd5b602085015b8381101561212357803561211581612092565b835260209283019201612102565b5095945050505050565b6000806040838503121561214057600080fd5b8235915060208301356001600160401b0381111561215d57600080fd5b83016040818603121561216f57600080fd5b612177611f49565b81356001600160401b0381111561218d57600080fd5b612199878285016120b7565b82525060208201356001600160401b038111156121b557600080fd5b80830192505085601f8301126121ca57600080fd5b81356121d86120d68261206f565b8082825260208201915060208360061b8601019250888311156121fa57600080fd5b6020850194505b82851015612242576040858a03121561221957600080fd5b612221611f49565b85358152602080870135818301529083526040909501949190910190612201565b60208401525093969095509350505050565b60006020828403121561226657600080fd5b5035919050565b6000806040838503121561228057600080fd5b823561228b81612092565b915060208301356001600160401b038111156122a657600080fd5b83016101608186031215611f1b57600080fd5b600060c082840312156122cb57600080fd5b6122d3611f71565b823581526020808401359082015260408084013590820152606080840135908201526080808401359082015260a0928301359281019290925250919050565b8015158114610a7a57600080fd5b80356120b281612312565b60006020828403121561233d57600080fd5b612345611f93565b9050813561235281612312565b815292915050565b600082601f83011261236b57600080fd5b81356123796120d68261206f565b8082825260208201915060208360051b86010192508583111561239b57600080fd5b602085015b838110156121235780358352602092830192016123a0565b60006001600160401b038211156123d1576123d1611f33565b50601f01601f191660200190565b600082601f8301126123f057600080fd5b81356123fe6120d68261206f565b8082825260208201915060208360051b86010192508583111561242057600080fd5b602085015b838110156121235780356001600160401b0381111561244357600080fd5b8601603f8101881361245457600080fd5b60208101356124656120d6826123b8565b8181526040838301018a101561247a57600080fd5b81604084016020830137600060208383010152808652505050602083019250602081019050612425565b60006101c082840312156124b757600080fd5b6124bf611fb5565b82358152905060208201356001600160401b038111156124de57600080fd5b6124ea848285016120b7565b60208301525060408201356001600160401b0381111561250957600080fd5b6125158482850161235a565b60408301525060608201356001600160401b0381111561253457600080fd5b6125408482850161235a565b60608301525060808201356001600160401b0381111561255f57600080fd5b61256b8482850161235a565b60808301525060a08201356001600160401b0381111561258a57600080fd5b6125968482850161235a565b60a08301525060c08201356001600160401b038111156125b557600080fd5b6125c18482850161235a565b60c08301525060e08201356001600160401b038111156125e057600080fd5b6125ec8482850161235a565b60e0830152506101008201356001600160401b0381111561260c57600080fd5b6126188482850161235a565b610100830152506101208201356001600160401b0381111561263957600080fd5b6126458482850161235a565b610120830152506101408201356001600160401b0381111561266657600080fd5b612672848285016123df565b610140830152506101608201356001600160401b0381111561269357600080fd5b61269f848285016120b7565b610160830152506101808201356001600160401b038111156126c057600080fd5b6126cc848285016120b7565b610180830152506101a08201356001600160401b038111156126ed57600080fd5b6126f9848285016123df565b6101a08301525092915050565b6000806000806080858703121561271c57600080fd5b8435935060208501356001600160401b0381111561273957600080fd5b8501610100818803121561274c57600080fd5b612754611fd8565b81356001600160401b0381111561276a57600080fd5b820160e0818a03121561277c57600080fd5b612784611ffa565b61278d826120a7565b815261279b602083016120a7565b60208201526127ac604083016120a7565b60408201526127bd606083016120a7565b60608201526127ce608083016120a7565b608082015260a08201356001600160401b038111156127ec57600080fd5b6127f88b8285016120b7565b60a08301525060c08201356001600160401b0381111561281757600080fd5b6128238b8285016120b7565b60c08301525082525061283988602084016122b9565b602082015261284b8860e0840161232b565b60408281019190915290945086013590506001600160401b0381111561287057600080fd5b61287c878288016124a4565b92505061288b606086016120a7565b905092959194509250565b6000610bb036836124a4565b600081518084526020840193506020830160005b828110156128dd5781516001600160a01b03168652602095860195909101906001016128b6565b5093949350505050565b600081518084526020840193506020830160005b828110156128dd5781518652602095860195909101906001016128fb565b60005b8381101561293457818101518382015260200161291c565b50506000910152565b60008151808452612955816020860160208601612919565b601f01601f19169290920160200192915050565b600082825180855260208501945060208160051b8301016020850160005b838110156129b957601f198584030188526129a383835161293d565b6020988901989093509190910190600101612987565b50909695505050505050565b80518252600060208201516101c060208501526129e66101c08501826128a2565b9050604083015184820360408601526129ff82826128e7565b91505060608301518482036060860152612a1982826128e7565b91505060808301518482036080860152612a3382826128e7565b91505060a083015184820360a0860152612a4d82826128e7565b91505060c083015184820360c0860152612a6782826128e7565b91505060e083015184820360e0860152612a8182826128e7565b915050610100830151848203610100860152612a9d82826128e7565b915050610120830151848203610120860152612ab982826128e7565b915050610140830151848203610140860152612ad58282612969565b915050610160830151848203610160860152612af182826128a2565b915050610180830151848203610180860152612b0d82826128a2565b9150506101a08301518482036101a086015261190c8282612969565b6001600160a01b0384811682528316602082015260606040820181905260009061190c908301846129c5565b6001600160a01b03929092168252602082015260400190565b80516120b281612092565b600082601f830112612b8a57600080fd5b8151612b986120d68261206f565b8082825260208201915060208360051b860101925085831115612bba57600080fd5b602085015b83811015612123578051612bd281612092565b835260209283019201612bbf565b600060c08284031215612bf257600080fd5b612bfa611f71565b825181526020808401519082015260408084015190820152606080840151908201526080808401519082015260a0928301519281019290925250919050565b600060208284031215612c4b57600080fd5b612c53611f93565b9050815161235281612312565b600060208284031215612c7257600080fd5b81516001600160401b03811115612c8857600080fd5b82016101008185031215612c9b57600080fd5b612ca3611fd8565b81516001600160401b03811115612cb957600080fd5b820160e08187031215612ccb57600080fd5b612cd3611ffa565b612cdc82612b6e565b8152612cea60208301612b6e565b6020820152612cfb60408301612b6e565b6040820152612d0c60608301612b6e565b6060820152612d1d60808301612b6e565b608082015260a08201516001600160401b03811115612d3b57600080fd5b612d4788828501612b79565b60a08301525060c08201516001600160401b03811115612d6657600080fd5b612d7288828501612b79565b60c083015250825250612d888560208401612be0565b6020820152612d9a8560e08401612c39565b6040820152949350505050565b805161010080845281516001600160a01b039081169185019190915260208201518116610120850152604082015116610140840152606081015160009190612df3610160860182611f26565b506080810151612e07610180860182611f26565b5060a081015160e06101a0860152612e236101e08601826128a2565b905060c0820151915060ff19858203016101c0860152612e4381836128a2565b9150506020830151612e8d6020860182805182526020810151602083015260408101516040830152606081015160608301526080810151608083015260a081015160a08301525050565b5060408301518051151560e0860152509392505050565b6000808335601e19843603018112612ebb57600080fd5b83016020810192503590506001600160401b03811115612eda57600080fd5b8060051b3603821315612eec57600080fd5b9250929050565b81835260208301925060008160005b848110156128dd578135612f1581612092565b6001600160a01b031686526020958601959190910190600101612f02565b81835260006001600160fb1b03831115612f4c57600080fd5b8260051b80836020870137939093016020019392505050565b81835281816020850137506000828201602090810191909152601f909101601f19169091010190565b60008383855260208501945060208460051b8201018360005b868110156129b957838303601f19018852813536879003601e19018112612fcd57600080fd5b86016020810190356001600160401b03811115612fe957600080fd5b803603821315612ff857600080fd5b613003858284612f65565b60209a8b019a90955093909301925050600101612fa7565b8481526080602082015260006130346080830186612da7565b82810360408401528435815261304d6020860186612ea4565b6101c060208401526130646101c084018284612ef3565b9150506130746040870187612ea4565b8383036040850152613087838284612f33565b925050506130986060870187612ea4565b83830360608501526130ab838284612f33565b925050506130bc6080870187612ea4565b83830360808501526130cf838284612f33565b925050506130e060a0870187612ea4565b83830360a08501526130f3838284612f33565b9250505061310460c0870187612ea4565b83830360c0850152613117838284612f33565b9250505061312860e0870187612ea4565b83830360e085015261313b838284612f33565b9250505061314d610100870187612ea4565b838303610100850152613161838284612f33565b92505050613173610120870187612ea4565b838303610120850152613187838284612f33565b92505050613199610140870187612ea4565b8383036101408501526131ad838284612f8e565b925050506131bf610160870187612ea4565b8383036101608501526131d3838284612ef3565b925050506131e5610180870187612ea4565b8383036101808501526131f9838284612ef3565b9250505061320b6101a0870187612ea4565b8383036101a085015261321f838284612f8e565b94505050505061190c6060830184611f26565b6020808252600a908201526921a7a72a2927a62622a960b11b604082015260600190565b918252602082015260400190565b634e487b7160e01b600052603260045260246000fd5b8481526080602082015260006132936080830186612da7565b82810360408401526132a581866129c5565b91505060018060a01b038316606083015295945050505050565b6001600160a01b03888116825287811660208301528681166040830152606082018690528416608082015260a0810183905261010060c0820181905260009061330a9083018461293d565b82810360e0840152600081526020810191505098975050505050505050565b6001600160a01b038681168252858116602083015284811660408301528316606082015260a06080820181905261336a908201613365846120a7565b611f26565b6000613378602084016120a7565b61338560c0840182611f26565b50613392604084016120a7565b61339f60e0840182611f26565b506133ac606084016120a7565b6133ba610100840182611f26565b506133c86080840184612ea4565b6101606101208501526133e061020085018284612ef3565b9150506133f060a0850185612ea4565b848303609f1901610140860152613408838284612ef3565b60c087013561016087015260e087013561018087015292506134309150506101008501612320565b15156101a08401526101208401356101c0840152610140909301356101e09092019190915250949350505050565b60006020828403121561347057600080fd5b5051919050565b6001600160a01b0384168152606060208083018290528451918301829052600091908501906080840190835b818110156134ca5783516001600160a01b03168352602093840193909201916001016134a3565b505083810360408501526134de8186612969565b979650505050505050565b805163ffffffff811681146120b257600080fd5b8051601781900b81146120b257600080fd5b80516001600160401b03811681146120b257600080fd5b60006020828403121561353857600080fd5b81516001600160401b0381111561354e57600080fd5b8201601f8101841361355f57600080fd5b805161356d6120d68261206f565b808282526020820191506020610120840285010192508683111561359057600080fd5b6020840193505b8284101561123b5761012084880312156135b057600080fd5b6135b861201c565b845181526135c8602086016134e9565b60208201526135d9604086016134fd565b60408201526135ea606086016134fd565b60608201526135fb608086016134fd565b608082015261360c60a0860161350f565b60a082015260c0858101519082015261362760e0860161350f565b60e0820152613639610100860161350f565b61010082015282526101209390930192602090910190613597565b60408152613666604082018451611f26565b6000602084015161367a6060840182611f26565b50604084015161368d6080840182611f26565b5060608401516136a060a0840182611f26565b50608084015160c083015260a084015161012060e08401526136c66101608401826128e7565b905060c0850151603f19848303016101008501526136e482826128e7565b91505060e08501516136fa610120850182611f26565b50610100850151610140840152828103602084015261190c8185612da7565b6020808252601790820152765245454e5452414e43595f47554152445f53544154555360481b604082015260600190565b60006020828403121561375c57600080fd5b8151611c7981612312565b6001600160a01b03831681526040602082018190526000906112d09083018461293d565b634e487b7160e01b600052601160045260246000fd5b80820180821115610bb057610bb061378b565b8082028115828204841417610bb057610bb061378b565b81810381811115610bb057610bb061378b565b6001600160a01b03898116825288811660208301528781166040830152606082018790528516608082015260a0810184905261010060c082018190526000906138299083018561293d565b82810360e084015261383b818561293d565b9b9a5050505050505050505050565b83815282602082015260606040820152600061190c606083018461293d565b634e487b7160e01b600052602160045260246000fd5b60006020828403121561389157600080fd5b81516001600160401b038111156138a757600080fd5b8201601f810184136138b857600080fd5b80516138c66120d6826123b8565b8181528560208385010111156138db57600080fd5b61190c826020830160208601612919565b60008261390957634e487b7160e01b600052601260045260246000fd5b500490565b60808152600061392160808301876128e7565b85602084015284604084015282810360608401526134de818561293d56fea264697066735822122092e2bbe8443c0503c92709b8fec62ad6ba6ef9399a663af899ce3c528099ef8264736f6c634300081a0033",
  "linkReferences": {
    "contracts/withdrawal/ExecuteWithdrawalUtils.sol": {
      "ExecuteWithdrawalUtils": [
        {
          "length": 20,
          "start": 4123
        }
      ]
    },
    "contracts/withdrawal/WithdrawalStoreUtils.sol": {
      "WithdrawalStoreUtils": [
        {
          "length": 20,
          "start": 1334
        },
        {
          "length": 20,
          "start": 2407
        },
        {
          "length": 20,
          "start": 2763
        }
      ]
    },
    "contracts/withdrawal/WithdrawalUtils.sol": {
      "WithdrawalUtils": [
        {
          "length": 20,
          "start": 2955
        },
        {
          "length": 20,
          "start": 3287
        },
        {
          "length": 20,
          "start": 5475
        }
      ]
    }
  },
  "deployedLinkReferences": {
    "contracts/withdrawal/ExecuteWithdrawalUtils.sol": {
      "ExecuteWithdrawalUtils": [
        {
          "length": 20,
          "start": 3609
        }
      ]
    },
    "contracts/withdrawal/WithdrawalStoreUtils.sol": {
      "WithdrawalStoreUtils": [
        {
          "length": 20,
          "start": 820
        },
        {
          "length": 20,
          "start": 1893
        },
        {
          "length": 20,
          "start": 2249
        }
      ]
    },
    "contracts/withdrawal/WithdrawalUtils.sol": {
      "WithdrawalUtils": [
        {
          "length": 20,
          "start": 2441
        },
        {
          "length": 20,
          "start": 2773
        },
        {
          "length": 20,
          "start": 4961
        }
      ]
    }
  }
}