{
  "_format": "hh-sol-artifact-1",
  "contractName": "OrderStoreUtils",
  "sourceName": "contracts/order/OrderStoreUtils.sol",
  "abi": [
    {
      "inputs": [
        {
          "internalType": "bytes32",
          "name": "key",
          "type": "bytes32"
        }
      ],
      "name": "OrderNotFound",
      "type": "error"
    },
    {
      "inputs": [],
      "name": "ACCEPTABLE_PRICE",
      "outputs": [
        {
          "internalType": "bytes32",
          "name": "",
          "type": "bytes32"
        }
      ],
      "stateMutability": "view",
      "type": "function"
    },
    {
      "inputs": [],
      "name": "ACCOUNT",
      "outputs": [
        {
          "internalType": "bytes32",
          "name": "",
          "type": "bytes32"
        }
      ],
      "stateMutability": "view",
      "type": "function"
    },
    {
      "inputs": [],
      "name": "CALLBACK_CONTRACT",
      "outputs": [
        {
          "internalType": "bytes32",
          "name": "",
          "type": "bytes32"
        }
      ],
      "stateMutability": "view",
      "type": "function"
    },
    {
      "inputs": [],
      "name": "CALLBACK_GAS_LIMIT",
      "outputs": [
        {
          "internalType": "bytes32",
          "name": "",
          "type": "bytes32"
        }
      ],
      "stateMutability": "view",
      "type": "function"
    },
    {
      "inputs": [],
      "name": "DECREASE_POSITION_SWAP_TYPE",
      "outputs": [
        {
          "internalType": "bytes32",
          "name": "",
          "type": "bytes32"
        }
      ],
      "stateMutability": "view",
      "type": "function"
    },
    {
      "inputs": [],
      "name": "EXECUTION_FEE",
      "outputs": [
        {
          "internalType": "bytes32",
          "name": "",
          "type": "bytes32"
        }
      ],
      "stateMutability": "view",
      "type": "function"
    },
    {
      "inputs": [],
      "name": "INITIAL_COLLATERAL_DELTA_AMOUNT",
      "outputs": [
        {
          "internalType": "bytes32",
          "name": "",
          "type": "bytes32"
        }
      ],
      "stateMutability": "view",
      "type": "function"
    },
    {
      "inputs": [],
      "name": "INITIAL_COLLATERAL_TOKEN",
      "outputs": [
        {
          "internalType": "bytes32",
          "name": "",
          "type": "bytes32"
        }
      ],
      "stateMutability": "view",
      "type": "function"
    },
    {
      "inputs": [],
      "name": "IS_FROZEN",
      "outputs": [
        {
          "internalType": "bytes32",
          "name": "",
          "type": "bytes32"
        }
      ],
      "stateMutability": "view",
      "type": "function"
    },
    {
      "inputs": [],
      "name": "IS_LONG",
      "outputs": [
        {
          "internalType": "bytes32",
          "name": "",
          "type": "bytes32"
        }
      ],
      "stateMutability": "view",
      "type": "function"
    },
    {
      "inputs": [],
      "name": "MARKET",
      "outputs": [
        {
          "internalType": "bytes32",
          "name": "",
          "type": "bytes32"
        }
      ],
      "stateMutability": "view",
      "type": "function"
    },
    {
      "inputs": [],
      "name": "MIN_OUTPUT_AMOUNT",
      "outputs": [
        {
          "internalType": "bytes32",
          "name": "",
          "type": "bytes32"
        }
      ],
      "stateMutability": "view",
      "type": "function"
    },
    {
      "inputs": [],
      "name": "ORDER_TYPE",
      "outputs": [
        {
          "internalType": "bytes32",
          "name": "",
          "type": "bytes32"
        }
      ],
      "stateMutability": "view",
      "type": "function"
    },
    {
      "inputs": [],
      "name": "RECEIVER",
      "outputs": [
        {
          "internalType": "bytes32",
          "name": "",
          "type": "bytes32"
        }
      ],
      "stateMutability": "view",
      "type": "function"
    },
    {
      "inputs": [],
      "name": "SHOULD_UNWRAP_NATIVE_TOKEN",
      "outputs": [
        {
          "internalType": "bytes32",
          "name": "",
          "type": "bytes32"
        }
      ],
      "stateMutability": "view",
      "type": "function"
    },
    {
      "inputs": [],
      "name": "SIZE_DELTA_USD",
      "outputs": [
        {
          "internalType": "bytes32",
          "name": "",
          "type": "bytes32"
        }
      ],
      "stateMutability": "view",
      "type": "function"
    },
    {
      "inputs": [],
      "name": "SWAP_PATH",
      "outputs": [
        {
          "internalType": "bytes32",
          "name": "",
          "type": "bytes32"
        }
      ],
      "stateMutability": "view",
      "type": "function"
    },
    {
      "inputs": [],
      "name": "TRIGGER_PRICE",
      "outputs": [
        {
          "internalType": "bytes32",
          "name": "",
          "type": "bytes32"
        }
      ],
      "stateMutability": "view",
      "type": "function"
    },
    {
      "inputs": [],
      "name": "UI_FEE_RECEIVER",
      "outputs": [
        {
          "internalType": "bytes32",
          "name": "",
          "type": "bytes32"
        }
      ],
      "stateMutability": "view",
      "type": "function"
    },
    {
      "inputs": [],
      "name": "UPDATED_AT_BLOCK",
      "outputs": [
        {
          "internalType": "bytes32",
          "name": "",
          "type": "bytes32"
        }
      ],
      "stateMutability": "view",
      "type": "function"
    },
    {
      "inputs": [
        {
          "internalType": "contract DataStore",
          "name": "dataStore",
          "type": "DataStore"
        },
        {
          "internalType": "bytes32",
          "name": "key",
          "type": "bytes32"
        }
      ],
      "name": "get",
      "outputs": [
        {
          "components": [
            {
              "components": [
                {
                  "internalType": "address",
                  "name": "account",
                  "type": "address"
                },
                {
                  "internalType": "address",
                  "name": "receiver",
                  "type": "address"
                },
                {
                  "internalType": "address",
                  "name": "callbackContract",
                  "type": "address"
                },
                {
                  "internalType": "address",
                  "name": "uiFeeReceiver",
                  "type": "address"
                },
                {
                  "internalType": "address",
                  "name": "market",
                  "type": "address"
                },
                {
                  "internalType": "address",
                  "name": "initialCollateralToken",
                  "type": "address"
                },
                {
                  "internalType": "address[]",
                  "name": "swapPath",
                  "type": "address[]"
                }
              ],
              "internalType": "struct Order.Addresses",
              "name": "addresses",
              "type": "tuple"
            },
            {
              "components": [
                {
                  "internalType": "enum Order.OrderType",
                  "name": "orderType",
                  "type": "Order.OrderType"
                },
                {
                  "internalType": "enum Order.DecreasePositionSwapType",
                  "name": "decreasePositionSwapType",
                  "type": "Order.DecreasePositionSwapType"
                },
                {
                  "internalType": "uint256",
                  "name": "sizeDeltaUsd",
                  "type": "uint256"
                },
                {
                  "internalType": "uint256",
                  "name": "initialCollateralDeltaAmount",
                  "type": "uint256"
                },
                {
                  "internalType": "uint256",
                  "name": "triggerPrice",
                  "type": "uint256"
                },
                {
                  "internalType": "uint256",
                  "name": "acceptablePrice",
                  "type": "uint256"
                },
                {
                  "internalType": "uint256",
                  "name": "executionFee",
                  "type": "uint256"
                },
                {
                  "internalType": "uint256",
                  "name": "callbackGasLimit",
                  "type": "uint256"
                },
                {
                  "internalType": "uint256",
                  "name": "minOutputAmount",
                  "type": "uint256"
                },
                {
                  "internalType": "uint256",
                  "name": "updatedAtBlock",
                  "type": "uint256"
                }
              ],
              "internalType": "struct Order.Numbers",
              "name": "numbers",
              "type": "tuple"
            },
            {
              "components": [
                {
                  "internalType": "bool",
                  "name": "isLong",
                  "type": "bool"
                },
                {
                  "internalType": "bool",
                  "name": "shouldUnwrapNativeToken",
                  "type": "bool"
                },
                {
                  "internalType": "bool",
                  "name": "isFrozen",
                  "type": "bool"
                }
              ],
              "internalType": "struct Order.Flags",
              "name": "flags",
              "type": "tuple"
            }
          ],
          "internalType": "struct Order.Props",
          "name": "",
          "type": "tuple"
        }
      ],
      "stateMutability": "view",
      "type": "function"
    }
  ],
  "bytecode": "0x614116610039600b82828239805160001a607314602c57634e487b7160e01b600052600060045260246000fd5b30600052607381538281f3fe73000000000000000000000000000000000000000030146080604052600436106101275760003560e01c806304a36e201461012c5780633332c5be1461014757806333d608f11461014f5780633d59fea5146101575780634675e8eb1461015f57806352bc625714610167578063566a6e661461016f57806360aa7068146101775780636ecd534a1461019957806374b6fe13146101a1578063797cb5a2146101c15780638d5dc584146101c95780638f7f2048146101d157806391cb3e3c146101d9578063a31a6411146101e1578063ad7430cc146101e9578063d1550af3146101f1578063d6a3502a146101f9578063e90524f214610201578063ea00f33314610209578063f145e54a14610211578063f46f16c214610219578063fdfc26f314610221575b600080fd5b610134610241565b6040519081526020015b60405180910390f35b610134610269565b610134610278565b610134610287565b610134610296565b6101346102a5565b6101346102b4565b81801561018357600080fd5b50610197610192366004613882565b6102c3565b005b6101346113bb565b8180156101ad57600080fd5b506101976101bc3660046139ce565b6113ca565b6101346122e2565b6101346122f1565b610134612300565b61013461230f565b61013461231e565b61013461232d565b61013461233c565b61013461234b565b61013461235a565b610134612369565b610134612378565b610134612387565b61023461022f366004613a10565b612396565b60405161013e9190613b3e565b60405160200161025090613c19565b6040516020818303038152906040528051906020012081565b60405160200161025090613c4d565b60405160200161025090613c6e565b60405160200161025090613c9a565b60405160200161025090613cc4565b60405160200161025090613ceb565b60405160200161025090613d0e565b826001600160a01b031663c80f4c626040516020016102e190613d37565b60405160208183030381529060405280519060200120846040518363ffffffff1660e01b8152600401610315929190613d5b565b600060405180830381600087803b15801561032f57600080fd5b505af1158015610343573d6000803e3d6000fd5b50505050826001600160a01b031663c80f4c6261036761036284515190565b61345f565b846040518363ffffffff1660e01b8152600401610385929190613d5b565b600060405180830381600087803b15801561039f57600080fd5b505af11580156103b3573d6000803e3d6000fd5b50505050826001600160a01b031663ca446dd9836040516020016103d690613d69565b604051602081830303815290604052805190602001206040516020016103fd929190613d5b565b6040516020818303038152906040528051906020012061041c84515190565b6040518363ffffffff1660e01b8152600401610439929190613d8a565b6020604051808303816000875af1158015610458573d6000803e3d6000fd5b505050506040513d601f19601f8201168201806040525081019061047c9190613da1565b50826001600160a01b031663ca446dd98360405160200161049c90613dbe565b604051602081830303815290604052805190602001206040516020016104c3929190613d5b565b604051602081830303815290604052805190602001206104e584516020015190565b6040518363ffffffff1660e01b8152600401610502929190613d8a565b6020604051808303816000875af1158015610521573d6000803e3d6000fd5b505050506040513d601f19601f820116820180604052508101906105459190613da1565b50826001600160a01b031663ca446dd98360405160200161056590613de0565b6040516020818303038152906040528051906020012060405160200161058c929190613d5b565b604051602081830303815290604052805190602001206105ae84516040015190565b6040518363ffffffff1660e01b81526004016105cb929190613d8a565b6020604051808303816000875af11580156105ea573d6000803e3d6000fd5b505050506040513d601f19601f8201168201806040525081019061060e9190613da1565b50826001600160a01b031663ca446dd98360405160200161062e90613d0e565b60405160208183030381529060405280519060200120604051602001610655929190613d5b565b6040516020818303038152906040528051906020012061067784516060015190565b6040518363ffffffff1660e01b8152600401610694929190613d8a565b6020604051808303816000875af11580156106b3573d6000803e3d6000fd5b505050506040513d601f19601f820116820180604052508101906106d79190613da1565b50826001600160a01b031663ca446dd9836040516020016106f790613e0b565b6040516020818303038152906040528051906020012060405160200161071e929190613d5b565b6040516020818303038152906040528051906020012061074084516080015190565b6040518363ffffffff1660e01b815260040161075d929190613d8a565b6020604051808303816000875af115801561077c573d6000803e3d6000fd5b505050506040513d601f19601f820116820180604052508101906107a09190613da1565b50826001600160a01b031663ca446dd9836040516020016107c090613e2b565b604051602081830303815290604052805190602001206040516020016107e7929190613d5b565b60405160208183030381529060405280519060200120610809845160a0015190565b6040518363ffffffff1660e01b8152600401610826929190613d8a565b6020604051808303816000875af1158015610845573d6000803e3d6000fd5b505050506040513d601f19601f820116820180604052508101906108699190613da1565b50826001600160a01b031663ec672cf68360405160200161088990613ceb565b604051602081830303815290604052805190602001206040516020016108b0929190613d5b565b604051602081830303815290604052805190602001206108d2845160c0015190565b6040518363ffffffff1660e01b81526004016108ef929190613e5d565b600060405180830381600087803b15801561090957600080fd5b505af115801561091d573d6000803e3d6000fd5b50505050826001600160a01b031663e2a4853a8360405160200161094090613eb5565b60405160208183030381529060405280519060200120604051602001610967929190613d5b565b6040516020818303038152906040528051906020012061098984602001515190565b600781111561099a5761099a613a8e565b6040518363ffffffff1660e01b81526004016109b7929190613d5b565b6020604051808303816000875af11580156109d6573d6000803e3d6000fd5b505050506040513d601f19601f820116820180604052508101906109fa9190613ed9565b50826001600160a01b031663e2a4853a83604051602001610a1a90613ef2565b60405160208183030381529060405280519060200120604051602001610a41929190613d5b565b60405160208183030381529060405280519060200120610a6684602090810151015190565b6002811115610a7757610a77613a8e565b6040518363ffffffff1660e01b8152600401610a94929190613d5b565b6020604051808303816000875af1158015610ab3573d6000803e3d6000fd5b505050506040513d601f19601f82011682018060405250810190610ad79190613ed9565b50826001600160a01b031663e2a4853a83604051602001610af790613f27565b60405160208183030381529060405280519060200120604051602001610b1e929190613d5b565b60405160208183030381529060405280519060200120610b4384602001516040015190565b6040518363ffffffff1660e01b8152600401610b60929190613d5b565b6020604051808303816000875af1158015610b7f573d6000803e3d6000fd5b505050506040513d601f19601f82011682018060405250810190610ba39190613ed9565b50826001600160a01b031663e2a4853a83604051602001610bc390613f4f565b60405160208183030381529060405280519060200120604051602001610bea929190613d5b565b60405160208183030381529060405280519060200120610c0f84602001516060015190565b6040518363ffffffff1660e01b8152600401610c2c929190613d5b565b6020604051808303816000875af1158015610c4b573d6000803e3d6000fd5b505050506040513d601f19601f82011682018060405250810190610c6f9190613ed9565b50826001600160a01b031663e2a4853a83604051602001610c8f90613f86565b60405160208183030381529060405280519060200120604051602001610cb6929190613d5b565b60405160208183030381529060405280519060200120610cdb84602001516080015190565b6040518363ffffffff1660e01b8152600401610cf8929190613d5b565b6020604051808303816000875af1158015610d17573d6000803e3d6000fd5b505050506040513d601f19601f82011682018060405250810190610d3b9190613ed9565b50826001600160a01b031663e2a4853a83604051602001610d5b90613c9a565b60405160208183030381529060405280519060200120604051602001610d82929190613d5b565b60405160208183030381529060405280519060200120610da7846020015160a0015190565b6040518363ffffffff1660e01b8152600401610dc4929190613d5b565b6020604051808303816000875af1158015610de3573d6000803e3d6000fd5b505050506040513d601f19601f82011682018060405250810190610e079190613ed9565b50826001600160a01b031663e2a4853a83604051602001610e2790613cc4565b60405160208183030381529060405280519060200120604051602001610e4e929190613d5b565b60405160208183030381529060405280519060200120610e73846020015160c0015190565b6040518363ffffffff1660e01b8152600401610e90929190613d5b565b6020604051808303816000875af1158015610eaf573d6000803e3d6000fd5b505050506040513d601f19601f82011682018060405250810190610ed39190613ed9565b50826001600160a01b031663e2a4853a83604051602001610ef390613c6e565b60405160208183030381529060405280519060200120604051602001610f1a929190613d5b565b60405160208183030381529060405280519060200120610f3f846020015160e0015190565b6040518363ffffffff1660e01b8152600401610f5c929190613d5b565b6020604051808303816000875af1158015610f7b573d6000803e3d6000fd5b505050506040513d601f19601f82011682018060405250810190610f9f9190613ed9565b50826001600160a01b031663e2a4853a83604051602001610fbf90613fad565b60405160208183030381529060405280519060200120604051602001610fe6929190613d5b565b6040516020818303038152906040528051906020012061100c8460200151610100015190565b6040518363ffffffff1660e01b8152600401611029929190613d5b565b6020604051808303816000875af1158015611048573d6000803e3d6000fd5b505050506040513d601f19601f8201168201806040525081019061106c9190613ed9565b50826001600160a01b031663e2a4853a8360405160200161108c90613fd8565b604051602081830303815290604052805190602001206040516020016110b3929190613d5b565b604051602081830303815290604052805190602001206110d98460200151610120015190565b6040518363ffffffff1660e01b81526004016110f6929190613d5b565b6020604051808303816000875af1158015611115573d6000803e3d6000fd5b505050506040513d601f19601f820116820180604052508101906111399190613ed9565b50826001600160a01b031663abfdcced8360405160200161115990613c4d565b60405160208183030381529060405280519060200120604051602001611180929190613d5b565b604051602081830303815290604052805190602001206111a284604001515190565b6040516001600160e01b031960e085901b1681526004810192909252151560248201526044016020604051808303816000875af11580156111e7573d6000803e3d6000fd5b505050506040513d601f19601f8201168201806040525081019061120b9190614002565b50826001600160a01b031663abfdcced8360405160200161122b90613c19565b60405160208183030381529060405280519060200120604051602001611252929190613d5b565b6040516020818303038152906040528051906020012061127784604001516020015190565b6040516001600160e01b031960e085901b1681526004810192909252151560248201526044016020604051808303816000875af11580156112bc573d6000803e3d6000fd5b505050506040513d601f19601f820116820180604052508101906112e09190614002565b50826001600160a01b031663abfdcced836040516020016113009061401f565b60405160208183030381529060405280519060200120604051602001611327929190613d5b565b6040516020818303038152906040528051906020012061134c84604090810151015190565b6040516001600160e01b031960e085901b1681526004810192909252151560248201526044016020604051808303816000875af1158015611391573d6000803e3d6000fd5b505050506040513d601f19601f820116820180604052508101906113b59190614002565b50505050565b60405160200161025090613f4f565b826001600160a01b03166391d4403c6040516020016113e890613d37565b60405160208183030381529060405280519060200120846040518363ffffffff1660e01b815260040161141c929190613d5b565b602060405180830381865afa158015611439573d6000803e3d6000fd5b505050506040513d601f19601f8201168201806040525081019061145d9190614002565b611481576040516359485ed960e01b81526004810183905260240160405180910390fd5b826001600160a01b0316639921c3cc60405160200161149f90613d37565b60405160208183030381529060405280519060200120846040518363ffffffff1660e01b81526004016114d3929190613d5b565b600060405180830381600087803b1580156114ed57600080fd5b505af1158015611501573d6000803e3d6000fd5b50505050826001600160a01b0316639921c3cc61151d8361345f565b846040518363ffffffff1660e01b815260040161153b929190613d5b565b600060405180830381600087803b15801561155557600080fd5b505af1158015611569573d6000803e3d6000fd5b50505050826001600160a01b0316639faf6fb68360405160200161158c90613d69565b604051602081830303815290604052805190602001206040516020016115b3929190613d5b565b604051602081830303815290604052805190602001206040518263ffffffff1660e01b81526004016115e791815260200190565b600060405180830381600087803b15801561160157600080fd5b505af1158015611615573d6000803e3d6000fd5b50505050826001600160a01b0316639faf6fb68360405160200161163890613dbe565b6040516020818303038152906040528051906020012060405160200161165f929190613d5b565b604051602081830303815290604052805190602001206040518263ffffffff1660e01b815260040161169391815260200190565b600060405180830381600087803b1580156116ad57600080fd5b505af11580156116c1573d6000803e3d6000fd5b50505050826001600160a01b0316639faf6fb6836040516020016116e490613de0565b6040516020818303038152906040528051906020012060405160200161170b929190613d5b565b604051602081830303815290604052805190602001206040518263ffffffff1660e01b815260040161173f91815260200190565b600060405180830381600087803b15801561175957600080fd5b505af115801561176d573d6000803e3d6000fd5b50505050826001600160a01b0316639faf6fb68360405160200161179090613d0e565b604051602081830303815290604052805190602001206040516020016117b7929190613d5b565b604051602081830303815290604052805190602001206040518263ffffffff1660e01b81526004016117eb91815260200190565b600060405180830381600087803b15801561180557600080fd5b505af1158015611819573d6000803e3d6000fd5b50505050826001600160a01b0316639faf6fb68360405160200161183c90613e0b565b60405160208183030381529060405280519060200120604051602001611863929190613d5b565b604051602081830303815290604052805190602001206040518263ffffffff1660e01b815260040161189791815260200190565b600060405180830381600087803b1580156118b157600080fd5b505af11580156118c5573d6000803e3d6000fd5b50505050826001600160a01b0316639faf6fb6836040516020016118e890613e2b565b6040516020818303038152906040528051906020012060405160200161190f929190613d5b565b604051602081830303815290604052805190602001206040518263ffffffff1660e01b815260040161194391815260200190565b600060405180830381600087803b15801561195d57600080fd5b505af1158015611971573d6000803e3d6000fd5b50505050826001600160a01b031663c1dc91828360405160200161199490613ceb565b604051602081830303815290604052805190602001206040516020016119bb929190613d5b565b604051602081830303815290604052805190602001206040518263ffffffff1660e01b81526004016119ef91815260200190565b600060405180830381600087803b158015611a0957600080fd5b505af1158015611a1d573d6000803e3d6000fd5b50505050826001600160a01b03166342c3bd9683604051602001611a4090613eb5565b60405160208183030381529060405280519060200120604051602001611a67929190613d5b565b604051602081830303815290604052805190602001206040518263ffffffff1660e01b8152600401611a9b91815260200190565b600060405180830381600087803b158015611ab557600080fd5b505af1158015611ac9573d6000803e3d6000fd5b50505050826001600160a01b03166342c3bd9683604051602001611aec90613ef2565b60405160208183030381529060405280519060200120604051602001611b13929190613d5b565b604051602081830303815290604052805190602001206040518263ffffffff1660e01b8152600401611b4791815260200190565b600060405180830381600087803b158015611b6157600080fd5b505af1158015611b75573d6000803e3d6000fd5b50505050826001600160a01b03166342c3bd9683604051602001611b9890613f27565b60405160208183030381529060405280519060200120604051602001611bbf929190613d5b565b604051602081830303815290604052805190602001206040518263ffffffff1660e01b8152600401611bf391815260200190565b600060405180830381600087803b158015611c0d57600080fd5b505af1158015611c21573d6000803e3d6000fd5b50505050826001600160a01b03166342c3bd9683604051602001611c4490613f4f565b60405160208183030381529060405280519060200120604051602001611c6b929190613d5b565b604051602081830303815290604052805190602001206040518263ffffffff1660e01b8152600401611c9f91815260200190565b600060405180830381600087803b158015611cb957600080fd5b505af1158015611ccd573d6000803e3d6000fd5b50505050826001600160a01b03166342c3bd9683604051602001611cf090613f86565b60405160208183030381529060405280519060200120604051602001611d17929190613d5b565b604051602081830303815290604052805190602001206040518263ffffffff1660e01b8152600401611d4b91815260200190565b600060405180830381600087803b158015611d6557600080fd5b505af1158015611d79573d6000803e3d6000fd5b50505050826001600160a01b03166342c3bd9683604051602001611d9c90613c9a565b60405160208183030381529060405280519060200120604051602001611dc3929190613d5b565b604051602081830303815290604052805190602001206040518263ffffffff1660e01b8152600401611df791815260200190565b600060405180830381600087803b158015611e1157600080fd5b505af1158015611e25573d6000803e3d6000fd5b50505050826001600160a01b03166342c3bd9683604051602001611e4890613cc4565b60405160208183030381529060405280519060200120604051602001611e6f929190613d5b565b604051602081830303815290604052805190602001206040518263ffffffff1660e01b8152600401611ea391815260200190565b600060405180830381600087803b158015611ebd57600080fd5b505af1158015611ed1573d6000803e3d6000fd5b50505050826001600160a01b03166342c3bd9683604051602001611ef490613c6e565b60405160208183030381529060405280519060200120604051602001611f1b929190613d5b565b604051602081830303815290604052805190602001206040518263ffffffff1660e01b8152600401611f4f91815260200190565b600060405180830381600087803b158015611f6957600080fd5b505af1158015611f7d573d6000803e3d6000fd5b50505050826001600160a01b03166342c3bd9683604051602001611fa090613fad565b60405160208183030381529060405280519060200120604051602001611fc7929190613d5b565b604051602081830303815290604052805190602001206040518263ffffffff1660e01b8152600401611ffb91815260200190565b600060405180830381600087803b15801561201557600080fd5b505af1158015612029573d6000803e3d6000fd5b50505050826001600160a01b03166342c3bd968360405160200161204c90613fd8565b60405160208183030381529060405280519060200120604051602001612073929190613d5b565b604051602081830303815290604052805190602001206040518263ffffffff1660e01b81526004016120a791815260200190565b600060405180830381600087803b1580156120c157600080fd5b505af11580156120d5573d6000803e3d6000fd5b50505050826001600160a01b0316639fe7ac12836040516020016120f890613c4d565b6040516020818303038152906040528051906020012060405160200161211f929190613d5b565b604051602081830303815290604052805190602001206040518263ffffffff1660e01b815260040161215391815260200190565b600060405180830381600087803b15801561216d57600080fd5b505af1158015612181573d6000803e3d6000fd5b50505050826001600160a01b0316639fe7ac12836040516020016121a490613c19565b604051602081830303815290604052805190602001206040516020016121cb929190613d5b565b604051602081830303815290604052805190602001206040518263ffffffff1660e01b81526004016121ff91815260200190565b600060405180830381600087803b15801561221957600080fd5b505af115801561222d573d6000803e3d6000fd5b50505050826001600160a01b0316639fe7ac12836040516020016122509061401f565b60405160208183030381529060405280519060200120604051602001612277929190613d5b565b604051602081830303815290604052805190602001206040518263ffffffff1660e01b81526004016122ab91815260200190565b600060405180830381600087803b1580156122c557600080fd5b505af11580156122d9573d6000803e3d6000fd5b50505050505050565b60405160200161025090613fad565b60405160200161025090613e2b565b60405160200161025090613de0565b6040516020016102509061401f565b60405160200161025090613f86565b60405160200161025090613dbe565b60405160200161025090613ef2565b60405160200161025090613f27565b60405160200161025090613d69565b60405160200161025090613eb5565b60405160200161025090613fd8565b60405160200161025090613e0b565b61239e613539565b6123a6613539565b836001600160a01b03166391d4403c6040516020016123c490613d37565b60405160208183030381529060405280519060200120856040518363ffffffff1660e01b81526004016123f8929190613d5b565b602060405180830381865afa158015612415573d6000803e3d6000fd5b505050506040513d601f19601f820116820180604052508101906124399190614002565b612444579050613459565b612513846001600160a01b03166321f8a7218560405160200161246690613d69565b6040516020818303038152906040528051906020012060405160200161248d929190613d5b565b604051602081830303815290604052805190602001206040518263ffffffff1660e01b81526004016124c191815260200190565b602060405180830381865afa1580156124de573d6000803e3d6000fd5b505050506040513d601f19601f820116820180604052508101906125029190613da1565b82516001600160a01b039091169052565b6125e6846001600160a01b03166321f8a7218560405160200161253590613dbe565b6040516020818303038152906040528051906020012060405160200161255c929190613d5b565b604051602081830303815290604052805190602001206040518263ffffffff1660e01b815260040161259091815260200190565b602060405180830381865afa1580156125ad573d6000803e3d6000fd5b505050506040513d601f19601f820116820180604052508101906125d19190613da1565b82516001600160a01b03909116602090910152565b6126b9846001600160a01b03166321f8a7218560405160200161260890613de0565b6040516020818303038152906040528051906020012060405160200161262f929190613d5b565b604051602081830303815290604052805190602001206040518263ffffffff1660e01b815260040161266391815260200190565b602060405180830381865afa158015612680573d6000803e3d6000fd5b505050506040513d601f19601f820116820180604052508101906126a49190613da1565b82516001600160a01b03909116604090910152565b61278c846001600160a01b03166321f8a721856040516020016126db90613d0e565b60405160208183030381529060405280519060200120604051602001612702929190613d5b565b604051602081830303815290604052805190602001206040518263ffffffff1660e01b815260040161273691815260200190565b602060405180830381865afa158015612753573d6000803e3d6000fd5b505050506040513d601f19601f820116820180604052508101906127779190613da1565b82516001600160a01b03909116606090910152565b61285f846001600160a01b03166321f8a721856040516020016127ae90613e0b565b604051602081830303815290604052805190602001206040516020016127d5929190613d5b565b604051602081830303815290604052805190602001206040518263ffffffff1660e01b815260040161280991815260200190565b602060405180830381865afa158015612826573d6000803e3d6000fd5b505050506040513d601f19601f8201168201806040525081019061284a9190613da1565b82516001600160a01b03909116608090910152565b612932846001600160a01b03166321f8a7218560405160200161288190613e2b565b604051602081830303815290604052805190602001206040516020016128a8929190613d5b565b604051602081830303815290604052805190602001206040518263ffffffff1660e01b81526004016128dc91815260200190565b602060405180830381865afa1580156128f9573d6000803e3d6000fd5b505050506040513d601f19601f8201168201806040525081019061291d9190613da1565b82516001600160a01b0390911660a090910152565b6129fc846001600160a01b0316635948f7338560405160200161295490613ceb565b6040516020818303038152906040528051906020012060405160200161297b929190613d5b565b604051602081830303815290604052805190602001206040518263ffffffff1660e01b81526004016129af91815260200190565b600060405180830381865afa1580156129cc573d6000803e3d6000fd5b505050506040513d6000823e601f3d908101601f191682016040526129f49190810190614042565b825160c00152565b612ad2846001600160a01b031663bd02d0f585604051602001612a1e90613eb5565b60405160208183030381529060405280519060200120604051602001612a45929190613d5b565b604051602081830303815290604052805190602001206040518263ffffffff1660e01b8152600401612a7991815260200190565b602060405180830381865afa158015612a96573d6000803e3d6000fd5b505050506040513d601f19601f82011682018060405250810190612aba9190613ed9565b6007811115612acb57612acb613a8e565b82906134dc565b612ba8846001600160a01b031663bd02d0f585604051602001612af490613ef2565b60405160208183030381529060405280519060200120604051602001612b1b929190613d5b565b604051602081830303815290604052805190602001206040518263ffffffff1660e01b8152600401612b4f91815260200190565b602060405180830381865afa158015612b6c573d6000803e3d6000fd5b505050506040513d601f19601f82011682018060405250810190612b909190613ed9565b6002811115612ba157612ba1613a8e565b829061350d565b612c71846001600160a01b031663bd02d0f585604051602001612bca90613f27565b60405160208183030381529060405280519060200120604051602001612bf1929190613d5b565b604051602081830303815290604052805190602001206040518263ffffffff1660e01b8152600401612c2591815260200190565b602060405180830381865afa158015612c42573d6000803e3d6000fd5b505050506040513d601f19601f82011682018060405250810190612c669190613ed9565b602083015160400152565b612d3a846001600160a01b031663bd02d0f585604051602001612c9390613f4f565b60405160208183030381529060405280519060200120604051602001612cba929190613d5b565b604051602081830303815290604052805190602001206040518263ffffffff1660e01b8152600401612cee91815260200190565b602060405180830381865afa158015612d0b573d6000803e3d6000fd5b505050506040513d601f19601f82011682018060405250810190612d2f9190613ed9565b602083015160600152565b612e03846001600160a01b031663bd02d0f585604051602001612d5c90613f86565b60405160208183030381529060405280519060200120604051602001612d83929190613d5b565b604051602081830303815290604052805190602001206040518263ffffffff1660e01b8152600401612db791815260200190565b602060405180830381865afa158015612dd4573d6000803e3d6000fd5b505050506040513d601f19601f82011682018060405250810190612df89190613ed9565b602083015160800152565b612ecc846001600160a01b031663bd02d0f585604051602001612e2590613c9a565b60405160208183030381529060405280519060200120604051602001612e4c929190613d5b565b604051602081830303815290604052805190602001206040518263ffffffff1660e01b8152600401612e8091815260200190565b602060405180830381865afa158015612e9d573d6000803e3d6000fd5b505050506040513d601f19601f82011682018060405250810190612ec19190613ed9565b602083015160a00152565b612f95846001600160a01b031663bd02d0f585604051602001612eee90613cc4565b60405160208183030381529060405280519060200120604051602001612f15929190613d5b565b604051602081830303815290604052805190602001206040518263ffffffff1660e01b8152600401612f4991815260200190565b602060405180830381865afa158015612f66573d6000803e3d6000fd5b505050506040513d601f19601f82011682018060405250810190612f8a9190613ed9565b602083015160c00152565b61305e846001600160a01b031663bd02d0f585604051602001612fb790613c6e565b60405160208183030381529060405280519060200120604051602001612fde929190613d5b565b604051602081830303815290604052805190602001206040518263ffffffff1660e01b815260040161301291815260200190565b602060405180830381865afa15801561302f573d6000803e3d6000fd5b505050506040513d601f19601f820116820180604052508101906130539190613ed9565b602083015160e00152565b613128846001600160a01b031663bd02d0f58560405160200161308090613fad565b604051602081830303815290604052805190602001206040516020016130a7929190613d5b565b604051602081830303815290604052805190602001206040518263ffffffff1660e01b81526004016130db91815260200190565b602060405180830381865afa1580156130f8573d6000803e3d6000fd5b505050506040513d601f19601f8201168201806040525081019061311c9190613ed9565b60208301516101000152565b6131f2846001600160a01b031663bd02d0f58560405160200161314a90613fd8565b60405160208183030381529060405280519060200120604051602001613171929190613d5b565b604051602081830303815290604052805190602001206040518263ffffffff1660e01b81526004016131a591815260200190565b602060405180830381865afa1580156131c2573d6000803e3d6000fd5b505050506040513d601f19601f820116820180604052508101906131e69190613ed9565b60208301516101200152565b6132bc846001600160a01b0316637ae1cfca8560405160200161321490613c4d565b6040516020818303038152906040528051906020012060405160200161323b929190613d5b565b604051602081830303815290604052805190602001206040518263ffffffff1660e01b815260040161326f91815260200190565b602060405180830381865afa15801561328c573d6000803e3d6000fd5b505050506040513d601f19601f820116820180604052508101906132b09190614002565b60408301519015159052565b61338a846001600160a01b0316637ae1cfca856040516020016132de90613c19565b60405160208183030381529060405280519060200120604051602001613305929190613d5b565b604051602081830303815290604052805190602001206040518263ffffffff1660e01b815260040161333991815260200190565b602060405180830381865afa158015613356573d6000803e3d6000fd5b505050506040513d601f19601f8201168201806040525081019061337a9190614002565b6040830151901515602090910152565b613456846001600160a01b0316637ae1cfca856040516020016133ac9061401f565b604051602081830303815290604052805190602001206040516020016133d3929190613d5b565b604051602081830303815290604052805190602001206040518263ffffffff1660e01b815260040161340791815260200190565b602060405180830381865afa158015613424573d6000803e3d6000fd5b505050506040513d601f19601f820116820180604052508101906134489190614002565b604080840151911515910152565b90505b92915050565b6000604051602001613497906020808252601290820152711050d0d3d5539517d3d491115497d31254d560721b604082015260600190565b60405160208183030381529060405280519060200120826040516020016134bf929190613d8a565b604051602081830303815290604052805190602001209050919050565b60208201518160078111156134f3576134f3613a8e565b9081600781111561350657613506613a8e565b9052505050565b6020808301510181600281111561352657613526613a8e565b9081600281111561350657613506613a8e565b604080516101408101909152600060608083018281526080840183905260a0840183905260c0840183905260e084018390526101008401929092526101208301528152602081016135d760408051610140810190915280600081526020016000815260200160008152602001600081526020016000815260200160008152602001600081526020016000815260200160008152602001600081525090565b815260408051606081018252600080825260208281018290529282015291015290565b6001600160a01b038116811461360f57600080fd5b50565b634e487b7160e01b600052604160045260246000fd5b60405161014081016001600160401b038111828210171561364b5761364b613612565b60405290565b604051606081016001600160401b038111828210171561364b5761364b613612565b60405160e081016001600160401b038111828210171561364b5761364b613612565b604051601f8201601f191681016001600160401b03811182821017156136bd576136bd613612565b604052919050565b80356136d0816135fa565b919050565b60006001600160401b038211156136ee576136ee613612565b5060051b60200190565b600082601f83011261370957600080fd5b813561371c613717826136d5565b613695565b8082825260208201915060208360051b86010192508583111561373e57600080fd5b602085015b83811015613764578035613756816135fa565b835260209283019201613743565b5095945050505050565b8035600881106136d057600080fd5b8035600381106136d057600080fd5b6000610140828403121561379f57600080fd5b6137a7613628565b90506137b28261376e565b81526137c06020830161377d565b602082015260408281013590820152606080830135908201526080808301359082015260a0808301359082015260c0808301359082015260e0808301359082015261010080830135908201526101209182013591810191909152919050565b801515811461360f57600080fd5b60006060828403121561383f57600080fd5b613847613651565b905081356138548161381f565b815260208201356138648161381f565b602082015260408201356138778161381f565b604082015292915050565b60008060006060848603121561389757600080fd5b83356138a2816135fa565b92506020840135915060408401356001600160401b038111156138c457600080fd5b84016101c081870312156138d757600080fd5b6138df613651565b81356001600160401b038111156138f557600080fd5b820160e0818903121561390757600080fd5b61390f613673565b613918826136c5565b8152613926602083016136c5565b6020820152613937604083016136c5565b6040820152613948606083016136c5565b6060820152613959608083016136c5565b608082015261396a60a083016136c5565b60a082015260c08201356001600160401b0381111561398857600080fd5b6139948a8285016136f8565b60c0830152508252506139aa876020840161378c565b60208201526139bd87610160840161382d565b604082015280925050509250925092565b6000806000606084860312156139e357600080fd5b83356139ee816135fa565b9250602084013591506040840135613a05816135fa565b809150509250925092565b60008060408385031215613a2357600080fd5b8235613a2e816135fa565b946020939093013593505050565b6001600160a01b03169052565b600081518084526020840193506020830160005b82811015613a845781516001600160a01b0316865260209586019590910190600101613a5d565b5093949350505050565b634e487b7160e01b600052602160045260246000fd5b60088110613ab457613ab4613a8e565b9052565b60038110613ab457613ab4613a8e565b613ad3828251613aa4565b6020810151613ae56020840182613ab8565b5060408101516040830152606081015160608301526080810151608083015260a081015160a083015260c081015160c083015260e081015160e08301526101008101516101008301526101208101516101208301525050565b602080825282516101c08383015280516001600160a01b039081166101e08501529181015182166102008401526040810151909116610220830152606081015160009190613b90610240850182613a3c565b506080810151613ba4610260850182613a3c565b5060a0810151613bb8610280850182613a3c565b5060c0015160e06102a0840152613bd36102c0840182613a49565b90506020840151613be76040850182613ac8565b5060408481015180511515610180860152602081015115156101a08601529081015115156101c0850152509392505050565b6020808252601a908201527929a427aaa6222faaa72ba920a82fa720aa24ab22afaa27a5a2a760311b604082015260600190565b60208082526007908201526649535f4c4f4e4760c81b604082015260600190565b60208082526012908201527110d05313109050d2d7d1d054d7d31253525560721b604082015260600190565b60208082526010908201526f41434345505441424c455f505249434560801b604082015260600190565b6020808252600d908201526c455845435554494f4e5f46454560981b604082015260600190565b6020808252600990820152680a6ae82a0bea082a8960bb1b604082015260600190565b6020808252600f908201526e2aa4afa322a2afa922a1a2a4ab22a960891b604082015260600190565b6020808252600a908201526913d491115497d31254d560b21b604082015260600190565b918252602082015260400190565b6020808252600790820152661050d0d3d5539560ca1b604082015260600190565b9182526001600160a01b0316602082015260400190565b600060208284031215613db357600080fd5b8151613456816135fa565b6020808252600890820152672922a1a2a4ab22a960c11b604082015260600190565b60208082526011908201527010d05313109050d2d7d0d3d395149050d5607a1b604082015260600190565b60208082526006908201526513505492d15560d21b604082015260600190565b60208082526018908201527724a724aa24a0a62fa1a7a62620aa22a920a62faa27a5a2a760411b604082015260600190565b6000604082018483526040602084015280845180835260608501915060208601925060005b81811015613ea95783516001600160a01b0316835260209384019390920191600101613e82565b50909695505050505050565b6020808252600a90820152694f524445525f5459504560b01b604082015260600190565b600060208284031215613eeb57600080fd5b5051919050565b6020808252601b908201527a44454352454153455f504f534954494f4e5f535741505f5459504560281b604082015260600190565b6020808252600e908201526d14d2569157d11153151057d554d160921b604082015260600190565b6020808252601f908201527f494e495449414c5f434f4c4c41544552414c5f44454c54415f414d4f554e5400604082015260600190565b6020808252600d908201526c545249474745525f505249434560981b604082015260600190565b60208082526011908201527013525397d3d55514155517d05353d55395607a1b604082015260600190565b60208082526010908201526f555044415445445f41545f424c4f434b60801b604082015260600190565b60006020828403121561401457600080fd5b81516134568161381f565b60208082526009908201526824a9afa32927ad22a760b91b604082015260600190565b60006020828403121561405457600080fd5b81516001600160401b0381111561406a57600080fd5b8201601f8101841361407b57600080fd5b8051614089613717826136d5565b8082825260208201915060208360051b8501019250868311156140ab57600080fd5b6020840193505b828410156140d65783516140c5816135fa565b8252602093840193909101906140b2565b969550505050505056fea264697066735822122025d358286cb11571c91c7aa4c7d2369970b34b742aa3b3d5a2c1b864e1df447664736f6c634300081a0033",
  "linkReferences": {},
  "deployedLinkReferences": {}
}