{
  "_format": "hh-sol-artifact-1",
  "contractName": "FaucetToken",
  "sourceName": "contracts/tokens/FaucetToken.sol",
  "abi": [
    {
      "inputs": [
        {
          "internalType": "string",
          "name": "name",
          "type": "string"
        },
        {
          "internalType": "string",
          "name": "symbol",
          "type": "string"
        },
        {
          "internalType": "uint8",
          "name": "decimals",
          "type": "uint8"
        },
        {
          "internalType": "uint256",
          "name": "dropletAmount",
          "type": "uint256"
        }
      ],
      "stateMutability": "nonpayable",
      "type": "constructor"
    },
    {
      "anonymous": false,
      "inputs": [
        {
          "indexed": true,
          "internalType": "address",
          "name": "owner",
          "type": "address"
        },
        {
          "indexed": true,
          "internalType": "address",
          "name": "spender",
          "type": "address"
        },
        {
          "indexed": false,
          "internalType": "uint256",
          "name": "value",
          "type": "uint256"
        }
      ],
      "name": "Approval",
      "type": "event"
    },
    {
      "anonymous": false,
      "inputs": [
        {
          "indexed": true,
          "internalType": "address",
          "name": "from",
          "type": "address"
        },
        {
          "indexed": true,
          "internalType": "address",
          "name": "to",
          "type": "address"
        },
        {
          "indexed": false,
          "internalType": "uint256",
          "name": "value",
          "type": "uint256"
        }
      ],
      "name": "Transfer",
      "type": "event"
    },
    {
      "inputs": [],
      "name": "DROPLET_INTERVAL",
      "outputs": [
        {
          "internalType": "uint256",
          "name": "",
          "type": "uint256"
        }
      ],
      "stateMutability": "view",
      "type": "function"
    },
    {
      "inputs": [
        {
          "internalType": "address",
          "name": "",
          "type": "address"
        }
      ],
      "name": "_claimedAt",
      "outputs": [
        {
          "internalType": "uint256",
          "name": "",
          "type": "uint256"
        }
      ],
      "stateMutability": "view",
      "type": "function"
    },
    {
      "inputs": [],
      "name": "_dropletAmount",
      "outputs": [
        {
          "internalType": "uint256",
          "name": "",
          "type": "uint256"
        }
      ],
      "stateMutability": "view",
      "type": "function"
    },
    {
      "inputs": [],
      "name": "_gov",
      "outputs": [
        {
          "internalType": "address",
          "name": "",
          "type": "address"
        }
      ],
      "stateMutability": "view",
      "type": "function"
    },
    {
      "inputs": [],
      "name": "_isFaucetEnabled",
      "outputs": [
        {
          "internalType": "bool",
          "name": "",
          "type": "bool"
        }
      ],
      "stateMutability": "view",
      "type": "function"
    },
    {
      "inputs": [
        {
          "internalType": "address",
          "name": "owner",
          "type": "address"
        },
        {
          "internalType": "address",
          "name": "spender",
          "type": "address"
        }
      ],
      "name": "allowance",
      "outputs": [
        {
          "internalType": "uint256",
          "name": "",
          "type": "uint256"
        }
      ],
      "stateMutability": "view",
      "type": "function"
    },
    {
      "inputs": [
        {
          "internalType": "address",
          "name": "spender",
          "type": "address"
        },
        {
          "internalType": "uint256",
          "name": "amount",
          "type": "uint256"
        }
      ],
      "name": "approve",
      "outputs": [
        {
          "internalType": "bool",
          "name": "",
          "type": "bool"
        }
      ],
      "stateMutability": "nonpayable",
      "type": "function"
    },
    {
      "inputs": [
        {
          "internalType": "address",
          "name": "account",
          "type": "address"
        }
      ],
      "name": "balanceOf",
      "outputs": [
        {
          "internalType": "uint256",
          "name": "",
          "type": "uint256"
        }
      ],
      "stateMutability": "view",
      "type": "function"
    },
    {
      "inputs": [],
      "name": "claimDroplet",
      "outputs": [],
      "stateMutability": "nonpayable",
      "type": "function"
    },
    {
      "inputs": [],
      "name": "decimals",
      "outputs": [
        {
          "internalType": "uint8",
          "name": "",
          "type": "uint8"
        }
      ],
      "stateMutability": "view",
      "type": "function"
    },
    {
      "inputs": [
        {
          "internalType": "address",
          "name": "spender",
          "type": "address"
        },
        {
          "internalType": "uint256",
          "name": "subtractedValue",
          "type": "uint256"
        }
      ],
      "name": "decreaseAllowance",
      "outputs": [
        {
          "internalType": "bool",
          "name": "",
          "type": "bool"
        }
      ],
      "stateMutability": "nonpayable",
      "type": "function"
    },
    {
      "inputs": [],
      "name": "disableFaucet",
      "outputs": [],
      "stateMutability": "nonpayable",
      "type": "function"
    },
    {
      "inputs": [],
      "name": "enableFaucet",
      "outputs": [],
      "stateMutability": "nonpayable",
      "type": "function"
    },
    {
      "inputs": [
        {
          "internalType": "address",
          "name": "spender",
          "type": "address"
        },
        {
          "internalType": "uint256",
          "name": "addedValue",
          "type": "uint256"
        }
      ],
      "name": "increaseAllowance",
      "outputs": [
        {
          "internalType": "bool",
          "name": "",
          "type": "bool"
        }
      ],
      "stateMutability": "nonpayable",
      "type": "function"
    },
    {
      "inputs": [
        {
          "internalType": "address",
          "name": "account",
          "type": "address"
        },
        {
          "internalType": "uint256",
          "name": "amount",
          "type": "uint256"
        }
      ],
      "name": "mint",
      "outputs": [],
      "stateMutability": "nonpayable",
      "type": "function"
    },
    {
      "inputs": [],
      "name": "name",
      "outputs": [
        {
          "internalType": "string",
          "name": "",
          "type": "string"
        }
      ],
      "stateMutability": "view",
      "type": "function"
    },
    {
      "inputs": [
        {
          "internalType": "uint256",
          "name": "dropletAmount",
          "type": "uint256"
        }
      ],
      "name": "setDropletAmount",
      "outputs": [],
      "stateMutability": "nonpayable",
      "type": "function"
    },
    {
      "inputs": [],
      "name": "symbol",
      "outputs": [
        {
          "internalType": "string",
          "name": "",
          "type": "string"
        }
      ],
      "stateMutability": "view",
      "type": "function"
    },
    {
      "inputs": [],
      "name": "totalSupply",
      "outputs": [
        {
          "internalType": "uint256",
          "name": "",
          "type": "uint256"
        }
      ],
      "stateMutability": "view",
      "type": "function"
    },
    {
      "inputs": [
        {
          "internalType": "address",
          "name": "recipient",
          "type": "address"
        },
        {
          "internalType": "uint256",
          "name": "amount",
          "type": "uint256"
        }
      ],
      "name": "transfer",
      "outputs": [
        {
          "internalType": "bool",
          "name": "",
          "type": "bool"
        }
      ],
      "stateMutability": "nonpayable",
      "type": "function"
    },
    {
      "inputs": [
        {
          "internalType": "address",
          "name": "sender",
          "type": "address"
        },
        {
          "internalType": "address",
          "name": "recipient",
          "type": "address"
        },
        {
          "internalType": "uint256",
          "name": "amount",
          "type": "uint256"
        }
      ],
      "name": "transferFrom",
      "outputs": [
        {
          "internalType": "bool",
          "name": "",
          "type": "bool"
        }
      ],
      "stateMutability": "nonpayable",
      "type": "function"
    }
  ],
  "bytecode": "0x608060405261708060005534801561001657600080fd5b50604051610fa6380380610fa68339810160408190526100359161013b565b6006610041858261024d565b50600761004e848261024d565b506008805460ff90931660ff1990931692909217909155600180546001600160a01b031916331790556002555061030b9050565b634e487b7160e01b600052604160045260246000fd5b600082601f8301126100a957600080fd5b81516001600160401b038111156100c2576100c2610082565b604051601f8201601f19908116603f011681016001600160401b03811182821017156100f0576100f0610082565b60405281815283820160200185101561010857600080fd5b60005b828110156101275760208186018101518383018201520161010b565b506000918101602001919091529392505050565b6000806000806080858703121561015157600080fd5b84516001600160401b0381111561016757600080fd5b61017387828801610098565b602087015190955090506001600160401b0381111561019157600080fd5b61019d87828801610098565b935050604085015160ff811681146101b457600080fd5b6060959095015193969295505050565b600181811c908216806101d857607f821691505b6020821081036101f857634e487b7160e01b600052602260045260246000fd5b50919050565b601f82111561024857806000526020600020601f840160051c810160208510156102255750805b601f840160051c820191505b818110156102455760008155600101610231565b50505b505050565b81516001600160401b0381111561026657610266610082565b61027a8161027484546101c4565b846101fe565b6020601f8211600181146102ae57600083156102965750848201515b600019600385901b1c1916600184901b178455610245565b600084815260208120601f198516915b828110156102de57878501518255602094850194600190920191016102be565b50848210156102fc5786840151600019600387901b60f8161c191681555b50505050600190811b01905550565b610c8c8061031a6000396000f3fe608060405234801561001057600080fd5b50600436106101075760003560e01c806306fdde031461010c578063095ea7b31461012a57806318160ddd1461014d57806323b872dd1461015f578063309ef25214610172578063313ce5671461019257806339509351146101a757806340c10f19146101ba578063458a7c36146101cf57806363878f16146101d857806370a0823114610203578063944d3c2a1461022c57806395d89b4114610234578063a1c2fb0c1461023c578063a457c2d714610249578063a9059cbb1461025c578063bd1364481461026f578063c7c7dee514610278578063d08f8b3f14610280578063dd62ed3e14610293578063e6511743146102cc575b600080fd5b6101146102d4565b6040516101219190610a00565b60405180910390f35b61013d610138366004610a6a565b610366565b6040519015158152602001610121565b6005545b604051908152602001610121565b61013d61016d366004610a94565b61037d565b610151610180366004610ad1565b60046020526000908152604090205481565b60085460405160ff9091168152602001610121565b61013d6101b5366004610a6a565b6103e6565b6101cd6101c8366004610a6a565b61041c565b005b61015160025481565b6001546101eb906001600160a01b031681565b6040516001600160a01b039091168152602001610121565b610151610211366004610ad1565b6001600160a01b031660009081526009602052604090205490565b6101cd61045d565b610114610493565b60035461013d9060ff1681565b61013d610257366004610a6a565b6104a2565b61013d61026a366004610a6a565b6104f1565b61015160005481565b6101cd6104fe565b6101cd61028e366004610aec565b610537565b6101516102a1366004610b05565b6001600160a01b039182166000908152600a6020908152604080832093909416825291909152205490565b6101cd610566565b6060600680546102e390610b38565b80601f016020809104026020016040519081016040528092919081815260200182805461030f90610b38565b801561035c5780601f106103315761010080835404028352916020019161035c565b820191906000526020600020905b81548152906001019060200180831161033f57829003601f168201915b5050505050905090565b6000610373338484610654565b5060015b92915050565b600061038a848484610779565b6103dc84336103d785604051806060016040528060288152602001610bea602891396001600160a01b038a166000908152600a6020908152604080832033845290915290205491906108ed565b610654565b5060019392505050565b336000818152600a602090815260408083206001600160a01b038716845290915281205490916103739185906103d79086610919565b6001546001600160a01b0316331461044f5760405162461bcd60e51b815260040161044690610b72565b60405180910390fd5b610459828261092c565b5050565b6001546001600160a01b031633146104875760405162461bcd60e51b815260040161044690610b72565b6003805460ff19169055565b6060600780546102e390610b38565b600061037333846103d785604051806060016040528060258152602001610c3260259139336000908152600a602090815260408083206001600160a01b038d16845290915290205491906108ed565b6000610373338484610779565b6001546001600160a01b031633146105285760405162461bcd60e51b815260040161044690610b72565b6003805460ff19166001179055565b6001546001600160a01b031633146105615760405162461bcd60e51b815260040161044690610b72565b600255565b60035460ff166105b85760405162461bcd60e51b815260206004820152601f60248201527f466175636574546f6b656e3a20666175636574206e6f7420656e61626c6564006044820152606401610446565b60008054338252600460205260409091205442916105d69190610919565b11156106335760405162461bcd60e51b815260206004820152602660248201527f466175636574546f6b656e3a2064726f706c6574206e6f7420617661696c61626044820152651b19481e595d60d21b6064820152608401610446565b336000818152600460205260409020429055600254610652919061092c565b565b6001600160a01b0383166106b65760405162461bcd60e51b8152602060048201526024808201527f45524332303a20617070726f76652066726f6d20746865207a65726f206164646044820152637265737360e01b6064820152608401610446565b6001600160a01b0382166107175760405162461bcd60e51b815260206004820152602260248201527f45524332303a20617070726f766520746f20746865207a65726f206164647265604482015261737360f01b6064820152608401610446565b6001600160a01b038381166000818152600a602090815260408083209487168084529482529182902085905590518481527f8c5be1e5ebec7d5bd14f71427d1e84f3dd0314c0f7b2291e5b200ac8c7c3b92591015b60405180910390a3505050565b6001600160a01b0383166107dd5760405162461bcd60e51b815260206004820152602560248201527f45524332303a207472616e736665722066726f6d20746865207a65726f206164604482015264647265737360d81b6064820152608401610446565b6001600160a01b03821661083f5760405162461bcd60e51b815260206004820152602360248201527f45524332303a207472616e7366657220746f20746865207a65726f206164647260448201526265737360e81b6064820152608401610446565b61087c81604051806060016040528060268152602001610bc4602691396001600160a01b03861660009081526009602052604090205491906108ed565b6001600160a01b0380851660009081526009602052604080822093909355908416815220546108ab9082610919565b6001600160a01b038084166000818152600960205260409081902093909355915190851690600080516020610c128339815191529061076c9085815260200190565b600081848411156109115760405162461bcd60e51b81526004016104469190610a00565b505050900390565b60006109258284610ba2565b9392505050565b6001600160a01b0382166109825760405162461bcd60e51b815260206004820152601f60248201527f45524332303a206d696e7420746f20746865207a65726f2061646472657373006044820152606401610446565b60055461098f9082610919565b6005556001600160a01b0382166000908152600960205260409020546109b59082610919565b6001600160a01b038316600081815260096020526040808220939093559151909190600080516020610c12833981519152906109f49085815260200190565b60405180910390a35050565b602081526000825180602084015260005b81811015610a2e5760208186018101516040868401015201610a11565b506000604082850101526040601f19601f83011684010191505092915050565b80356001600160a01b0381168114610a6557600080fd5b919050565b60008060408385031215610a7d57600080fd5b610a8683610a4e565b946020939093013593505050565b600080600060608486031215610aa957600080fd5b610ab284610a4e565b9250610ac060208501610a4e565b929592945050506040919091013590565b600060208284031215610ae357600080fd5b61092582610a4e565b600060208284031215610afe57600080fd5b5035919050565b60008060408385031215610b1857600080fd5b610b2183610a4e565b9150610b2f60208401610a4e565b90509250929050565b600181811c90821680610b4c57607f821691505b602082108103610b6c57634e487b7160e01b600052602260045260246000fd5b50919050565b6020808252601690820152752330bab1b2ba2a37b5b2b71d103337b93134b23232b760511b604082015260600190565b8082018082111561037757634e487b7160e01b600052601160045260246000fdfe45524332303a207472616e7366657220616d6f756e7420657863656564732062616c616e636545524332303a207472616e7366657220616d6f756e74206578636565647320616c6c6f77616e6365ddf252ad1be2c89b69c2b068fc378daa952ba7f163c4a11628f55a4df523b3ef45524332303a2064656372656173656420616c6c6f77616e63652062656c6f77207a65726fa2646970667358221220c0c493d0eca92d6402b42da4610e2128adbd47e1d9773a142031d24303f5d6e964736f6c634300081a0033",
  "linkReferences": {},
  "deployedLinkReferences": {}
}