{
  "_format": "hh-sol-artifact-1",
  "contractName": "OwnableMintableToken",
  "sourceName": "contracts/mock/OwnableMintableToken.sol",
  "abi": [
    {
      "inputs": [
        {
          "internalType": "string",
          "name": "name_",
          "type": "string"
        },
        {
          "internalType": "string",
          "name": "symbol_",
          "type": "string"
        },
        {
          "internalType": "uint8",
          "name": "decimals_",
          "type": "uint8"
        }
      ],
      "stateMutability": "nonpayable",
      "type": "constructor"
    },
    {
      "anonymous": false,
      "inputs": [
        {
          "indexed": true,
          "internalType": "address",
          "name": "owner",
          "type": "address"
        },
        {
          "indexed": true,
          "internalType": "address",
          "name": "spender",
          "type": "address"
        },
        {
          "indexed": false,
          "internalType": "uint256",
          "name": "value",
          "type": "uint256"
        }
      ],
      "name": "Approval",
      "type": "event"
    },
    {
      "anonymous": false,
      "inputs": [
        {
          "indexed": true,
          "internalType": "address",
          "name": "previousOwner",
          "type": "address"
        },
        {
          "indexed": true,
          "internalType": "address",
          "name": "newOwner",
          "type": "address"
        }
      ],
      "name": "OwnershipTransferred",
      "type": "event"
    },
    {
      "anonymous": false,
      "inputs": [
        {
          "indexed": true,
          "internalType": "address",
          "name": "from",
          "type": "address"
        },
        {
          "indexed": true,
          "internalType": "address",
          "name": "to",
          "type": "address"
        },
        {
          "indexed": false,
          "internalType": "uint256",
          "name": "value",
          "type": "uint256"
        }
      ],
      "name": "Transfer",
      "type": "event"
    },
    {
      "inputs": [
        {
          "internalType": "address",
          "name": "owner",
          "type": "address"
        },
        {
          "internalType": "address",
          "name": "spender",
          "type": "address"
        }
      ],
      "name": "allowance",
      "outputs": [
        {
          "internalType": "uint256",
          "name": "",
          "type": "uint256"
        }
      ],
      "stateMutability": "view",
      "type": "function"
    },
    {
      "inputs": [
        {
          "internalType": "address",
          "name": "spender",
          "type": "address"
        },
        {
          "internalType": "uint256",
          "name": "amount",
          "type": "uint256"
        }
      ],
      "name": "approve",
      "outputs": [
        {
          "internalType": "bool",
          "name": "",
          "type": "bool"
        }
      ],
      "stateMutability": "nonpayable",
      "type": "function"
    },
    {
      "inputs": [
        {
          "internalType": "address",
          "name": "account",
          "type": "address"
        }
      ],
      "name": "balanceOf",
      "outputs": [
        {
          "internalType": "uint256",
          "name": "",
          "type": "uint256"
        }
      ],
      "stateMutability": "view",
      "type": "function"
    },
    {
      "inputs": [
        {
          "internalType": "uint256",
          "name": "amount",
          "type": "uint256"
        }
      ],
      "name": "burn",
      "outputs": [],
      "stateMutability": "nonpayable",
      "type": "function"
    },
    {
      "inputs": [],
      "name": "decimals",
      "outputs": [
        {
          "internalType": "uint8",
          "name": "",
          "type": "uint8"
        }
      ],
      "stateMutability": "view",
      "type": "function"
    },
    {
      "inputs": [
        {
          "internalType": "address",
          "name": "spender",
          "type": "address"
        },
        {
          "internalType": "uint256",
          "name": "subtractedValue",
          "type": "uint256"
        }
      ],
      "name": "decreaseAllowance",
      "outputs": [
        {
          "internalType": "bool",
          "name": "",
          "type": "bool"
        }
      ],
      "stateMutability": "nonpayable",
      "type": "function"
    },
    {
      "inputs": [
        {
          "internalType": "address",
          "name": "spender",
          "type": "address"
        },
        {
          "internalType": "uint256",
          "name": "addedValue",
          "type": "uint256"
        }
      ],
      "name": "increaseAllowance",
      "outputs": [
        {
          "internalType": "bool",
          "name": "",
          "type": "bool"
        }
      ],
      "stateMutability": "nonpayable",
      "type": "function"
    },
    {
      "inputs": [
        {
          "internalType": "address",
          "name": "account",
          "type": "address"
        },
        {
          "internalType": "uint256",
          "name": "amount",
          "type": "uint256"
        }
      ],
      "name": "mint",
      "outputs": [],
      "stateMutability": "nonpayable",
      "type": "function"
    },
    {
      "inputs": [],
      "name": "name",
      "outputs": [
        {
          "internalType": "string",
          "name": "",
          "type": "string"
        }
      ],
      "stateMutability": "view",
      "type": "function"
    },
    {
      "inputs": [],
      "name": "owner",
      "outputs": [
        {
          "internalType": "address",
          "name": "",
          "type": "address"
        }
      ],
      "stateMutability": "view",
      "type": "function"
    },
    {
      "inputs": [
        {
          "internalType": "address",
          "name": "account",
          "type": "address"
        },
        {
          "internalType": "uint256",
          "name": "amount",
          "type": "uint256"
        }
      ],
      "name": "ownerBurn",
      "outputs": [],
      "stateMutability": "nonpayable",
      "type": "function"
    },
    {
      "inputs": [],
      "name": "renounceOwnership",
      "outputs": [],
      "stateMutability": "nonpayable",
      "type": "function"
    },
    {
      "inputs": [],
      "name": "symbol",
      "outputs": [
        {
          "internalType": "string",
          "name": "",
          "type": "string"
        }
      ],
      "stateMutability": "view",
      "type": "function"
    },
    {
      "inputs": [],
      "name": "totalSupply",
      "outputs": [
        {
          "internalType": "uint256",
          "name": "",
          "type": "uint256"
        }
      ],
      "stateMutability": "view",
      "type": "function"
    },
    {
      "inputs": [
        {
          "internalType": "address",
          "name": "to",
          "type": "address"
        },
        {
          "internalType": "uint256",
          "name": "amount",
          "type": "uint256"
        }
      ],
      "name": "transfer",
      "outputs": [
        {
          "internalType": "bool",
          "name": "",
          "type": "bool"
        }
      ],
      "stateMutability": "nonpayable",
      "type": "function"
    },
    {
      "inputs": [
        {
          "internalType": "address",
          "name": "from",
          "type": "address"
        },
        {
          "internalType": "address",
          "name": "to",
          "type": "address"
        },
        {
          "internalType": "uint256",
          "name": "amount",
          "type": "uint256"
        }
      ],
      "name": "transferFrom",
      "outputs": [
        {
          "internalType": "bool",
          "name": "",
          "type": "bool"
        }
      ],
      "stateMutability": "nonpayable",
      "type": "function"
    },
    {
      "inputs": [
        {
          "internalType": "address",
          "name": "newOwner",
          "type": "address"
        }
      ],
      "name": "transferOwnership",
      "outputs": [],
      "stateMutability": "nonpayable",
      "type": "function"
    }
  ],
  "bytecode": "0x608060405234801561001057600080fd5b50604051610fe8380380610fe883398101604081905261002f91610198565b8282600361003d83826102a4565b50600461004a82826102a4565b50505061006361005e61008960201b60201c565b61008d565b6005805460ff909216600160a01b0260ff60a01b19909216919091179055506103629050565b3390565b600580546001600160a01b038381166001600160a01b0319831681179093556040519116919082907f8be0079c531659141344cd1fd0a4f28419497f9722a3daafe3b4186f6b6457e090600090a35050565b634e487b7160e01b600052604160045260246000fd5b600082601f83011261010657600080fd5b81516001600160401b0381111561011f5761011f6100df565b604051601f8201601f19908116603f011681016001600160401b038111828210171561014d5761014d6100df565b60405281815283820160200185101561016557600080fd5b60005b8281101561018457602081860181015183830182015201610168565b506000918101602001919091529392505050565b6000806000606084860312156101ad57600080fd5b83516001600160401b038111156101c357600080fd5b6101cf868287016100f5565b602086015190945090506001600160401b038111156101ed57600080fd5b6101f9868287016100f5565b925050604084015160ff8116811461021057600080fd5b809150509250925092565b600181811c9082168061022f57607f821691505b60208210810361024f57634e487b7160e01b600052602260045260246000fd5b50919050565b601f82111561029f57806000526020600020601f840160051c8101602085101561027c5750805b601f840160051c820191505b8181101561029c5760008155600101610288565b50505b505050565b81516001600160401b038111156102bd576102bd6100df565b6102d1816102cb845461021b565b84610255565b6020601f82116001811461030557600083156102ed5750848201515b600019600385901b1c1916600184901b17845561029c565b600084815260208120601f198516915b828110156103355787850151825560209485019460019092019101610315565b50848210156103535786840151600019600387901b60f8161c191681555b50505050600190811b01905550565b610c77806103716000396000f3fe608060405234801561001057600080fd5b50600436106100db5760003560e01c806306fdde03146100e0578063095ea7b3146100fe57806318160ddd1461012157806323b872dd14610133578063313ce56714610146578063395093511461016557806340c10f191461017857806342966c681461018d57806370a08231146101a0578063715018a6146101c95780638da5cb5b146101d157806395d89b41146101f1578063a457c2d7146101f9578063a9059cbb1461020c578063c00017861461021f578063dd62ed3e14610232578063f2fde38b14610245575b600080fd5b6100e8610258565b6040516100f59190610a87565b60405180910390f35b61011161010c366004610af1565b6102ea565b60405190151581526020016100f5565b6002545b6040519081526020016100f5565b610111610141366004610b1b565b610304565b600554600160a01b900460ff1660405160ff90911681526020016100f5565b610111610173366004610af1565b610328565b61018b610186366004610af1565b61034a565b005b61018b61019b366004610b58565b610360565b6101256101ae366004610b71565b6001600160a01b031660009081526020819052604090205490565b61018b61036d565b6101d9610381565b6040516001600160a01b0390911681526020016100f5565b6100e8610390565b610111610207366004610af1565b61039f565b61011161021a366004610af1565b61041f565b61018b61022d366004610af1565b61042d565b610125610240366004610b93565b61043f565b61018b610253366004610b71565b61046a565b60606003805461026790610bc6565b80601f016020809104026020016040519081016040528092919081815260200182805461029390610bc6565b80156102e05780601f106102b5576101008083540402835291602001916102e0565b820191906000526020600020905b8154815290600101906020018083116102c357829003601f168201915b5050505050905090565b6000336102f88185856104e0565b60019150505b92915050565b600033610312858285610605565b61031d85858561067f565b506001949350505050565b6000336102f881858561033b838361043f565b6103459190610c00565b6104e0565b610352610811565b61035c8282610870565b5050565b61036a338261091d565b50565b610375610811565b61037f6000610a35565b565b6005546001600160a01b031690565b60606004805461026790610bc6565b600033816103ad828661043f565b9050838110156104125760405162461bcd60e51b815260206004820152602560248201527f45524332303a2064656372656173656420616c6c6f77616e63652062656c6f77604482015264207a65726f60d81b60648201526084015b60405180910390fd5b61031d82868684036104e0565b6000336102f881858561067f565b610435610811565b61035c828261091d565b6001600160a01b03918216600090815260016020908152604080832093909416825291909152205490565b610472610811565b6001600160a01b0381166104d75760405162461bcd60e51b815260206004820152602660248201527f4f776e61626c653a206e6577206f776e657220697320746865207a65726f206160448201526564647265737360d01b6064820152608401610409565b61036a81610a35565b6001600160a01b0383166105425760405162461bcd60e51b8152602060048201526024808201527f45524332303a20617070726f76652066726f6d20746865207a65726f206164646044820152637265737360e01b6064820152608401610409565b6001600160a01b0382166105a35760405162461bcd60e51b815260206004820152602260248201527f45524332303a20617070726f766520746f20746865207a65726f206164647265604482015261737360f01b6064820152608401610409565b6001600160a01b0383811660008181526001602090815260408083209487168084529482529182902085905590518481527f8c5be1e5ebec7d5bd14f71427d1e84f3dd0314c0f7b2291e5b200ac8c7c3b92591015b60405180910390a3505050565b6000610611848461043f565b90506000198114610679578181101561066c5760405162461bcd60e51b815260206004820152601d60248201527f45524332303a20696e73756666696369656e7420616c6c6f77616e63650000006044820152606401610409565b61067984848484036104e0565b50505050565b6001600160a01b0383166106e35760405162461bcd60e51b815260206004820152602560248201527f45524332303a207472616e736665722066726f6d20746865207a65726f206164604482015264647265737360d81b6064820152608401610409565b6001600160a01b0382166107455760405162461bcd60e51b815260206004820152602360248201527f45524332303a207472616e7366657220746f20746865207a65726f206164647260448201526265737360e81b6064820152608401610409565b6001600160a01b038316600090815260208190526040902054818110156107bd5760405162461bcd60e51b815260206004820152602660248201527f45524332303a207472616e7366657220616d6f756e7420657863656564732062604482015265616c616e636560d01b6064820152608401610409565b6001600160a01b0384811660008181526020818152604080832087870390559387168083529184902080548701905592518581529092600080516020610c22833981519152910160405180910390a3610679565b3361081a610381565b6001600160a01b03161461037f5760405162461bcd60e51b815260206004820181905260248201527f4f776e61626c653a2063616c6c6572206973206e6f7420746865206f776e65726044820152606401610409565b6001600160a01b0382166108c65760405162461bcd60e51b815260206004820152601f60248201527f45524332303a206d696e7420746f20746865207a65726f2061646472657373006044820152606401610409565b80600260008282546108d89190610c00565b90915550506001600160a01b03821660008181526020818152604080832080548601905551848152600080516020610c22833981519152910160405180910390a35050565b6001600160a01b03821661097d5760405162461bcd60e51b815260206004820152602160248201527f45524332303a206275726e2066726f6d20746865207a65726f206164647265736044820152607360f81b6064820152608401610409565b6001600160a01b038216600090815260208190526040902054818110156109f15760405162461bcd60e51b815260206004820152602260248201527f45524332303a206275726e20616d6f756e7420657863656564732062616c616e604482015261636560f01b6064820152608401610409565b6001600160a01b038316600081815260208181526040808320868603905560028054879003905551858152919291600080516020610c2283398151915291016105f8565b600580546001600160a01b038381166001600160a01b0319831681179093556040519116919082907f8be0079c531659141344cd1fd0a4f28419497f9722a3daafe3b4186f6b6457e090600090a35050565b602081526000825180602084015260005b81811015610ab55760208186018101516040868401015201610a98565b506000604082850101526040601f19601f83011684010191505092915050565b80356001600160a01b0381168114610aec57600080fd5b919050565b60008060408385031215610b0457600080fd5b610b0d83610ad5565b946020939093013593505050565b600080600060608486031215610b3057600080fd5b610b3984610ad5565b9250610b4760208501610ad5565b929592945050506040919091013590565b600060208284031215610b6a57600080fd5b5035919050565b600060208284031215610b8357600080fd5b610b8c82610ad5565b9392505050565b60008060408385031215610ba657600080fd5b610baf83610ad5565b9150610bbd60208401610ad5565b90509250929050565b600181811c90821680610bda57607f821691505b602082108103610bfa57634e487b7160e01b600052602260045260246000fd5b50919050565b808201808211156102fe57634e487b7160e01b600052601160045260246000fdfeddf252ad1be2c89b69c2b068fc378daa952ba7f163c4a11628f55a4df523b3efa26469706673582212208d2a0be7fb4b9e7202fad9bfdcf05dee695174ad2b886cac62634ec2db193a6264736f6c634300081a0033",
  "linkReferences": {},
  "deployedLinkReferences": {}
}