{
  "_format": "hh-sol-artifact-1",
  "contractName": "GasUsageTestLib",
  "sourceName": "contracts/test/GasUsageTest.sol",
  "abi": [
    {
      "inputs": [],
      "name": "getGasLeft",
      "outputs": [
        {
          "internalType": "uint256",
          "name": "",
          "type": "uint256"
        }
      ],
      "stateMutability": "view",
      "type": "function"
    }
  ],
  "bytecode": "0x608e6037600b82828239805160001a607314602a57634e487b7160e01b600052600060045260246000fd5b30600052607381538281f3fe730000000000000000000000000000000000000000301460806040526004361060335760003560e01c806351be4eaa146038575b600080fd5b603e6050565b60405190815260200160405180910390f35b60005a90509056fea264697066735822122091f5c06eda15c5604f75ff57a4ce9aaf4a2435a977b5deb3566b4ead5298db7764736f6c634300081a0033",
  "linkReferences": {},
  "deployedLinkReferences": {}
}