{
  "_format": "hh-sol-artifact-1",
  "contractName": "GasUsageTest",
  "sourceName": "contracts/test/GasUsageTest.sol",
  "abi": [
    {
      "inputs": [],
      "name": "getGasUsageForExternalLibraryCall",
      "outputs": [
        {
          "internalType": "uint256",
          "name": "",
          "type": "uint256"
        },
        {
          "internalType": "uint256",
          "name": "",
          "type": "uint256"
        }
      ],
      "stateMutability": "view",
      "type": "function"
    }
  ],
  "bytecode": "0x6080604052348015600f57600080fd5b506101198061001f6000396000f3fe6080604052348015600f57600080fd5b506004361060285760003560e01c806345df35ed14602d575b600080fd5b6033604c565b6040805192835260208301919091520160405180910390f35b60008060005a9050600073__$d5fe2184fd557652235d4965e7a35cceb3$__6351be4eaa6040518163ffffffff1660e01b8152600401602060405180830381865af4158015609e573d6000803e3d6000fd5b505050506040513d601f19601f8201168201806040525081019060c0919060cb565b919491935090915050565b60006020828403121560dc57600080fd5b505191905056fea2646970667358221220260f4fa806e9711ae6b303f21ffc32d195c73ffe8b9d5f65d81a6fd681a681d864736f6c634300081a0033",
  "linkReferences": {
    "contracts/test/GasUsageTest.sol": {
      "GasUsageTestLib": [
        {
          "length": 20,
          "start": 119
        }
      ]
    }
  },
  "deployedLinkReferences": {
    "contracts/test/GasUsageTest.sol": {
      "GasUsageTestLib": [
        {
          "length": 20,
          "start": 88
        }
      ]
    }
  }
}