{
  "_format": "hh-sol-artifact-1",
  "contractName": "SwapHandler",
  "sourceName": "contracts/swap/SwapHandler.sol",
  "abi": [
    {
      "inputs": [
        {
          "internalType": "contract RoleStore",
          "name": "_roleStore",
          "type": "address"
        }
      ],
      "stateMutability": "nonpayable",
      "type": "constructor"
    },
    {
      "inputs": [
        {
          "internalType": "address",
          "name": "msgSender",
          "type": "address"
        },
        {
          "internalType": "string",
          "name": "role",
          "type": "string"
        }
      ],
      "name": "Unauthorized",
      "type": "error"
    },
    {
      "inputs": [],
      "name": "roleStore",
      "outputs": [
        {
          "internalType": "contract RoleStore",
          "name": "",
          "type": "address"
        }
      ],
      "stateMutability": "view",
      "type": "function"
    },
    {
      "inputs": [
        {
          "components": [
            {
              "internalType": "contract DataStore",
              "name": "dataStore",
              "type": "address"
            },
            {
              "internalType": "contract EventEmitter",
              "name": "eventEmitter",
              "type": "address"
            },
            {
              "internalType": "contract Oracle",
              "name": "oracle",
              "type": "address"
            },
            {
              "internalType": "contract Bank",
              "name": "bank",
              "type": "address"
            },
            {
              "internalType": "bytes32",
              "name": "key",
              "type": "bytes32"
            },
            {
              "internalType": "address",
              "name": "tokenIn",
              "type": "address"
            },
            {
              "internalType": "uint256",
              "name": "amountIn",
              "type": "uint256"
            },
            {
              "components": [
                {
                  "internalType": "address",
                  "name": "marketToken",
                  "type": "address"
                },
                {
                  "internalType": "address",
                  "name": "indexToken",
                  "type": "address"
                },
                {
                  "internalType": "address",
                  "name": "longToken",
                  "type": "address"
                },
                {
                  "internalType": "address",
                  "name": "shortToken",
                  "type": "address"
                }
              ],
              "internalType": "struct Market.Props[]",
              "name": "swapPathMarkets",
              "type": "tuple[]"
            },
            {
              "internalType": "uint256",
              "name": "minOutputAmount",
              "type": "uint256"
            },
            {
              "internalType": "address",
              "name": "receiver",
              "type": "address"
            },
            {
              "internalType": "address",
              "name": "uiFeeReceiver",
              "type": "address"
            },
            {
              "internalType": "bool",
              "name": "shouldUnwrapNativeToken",
              "type": "bool"
            }
          ],
          "internalType": "struct SwapUtils.SwapParams",
          "name": "params",
          "type": "tuple"
        }
      ],
      "name": "swap",
      "outputs": [
        {
          "internalType": "address",
          "name": "",
          "type": "address"
        },
        {
          "internalType": "uint256",
          "name": "",
          "type": "uint256"
        }
      ],
      "stateMutability": "nonpayable",
      "type": "function"
    }
  ],
  "bytecode": "0x60a0604052348015600f57600080fd5b50604051610874380380610874833981016040819052602c916041565b60016000556001600160a01b0316608052606f565b600060208284031215605257600080fd5b81516001600160a01b0381168114606857600080fd5b9392505050565b6080516107e461009060003960008181606a015261021d01526107e46000f3fe608060405234801561001057600080fd5b50600436106100365760003560e01c8063357531241461003b5780634a4a7b0414610065575b600080fd5b61004e61004936600461046c565b6100a4565b60405161005c929190610596565b60405180910390f35b61008c7f000000000000000000000000000000000000000000000000000000000000000081565b6040516001600160a01b03909116815260200161005c565b6000806100af6101a8565b61011e6040516020016100e0906020808252600a908201526921a7a72a2927a62622a960b11b604082015260600190565b604051602081830303815290604052805190602001206040518060400160405280600a81526020016921a7a72a2927a62622a960b11b815250610206565b604051632b836e2360e11b815273__$2ebd8d293950cf319742e0db402ead4961$__90635706dc4690610155908690600401610620565b6040805180830381865af4158015610171573d6000803e3d6000fd5b505050506040513d601f19601f8201168201806040525081019061019591906106ff565b915091506101a36001600055565b915091565b6002600054036101ff5760405162461bcd60e51b815260206004820152601f60248201527f5265656e7472616e637947756172643a207265656e7472616e742063616c6c0060448201526064015b60405180910390fd5b6002600055565b60405163ac4ab3fb60e01b81526001600160a01b037f0000000000000000000000000000000000000000000000000000000000000000169063ac4ab3fb906102549033908690600401610596565b602060405180830381865afa158015610271573d6000803e3d6000fd5b505050506040513d601f19601f82011682018060405250810190610295919061072d565b6102b657338160405163a35b150b60e01b81526004016101f6929190610751565b5050565b634e487b7160e01b600052604160045260246000fd5b604051608081016001600160401b03811182821017156102f2576102f26102ba565b60405290565b60405161018081016001600160401b03811182821017156102f2576102f26102ba565b604051601f8201601f191681016001600160401b0381118282101715610343576103436102ba565b604052919050565b6001600160a01b038116811461036057600080fd5b50565b803561036e8161034b565b919050565b600082601f83011261038457600080fd5b81356001600160401b0381111561039d5761039d6102ba565b6103ac60208260051b0161031b565b8082825260208201915060208360071b8601019250858311156103ce57600080fd5b602085015b8381101561044957608081880312156103eb57600080fd5b6103f36102d0565b81356103fe8161034b565b8152602082013561040e8161034b565b602082015260408201356104218161034b565b604082015260608201356104348161034b565b606082015283526020909201916080016103d3565b5095945050505050565b801515811461036057600080fd5b803561036e81610453565b60006020828403121561047e57600080fd5b81356001600160401b0381111561049457600080fd5b820161018081850312156104a757600080fd5b6104af6102f8565b6104b882610363565b81526104c660208301610363565b60208201526104d760408301610363565b60408201526104e860608301610363565b60608201526080828101359082015261050360a08301610363565b60a082015260c0828101359082015260e08201356001600160401b0381111561052b57600080fd5b61053786828501610373565b60e08301525061010082810135908201526105556101208301610363565b6101208201526105686101408301610363565b61014082015261057b6101608301610461565b610160820152949350505050565b6001600160a01b03169052565b6001600160a01b03929092168252602082015260400190565b600081518084526020840193506020830160005b8281101561061657815180516001600160a01b0390811688526020808301518216818a01526040808401518316908a015260609283015190911691880191909152608090960195909101906001016105c3565b5093949350505050565b60208152610632602082018351610589565b600060208301516106466040840182610589565b5060408301516106596060840182610589565b50606083015161066c6080840182610589565b50608083015160a083015260a083015161068960c0840182610589565b5060c083015160e083015260e08301516101806101008401526106b06101a08401826105af565b90506101008401516101208401526101208401516106d2610140850182610589565b506101408401516106e7610160850182610589565b50610160840151801515610180850152509392505050565b6000806040838503121561071257600080fd5b825161071d8161034b565b6020939093015192949293505050565b60006020828403121561073f57600080fd5b815161074a81610453565b9392505050565b60018060a01b0383168152604060208201526000825180604084015260005b8181101561078d5760208186018101516060868401015201610770565b506000606082850101526060601f19601f830116840101915050939250505056fea26469706673582212208f03035e7c444c0a9b1bb2418298e2d279310f52c844201666969348969bc06364736f6c634300081a0033",
  "linkReferences": {
    "contracts/swap/SwapUtils.sol": {
      "SwapUtils": [
        {
          "length": 20,
          "start": 445
        }
      ]
    }
  },
  "deployedLinkReferences": {
    "contracts/swap/SwapUtils.sol": {
      "SwapUtils": [
        {
          "length": 20,
          "start": 301
        }
      ]
    }
  }
}