{
  "_format": "hh-sol-artifact-1",
  "contractName": "SubaccountRouter",
  "sourceName": "contracts/router/SubaccountRouter.sol",
  "abi": [
    {
      "inputs": [
        {
          "internalType": "contract Router",
          "name": "_router",
          "type": "address"
        },
        {
          "internalType": "contract RoleStore",
          "name": "_roleStore",
          "type": "address"
        },
        {
          "internalType": "contract DataStore",
          "name": "_dataStore",
          "type": "address"
        },
        {
          "internalType": "contract EventEmitter",
          "name": "_eventEmitter",
          "type": "address"
        },
        {
          "internalType": "contract IOrderHandler",
          "name": "_orderHandler",
          "type": "address"
        },
        {
          "internalType": "contract OrderVault",
          "name": "_orderVault",
          "type": "address"
        }
      ],
      "stateMutability": "nonpayable",
      "type": "constructor"
    },
    {
      "inputs": [
        {
          "internalType": "bytes32",
          "name": "key",
          "type": "bytes32"
        }
      ],
      "name": "DisabledFeature",
      "type": "error"
    },
    {
      "inputs": [],
      "name": "EmptyHoldingAddress",
      "type": "error"
    },
    {
      "inputs": [],
      "name": "EmptyOrder",
      "type": "error"
    },
    {
      "inputs": [],
      "name": "EmptyReceiver",
      "type": "error"
    },
    {
      "inputs": [
        {
          "internalType": "address",
          "name": "token",
          "type": "address"
        }
      ],
      "name": "EmptyTokenTranferGasLimit",
      "type": "error"
    },
    {
      "inputs": [
        {
          "internalType": "address",
          "name": "msgSender",
          "type": "address"
        }
      ],
      "name": "InvalidNativeTokenSender",
      "type": "error"
    },
    {
      "inputs": [
        {
          "internalType": "address",
          "name": "receiver",
          "type": "address"
        },
        {
          "internalType": "address",
          "name": "expectedReceiver",
          "type": "address"
        }
      ],
      "name": "InvalidReceiverForSubaccountOrder",
      "type": "error"
    },
    {
      "inputs": [
        {
          "internalType": "address",
          "name": "account",
          "type": "address"
        },
        {
          "internalType": "address",
          "name": "subaccount",
          "type": "address"
        },
        {
          "internalType": "uint256",
          "name": "count",
          "type": "uint256"
        },
        {
          "internalType": "uint256",
          "name": "maxCount",
          "type": "uint256"
        }
      ],
      "name": "MaxSubaccountActionCountExceeded",
      "type": "error"
    },
    {
      "inputs": [
        {
          "internalType": "address",
          "name": "account",
          "type": "address"
        },
        {
          "internalType": "address",
          "name": "subaccount",
          "type": "address"
        }
      ],
      "name": "SubaccountNotAuthorized",
      "type": "error"
    },
    {
      "inputs": [
        {
          "internalType": "address",
          "name": "token",
          "type": "address"
        },
        {
          "internalType": "address",
          "name": "receiver",
          "type": "address"
        },
        {
          "internalType": "uint256",
          "name": "amount",
          "type": "uint256"
        }
      ],
      "name": "TokenTransferError",
      "type": "error"
    },
    {
      "anonymous": false,
      "inputs": [
        {
          "indexed": false,
          "internalType": "string",
          "name": "reason",
          "type": "string"
        },
        {
          "indexed": false,
          "internalType": "bytes",
          "name": "returndata",
          "type": "bytes"
        }
      ],
      "name": "TokenTransferReverted",
      "type": "event"
    },
    {
      "inputs": [
        {
          "internalType": "address",
          "name": "subaccount",
          "type": "address"
        }
      ],
      "name": "addSubaccount",
      "outputs": [],
      "stateMutability": "payable",
      "type": "function"
    },
    {
      "inputs": [
        {
          "internalType": "bytes32",
          "name": "key",
          "type": "bytes32"
        }
      ],
      "name": "cancelOrder",
      "outputs": [],
      "stateMutability": "payable",
      "type": "function"
    },
    {
      "inputs": [
        {
          "internalType": "address",
          "name": "account",
          "type": "address"
        },
        {
          "components": [
            {
              "components": [
                {
                  "internalType": "address",
                  "name": "receiver",
                  "type": "address"
                },
                {
                  "internalType": "address",
                  "name": "callbackContract",
                  "type": "address"
                },
                {
                  "internalType": "address",
                  "name": "uiFeeReceiver",
                  "type": "address"
                },
                {
                  "internalType": "address",
                  "name": "market",
                  "type": "address"
                },
                {
                  "internalType": "address",
                  "name": "initialCollateralToken",
                  "type": "address"
                },
                {
                  "internalType": "address[]",
                  "name": "swapPath",
                  "type": "address[]"
                }
              ],
              "internalType": "struct IBaseOrderUtils.CreateOrderParamsAddresses",
              "name": "addresses",
              "type": "tuple"
            },
            {
              "components": [
                {
                  "internalType": "uint256",
                  "name": "sizeDeltaUsd",
                  "type": "uint256"
                },
                {
                  "internalType": "uint256",
                  "name": "initialCollateralDeltaAmount",
                  "type": "uint256"
                },
                {
                  "internalType": "uint256",
                  "name": "triggerPrice",
                  "type": "uint256"
                },
                {
                  "internalType": "uint256",
                  "name": "acceptablePrice",
                  "type": "uint256"
                },
                {
                  "internalType": "uint256",
                  "name": "executionFee",
                  "type": "uint256"
                },
                {
                  "internalType": "uint256",
                  "name": "callbackGasLimit",
                  "type": "uint256"
                },
                {
                  "internalType": "uint256",
                  "name": "minOutputAmount",
                  "type": "uint256"
                }
              ],
              "internalType": "struct IBaseOrderUtils.CreateOrderParamsNumbers",
              "name": "numbers",
              "type": "tuple"
            },
            {
              "internalType": "enum Order.OrderType",
              "name": "orderType",
              "type": "uint8"
            },
            {
              "internalType": "enum Order.DecreasePositionSwapType",
              "name": "decreasePositionSwapType",
              "type": "uint8"
            },
            {
              "internalType": "bool",
              "name": "isLong",
              "type": "bool"
            },
            {
              "internalType": "bool",
              "name": "shouldUnwrapNativeToken",
              "type": "bool"
            },
            {
              "internalType": "bytes32",
              "name": "referralCode",
              "type": "bytes32"
            }
          ],
          "internalType": "struct IBaseOrderUtils.CreateOrderParams",
          "name": "params",
          "type": "tuple"
        }
      ],
      "name": "createOrder",
      "outputs": [
        {
          "internalType": "bytes32",
          "name": "",
          "type": "bytes32"
        }
      ],
      "stateMutability": "payable",
      "type": "function"
    },
    {
      "inputs": [],
      "name": "dataStore",
      "outputs": [
        {
          "internalType": "contract DataStore",
          "name": "",
          "type": "address"
        }
      ],
      "stateMutability": "view",
      "type": "function"
    },
    {
      "inputs": [],
      "name": "eventEmitter",
      "outputs": [
        {
          "internalType": "contract EventEmitter",
          "name": "",
          "type": "address"
        }
      ],
      "stateMutability": "view",
      "type": "function"
    },
    {
      "inputs": [
        {
          "internalType": "bytes[]",
          "name": "data",
          "type": "bytes[]"
        }
      ],
      "name": "multicall",
      "outputs": [
        {
          "internalType": "bytes[]",
          "name": "results",
          "type": "bytes[]"
        }
      ],
      "stateMutability": "payable",
      "type": "function"
    },
    {
      "inputs": [],
      "name": "orderHandler",
      "outputs": [
        {
          "internalType": "contract IOrderHandler",
          "name": "",
          "type": "address"
        }
      ],
      "stateMutability": "view",
      "type": "function"
    },
    {
      "inputs": [],
      "name": "orderVault",
      "outputs": [
        {
          "internalType": "contract OrderVault",
          "name": "",
          "type": "address"
        }
      ],
      "stateMutability": "view",
      "type": "function"
    },
    {
      "inputs": [
        {
          "internalType": "address",
          "name": "subaccount",
          "type": "address"
        }
      ],
      "name": "removeSubaccount",
      "outputs": [],
      "stateMutability": "payable",
      "type": "function"
    },
    {
      "inputs": [],
      "name": "roleStore",
      "outputs": [
        {
          "internalType": "contract RoleStore",
          "name": "",
          "type": "address"
        }
      ],
      "stateMutability": "view",
      "type": "function"
    },
    {
      "inputs": [],
      "name": "router",
      "outputs": [
        {
          "internalType": "contract Router",
          "name": "",
          "type": "address"
        }
      ],
      "stateMutability": "view",
      "type": "function"
    },
    {
      "inputs": [
        {
          "internalType": "address",
          "name": "receiver",
          "type": "address"
        },
        {
          "internalType": "uint256",
          "name": "amount",
          "type": "uint256"
        }
      ],
      "name": "sendNativeToken",
      "outputs": [],
      "stateMutability": "payable",
      "type": "function"
    },
    {
      "inputs": [
        {
          "internalType": "address",
          "name": "token",
          "type": "address"
        },
        {
          "internalType": "address",
          "name": "receiver",
          "type": "address"
        },
        {
          "internalType": "uint256",
          "name": "amount",
          "type": "uint256"
        }
      ],
      "name": "sendTokens",
      "outputs": [],
      "stateMutability": "payable",
      "type": "function"
    },
    {
      "inputs": [
        {
          "internalType": "address",
          "name": "receiver",
          "type": "address"
        },
        {
          "internalType": "uint256",
          "name": "amount",
          "type": "uint256"
        }
      ],
      "name": "sendWnt",
      "outputs": [],
      "stateMutability": "payable",
      "type": "function"
    },
    {
      "inputs": [
        {
          "internalType": "address",
          "name": "subaccount",
          "type": "address"
        },
        {
          "internalType": "bytes32",
          "name": "actionType",
          "type": "bytes32"
        },
        {
          "internalType": "uint256",
          "name": "maxAllowedCount",
          "type": "uint256"
        }
      ],
      "name": "setMaxAllowedSubaccountActionCount",
      "outputs": [],
      "stateMutability": "payable",
      "type": "function"
    },
    {
      "inputs": [
        {
          "internalType": "address",
          "name": "subaccount",
          "type": "address"
        },
        {
          "internalType": "uint256",
          "name": "amount",
          "type": "uint256"
        }
      ],
      "name": "setSubaccountAutoTopUpAmount",
      "outputs": [],
      "stateMutability": "payable",
      "type": "function"
    },
    {
      "inputs": [
        {
          "internalType": "bytes32",
          "name": "key",
          "type": "bytes32"
        },
        {
          "internalType": "uint256",
          "name": "sizeDeltaUsd",
          "type": "uint256"
        },
        {
          "internalType": "uint256",
          "name": "acceptablePrice",
          "type": "uint256"
        },
        {
          "internalType": "uint256",
          "name": "triggerPrice",
          "type": "uint256"
        },
        {
          "internalType": "uint256",
          "name": "minOutputAmount",
          "type": "uint256"
        }
      ],
      "name": "updateOrder",
      "outputs": [],
      "stateMutability": "payable",
      "type": "function"
    },
    {
      "stateMutability": "payable",
      "type": "receive"
    }
  ],
  "bytecode": "0x61014060405234801561001157600080fd5b5060405161418e38038061418e8339810160408190526100309161007c565b60016000556001600160a01b0394851660805294841660a05291831660c052821660e0528116610100521661012052610103565b6001600160a01b038116811461007957600080fd5b50565b60008060008060008060c0878903121561009557600080fd5b86516100a081610064565b60208801519096506100b181610064565b60408801519095506100c281610064565b60608801519094506100d381610064565b60808801519093506100e481610064565b60a08801519092506100f581610064565b809150509295509295509295565b60805160a05160c05160e0516101005161012051613f7261021c600039600081816102540152610c130152600081816102ef015281816106aa015281816108d00152610c8c01526000818161028801528181610443015281816104a6015281816105570152818161075e015281816113dc01526117af01526000818160de015281816101d40152818161042201528181610485015281816104f401528181610536015281816105a80152818161073d015281816107a6015281816107f70152818161135d01528181611390015281816113bb0152818161140a0152818161144401526116ca01526000818161035701528181610bb501528181610d4f0152818161150a0152611658015260006101770152613f726000f3fe6080604052600436106100d25760003560e01c80633914f2171461013f5780633e46b365146101525780634a4a7b041461016557806353ead2d3146101af578063660d0d67146101c2578063712182eb146101f65780637489ec231461020957806379a358a21461021c5780637d39aaf11461022f57806393845e46146102425780639ff78c3014610276578063aab286f8146102aa578063ac9650d8146102bd578063b5848305146102dd578063e314617214610311578063e6d66ac814610332578063f887ea401461034557600080fd5b3661013a5760006101027f0000000000000000000000000000000000000000000000000000000000000000610379565b9050336001600160a01b03821614610138573360405163738d28df60e11b815260040161012f91906128f2565b60405180910390fd5b005b600080fd5b61013861014d36600461292b565b610414565b610138610160366004612948565b610477565b34801561017157600080fd5b506101997f000000000000000000000000000000000000000000000000000000000000000081565b6040516101a691906128f2565b60405180910390f35b6101386101bd36600461297d565b6104de565b3480156101ce57600080fd5b506101997f000000000000000000000000000000000000000000000000000000000000000081565b61013861020436600461292b565b610528565b6101386102173660046129a9565b61057d565b61013861022a36600461297d565b61072f565b61013861023d36600461297d565b610790565b34801561024e57600080fd5b506101997f000000000000000000000000000000000000000000000000000000000000000081565b34801561028257600080fd5b506101997f000000000000000000000000000000000000000000000000000000000000000081565b6101386102b83660046129c2565b6107cc565b6102d06102cb3660046129fd565b610960565b6040516101a69190612b1e565b3480156102e957600080fd5b506101997f000000000000000000000000000000000000000000000000000000000000000081565b61032461031f366004612b31565b610a73565b6040519081526020016101a6565b610138610340366004612b88565b610d25565b34801561035157600080fd5b506101997f000000000000000000000000000000000000000000000000000000000000000081565b6000816001600160a01b03166321f8a72160405160200161039990612bc9565b604051602081830303815290604052805190602001206040518263ffffffff1660e01b81526004016103cd91815260200190565b602060405180830381865afa1580156103ea573d6000803e3d6000fd5b505050506040513d601f19601f8201168201806040525081019061040e9190612bf1565b92915050565b61041c610dc7565b336104697f00000000000000000000000000000000000000000000000000000000000000007f00000000000000000000000000000000000000000000000000000000000000008385610e20565b506104746001600055565b50565b61047f610dc7565b336104ce7f00000000000000000000000000000000000000000000000000000000000000007f000000000000000000000000000000000000000000000000000000000000000083878787610f7a565b506104d96001600055565b505050565b6104e6610dc7565b6104ef8261113e565b61051a7f00000000000000000000000000000000000000000000000000000000000000008383611165565b6105246001600055565b5050565b610530610dc7565b336104697f00000000000000000000000000000000000000000000000000000000000000007f00000000000000000000000000000000000000000000000000000000000000008385611238565b610585610dc7565b60005a9050600073__$9dcb75ef0bb6c4288f2ccffe7dc492c4eb$__63fdfc26f37f0000000000000000000000000000000000000000000000000000000000000000856040518363ffffffff1660e01b81526004016105e5929190612c0e565b600060405180830381865af4158015610602573d6000803e3d6000fd5b505050506040513d6000823e601f3d908101601f1916820160405261062a9190810190612e8b565b9050600061063782515190565b6001600160a01b03160361065e57604051631630779760e01b815260040160405180910390fd5b61069461066a82515190565b60405160200161067990612fb9565b60405160208183030381529060405280519060200120611358565b604051637489ec2360e01b8152600481018490527f00000000000000000000000000000000000000000000000000000000000000006001600160a01b031690637489ec2390602401600060405180830381600087803b1580156106f657600080fd5b505af115801561070a573d6000803e3d6000fd5b5050505061072361071a82515190565b33846000611403565b50506104746001600055565b610737610dc7565b336107857f00000000000000000000000000000000000000000000000000000000000000007f0000000000000000000000000000000000000000000000000000000000000000838686611813565b506105246001600055565b610798610dc7565b6107a18261113e565b61051a7f000000000000000000000000000000000000000000000000000000000000000083836119cc565b6107d4610dc7565b60005a9050600073__$9dcb75ef0bb6c4288f2ccffe7dc492c4eb$__63fdfc26f37f0000000000000000000000000000000000000000000000000000000000000000896040518363ffffffff1660e01b8152600401610834929190612c0e565b600060405180830381865af4158015610851573d6000803e3d6000fd5b505050506040513d6000823e601f3d908101601f191682016040526108799190810190612e8b565b9050600061088682515190565b6001600160a01b0316036108ad57604051631630779760e01b815260040160405180910390fd5b6108b961066a82515190565b6040516396fe6a9360e01b81526001600160a01b037f000000000000000000000000000000000000000000000000000000000000000016906396fe6a939061090f908a908a908a908a908a9089906004016130df565b600060405180830381600087803b15801561092957600080fd5b505af115801561093d573d6000803e3d6000fd5b5050505061094d61071a82515190565b50506109596001600055565b5050505050565b6060816001600160401b0381111561097a5761097a612c27565b6040519080825280602002602001820160405280156109ad57816020015b60608152602001906001900390816109985790505b50905060005b82811015610a6c57600080308686858181106109d1576109d16131e4565b90506020028101906109e391906131fa565b6040516109f1929190613247565b600060405180830381855af49150503d8060008114610a2c576040519150601f19603f3d011682016040523d82523d6000602084013e610a31565b606091505b509150915081610a4457610a4481611a4f565b80848481518110610a5757610a576131e4565b602090810291909101015250506001016109b3565b5092915050565b6000610a7d610dc7565b60005a9050610a958460405160200161067990612fb9565b6001600160a01b038416610aa98480613257565b610ab790602081019061292b565b6001600160a01b031614610af957610acf8380613257565b610add90602081019061292b565b846040516325d55c0b60e11b815260040161012f929190613277565b6000610b0d6101208501610100860161329c565b6007811115610b1e57610b1e61302f565b1480610b4c57506001610b396101208501610100860161329c565b6007811115610b4a57610b4a61302f565b145b80610b7957506002610b666101208501610100860161329c565b6007811115610b7757610b7761302f565b145b80610ba657506003610b936101208501610100860161329c565b6007811115610ba457610ba461302f565b145b15610c72576001600160a01b037f000000000000000000000000000000000000000000000000000000000000000016631b827878610be48580613257565b610bf59060a081019060800161292b565b604080516001600160e01b031960e085901b168152610c3f929189917f0000000000000000000000000000000000000000000000000000000000000000918a0135906004016132b9565b600060405180830381600087803b158015610c5957600080fd5b505af1158015610c6d573d6000803e3d6000fd5b505050505b60405163718a30b960e11b81526000906001600160a01b037f0000000000000000000000000000000000000000000000000000000000000000169063e314617290610cc39088908890600401613429565b6020604051808303816000875af1158015610ce2573d6000803e3d6000fd5b505050506040513d601f19601f82011682018060405250810190610d069190613533565b9050610d1885338460a0880135611403565b91505061040e6001600055565b610d2d610dc7565b610d368261113e565b6040516303704f0f60e31b815233906001600160a01b037f00000000000000000000000000000000000000000000000000000000000000001690631b82787890610d8a9087908590889088906004016132b9565b600060405180830381600087803b158015610da457600080fd5b505af1158015610db8573d6000803e3d6000fd5b50505050506104d96001600055565b600260005403610e195760405162461bcd60e51b815260206004820152601f60248201527f5265656e7472616e637947756172643a207265656e7472616e742063616c6c00604482015260640161012f565b6002600055565b6000610e2b83611a88565b60405163b348e63960e01b81529091506001600160a01b0386169063b348e63990610e5c908490869060040161354c565b600060405180830381600087803b158015610e7657600080fd5b505af1158015610e8a573d6000803e3d6000fd5b50505050610e966127f4565b8051610ea3906002611b02565b6040805180820190915260078152661858d8dbdd5b9d60ca1b60208201528151610ed09160009087611b67565b60408051808201909152600a8152691cdd589858d8dbdd5b9d60b21b60208201528151610f009160019086611b67565b846001600160a01b03166363d16363610f1886611bc4565b610f2186611bc4565b846040518463ffffffff1660e01b8152600401610f4093929190613beb565b600060405180830381600087803b158015610f5a57600080fd5b505af1158015610f6e573d6000803e3d6000fd5b50505050505050505050565b6000610f87858585611bd0565b604051637152429d60e11b815260048101829052602481018490529091506001600160a01b0388169063e2a4853a906044016020604051808303816000875af1158015610fd8573d6000803e3d6000fd5b505050506040513d601f19601f82011682018060405250810190610ffc9190613533565b506110056127f4565b8051611012906002611b02565b6040805180820190915260078152661858d8dbdd5b9d60ca1b6020820152815161103f9160009089611b67565b60408051808201909152600a8152691cdd589858d8dbdd5b9d60b21b6020820152815161106f9160019088611b67565b602081015161107f906001611b02565b6110c260006040518060400160405280600f81526020016e1b585e105b1b1bddd95910dbdd5b9d608a1b815250858460200151611c76909392919063ffffffff16565b866001600160a01b03166363d163636110da88611bc4565b6110e388611bc4565b846040518463ffffffff1660e01b815260040161110293929190613c2e565b600060405180830381600087803b15801561111c57600080fd5b505af1158015611130573d6000803e3d6000fd5b505050505050505050505050565b6001600160a01b0381166104745760405163d551823d60e01b815260040160405180910390fd5b8060000361117257505050565b61117b8261113e565b6000836001600160a01b031663bd02d0f560405160200161119b90613c8c565b604051602081830303815290604052805190602001206040518263ffffffff1660e01b81526004016111cf91815260200190565b602060405180830381865afa1580156111ec573d6000803e3d6000fd5b505050506040513d601f19601f820116820180604052508101906112109190613533565b90506000806000806000868887f19050801561122d575050505050565b6109598585856119cc565b600061124383611a88565b6040516369721d4160e01b81529091506001600160a01b038616906369721d4190611274908490869060040161354c565b600060405180830381600087803b15801561128e57600080fd5b505af11580156112a2573d6000803e3d6000fd5b505050506112ae6127f4565b80516112bb906002611b02565b6040805180820190915260078152661858d8dbdd5b9d60ca1b602082015281516112e89160009087611b67565b60408051808201909152600a8152691cdd589858d8dbdd5b9d60b21b602082015281516113189160019086611b67565b846001600160a01b03166363d1636361133086611bc4565b61133986611bc4565b846040518463ffffffff1660e01b8152600401610f4093929190613cc3565b61138a7f000000000000000000000000000000000000000000000000000000000000000061138530611cc9565b611d0a565b336113b67f00000000000000000000000000000000000000000000000000000000000000008483611d35565b6104d97f00000000000000000000000000000000000000000000000000000000000000007f0000000000000000000000000000000000000000000000000000000000000000858486611dd3565b60006114307f00000000000000000000000000000000000000000000000000000000000000008686611fa9565b905080600003611440575061180d565b60007f00000000000000000000000000000000000000000000000000000000000000006001600160a01b03166321f8a72160405160200161148090612bc9565b604051602081830303815290604052805190602001206040518263ffffffff1660e01b81526004016114b491815260200190565b602060405180830381865afa1580156114d1573d6000803e3d6000fd5b505050506040513d601f19601f820116820180604052508101906114f59190612bf1565b905081816001600160a01b031663dd62ed3e887f00000000000000000000000000000000000000000000000000000000000000006040518363ffffffff1660e01b8152600401611546929190613277565b602060405180830381865afa158015611563573d6000803e3d6000fd5b505050506040513d601f19601f820116820180604052508101906115879190613533565b101561159457505061180d565b6040516370a0823160e01b815282906001600160a01b038316906370a08231906115c2908a906004016128f2565b602060405180830381865afa1580156115df573d6000803e3d6000fd5b505050506040513d601f19601f820116820180604052508101906116039190613533565b101561161057505061180d565b6000833a5a61161f9088613d1f565b6116299190613d32565b6116339190613d49565b905082811015611641578092505b6040516303704f0f60e31b81526001600160a01b037f00000000000000000000000000000000000000000000000000000000000000001690631b827878906116939085908b90309089906004016132b9565b600060405180830381600087803b1580156116ad57600080fd5b505af11580156116c1573d6000803e3d6000fd5b505050506116f17f000000000000000000000000000000000000000000000000000000000000000083888661202b565b6116f96127f4565b8051611706906002611b02565b6040805180820190915260078152661858d8dbdd5b9d60ca1b60208201528151611733916000908b611b67565b60408051808201909152600a8152691cdd589858d8dbdd5b9d60b21b60208201528151611763916001908a611b67565b6020810151611773906001611b02565b6117ad600060405180604001604052806006815260200165185b5bdd5b9d60d21b815250868460200151611c76909392919063ffffffff16565b7f00000000000000000000000000000000000000000000000000000000000000006001600160a01b03166363d163636117e58a611bc4565b6117ee8a611bc4565b846040518463ffffffff1660e01b815260040161110293929190613d5c565b50505050565b600061181f8484612159565b604051637152429d60e11b815260048101829052602481018490529091506001600160a01b0387169063e2a4853a906044016020604051808303816000875af1158015611870573d6000803e3d6000fd5b505050506040513d601f19601f820116820180604052508101906118949190613533565b5061189d6127f4565b80516118aa906002611b02565b6040805180820190915260078152661858d8dbdd5b9d60ca1b602082015281516118d79160009088611b67565b60408051808201909152600a8152691cdd589858d8dbdd5b9d60b21b602082015281516119079160019087611b67565b6020810151611917906001611b02565b611951600060405180604001604052806006815260200165185b5bdd5b9d60d21b815250858460200151611c76909392919063ffffffff16565b856001600160a01b03166363d1636361196987611bc4565b61197287611bc4565b846040518463ffffffff1660e01b815260040161199193929190613da5565b600060405180830381600087803b1580156119ab57600080fd5b505af11580156119bf573d6000803e3d6000fd5b5050505050505050505050565b806000036119d957505050565b6119e28261113e565b60006119ed84610379565b9050806001600160a01b031663d0e30db0836040518263ffffffff1660e01b81526004016000604051808303818588803b158015611a2a57600080fd5b505af1158015611a3e573d6000803e3d6000fd5b505050505061180d848285856121f2565b600080611a5b8361243c565b915091508015611a7f578160405162461bcd60e51b815260040161012f9190613df7565b6104d9836124cc565b6000604051602001611abd906020808252600f908201526e14d5509050d0d3d5539517d31254d5608a1b604082015260600190565b6040516020818303038152906040528051906020012082604051602001611ae592919061354c565b604051602081830303815290604052805190602001209050919050565b806001600160401b03811115611b1a57611b1a612c27565b604051908082528060200260200182016040528015611b6057816020015b604080518082019091526060815260006020820152815260200190600190039081611b385790505b5090915250565b8184600001518481518110611b7e57611b7e6131e4565b6020026020010151600001819052508084600001518481518110611ba457611ba46131e4565b6020908102919091018101516001600160a01b0390921691015250505050565b6001600160a01b031690565b6000604051602001611c1f9060208082526023908201527f4d41585f414c4c4f5745445f5355424143434f554e545f414354494f4e5f434f60408201526215539560ea1b606082015260800190565b60408051808303601f190181528282528051602091820120818401526001600160a01b03968716838301529490951660608201526080808201939093528451808203909301835260a0019093528051910120919050565b8184600001518481518110611c8d57611c8d6131e4565b6020026020010151600001819052508084600001518481518110611cb357611cb36131e4565b6020026020010151602001818152505050505050565b6000604051602001611abd906020808252601b908201527a14d5509050d0d3d5539517d191505515549157d11254d050931151602a1b604082015260600190565b611d1482826124d5565b156105245760405163dd70e0c960e01b81526004810182905260240161012f565b6000611d4083611a88565b60405163c769d1a160e01b81529091506001600160a01b0385169063c769d1a190611d71908490869060040161354c565b602060405180830381865afa158015611d8e573d6000803e3d6000fd5b505050506040513d601f19601f82011682018060405250810190611db29190613e0a565b61180d5782826040516326f8290f60e21b815260040161012f929190613277565b6000611de0848484612548565b60405163340dbab360e01b815260048101829052600160248201529091506000906001600160a01b0388169063340dbab3906044016020604051808303816000875af1158015611e34573d6000803e3d6000fd5b505050506040513d601f19601f82011682018060405250810190611e589190613533565b9050611e678786868685612585565b611e6f6127f4565b8051611e7c906002611b02565b6040805180820190915260078152661858d8dbdd5b9d60ca1b60208201528151611ea99160009089611b67565b60408051808201909152600a8152691cdd589858d8dbdd5b9d60b21b60208201528151611ed99160019088611b67565b6020810151611ee9906001611b02565b611f266000604051806040016040528060098152602001686e65787456616c756560b81b815250848460200151611c76909392919063ffffffff16565b6080810151611f36906001611b02565b60408051808201909152600a815269616374696f6e5479706560b01b60208201526080820151611f699160009087611c76565b866001600160a01b03166363d16363611f8188611bc4565b611f8a88611bc4565b846040518463ffffffff1660e01b815260040161110293929190613e27565b600080611fb68484612159565b60405163bd02d0f560e01b8152600481018290529091506001600160a01b0386169063bd02d0f590602401602060405180830381865afa158015611ffe573d6000803e3d6000fd5b505050506040513d601f19601f820116820180604052508101906120229190613533565b95945050505050565b801561180d5761203a8261113e565b604051632e1a7d4d60e01b8152600481018290526001600160a01b03841690632e1a7d4d90602401600060405180830381600087803b15801561207c57600080fd5b505af1158015612090573d6000803e3d6000fd5b505050506000846001600160a01b031663bd02d0f56040516020016120b490613c8c565b604051602081830303815290604052805190602001206040518263ffffffff1660e01b81526004016120e891815260200190565b602060405180830381865afa158015612105573d6000803e3d6000fd5b505050506040513d601f19601f820116820180604052508101906121299190613533565b90506000806000806000868887f19050801561214657505061180d565b6121518685856119cc565b505050505050565b600060405160200161219c906020808252601d908201527f5355424143434f554e545f4155544f5f544f505f55505f414d4f554e54000000604082015260600190565b60408051601f198184030181528282528051602091820120908301526001600160a01b03808616918301919091528316606082015260800160405160208183030381529060405280519060200120905092915050565b801561180d576122018261113e565b6000846001600160a01b031663bd02d0f561221b8661264e565b6040518263ffffffff1660e01b815260040161223991815260200190565b602060405180830381865afa158015612256573d6000803e3d6000fd5b505050506040513d601f19601f8201168201806040525081019061227a9190613533565b90508060000361229f5783604051634fe14bfd60e11b815260040161012f91906128f2565b60006122ad8585858561268c565b50905080156122bd57505061180d565b6000866001600160a01b03166321f8a721604051602001612301906020808252600f908201526e484f4c44494e475f4144445245535360881b604082015260600190565b604051602081830303815290604052805190602001206040518263ffffffff1660e01b815260040161233591815260200190565b602060405180830381865afa158015612352573d6000803e3d6000fd5b505050506040513d601f19601f820116820180604052508101906123769190612bf1565b90506001600160a01b03811661239f57604051633a6de2f560e21b815260040160405180910390fd5b6000806123ae8884888861268c565b9150915081156123c257505050505061180d565b60006123cd8261243c565b5090507fc9f14d9a0a9b46470c7c0b6c508f8283abaab7f795f153953c58cd4250824dae8183604051612401929190613e7a565b60405180910390a160405163012f3b8f60e71b81526001600160a01b03808b166004830152891660248201526044810188905260640161012f565b60606000604483511015612463575050604080516020810190915260008082529092909150565b6000612470846020015190565b90506307b9e43360e51b6001600160e01b03198216016124af57600484019350838060200190518101906124a49190613e9f565b946001945092505050565b600060405180602001604052806000815250909250925050915091565b80518060208301fd5b604051633d70e7e560e11b8152600481018290526000906001600160a01b03841690637ae1cfca90602401602060405180830381865afa15801561251d573d6000803e3d6000fd5b505050506040513d601f19601f820116820180604052508101906125419190613e0a565b9392505050565b6000604051602001611c1f9060208082526017908201527614d5509050d0d3d5539517d050d51253d397d0d3d55395604a1b604082015260600190565b6000612592858585611bd0565b60405163bd02d0f560e01b8152600481018290529091506000906001600160a01b0388169063bd02d0f590602401602060405180830381865afa1580156125dd573d6000803e3d6000fd5b505050506040513d601f19601f820116820180604052508101906126019190613533565b9050808311156126455760405163519ba75360e01b81526001600160a01b03808816600483015286166024820152604481018490526064810182905260840161012f565b50505050505050565b6000604051602001611abd906020808252601890820152771513d2d15397d514905394d1915497d1d054d7d31253525560421b604082015260600190565b60006060600063a9059cbb60e01b86866040516024016126ad929190612c0e565b604051602081830303815290604052906001600160e01b0319166020820180516001600160e01b0383818316178352505050509050600080886001600160a01b031686846040516126fe9190613f2a565b60006040518083038160008787f1925050503d806000811461273c576040519150601f19603f3d011682016040523d82523d6000602084013e612741565b606091505b509150915081156127e257805160000361279f576001600160a01b0389163b61279f5760006040518060400160405280601481526020017310d85b1b081d1bc81b9bdb8b58dbdb9d1c9858dd60621b815250945094505050506127eb565b600081511180156127c15750808060200190518101906127bf9190613e0a565b155b156127d4576000945092506127eb915050565b6001945092506127eb915050565b60009450925050505b94509492505050565b604080516101208101909152606060e0820181815261010083019190915281908152602001612836604051806040016040528060608152602001606081525090565b8152602001612858604051806040016040528060608152602001606081525090565b815260200161287a604051806040016040528060608152602001606081525090565b815260200161289c604051806040016040528060608152602001606081525090565b81526020016128be604051806040016040528060608152602001606081525090565b81526020016128e0604051806040016040528060608152602001606081525090565b905290565b6001600160a01b03169052565b6001600160a01b0391909116815260200190565b6001600160a01b038116811461047457600080fd5b803561292681612906565b919050565b60006020828403121561293d57600080fd5b813561254181612906565b60008060006060848603121561295d57600080fd5b833561296881612906565b95602085013595506040909401359392505050565b6000806040838503121561299057600080fd5b823561299b81612906565b946020939093013593505050565b6000602082840312156129bb57600080fd5b5035919050565b600080600080600060a086880312156129da57600080fd5b505083359560208501359550604085013594606081013594506080013592509050565b60008060208385031215612a1057600080fd5b82356001600160401b03811115612a2657600080fd5b8301601f81018513612a3757600080fd5b80356001600160401b03811115612a4d57600080fd5b8560208260051b8401011115612a6257600080fd5b6020919091019590945092505050565b60005b83811015612a8d578181015183820152602001612a75565b50506000910152565b60008151808452612aae816020860160208601612a72565b601f01601f19169290920160200192915050565b600082825180855260208501945060208160051b8301016020850160005b83811015612b1257601f19858403018852612afc838351612a96565b6020988901989093509190910190600101612ae0565b50909695505050505050565b6020815260006125416020830184612ac2565b60008060408385031215612b4457600080fd5b8235612b4f81612906565b915060208301356001600160401b03811115612b6a57600080fd5b83016101a08186031215612b7d57600080fd5b809150509250929050565b600080600060608486031215612b9d57600080fd5b8335612ba881612906565b92506020840135612bb881612906565b929592945050506040919091013590565b60208082526003908201526215d39560ea1b604082015260600190565b805161292681612906565b600060208284031215612c0357600080fd5b815161254181612906565b6001600160a01b03929092168252602082015260400190565b634e487b7160e01b600052604160045260246000fd5b60405161014081016001600160401b0381118282101715612c6057612c60612c27565b60405290565b604051606081016001600160401b0381118282101715612c6057612c60612c27565b60405160e081016001600160401b0381118282101715612c6057612c60612c27565b604051601f8201601f191681016001600160401b0381118282101715612cd257612cd2612c27565b604052919050565b600082601f830112612ceb57600080fd5b81516001600160401b03811115612d0457612d04612c27565b8060051b612d1460208201612caa565b91825260208185018101929081019086841115612d3057600080fd5b6020860192505b83831015612d5b578251612d4a81612906565b825260209283019290910190612d37565b9695505050505050565b6008811061047457600080fd5b805161292681612d65565b6003811061047457600080fd5b805161292681612d7d565b60006101408284031215612da857600080fd5b612db0612c3d565b9050612dbb82612d72565b8152612dc960208301612d8a565b602082015260408281015190820152606080830151908201526080808301519082015260a0808301519082015260c0808301519082015260e0808301519082015261010080830151908201526101209182015191810191909152919050565b801515811461047457600080fd5b600060608284031215612e4857600080fd5b612e50612c66565b90508151612e5d81612e28565b81526020820151612e6d81612e28565b60208201526040820151612e8081612e28565b604082015292915050565b600060208284031215612e9d57600080fd5b81516001600160401b03811115612eb357600080fd5b82016101c08185031215612ec657600080fd5b612ece612c66565b81516001600160401b03811115612ee457600080fd5b820160e08187031215612ef657600080fd5b612efe612c88565b612f0782612be6565b8152612f1560208301612be6565b6020820152612f2660408301612be6565b6040820152612f3760608301612be6565b6060820152612f4860808301612be6565b6080820152612f5960a08301612be6565b60a082015260c08201516001600160401b03811115612f7757600080fd5b612f8388828501612cda565b60c083015250825250612f998560208401612d95565b6020820152612fac856101608401612e36565b6040820152949350505050565b60208082526017908201527629aaa120a1a1a7aaa72a2fa7a92222a92fa0a1aa24a7a760491b604082015260600190565b600081518084526020840193506020830160005b828110156130255781516001600160a01b0316865260209586019590910190600101612ffe565b5093949350505050565b634e487b7160e01b600052602160045260246000fd5b600881106130555761305561302f565b9052565b600381106130555761305561302f565b613074828251613045565b60208101516130866020840182613059565b5060408101516040830152606081015160608301526080810151608083015260a081015160a083015260c081015160c083015260e081015160e08301526101008101516101008301526101208101516101208301525050565b86815285602082015284604082015283606082015282608082015260c060a0820152600082516101c060c084015260018060a01b0381511661028084015260018060a01b036020820151166102a084015260018060a01b036040820151166102c084015260608101516131566102e08501826128e5565b50608081015161316a6103008501826128e5565b5060a081015161317e6103208501826128e5565b5060c0015160e0610340840152613199610360840182612fea565b905060208401516131ad60e0850182613069565b5060408481015180511515610220860152602081015115156102408601529081015115156102608501525098975050505050505050565b634e487b7160e01b600052603260045260246000fd5b6000808335601e1984360301811261321157600080fd5b8301803591506001600160401b0382111561322b57600080fd5b60200191503681900382131561324057600080fd5b9250929050565b8183823760009101908152919050565b6000823560be1983360301811261326d57600080fd5b9190910192915050565b6001600160a01b0392831681529116602082015260400190565b803561292681612d65565b6000602082840312156132ae57600080fd5b813561254181612d65565b6001600160a01b039485168152928416602084015292166040820152606081019190915260800190565b6000808335601e198436030181126132fa57600080fd5b83016020810192503590506001600160401b0381111561331957600080fd5b8060051b360382131561324057600080fd5b81835260208301925060008160005b8481101561302557813561334d81612906565b6001600160a01b03168652602095860195919091019060010161333a565b6000813561337881612906565b6001600160a01b03168352602082013561339181612906565b6001600160a01b0316602084015260408201356133ad81612906565b6001600160a01b0316604084015260608201356133c981612906565b6133d660608501826128e5565b506133e36080830161291b565b6133f060808501826128e5565b506133fe60a08301836132e3565b60c060a086015261202260c08601828461332b565b803561292681612d7d565b803561292681612e28565b6001600160a01b038316815260406020820152600082353684900360be1901811261345357600080fd5b6101a0604084015261346b6101e0840185830161336b565b90506134b96060840160208601803582526020808201359083015260408082013590830152606080820135908301526080808201359083015260a0808201359083015260c090810135910152565b6134c66101008501613291565b6134d4610140850182613045565b506134e26101208501613413565b6134f0610160850182613059565b506134fe610140850161341e565b1515610180840152613513610160850161341e565b15156101a084015261018093909301356101c09092019190915250919050565b60006020828403121561354557600080fd5b5051919050565b9182526001600160a01b0316602082015260400190565b600082825180855260208501945060208160051b8301016020850160005b83811015612b1257601f1985840301885281518051604085526135a76040860182612a96565b90506020820151915084810360208601526135c28183612fea565b60209a8b019a90955093909301925050600101613581565b60006040830182516040855281815180845260608701915060608160051b880101935060208301925060005b8181101561365457605f19888603018352835180516040875261362c6040880182612a96565b6020928301516001600160a01b03169783019790975250938401939290920191600101613606565b50505050602083015184820360208601526120228282613563565b600082825180855260208501945060208160051b8301016020850160005b83811015612b1257601f1985840301885281518051604085526136b36040860182612a96565b6020928301518682038785015280518083529084019360009350909101905b808310156136f557835182526020820191506020840193506001830192506136d2565b5060209a8b019a9095509390930192505060010161368d565b60006040830182516040855281815180845260608701915060608160051b880101935060208301925060005b8181101561377f57605f1988860301835283518051604087526137606040880182612a96565b602092830151978301979097525093840193929092019160010161373a565b5050505060208301518482036020860152612022828261366f565b600082825180855260208501945060208160051b8301016020850160005b83811015612b1257601f1985840301885281518051604085526137de6040860182612a96565b6020928301518682038785015280518083529084019360009350909101905b80831015613822578351151582526020820191506020840193506001830192506137fd565b5060209a8b019a909550939093019250506001016137b8565b60006040830182516040855281815180845260608701915060608160051b880101935060208301925060005b818110156138ae57605f19888603018352835180516040875261388d6040880182612a96565b60209283015115159783019790975250938401939290920191600101613867565b5050505060208301518482036020860152612022828261379a565b600082825180855260208501945060208160051b8301016020850160005b83811015612b1257601f19858403018852815180516040855261390d6040860182612a96565b90506020820151915084810360208601526139288183612ac2565b60209a8b019a909550939093019250506001016138e7565b60006040830182516040855281815180845260608701915060608160051b880101935060208301925060005b818110156139c457605f1988860301835283518051604087526139926040880182612a96565b90506020820151915086810360208801526139ad8183612a96565b96505050602093840193929092019160010161396c565b505050506020830151848203602086015261202282826138c9565b600082825180855260208501945060208160051b8301016020850160005b83811015612b1257601f198584030188528151805160408552613a236040860182612a96565b6020928301518682038785015280518083529084019391925081830191600582901b84010160005b82811015613a7c57601f19858303018452613a67828751612a96565b60209687019694909401939150600101613a4b565b5080975050505050506020820191506020880197506001810190506139fd565b60006040830182516040855281815180845260608701915060608160051b880101935060208301925060005b81811015613b2057605f198886030183528351805160408752613aee6040880182612a96565b9050602082015191508681036020880152613b098183612a96565b965050506020938401939290920191600101613ac8565b505050506020830151848203602086015261202282826139df565b6000815160e08452613b5060e08501826135da565b905060208301518482036020860152613b69828261370e565b91505060408301518482036040860152613b83828261370e565b91505060608301518482036060860152613b9d828261383b565b91505060808301518482036080860152613bb7828261370e565b91505060a083015184820360a0860152613bd18282613940565b91505060c083015184820360c08601526120228282613a9c565b60808152600d60808201526c10591914dd589858d8dbdd5b9d609a1b60a082015283602082015282604082015260c06060820152600061202260c0830184613b3b565b60808152602260808201527f5365744d6178416c6c6f7765645375626163636f756e74416374696f6e436f7560a0820152611b9d60f21b60c082015283602082015282604082015260e06060820152600061202260e0830184613b3b565b6020808252601f908201527f4e41544956455f544f4b454e5f5452414e534645525f4741535f4c494d495400604082015260600190565b60808152601060808201526f14995b5bdd9954dd589858d8dbdd5b9d60821b60a082015283602082015282604082015260c06060820152600061202260c0830184613b3b565b634e487b7160e01b600052601160045260246000fd5b8181038181111561040e5761040e613d09565b808202811582820484141761040e5761040e613d09565b8082018082111561040e5761040e613d09565b60808152601360808201527205375626163636f756e744175746f546f70557606c1b60a082015283602082015282604082015260c06060820152600061202260c0830184613b3b565b60808152601c60808201527b14d95d14dd589858d8dbdd5b9d105d5d1bd51bdc155c105b5bdd5b9d60221b60a082015283602082015282604082015260c06060820152600061202260c0830184613b3b565b6020815260006125416020830184612a96565b600060208284031215613e1c57600080fd5b815161254181612e28565b60808152601e60808201527f496e6372656d656e745375626163636f756e74416374696f6e436f756e74000060a082015283602082015282604082015260c06060820152600061202260c0830184613b3b565b604081526000613e8d6040830185612a96565b82810360208401526120228185612a96565b600060208284031215613eb157600080fd5b81516001600160401b03811115613ec757600080fd5b8201601f81018413613ed857600080fd5b80516001600160401b03811115613ef157613ef1612c27565b613f04601f8201601f1916602001612caa565b818152856020838501011115613f1957600080fd5b612022826020830160208601612a72565b6000825161326d818460208701612a7256fea2646970667358221220842a0b7600194f488d2494dcbd9f3436940c9e4693fb667ad1e993eecf9996fa64736f6c634300081a0033",
  "linkReferences": {
    "contracts/order/OrderStoreUtils.sol": {
      "OrderStoreUtils": [
        {
          "length": 20,
          "start": 1962
        },
        {
          "length": 20,
          "start": 2553
        }
      ]
    }
  },
  "deployedLinkReferences": {
    "contracts/order/OrderStoreUtils.sol": {
      "OrderStoreUtils": [
        {
          "length": 20,
          "start": 1422
        },
        {
          "length": 20,
          "start": 2013
        }
      ]
    }
  }
}