{
  "_format": "hh-sol-artifact-1",
  "contractName": "FeeHandler",
  "sourceName": "contracts/fee/FeeHandler.sol",
  "abi": [
    {
      "inputs": [
        {
          "internalType": "contract RoleStore",
          "name": "_roleStore",
          "type": "address"
        },
        {
          "internalType": "contract DataStore",
          "name": "_dataStore",
          "type": "address"
        },
        {
          "internalType": "contract EventEmitter",
          "name": "_eventEmitter",
          "type": "address"
        }
      ],
      "stateMutability": "nonpayable",
      "type": "constructor"
    },
    {
      "inputs": [],
      "name": "EmptyReceiver",
      "type": "error"
    },
    {
      "inputs": [
        {
          "internalType": "uint256",
          "name": "marketsLength",
          "type": "uint256"
        },
        {
          "internalType": "uint256",
          "name": "tokensLength",
          "type": "uint256"
        }
      ],
      "name": "InvalidClaimFeesInput",
      "type": "error"
    },
    {
      "inputs": [
        {
          "internalType": "address",
          "name": "msgSender",
          "type": "address"
        },
        {
          "internalType": "string",
          "name": "role",
          "type": "string"
        }
      ],
      "name": "Unauthorized",
      "type": "error"
    },
    {
      "inputs": [
        {
          "internalType": "address[]",
          "name": "markets",
          "type": "address[]"
        },
        {
          "internalType": "address[]",
          "name": "tokens",
          "type": "address[]"
        }
      ],
      "name": "claimFees",
      "outputs": [],
      "stateMutability": "nonpayable",
      "type": "function"
    },
    {
      "inputs": [],
      "name": "dataStore",
      "outputs": [
        {
          "internalType": "contract DataStore",
          "name": "",
          "type": "address"
        }
      ],
      "stateMutability": "view",
      "type": "function"
    },
    {
      "inputs": [],
      "name": "eventEmitter",
      "outputs": [
        {
          "internalType": "contract EventEmitter",
          "name": "",
          "type": "address"
        }
      ],
      "stateMutability": "view",
      "type": "function"
    },
    {
      "inputs": [],
      "name": "roleStore",
      "outputs": [
        {
          "internalType": "contract RoleStore",
          "name": "",
          "type": "address"
        }
      ],
      "stateMutability": "view",
      "type": "function"
    }
  ],
  "bytecode": "0x60e060405234801561001057600080fd5b506040516114df3803806114df83398101604081905261002f91610069565b60016000556001600160a01b0392831660805290821660a0521660c0526100b6565b6001600160a01b038116811461006657600080fd5b50565b60008060006060848603121561007e57600080fd5b835161008981610051565b602085015190935061009a81610051565b60408501519092506100ab81610051565b809150509250925092565b60805160a05160c0516113e16100fe6000396000818160d501526102ac01526000818160ae015281816101a6015261028b015260008181606b015261039301526113e16000f3fe608060405234801561001057600080fd5b506004361061004c5760003560e01c80633de460f0146100515780634a4a7b0414610066578063660d0d67146100a95780639ff78c30146100d0575b600080fd5b61006461005f366004610aea565b6100f7565b005b61008d7f000000000000000000000000000000000000000000000000000000000000000081565b6040516001600160a01b03909116815260200160405180910390f35b61008d7f000000000000000000000000000000000000000000000000000000000000000081565b61008d7f000000000000000000000000000000000000000000000000000000000000000081565b6100ff61031e565b61016e604051602001610130906020808252600a90820152692322a2afa5a2a2a822a960b11b604082015260600190565b604051602081830303815290604052805190602001206040518060400160405280600a8152602001692322a2afa5a2a2a822a960b11b815250610377565b80518251146101a257815181516040516384fa13d560e01b8152600481019290925260248201526044015b60405180910390fd5b60007f00000000000000000000000000000000000000000000000000000000000000006001600160a01b03166321f8a721604051602001610203906020808252600c908201526b2322a2afa922a1a2a4ab22a960a11b604082015260600190565b604051602081830303815290604052805190602001206040518263ffffffff1660e01b815260040161023791815260200190565b602060405180830381865afa158015610254573d6000803e3d6000fd5b505050506040513d601f19601f820116820180604052508101906102789190610b51565b905060005b835181101561030e576103057f00000000000000000000000000000000000000000000000000000000000000007f00000000000000000000000000000000000000000000000000000000000000008684815181106102dd576102dd610b75565b60200260200101518685815181106102f7576102f7610b75565b602002602001015186610427565b5060010161027d565b505061031a6001600055565b5050565b6002600054036103705760405162461bcd60e51b815260206004820152601f60248201527f5265656e7472616e637947756172643a207265656e7472616e742063616c6c006044820152606401610199565b6002600055565b60405163ac4ab3fb60e01b8152336004820152602481018390527f00000000000000000000000000000000000000000000000000000000000000006001600160a01b03169063ac4ab3fb90604401602060405180830381865afa1580156103e2573d6000803e3d6000fd5b505050506040513d601f19601f820116820180604052508101906104069190610b8b565b61031a57338160405163a35b150b60e01b8152600401610199929190610bf3565b600061043282610617565b600061043e8585610641565b60405163bd02d0f560e01b8152600481018290529091506000906001600160a01b0389169063bd02d0f590602401602060405180830381865afa158015610489573d6000803e3d6000fd5b505050506040513d601f19601f820116820180604052508101906104ad9190610c1f565b604051637152429d60e11b815260048101849052600060248201529091506001600160a01b0389169063e2a4853a906044016020604051808303816000875af11580156104fe573d6000803e3d6000fd5b505050506040513d601f19601f820116820180604052508101906105229190610c1f565b5060405163078d3b7960e01b81526001600160a01b03868116600483015285811660248301526044820183905287169063078d3b7990606401600060405180830381600087803b15801561057557600080fd5b505af1158015610589573d6000803e3d6000fd5b5050604051632c9800af60e11b81526001600160a01b03808c1660048301528916602482015273__$e53db83827f4e07ebc418caf7145b8c2d5$__9250635930015e915060440160006040518083038186803b1580156105e857600080fd5b505af41580156105fc573d6000803e3d6000fd5b5050505061060c878786846106d1565b979650505050505050565b6001600160a01b03811661063e5760405163d551823d60e01b815260040160405180910390fd5b50565b600060405160200161067b9060208082526014908201527310d31052535050931157d1915157d05353d5539560621b604082015260600190565b60408051601f198184030181528282528051602091820120908301526001600160a01b03808616918301919091528316606082015260800160405160208183030381529060405280519060200120905092915050565b6106d9610918565b80516106e6906002610803565b6040805180820190915260068152651b585c9ad95d60d21b602082015281516107129160009087610868565b6040805180820190915260088152673932b1b2b4bb32b960c11b602082015281516107409160019086610868565b6020810151610750906001610803565b61078d600060405180604001604052806009815260200168199959505b5bdd5b9d60ba1b8152508484602001516108c5909392919063ffffffff16565b846001600160a01b03166324de01e46107ac866001600160a01b031690565b836040518363ffffffff1660e01b81526004016107ca9291906112a5565b600060405180830381600087803b1580156107e457600080fd5b505af11580156107f8573d6000803e3d6000fd5b505050505050505050565b806001600160401b0381111561081b5761081b610a09565b60405190808252806020026020018201604052801561086157816020015b6040805180820190915260608152600060208201528152602001906001900390816108395790505b5090915250565b818460000151848151811061087f5761087f610b75565b60200260200101516000018190525080846000015184815181106108a5576108a5610b75565b6020908102919091018101516001600160a01b0390921691015250505050565b81846000015184815181106108dc576108dc610b75565b602002602001015160000181905250808460000151848151811061090257610902610b75565b6020026020010151602001818152505050505050565b604080516101208101909152606060e082018181526101008301919091528190815260200161095a604051806040016040528060608152602001606081525090565b815260200161097c604051806040016040528060608152602001606081525090565b815260200161099e604051806040016040528060608152602001606081525090565b81526020016109c0604051806040016040528060608152602001606081525090565b81526020016109e2604051806040016040528060608152602001606081525090565b8152602001610a04604051806040016040528060608152602001606081525090565b905290565b634e487b7160e01b600052604160045260246000fd5b6001600160a01b038116811461063e57600080fd5b8035610a3f81610a1f565b919050565b600082601f830112610a5557600080fd5b81356001600160401b03811115610a6e57610a6e610a09565b604051600582901b90603f8201601f191681016001600160401b0381118282101715610a9c57610a9c610a09565b604052918252602081850181019290810186841115610aba57600080fd5b6020860192505b83831015610ae057610ad283610a34565b815260209283019201610ac1565b5095945050505050565b60008060408385031215610afd57600080fd5b82356001600160401b03811115610b1357600080fd5b610b1f85828601610a44565b92505060208301356001600160401b03811115610b3b57600080fd5b610b4785828601610a44565b9150509250929050565b600060208284031215610b6357600080fd5b8151610b6e81610a1f565b9392505050565b634e487b7160e01b600052603260045260246000fd5b600060208284031215610b9d57600080fd5b81518015158114610b6e57600080fd5b6000815180845260005b81811015610bd357602081850181015186830182015201610bb7565b506000602082860101526020601f19601f83011685010191505092915050565b6001600160a01b0383168152604060208201819052600090610c1790830184610bad565b949350505050565b600060208284031215610c3157600080fd5b5051919050565b600082825180855260208501945060208160051b8301016020850160005b83811015610cdf57601f198584030188528151805160408552610c7c6040860182610bad565b6020928301518682038785015280518083529084019360009350909101905b80831015610cc65783516001600160a01b031682526020938401936001939093019290910190610c9b565b5060209a8b019a90955093909301925050600101610c56565b50909695505050505050565b60006040830182516040855281815180845260608701915060608160051b880101935060208301925060005b81811015610d6557605f198886030183528351805160408752610d3d6040880182610bad565b6020928301516001600160a01b03169783019790975250938401939290920191600101610d17565b5050505060208301518482036020860152610d808282610c38565b95945050505050565b600082825180855260208501945060208160051b8301016020850160005b83811015610cdf57601f198584030188528151805160408552610dcd6040860182610bad565b6020928301518682038785015280518083529084019360009350909101905b80831015610e0f5783518252602082019150602084019350600183019250610dec565b5060209a8b019a90955093909301925050600101610da7565b60006040830182516040855281815180845260608701915060608160051b880101935060208301925060005b81811015610e9957605f198886030183528351805160408752610e7a6040880182610bad565b6020928301519783019790975250938401939290920191600101610e54565b5050505060208301518482036020860152610d808282610d89565b60006040830182516040855281815180845260608701915060608160051b880101935060208301925060005b81811015610e9957605f198886030183528351805160408752610f066040880182610bad565b6020928301519783019790975250938401939290920191600101610ee0565b600082825180855260208501945060208160051b8301016020850160005b83811015610cdf57601f198584030188528151805160408552610f696040860182610bad565b6020928301518682038785015280518083529084019360009350909101905b80831015610fad57835115158252602082019150602084019350600183019250610f88565b5060209a8b019a90955093909301925050600101610f43565b60006040830182516040855281815180845260608701915060608160051b880101935060208301925060005b8181101561103957605f1988860301835283518051604087526110186040880182610bad565b60209283015115159783019790975250938401939290920191600101610ff2565b5050505060208301518482036020860152610d808282610f25565b60006040830182516040855281815180845260608701915060608160051b880101935060208301925060005b81811015610e9957605f1988860301835283518051604087526110a66040880182610bad565b6020928301519783019790975250938401939290920191600101611080565b600082825180855260208501945060208160051b8301016020850160005b83811015610cdf57601f1985840301885281518051604085526111096040860182610bad565b6020928301518682038785015280518083529084019391925081830191600582901b84010160005b8281101561116257601f1985830301845261114d828751610bad565b60209687019694909401939150600101611131565b5080975050505050506020820191506020880197506001810190506110e3565b60006040830182516040855281815180845260608701915060608160051b880101935060208301925060005b8181101561120657605f1988860301835283518051604087526111d46040880182610bad565b90506020820151915086810360208801526111ef8183610bad565b9650505060209384019392909201916001016111ae565b5050505060208301518482036020860152610d8082826110c5565b60006040830182516040855281815180845260608701915060608160051b880101935060208301925060005b8181101561120657605f1988860301835283518051604087526112736040880182610bad565b905060208201519150868103602088015261128e8183610bad565b96505050602093840193929092019160010161124d565b60608152600b60608201526a1199595cd0db185a5b595960aa1b608082015282602082015260a060408201526000825160e060a08401526112ea610180840182610ceb565b90506020840151609f198483030160c08501526113078282610e28565b9150506040840151609f198483030160e08501526113258282610eb4565b9150506060840151609f19848303016101008501526113448282610fc6565b9150506080840151609f19848303016101208501526113638282611054565b91505060a0840151609f19848303016101408501526113828282611182565b91505060c0840151609f19848303016101608501526113a18282611221565b969550505050505056fea26469706673582212207da19af7e807c29c3af5d4d58e1c690492d3c5b35ee28e9999bc3c887be38b1164736f6c634300081a0033",
  "linkReferences": {
    "contracts/market/MarketUtils.sol": {
      "MarketUtils": [
        {
          "length": 20,
          "start": 1711
        }
      ]
    }
  },
  "deployedLinkReferences": {
    "contracts/market/MarketUtils.sol": {
      "MarketUtils": [
        {
          "length": 20,
          "start": 1457
        }
      ]
    }
  }
}