{
  "_format": "hh-sol-artifact-1",
  "contractName": "LiquidationHandler",
  "sourceName": "contracts/exchange/LiquidationHandler.sol",
  "abi": [
    {
      "inputs": [
        {
          "internalType": "contract RoleStore",
          "name": "_roleStore",
          "type": "address"
        },
        {
          "internalType": "contract DataStore",
          "name": "_dataStore",
          "type": "address"
        },
        {
          "internalType": "contract EventEmitter",
          "name": "_eventEmitter",
          "type": "address"
        },
        {
          "internalType": "contract OrderVault",
          "name": "_orderVault",
          "type": "address"
        },
        {
          "internalType": "contract Oracle",
          "name": "_oracle",
          "type": "address"
        },
        {
          "internalType": "contract SwapHandler",
          "name": "_swapHandler",
          "type": "address"
        },
        {
          "internalType": "contract IReferralStorage",
          "name": "_referralStorage",
          "type": "address"
        }
      ],
      "stateMutability": "nonpayable",
      "type": "constructor"
    },
    {
      "inputs": [
        {
          "internalType": "uint256[]",
          "name": "compactedValues",
          "type": "uint256[]"
        },
        {
          "internalType": "uint256",
          "name": "index",
          "type": "uint256"
        },
        {
          "internalType": "uint256",
          "name": "slotIndex",
          "type": "uint256"
        },
        {
          "internalType": "string",
          "name": "label",
          "type": "string"
        }
      ],
      "name": "CompactedArrayOutOfBounds",
      "type": "error"
    },
    {
      "inputs": [
        {
          "internalType": "bytes32",
          "name": "key",
          "type": "bytes32"
        }
      ],
      "name": "DisabledFeature",
      "type": "error"
    },
    {
      "inputs": [
        {
          "internalType": "address",
          "name": "market",
          "type": "address"
        }
      ],
      "name": "DisabledMarket",
      "type": "error"
    },
    {
      "inputs": [
        {
          "internalType": "uint256",
          "name": "index",
          "type": "uint256"
        }
      ],
      "name": "EmptyCompactedBlockNumber",
      "type": "error"
    },
    {
      "inputs": [],
      "name": "EmptyMarket",
      "type": "error"
    },
    {
      "inputs": [
        {
          "internalType": "address",
          "name": "market",
          "type": "address"
        }
      ],
      "name": "InvalidSwapMarket",
      "type": "error"
    },
    {
      "inputs": [
        {
          "internalType": "address",
          "name": "msgSender",
          "type": "address"
        },
        {
          "internalType": "string",
          "name": "role",
          "type": "string"
        }
      ],
      "name": "Unauthorized",
      "type": "error"
    },
    {
      "inputs": [
        {
          "internalType": "uint256",
          "name": "oracleBlockNumberType",
          "type": "uint256"
        }
      ],
      "name": "UnsupportedOracleBlockNumberType",
      "type": "error"
    },
    {
      "anonymous": false,
      "inputs": [
        {
          "indexed": false,
          "internalType": "string",
          "name": "reason",
          "type": "string"
        }
      ],
      "name": "OracleError",
      "type": "event"
    },
    {
      "inputs": [],
      "name": "dataStore",
      "outputs": [
        {
          "internalType": "contract DataStore",
          "name": "",
          "type": "address"
        }
      ],
      "stateMutability": "view",
      "type": "function"
    },
    {
      "inputs": [],
      "name": "eventEmitter",
      "outputs": [
        {
          "internalType": "contract EventEmitter",
          "name": "",
          "type": "address"
        }
      ],
      "stateMutability": "view",
      "type": "function"
    },
    {
      "inputs": [
        {
          "internalType": "address",
          "name": "account",
          "type": "address"
        },
        {
          "internalType": "address",
          "name": "market",
          "type": "address"
        },
        {
          "internalType": "address",
          "name": "collateralToken",
          "type": "address"
        },
        {
          "internalType": "bool",
          "name": "isLong",
          "type": "bool"
        },
        {
          "components": [
            {
              "internalType": "uint256",
              "name": "signerInfo",
              "type": "uint256"
            },
            {
              "internalType": "address[]",
              "name": "tokens",
              "type": "address[]"
            },
            {
              "internalType": "uint256[]",
              "name": "compactedMinOracleBlockNumbers",
              "type": "uint256[]"
            },
            {
              "internalType": "uint256[]",
              "name": "compactedMaxOracleBlockNumbers",
              "type": "uint256[]"
            },
            {
              "internalType": "uint256[]",
              "name": "compactedOracleTimestamps",
              "type": "uint256[]"
            },
            {
              "internalType": "uint256[]",
              "name": "compactedDecimals",
              "type": "uint256[]"
            },
            {
              "internalType": "uint256[]",
              "name": "compactedMinPrices",
              "type": "uint256[]"
            },
            {
              "internalType": "uint256[]",
              "name": "compactedMinPricesIndexes",
              "type": "uint256[]"
            },
            {
              "internalType": "uint256[]",
              "name": "compactedMaxPrices",
              "type": "uint256[]"
            },
            {
              "internalType": "uint256[]",
              "name": "compactedMaxPricesIndexes",
              "type": "uint256[]"
            },
            {
              "internalType": "bytes[]",
              "name": "signatures",
              "type": "bytes[]"
            },
            {
              "internalType": "address[]",
              "name": "priceFeedTokens",
              "type": "address[]"
            },
            {
              "internalType": "address[]",
              "name": "realtimeFeedTokens",
              "type": "address[]"
            },
            {
              "internalType": "bytes[]",
              "name": "realtimeFeedData",
              "type": "bytes[]"
            }
          ],
          "internalType": "struct OracleUtils.SetPricesParams",
          "name": "oracleParams",
          "type": "tuple"
        }
      ],
      "name": "executeLiquidation",
      "outputs": [],
      "stateMutability": "nonpayable",
      "type": "function"
    },
    {
      "inputs": [],
      "name": "oracle",
      "outputs": [
        {
          "internalType": "contract Oracle",
          "name": "",
          "type": "address"
        }
      ],
      "stateMutability": "view",
      "type": "function"
    },
    {
      "inputs": [],
      "name": "orderVault",
      "outputs": [
        {
          "internalType": "contract OrderVault",
          "name": "",
          "type": "address"
        }
      ],
      "stateMutability": "view",
      "type": "function"
    },
    {
      "inputs": [],
      "name": "referralStorage",
      "outputs": [
        {
          "internalType": "contract IReferralStorage",
          "name": "",
          "type": "address"
        }
      ],
      "stateMutability": "view",
      "type": "function"
    },
    {
      "inputs": [],
      "name": "roleStore",
      "outputs": [
        {
          "internalType": "contract RoleStore",
          "name": "",
          "type": "address"
        }
      ],
      "stateMutability": "view",
      "type": "function"
    },
    {
      "inputs": [],
      "name": "swapHandler",
      "outputs": [
        {
          "internalType": "contract SwapHandler",
          "name": "",
          "type": "address"
        }
      ],
      "stateMutability": "view",
      "type": "function"
    }
  ],
  "bytecode": "0x61016060405234801561001157600080fd5b506040516129373803806129378339810160408190526100309161007e565b6001600160a01b0395861660805295851660a05292841660c05290831660e052821661012052811661010052166101405261011a565b6001600160a01b038116811461007b57600080fd5b50565b600080600080600080600060e0888a03121561009957600080fd5b87516100a481610066565b60208901519097506100b581610066565b60408901519096506100c681610066565b60608901519095506100d781610066565b60808901519094506100e881610066565b60a08901519093506100f981610066565b60c089015190925061010a81610066565b8091505092959891949750929550565b60805160a05160c05160e05161010051610120516101405161274f6101e8600039600081816081015261097001526000818161010c01528181610241015261091b015260008181610133015261094501526000818161015a01526108f0015260008181610181015281816102830152818161034f01526108c501526000818160be015261079b01526000818160e501528181610262015281816103270152818161041a015281816105c0015281816106c8015281816108570152818161089c0152610b95015261274f6000f3fe608060405234801561001057600080fd5b50600436106100775760003560e01c80626cc35e1461007c5780634a4a7b04146100b9578063660d0d67146100e05780637dc0d1d0146101075780638a53aaac1461012e57806393845e46146101555780639ff78c301461017c578063fa124210146101a3575b600080fd5b6100a37f000000000000000000000000000000000000000000000000000000000000000081565b6040516100b0919061148b565b60405180910390f35b6100a37f000000000000000000000000000000000000000000000000000000000000000081565b6100a37f000000000000000000000000000000000000000000000000000000000000000081565b6100a37f000000000000000000000000000000000000000000000000000000000000000081565b6100a37f000000000000000000000000000000000000000000000000000000000000000081565b6100a37f000000000000000000000000000000000000000000000000000000000000000081565b6100a37f000000000000000000000000000000000000000000000000000000000000000081565b6101b66101b13660046114c2565b6101b8565b005b6101c06105bc565b61023f6040516020016101f9906020808252601290820152712624a8aaa4a220aa24a7a72fa5a2a2a822a960711b604082015260600190565b60405160208183030381529060405280519060200120604051806040016040528060128152602001712624a8aaa4a220aa24a7a72fa5a2a2a822a960711b815250610784565b7f00000000000000000000000000000000000000000000000000000000000000007f00000000000000000000000000000000000000000000000000000000000000007f00000000000000000000000000000000000000000000000000000000000000006102ab84611824565b6040516304a76ae360e21b81526001600160a01b0385169063129dab8c906102db90869086908690600401611b9d565b600060405180830381600087803b1580156102f557600080fd5b505af1158015610309573d6000803e3d6000fd5b5050505060005a60405163cd17310760e01b81526001600160a01b037f0000000000000000000000000000000000000000000000000000000000000000811660048301527f000000000000000000000000000000000000000000000000000000000000000081166024830152808d166044830152808c1660648301528a16608482015288151560a482015290915060009073__$24ecf20cb15267250766fd478de108983d$__9063cd1731079060c401602060405180830381865af41580156103d6573d6000803e3d6000fd5b505050506040513d601f19601f820116820180604052508101906103fa9190611d61565b9050600073__$9dcb75ef0bb6c4288f2ccffe7dc492c4eb$__63fdfc26f37f0000000000000000000000000000000000000000000000000000000000000000846040518363ffffffff1660e01b8152600401610457929190611d7a565b600060405180830381865af4158015610474573d6000803e3d6000fd5b505050506040513d6000823e601f3d908101601f1916820160405261049c9190810190611f10565b905060006104b783836104ae8c611824565b33886000610834565b805151604082015160200151519192506104ec916104e790309060078111156104e2576104e261203e565b610ad2565b610b68565b604051630893a94f60e41b815273__$18943158f75973db0541c3d7c8650b2485$__9063893a94f090610523908490600401612240565b60006040518083038186803b15801561053b57600080fd5b505af415801561054f573d6000803e3d6000fd5b5050505050505050836001600160a01b031662ccf1556040518163ffffffff1660e01b8152600401600060405180830381600087803b15801561059157600080fd5b505af11580156105a5573d6000803e3d6000fd5b50505050505050506105b5610b93565b5050505050565b60007f00000000000000000000000000000000000000000000000000000000000000006001600160a01b031663bd02d0f56040516020016105fc90612367565b604051602081830303815290604052805190602001206040518263ffffffff1660e01b815260040161063091815260200190565b602060405180830381865afa15801561064d573d6000803e3d6000fd5b505050506040513d601f19601f820116820180604052508101906106719190611d61565b905080156106c65760405162461bcd60e51b815260206004820152601f60248201527f5265656e7472616e637947756172643a207265656e7472616e742063616c6c0060448201526064015b60405180910390fd5b7f00000000000000000000000000000000000000000000000000000000000000006001600160a01b031663e2a4853a60405160200161070490612367565b60408051601f198184030181529082905280516020909101206001600160e01b031960e084901b1682526004820152600160248201526044016020604051808303816000875af115801561075c573d6000803e3d6000fd5b505050506040513d601f19601f820116820180604052508101906107809190611d61565b5050565b60405163ac4ab3fb60e01b81526001600160a01b037f0000000000000000000000000000000000000000000000000000000000000000169063ac4ab3fb906107d29033908690600401611d7a565b602060405180830381865afa1580156107ef573d6000803e3d6000fd5b505050506040513d601f19601f820116820180604052508101906108139190612398565b61078057338160405163a35b150b60e01b81526004016106bd9291906123b5565b61083c61130a565b61084461130a565b60208101889052604081018790526108877f0000000000000000000000000000000000000000000000000000000000000000610882895160c0015190565b610c50565b60608083019190915281516001600160a01b037f000000000000000000000000000000000000000000000000000000000000000081811690925283517f0000000000000000000000000000000000000000000000000000000000000000821660209091015283517f0000000000000000000000000000000000000000000000000000000000000000821660409182015284517f00000000000000000000000000000000000000000000000000000000000000008316940184905284517f0000000000000000000000000000000000000000000000000000000000000000831660809091015284517f000000000000000000000000000000000000000000000000000000000000000090921660a0909201919091526101808901516101a08a0151915163f81a03c360e01b81526000949363f81a03c3936109cb9391926004016123e1565b6000604051808303816000875af11580156109ea573d6000803e3d6000fd5b505050506040513d6000823e601f3d908101601f19168201604052610a129190810190612485565b9050610a2a8760400151886020015151836000610d0b565b60808301526060870151602088015151610a479190836001610d0b565b60a0830152604082015151608001516001600160a01b031615610a815781515160408301515160800151610a7b9190610ecf565b60c08301525b6001600160a01b03861660e083015261010082018590526101208201846001811115610aaf57610aaf61203e565b90816001811115610ac257610ac261203e565b9052509098975050505050505050565b6000604051602001610b15906020808252601e908201527f455845435554455f4f524445525f464541545552455f44495341424c45440000604082015260600190565b60408051601f198184030181528282528051602091820120908301526001600160a01b03851690820152606081018390526080016040516020818303038152906040528051906020012090505b92915050565b610b728282610f67565b156107805760405163dd70e0c960e01b8152600481018290526024016106bd565b7f00000000000000000000000000000000000000000000000000000000000000006001600160a01b031663e2a4853a604051602001610bd190612367565b60408051601f198184030181529082905280516020909101206001600160e01b031960e084901b1682526004820152600060248201526044016020604051808303816000875af1158015610c29573d6000803e3d6000fd5b505050506040513d601f19601f82011682018060405250810190610c4d9190611d61565b50565b6060600082516001600160401b03811115610c6d57610c6d611551565b604051908082528060200260200182016040528015610ca657816020015b610c93611396565b815260200190600190039081610c8b5790505b50905060005b8351811015610d03576000848281518110610cc957610cc96125bd565b60200260200101519050610cdd8682610fd3565b838381518110610cef57610cef6125bd565b602090810291909101015250600101610cac565b509392505050565b60606000835185610d1c91906125e9565b6001600160401b03811115610d3357610d33611551565b604051908082528060200260200182016040528015610d5c578160200160208202803683370190505b50905060005b85811015610d9957610d748782611064565b828281518110610d8657610d866125bd565b6020908102919091010152600101610d62565b506000836001811115610dae57610dae61203e565b03610e1c5760005b8451811015610e1657848181518110610dd157610dd16125bd565b602002602001015160e001516001600160401b0316828288610df391906125e9565b81518110610e0357610e036125bd565b6020908102919091010152600101610db6565b50610ec6565b6001836001811115610e3057610e3061203e565b03610e985760005b8451811015610e1657848181518110610e5357610e536125bd565b602002602001015160a001516001600160401b0316828288610e7591906125e9565b81518110610e8557610e856125bd565b6020908102919091010152600101610e38565b826001811115610eaa57610eaa61203e565b60405163b602928160e01b81526004016106bd91815260200190565b95945050505050565b610ed7611396565b60405163a8d8fff560e01b815260009073__$ff439aa65a80c9eec648f15db20b189505$__9063a8d8fff590610f1390879087906004016125fc565b608060405180830381865af4158015610f30573d6000803e3d6000fd5b505050506040513d601f19601f82011682018060405250810190610f549190612616565b9050610f6084826110d6565b9392505050565b604051633d70e7e560e11b8152600481018290526000906001600160a01b03841690637ae1cfca90602401602060405180830381865afa158015610faf573d6000803e3d6000fd5b505050506040513d601f19601f82011682018060405250810190610f609190612398565b610fdb611396565b60405163a8d8fff560e01b815260009073__$ff439aa65a80c9eec648f15db20b189505$__9063a8d8fff59061101790879087906004016125fc565b608060405180830381865af4158015611034573d6000803e3d6000fd5b505050506040513d601f19601f820116820180604052508101906110589190612616565b9050610f6084826111a4565b6000806110b08484604060c0600019901c6040518060400160405280601f81526020017f676574556e636f6d7061637465644f7261636c65426c6f636b4e756d626572008152506111eb565b905080600003610f605760405163349f5fdd60e11b8152600481018490526024016106bd565b80516001600160a01b03166110fe576040516302fde0d760e11b815260040160405180910390fd5b6000826001600160a01b0316637ae1cfca61111c8460000151611288565b6040518263ffffffff1660e01b815260040161113a91815260200190565b602060405180830381865afa158015611157573d6000803e3d6000fd5b505050506040513d601f19601f8201168201806040525081019061117b9190612398565b9050801561119f5781516040516309f8c93760e01b81526106bd919060040161148b565b505050565b6111ae82826110d6565b80606001516001600160a01b031681604001516001600160a01b0316036107805780516040516332e6f44d60e21b81526106bd919060040161148b565b6000806111fa8561010061269c565b90506000611208828861269c565b905087518110611233578787828660405163bdec9c0d60e01b81526004016106bd94939291906126be565b6000888281518110611247576112476125bd565b60200260200101519050600087848461126091906126ef565b61126a908b612706565b61127491906126ef565b9190911c8616935050505095945050505050565b60006040516020016112c0906020808252601290820152711254d7d3505492d15517d11254d05093115160721b604082015260600190565b60408051601f198184030181528282528051602091820120908301526001600160a01b03841690820152606001604051602081830303815290604052805190602001209050919050565b604080516102008101825260006101408201818152610160830182905261018083018290526101a083018290526101c083018290526101e08301829052825260208201529081016113596113bd565b815260200160608152602001606081526020016060815260200161137b611396565b81526000602082018190526040820181905260609091015290565b60408051608081018252600080825260208201819052918101829052606081019190915290565b604080516101408101909152600060608083018281526080840183905260a0840183905260c0840183905260e0840183905261010084019290925261012083015281526020810161145b60408051610140810190915280600081526020016000815260200160008152602001600081526020016000815260200160008152602001600081526020016000815260200160008152602001600081525090565b815260408051606081018252600080825260208281018290529282015291015290565b6001600160a01b03169052565b6001600160a01b0391909116815260200190565b6001600160a01b0381168114610c4d57600080fd5b8015158114610c4d57600080fd5b600080600080600060a086880312156114da57600080fd5b85356114e58161149f565b945060208601356114f58161149f565b935060408601356115058161149f565b92506060860135611515816114b4565b915060808601356001600160401b0381111561153057600080fd5b86016101c0818903121561154357600080fd5b809150509295509295909350565b634e487b7160e01b600052604160045260246000fd5b6040516101c081016001600160401b038111828210171561158a5761158a611551565b60405290565b60405161014081016001600160401b038111828210171561158a5761158a611551565b604051606081016001600160401b038111828210171561158a5761158a611551565b60405160e081016001600160401b038111828210171561158a5761158a611551565b60405161012081016001600160401b038111828210171561158a5761158a611551565b604051601f8201601f191681016001600160401b038111828210171561164257611642611551565b604052919050565b60006001600160401b0382111561166357611663611551565b5060051b60200190565b600082601f83011261167e57600080fd5b813561169161168c8261164a565b61161a565b8082825260208201915060208360051b8601019250858311156116b357600080fd5b602085015b838110156116d95780356116cb8161149f565b8352602092830192016116b8565b5095945050505050565b600082601f8301126116f457600080fd5b813561170261168c8261164a565b8082825260208201915060208360051b86010192508583111561172457600080fd5b602085015b838110156116d9578035835260209283019201611729565b600082601f83011261175257600080fd5b813561176061168c8261164a565b8082825260208201915060208360051b86010192508583111561178257600080fd5b602085015b838110156116d95780356001600160401b038111156117a557600080fd5b8601603f810188136117b657600080fd5b60208101356001600160401b038111156117d2576117d2611551565b6117e5601f8201601f191660200161161a565b8181526040838301018a10156117fa57600080fd5b81604084016020830137600060208383010152808652505050602083019250602081019050611787565b60006101c0823603121561183757600080fd5b61183f611567565b8235815260208301356001600160401b0381111561185c57600080fd5b6118683682860161166d565b60208301525060408301356001600160401b0381111561188757600080fd5b611893368286016116e3565b60408301525060608301356001600160401b038111156118b257600080fd5b6118be368286016116e3565b60608301525060808301356001600160401b038111156118dd57600080fd5b6118e9368286016116e3565b60808301525060a08301356001600160401b0381111561190857600080fd5b611914368286016116e3565b60a08301525060c08301356001600160401b0381111561193357600080fd5b61193f368286016116e3565b60c08301525060e08301356001600160401b0381111561195e57600080fd5b61196a368286016116e3565b60e0830152506101008301356001600160401b0381111561198a57600080fd5b611996368286016116e3565b610100830152506101208301356001600160401b038111156119b757600080fd5b6119c3368286016116e3565b610120830152506101408301356001600160401b038111156119e457600080fd5b6119f036828601611741565b610140830152506101608301356001600160401b03811115611a1157600080fd5b611a1d3682860161166d565b610160830152506101808301356001600160401b03811115611a3e57600080fd5b611a4a3682860161166d565b610180830152506101a08301356001600160401b03811115611a6b57600080fd5b611a7736828601611741565b6101a08301525092915050565b600081518084526020840193506020830160005b82811015611abf5781516001600160a01b0316865260209586019590910190600101611a98565b5093949350505050565b600081518084526020840193506020830160005b82811015611abf578151865260209586019590910190600101611add565b6000815180845260005b81811015611b2157602081850181015186830182015201611b05565b506000602082860101526020601f19601f83011685010191505092915050565b600082825180855260208501945060208160051b8301016020850160005b83811015611b9157601f19858403018852611b7b838351611afb565b6020988901989093509190910190600101611b5f565b50909695505050505050565b6001600160a01b03848116825283166020808301919091526060604083018190528351908301528201516101c06080830152600090611be0610220840182611a84565b90506040840151605f198483030160a0850152611bfd8282611ac9565b9150506060840151605f198483030160c0850152611c1b8282611ac9565b9150506080840151605f198483030160e0850152611c398282611ac9565b91505060a0840151605f1984830301610100850152611c588282611ac9565b91505060c0840151605f1984830301610120850152611c778282611ac9565b91505060e0840151605f1984830301610140850152611c968282611ac9565b915050610100840151605f1984830301610160850152611cb68282611ac9565b915050610120840151605f1984830301610180850152611cd68282611ac9565b915050610140840151605f19848303016101a0850152611cf68282611b41565b915050610160840151605f19848303016101c0850152611d168282611a84565b915050610180840151605f19848303016101e0850152611d368282611a84565b9150506101a0840151605f1984830301610200850152611d568282611b41565b979650505050505050565b600060208284031215611d7357600080fd5b5051919050565b6001600160a01b03929092168252602082015260400190565b8051611d9e8161149f565b919050565b600082601f830112611db457600080fd5b8151611dc261168c8261164a565b8082825260208201915060208360051b860101925085831115611de457600080fd5b602085015b838110156116d9578051611dfc8161149f565b835260209283019201611de9565b805160088110611d9e57600080fd5b805160038110611d9e57600080fd5b60006101408284031215611e3b57600080fd5b611e43611590565b9050611e4e82611e0a565b8152611e5c60208301611e19565b602082015260408281015190820152606080830151908201526080808301519082015260a0808301519082015260c0808301519082015260e0808301519082015261010080830151908201526101209182015191810191909152919050565b600060608284031215611ecd57600080fd5b611ed56115b3565b90508151611ee2816114b4565b81526020820151611ef2816114b4565b60208201526040820151611f05816114b4565b604082015292915050565b600060208284031215611f2257600080fd5b81516001600160401b03811115611f3857600080fd5b82016101c08185031215611f4b57600080fd5b611f536115b3565b81516001600160401b03811115611f6957600080fd5b820160e08187031215611f7b57600080fd5b611f836115d5565b611f8c82611d93565b8152611f9a60208301611d93565b6020820152611fab60408301611d93565b6040820152611fbc60608301611d93565b6060820152611fcd60808301611d93565b6080820152611fde60a08301611d93565b60a082015260c08201516001600160401b03811115611ffc57600080fd5b61200888828501611da3565b60c08301525082525061201e8560208401611e28565b6020820152612031856101608401611ebb565b6040820152949350505050565b634e487b7160e01b600052602160045260246000fd5b600881106120645761206461203e565b9052565b600381106120645761206461203e565b612083828251612054565b60208101516120956020840182612068565b5060408101516040830152606081015160608301526080810151608083015260a081015160a083015260c081015160c083015260e081015160e08301526101008101516101008301526101208101516101208301525050565b80516101c080845281516001600160a01b0390811691850191909152602082015181166101e085015260408201511661020084015260608101516000919061213a61022086018261147e565b50608081015161214e61024086018261147e565b5060a081015161216261026086018261147e565b5060c0015160e061028085015261217d6102a0850182611a84565b905060208301516121916020860182612078565b5060408381015180511515610160870152602081015115156101808701529081015115156101a0860152610d03565b80516001600160a01b03908116835260208083015182169084015260408083015182169084015260609182015116910152565b600081518084526020840193506020830160005b82811015611abf5761221a8683516121c0565b6080959095019460209190910190600101612207565b600281106120645761206461203e565b6020815261229860208201835180516001600160a01b03908116835260208083015182169084015260408083015182169084015260608083015182169084015260808083015182169084015260a09182015116910152565b602082015160e0820152600060408301516102406101008401526122c06102608401826120ee565b90506060840151601f19848303016101208501526122de82826121f3565b9150506080840151601f19848303016101408501526122fd8282611ac9565b91505060a0840151601f198483030161016085015261231c8282611ac9565b91505060c08401516123326101808501826121c0565b5060e084015161234661020085018261147e565b50610100840151610220840152610120840151610d03610240850182612230565b6020808252601790820152765245454e5452414e43595f47554152445f53544154555360481b604082015260600190565b6000602082840312156123aa57600080fd5b8151610f60816114b4565b6001600160a01b03831681526040602082018190526000906123d990830184611afb565b949350505050565b6001600160a01b0384168152606060208083018290528451918301829052600091908501906080840190835b818110156124345783516001600160a01b031683526020938401939092019160010161240d565b50508381036040850152611d568186611b41565b805163ffffffff81168114611d9e57600080fd5b8051601781900b8114611d9e57600080fd5b80516001600160401b0381168114611d9e57600080fd5b60006020828403121561249757600080fd5b81516001600160401b038111156124ad57600080fd5b8201601f810184136124be57600080fd5b80516124cc61168c8261164a565b80828252602082019150602061012084028501019250868311156124ef57600080fd5b6020840193505b828410156125b357610120848803121561250f57600080fd5b6125176115f7565b8451815261252760208601612448565b60208201526125386040860161245c565b60408201526125496060860161245c565b606082015261255a6080860161245c565b608082015261256b60a0860161246e565b60a082015260c0858101519082015261258660e0860161246e565b60e0820152612598610100860161246e565b610100820152825261012093909301926020909101906124f6565b9695505050505050565b634e487b7160e01b600052603260045260246000fd5b634e487b7160e01b600052601160045260246000fd5b80820180821115610b6257610b626125d3565b6001600160a01b0392831681529116602082015260400190565b6000608082840312801561262957600080fd5b50604051608081016001600160401b038111828210171561264c5761264c611551565b604052825161265a8161149f565b8152602083015161266a8161149f565b6020820152604083015161267d8161149f565b604082015260608301516126908161149f565b60608201529392505050565b6000826126b957634e487b7160e01b600052601260045260246000fd5b500490565b6080815260006126d16080830187611ac9565b8560208401528460408401528281036060840152611d568185611afb565b8082028115828204841417610b6257610b626125d3565b81810381811115610b6257610b626125d356fea2646970667358221220da648f72d0cc0fcefd88e9cdab0a80e64a29a2b12adfaaebc4d6b62cc1324ab664736f6c634300081a0033",
  "linkReferences": {
    "contracts/liquidation/LiquidationUtils.sol": {
      "LiquidationUtils": [
        {
          "length": 20,
          "start": 1412
        }
      ]
    },
    "contracts/market/MarketStoreUtils.sol": {
      "MarketStoreUtils": [
        {
          "length": 20,
          "start": 4305
        },
        {
          "length": 20,
          "start": 4565
        }
      ]
    },
    "contracts/order/OrderStoreUtils.sol": {
      "OrderStoreUtils": [
        {
          "length": 20,
          "start": 1512
        }
      ]
    },
    "contracts/order/OrderUtils.sol": {
      "OrderUtils": [
        {
          "length": 20,
          "start": 1763
        }
      ]
    }
  },
  "deployedLinkReferences": {
    "contracts/liquidation/LiquidationUtils.sol": {
      "LiquidationUtils": [
        {
          "length": 20,
          "start": 924
        }
      ]
    },
    "contracts/market/MarketStoreUtils.sol": {
      "MarketStoreUtils": [
        {
          "length": 20,
          "start": 3817
        },
        {
          "length": 20,
          "start": 4077
        }
      ]
    },
    "contracts/order/OrderStoreUtils.sol": {
      "OrderStoreUtils": [
        {
          "length": 20,
          "start": 1024
        }
      ]
    },
    "contracts/order/OrderUtils.sol": {
      "OrderUtils": [
        {
          "length": 20,
          "start": 1275
        }
      ]
    }
  }
}