{
  "_format": "hh-sol-artifact-1",
  "contractName": "ExecuteDepositUtils",
  "sourceName": "contracts/deposit/ExecuteDepositUtils.sol",
  "abi": [
    {
      "inputs": [
        {
          "internalType": "address",
          "name": "market",
          "type": "address"
        }
      ],
      "name": "DisabledMarket",
      "type": "error"
    },
    {
      "inputs": [],
      "name": "EmptyDeposit",
      "type": "error"
    },
    {
      "inputs": [],
      "name": "EmptyDepositAmountsAfterSwap",
      "type": "error"
    },
    {
      "inputs": [],
      "name": "EmptyMarket",
      "type": "error"
    },
    {
      "inputs": [
        {
          "internalType": "uint256",
          "name": "minMarketTokens",
          "type": "uint256"
        },
        {
          "internalType": "uint256",
          "name": "expectedMinMarketTokens",
          "type": "uint256"
        }
      ],
      "name": "InvalidMinMarketTokensForFirstDeposit",
      "type": "error"
    },
    {
      "inputs": [
        {
          "internalType": "int256",
          "name": "poolValue",
          "type": "int256"
        }
      ],
      "name": "InvalidPoolValueForDeposit",
      "type": "error"
    },
    {
      "inputs": [
        {
          "internalType": "address",
          "name": "receiver",
          "type": "address"
        },
        {
          "internalType": "address",
          "name": "expectedReceiver",
          "type": "address"
        }
      ],
      "name": "InvalidReceiverForFirstDeposit",
      "type": "error"
    },
    {
      "inputs": [
        {
          "internalType": "address",
          "name": "market",
          "type": "address"
        }
      ],
      "name": "InvalidSwapMarket",
      "type": "error"
    },
    {
      "inputs": [
        {
          "internalType": "address",
          "name": "outputToken",
          "type": "address"
        },
        {
          "internalType": "address",
          "name": "expectedOutputToken",
          "type": "address"
        }
      ],
      "name": "InvalidSwapOutputToken",
      "type": "error"
    },
    {
      "inputs": [
        {
          "internalType": "uint256",
          "name": "poolAmount",
          "type": "uint256"
        },
        {
          "internalType": "uint256",
          "name": "maxPoolAmount",
          "type": "uint256"
        }
      ],
      "name": "MaxPoolAmountExceeded",
      "type": "error"
    },
    {
      "inputs": [
        {
          "internalType": "uint256",
          "name": "poolAmount",
          "type": "uint256"
        },
        {
          "internalType": "uint256",
          "name": "maxPoolAmountForDeposit",
          "type": "uint256"
        }
      ],
      "name": "MaxPoolAmountForDepositExceeded",
      "type": "error"
    },
    {
      "inputs": [
        {
          "internalType": "uint256",
          "name": "received",
          "type": "uint256"
        },
        {
          "internalType": "uint256",
          "name": "expected",
          "type": "uint256"
        }
      ],
      "name": "MinMarketTokens",
      "type": "error"
    },
    {
      "inputs": [
        {
          "internalType": "uint256[]",
          "name": "minOracleBlockNumbers",
          "type": "uint256[]"
        },
        {
          "internalType": "uint256[]",
          "name": "maxOracleBlockNumbers",
          "type": "uint256[]"
        },
        {
          "internalType": "uint256",
          "name": "blockNumber",
          "type": "uint256"
        }
      ],
      "name": "OracleBlockNumberNotWithinRange",
      "type": "error"
    },
    {
      "inputs": [
        {
          "internalType": "uint256",
          "name": "x",
          "type": "uint256"
        }
      ],
      "name": "PRBMathUD60x18__Exp2InputTooBig",
      "type": "error"
    },
    {
      "inputs": [
        {
          "internalType": "uint256",
          "name": "x",
          "type": "uint256"
        }
      ],
      "name": "PRBMathUD60x18__LogInputTooSmall",
      "type": "error"
    },
    {
      "inputs": [
        {
          "internalType": "uint256",
          "name": "prod1",
          "type": "uint256"
        }
      ],
      "name": "PRBMath__MulDivFixedPointOverflow",
      "type": "error"
    },
    {
      "inputs": [
        {
          "internalType": "int256",
          "name": "pnlToPoolFactor",
          "type": "int256"
        },
        {
          "internalType": "uint256",
          "name": "maxPnlFactor",
          "type": "uint256"
        }
      ],
      "name": "PnlFactorExceededForLongs",
      "type": "error"
    },
    {
      "inputs": [
        {
          "internalType": "int256",
          "name": "pnlToPoolFactor",
          "type": "int256"
        },
        {
          "internalType": "uint256",
          "name": "maxPnlFactor",
          "type": "uint256"
        }
      ],
      "name": "PnlFactorExceededForShorts",
      "type": "error"
    },
    {
      "inputs": [
        {
          "internalType": "address",
          "name": "token",
          "type": "address"
        },
        {
          "internalType": "address",
          "name": "market",
          "type": "address"
        }
      ],
      "name": "UnexpectedTokenForVirtualInventory",
      "type": "error"
    },
    {
      "inputs": [
        {
          "internalType": "int256",
          "name": "usdDelta",
          "type": "int256"
        },
        {
          "internalType": "uint256",
          "name": "poolUsd",
          "type": "uint256"
        }
      ],
      "name": "UsdDeltaExceedsPoolValue",
      "type": "error"
    },
    {
      "anonymous": false,
      "inputs": [
        {
          "indexed": false,
          "internalType": "bytes32",
          "name": "key",
          "type": "bytes32"
        },
        {
          "components": [
            {
              "components": [
                {
                  "internalType": "address",
                  "name": "account",
                  "type": "address"
                },
                {
                  "internalType": "address",
                  "name": "receiver",
                  "type": "address"
                },
                {
                  "internalType": "address",
                  "name": "callbackContract",
                  "type": "address"
                },
                {
                  "internalType": "address",
                  "name": "uiFeeReceiver",
                  "type": "address"
                },
                {
                  "internalType": "address",
                  "name": "market",
                  "type": "address"
                },
                {
                  "internalType": "address",
                  "name": "initialLongToken",
                  "type": "address"
                },
                {
                  "internalType": "address",
                  "name": "initialShortToken",
                  "type": "address"
                },
                {
                  "internalType": "address[]",
                  "name": "longTokenSwapPath",
                  "type": "address[]"
                },
                {
                  "internalType": "address[]",
                  "name": "shortTokenSwapPath",
                  "type": "address[]"
                }
              ],
              "internalType": "struct Deposit.Addresses",
              "name": "addresses",
              "type": "tuple"
            },
            {
              "components": [
                {
                  "internalType": "uint256",
                  "name": "initialLongTokenAmount",
                  "type": "uint256"
                },
                {
                  "internalType": "uint256",
                  "name": "initialShortTokenAmount",
                  "type": "uint256"
                },
                {
                  "internalType": "uint256",
                  "name": "minMarketTokens",
                  "type": "uint256"
                },
                {
                  "internalType": "uint256",
                  "name": "updatedAtBlock",
                  "type": "uint256"
                },
                {
                  "internalType": "uint256",
                  "name": "executionFee",
                  "type": "uint256"
                },
                {
                  "internalType": "uint256",
                  "name": "callbackGasLimit",
                  "type": "uint256"
                }
              ],
              "internalType": "struct Deposit.Numbers",
              "name": "numbers",
              "type": "tuple"
            },
            {
              "components": [
                {
                  "internalType": "bool",
                  "name": "shouldUnwrapNativeToken",
                  "type": "bool"
                }
              ],
              "internalType": "struct Deposit.Flags",
              "name": "flags",
              "type": "tuple"
            }
          ],
          "indexed": false,
          "internalType": "struct Deposit.Props",
          "name": "deposit",
          "type": "tuple"
        }
      ],
      "name": "AfterDepositExecutionError",
      "type": "event"
    },
    {
      "inputs": [],
      "name": "RECEIVER_FOR_FIRST_DEPOSIT",
      "outputs": [
        {
          "internalType": "address",
          "name": "",
          "type": "address"
        }
      ],
      "stateMutability": "view",
      "type": "function"
    }
  ],
  "bytecode": "0x615c3f610039600b82828239805160001a607314602c57634e487b7160e01b600052600060045260246000fd5b30600052607381538281f3fe73000000000000000000000000000000000000000030146080604052600436106100405760003560e01c80635f973d4f14610045578063f1b65c5114610067575b600080fd5b81801561005157600080fd5b50610065610060366004614b31565b610085565b005b61006f600181565b60405161007c9190614c70565b60405180910390f35b603f5a6100929190614cb0565b82610100018181516100a49190614cc4565b9052508151608083015173__$b63e253a228f0e32f671cc49c7fc32477c$__916374b6fe13916100d385515190565b60405160e085901b6001600160e01b03191681526001600160a01b0393841660048201526024810192909252909116604482015260640160006040518083038186803b15801561012257600080fd5b505af4158015610136573d6000803e3d6000fd5b505050506101736040518060c001604052806000815260200160008152602001600081526020016000815260200160008152602001600081525090565b600061017e83515190565b6001600160a01b0316036101a5576040516395b66fe960e01b815260040160405180910390fd5b6101c68360a001518460c001516101c185602001516060015190565b610a72565b82518251608001516000916101da91610aa5565b90506101e7848483610b3f565b60006101f7856060015183610c6f565b85516020870151845160405163c468d13560e01b81526001600160a01b039384166004820152918316602483015291909116604482015290915073__$e53db83827f4e07ebc418caf7145b8c2d5$__9063c468d1359060640160006040518083038186803b15801561026857600080fd5b505af415801561027c573d6000803e3d6000fd5b505050506102d98560000151838360405160200161029990614cd7565b604051602081830303815290604052805190602001206040516020016102be90614cd7565b60405160208183030381529060405280519060200120610de5565b61030c856102e9865160e0015190565b865160a00151602088015151865160408801518a5160600151610e6a565b610e6a565b83526103408561031f8651610100015190565b865160c001516020808901510151865160608801516103078b516060015190565b6020840152825115801561035657506020830151155b156103745760405163d1c3d5bd60e01b815260040160405180910390fd5b6103818160200151611052565b835161038d9190614d0c565b8360400181815250506103a38160400151611052565b83602001516103b29190614d0c565b83606001818152505061045360405180610100016040528087600001516001600160a01b0316815260200184815260200184604001516001600160a01b0316815260200184606001516001600160a01b031681526020016104168460200151611052565b81526020016104288460400151611052565b815260200161043a8660400151611074565b815260200161044c8660600151611074565b90526110e2565b60a084015282511561054c57600060405180610140016040528084815260200161047c87515190565b6001600160a01b0316815260200161049687516020015190565b6001600160a01b031681526020016104b087516060015190565b6001600160a01b0316815260200184604001516001600160a01b0316815260200184606001516001600160a01b031681526020018360200151815260200183604001518152602001856000015181526020016105288660a001518760400151886060015189604001516105239190614d23565b6111c3565b9052905061053686826111da565b846080018181516105479190614d23565b905250505b60208301511561063e57600060405180610140016040528084815260200161057387515190565b6001600160a01b0316815260200161058d87516020015190565b6001600160a01b031681526020016105a787516060015190565b6001600160a01b0316815260200184606001516001600160a01b0316815260200184604001516001600160a01b0316815260200183604001518152602001836020015181526020018560200151815260200161061a8660a001518760600151886060015189604001516105239190614d23565b9052905061062886826111da565b846080018181516106399190614d23565b905250505b6020840151604001518360800151101561068457608083015160208501516040015160405163036711a360e51b815260040161067b929190614d36565b60405180910390fd5b84516040516339b1348f60e01b815273__$e53db83827f4e07ebc418caf7145b8c2d5$__916339b1348f916106be91908690600401614d77565b60006040518083038186803b1580156106d657600080fd5b505af41580156106ea573d6000803e3d6000fd5b5050505073__$c1a7af12cfab3fde53a677c13aea00f1f1$__6311f35ffd8660200151876080015161071b88515190565b8751602089015160808a015160405160e088901b6001600160e01b03191681526001600160a01b03968716600482015260248101959095529490921660448401526064830152608482015260a481019190915260c40160006040518083038186803b15801561078957600080fd5b505af415801561079d573d6000803e3d6000fd5b50505050600073__$e53db83827f4e07ebc418caf7145b8c2d5$__63f2e2a4f58760000151858560000151866020015187604001516040516020016107e190614cd7565b6040516020818303038152906040528051906020012060016040518863ffffffff1660e01b815260040161081b9796959493929190614d94565b61016060405180830381865af4158015610839573d6000803e3d6000fd5b505050506040513d601f19601f8201168201806040525081019061085d9190614e01565b9050600061086e84600001516119ce565b905073__$c1eebf06e53d0bd092f667687cf73e1ebf$__631382311188602001516040516020016108ba9060208082526007908201526611115413d4d25560ca1b604082015260600190565b60408051601f1981840301815290829052805160209091012060808c015189516001600160e01b031960e087901b1684526108fc949389908990600401614f08565b60006040518083038186803b15801561091457600080fd5b505af4158015610928573d6000803e3d6000fd5b50505050610934614588565b6020810151610944906001611a32565b61099060006040518060400160405280601481526020017372656365697665644d61726b6574546f6b656e7360601b81525088608001518460200151611a97909392919063ffffffff16565b61099f88608001518883611aea565b73__$60bb1dd4670b1e26e5010aaaf2f65694d3$__634bf2a26d89600001518a602001518b604001516109d78c602001516080015190565b6101008e015160e08f01518e515160405160e089901b6001600160e01b03191681526001600160a01b0397881660048201529587166024870152938616604486015260648501929092526084840152831660a483015290911660c482015260e40160006040518083038186803b158015610a5057600080fd5b505af4158015610a64573d6000803e3d6000fd5b505050505050505050505050565b610a7d838383611bb9565b610aa057828282604051633e0fa80560e11b815260040161067b93929190614f8a565b505050565b610aad614679565b60405163a8d8fff560e01b815260009073__$ff439aa65a80c9eec648f15db20b189505$__9063a8d8fff590610ae99087908790600401614fc0565b608060405180830381865af4158015610b06573d6000803e3d6000fd5b505050506040513d601f19601f82011682018060405250810190610b2a9190614fda565b9050610b368482611bf1565b90505b92915050565b6000610b4e82600001516119ce565b90508015610b5c5750505050565b600084600001516001600160a01b031663bd02d0f5610b7e8560000151611cba565b6040518263ffffffff1660e01b8152600401610b9c91815260200190565b602060405180830381865afa158015610bb9573d6000803e3d6000fd5b505050506040513d601f19601f82011682018060405250810190610bdd9190615060565b905080600003610bee575050505050565b6001610bfc85516020015190565b6001600160a01b031614610c2d578351602001516001604051630efd1cd360e31b815260040161067b929190614fc0565b80610c3d85602001516040015190565b1015610c685760208401516040015181604051633f9c06ab60e01b815260040161067b929190614d36565b5050505050565b610c776146a0565b6040518060600160405280846001600160a01b0316635dcf719485602001516040518263ffffffff1660e01b8152600401610cb29190614c70565b6040805180830381865afa158015610cce573d6000803e3d6000fd5b505050506040513d601f19601f82011682018060405250810190610cf29190615079565b8152602001846001600160a01b0316635dcf719485604001516040518263ffffffff1660e01b8152600401610d279190614c70565b6040805180830381865afa158015610d43573d6000803e3d6000fd5b505050506040513d601f19601f82011682018060405250810190610d679190615079565b8152602001846001600160a01b0316635dcf719485606001516040518263ffffffff1660e01b8152600401610d9c9190614c70565b6040805180830381865afa158015610db8573d6000803e3d6000fd5b505050506040513d601f19601f82011682018060405250810190610ddc9190615079565b90529392505050565b6000806000610df8888888600189611d53565b9250925092508215610e21578181604051630b92fb2560e41b815260040161067b929190614d36565b6000806000610e348b8b8b60008b611d53565b9250925092508215610e5d578181604051632c0041a560e21b815260040161067b929190614d36565b5050505050505050505050565b600080610e7b896000015189611da7565b905060008073__$2ebd8d293950cf319742e0db402ead4961$__635706dc466040518061018001604052808e600001516001600160a01b031681526020018e602001516001600160a01b031681526020018e606001516001600160a01b031681526020018e604001516001600160a01b031681526020018e6080015181526020018c6001600160a01b031681526020018b8152602001868152602001600081526020018a6001600160a01b03168152602001886001600160a01b03168152602001600015158152506040518263ffffffff1660e01b8152600401610f5f9190615106565b6040805180830381865af4158015610f7b573d6000803e3d6000fd5b505050506040513d601f19601f82011682018060405250810190610f9f91906151e2565b91509150856001600160a01b0316826001600160a01b031614610fd9578186604051636ba3dd8b60e01b815260040161067b929190614fc0565b8a51604051633db3964d60e11b815273__$e53db83827f4e07ebc418caf7145b8c2d5$__91637b672c9a9161101391908790600401615210565b60006040518083038186803b15801561102b57600080fd5b505af415801561103f573d6000803e3d6000fd5b50929d9c50505050505050505050505050565b600060028260000151836020015161106a9190614d23565b610b399190614cb0565b60006001600160ff1b038211156110de5760405162461bcd60e51b815260206004820152602860248201527f53616665436173743a2076616c756520646f65736e27742066697420696e2061604482015267371034b73a191a9b60c11b606482015260840161067b565b5090565b6000806110ee83611e62565b905060006111058460000151856020015184611eb3565b905060008112611116579392505050565b60008060006111318760000151886020015160000151611fd1565b9250925092508261114757509195945050505050565b6000808860200151604001516001600160a01b031689604001516001600160a01b03160361117957508290508161117f565b50819050825b600061118c8a8484612169565b905060006111a38b600001518c6020015184611eb3565b90508781126111b257876111b4565b805b9b9a5050505050505050505050565b60006111d0838584612277565b90505b9392505050565b600080611207846000015184600001516000015185610100015160008761012001511387606001516122c0565b84516020808701518651516080880151855160405196975073__$00d18be641c3a4f9ed15a2e39383149bb3$__966383789c8096956112469101615234565b60408051601f198184030181529082905280516020909101206001600160e01b031960e089901b1682526001600160a01b0396871660048301529486166024820152928516604484015293166064820152608481019290925260a482015260c40160006040518083038186803b1580156112bf57600080fd5b505af41580156112d3573d6000803e3d6000fd5b5050505073__$00d18be641c3a4f9ed15a2e39383149bb3$__63214516ab85600001518660200151866060015187600001516000015188608001518760a0015160405160200161134a9060208082526013908201527255495f4445504f5349545f4645455f5459504560681b604082015260600190565b60408051808303601f1901815290829052805160209091012060e089901b6001600160e01b03191682526001600160a01b039788166004830152958716602482015293861660448501529185166064840152909316608482015260a481019290925260c482015260e40160006040518083038186803b1580156113cc57600080fd5b505af41580156113e0573d6000803e3d6000fd5b5050505073__$37ccc826b10054fe27f32c30ea3a599925$__638860ae4c8560200151866080015186600001516000015187608001518860c001516000015160405160200161142e90615234565b60408051601f1981840301815282825280516020918201206001600160e01b031960e08b901b1684526001600160a01b039889166004850152602484019790975294871660448301529286166064820152608481019190915260a4810193909352865160c48401529086015160e48301528501516101048201526060850151909116610124820152608084015161014482015260a08401516101648201526101840160006040518083038186803b1580156114e857600080fd5b505af41580156114fc573d6000803e3d6000fd5b5050505060008073__$e53db83827f4e07ebc418caf7145b8c2d5$__63f2e2a4f58760000151876000015189606001516001600160a01b0316635dcf71948a60000151602001516040518263ffffffff1660e01b815260040161155f9190614c70565b6040805180830381865afa15801561157b573d6000803e3d6000fd5b505050506040513d601f19601f8201168201806040525081019061159f9190615079565b8960000151604001516001600160a01b03168a608001516001600160a01b0316146115ce578960e001516115d4565b8960c001515b8a60000151606001516001600160a01b03168b608001516001600160a01b031614611603578a60e00151611609565b8a60c001515b60405160200161161890614cd7565b6040516020818303038152906040528051906020012060016040518863ffffffff1660e01b81526004016116529796959493929190614d94565b61016060405180830381865af4158015611670573d6000803e3d6000fd5b505050506040513d601f19601f820116820180604052508101906116949190614e01565b90506000816000015112156116c257805160405163adaa688d60e01b8152600481019190915260240161067b565b60006116d18260000151612493565b8651519091506000906116e3906119ce565b83519091501580156116f55750600081115b1561171957825160405163adaa688d60e01b8152600481019190915260240161067b565b60208801516080890151885151604051636a9231d960e11b815273__$c1eebf06e53d0bd092f667687cf73e1ebf$__9363d52463b2936117649391929091908990889060040161525e565b60006040518083038186803b15801561177c57600080fd5b505af4158015611790573d6000803e3d6000fd5b5050505060008761012001511380156117a7575080155b156117b55760006101208801525b600087610120015113156118685760006117f089600001518a602001518a60000151600001518b60a001518c60e001518d61012001516124e5565b90506118188860e001516020015161180783612493565b6118119190614d0c565b8484612518565b6118229086614d23565b895160208b01518a5160a08c015193985061183d938561256b565b508851885160a08a01516118529291906126be565b8851885160a08a0151611866929190612705565b505b600087610120015112156118cc5760006118a389600001518a602001518a60000151600001518b608001518c60c001518d61012001516124e5565b90506118b66118b18261529c565b612493565b866040018181516118c79190614cc4565b905250505b60c08701515160408601516118eb916118e491614d0c565b8383612518565b6118f59085614d23565b935061192f8860000151896020015189600001518a6080015161192a8a602001518b604001516119259190614d23565b611074565b61256b565b508751875160808901516119449291906126be565b875187516080890151611958929190612705565b86515160408089015190516340c10f1960e01b81526001600160a01b039182166004820152602481018790529116906340c10f1990604401600060405180830381600087803b1580156119aa57600080fd5b505af11580156119be573d6000803e3d6000fd5b50959a9950505050505050505050565b6000816001600160a01b03166318160ddd6040518163ffffffff1660e01b8152600401602060405180830381865afa158015611a0e573d6000803e3d6000fd5b505050506040513d601f19601f82011682018060405250810190610b399190615060565b806001600160401b03811115611a4a57611a4a61474e565b604051908082528060200260200182016040528015611a9057816020015b604080518082019091526060815260006020820152815260200190600190039081611a685790505b5090915250565b8184600001518481518110611aae57611aae6152b8565b6020026020010151600001819052508084600001518481518110611ad457611ad46152b8565b6020026020010151602001818152505050505050565b611afe611af983516040015190565b61274c565b611b0757505050565b8151604001516001600160a01b031663a02ba64d611b2a846020015160a0015190565b8585856040518563ffffffff1660e01b8152600401611b4b93929190615a3d565b600060405180830381600088803b158015611b6557600080fd5b5087f193505050508015611b77575060015b610aa0577fc88199840f217e7d43d02cf94a25815d58c5767e400ab42127814d4d6265c1bf8383604051611bac929190615b0c565b60405180910390a1505050565b6000611bc58483612783565b611bd1575060006111d3565b611bdb83836127c3565b611be7575060006111d3565b5060019392505050565b80516001600160a01b0316611c19576040516302fde0d760e11b815260040160405180910390fd5b6000826001600160a01b0316637ae1cfca611c378460000151612803565b6040518263ffffffff1660e01b8152600401611c5591815260200190565b602060405180830381865afa158015611c72573d6000803e3d6000fd5b505050506040513d601f19601f82011682018060405250810190611c969190615b25565b90508015610aa05781516040516309f8c93760e01b815261067b9190600401614c70565b6000604051602001611d099060208082526023908201527f4d494e5f4d41524b45545f544f4b454e535f464f525f46495253545f4445504f60408201526214d25560ea1b606082015260800190565b60408051601f198184030181528282528051602091820120908301526001600160a01b03841690820152606001604051602081830303815290604052805190602001209050919050565b600080600080611d6789898989600161283b565b90506000611d7b8a878b600001518a61288b565b905060008083138015611d95575081611d9384612493565b115b9b929a50909850909650505050505050565b6060600082516001600160401b03811115611dc457611dc461474e565b604051908082528060200260200182016040528015611dfd57816020015b611dea614679565b815260200190600190039081611de25790505b50905060005b8351811015611e5a576000848281518110611e2057611e206152b8565b60200260200101519050611e348682612906565b838381518110611e4657611e466152b8565b602090810291909101015250600101611e03565b509392505050565b611e6a6146cd565b6000611e83836000015184602001518560400151612997565b90506000611e9e846000015185602001518660600151612997565b9050611eab848383612169565b949350505050565b600080611ec883600001518460200151612a35565b90506000611ede84604001518560600151612a35565b60608501516040860151602087015187518951949550111591101514906000906001600160a01b0389169063bd02d0f590611f1890612a57565b6040518263ffffffff1660e01b8152600401611f3691815260200190565b602060405180830381865afa158015611f53573d6000803e3d6000fd5b505050506040513d601f19601f82011682018060405250810190611f779190615060565b90508115611faf57865184841090600090611f94908b9084612a98565b9050611fa286868386612ac2565b96505050505050506111d3565b600080611fc08a8a60000151612af4565b91509150611fa28686848487612c08565b600080600080856001600160a01b031663a6ed563e611fef87612c51565b6040518263ffffffff1660e01b815260040161200d91815260200190565b602060405180830381865afa15801561202a573d6000803e3d6000fd5b505050506040513d601f19601f8201168201806040525081019061204e9190615060565b90508061206657600080600093509350935050612162565b6001866001600160a01b031663bd02d0f5612082846001612c88565b6040518263ffffffff1660e01b81526004016120a091815260200190565b602060405180830381865afa1580156120bd573d6000803e3d6000fd5b505050506040513d601f19601f820116820180604052508101906120e19190615060565b876001600160a01b031663bd02d0f56120fb856000612c88565b6040518263ffffffff1660e01b815260040161211991815260200190565b602060405180830381865afa158015612136573d6000803e3d6000fd5b505050506040513d601f19601f8201168201806040525081019061215a9190615060565b935093509350505b9250925092565b6121716146cd565b60008460800151846121839190614d0c565b905060008560a00151846121979190614d0c565b905060008660c001511280156121bc5750816121ba8760c001516118b19061529c565b115b156121e2578560c0015182604051632e94940960e01b815260040161067b929190614d36565b60008660e001511280156122055750806122038760e001516118b19061529c565b115b1561222b578560e0015181604051632e94940960e01b815260040161067b929190614d36565b600061223b838860c00151612d14565b9050600061224d838960e00151612d14565b60408051608081018252958652602086019490945292840191909152506060820152949350505050565b60008061228d8561228786612d4b565b85612d5e565b9050600084136122ae576122a081611074565b6122a99061529c565b6122b7565b6122b781611074565b95945050505050565b6122c86146f5565b6122d06146f5565b6000876001600160a01b031663bd02d0f56122eb8988612d6b565b6040518263ffffffff1660e01b815260040161230991815260200190565b602060405180830381865afa158015612326573d6000803e3d6000fd5b505050506040513d601f19601f8201168201806040525081019061234a9190615060565b90506000886001600160a01b031663bd02d0f56040516020016123999060208082526018908201527729aba0a82fa322a2afa922a1a2a4ab22a92fa320a1aa27a960411b604082015260600190565b604051602081830303815290604052805190602001206040518263ffffffff1660e01b81526004016123cd91815260200190565b602060405180830381865afa1580156123ea573d6000803e3d6000fd5b505050506040513d601f19601f8201168201806040525081019061240e9190615060565b9050600061241c8884612dda565b90506124288183612dda565b8085526124359082614cc4565b60208501526001600160a01b03861660608501526124538a87612df3565b60808501819052612465908990612dda565b60a08501819052612476828a614cc4565b6124809190614cc4565b6040850152509198975050505050505050565b6000808212156110de5760405162461bcd60e51b815260206004820181905260248201527f53616665436173743a2076616c7565206d75737420626520706f736974697665604482015260640161067b565b6000806124f58887878787612f39565b905061250c888888886125078661529c565b612f9b565b50979650505050505050565b600081158015612526575082155b1561253b576125348461305a565b90506111d3565b811580156125495750600083115b156125605761253461255b8585614d23565b61305a565b6111d0828585612d5e565b600080866001600160a01b03166332f85bbf61258b87600001518761306b565b6040516001600160e01b031960e084901b16815260048101919091526024810186905260606044820152602260648201527f496e76616c69642073746174652c206e6567617469766520706f6f6c416d6f756084820152611b9d60f21b60a482015260c4016020604051808303816000875af115801561260f573d6000803e3d6000fd5b505050506040513d601f19601f820116820180604052508101906126339190615060565b905061264287878787876130d9565b50508451604051631daaefa160e01b815273__$c1eebf06e53d0bd092f667687cf73e1ebf$__91631daaefa191612683918a91899089908890600401615b42565b60006040518083038186803b15801561269b57600080fd5b505af41580156126af573d6000803e3d6000fd5b50929998505050505050505050565b60006126cb848484612997565b905060006126de858560000151856132a1565b905080821115610c68578181604051636e28a3a160e01b815260040161067b929190614d36565b6000612712848484612997565b905060006127258585600001518561331b565b905080821115610c68578181604051636429ff3f60e01b815260040161067b929190614d36565b60006001600160a01b03821661276457506000919050565b6001600160a01b0382163b61277b57506000919050565b506001919050565b6000805b8351811015611be757828482815181106127a3576127a36152b8565b602002602001015111156127bb576000915050610b39565b600101612787565b6000805b8351811015611be757828482815181106127e3576127e36152b8565b602002602001015110156127fb576000915050610b39565b6001016127c7565b6000604051602001611d09906020808252601290820152711254d7d3505492d15517d11254d05093115160721b604082015260600190565b60008061284c878787878715613336565b9050806000036128605760009150506122b7565b60006128738888886000015188886133bc565b905061287f8183613439565b98975050505050505050565b6000846001600160a01b031663bd02d0f56128a7868686613478565b6040518263ffffffff1660e01b81526004016128c591815260200190565b602060405180830381865afa1580156128e2573d6000803e3d6000fd5b505050506040513d601f19601f820116820180604052508101906122b79190615060565b61290e614679565b60405163a8d8fff560e01b815260009073__$ff439aa65a80c9eec648f15db20b189505$__9063a8d8fff59061294a9087908790600401614fc0565b608060405180830381865af4158015612967573d6000803e3d6000fd5b505050506040513d601f19601f8201168201806040525081019061298b9190614fda565b9050610b368482613507565b6000806129ac84604001518560600151613552565b905080856001600160a01b031663bd02d0f56129cc87600001518761306b565b6040518263ffffffff1660e01b81526004016129ea91815260200190565b602060405180830381865afa158015612a07573d6000803e3d6000fd5b505050506040513d601f19601f82011682018060405250810190612a2b9190615060565b6122b79190614cb0565b6000818311612a4d57612a488383614cc4565b610b36565b610b368284614cc4565b6000604051602001611d09906020808252601b908201527a29aba0a82fa4a6a820a1aa2fa2ac2827a722a72a2fa320a1aa27a960291b604082015260600190565b6000806000612aa78686612af4565b9150915083612ab65780612ab8565b815b9695505050505050565b600084841081612ae6612ad6888787613581565b612ae1888888613581565b612a35565b9050600061287f828461359a565b6000806000846001600160a01b031663bd02d0f5612b138660016135bd565b6040518263ffffffff1660e01b8152600401612b3191815260200190565b602060405180830381865afa158015612b4e573d6000803e3d6000fd5b505050506040513d601f19601f82011682018060405250810190612b729190615060565b90506000856001600160a01b031663bd02d0f5612b908760006135bd565b6040518263ffffffff1660e01b8152600401612bae91815260200190565b602060405180830381865afa158015612bcb573d6000803e3d6000fd5b505050506040513d601f19601f82011682018060405250810190612bef9190615060565b905080821115612bfd578091505b909590945092505050565b600080612c16878685613581565b90506000612c25878686613581565b90506000612c338383612a35565b90506000612c438284861161359a565b9a9950505050505050505050565b6000604051602001611d09906020808252601190820152701592549515505317d3505492d15517d251607a1b604082015260600190565b6000604051602001612cc9906020808252601b908201527a5649525455414c5f494e56454e544f52595f464f525f535741505360281b604082015260600190565b60408051601f19818403018152828252805160209182012090830152810184905282151560608201526080015b60405160208183030381529060405280519060200120905092915050565b600080821315612d3857612d2782612d4b565b612d319084614d23565b9050610b39565b612d4182612d4b565b610b369084614cc4565b6000808212156110de5781600003610b39565b60006111d08484846135f5565b6000604051602001612da0906020808252600f908201526e29aba0a82fa322a2afa320a1aa27a960891b604082015260600190565b60408051601f198184030181528282528051602091820120908301526001600160a01b038516908201528215156060820152608001612cf6565b6000610b36838368327cb2734119d3b7a9601e1b612d5e565b600080836001600160a01b031663bd02d0f5604051602001612e3a9060208082526011908201527026a0ac2faaa4afa322a2afa320a1aa27a960791b604082015260600190565b604051602081830303815290604052805190602001206040518263ffffffff1660e01b8152600401612e6e91815260200190565b602060405180830381865afa158015612e8b573d6000803e3d6000fd5b505050506040513d601f19601f82011682018060405250810190612eaf9190615060565b90506000846001600160a01b031663bd02d0f5612ecb866136df565b6040518263ffffffff1660e01b8152600401612ee991815260200190565b602060405180830381865afa158015612f06573d6000803e3d6000fd5b505050506040513d601f19601f82011682018060405250810190612f2a9190615060565b9050818110611eab57816122b7565b6000806000831315612f8257612f528460200151611074565b612f5c9084615b76565b90506000612f6e611925898989613712565b905080821315612f7c578091505b50612ab8565b612f9083856000015161372d565b979650505050505050565b600080866001600160a01b0316638ca498b0612fb7878761379a565b856040518363ffffffff1660e01b8152600401612fd5929190614d36565b6020604051808303816000875af1158015612ff4573d6000803e3d6000fd5b505050506040513d601f19601f820116820180604052508101906130189190615060565b604051630553bdb560e11b815290915073__$c1eebf06e53d0bd092f667687cf73e1ebf$__90630aa77b6a906126839089908990899089908890600401615b42565b6000610b3964e8d4a5100083614cb0565b600060405160200161309c906020808252600b908201526a1413d3d317d05353d5539560aa1b604082015260600190565b60408051601f198184030181528282528051602091820120908301526001600160a01b038086169183019190915283166060820152608001612cf6565b6000806000876001600160a01b031663a6ed563e6130fa8860000151612c51565b6040518263ffffffff1660e01b815260040161311891815260200190565b602060405180830381865afa158015613135573d6000803e3d6000fd5b505050506040513d601f19601f820116820180604052508101906131599190615060565b90508061316d576000809250925050613297565b600061317987876137d7565b90506000896001600160a01b0316638ca498b06131968585612c88565b886040518363ffffffff1660e01b81526004016131b4929190614d36565b6020604051808303816000875af11580156131d3573d6000803e3d6000fd5b505050506040513d601f19601f820116820180604052508101906131f79190615060565b885160405163a814bb6f60e01b81526001600160a01b03808d16600483015290911660248201528315156044820152606481018590526084810188905260a4810182905290915073__$c1eebf06e53d0bd092f667687cf73e1ebf$__9063a814bb6f9060c40160006040518083038186803b15801561327557600080fd5b505af4158015613289573d6000803e3d6000fd5b506001975092955050505050505b9550959350505050565b6000836001600160a01b031663bd02d0f56132bc858561384f565b6040518263ffffffff1660e01b81526004016132da91815260200190565b602060405180830381865afa1580156132f7573d6000803e3d6000fd5b505050506040513d601f19601f820116820180604052508101906111d09190615060565b6000836001600160a01b031663bd02d0f56132bc8585613890565b6000808361334857856060015161334e565b85604001515b9050600061335d888884612997565b90506000841561338b578561337a57866040015160200151613384565b8660200151602001515b90506133a5565b8561339b576040870151516133a2565b6020870151515b90505b6133af8183614d0c565b9998505050505050505050565b6000806133cd6119258888876138c5565b905060006133dc888887613918565b90508115806133e9575080155b156133f9576000925050506122b7565b600061340687878761395f565b905060006134176119258385614d0c565b905060008761342f5761342a8286615ba4565b6111b4565b6111b48583615ba4565b60008061344e61344885612d4b565b84613996565b90506000841361346f5761346181611074565b61346a9061529c565b611eab565b611eab81611074565b60006040516020016134ac906020808252600e908201526d26a0ac2fa827262fa320a1aa27a960911b604082015260600190565b60408051601f1981840301815282825280516020918201209083015281018590526001600160a01b0384166060820152821515608082015260a0015b6040516020818303038152906040528051906020012090509392505050565b6135118282611bf1565b80606001516001600160a01b031681604001516001600160a01b03160361354e5780516040516332e6f44d60e21b815261067b9190600401614c70565b5050565b6000816001600160a01b0316836001600160a01b031614613574576001613577565b60025b60ff169392505050565b60008061358e85846139a4565b90506122b78185612dda565b600081156135ab57612d3183611074565b6135b483611074565b612d319061529c565b6000604051602001612da09060208082526012908201527129aba0a82fa4a6a820a1aa2fa320a1aa27a960711b604082015260600190565b600080806000198587098587029250828110838203039150508060000361362f5783828161362557613625614c84565b04925050506111d3565b8084116136765760405162461bcd60e51b81526020600482015260156024820152744d6174683a206d756c446976206f766572666c6f7760581b604482015260640161067b565b60008486880960026001871981018816978890046003810283188082028403028082028403028082028403028082028403028082028403029081029092039091026000889003889004909101858311909403939093029303949094049190911702949350505050565b6000604051602001611d09906020808252600d908201526c2aa4afa322a2afa320a1aa27a960991b604082015260600190565b6000836001600160a01b031663bd02d0f56132bc858561379a565b6000808312156137685761374082611074565b61374983611074565b6137539085615ba4565b61375e906001615bcb565b612d319190615b76565b61377182611074565b600161377c84611074565b6137869086615bcb565b6137909190615ba4565b610b369190615b76565b600060405160200161309c9060208082526017908201527614d5d05417d253541050d517d413d3d317d05353d55395604a1b604082015260600190565b600082604001516001600160a01b0316826001600160a01b031614158015613815575082606001516001600160a01b0316826001600160a01b031614155b1561383757825160405163785ee46960e01b815261067b918491600401614fc0565b506040909101516001600160a01b0391821691161490565b600060405160200161309c906020808252601b908201527a13505617d413d3d317d05353d5539517d193d497d1115413d4d255602a1b604082015260600190565b600060405160200161309c906020808252600f908201526e13505617d413d3d317d05353d55395608a1b604082015260600190565b6000806138da84604001518560600151613552565b905060006138f386866000015187604001518786613a03565b9050600061390c87876000015188606001518887613a03565b9050612f908183614d23565b60008061392d84604001518560600151613552565b9050600061394686866000015187604001518786613a89565b9050600061390c87876000015188606001518887613a89565b6000821561397e5781613973578351612534565b5060208301516111d3565b8161398d5783602001516111d0565b50509051919050565b6000610b3683836000613aa6565b600068327cb2734119d3b7a9601e1b8310156139c257506000610b39565b68327cb2734119d3b7a9601e1b82036139dc575081610b39565b60006139f86139ea8561305a565b6139f38561305a565b613aee565b9050611eab81613b2e565b600081866001600160a01b031663bd02d0f5613a20888888613b3f565b6040518263ffffffff1660e01b8152600401613a3e91815260200190565b602060405180830381865afa158015613a5b573d6000803e3d6000fd5b505050506040513d601f19601f82011682018060405250810190613a7f9190615060565b612ab89190614cb0565b600081866001600160a01b031663bd02d0f5613a20888888613bb7565b600083600003613ab8575060006111d3565b8115613ad7576125348468327cb2734119d3b7a9601e1b856001613bf4565b6111d08468327cb2734119d3b7a9601e1b856135f5565b600082600003613b14578115613b05576000612d31565b50670de0b6b3a7640000610b39565b610b36613b29613b2385613c45565b84613cfb565b613d07565b6000610b3964e8d4a5100083614d0c565b6000604051602001613b72906020808252600d908201526c13d4115397d2539511549154d5609a1b604082015260600190565b60408051601f198184030181528282528051602091820120908301526001600160a01b038087169183019190915284166060820152821515608082015260a0016134e8565b6000604051602001613b72906020808252601790820152764f50454e5f494e5445524553545f494e5f544f4b454e5360481b604082015260600190565b600080613c028686866135f5565b90506001836002811115613c1857613c18615bf3565b148015613c35575060008480613c3057613c30614c84565b868809115b156122b757612ab8600182614d23565b6000670de0b6b3a7640000821015613c7357604051633621413760e21b81526004810183905260240161067b565b6000613c88670de0b6b3a76400008404613d4d565b670de0b6b3a764000081029250905082811c670de0b6b3a763ffff198101613cb1575050919050565b6706f05b59d3b200005b8015613cf357670de0b6b3a7640000828002049150671bc16d674ec800008210613ceb579283019260019190911c905b60011c613cbb565b505050919050565b6000610b368383613e30565b6000680a688906bd8b0000008210613d3557604051634a4f26f160e01b81526004810183905260240161067b565b670de0b6b3a7640000604083901b046111d381613ef6565b6000600160801b8210613d6d57608091821c91613d6a9082614d23565b90505b600160401b8210613d8b57604091821c91613d889082614d23565b90505b600160201b8210613da957602091821c91613da69082614d23565b90505b620100008210613dc657601091821c91613dc39082614d23565b90505b6101008210613de257600891821c91613ddf9082614d23565b90505b60108210613dfd57600491821c91613dfa9082614d23565b90505b60048210613e1857600291821c91613e159082614d23565b90505b60028210613e2b57610b39600182614d23565b919050565b60008080600019848609848602925082811083820303915050670de0b6b3a76400008110613e745760405163698d9a0160e11b81526004810182905260240161067b565b600080670de0b6b3a764000086880991506706f05b59d3b1ffff8211905082600003613eb25780670de0b6b3a7640000850401945050505050610b39565b620400008285030493909111909103600160ee1b02919091177faccb18165bd6fe31ae1cf318dc5b51eee0e1ba569b88cd74c1773b91fac106690201905092915050565b600160bf1b6001603f1b821615613f165768016a09e667f3bcc9090260401c5b6001603e1b821615613f31576801306fe0a31b7152df0260401c5b6001603d1b821615613f4c576801172b83c7d517adce0260401c5b6001603c1b821615613f675768010b5586cf9890f62a0260401c5b6001603b1b821615613f82576801059b0d31585743ae0260401c5b6001603a1b821615613f9d57680102c9a3e778060ee70260401c5b600160391b821615613fb85768010163da9fb33356d80260401c5b600160381b821615613fd357680100b1afa5abcbed610260401c5b600160371b821615613fee5768010058c86da1c09ea20260401c5b600160361b821615614009576801002c605e2e8cec500260401c5b600160351b82161561402457680100162f3904051fa10260401c5b600160341b82161561403f576801000b175effdc76ba0260401c5b600160331b82161561405a57680100058ba01fb9f96d0260401c5b600160321b8216156140755768010002c5cc37da94920260401c5b600160311b821615614090576801000162e525ee05470260401c5b600160301b8216156140ab5768010000b17255775c040260401c5b6001602f1b8216156140c6576801000058b91b5bc9ae0260401c5b6001602e1b8216156140e157680100002c5c89d5ec6d0260401c5b6001602d1b8216156140fc5768010000162e43f4f8310260401c5b6001602c1b82161561411757680100000b1721bcfc9a0260401c5b6001602b1b8216156141325768010000058b90cf1e6e0260401c5b6001602a1b82161561414d576801000002c5c863b73f0260401c5b600160291b82161561416857680100000162e430e5a20260401c5b600160281b821615614183576801000000b1721835510260401c5b600160271b82161561419e57680100000058b90c0b490260401c5b600160261b8216156141b95768010000002c5c8601cc0260401c5b600160251b8216156141d4576801000000162e42fff00260401c5b600160241b8216156141ef5768010000000b17217fbb0260401c5b600160231b82161561420a576801000000058b90bfce0260401c5b600160221b82161561422557680100000002c5c85fe30260401c5b600160211b8216156142405768010000000162e42ff10260401c5b600160201b82161561425b57680100000000b17217f80260401c5b63800000008216156142765768010000000058b90bfc0260401c5b6340000000821615614291576801000000002c5c85fe0260401c5b63200000008216156142ac57680100000000162e42ff0260401c5b63100000008216156142c7576801000000000b17217f0260401c5b63080000008216156142e257680100000000058b90c00260401c5b63040000008216156142fd5768010000000002c5c8600260401c5b6302000000821615614318576801000000000162e4300260401c5b63010000008216156143335768010000000000b172180260401c5b6280000082161561434d576801000000000058b90c0260401c5b6240000082161561436757680100000000002c5c860260401c5b622000008216156143815768010000000000162e430260401c5b6210000082161561439b57680100000000000b17210260401c5b620800008216156143b55768010000000000058b910260401c5b620400008216156143cf576801000000000002c5c80260401c5b620200008216156143e957680100000000000162e40260401c5b620100008216156144025761b172600160401b010260401c5b61800082161561441a576158b9600160401b010260401c5b61400082161561443257612c5d600160401b010260401c5b61200082161561444a5761162e600160401b010260401c5b61100082161561446257610b17600160401b010260401c5b61080082161561447a5761058c600160401b010260401c5b610400821615614492576102c6600160401b010260401c5b6102008216156144aa57610163600160401b010260401c5b6101008216156144c15760b1600160401b010260401c5b60808216156144d7576059600160401b010260401c5b60408216156144ed57602c600160401b010260401c5b6020821615614503576016600160401b010260401c5b601082161561451957600b600160401b010260401c5b600882161561452f576006600160401b010260401c5b6004821615614545576003600160401b010260401c5b600282161561455b576001600160401b010260401c5b6001821615614571576001600160401b010260401c5b670de0b6b3a76400000260409190911c60bf031c90565b604080516101208101909152606060e08201818152610100830191909152819081526020016145ca604051806040016040528060608152602001606081525090565b81526020016145ec604051806040016040528060608152602001606081525090565b815260200161460e604051806040016040528060608152602001606081525090565b8152602001614630604051806040016040528060608152602001606081525090565b8152602001614652604051806040016040528060608152602001606081525090565b8152602001614674604051806040016040528060608152602001606081525090565b905290565b60408051608081018252600080825260208201819052918101829052606081019190915290565b60405180606001604052806146b3614734565b81526020016146c0614734565b8152602001614674614734565b6040518060800160405280600081526020016000815260200160008152602001600081525090565b6040518060c0016040528060008152602001600081526020016000815260200160006001600160a01b0316815260200160008152602001600081525090565b604051806040016040528060008152602001600081525090565b634e487b7160e01b600052604160045260246000fd5b604051606081016001600160401b03811182821017156147865761478661474e565b60405290565b60405161012081016001600160401b03811182821017156147865761478661474e565b60405161016081016001600160401b03811182821017156147865761478661474e565b604051601f8201601f191681016001600160401b03811182821017156147fa576147fa61474e565b604052919050565b6001600160a01b038116811461481757600080fd5b50565b8035613e2b81614802565b60006001600160401b0382111561483e5761483e61474e565b5060051b60200190565b600082601f83011261485957600080fd5b813561486c61486782614825565b6147d2565b8082825260208201915060208360051b86010192508583111561488e57600080fd5b602085015b838110156148ab578035835260209283019201614893565b5095945050505050565b600082601f8301126148c657600080fd5b81356148d461486782614825565b8082825260208201915060208360051b8601019250858311156148f657600080fd5b602085015b838110156148ab57803561490e81614802565b8352602092830192016148fb565b600060c0828403121561492e57600080fd5b60405160c081016001600160401b03811182821017156149505761495061474e565b604090815283358252602080850135908301528381013590820152606080840135908201526080808401359082015260a0928301359281019290925250919050565b801515811461481757600080fd5b6000602082840312156149b257600080fd5b604051602081016001600160401b03811182821017156149d4576149d461474e565b60405290508082356149e581614992565b905292915050565b60006101008284031215614a0057600080fd5b614a08614764565b905081356001600160401b03811115614a2057600080fd5b82016101208185031215614a3357600080fd5b614a3b61478c565b614a448261481a565b8152614a526020830161481a565b6020820152614a636040830161481a565b6040820152614a746060830161481a565b6060820152614a856080830161481a565b6080820152614a9660a0830161481a565b60a0820152614aa760c0830161481a565b60c082015260e08201356001600160401b03811115614ac557600080fd5b614ad1868285016148b5565b60e0830152506101008201356001600160401b03811115614af157600080fd5b614afd868285016148b5565b61010083015250825250614b14836020840161491c565b6020820152614b268360e084016149a0565b604082015292915050565b60008060408385031215614b4457600080fd5b82356001600160401b03811115614b5a57600080fd5b83016101208186031215614b6d57600080fd5b614b7561478c565b614b7e8261481a565b8152614b8c6020830161481a565b6020820152614b9d6040830161481a565b6040820152614bae6060830161481a565b60608201526080828101359082015260a08201356001600160401b03811115614bd657600080fd5b614be287828501614848565b60a08301525060c08201356001600160401b03811115614c0157600080fd5b614c0d87828501614848565b60c083015250614c1f60e0830161481a565b60e08201526101009182013591810191909152915060208301356001600160401b03811115614c4d57600080fd5b614c59858286016149ed565b9150509250929050565b6001600160a01b03169052565b6001600160a01b0391909116815260200190565b634e487b7160e01b600052601260045260246000fd5b634e487b7160e01b600052601160045260246000fd5b600082614cbf57614cbf614c84565b500490565b81810381811115610b3957610b39614c9a565b6020808252601b908201527a4d41585f504e4c5f464143544f525f464f525f4445504f5349545360281b604082015260600190565b8082028115828204841417610b3957610b39614c9a565b80820180821115610b3957610b39614c9a565b918252602082015260400190565b80516001600160a01b03908116835260208083015182169084015260408083015182169084015260609182015116910152565b6001600160a01b038316815260a081016111d36020830184614d44565b6001600160a01b03881681526101a08101614db26020830189614d44565b865160a083015260209687015160c0830152855160e083015294860151610100820152835161012082015292909401516101408301526101608201529115156101809092019190915292915050565b6000610160828403128015614e1557600080fd5b506000614e206147af565b835181526020808501519082015260408085015190820152606080850151908201526080808501519082015260a0808501519082015260c0808501519082015260e08085015190820152610100808501519082015261012080850151908201526101409384015193810193909352509092915050565b805182526020810151602083015260408101516040830152606081015160608301526080810151608083015260a081015160a083015260c081015160c083015260e081015160e08301526101008101516101008301526101208101516101208301526101408101516101408301525050565b6001600160a01b0387811682526020820187905260408201869052841660608201526102008101614f3c6080830185614e96565b826101e0830152979650505050505050565b600081518084526020840193506020830160005b82811015614f80578151865260209586019590910190600101614f62565b5093949350505050565b606081526000614f9d6060830186614f4e565b8281036020840152614faf8186614f4e565b915050826040830152949350505050565b6001600160a01b0392831681529116602082015260400190565b60006080828403128015614fed57600080fd5b50604051608081016001600160401b03811182821017156150105761501061474e565b604052825161501e81614802565b8152602083015161502e81614802565b6020820152604083015161504181614802565b6040820152606083015161505481614802565b60608201529392505050565b60006020828403121561507257600080fd5b5051919050565b6000604082840312801561508c57600080fd5b50604080519081016001600160401b03811182821017156150af576150af61474e565b604052825181526020928301519281019290925250919050565b600081518084526020840193506020830160005b82811015614f80576150f0868351614d44565b60809590950194602091909101906001016150dd565b60208152615118602082018351614c63565b6000602083015161512c6040840182614c63565b50604083015161513f6060840182614c63565b5060608301516151526080840182614c63565b50608083015160a083015260a083015161516f60c0840182614c63565b5060c083015160e083015260e08301516101806101008401526151966101a08401826150c9565b90506101008401516101208401526101208401516151b8610140850182614c63565b506101408401516151cd610160850182614c63565b50610160840151801515610180850152611e5a565b600080604083850312156151f557600080fd5b825161520081614802565b6020939093015192949293505050565b6001600160a01b03831681526040602082018190526000906111d0908301846150c9565b60208082526010908201526f4445504f5349545f4645455f5459504560801b604082015260600190565b6001600160a01b03868116825260208201869052841660408201526101e0810161528b6060830185614e96565b826101c08301529695505050505050565b6000600160ff1b82016152b1576152b1614c9a565b5060000390565b634e487b7160e01b600052603260045260246000fd5b600081518084526020840193506020830160005b82811015614f805781516001600160a01b03168652602095860195909101906001016152e2565b60008151610100845261532161010085018251614c63565b6020810151615334610120860182614c63565b506040810151615348610140860182614c63565b50606081015161535c610160860182614c63565b506080810151615370610180860182614c63565b5060a08101516153846101a0860182614c63565b5060c08101516153986101c0860182614c63565b5060e08101516101206101e08601526153b56102208601826152ce565b9050610100820151915060ff19858203016102008601526153d681836152ce565b91505060208301516154206020860182805182526020810151602083015260408101516040830152606081015160608301526080810151608083015260a081015160a08301525050565b5060408301518051151560e0860152611e5a565b6000815180845260005b8181101561545a5760208185018101518683018201520161543e565b506000602082860101526020601f19601f83011685010191505092915050565b600082825180855260208501945060208160051b8301016020850160005b838110156154f157601f1985840301885281518051604085526154be6040860182615434565b90506020820151915084810360208601526154d981836152ce565b60209a8b019a90955093909301925050600101615498565b50909695505050505050565b60006040830182516040855281815180845260608701915060608160051b880101935060208301925060005b8181101561557757605f19888603018352835180516040875261554f6040880182615434565b6020928301516001600160a01b03169783019790975250938401939290920191600101615529565b50505050602083015184820360208601526122b7828261547a565b600082825180855260208501945060208160051b8301016020850160005b838110156154f157601f1985840301885281518051604085526155d66040860182615434565b6020928301518682038785015280518083529084019360009350909101905b8083101561561857835182526020820191506020840193506001830192506155f5565b5060209a8b019a909550939093019250506001016155b0565b60006040830182516040855281815180845260608701915060608160051b880101935060208301925060005b818110156156a257605f1988860301835283518051604087526156836040880182615434565b602092830151978301979097525093840193929092019160010161565d565b50505050602083015184820360208601526122b78282615592565b600082825180855260208501945060208160051b8301016020850160005b838110156154f157601f1985840301885281518051604085526157016040860182615434565b6020928301518682038785015280518083529084019360009350909101905b8083101561574557835115158252602082019150602084019350600183019250615720565b5060209a8b019a909550939093019250506001016156db565b60006040830182516040855281815180845260608701915060608160051b880101935060208301925060005b818110156157d157605f1988860301835283518051604087526157b06040880182615434565b6020928301511515978301979097525093840193929092019160010161578a565b50505050602083015184820360208601526122b782826156bd565b60006040830182516040855281815180845260608701915060608160051b880101935060208301925060005b818110156156a257605f19888603018352835180516040875261583e6040880182615434565b6020928301519783019790975250938401939290920191600101615818565b600082825180855260208501945060208160051b8301016020850160005b838110156154f157601f1985840301885281518051604085526158a16040860182615434565b6020928301518682038785015280518083529084019391925081830191600582901b84010160005b828110156158fa57601f198583030184526158e5828751615434565b602096870196949094019391506001016158c9565b50809750505050505060208201915060208801975060018101905061587b565b60006040830182516040855281815180845260608701915060608160051b880101935060208301925060005b8181101561599e57605f19888603018352835180516040875261596c6040880182615434565b90506020820151915086810360208801526159878183615434565b965050506020938401939290920191600101615946565b50505050602083015184820360208601526122b7828261585d565b60006040830182516040855281815180845260608701915060608160051b880101935060208301925060005b8181101561599e57605f198886030183528351805160408752615a0b6040880182615434565b9050602082015191508681036020880152615a268183615434565b9650505060209384019392909201916001016159e5565b838152606060208201526000615a566060830185615309565b8281036040840152835160e08252615a7160e08301826154fd565b905060208501518282036020840152615a8a8282615631565b91505060408501518282036040840152615aa48282615631565b91505060608501518282036060840152615abe828261575e565b91505060808501518282036080840152615ad882826157ec565b91505060a085015182820360a0840152615af2828261591a565b91505060c085015182820360c084015261287f82826159b9565b8281526040602082015260006111d06040830184615309565b600060208284031215615b3757600080fd5b8151610b3681614992565b6001600160a01b03958616815293851660208501529190931660408301526060820192909252608081019190915260a00190565b600082615b8557615b85614c84565b600160ff1b821460001984141615615b9f57615b9f614c9a565b500590565b8181036000831280158383131683831282161715615bc457615bc4614c9a565b5092915050565b8082018281126000831280158216821582161715615beb57615beb614c9a565b505092915050565b634e487b7160e01b600052602160045260246000fdfea264697066735822122054a5826f0626f7af3e0db330395867d938159f8a28a18a6529eb013bedd5419a64736f6c634300081a0033",
  "linkReferences": {
    "contracts/deposit/DepositEventUtils.sol": {
      "DepositEventUtils": [
        {
          "length": 20,
          "start": 1833
        }
      ]
    },
    "contracts/deposit/DepositStoreUtils.sol": {
      "DepositStoreUtils": [
        {
          "length": 20,
          "start": 233
        }
      ]
    },
    "contracts/fee/FeeUtils.sol": {
      "FeeUtils": [
        {
          "length": 20,
          "start": 4698
        },
        {
          "length": 20,
          "start": 4882
        }
      ]
    },
    "contracts/gas/GasUtils.sol": {
      "GasUtils": [
        {
          "length": 20,
          "start": 2522
        }
      ]
    },
    "contracts/market/MarketEventUtils.sol": {
      "MarketEventUtils": [
        {
          "length": 20,
          "start": 2219
        },
        {
          "length": 20,
          "start": 5998
        },
        {
          "length": 20,
          "start": 9870
        },
        {
          "length": 20,
          "start": 12387
        },
        {
          "length": 20,
          "start": 12921
        }
      ]
    },
    "contracts/market/MarketStoreUtils.sol": {
      "MarketStoreUtils": [
        {
          "length": 20,
          "start": 2808
        },
        {
          "length": 20,
          "start": 10585
        }
      ]
    },
    "contracts/market/MarketUtils.sol": {
      "MarketUtils": [
        {
          "length": 20,
          "start": 620
        },
        {
          "length": 20,
          "start": 1742
        },
        {
          "length": 20,
          "start": 2014
        },
        {
          "length": 20,
          "start": 4131
        },
        {
          "length": 20,
          "start": 5438
        }
      ]
    },
    "contracts/pricing/SwapPricingUtils.sol": {
      "SwapPricingUtils": [
        {
          "length": 20,
          "start": 5151
        }
      ]
    },
    "contracts/swap/SwapUtils.sol": {
      "SwapUtils": [
        {
          "length": 20,
          "start": 3771
        }
      ]
    }
  },
  "deployedLinkReferences": {
    "contracts/deposit/DepositEventUtils.sol": {
      "DepositEventUtils": [
        {
          "length": 20,
          "start": 1776
        }
      ]
    },
    "contracts/deposit/DepositStoreUtils.sol": {
      "DepositStoreUtils": [
        {
          "length": 20,
          "start": 176
        }
      ]
    },
    "contracts/fee/FeeUtils.sol": {
      "FeeUtils": [
        {
          "length": 20,
          "start": 4641
        },
        {
          "length": 20,
          "start": 4825
        }
      ]
    },
    "contracts/gas/GasUtils.sol": {
      "GasUtils": [
        {
          "length": 20,
          "start": 2465
        }
      ]
    },
    "contracts/market/MarketEventUtils.sol": {
      "MarketEventUtils": [
        {
          "length": 20,
          "start": 2162
        },
        {
          "length": 20,
          "start": 5941
        },
        {
          "length": 20,
          "start": 9813
        },
        {
          "length": 20,
          "start": 12330
        },
        {
          "length": 20,
          "start": 12864
        }
      ]
    },
    "contracts/market/MarketStoreUtils.sol": {
      "MarketStoreUtils": [
        {
          "length": 20,
          "start": 2751
        },
        {
          "length": 20,
          "start": 10528
        }
      ]
    },
    "contracts/market/MarketUtils.sol": {
      "MarketUtils": [
        {
          "length": 20,
          "start": 563
        },
        {
          "length": 20,
          "start": 1685
        },
        {
          "length": 20,
          "start": 1957
        },
        {
          "length": 20,
          "start": 4074
        },
        {
          "length": 20,
          "start": 5381
        }
      ]
    },
    "contracts/pricing/SwapPricingUtils.sol": {
      "SwapPricingUtils": [
        {
          "length": 20,
          "start": 5094
        }
      ]
    },
    "contracts/swap/SwapUtils.sol": {
      "SwapUtils": [
        {
          "length": 20,
          "start": 3714
        }
      ]
    }
  }
}