{
  "_format": "hh-sol-artifact-1",
  "contractName": "AdlUtils",
  "sourceName": "contracts/adl/AdlUtils.sol",
  "abi": [
    {
      "inputs": [],
      "name": "AdlNotEnabled",
      "type": "error"
    },
    {
      "inputs": [
        {
          "internalType": "address",
          "name": "market",
          "type": "address"
        }
      ],
      "name": "DisabledMarket",
      "type": "error"
    },
    {
      "inputs": [],
      "name": "EmptyMarket",
      "type": "error"
    },
    {
      "inputs": [
        {
          "internalType": "uint256",
          "name": "sizeDeltaUsd",
          "type": "uint256"
        },
        {
          "internalType": "uint256",
          "name": "positionSizeInUsd",
          "type": "uint256"
        }
      ],
      "name": "InvalidSizeDeltaForAdl",
      "type": "error"
    },
    {
      "inputs": [
        {
          "internalType": "uint256[]",
          "name": "oracleBlockNumbers",
          "type": "uint256[]"
        },
        {
          "internalType": "uint256",
          "name": "expectedBlockNumber",
          "type": "uint256"
        }
      ],
      "name": "OracleBlockNumbersAreSmallerThanRequired",
      "type": "error"
    },
    {
      "inputs": [
        {
          "internalType": "contract DataStore",
          "name": "dataStore",
          "type": "DataStore"
        },
        {
          "internalType": "address",
          "name": "market",
          "type": "address"
        },
        {
          "internalType": "bool",
          "name": "isLong",
          "type": "bool"
        },
        {
          "internalType": "uint256[]",
          "name": "maxOracleBlockNumbers",
          "type": "uint256[]"
        }
      ],
      "name": "validateAdl",
      "outputs": [],
      "stateMutability": "view",
      "type": "function"
    }
  ],
  "bytecode": "0x612c65610039600b82828239805160001a607314602c57634e487b7160e01b600052600060045260246000fd5b30600052607381538281f3fe730000000000000000000000000000000000000000301460806040526004361061004b5760003560e01c806385671ac514610050578063dbadc9b914610065578063e0cc1a0d14610097575b600080fd5b61006361005e366004611d73565b6100b7565b005b81801561007157600080fd5b50610085610080366004611de7565b61012e565b60405190815260200160405180910390f35b8180156100a357600080fd5b506100636100b2366004611e83565b610599565b60006100c4858585610692565b9050806100e457604051633285dc5760e01b815260040160405180910390fd5b60006100f1868686610716565b90506100fd8382610790565b61012657828160405162f2302f60e71b815260040161011d929190611f1b565b60405180910390fd5b505050505050565b6000806101958360400151846060015185608001518660a00151604080516001600160a01b039586166020808301919091529486168183015292909416606083015215156080808301919091528351808303909101815260a0909101909252815191012090565b835160405163fdfc26f360e01b815291925060009173__$3d31b232fb363902662fbc281b11ab3357$__9163fdfc26f3916101d591908690600401611f68565b6101a060405180830381865af41580156101f3573d6000803e3d6000fd5b505050506040513d601f19601f820116820180604052508101906102179190611fd0565b905061022581602001515190565b8460c00151111561025d5760c084015160208201515160405163720bb46160e01b81526004810192909252602482015260440161011d565b60006040518060e0016040528086604001516001600160a01b0316815260200186604001516001600160a01b031681526020016102a78760000151886040015189606001516107dc565b6001600160a01b0316815260200160006001600160a01b0316815260200186606001516001600160a01b031681526020016102e484516040015190565b6001600160a01b03168152602001600060405190808252806020026020018201604052801561031d578160200160208202803683370190505b5090526040805161014081019091529091506000908060048152602001600181526020018760c001518152602001600081526020016000815260200161036585604001515190565b61037157600019610374565b60005b81526020016000815260200187600001516001600160a01b031663bd02d0f56040516020016103cd9060208082526016908201527513505617d0d05313109050d2d7d1d054d7d31253525560521b604082015260600190565b604051602081830303815290604052805190602001206040518263ffffffff1660e01b815260040161040191815260200190565b602060405180830381865afa15801561041e573d6000803e3d6000fd5b505050506040513d601f19601f820116820180604052508101906104429190612100565b8152602001600081526020018760e0015181525090506000604051806060016040528061047186604001515190565b1515815260016020808301919091526000604092830181905282516060810184528781529182018690529181018390528951929350916104b090610856565b8951604051630c154e0d60e31b815291925073__$9dcb75ef0bb6c4288f2ccffe7dc492c4eb$__916360aa7068916104ee91859087906004016122da565b60006040518083038186803b15801561050657600080fd5b505af415801561051a573d6000803e3d6000fd5b50505060208a01516040516321f5dc7d60e01b815273__$2cb2169b31257cc84fcd1b9a9c4c15efa9$__92506321f5dc7d9161055c91859087906004016122da565b60006040518083038186803b15801561057457600080fd5b505af4158015610588573d6000803e3d6000fd5b50929b9a5050505050505050505050565b60006105a6878585610716565b90506105b28282610790565b6105d257818160405162f2302f60e71b815260040161011d929190611f1b565b60006105de8886610899565b905060006105ec8783610950565b9050600080600061064f8c86868b6040516020016106349060208082526016908201527513505617d4139317d19050d513d497d193d497d0511360521b604082015260600190565b60405160208183030381529060405280519060200120610ac6565b9250925092506106618c8a8a86610b1a565b506106758c8a8a610670610ba8565b610c24565b506106848b8a8a858588610ca9565b505050505050505050505050565b6000836001600160a01b0316637ae1cfca6106ad8585610e36565b6040518263ffffffff1660e01b81526004016106cb91815260200190565b602060405180830381865afa1580156106e8573d6000803e3d6000fd5b505050506040513d601f19601f8201168201806040525081019061070c9190612301565b90505b9392505050565b6000836001600160a01b031663bd02d0f56107318585610ebe565b6040518263ffffffff1660e01b815260040161074f91815260200190565b602060405180830381865afa15801561076c573d6000803e3d6000fd5b505050506040513d601f19601f8201168201806040525081019061070c9190612100565b6000805b83518110156107d057828482815181106107b0576107b061231e565b602002602001015110156107c85760009150506107d6565b600101610794565b50600190505b92915050565b6000836001600160a01b03166321f8a7216107f78585610ef4565b6040518263ffffffff1660e01b815260040161081591815260200190565b602060405180830381865afa158015610832573d6000803e3d6000fd5b505050506040513d601f19601f8201168201806040525081019061070c9190612334565b60008061086283610f6e565b905060008382604051602001610879929190611f68565b60408051601f198184030181529190528051602090910120949350505050565b60408051608081018252600080825260208201819052918101829052606081019190915260405163a8d8fff560e01b81526001600160a01b0380851660048301528316602482015260009073__$ff439aa65a80c9eec648f15db20b189505$__9063a8d8fff590604401608060405180830381865af4158015610920573d6000803e3d6000fd5b505050506040513d601f19601f820116820180604052508101906109449190612351565b905061070f8482611024565b610958611ace565b6040518060600160405280846001600160a01b0316635dcf719485602001516040518263ffffffff1660e01b815260040161099391906123d7565b6040805180830381865afa1580156109af573d6000803e3d6000fd5b505050506040513d601f19601f820116820180604052508101906109d391906123eb565b8152602001846001600160a01b0316635dcf719485604001516040518263ffffffff1660e01b8152600401610a0891906123d7565b6040805180830381865afa158015610a24573d6000803e3d6000fd5b505050506040513d601f19601f82011682018060405250810190610a4891906123eb565b8152602001846001600160a01b0316635dcf719485606001516040518263ffffffff1660e01b8152600401610a7d91906123d7565b6040805180830381865afa158015610a99573d6000803e3d6000fd5b505050506040513d601f19601f82011682018060405250810190610abd91906123eb565b90529392505050565b600080600080610ada8989898960016110f2565b90506000610aee8a878b600001518a611142565b905060008083138015610b08575081610b0684611199565b115b9b929a50909850909650505050505050565b6000846001600160a01b031663abfdcced610b358686610e36565b6040516001600160e01b031960e084901b168152600481019190915284151560248201526044016020604051808303816000875af1158015610b7b573d6000803e3d6000fd5b505050506040513d601f19601f82011682018060405250810190610b9f9190612301565b95945050505050565b6000610bb26111ef565b15610c1f5760646001600160a01b031663a3b1b31d6040518163ffffffff1660e01b8152600401602060405180830381865afa158015610bf6573d6000803e3d6000fd5b505050506040513d601f19601f82011682018060405250810190610c1a9190612100565b905090565b504390565b6000846001600160a01b031663e2a4853a610c3f8686610ebe565b846040518363ffffffff1660e01b8152600401610c66929190918252602082015260400190565b6020604051808303816000875af1158015610c85573d6000803e3d6000fd5b505050506040513d601f19601f82011682018060405250810190610b9f9190612100565b610cb1611b00565b6040810151610cc1906001611206565b604080518082018252600f81526e3837362a37a837b7b62330b1ba37b960891b602082015290820151610cf7916000908761126b565b6020810151610d07906001611206565b610d4760006040518060400160405280600c81526020016b36b0bc2837362330b1ba37b960a11b81525085846020015161126b909392919063ffffffff16565b6060810151610d57906002611206565b60408051808201909152600681526569734c6f6e6760d01b60208201526060820151610d8691600090886112be565b60408051808201909152600f81526e1cda1bdd5b19115b98589b1950591b608a1b60208201526060820151610dbe91600190856112be565b866001600160a01b03166324de01e4610ddd886001600160a01b031690565b836040518363ffffffff1660e01b8152600401610dfb929190612a74565b600060405180830381600087803b158015610e1557600080fd5b505af1158015610e29573d6000803e3d6000fd5b5050505050505050505050565b6000604051602001610e6a906020808252600e908201526d1254d7d0511317d153905093115160921b604082015260600190565b60408051601f198184030181528282528051602091820120908301526001600160a01b0385169082015282151560608201526080015b60405160208183030381529060405280519060200120905092915050565b6000604051602001610e6a9060208082526010908201526f4c41544553545f41444c5f424c4f434b60801b604082015260600190565b6000604051602001610f319060208082526017908201527614d055915117d0d05313109050d2d7d0d3d395149050d5604a1b604082015260600190565b60408051601f198184030181528282528051602091820120908301526001600160a01b038086169183019190915283166060820152608001610ea0565b6000816001600160a01b031663340dbab3604051602001610fa8906020808252600590820152644e4f4e434560d81b604082015260600190565b60408051601f198184030181529082905280516020909101206001600160e01b031960e084901b1682526004820152600160248201526044016020604051808303816000875af1158015611000573d6000803e3d6000fd5b505050506040513d601f19601f820116820180604052508101906107d69190612100565b80516001600160a01b031661104c576040516302fde0d760e11b815260040160405180910390fd5b6000826001600160a01b0316637ae1cfca61106a8460000151611313565b6040518263ffffffff1660e01b815260040161108891815260200190565b602060405180830381865afa1580156110a5573d6000803e3d6000fd5b505050506040513d601f19601f820116820180604052508101906110c99190612301565b905080156110ed5781516040516309f8c93760e01b815261011d91906004016123d7565b505050565b600080611103878787878715611395565b905080600003611117576000915050610b9f565b600061112a88888860000151888861141b565b905061113681836114ac565b98975050505050505050565b6000846001600160a01b031663bd02d0f561115e8686866114f3565b6040518263ffffffff1660e01b815260040161117c91815260200190565b602060405180830381865afa158015610c85573d6000803e3d6000fd5b6000808212156111eb5760405162461bcd60e51b815260206004820181905260248201527f53616665436173743a2076616c7565206d75737420626520706f736974697665604482015260640161011d565b5090565b600061a4b1461480610c1a5750504662066eee1490565b806001600160401b0381111561121e5761121e611c47565b60405190808252806020026020018201604052801561126457816020015b60408051808201909152606081526000602082015281526020019060019003908161123c5790505b5090915250565b81846000015184815181106112825761128261231e565b60200260200101516000018190525080846000015184815181106112a8576112a861231e565b6020026020010151602001818152505050505050565b81846000015184815181106112d5576112d561231e565b60200260200101516000018190525080846000015184815181106112fb576112fb61231e565b60209081029190910181015191151591015250505050565b600060405160200161134b906020808252601290820152711254d7d3505492d15517d11254d05093115160721b604082015260600190565b60408051601f198184030181528282528051602091820120908301526001600160a01b03841690820152606001604051602081830303815290604052805190602001209050919050565b600080836113a75785606001516113ad565b85604001515b905060006113bc888884611582565b9050600084156113ea57856113d9578660400151602001516113e3565b8660200151602001515b9050611404565b856113fa57604087015151611401565b6020870151515b90505b61140e8183612b8a565b9998505050505050505050565b60008061143161142c888887611620565b61167e565b905060006114408888876116e8565b905081158061144d575080155b1561145d57600092505050610b9f565b600061146a87878761172f565b9050600061147b61142c8385612b8a565b90506000876114935761148e8286612ba1565b61149d565b61149d8583612ba1565b9b9a5050505050505050505050565b6000806114c16114bb85611768565b8461177b565b9050600084136114e2576114d48161167e565b6114dd90612bc8565b6114eb565b6114eb8161167e565b949350505050565b6000604051602001611527906020808252600e908201526d26a0ac2fa827262fa320a1aa27a960911b604082015260600190565b60408051601f1981840301815282825280516020918201209083015281018590526001600160a01b0384166060820152821515608082015260a0015b6040516020818303038152906040528051906020012090509392505050565b60008061159784604001518560600151611789565b905080856001600160a01b031663bd02d0f56115b78760000151876117b8565b6040518263ffffffff1660e01b81526004016115d591815260200190565b602060405180830381865afa1580156115f2573d6000803e3d6000fd5b505050506040513d601f19601f820116820180604052508101906116169190612100565b610b9f9190612bfa565b60008061163584604001518560600151611789565b9050600061164e868660000151876040015187866117e9565b90506000611667878760000151886060015188876117e9565b90506116738183612c1c565b979650505050505050565b60006001600160ff1b038211156111eb5760405162461bcd60e51b815260206004820152602860248201527f53616665436173743a2076616c756520646f65736e27742066697420696e2061604482015267371034b73a191a9b60c11b606482015260840161011d565b6000806116fd84604001518560600151611789565b9050600061171686866000015187604001518786611879565b9050600061166787876000015188606001518887611879565b600082156117505781611743578351611749565b83602001515b905061070f565b8161175f57836020015161070c565b50509051919050565b6000808212156111eb57816000036107d6565b600061070f83836000611896565b6000816001600160a01b0316836001600160a01b0316146117ab5760016117ae565b60025b60ff169392505050565b6000604051602001610f31906020808252600b908201526a1413d3d317d05353d5539560aa1b604082015260600190565b600081866001600160a01b031663bd02d0f56118068888886118de565b6040518263ffffffff1660e01b815260040161182491815260200190565b602060405180830381865afa158015611841573d6000803e3d6000fd5b505050506040513d601f19601f820116820180604052508101906118659190612100565b61186f9190612bfa565b9695505050505050565b600081866001600160a01b031663bd02d0f5611806888888611956565b6000836000036118a85750600061070f565b81156118c7576117498468327cb2734119d3b7a9601e1b856001611993565b61070c8468327cb2734119d3b7a9601e1b856119e4565b6000604051602001611911906020808252600d908201526c13d4115397d2539511549154d5609a1b604082015260600190565b60408051601f198184030181528282528051602091820120908301526001600160a01b038087169183019190915284166060820152821515608082015260a001611563565b6000604051602001611911906020808252601790820152764f50454e5f494e5445524553545f494e5f544f4b454e5360481b604082015260600190565b6000806119a18686866119e4565b905060018360028111156119b7576119b76120ea565b1480156119d45750600084806119cf576119cf612be4565b868809115b15610b9f5761186f600182612c1c565b6000808060001985870985870292508281108382030391505080600003611a1e57838281611a1457611a14612be4565b049250505061070f565b808411611a655760405162461bcd60e51b81526020600482015260156024820152744d6174683a206d756c446976206f766572666c6f7760581b604482015260640161011d565b60008486880960026001871981018816978890046003810283188082028403028082028403028082028403028082028403028082028403029081029092039091026000889003889004909101858311909403939093029303949094049190911702949350505050565b6040518060600160405280611ae1611bec565b8152602001611aee611bec565b8152602001611afb611bec565b905290565b604080516101208101909152606060e0820181815261010083019190915281908152602001611b42604051806040016040528060608152602001606081525090565b8152602001611b64604051806040016040528060608152602001606081525090565b8152602001611b86604051806040016040528060608152602001606081525090565b8152602001611ba8604051806040016040528060608152602001606081525090565b8152602001611bca604051806040016040528060608152602001606081525090565b8152602001611afb604051806040016040528060608152602001606081525090565b604051806040016040528060008152602001600081525090565b6001600160a01b0381168114611c1b57600080fd5b50565b8035611c2981611c06565b919050565b8015158114611c1b57600080fd5b8035611c2981611c2e565b634e487b7160e01b600052604160045260246000fd5b60405161010081016001600160401b0381118282101715611c8057611c80611c47565b60405290565b604051606081016001600160401b0381118282101715611c8057611c80611c47565b60405161012081016001600160401b0381118282101715611c8057611c80611c47565b604051601f8201601f191681016001600160401b0381118282101715611cf357611cf3611c47565b604052919050565b600082601f830112611d0c57600080fd5b81356001600160401b03811115611d2557611d25611c47565b8060051b611d3560208201611ccb565b91825260208185018101929081019086841115611d5157600080fd5b6020860192505b8383101561186f578235825260209283019290910190611d58565b60008060008060808587031215611d8957600080fd5b8435611d9481611c06565b93506020850135611da481611c06565b92506040850135611db481611c2e565b915060608501356001600160401b03811115611dcf57600080fd5b611ddb87828801611cfb565b91505092959194509250565b6000610100828403128015611dfb57600080fd5b50611e04611c5d565b8235611e0f81611c06565b8152611e1d60208401611c1e565b6020820152611e2e60408401611c1e565b6040820152611e3f60608401611c1e565b6060820152611e5060808401611c1e565b6080820152611e6160a08401611c3c565b60a082015260c0838101359082015260e0928301359281019290925250919050565b60008060008060008060c08789031215611e9c57600080fd5b8635611ea781611c06565b95506020870135611eb781611c06565b94506040870135611ec781611c06565b93506060870135611ed781611c06565b92506080870135611ee781611c2e565b915060a08701356001600160401b03811115611f0257600080fd5b611f0e89828a01611cfb565b9150509295509295509295565b6040808252835190820181905260009060208501906060840190835b81811015611f55578351835260209384019390920191600101611f37565b5050602093909301939093525092915050565b6001600160a01b03929092168252602082015260400190565b600060208284031215611f9357600080fd5b604051602081016001600160401b0381118282101715611fb557611fb5611c47565b80604052508091508251611fc881611c2e565b905292915050565b60008183036101a081128015611fe557600080fd5b506000611ff0611c86565b6060831215611ffd578182fd5b612005611c86565b855161201081611c06565b8152602086015161202081611c06565b6020820152604086015161203381611c06565b60408201528152610120605f198401121561204c578182fd5b612054611ca8565b606086810151825260808088015160208085019190915260a0808a0151604086015260c0808b01519486019490945260e0808b015193860193909352610100808b0151918601919091526101208a01519385019390935261014089015191840191909152610160880151918301829052830182905290935091506120dc866101808701611f81565b604082015295945050505050565b634e487b7160e01b600052602160045260246000fd5b60006020828403121561211257600080fd5b5051919050565b6001600160a01b03169052565b600081518084526020840193506020830160005b828110156121615781516001600160a01b031686526020958601959091019060010161213a565b5093949350505050565b6008811061217b5761217b6120ea565b9052565b6003811061217b5761217b6120ea565b61219a82825161216b565b60208101516121ac602084018261217f565b5060408101516040830152606081015160608301526080810151608083015260a081015160a083015260c081015160c083015260e081015160e08301526101008101516101008301526101208101516101208301525050565b80516101c080845281516001600160a01b0390811691850191909152602082015181166101e0850152604082015116610200840152606081015160009190612251610220860182612119565b506080810151612265610240860182612119565b5060a0810151612279610260860182612119565b5060c0015160e06102808501526122946102a0850182612126565b905060208301516122a8602086018261218f565b5060408381015180511515610160870152602081015115156101808701529081015115156101a0860152509392505050565b60018060a01b0384168152826020820152606060408201526000610b9f6060830184612205565b60006020828403121561231357600080fd5b815161070f81611c2e565b634e487b7160e01b600052603260045260246000fd5b60006020828403121561234657600080fd5b815161070f81611c06565b6000608082840312801561236457600080fd5b50604051608081016001600160401b038111828210171561238757612387611c47565b604052825161239581611c06565b815260208301516123a581611c06565b602082015260408301516123b881611c06565b604082015260608301516123cb81611c06565b60608201529392505050565b6001600160a01b0391909116815260200190565b600060408284031280156123fe57600080fd5b50604080519081016001600160401b038111828210171561242157612421611c47565b604052825181526020928301519281019290925250919050565b6000815180845260005b8181101561246157602081850181015186830182015201612445565b506000602082860101526020601f19601f83011685010191505092915050565b600082825180855260208501945060208160051b8301016020850160005b8381101561252857601f1985840301885281518051604085526124c5604086018261243b565b6020928301518682038785015280518083529084019360009350909101905b8083101561250f5783516001600160a01b0316825260209384019360019390930192909101906124e4565b5060209a8b019a9095509390930192505060010161249f565b50909695505050505050565b60006040830182516040855281815180845260608701915060608160051b880101935060208301925060005b818110156125ae57605f198886030183528351805160408752612586604088018261243b565b6020928301516001600160a01b03169783019790975250938401939290920191600101612560565b5050505060208301518482036020860152610b9f8282612481565b600082825180855260208501945060208160051b8301016020850160005b8381101561252857601f19858403018852815180516040855261260d604086018261243b565b6020928301518682038785015280518083529084019360009350909101905b8083101561264f578351825260208201915060208401935060018301925061262c565b5060209a8b019a909550939093019250506001016125e7565b60006040830182516040855281815180845260608701915060608160051b880101935060208301925060005b818110156126d957605f1988860301835283518051604087526126ba604088018261243b565b6020928301519783019790975250938401939290920191600101612694565b5050505060208301518482036020860152610b9f82826125c9565b60006040830182516040855281815180845260608701915060608160051b880101935060208301925060005b818110156126d957605f198886030183528351805160408752612746604088018261243b565b6020928301519783019790975250938401939290920191600101612720565b600082825180855260208501945060208160051b8301016020850160005b8381101561252857601f1985840301885281518051604085526127a9604086018261243b565b6020928301518682038785015280518083529084019360009350909101905b808310156127ed578351151582526020820191506020840193506001830192506127c8565b5060209a8b019a90955093909301925050600101612783565b60006040830182516040855281815180845260608701915060608160051b880101935060208301925060005b8181101561287957605f198886030183528351805160408752612858604088018261243b565b60209283015115159783019790975250938401939290920191600101612832565b5050505060208301518482036020860152610b9f8282612765565b600082825180855260208501945060208160051b8301016020850160005b8381101561252857601f1985840301885281518051604085526128d8604086018261243b565b6020928301518682038785015280518083529084019391925081830191600582901b84010160005b8281101561293157601f1985830301845261291c82875161243b565b60209687019694909401939150600101612900565b5080975050505050506020820191506020880197506001810190506128b2565b60006040830182516040855281815180845260608701915060608160051b880101935060208301925060005b818110156129d557605f1988860301835283518051604087526129a3604088018261243b565b90506020820151915086810360208801526129be818361243b565b96505050602093840193929092019160010161297d565b5050505060208301518482036020860152610b9f8282612894565b60006040830182516040855281815180845260608701915060608160051b880101935060208301925060005b818110156129d557605f198886030183528351805160408752612a42604088018261243b565b9050602082015191508681036020880152612a5d818361243b565b965050506020938401939290920191600101612a1c565b60608152600f60608201526e10591b14dd185d19555c19185d1959608a1b608082015282602082015260a060408201526000825160e060a0840152612abd610180840182612534565b90506020840151609f198483030160c0850152612ada8282612668565b9150506040840151609f198483030160e0850152612af882826126f4565b9150506060840151609f1984830301610100850152612b178282612806565b9150506080840151609f1984830301610120850152612b3682826126f4565b91505060a0840151609f1984830301610140850152612b558282612951565b91505060c0840151609f198483030161016085015261186f82826129f0565b634e487b7160e01b600052601160045260246000fd5b80820281158282048414176107d6576107d6612b74565b8181036000831280158383131683831282161715612bc157612bc1612b74565b5092915050565b6000600160ff1b8201612bdd57612bdd612b74565b5060000390565b634e487b7160e01b600052601260045260246000fd5b600082612c1757634e487b7160e01b600052601260045260246000fd5b500490565b808201808211156107d6576107d6612b7456fea26469706673582212200cd2753479813171dcca8745a8a011a5bfd0c5884e95db8621d9491227f9991f64736f6c634300081a0033",
  "linkReferences": {
    "contracts/market/MarketStoreUtils.sol": {
      "MarketStoreUtils": [
        {
          "length": 20,
          "start": 2335
        }
      ]
    },
    "contracts/order/OrderEventUtils.sol": {
      "OrderEventUtils": [
        {
          "length": 20,
          "start": 1386
        }
      ]
    },
    "contracts/order/OrderStoreUtils.sol": {
      "OrderStoreUtils": [
        {
          "length": 20,
          "start": 1277
        }
      ]
    },
    "contracts/position/PositionStoreUtils.sol": {
      "PositionStoreUtils": [
        {
          "length": 20,
          "start": 485
        }
      ]
    }
  },
  "deployedLinkReferences": {
    "contracts/market/MarketStoreUtils.sol": {
      "MarketStoreUtils": [
        {
          "length": 20,
          "start": 2278
        }
      ]
    },
    "contracts/order/OrderEventUtils.sol": {
      "OrderEventUtils": [
        {
          "length": 20,
          "start": 1329
        }
      ]
    },
    "contracts/order/OrderStoreUtils.sol": {
      "OrderStoreUtils": [
        {
          "length": 20,
          "start": 1220
        }
      ]
    },
    "contracts/position/PositionStoreUtils.sol": {
      "PositionStoreUtils": [
        {
          "length": 20,
          "start": 428
        }
      ]
    }
  }
}