{
  "address": "0x525C7063E7C20997BaaE9bDa922159152D0e8417",
  "abi": [
    {
      "inputs": [
        {
          "internalType": "string",
          "name": "name",
          "type": "string"
        },
        {
          "internalType": "string",
          "name": "symbol",
          "type": "string"
        },
        {
          "internalType": "uint8",
          "name": "decimals",
          "type": "uint8"
        },
        {
          "internalType": "uint256",
          "name": "itemId",
          "type": "uint256"
        },
        {
          "internalType": "address",
          "name": "adminSigner",
          "type": "address"
        },
        {
          "internalType": "uint256",
          "name": "maxSupply",
          "type": "uint256"
        }
      ],
      "stateMutability": "nonpayable",
      "type": "constructor"
    },
    {
      "anonymous": false,
      "inputs": [
        {
          "indexed": true,
          "internalType": "address",
          "name": "owner",
          "type": "address"
        },
        {
          "indexed": true,
          "internalType": "address",
          "name": "spender",
          "type": "address"
        },
        {
          "indexed": false,
          "internalType": "uint256",
          "name": "value",
          "type": "uint256"
        }
      ],
      "name": "Approval",
      "type": "event"
    },
    {
      "anonymous": false,
      "inputs": [
        {
          "indexed": true,
          "internalType": "address",
          "name": "previousOwner",
          "type": "address"
        },
        {
          "indexed": true,
          "internalType": "address",
          "name": "newOwner",
          "type": "address"
        }
      ],
      "name": "OwnershipTransferred",
      "type": "event"
    },
    {
      "anonymous": false,
      "inputs": [
        {
          "indexed": true,
          "internalType": "address",
          "name": "from",
          "type": "address"
        },
        {
          "indexed": true,
          "internalType": "address",
          "name": "to",
          "type": "address"
        },
        {
          "indexed": false,
          "internalType": "uint256",
          "name": "value",
          "type": "uint256"
        }
      ],
      "name": "Transfer",
      "type": "event"
    },
    {
      "inputs": [],
      "name": "_maxSupply",
      "outputs": [
        {
          "internalType": "uint256",
          "name": "",
          "type": "uint256"
        }
      ],
      "stateMutability": "view",
      "type": "function"
    },
    {
      "inputs": [
        {
          "internalType": "address",
          "name": "owner",
          "type": "address"
        },
        {
          "internalType": "address",
          "name": "spender",
          "type": "address"
        }
      ],
      "name": "allowance",
      "outputs": [
        {
          "internalType": "uint256",
          "name": "",
          "type": "uint256"
        }
      ],
      "stateMutability": "view",
      "type": "function"
    },
    {
      "inputs": [
        {
          "internalType": "address",
          "name": "spender",
          "type": "address"
        },
        {
          "internalType": "uint256",
          "name": "amount",
          "type": "uint256"
        }
      ],
      "name": "approve",
      "outputs": [
        {
          "internalType": "bool",
          "name": "",
          "type": "bool"
        }
      ],
      "stateMutability": "nonpayable",
      "type": "function"
    },
    {
      "inputs": [
        {
          "internalType": "address",
          "name": "account",
          "type": "address"
        }
      ],
      "name": "balanceOf",
      "outputs": [
        {
          "internalType": "uint256",
          "name": "",
          "type": "uint256"
        }
      ],
      "stateMutability": "view",
      "type": "function"
    },
    {
      "inputs": [
        {
          "internalType": "uint256",
          "name": "amount",
          "type": "uint256"
        }
      ],
      "name": "burn",
      "outputs": [],
      "stateMutability": "nonpayable",
      "type": "function"
    },
    {
      "inputs": [
        {
          "internalType": "address",
          "name": "",
          "type": "address"
        }
      ],
      "name": "claimSequence",
      "outputs": [
        {
          "internalType": "uint256",
          "name": "",
          "type": "uint256"
        }
      ],
      "stateMutability": "view",
      "type": "function"
    },
    {
      "inputs": [],
      "name": "decimals",
      "outputs": [
        {
          "internalType": "uint8",
          "name": "",
          "type": "uint8"
        }
      ],
      "stateMutability": "view",
      "type": "function"
    },
    {
      "inputs": [
        {
          "internalType": "address",
          "name": "spender",
          "type": "address"
        },
        {
          "internalType": "uint256",
          "name": "subtractedValue",
          "type": "uint256"
        }
      ],
      "name": "decreaseAllowance",
      "outputs": [
        {
          "internalType": "bool",
          "name": "",
          "type": "bool"
        }
      ],
      "stateMutability": "nonpayable",
      "type": "function"
    },
    {
      "inputs": [
        {
          "internalType": "address",
          "name": "spender",
          "type": "address"
        },
        {
          "internalType": "uint256",
          "name": "addedValue",
          "type": "uint256"
        }
      ],
      "name": "increaseAllowance",
      "outputs": [
        {
          "internalType": "bool",
          "name": "",
          "type": "bool"
        }
      ],
      "stateMutability": "nonpayable",
      "type": "function"
    },
    {
      "inputs": [
        {
          "internalType": "uint256",
          "name": "amount",
          "type": "uint256"
        },
        {
          "internalType": "uint256",
          "name": "userId",
          "type": "uint256"
        },
        {
          "internalType": "uint256",
          "name": "itemId",
          "type": "uint256"
        },
        {
          "internalType": "uint256",
          "name": "claimSequenceNumber",
          "type": "uint256"
        },
        {
          "internalType": "bytes",
          "name": "signature",
          "type": "bytes"
        }
      ],
      "name": "mint",
      "outputs": [],
      "stateMutability": "nonpayable",
      "type": "function"
    },
    {
      "inputs": [],
      "name": "name",
      "outputs": [
        {
          "internalType": "string",
          "name": "",
          "type": "string"
        }
      ],
      "stateMutability": "view",
      "type": "function"
    },
    {
      "inputs": [],
      "name": "owner",
      "outputs": [
        {
          "internalType": "address",
          "name": "",
          "type": "address"
        }
      ],
      "stateMutability": "view",
      "type": "function"
    },
    {
      "inputs": [
        {
          "internalType": "address",
          "name": "account",
          "type": "address"
        },
        {
          "internalType": "uint256",
          "name": "amount",
          "type": "uint256"
        }
      ],
      "name": "ownerBurn",
      "outputs": [],
      "stateMutability": "nonpayable",
      "type": "function"
    },
    {
      "inputs": [
        {
          "internalType": "address",
          "name": "to",
          "type": "address"
        },
        {
          "internalType": "uint256",
          "name": "amount",
          "type": "uint256"
        }
      ],
      "name": "ownerMint",
      "outputs": [],
      "stateMutability": "nonpayable",
      "type": "function"
    },
    {
      "inputs": [],
      "name": "renounceOwnership",
      "outputs": [],
      "stateMutability": "nonpayable",
      "type": "function"
    },
    {
      "inputs": [
        {
          "internalType": "address",
          "name": "signer",
          "type": "address"
        }
      ],
      "name": "setAdminSigner",
      "outputs": [],
      "stateMutability": "nonpayable",
      "type": "function"
    },
    {
      "inputs": [
        {
          "internalType": "uint256",
          "name": "itemId",
          "type": "uint256"
        }
      ],
      "name": "setItemId",
      "outputs": [],
      "stateMutability": "nonpayable",
      "type": "function"
    },
    {
      "inputs": [],
      "name": "symbol",
      "outputs": [
        {
          "internalType": "string",
          "name": "",
          "type": "string"
        }
      ],
      "stateMutability": "view",
      "type": "function"
    },
    {
      "inputs": [],
      "name": "totalSupply",
      "outputs": [
        {
          "internalType": "uint256",
          "name": "",
          "type": "uint256"
        }
      ],
      "stateMutability": "view",
      "type": "function"
    },
    {
      "inputs": [
        {
          "internalType": "address",
          "name": "to",
          "type": "address"
        },
        {
          "internalType": "uint256",
          "name": "amount",
          "type": "uint256"
        }
      ],
      "name": "transfer",
      "outputs": [
        {
          "internalType": "bool",
          "name": "",
          "type": "bool"
        }
      ],
      "stateMutability": "nonpayable",
      "type": "function"
    },
    {
      "inputs": [
        {
          "internalType": "address",
          "name": "from",
          "type": "address"
        },
        {
          "internalType": "address",
          "name": "to",
          "type": "address"
        },
        {
          "internalType": "uint256",
          "name": "amount",
          "type": "uint256"
        }
      ],
      "name": "transferFrom",
      "outputs": [
        {
          "internalType": "bool",
          "name": "",
          "type": "bool"
        }
      ],
      "stateMutability": "nonpayable",
      "type": "function"
    },
    {
      "inputs": [
        {
          "internalType": "address",
          "name": "newOwner",
          "type": "address"
        }
      ],
      "name": "transferOwnership",
      "outputs": [],
      "stateMutability": "nonpayable",
      "type": "function"
    }
  ],
  "transactionHash": "0x54316ce016a2cb4d0a76af9048b31bdd99dc95e57c0737e347c8feb4506e1ae8",
  "args": [
    "FUNUSDC",
    "FUNUSDC",
    18,
    5,
    "0xf39Fd6e51aad88F6F4ce6aB8827279cffFb92266",
    "115792089237316195423570985008687907853269984665640564039457584007913129639935"
  ],
  "numDeployments": 1,
  "solcInputHash": "8633b2d940dff39d9f0bc82edfe9534a",
  "bytecode": "0x608060405234801561001057600080fd5b5060405161172238038061172283398101604081905261002f916101c0565b8585600361003d8382610301565b50600461004a8282610301565b50505061006361005e6100b160201b60201c565b6100b5565b6005805460ff909516600160a01b0260ff60a01b1990951694909417909355600680546001600160a01b039092166001600160a01b0319909216919091179055600755600855506103bf9050565b3390565b600580546001600160a01b038381166001600160a01b0319831681179093556040519116919082907f8be0079c531659141344cd1fd0a4f28419497f9722a3daafe3b4186f6b6457e090600090a35050565b634e487b7160e01b600052604160045260246000fd5b600082601f83011261012e57600080fd5b81516001600160401b0381111561014757610147610107565b604051601f8201601f19908116603f011681016001600160401b038111828210171561017557610175610107565b60405281815283820160200185101561018d57600080fd5b60005b828110156101ac57602081860181015183830182015201610190565b506000918101602001919091529392505050565b60008060008060008060c087890312156101d957600080fd5b86516001600160401b038111156101ef57600080fd5b6101fb89828a0161011d565b602089015190975090506001600160401b0381111561021957600080fd5b61022589828a0161011d565b955050604087015160ff8116811461023c57600080fd5b6060880151608089015191955093506001600160a01b038116811461026057600080fd5b60a09790970151959894975092959194919391925050565b600181811c9082168061028c57607f821691505b6020821081036102ac57634e487b7160e01b600052602260045260246000fd5b50919050565b601f8211156102fc57806000526020600020601f840160051c810160208510156102d95750805b601f840160051c820191505b818110156102f957600081556001016102e5565b50505b505050565b81516001600160401b0381111561031a5761031a610107565b61032e816103288454610278565b846102b2565b6020601f821160018114610362576000831561034a5750848201515b600019600385901b1c1916600184901b1784556102f9565b600084815260208120601f198516915b828110156103925787850151825560209485019460019092019101610372565b50848210156103b05786840151600019600387901b60f8161c191681555b50505050600190811b01905550565b611354806103ce6000396000f3fe608060405234801561001057600080fd5b50600436106101125760003560e01c806306fdde0314610117578063095ea7b31461013557806318160ddd14610158578063183bbe801461016a57806322f4596f1461017f57806323b872dd14610188578063313ce5671461019b57806339509351146101aa57806342966c68146101bd578063484b973c146101d057806370a08231146101e3578063715018a61461020c5780638da5cb5b1461021457806395d89b4114610234578063a457c2d71461023c578063a9059cbb1461024f578063c000178614610262578063dd62ed3e14610275578063e45c475e14610288578063f2fde38b146102a8578063f8ea8f16146102bb578063fe692342146102ce575b600080fd5b61011f6102e1565b60405161012c9190611068565b60405180910390f35b6101486101433660046110d2565b610373565b604051901515815260200161012c565b6002545b60405190815260200161012c565b61017d6101783660046110fc565b61038d565b005b61015c60085481565b61014861019636600461111e565b6103b7565b6040516012815260200161012c565b6101486101b83660046110d2565b6103db565b61017d6101cb36600461115b565b6103fd565b61017d6101de3660046110d2565b61040a565b61015c6101f13660046110fc565b6001600160a01b031660009081526020819052604090205490565b61017d61045e565b61021c610472565b6040516001600160a01b03909116815260200161012c565b61011f610481565b61014861024a3660046110d2565b610490565b61014861025d3660046110d2565b61050b565b61017d6102703660046110d2565b610519565b61015c610283366004611174565b61052b565b61015c6102963660046110fc565b60096020526000908152604090205481565b61017d6102b63660046110fc565b610556565b61017d6102c93660046111a7565b6105cc565b61017d6102dc36600461115b565b61084c565b6060600380546102f090611240565b80601f016020809104026020016040519081016040528092919081815260200182805461031c90611240565b80156103695780601f1061033e57610100808354040283529160200191610369565b820191906000526020600020905b81548152906001019060200180831161034c57829003601f168201915b5050505050905090565b600033610381818585610859565b60019150505b92915050565b61039561097e565b600680546001600160a01b0319166001600160a01b0392909216919091179055565b6000336103c58582856109dd565b6103d0858585610a57565b506001949350505050565b6000336103818185856103ee838361052b565b6103f89190611290565b610859565b6104073382610be9565b50565b61041261097e565b6008548161041f60025490565b6104299190611290565b11156104505760405162461bcd60e51b8152600401610447906112a3565b60405180910390fd5b61045a8282610d01565b5050565b61046661097e565b6104706000610dae565b565b6005546001600160a01b031690565b6060600480546102f090611240565b6000338161049e828661052b565b9050838110156104fe5760405162461bcd60e51b815260206004820152602560248201527f45524332303a2064656372656173656420616c6c6f77616e63652062656c6f77604482015264207a65726f60d81b6064820152608401610447565b6103d08286868403610859565b600033610381818585610a57565b61052161097e565b61045a8282610be9565b6001600160a01b03918216600090815260016020908152604080832093909416825291909152205490565b61055e61097e565b6001600160a01b0381166105c35760405162461bcd60e51b815260206004820152602660248201527f4f776e61626c653a206e6577206f776e657220697320746865207a65726f206160448201526564647265737360d01b6064820152608401610447565b61040781610dae565b600854866105d960025490565b6105e39190611290565b11156106015760405162461bcd60e51b8152600401610447906112a3565b600086116106515760405162461bcd60e51b815260206004820181905260248201527f416d6f756e74206d7573742062652067726561746572207468616e207a65726f6044820152606401610447565b3360009081526009602052604090205461066c906001611290565b83146106b15760405162461bcd60e51b815260206004820152601460248201527324b73b30b634b21031b630b4b690373ab6b132b960611b6044820152606401610447565b60075484146106fc5760405162461bcd60e51b815260206004820152601760248201527621b0b73737ba1031b630b4b6903a3434b9903a37b5b2b760491b6044820152606401610447565b6040516001600160601b03193360601b166020820152603481018590526054810186905260748101849052609481018790526000906107809060b401604051602081830303815290604052805190602001207b0ca2ba3432b932bab69029b4b3b732b21026b2b9b9b0b3b29d05199960211b6000908152601c91909152603c902090565b905060006107c48285858080601f016020809104026020016040519081016040528093929190818152602001838380828437600092019190915250610e0092505050565b6006549091506001600160a01b038083169116146108185760405162461bcd60e51b8152602060048201526011602482015270496e76616c6964207369676e617475726560781b6044820152606401610447565b336000908152600960205260408120805491610833836112cf565b91905055506108423389610d01565b5050505050505050565b61085461097e565b600755565b6001600160a01b0383166108bb5760405162461bcd60e51b8152602060048201526024808201527f45524332303a20617070726f76652066726f6d20746865207a65726f206164646044820152637265737360e01b6064820152608401610447565b6001600160a01b03821661091c5760405162461bcd60e51b815260206004820152602260248201527f45524332303a20617070726f766520746f20746865207a65726f206164647265604482015261737360f01b6064820152608401610447565b6001600160a01b0383811660008181526001602090815260408083209487168084529482529182902085905590518481527f8c5be1e5ebec7d5bd14f71427d1e84f3dd0314c0f7b2291e5b200ac8c7c3b92591015b60405180910390a3505050565b33610987610472565b6001600160a01b0316146104705760405162461bcd60e51b815260206004820181905260248201527f4f776e61626c653a2063616c6c6572206973206e6f7420746865206f776e65726044820152606401610447565b60006109e9848461052b565b90506000198114610a515781811015610a445760405162461bcd60e51b815260206004820152601d60248201527f45524332303a20696e73756666696369656e7420616c6c6f77616e63650000006044820152606401610447565b610a518484848403610859565b50505050565b6001600160a01b038316610abb5760405162461bcd60e51b815260206004820152602560248201527f45524332303a207472616e736665722066726f6d20746865207a65726f206164604482015264647265737360d81b6064820152608401610447565b6001600160a01b038216610b1d5760405162461bcd60e51b815260206004820152602360248201527f45524332303a207472616e7366657220746f20746865207a65726f206164647260448201526265737360e81b6064820152608401610447565b6001600160a01b03831660009081526020819052604090205481811015610b955760405162461bcd60e51b815260206004820152602660248201527f45524332303a207472616e7366657220616d6f756e7420657863656564732062604482015265616c616e636560d01b6064820152608401610447565b6001600160a01b03848116600081815260208181526040808320878703905593871680835291849020805487019055925185815290926000805160206112ff833981519152910160405180910390a3610a51565b6001600160a01b038216610c495760405162461bcd60e51b815260206004820152602160248201527f45524332303a206275726e2066726f6d20746865207a65726f206164647265736044820152607360f81b6064820152608401610447565b6001600160a01b03821660009081526020819052604090205481811015610cbd5760405162461bcd60e51b815260206004820152602260248201527f45524332303a206275726e20616d6f756e7420657863656564732062616c616e604482015261636560f01b6064820152608401610447565b6001600160a01b0383166000818152602081815260408083208686039055600280548790039055518581529192916000805160206112ff8339815191529101610971565b6001600160a01b038216610d575760405162461bcd60e51b815260206004820152601f60248201527f45524332303a206d696e7420746f20746865207a65726f2061646472657373006044820152606401610447565b8060026000828254610d699190611290565b90915550506001600160a01b038216600081815260208181526040808320805486019055518481526000805160206112ff833981519152910160405180910390a35050565b600580546001600160a01b038381166001600160a01b0319831681179093556040519116919082907f8be0079c531659141344cd1fd0a4f28419497f9722a3daafe3b4186f6b6457e090600090a35050565b6000806000610e0f8585610e24565b91509150610e1c81610e69565b509392505050565b6000808251604103610e5a5760208301516040840151606085015160001a610e4e87828585610fae565b94509450505050610e62565b506000905060025b9250929050565b6000816004811115610e7d57610e7d6112e8565b03610e855750565b6001816004811115610e9957610e996112e8565b03610ee15760405162461bcd60e51b815260206004820152601860248201527745434453413a20696e76616c6964207369676e617475726560401b6044820152606401610447565b6002816004811115610ef557610ef56112e8565b03610f425760405162461bcd60e51b815260206004820152601f60248201527f45434453413a20696e76616c6964207369676e6174757265206c656e677468006044820152606401610447565b6003816004811115610f5657610f566112e8565b036104075760405162461bcd60e51b815260206004820152602260248201527f45434453413a20696e76616c6964207369676e6174757265202773272076616c604482015261756560f01b6064820152608401610447565b6000806fa2a8918ca85bafe22016d0b997e4df60600160ff1b03831115610fdb575060009050600361105f565b6040805160008082526020820180845289905260ff881692820192909252606081018690526080810185905260019060a0016020604051602081039080840390855afa15801561102f573d6000803e3d6000fd5b5050604051601f1901519150506001600160a01b0381166110585760006001925092505061105f565b9150600090505b94509492505050565b602081526000825180602084015260005b818110156110965760208186018101516040868401015201611079565b506000604082850101526040601f19601f83011684010191505092915050565b80356001600160a01b03811681146110cd57600080fd5b919050565b600080604083850312156110e557600080fd5b6110ee836110b6565b946020939093013593505050565b60006020828403121561110e57600080fd5b611117826110b6565b9392505050565b60008060006060848603121561113357600080fd5b61113c846110b6565b925061114a602085016110b6565b929592945050506040919091013590565b60006020828403121561116d57600080fd5b5035919050565b6000806040838503121561118757600080fd5b611190836110b6565b915061119e602084016110b6565b90509250929050565b60008060008060008060a087890312156111c057600080fd5b8635955060208701359450604087013593506060870135925060808701356001600160401b038111156111f257600080fd5b8701601f8101891361120357600080fd5b80356001600160401b0381111561121957600080fd5b89602082840101111561122b57600080fd5b60208201935080925050509295509295509295565b600181811c9082168061125457607f821691505b60208210810361127457634e487b7160e01b600052602260045260246000fd5b50919050565b634e487b7160e01b600052601160045260246000fd5b808201808211156103875761038761127a565b60208082526012908201527113585e081cdd5c1c1b1e481c995858da195960721b604082015260600190565b6000600182016112e1576112e161127a565b5060010190565b634e487b7160e01b600052602160045260246000fdfeddf252ad1be2c89b69c2b068fc378daa952ba7f163c4a11628f55a4df523b3efa26469706673582212205ad50ef979aeafd2fa2ed6276750ad0c279765f84b92fa2c592fbca594c415c164736f6c634300081a0033",
  "devdoc": {
    "events": {
      "Approval(address,address,uint256)": {
        "details": "Emitted when the allowance of a `spender` for an `owner` is set by a call to {approve}. `value` is the new allowance."
      },
      "Transfer(address,address,uint256)": {
        "details": "Emitted when `value` tokens are moved from one account (`from`) to another (`to`). Note that `value` may be zero."
      }
    },
    "kind": "dev",
    "methods": {
      "allowance(address,address)": {
        "details": "See {IERC20-allowance}."
      },
      "approve(address,uint256)": {
        "details": "See {IERC20-approve}. NOTE: If `amount` is the maximum `uint256`, the allowance is not updated on `transferFrom`. This is semantically equivalent to an infinite approval. Requirements: - `spender` cannot be the zero address."
      },
      "balanceOf(address)": {
        "details": "See {IERC20-balanceOf}."
      },
      "decimals()": {
        "details": "Returns the number of decimals used to get its user representation. For example, if `decimals` equals `2`, a balance of `505` tokens should be displayed to a user as `5.05` (`505 / 10 ** 2`). Tokens usually opt for a value of 18, imitating the relationship between Ether and Wei. This is the default value returned by this function, unless it's overridden. NOTE: This information is only used for _display_ purposes: it in no way affects any of the arithmetic of the contract, including {IERC20-balanceOf} and {IERC20-transfer}."
      },
      "decreaseAllowance(address,uint256)": {
        "details": "Atomically decreases the allowance granted to `spender` by the caller. This is an alternative to {approve} that can be used as a mitigation for problems described in {IERC20-approve}. Emits an {Approval} event indicating the updated allowance. Requirements: - `spender` cannot be the zero address. - `spender` must have allowance for the caller of at least `subtractedValue`."
      },
      "increaseAllowance(address,uint256)": {
        "details": "Atomically increases the allowance granted to `spender` by the caller. This is an alternative to {approve} that can be used as a mitigation for problems described in {IERC20-approve}. Emits an {Approval} event indicating the updated allowance. Requirements: - `spender` cannot be the zero address."
      },
      "name()": {
        "details": "Returns the name of the token."
      },
      "owner()": {
        "details": "Returns the address of the current owner."
      },
      "renounceOwnership()": {
        "details": "Leaves the contract without owner. It will not be possible to call `onlyOwner` functions. Can only be called by the current owner. NOTE: Renouncing ownership will leave the contract without an owner, thereby disabling any functionality that is only available to the owner."
      },
      "symbol()": {
        "details": "Returns the symbol of the token, usually a shorter version of the name."
      },
      "totalSupply()": {
        "details": "See {IERC20-totalSupply}."
      },
      "transfer(address,uint256)": {
        "details": "See {IERC20-transfer}. Requirements: - `to` cannot be the zero address. - the caller must have a balance of at least `amount`."
      },
      "transferFrom(address,address,uint256)": {
        "details": "See {IERC20-transferFrom}. Emits an {Approval} event indicating the updated allowance. This is not required by the EIP. See the note at the beginning of {ERC20}. NOTE: Does not update the allowance if the current allowance is the maximum `uint256`. Requirements: - `from` and `to` cannot be the zero address. - `from` must have a balance of at least `amount`. - the caller must have allowance for ``from``'s tokens of at least `amount`."
      },
      "transferOwnership(address)": {
        "details": "Transfers ownership of the contract to a new account (`newOwner`). Can only be called by the current owner."
      }
    },
    "version": 1
  },
  "userdoc": {
    "kind": "user",
    "methods": {},
    "version": 1
  },
  "storageLayout": {
    "storage": [
      {
        "astId": 1633,
        "contract": "contracts/tokens/FunToken.sol:FunToken",
        "label": "_balances",
        "offset": 0,
        "slot": "0",
        "type": "t_mapping(t_address,t_uint256)"
      },
      {
        "astId": 1639,
        "contract": "contracts/tokens/FunToken.sol:FunToken",
        "label": "_allowances",
        "offset": 0,
        "slot": "1",
        "type": "t_mapping(t_address,t_mapping(t_address,t_uint256))"
      },
      {
        "astId": 1641,
        "contract": "contracts/tokens/FunToken.sol:FunToken",
        "label": "_totalSupply",
        "offset": 0,
        "slot": "2",
        "type": "t_uint256"
      },
      {
        "astId": 1643,
        "contract": "contracts/tokens/FunToken.sol:FunToken",
        "label": "_name",
        "offset": 0,
        "slot": "3",
        "type": "t_string_storage"
      },
      {
        "astId": 1645,
        "contract": "contracts/tokens/FunToken.sol:FunToken",
        "label": "_symbol",
        "offset": 0,
        "slot": "4",
        "type": "t_string_storage"
      },
      {
        "astId": 396,
        "contract": "contracts/tokens/FunToken.sol:FunToken",
        "label": "_owner",
        "offset": 0,
        "slot": "5",
        "type": "t_address"
      },
      {
        "astId": 73137,
        "contract": "contracts/tokens/FunToken.sol:FunToken",
        "label": "_decimals",
        "offset": 20,
        "slot": "5",
        "type": "t_uint8"
      },
      {
        "astId": 73139,
        "contract": "contracts/tokens/FunToken.sol:FunToken",
        "label": "_adminSigner",
        "offset": 0,
        "slot": "6",
        "type": "t_address"
      },
      {
        "astId": 73141,
        "contract": "contracts/tokens/FunToken.sol:FunToken",
        "label": "_itemId",
        "offset": 0,
        "slot": "7",
        "type": "t_uint256"
      },
      {
        "astId": 73143,
        "contract": "contracts/tokens/FunToken.sol:FunToken",
        "label": "_maxSupply",
        "offset": 0,
        "slot": "8",
        "type": "t_uint256"
      },
      {
        "astId": 73147,
        "contract": "contracts/tokens/FunToken.sol:FunToken",
        "label": "claimSequence",
        "offset": 0,
        "slot": "9",
        "type": "t_mapping(t_address,t_uint256)"
      }
    ],
    "types": {
      "t_address": {
        "encoding": "inplace",
        "label": "address",
        "numberOfBytes": "20"
      },
      "t_mapping(t_address,t_mapping(t_address,t_uint256))": {
        "encoding": "mapping",
        "key": "t_address",
        "label": "mapping(address => mapping(address => uint256))",
        "numberOfBytes": "32",
        "value": "t_mapping(t_address,t_uint256)"
      },
      "t_mapping(t_address,t_uint256)": {
        "encoding": "mapping",
        "key": "t_address",
        "label": "mapping(address => uint256)",
        "numberOfBytes": "32",
        "value": "t_uint256"
      },
      "t_string_storage": {
        "encoding": "bytes",
        "label": "string",
        "numberOfBytes": "32"
      },
      "t_uint256": {
        "encoding": "inplace",
        "label": "uint256",
        "numberOfBytes": "32"
      },
      "t_uint8": {
        "encoding": "inplace",
        "label": "uint8",
        "numberOfBytes": "1"
      }
    }
  }
}