{
  "address": "0xC66AB83418C20A65C3f8e83B3d11c8C3a6097b6F",
  "abi": [
    {
      "inputs": [],
      "name": "answer",
      "outputs": [
        {
          "internalType": "int256",
          "name": "",
          "type": "int256"
        }
      ],
      "stateMutability": "view",
      "type": "function"
    },
    {
      "inputs": [],
      "name": "latestAnswer",
      "outputs": [
        {
          "internalType": "int256",
          "name": "",
          "type": "int256"
        }
      ],
      "stateMutability": "view",
      "type": "function"
    },
    {
      "inputs": [],
      "name": "latestRoundData",
      "outputs": [
        {
          "internalType": "uint80",
          "name": "",
          "type": "uint80"
        },
        {
          "internalType": "int256",
          "name": "",
          "type": "int256"
        },
        {
          "internalType": "uint256",
          "name": "",
          "type": "uint256"
        },
        {
          "internalType": "uint256",
          "name": "",
          "type": "uint256"
        },
        {
          "internalType": "uint80",
          "name": "",
          "type": "uint80"
        }
      ],
      "stateMutability": "view",
      "type": "function"
    },
    {
      "inputs": [
        {
          "internalType": "int256",
          "name": "_answer",
          "type": "int256"
        }
      ],
      "name": "setAnswer",
      "outputs": [],
      "stateMutability": "nonpayable",
      "type": "function"
    }
  ],
  "transactionHash": "0x1a19ef6de7d5e7e9b333dbd743546c42f322064eda0c8bcc9179fcc7e06b0ac5",
  "args": [],
  "numDeployments": 1,
  "solcInputHash": "8633b2d940dff39d9f0bc82edfe9534a",
  "bytecode": "0x6080604052348015600f57600080fd5b506101658061001f6000396000f3fe608060405234801561001057600080fd5b506004361061004c5760003560e01c806350d25bcd1461005157806385bb7d691461006857806399213cd814610071578063feaf968c14610086575b600080fd5b6000545b6040519081526020015b60405180910390f35b61005560005481565b61008461007f3660046100ef565b600055565b005b61008e6100c2565b604080516001600160501b03968716815260208101959095528401929092526060830152909116608082015260a00161005f565b6000806000806000806000546000603c426100dd9190610108565b92989197509550909350600092509050565b60006020828403121561010157600080fd5b5035919050565b8181038181111561012957634e487b7160e01b600052601160045260246000fd5b9291505056fea264697066735822122006d377a59ba4db0a1df515370b4ad2f7c5fca4ce9d17fffb738ece071780869e64736f6c634300081a0033",
  "libraries": {},
  "devdoc": {
    "kind": "dev",
    "methods": {},
    "version": 1
  },
  "userdoc": {
    "kind": "user",
    "methods": {},
    "version": 1
  },
  "storageLayout": {
    "storage": [
      {
        "astId": 38955,
        "contract": "contracts/mock/MockPriceFeed.sol:MockPriceFeed",
        "label": "answer",
        "offset": 0,
        "slot": "0",
        "type": "t_int256"
      }
    ],
    "types": {
      "t_int256": {
        "encoding": "inplace",
        "label": "int256",
        "numberOfBytes": "32"
      }
    }
  }
}