{
  "address": "0xD5ac451B0c50B9476107823Af206eD814a2e2580",
  "abi": [
    {
      "inputs": [],
      "stateMutability": "nonpayable",
      "type": "constructor"
    },
    {
      "anonymous": false,
      "inputs": [
        {
          "indexed": true,
          "internalType": "address",
          "name": "owner",
          "type": "address"
        },
        {
          "indexed": true,
          "internalType": "address",
          "name": "spender",
          "type": "address"
        },
        {
          "indexed": false,
          "internalType": "uint256",
          "name": "value",
          "type": "uint256"
        }
      ],
      "name": "Approval",
      "type": "event"
    },
    {
      "anonymous": false,
      "inputs": [
        {
          "indexed": true,
          "internalType": "address",
          "name": "from",
          "type": "address"
        },
        {
          "indexed": true,
          "internalType": "address",
          "name": "to",
          "type": "address"
        },
        {
          "indexed": false,
          "internalType": "uint256",
          "name": "value",
          "type": "uint256"
        }
      ],
      "name": "Transfer",
      "type": "event"
    },
    {
      "inputs": [],
      "name": "CALLBACK_SUCCESS",
      "outputs": [
        {
          "internalType": "bytes32",
          "name": "",
          "type": "bytes32"
        }
      ],
      "stateMutability": "view",
      "type": "function"
    },
    {
      "inputs": [],
      "name": "DOMAIN_SEPARATOR",
      "outputs": [
        {
          "internalType": "bytes32",
          "name": "",
          "type": "bytes32"
        }
      ],
      "stateMutability": "view",
      "type": "function"
    },
    {
      "inputs": [],
      "name": "PERMIT_TYPEHASH",
      "outputs": [
        {
          "internalType": "bytes32",
          "name": "",
          "type": "bytes32"
        }
      ],
      "stateMutability": "view",
      "type": "function"
    },
    {
      "inputs": [
        {
          "internalType": "address",
          "name": "",
          "type": "address"
        },
        {
          "internalType": "address",
          "name": "",
          "type": "address"
        }
      ],
      "name": "allowance",
      "outputs": [
        {
          "internalType": "uint256",
          "name": "",
          "type": "uint256"
        }
      ],
      "stateMutability": "view",
      "type": "function"
    },
    {
      "inputs": [
        {
          "internalType": "address",
          "name": "spender",
          "type": "address"
        },
        {
          "internalType": "uint256",
          "name": "value",
          "type": "uint256"
        }
      ],
      "name": "approve",
      "outputs": [
        {
          "internalType": "bool",
          "name": "",
          "type": "bool"
        }
      ],
      "stateMutability": "nonpayable",
      "type": "function"
    },
    {
      "inputs": [
        {
          "internalType": "address",
          "name": "spender",
          "type": "address"
        },
        {
          "internalType": "uint256",
          "name": "value",
          "type": "uint256"
        },
        {
          "internalType": "bytes",
          "name": "data",
          "type": "bytes"
        }
      ],
      "name": "approveAndCall",
      "outputs": [
        {
          "internalType": "bool",
          "name": "",
          "type": "bool"
        }
      ],
      "stateMutability": "nonpayable",
      "type": "function"
    },
    {
      "inputs": [
        {
          "internalType": "address",
          "name": "",
          "type": "address"
        }
      ],
      "name": "balanceOf",
      "outputs": [
        {
          "internalType": "uint256",
          "name": "",
          "type": "uint256"
        }
      ],
      "stateMutability": "view",
      "type": "function"
    },
    {
      "inputs": [],
      "name": "decimals",
      "outputs": [
        {
          "internalType": "uint8",
          "name": "",
          "type": "uint8"
        }
      ],
      "stateMutability": "view",
      "type": "function"
    },
    {
      "inputs": [],
      "name": "deploymentChainId",
      "outputs": [
        {
          "internalType": "uint256",
          "name": "",
          "type": "uint256"
        }
      ],
      "stateMutability": "view",
      "type": "function"
    },
    {
      "inputs": [],
      "name": "deposit",
      "outputs": [],
      "stateMutability": "payable",
      "type": "function"
    },
    {
      "inputs": [
        {
          "internalType": "address",
          "name": "to",
          "type": "address"
        }
      ],
      "name": "depositTo",
      "outputs": [],
      "stateMutability": "payable",
      "type": "function"
    },
    {
      "inputs": [
        {
          "internalType": "address",
          "name": "to",
          "type": "address"
        },
        {
          "internalType": "bytes",
          "name": "data",
          "type": "bytes"
        }
      ],
      "name": "depositToAndCall",
      "outputs": [
        {
          "internalType": "bool",
          "name": "success",
          "type": "bool"
        }
      ],
      "stateMutability": "payable",
      "type": "function"
    },
    {
      "inputs": [
        {
          "internalType": "address",
          "name": "token",
          "type": "address"
        },
        {
          "internalType": "uint256",
          "name": "",
          "type": "uint256"
        }
      ],
      "name": "flashFee",
      "outputs": [
        {
          "internalType": "uint256",
          "name": "",
          "type": "uint256"
        }
      ],
      "stateMutability": "view",
      "type": "function"
    },
    {
      "inputs": [
        {
          "internalType": "contract IERC3156FlashBorrower",
          "name": "receiver",
          "type": "address"
        },
        {
          "internalType": "address",
          "name": "token",
          "type": "address"
        },
        {
          "internalType": "uint256",
          "name": "value",
          "type": "uint256"
        },
        {
          "internalType": "bytes",
          "name": "data",
          "type": "bytes"
        }
      ],
      "name": "flashLoan",
      "outputs": [
        {
          "internalType": "bool",
          "name": "",
          "type": "bool"
        }
      ],
      "stateMutability": "nonpayable",
      "type": "function"
    },
    {
      "inputs": [],
      "name": "flashMinted",
      "outputs": [
        {
          "internalType": "uint256",
          "name": "",
          "type": "uint256"
        }
      ],
      "stateMutability": "view",
      "type": "function"
    },
    {
      "inputs": [
        {
          "internalType": "address",
          "name": "token",
          "type": "address"
        }
      ],
      "name": "maxFlashLoan",
      "outputs": [
        {
          "internalType": "uint256",
          "name": "",
          "type": "uint256"
        }
      ],
      "stateMutability": "view",
      "type": "function"
    },
    {
      "inputs": [
        {
          "internalType": "address",
          "name": "account",
          "type": "address"
        },
        {
          "internalType": "uint256",
          "name": "amount",
          "type": "uint256"
        }
      ],
      "name": "mint",
      "outputs": [],
      "stateMutability": "nonpayable",
      "type": "function"
    },
    {
      "inputs": [],
      "name": "name",
      "outputs": [
        {
          "internalType": "string",
          "name": "",
          "type": "string"
        }
      ],
      "stateMutability": "view",
      "type": "function"
    },
    {
      "inputs": [
        {
          "internalType": "address",
          "name": "",
          "type": "address"
        }
      ],
      "name": "nonces",
      "outputs": [
        {
          "internalType": "uint256",
          "name": "",
          "type": "uint256"
        }
      ],
      "stateMutability": "view",
      "type": "function"
    },
    {
      "inputs": [
        {
          "internalType": "address",
          "name": "owner",
          "type": "address"
        },
        {
          "internalType": "address",
          "name": "spender",
          "type": "address"
        },
        {
          "internalType": "uint256",
          "name": "value",
          "type": "uint256"
        },
        {
          "internalType": "uint256",
          "name": "deadline",
          "type": "uint256"
        },
        {
          "internalType": "uint8",
          "name": "v",
          "type": "uint8"
        },
        {
          "internalType": "bytes32",
          "name": "r",
          "type": "bytes32"
        },
        {
          "internalType": "bytes32",
          "name": "s",
          "type": "bytes32"
        }
      ],
      "name": "permit",
      "outputs": [],
      "stateMutability": "nonpayable",
      "type": "function"
    },
    {
      "inputs": [],
      "name": "symbol",
      "outputs": [
        {
          "internalType": "string",
          "name": "",
          "type": "string"
        }
      ],
      "stateMutability": "view",
      "type": "function"
    },
    {
      "inputs": [],
      "name": "totalSupply",
      "outputs": [
        {
          "internalType": "uint256",
          "name": "",
          "type": "uint256"
        }
      ],
      "stateMutability": "view",
      "type": "function"
    },
    {
      "inputs": [
        {
          "internalType": "address",
          "name": "to",
          "type": "address"
        },
        {
          "internalType": "uint256",
          "name": "value",
          "type": "uint256"
        }
      ],
      "name": "transfer",
      "outputs": [
        {
          "internalType": "bool",
          "name": "",
          "type": "bool"
        }
      ],
      "stateMutability": "nonpayable",
      "type": "function"
    },
    {
      "inputs": [
        {
          "internalType": "address",
          "name": "to",
          "type": "address"
        },
        {
          "internalType": "uint256",
          "name": "value",
          "type": "uint256"
        },
        {
          "internalType": "bytes",
          "name": "data",
          "type": "bytes"
        }
      ],
      "name": "transferAndCall",
      "outputs": [
        {
          "internalType": "bool",
          "name": "",
          "type": "bool"
        }
      ],
      "stateMutability": "nonpayable",
      "type": "function"
    },
    {
      "inputs": [
        {
          "internalType": "address",
          "name": "from",
          "type": "address"
        },
        {
          "internalType": "address",
          "name": "to",
          "type": "address"
        },
        {
          "internalType": "uint256",
          "name": "value",
          "type": "uint256"
        }
      ],
      "name": "transferFrom",
      "outputs": [
        {
          "internalType": "bool",
          "name": "",
          "type": "bool"
        }
      ],
      "stateMutability": "nonpayable",
      "type": "function"
    },
    {
      "inputs": [
        {
          "internalType": "uint256",
          "name": "value",
          "type": "uint256"
        }
      ],
      "name": "withdraw",
      "outputs": [],
      "stateMutability": "nonpayable",
      "type": "function"
    },
    {
      "inputs": [
        {
          "internalType": "address",
          "name": "from",
          "type": "address"
        },
        {
          "internalType": "address payable",
          "name": "to",
          "type": "address"
        },
        {
          "internalType": "uint256",
          "name": "value",
          "type": "uint256"
        }
      ],
      "name": "withdrawFrom",
      "outputs": [],
      "stateMutability": "nonpayable",
      "type": "function"
    },
    {
      "inputs": [
        {
          "internalType": "address payable",
          "name": "to",
          "type": "address"
        },
        {
          "internalType": "uint256",
          "name": "value",
          "type": "uint256"
        }
      ],
      "name": "withdrawTo",
      "outputs": [],
      "stateMutability": "nonpayable",
      "type": "function"
    },
    {
      "stateMutability": "payable",
      "type": "receive"
    }
  ],
  "transactionHash": "0x25492e3b11505014dbec0238d059c31093b3daf6ecc27f5b9a709e92dccabc5c",
  "args": [],
  "numDeployments": 1,
  "solcInputHash": "8633b2d940dff39d9f0bc82edfe9534a",
  "bytecode": "0x6101006040527f439148f0bbc682ca079e46d6e2c2f0c1e3b820f1a291b069d8882abf8cf18dd96080527f6e71edae12b1b97f4d1f60370fef10105fa2faae0126114a169c64845d6126c960a05234801561005957600080fd5b504660c0818152604080518082018252600f81526e057726170706564204741532076313608c1b6020918201528151808301835260018152603160f81b9082015281517f8b73c3c69bb8fe3d512ecc4cf759cc79239f7b179b0ffacaa9a75d522b39400f818301527ffce1b694715e12430d9fb4c36387c0cb47d715752be5367f46cb31db02df0992818401527fc89efdaa54c0f20c7adf612882df0950f5a951637e0307cdcb4c672f298b8bc66060820152608081018590523060a080830191909152835180830390910181529301909152815191012060e0525060805160a05160c05160e05161202c61019160003960008181610ab201526117af01526000818161050501528181610a7d015261177a0152600081816102b901526116f20152600081816104160152610edd015261202c6000f3fe60806040526004361061014b5760003560e01c806306fdde03146101a1578063095ea7b3146101f257806318160ddd14610222578063205c28781461024557806323b872dd146102675780632e1a7d4d1461028757806330adf81f146102a7578063313ce567146102db5780633644e515146103025780634000aea01461031757806340c10f19146103375780635cffe9de146103575780635ddb7d7e14610377578063613255ab1461038a57806370a08231146103aa5780637ecebe00146103d75780638237e538146104045780638b28d32f146104385780639555a9421461044e57806395d89b411461046e578063a9059cbb146104a0578063b760faf9146104c0578063cae9ca51146104d3578063cd0d0096146104f3578063d0e30db014610527578063d505accf1461052f578063d9d98ce41461054f578063dd62ed3e1461056f57600080fd5b3661019c57336000908152602081905260408120805434929061016f908490611a4b565b90915550506040513481523390600090600080516020611fb78339815191529060200160405180910390a3005b600080fd5b3480156101ad57600080fd5b506101dc6040518060400160405280600f81526020016e057726170706564204741532076313608c1b81525081565b6040516101e99190611a5e565b60405180910390f35b3480156101fe57600080fd5b5061021261020d366004611ac4565b6105a7565b60405190151581526020016101e9565b34801561022e57600080fd5b50610237610602565b6040519081526020016101e9565b34801561025157600080fd5b50610265610260366004611ac4565b610617565b005b34801561027357600080fd5b50610212610282366004611af0565b610707565b34801561029357600080fd5b506102656102a2366004611b31565b61099d565b3480156102b357600080fd5b506102377f000000000000000000000000000000000000000000000000000000000000000081565b3480156102e757600080fd5b506102f0601281565b60405160ff90911681526020016101e9565b34801561030e57600080fd5b50610237610a78565b34801561032357600080fd5b50610212610332366004611b92565b610ad8565b34801561034357600080fd5b50610265610352366004611ac4565b610ce6565b34801561036357600080fd5b50610212610372366004611bed565b610d7c565b610212610385366004611c5f565b6110f6565b34801561039657600080fd5b506102376103a5366004611cb3565b6111d1565b3480156103b657600080fd5b506102376103c5366004611cb3565b60006020819052908152604090205481565b3480156103e357600080fd5b506102376103f2366004611cb3565b60016020526000908152604090205481565b34801561041057600080fd5b506102377f000000000000000000000000000000000000000000000000000000000000000081565b34801561044457600080fd5b5061023760035481565b34801561045a57600080fd5b50610265610469366004611af0565b6111fe565b34801561047a57600080fd5b506101dc6040518060400160405280600681526020016505747415331360d41b81525081565b3480156104ac57600080fd5b506102126104bb366004611ac4565b6113b0565b6102656104ce366004611cb3565b611560565b3480156104df57600080fd5b506102126104ee366004611b92565b6115bf565b3480156104ff57600080fd5b506102377f000000000000000000000000000000000000000000000000000000000000000081565b610265611640565b34801561053b57600080fd5b5061026561054a366004611cd7565b61168c565b34801561055b57600080fd5b5061023761056a366004611ac4565b61192a565b34801561057b57600080fd5b5061023761058a366004611d4e565b600260209081526000928352604080842090915290825290205481565b3360008181526002602090815260408083206001600160a01b03871680855292528083208590555191929091600080516020611fd7833981519152906105f09086815260200190565b60405180910390a35060015b92915050565b6000600354476106129190611a4b565b905090565b33600090815260208190526040902054818110156106505760405162461bcd60e51b815260040161064790611d87565b60405180910390fd5b61065a8282611dc8565b336000818152602081815260408083209490945592518581529092600080516020611fb7833981519152910160405180910390a36000836001600160a01b03168360405160006040518083038185875af1925050503d80600081146106db576040519150601f19603f3d011682016040523d82523d6000602084013e6106e0565b606091505b50509050806107015760405162461bcd60e51b815260040161064790611ddb565b50505050565b60006001600160a01b03841633146107c1576001600160a01b038416600090815260026020908152604080832033845290915290205460001981146107bf57828110156107665760405162461bcd60e51b815260040161064790611e0e565b60006107728483611dc8565b6001600160a01b03871660008181526002602090815260408083203380855290835292819020859055518481529394509092600080516020611fd7833981519152910160405180910390a3505b505b6001600160a01b038316158015906107e257506001600160a01b0383163014155b156108a8576001600160a01b038416600090815260208190526040902054828110156108205760405162461bcd60e51b815260040161064790611e45565b61082a8382611dc8565b6001600160a01b038087166000908152602081905260408082209390935590861681529081208054859290610860908490611a4b565b92505081905550836001600160a01b0316856001600160a01b0316600080516020611fb78339815191528560405161089a91815260200190565b60405180910390a350610993565b6001600160a01b038416600090815260208190526040902054828110156108e15760405162461bcd60e51b815260040161064790611d87565b6108eb8382611dc8565b6001600160a01b0386166000818152602081815260408083209490945592518681529092600080516020611fb7833981519152910160405180910390a3604051600090339085908381818185875af1925050503d806000811461096a576040519150601f19603f3d011682016040523d82523d6000602084013e61096f565b606091505b50509050806109905760405162461bcd60e51b815260040161064790611ddb565b50505b5060019392505050565b33600090815260208190526040902054818110156109cd5760405162461bcd60e51b815260040161064790611d87565b6109d78282611dc8565b336000818152602081815260408083209490945592518581529092600080516020611fb7833981519152910160405180910390a3604051600090339084908381818185875af1925050503d8060008114610a4d576040519150601f19603f3d011682016040523d82523d6000602084013e610a52565b606091505b5050905080610a735760405162461bcd60e51b815260040161064790611ddb565b505050565b6000467f00000000000000000000000000000000000000000000000000000000000000008114610ab057610aab8161195d565b610ad2565b7f00000000000000000000000000000000000000000000000000000000000000005b91505090565b60006001600160a01b03851615610b8f573360009081526020819052604090205484811015610b195760405162461bcd60e51b815260040161064790611e45565b610b238582611dc8565b33600090815260208190526040808220929092556001600160a01b03881681529081208054879290610b56908490611a4b565b90915550506040518581526001600160a01b038716903390600080516020611fb78339815191529060200160405180910390a350610c68565b3360009081526020819052604090205484811015610bbf5760405162461bcd60e51b815260040161064790611d87565b610bc98582611dc8565b336000818152602081815260408083209490945592518881529092600080516020611fb7833981519152910160405180910390a3604051600090339087908381818185875af1925050503d8060008114610c3f576040519150601f19603f3d011682016040523d82523d6000602084013e610c44565b606091505b5050905080610c655760405162461bcd60e51b815260040161064790611ddb565b50505b604051635260769b60e11b81526001600160a01b0386169063a4c0ed3690610c9a903390889088908890600401611eb3565b6020604051808303816000875af1158015610cb9573d6000803e3d6000fd5b505050506040513d601f19601f82011682018060405250810190610cdd9190611ee5565b95945050505050565b6001600160a01b038216610d3c5760405162461bcd60e51b815260206004820152601f60248201527f45524332303a206d696e7420746f20746865207a65726f2061646472657373006044820152606401610647565b6001600160a01b03821660008181526020818152604080832080548601905551848152600080516020611fb7833981519152910160405180910390a35050565b60006001600160a01b0385163014610da65760405162461bcd60e51b815260040161064790611f07565b6001600160701b03841115610e095760405162461bcd60e51b8152602060048201526024808201527f574741533a20696e646976696475616c206c6f616e206c696d697420657863656044820152631959195960e21b6064820152608401610647565b83600354610e179190611a4b565b60038190556001600160701b031015610e725760405162461bcd60e51b815260206004820152601f60248201527f574741533a20746f74616c206c6f616e206c696d6974206578636565646564006044820152606401610647565b6001600160a01b03861660009081526020819052604081208054869290610e9a908490611a4b565b90915550506040518481526001600160a01b03871690600090600080516020611fb78339815191529060200160405180910390a36040516323e30c8b60e01b81527f0000000000000000000000000000000000000000000000000000000000000000906001600160a01b038816906323e30c8b90610f2790339030908a906000908b908b90600401611f3d565b6020604051808303816000875af1158015610f46573d6000803e3d6000fd5b505050506040513d601f19601f82011682018060405250810190610f6a9190611f84565b14610fb15760405162461bcd60e51b815260206004820152601760248201527615d1d054ce88199b185cda081b1bd85b8819985a5b1959604a1b6044820152606401610647565b6001600160a01b038616600090815260026020908152604080832030845290915290205460001981146110575784811015610ffe5760405162461bcd60e51b815260040161064790611e0e565b600061100a8683611dc8565b6001600160a01b03891660008181526002602090815260408083203080855290835292819020859055518481529394509092600080516020611fd7833981519152910160405180910390a3505b6001600160a01b038716600090815260208190526040902054858110156110905760405162461bcd60e51b815260040161064790611d87565b61109a8682611dc8565b6001600160a01b0389166000818152602081815260408083209490945592518981529092600080516020611fb7833981519152910160405180910390a3856003546110e59190611dc8565b600355506001979650505050505050565b6001600160a01b038316600090815260208190526040812080543491908390611120908490611a4b565b90915550506040513481526001600160a01b03851690600090600080516020611fb78339815191529060200160405180910390a3604051635260769b60e11b81526001600160a01b0385169063a4c0ed3690611186903390349088908890600401611eb3565b6020604051808303816000875af11580156111a5573d6000803e3d6000fd5b505050506040513d601f19601f820116820180604052508101906111c99190611ee5565b949350505050565b60006001600160a01b03821630146111ea5760006105fc565b6003546105fc906001600160701b03611dc8565b6001600160a01b03831633146112b6576001600160a01b038316600090815260026020908152604080832033845290915290205460001981146112b4578181101561125b5760405162461bcd60e51b815260040161064790611e0e565b60006112678383611dc8565b6001600160a01b03861660008181526002602090815260408083203380855290835292819020859055518481529394509092600080516020611fd7833981519152910160405180910390a3505b505b6001600160a01b038316600090815260208190526040902054818110156112ef5760405162461bcd60e51b815260040161064790611d87565b6112f98282611dc8565b6001600160a01b0385166000818152602081815260408083209490945592518581529092600080516020611fb7833981519152910160405180910390a36000836001600160a01b03168360405160006040518083038185875af1925050503d8060008114611383576040519150601f19603f3d011682016040523d82523d6000602084013e611388565b606091505b50509050806113a95760405162461bcd60e51b815260040161064790611ddb565b5050505050565b60006001600160a01b038316158015906113d357506001600160a01b0383163014155b1561147e5733600090815260208190526040902054828110156114085760405162461bcd60e51b815260040161064790611e45565b6114128382611dc8565b33600090815260208190526040808220929092556001600160a01b03861681529081208054859290611445908490611a4b565b90915550506040518381526001600160a01b038516903390600080516020611fb78339815191529060200160405180910390a350611557565b33600090815260208190526040902054828110156114ae5760405162461bcd60e51b815260040161064790611d87565b6114b88382611dc8565b336000818152602081815260408083209490945592518681529092600080516020611fb7833981519152910160405180910390a3604051600090339085908381818185875af1925050503d806000811461152e576040519150601f19603f3d011682016040523d82523d6000602084013e611533565b606091505b50509050806115545760405162461bcd60e51b815260040161064790611ddb565b50505b50600192915050565b6001600160a01b03811660009081526020819052604081208054349290611588908490611a4b565b90915550506040513481526001600160a01b03821690600090600080516020611fb78339815191529060200160405180910390a350565b3360008181526002602090815260408083206001600160a01b03891680855292528083208790555191929091600080516020611fd7833981519152906116089088815260200190565b60405180910390a360405162ba451f60e01b81526001600160a01b0386169062ba451f90610c9a903390889088908890600401611eb3565b336000908152602081905260408120805434929061165f908490611a4b565b90915550506040513481523390600090600080516020611fb78339815191529060200160405180910390a3565b834211156116d35760405162461bcd60e51b815260206004820152601460248201527315d1d054ce88115e1c1a5c9959081c195c9b5a5d60621b6044820152606401610647565b6001600160a01b038716600090815260016020526040812080544692917f0000000000000000000000000000000000000000000000000000000000000000918b918b918b918661172283611f9d565b909155506040805160208101969096526001600160a01b0394851690860152929091166060840152608083015260a082015260c0810187905260e00160405160208183030381529060405280519060200120905060007f000000000000000000000000000000000000000000000000000000000000000083146117ad576117a88361195d565b6117cf565b7f00000000000000000000000000000000000000000000000000000000000000005b60405161190160f01b602082015260228101919091526042810183905260620160408051601f198184030181528282528051602091820120600080855291840180845281905260ff8a169284019290925260608301889052608083018790529092509060019060a0016020604051602081039080840390855afa15801561185a573d6000803e3d6000fd5b5050604051601f1901519150506001600160a01b0381161580159061189057508a6001600160a01b0316816001600160a01b0316145b6118d35760405162461bcd60e51b815260206004820152601460248201527315d1d054ce881a5b9d985b1a59081c195c9b5a5d60621b6044820152606401610647565b6001600160a01b038b81166000818152600260209081526040808320948f16808452948252918290208d905590518c8152600080516020611fd7833981519152910160405180910390a35050505050505050505050565b60006001600160a01b03831630146119545760405162461bcd60e51b815260040161064790611f07565b50600092915050565b604080518082018252600f81526e057726170706564204741532076313608c1b6020918201528151808301835260018152603160f81b9082015281517f8b73c3c69bb8fe3d512ecc4cf759cc79239f7b179b0ffacaa9a75d522b39400f818301527ffce1b694715e12430d9fb4c36387c0cb47d715752be5367f46cb31db02df0992818401527fc89efdaa54c0f20c7adf612882df0950f5a951637e0307cdcb4c672f298b8bc6606082015260808101939093523060a0808501919091528251808503909101815260c0909301909152815191012090565b634e487b7160e01b600052601160045260246000fd5b808201808211156105fc576105fc611a35565b602081526000825180602084015260005b81811015611a8c5760208186018101516040868401015201611a6f565b506000604082850101526040601f19601f83011684010191505092915050565b6001600160a01b0381168114611ac157600080fd5b50565b60008060408385031215611ad757600080fd5b8235611ae281611aac565b946020939093013593505050565b600080600060608486031215611b0557600080fd5b8335611b1081611aac565b92506020840135611b2081611aac565b929592945050506040919091013590565b600060208284031215611b4357600080fd5b5035919050565b60008083601f840112611b5c57600080fd5b5081356001600160401b03811115611b7357600080fd5b602083019150836020828501011115611b8b57600080fd5b9250929050565b60008060008060608587031215611ba857600080fd5b8435611bb381611aac565b93506020850135925060408501356001600160401b03811115611bd557600080fd5b611be187828801611b4a565b95989497509550505050565b600080600080600060808688031215611c0557600080fd5b8535611c1081611aac565b94506020860135611c2081611aac565b93506040860135925060608601356001600160401b03811115611c4257600080fd5b611c4e88828901611b4a565b969995985093965092949392505050565b600080600060408486031215611c7457600080fd5b8335611c7f81611aac565b925060208401356001600160401b03811115611c9a57600080fd5b611ca686828701611b4a565b9497909650939450505050565b600060208284031215611cc557600080fd5b8135611cd081611aac565b9392505050565b600080600080600080600060e0888a031215611cf257600080fd5b8735611cfd81611aac565b96506020880135611d0d81611aac565b95506040880135945060608801359350608088013560ff81168114611d3157600080fd5b9699959850939692959460a0840135945060c09093013592915050565b60008060408385031215611d6157600080fd5b8235611d6c81611aac565b91506020830135611d7c81611aac565b809150509250929050565b60208082526021908201527f574741533a206275726e20616d6f756e7420657863656564732062616c616e636040820152606560f81b606082015260800190565b818103818111156105fc576105fc611a35565b60208082526019908201527815d1d054ce8811d054c81d1c985b9cd9995c8819985a5b1959603a1b604082015260600190565b6020808252601f908201527f574741533a2072657175657374206578636565647320616c6c6f77616e636500604082015260600190565b60208082526025908201527f574741533a207472616e7366657220616d6f756e7420657863656564732062616040820152646c616e636560d81b606082015260800190565b81835281816020850137506000828201602090810191909152601f909101601f19169091010190565b60018060a01b0385168152836020820152606060408201526000611edb606083018486611e8a565b9695505050505050565b600060208284031215611ef757600080fd5b81518015158114611cd057600080fd5b6020808252601c908201527b0574741533a20666c617368206d696e74206f6e6c79205747415331360241b604082015260600190565b6001600160a01b03878116825286166020820152604081018590526060810184905260a060808201819052600090611f789083018486611e8a565b98975050505050505050565b600060208284031215611f9657600080fd5b5051919050565b600060018201611faf57611faf611a35565b506001019056feddf252ad1be2c89b69c2b068fc378daa952ba7f163c4a11628f55a4df523b3ef8c5be1e5ebec7d5bd14f71427d1e84f3dd0314c0f7b2291e5b200ac8c7c3b925a26469706673582212205e63a33485bf237cae56e527618af431a664a5593c7b4d57ca51af7ef78731c664736f6c634300081a0033",
  "devdoc": {
    "details": "Wrapped GAS v10 (WGAS10) is an GAS  ERC-20 wrapper. You can `deposit` GAS and obtain a WGAS10 balance which can then be operated as an ERC-20 token. You can `withdraw` GAS from WGAS10, which will then burn WGAS10 token in your wallet. The amount of WGAS10 token in any wallet is always identical to the balance of GAS deposited minus the GAS withdrawn with that specific wallet.",
    "events": {
      "Approval(address,address,uint256)": {
        "details": "Emitted when the allowance of a `spender` for an `owner` is set by a call to {approve}. `value` is the new allowance."
      },
      "Transfer(address,address,uint256)": {
        "details": "Emitted when `value` tokens are moved from one account (`from`) to another (`to`). Note that `value` may be zero."
      }
    },
    "kind": "dev",
    "methods": {
      "DOMAIN_SEPARATOR()": {
        "details": "Return the DOMAIN_SEPARATOR."
      },
      "approve(address,uint256)": {
        "details": "Sets `value` as allowance of `spender` account over caller account's WGAS10 token. Emits {Approval} event. Returns boolean value indicating whether operation succeeded."
      },
      "approveAndCall(address,uint256,bytes)": {
        "details": "Sets `value` as allowance of `spender` account over caller account's WGAS10 token, after which a call is executed to an ERC677-compliant contract with the `data` parameter. Emits {Approval} event. Returns boolean value indicating whether operation succeeded. For more information on {approveAndCall} format, see https://github.com/ethereum/EIPs/issues/677."
      },
      "deposit()": {
        "details": "`msg.value` of GAS sent to this contract grants caller account a matching increase in WGAS10 token balance. Emits {Transfer} event to reflect WGAS10 token mint of `msg.value` from `address(0)` to caller account."
      },
      "depositTo(address)": {
        "details": "`msg.value` of GAS sent to this contract grants `to` account a matching increase in WGAS10 token balance. Emits {Transfer} event to reflect WGAS10 token mint of `msg.value` from `address(0)` to `to` account."
      },
      "depositToAndCall(address,bytes)": {
        "details": "`msg.value` of GAS sent to this contract grants `to` account a matching increase in WGAS10 token balance, after which a call is executed to an ERC677-compliant contract with the `data` parameter. Emits {Transfer} event. Returns boolean value indicating whether operation succeeded. For more information on {transferAndCall} format, see https://github.com/ethereum/EIPs/issues/677."
      },
      "flashFee(address,uint256)": {
        "details": "Return the fee (zero) for flash lending an amount of WGAS10 token."
      },
      "flashLoan(address,address,uint256,bytes)": {
        "details": "Flash lends `value` WGAS10 token to the receiver address. By the end of the transaction, `value` WGAS10 token will be burned from the receiver. The flash-minted WGAS10 token is not backed by real GAS, but can be withdrawn as such up to the GAS balance of this contract. Arbitrary data can be passed as a bytes calldata parameter. Emits {Approval} event to reflect reduced allowance `value` for this contract to spend from receiver account (`receiver`), unless allowance is set to `type(uint256).max` Emits two {Transfer} events for minting and burning of the flash-minted amount. Returns boolean value indicating whether operation succeeded. Requirements:   - `value` must be less or equal to type(uint112).max.   - The total of all flash loans in a tx must be less or equal to type(uint112).max."
      },
      "maxFlashLoan(address)": {
        "details": "Return the amount of WGAS10 token that can be flash-lent."
      },
      "permit(address,address,uint256,uint256,uint8,bytes32,bytes32)": {
        "details": "Sets `value` as allowance of `spender` account over `owner` account's WGAS10 token, given `owner` account's signed approval. Emits {Approval} event. Requirements:   - `deadline` must be timestamp in future.   - `v`, `r` and `s` must be valid `secp256k1` signature from `owner` account over EIP712-formatted function arguments.   - the signature must use `owner` account's current nonce (see {nonces}).   - the signer cannot be `address(0)` and must be `owner` account. For more information on signature format, see https://eips.ethereum.org/EIPS/eip-2612#specification[relevant EIP section]. WGAS10 token implementation adapted from https://github.com/albertocuestacanada/ERC20Permit/blob/master/contracts/ERC20Permit.sol."
      },
      "totalSupply()": {
        "details": "Returns the total supply of WGAS10 token as the GAS held in this contract."
      },
      "transfer(address,uint256)": {
        "details": "Moves `value` WGAS10 token from caller's account to account (`to`). A transfer to `address(0)` triggers an GAS withdraw matching the sent WGAS10 token in favor of caller. Emits {Transfer} event. Returns boolean value indicating whether operation succeeded. Requirements:   - caller account must have at least `value` WGAS10 token."
      },
      "transferAndCall(address,uint256,bytes)": {
        "details": "Moves `value` WGAS10 token from caller's account to account (`to`), after which a call is executed to an ERC677-compliant contract with the `data` parameter. A transfer to `address(0)` triggers an GAS withdraw matching the sent WGAS10 token in favor of caller. Emits {Transfer} event. Returns boolean value indicating whether operation succeeded. Requirements:   - caller account must have at least `value` WGAS10 token. For more information on {transferAndCall} format, see https://github.com/ethereum/EIPs/issues/677."
      },
      "transferFrom(address,address,uint256)": {
        "details": "Moves `value` WGAS10 token from account (`from`) to account (`to`) using allowance mechanism. `value` is then deducted from caller account's allowance, unless set to `type(uint256).max`. A transfer to `address(0)` triggers an GAS withdraw matching the sent WGAS10 token in favor of caller. Emits {Approval} event to reflect reduced allowance `value` for caller account to spend from account (`from`), unless allowance is set to `type(uint256).max` Emits {Transfer} event. Returns boolean value indicating whether operation succeeded. Requirements:   - `from` account must have at least `value` balance of WGAS10 token.   - `from` account must have approved caller to spend at least `value` of WGAS10 token, unless `from` and caller are the same account."
      },
      "withdraw(uint256)": {
        "details": "Burn `value` WGAS10 token from caller account and withdraw matching GAS to the same. Emits {Transfer} event to reflect WGAS10 token burn of `value` to `address(0)` from caller account. Requirements:   - caller account must have at least `value` balance of WGAS10 token."
      },
      "withdrawFrom(address,address,uint256)": {
        "details": "Burn `value` WGAS10 token from account (`from`) and withdraw matching GAS to account (`to`). Emits {Approval} event to reflect reduced allowance `value` for caller account to spend from account (`from`), unless allowance is set to `type(uint256).max` Emits {Transfer} event to reflect WGAS10 token burn of `value` to `address(0)` from account (`from`). Requirements:   - `from` account must have at least `value` balance of WGAS10 token.   - `from` account must have approved caller to spend at least `value` of WGAS10 token, unless `from` and caller are the same account."
      },
      "withdrawTo(address,uint256)": {
        "details": "Burn `value` WGAS10 token from caller account and withdraw matching ETH to account (`to`). Emits {Transfer} event to reflect WGAS10 token burn of `value` to `address(0)` from caller account. Requirements:   - caller account must have at least `value` balance of WGAS10 token."
      }
    },
    "stateVariables": {
      "allowance": {
        "details": "Records number of WGAS10 token that account (second) will be allowed to spend on behalf of another account (first) through {transferFrom}."
      },
      "balanceOf": {
        "details": "Records amount of WGAS10 token owned by account."
      },
      "flashMinted": {
        "details": "Current amount of flash-minted WGAS10 token."
      },
      "nonces": {
        "details": "Records current ERC2612 nonce for account. This value must be included whenever signature is generated for {permit}. Every successful call to {permit} increases account's nonce by one. This prevents signature from being used multiple times."
      }
    },
    "version": 1
  },
  "userdoc": {
    "kind": "user",
    "methods": {},
    "version": 1
  },
  "storageLayout": {
    "storage": [
      {
        "astId": 40195,
        "contract": "contracts/mock/WGAS10.sol:WGAS10",
        "label": "balanceOf",
        "offset": 0,
        "slot": "0",
        "type": "t_mapping(t_address,t_uint256)"
      },
      {
        "astId": 40201,
        "contract": "contracts/mock/WGAS10.sol:WGAS10",
        "label": "nonces",
        "offset": 0,
        "slot": "1",
        "type": "t_mapping(t_address,t_uint256)"
      },
      {
        "astId": 40209,
        "contract": "contracts/mock/WGAS10.sol:WGAS10",
        "label": "allowance",
        "offset": 0,
        "slot": "2",
        "type": "t_mapping(t_address,t_mapping(t_address,t_uint256))"
      },
      {
        "astId": 40213,
        "contract": "contracts/mock/WGAS10.sol:WGAS10",
        "label": "flashMinted",
        "offset": 0,
        "slot": "3",
        "type": "t_uint256"
      }
    ],
    "types": {
      "t_address": {
        "encoding": "inplace",
        "label": "address",
        "numberOfBytes": "20"
      },
      "t_mapping(t_address,t_mapping(t_address,t_uint256))": {
        "encoding": "mapping",
        "key": "t_address",
        "label": "mapping(address => mapping(address => uint256))",
        "numberOfBytes": "32",
        "value": "t_mapping(t_address,t_uint256)"
      },
      "t_mapping(t_address,t_uint256)": {
        "encoding": "mapping",
        "key": "t_address",
        "label": "mapping(address => uint256)",
        "numberOfBytes": "32",
        "value": "t_uint256"
      },
      "t_uint256": {
        "encoding": "inplace",
        "label": "uint256",
        "numberOfBytes": "32"
      }
    }
  }
}