{
  "_format": "hh-sol-artifact-1",
  "contractName": "Bits",
  "sourceName": "contracts/utils/Bits.sol",
  "abi": [
    {
      "inputs": [],
      "name": "BITMASK_16",
      "outputs": [
        {
          "internalType": "uint256",
          "name": "",
          "type": "uint256"
        }
      ],
      "stateMutability": "view",
      "type": "function"
    },
    {
      "inputs": [],
      "name": "BITMASK_32",
      "outputs": [
        {
          "internalType": "uint256",
          "name": "",
          "type": "uint256"
        }
      ],
      "stateMutability": "view",
      "type": "function"
    },
    {
      "inputs": [],
      "name": "BITMASK_64",
      "outputs": [
        {
          "internalType": "uint256",
          "name": "",
          "type": "uint256"
        }
      ],
      "stateMutability": "view",
      "type": "function"
    },
    {
      "inputs": [],
      "name": "BITMASK_8",
      "outputs": [
        {
          "internalType": "uint256",
          "name": "",
          "type": "uint256"
        }
      ],
      "stateMutability": "view",
      "type": "function"
    }
  ],
  "bytecode": "0x60c46037600b82828239805160001a607314602a57634e487b7160e01b600052600060045260246000fd5b30600052607381538281f3fe730000000000000000000000000000000000000000301460806040526004361060515760003560e01c8063807c9782146056578063984898e5146072578063e326466d14607f578063f96c5e52146086575b600080fd5b606063ffffffff81565b60405190815260200160405180910390f35b60606001600160401b0381565b606060ff81565b606061ffff8156fea2646970667358221220b1a284e191236c0ba8ec04ba692bc1ff4724e93e816e64b5ab9ff3be389eeeed64736f6c634300081a0033",
  "linkReferences": {},
  "deployedLinkReferences": {}
}