{
  "_format": "hh-sol-artifact-1",
  "contractName": "MarketFactory",
  "sourceName": "contracts/market/MarketFactory.sol",
  "abi": [
    {
      "inputs": [
        {
          "internalType": "contract RoleStore",
          "name": "_roleStore",
          "type": "address"
        },
        {
          "internalType": "contract DataStore",
          "name": "_dataStore",
          "type": "address"
        },
        {
          "internalType": "contract EventEmitter",
          "name": "_eventEmitter",
          "type": "address"
        }
      ],
      "stateMutability": "nonpayable",
      "type": "constructor"
    },
    {
      "inputs": [
        {
          "internalType": "bytes32",
          "name": "salt",
          "type": "bytes32"
        },
        {
          "internalType": "address",
          "name": "existingMarketAddress",
          "type": "address"
        }
      ],
      "name": "MarketAlreadyExists",
      "type": "error"
    },
    {
      "inputs": [
        {
          "internalType": "address",
          "name": "msgSender",
          "type": "address"
        },
        {
          "internalType": "string",
          "name": "role",
          "type": "string"
        }
      ],
      "name": "Unauthorized",
      "type": "error"
    },
    {
      "inputs": [
        {
          "internalType": "address",
          "name": "indexToken",
          "type": "address"
        },
        {
          "internalType": "address",
          "name": "longToken",
          "type": "address"
        },
        {
          "internalType": "address",
          "name": "shortToken",
          "type": "address"
        },
        {
          "internalType": "bytes32",
          "name": "marketType",
          "type": "bytes32"
        }
      ],
      "name": "createMarket",
      "outputs": [
        {
          "components": [
            {
              "internalType": "address",
              "name": "marketToken",
              "type": "address"
            },
            {
              "internalType": "address",
              "name": "indexToken",
              "type": "address"
            },
            {
              "internalType": "address",
              "name": "longToken",
              "type": "address"
            },
            {
              "internalType": "address",
              "name": "shortToken",
              "type": "address"
            }
          ],
          "internalType": "struct Market.Props",
          "name": "",
          "type": "tuple"
        }
      ],
      "stateMutability": "nonpayable",
      "type": "function"
    },
    {
      "inputs": [],
      "name": "dataStore",
      "outputs": [
        {
          "internalType": "contract DataStore",
          "name": "",
          "type": "address"
        }
      ],
      "stateMutability": "view",
      "type": "function"
    },
    {
      "inputs": [],
      "name": "eventEmitter",
      "outputs": [
        {
          "internalType": "contract EventEmitter",
          "name": "",
          "type": "address"
        }
      ],
      "stateMutability": "view",
      "type": "function"
    },
    {
      "inputs": [],
      "name": "roleStore",
      "outputs": [
        {
          "internalType": "contract RoleStore",
          "name": "",
          "type": "address"
        }
      ],
      "stateMutability": "view",
      "type": "function"
    }
  ],
  "bytecode": "0x60e060405234801561001057600080fd5b50604051612ede380380612ede83398101604081905261002f91610064565b6001600160a01b0392831660805290821660a0521660c0526100b1565b6001600160a01b038116811461006157600080fd5b50565b60008060006060848603121561007957600080fd5b83516100848161004c565b60208501519093506100958161004c565b60408501519092506100a68161004c565b809150509250925092565b60805160a05160c051612dd76101076000396000818160c1015261067e015260008181609a0152818161020f0152818161030b01526103cd0152600081816056015281816102ea01526104600152612dd76000f3fe608060405234801561001057600080fd5b506004361061004c5760003560e01c80634a4a7b0414610051578063660d0d67146100955780639ff78c30146100bc578063a50ff3a6146100e3575b600080fd5b6100787f000000000000000000000000000000000000000000000000000000000000000081565b6040516001600160a01b0390911681526020015b60405180910390f35b6100787f000000000000000000000000000000000000000000000000000000000000000081565b6100787f000000000000000000000000000000000000000000000000000000000000000081565b6100f66100f136600461093e565b610103565b60405161008c91906109c2565b60408051608081018252600080825260208201819052918101829052606081019190915261019c60405160200161015b906020808252600d908201526c26a0a925a2aa2fa5a2a2a822a960991b604082015260600190565b604051602081830303815290604052805190602001206040518060400160405280600d81526020016c26a0a925a2aa2fa5a2a2a822a960991b815250610444565b6040805160a060208201819052600b60c08301526a1111955397d3505492d15560aa1b60e08301526001600160a01b0380891693830193909352828716606083015291851660808201529081018390526000906101000160405160208183030381529060405280519060200120905060007f00000000000000000000000000000000000000000000000000000000000000006001600160a01b03166321f8a721610245846104f8565b6040518263ffffffff1660e01b815260040161026391815260200190565b602060405180830381865afa158015610280573d6000803e3d6000fd5b505050506040513d601f19601f820116820180604052508101906102a491906109d6565b90506001600160a01b038116156102e5576040516325e34fa160e01b8152600481018390526001600160a01b03821660248201526044015b60405180910390fd5b6000827f00000000000000000000000000000000000000000000000000000000000000007f000000000000000000000000000000000000000000000000000000000000000060405161033690610828565b6001600160a01b039283168152911660208201526040018190604051809103906000f590508015801561036d573d6000803e3d6000fd5b50604080516080810182526001600160a01b0380841682528b811660208301528a8116828401528916606082015290516303bc2fb360e51b81529192509073__$ff439aa65a80c9eec648f15db20b189505$__90637785f660906103fb907f0000000000000000000000000000000000000000000000000000000000000000908690899087906004016109fa565b60006040518083038186803b15801561041357600080fd5b505af4158015610427573d6000803e3d6000fd5b5050505061043882858b8b8b61056a565b98975050505050505050565b60405163ac4ab3fb60e01b8152336004820152602481018390527f00000000000000000000000000000000000000000000000000000000000000006001600160a01b03169063ac4ab3fb90604401602060405180830381865afa1580156104af573d6000803e3d6000fd5b505050506040513d601f19601f820116820180604052508101906104d39190610a2f565b6104f457338160405163a35b150b60e01b81526004016102dc929190610a97565b5050565b6000604051602001610529906020808252600b908201526a13505492d15517d4d0531560aa1b604082015260600190565b60408051601f198184030181528282528051602091820120908301528101839052606001604051602081830303815290604052805190602001209050919050565b610572610835565b805161057f906004610713565b60408051808201909152600b81526a36b0b935b2ba2a37b5b2b760a91b602082015281516105b09160009089610778565b60408051808201909152600a81526934b73232bc2a37b5b2b760b11b602082015281516105e09160019087610778565b6040805180820190915260098152683637b733aa37b5b2b760b91b6020820152815161060f9160029086610778565b60408051808201909152600a81526939b437b93a2a37b5b2b760b11b6020820152815161063f9160039085610778565b608081015161064f906001610713565b6040805180820190915260048152631cd85b1d60e21b6020820152608082015161067c91600090886107d5565b7f00000000000000000000000000000000000000000000000000000000000000006001600160a01b03166324de01e46106bb886001600160a01b031690565b836040518363ffffffff1660e01b81526004016106d99291906110b6565b600060405180830381600087803b1580156106f357600080fd5b505af1158015610707573d6000803e3d6000fd5b50505050505050505050565b806001600160401b0381111561072b5761072b6111be565b60405190808252806020026020018201604052801561077157816020015b6040805180820190915260608152600060208201528152602001906001900390816107495790505b5090915250565b818460000151848151811061078f5761078f6111d4565b60200260200101516000018190525080846000015184815181106107b5576107b56111d4565b6020908102919091018101516001600160a01b0390921691015250505050565b81846000015184815181106107ec576107ec6111d4565b6020026020010151600001819052508084600001518481518110610812576108126111d4565b6020026020010151602001818152505050505050565b611bb7806111eb83390190565b604080516101208101909152606060e0820181815261010083019190915281908152602001610877604051806040016040528060608152602001606081525090565b8152602001610899604051806040016040528060608152602001606081525090565b81526020016108bb604051806040016040528060608152602001606081525090565b81526020016108dd604051806040016040528060608152602001606081525090565b81526020016108ff604051806040016040528060608152602001606081525090565b8152602001610921604051806040016040528060608152602001606081525090565b905290565b6001600160a01b038116811461093b57600080fd5b50565b6000806000806080858703121561095457600080fd5b843561095f81610926565b9350602085013561096f81610926565b9250604085013561097f81610926565b9396929550929360600135925050565b80516001600160a01b03908116835260208083015182169084015260408083015182169084015260609182015116910152565b608081016109d0828461098f565b92915050565b6000602082840312156109e857600080fd5b81516109f381610926565b9392505050565b6001600160a01b038581168252841660208201526040810183905260e08101610a26606083018461098f565b95945050505050565b600060208284031215610a4157600080fd5b815180151581146109f357600080fd5b6000815180845260005b81811015610a7757602081850181015186830182015201610a5b565b506000602082860101526020601f19601f83011685010191505092915050565b6001600160a01b0383168152604060208201819052600090610abb90830184610a51565b949350505050565b600082825180855260208501945060208160051b8301016020850160005b83811015610b6a57601f198584030188528151805160408552610b076040860182610a51565b6020928301518682038785015280518083529084019360009350909101905b80831015610b515783516001600160a01b031682526020938401936001939093019290910190610b26565b5060209a8b019a90955093909301925050600101610ae1565b50909695505050505050565b60006040830182516040855281815180845260608701915060608160051b880101935060208301925060005b81811015610bf057605f198886030183528351805160408752610bc86040880182610a51565b6020928301516001600160a01b03169783019790975250938401939290920191600101610ba2565b5050505060208301518482036020860152610a268282610ac3565b600082825180855260208501945060208160051b8301016020850160005b83811015610b6a57601f198584030188528151805160408552610c4f6040860182610a51565b6020928301518682038785015280518083529084019360009350909101905b80831015610c915783518252602082019150602084019350600183019250610c6e565b5060209a8b019a90955093909301925050600101610c29565b60006040830182516040855281815180845260608701915060608160051b880101935060208301925060005b81811015610d1b57605f198886030183528351805160408752610cfc6040880182610a51565b6020928301519783019790975250938401939290920191600101610cd6565b5050505060208301518482036020860152610a268282610c0b565b60006040830182516040855281815180845260608701915060608160051b880101935060208301925060005b81811015610d1b57605f198886030183528351805160408752610d886040880182610a51565b6020928301519783019790975250938401939290920191600101610d62565b600082825180855260208501945060208160051b8301016020850160005b83811015610b6a57601f198584030188528151805160408552610deb6040860182610a51565b6020928301518682038785015280518083529084019360009350909101905b80831015610e2f57835115158252602082019150602084019350600183019250610e0a565b5060209a8b019a90955093909301925050600101610dc5565b60006040830182516040855281815180845260608701915060608160051b880101935060208301925060005b81811015610ebb57605f198886030183528351805160408752610e9a6040880182610a51565b60209283015115159783019790975250938401939290920191600101610e74565b5050505060208301518482036020860152610a268282610da7565b600082825180855260208501945060208160051b8301016020850160005b83811015610b6a57601f198584030188528151805160408552610f1a6040860182610a51565b6020928301518682038785015280518083529084019391925081830191600582901b84010160005b82811015610f7357601f19858303018452610f5e828751610a51565b60209687019694909401939150600101610f42565b508097505050505050602082019150602088019750600181019050610ef4565b60006040830182516040855281815180845260608701915060608160051b880101935060208301925060005b8181101561101757605f198886030183528351805160408752610fe56040880182610a51565b90506020820151915086810360208801526110008183610a51565b965050506020938401939290920191600101610fbf565b5050505060208301518482036020860152610a268282610ed6565b60006040830182516040855281815180845260608701915060608160051b880101935060208301925060005b8181101561101757605f1988860301835283518051604087526110846040880182610a51565b905060208201519150868103602088015261109f8183610a51565b96505050602093840193929092019160010161105e565b60608152600d60608201526c13585c9ad95d10dc99585d1959609a1b608082015282602082015260a060408201526000825160e060a08401526110fd610180840182610b76565b90506020840151609f198483030160c085015261111a8282610caa565b9150506040840151609f198483030160e08501526111388282610d36565b9150506060840151609f19848303016101008501526111578282610e48565b9150506080840151609f19848303016101208501526111768282610caa565b91505060a0840151609f19848303016101408501526111958282610f93565b91505060c0840151609f19848303016101608501526111b48282611032565b9695505050505050565b634e487b7160e01b600052604160045260246000fd5b634e487b7160e01b600052603260045260246000fdfe60c060405234801561001057600080fd5b50604051611bb7380380611bb783398101604081905261002f916100c3565b8181816040518060400160405280600b81526020016a111195538813585c9ad95d60aa1b81525060405180604001604052806002815260200161222360f11b8152508160039081610080919061019c565b50600461008d828261019c565b5050506001600160a01b039081166080521660a0525061025a915050565b6001600160a01b03811681146100c057600080fd5b50565b600080604083850312156100d657600080fd5b82516100e1816100ab565b60208401519092506100f2816100ab565b809150509250929050565b634e487b7160e01b600052604160045260246000fd5b600181811c9082168061012757607f821691505b60208210810361014757634e487b7160e01b600052602260045260246000fd5b50919050565b601f82111561019757806000526020600020601f840160051c810160208510156101745750805b601f840160051c820191505b818110156101945760008155600101610180565b50505b505050565b81516001600160401b038111156101b5576101b56100fd565b6101c9816101c38454610113565b8461014d565b6020601f8211600181146101fd57600083156101e55750848201515b600019600385901b1c1916600184901b178455610194565b600084815260208120601f198516915b8281101561022d578785015182556020948501946001909201910161020d565b508482101561024b5786840151600019600387901b60f8161c191681555b50505050600190811b01905550565b60805160a05161190f6102a86000396000818160e9015281816102d3015281816105da01528181610754015281816108900152610c1701526000818161029201526107c7015261190f6000f3fe6080604052600436106100dd5760003560e01c806306fdde031461014a578063078d3b7914610175578063095ea7b31461019557806318160ddd146101c557806323b872dd146101e45780632fb1260514610204578063313ce56714610224578063395093511461024057806340c10f19146102605780634a4a7b0414610280578063660d0d67146102c157806370a08231146102f557806395d89b411461032b5780639dc29fac14610340578063a457c2d714610360578063a9059cbb14610380578063d443ca94146103a0578063dd62ed3e146103c057600080fd5b3661014557600061010d7f00000000000000000000000000000000000000000000000000000000000000006103e0565b9050336001600160a01b03821614610143573360405163738d28df60e11b815260040161013a91906114e2565b60405180910390fd5b005b600080fd5b34801561015657600080fd5b5061015f610493565b60405161016c9190611546565b60405180910390f35b34801561018157600080fd5b50610143610190366004611575565b610525565b3480156101a157600080fd5b506101b56101b03660046115b6565b610585565b604051901515815260200161016c565b3480156101d157600080fd5b506002545b60405190815260200161016c565b3480156101f057600080fd5b506101b56101ff366004611575565b61059d565b34801561021057600080fd5b5061014361021f3660046115f0565b6105c1565b34801561023057600080fd5b506040516012815260200161016c565b34801561024c57600080fd5b506101b561025b3660046115b6565b610645565b34801561026c57600080fd5b5061014361027b3660046115b6565b610667565b34801561028c57600080fd5b506102b47f000000000000000000000000000000000000000000000000000000000000000081565b60405161016c91906114e2565b3480156102cd57600080fd5b506102b47f000000000000000000000000000000000000000000000000000000000000000081565b34801561030157600080fd5b506101d6610310366004611643565b6001600160a01b031660009081526020819052604090205490565b34801561033757600080fd5b5061015f610687565b34801561034c57600080fd5b5061014361035b3660046115b6565b610696565b34801561036c57600080fd5b506101b561037b3660046115b6565b6106b2565b34801561038c57600080fd5b506101b561039b3660046115b6565b61072d565b3480156103ac57600080fd5b506101436103bb3660046115b6565b61073b565b3480156103cc57600080fd5b506101d66103db366004611660565b610785565b6000816001600160a01b03166321f8a7216040516020016104189060208082526003908201526215d39560ea1b604082015260600190565b604051602081830303815290604052805190602001206040518263ffffffff1660e01b815260040161044c91815260200190565b602060405180830381865afa158015610469573d6000803e3d6000fd5b505050506040513d601f19601f8201168201806040525081019061048d9190611699565b92915050565b6060600380546104a2906116b6565b80601f01602080910402602001604051908101604052809291908181526020018280546104ce906116b6565b801561051b5780601f106104f05761010080835404028352916020019161051b565b820191906000526020600020905b8154815290600101906020018083116104fe57829003601f168201915b5050505050905090565b610575604051602001610537906116f0565b604051602081830303815290604052805190602001206040518060400160405280600a81526020016921a7a72a2927a62622a960b11b8152506107b0565b610580838383610860565b505050565b6000336105938185856108b7565b5060019392505050565b6000336105ab8582856109db565b6105b6858585610a55565b506001949350505050565b6105d3604051602001610537906116f0565b60006105fe7f00000000000000000000000000000000000000000000000000000000000000006103e0565b9050806001600160a01b0316856001600160a01b031614801561061e5750815b156106335761062e858585610be7565b61063e565b61063e858585610860565b5050505050565b6000336105938185856106588383610785565b6106629190611714565b6108b7565b610679604051602001610537906116f0565b6106838282610c3e565b5050565b6060600480546104a2906116b6565b6106a8604051602001610537906116f0565b6106838282610ceb565b600033816106c08286610785565b9050838110156107205760405162461bcd60e51b815260206004820152602560248201527f45524332303a2064656372656173656420616c6c6f77616e63652062656c6f77604482015264207a65726f60d81b606482015260840161013a565b6105b682868684036108b7565b600033610593818585610a55565b61074d604051602001610537906116f0565b60006107787f00000000000000000000000000000000000000000000000000000000000000006103e0565b9050610580818484610be7565b6001600160a01b03918216600090815260016020908152604080832093909416825291909152205490565b60405163ac4ab3fb60e01b81526001600160a01b037f0000000000000000000000000000000000000000000000000000000000000000169063ac4ab3fb906107fe9033908690600401611735565b602060405180830381865afa15801561081b573d6000803e3d6000fd5b505050506040513d601f19601f8201168201806040525081019061083f919061174e565b61068357338160405163a35b150b60e01b815260040161013a92919061176b565b306001600160a01b0383160361088b5781604051637387c8a960e11b815260040161013a91906114e2565b6105807f0000000000000000000000000000000000000000000000000000000000000000848484610e0b565b6001600160a01b0383166109195760405162461bcd60e51b8152602060048201526024808201527f45524332303a20617070726f76652066726f6d20746865207a65726f206164646044820152637265737360e01b606482015260840161013a565b6001600160a01b03821661097a5760405162461bcd60e51b815260206004820152602260248201527f45524332303a20617070726f766520746f20746865207a65726f206164647265604482015261737360f01b606482015260840161013a565b6001600160a01b0383811660008181526001602090815260408083209487168084529482529182902085905590518481527f8c5be1e5ebec7d5bd14f71427d1e84f3dd0314c0f7b2291e5b200ac8c7c3b925910160405180910390a3505050565b60006109e78484610785565b90506000198114610a4f5781811015610a425760405162461bcd60e51b815260206004820152601d60248201527f45524332303a20696e73756666696369656e7420616c6c6f77616e6365000000604482015260640161013a565b610a4f84848484036108b7565b50505050565b6001600160a01b038316610ab95760405162461bcd60e51b815260206004820152602560248201527f45524332303a207472616e736665722066726f6d20746865207a65726f206164604482015264647265737360d81b606482015260840161013a565b6001600160a01b038216610b1b5760405162461bcd60e51b815260206004820152602360248201527f45524332303a207472616e7366657220746f20746865207a65726f206164647260448201526265737360e81b606482015260840161013a565b6001600160a01b03831660009081526020819052604090205481811015610b935760405162461bcd60e51b815260206004820152602660248201527f45524332303a207472616e7366657220616d6f756e7420657863656564732062604482015265616c616e636560d01b606482015260840161013a565b6001600160a01b03848116600081815260208181526040808320878703905593871680835291849020805487019055925185815290926000805160206118ba833981519152910160405180910390a3610a4f565b306001600160a01b03831603610c125781604051637387c8a960e11b815260040161013a91906114e2565b6105807f0000000000000000000000000000000000000000000000000000000000000000848484611058565b6001600160a01b038216610c945760405162461bcd60e51b815260206004820152601f60248201527f45524332303a206d696e7420746f20746865207a65726f206164647265737300604482015260640161013a565b8060026000828254610ca69190611714565b90915550506001600160a01b038216600081815260208181526040808320805486019055518481526000805160206118ba833981519152910160405180910390a35050565b6001600160a01b038216610d4b5760405162461bcd60e51b815260206004820152602160248201527f45524332303a206275726e2066726f6d20746865207a65726f206164647265736044820152607360f81b606482015260840161013a565b6001600160a01b03821660009081526020819052604090205481811015610dbf5760405162461bcd60e51b815260206004820152602260248201527f45524332303a206275726e20616d6f756e7420657863656564732062616c616e604482015261636560f01b606482015260840161013a565b6001600160a01b0383166000818152602081815260408083208686039055600280548790039055518581529192916000805160206118ba833981519152910160405180910390a3505050565b8015610a4f57610e1a826111b8565b6000846001600160a01b031663bd02d0f5610e34866111df565b6040518263ffffffff1660e01b8152600401610e5291815260200190565b602060405180830381865afa158015610e6f573d6000803e3d6000fd5b505050506040513d601f19601f82011682018060405250810190610e939190611797565b905080600003610eb85783604051634fe14bfd60e11b815260040161013a91906114e2565b6000610ec685858585611267565b5090508015610ed6575050610a4f565b6000866001600160a01b03166321f8a721604051602001610f1a906020808252600f908201526e484f4c44494e475f4144445245535360881b604082015260600190565b604051602081830303815290604052805190602001206040518263ffffffff1660e01b8152600401610f4e91815260200190565b602060405180830381865afa158015610f6b573d6000803e3d6000fd5b505050506040513d601f19601f82011682018060405250810190610f8f9190611699565b90506001600160a01b038116610fb857604051633a6de2f560e21b815260040160405180910390fd5b600080610fc788848888611267565b915091508115610fdb575050505050610a4f565b6000610fe6826113cf565b5090507fc9f14d9a0a9b46470c7c0b6c508f8283abaab7f795f153953c58cd4250824dae818360405161101a9291906117b0565b60405180910390a160405163012f3b8f60e71b81526001600160a01b03808b166004830152891660248201526044810188905260640161013a565b50565b8015610a4f57611067826111b8565b604051632e1a7d4d60e01b8152600481018290526001600160a01b03841690632e1a7d4d90602401600060405180830381600087803b1580156110a957600080fd5b505af11580156110bd573d6000803e3d6000fd5b505050506000846001600160a01b031663bd02d0f5604051602001611113906020808252601f908201527f4e41544956455f544f4b454e5f5452414e534645525f4741535f4c494d495400604082015260600190565b604051602081830303815290604052805190602001206040518263ffffffff1660e01b815260040161114791815260200190565b602060405180830381865afa158015611164573d6000803e3d6000fd5b505050506040513d601f19601f820116820180604052508101906111889190611797565b90506000806000806000868887f1905080156111a5575050610a4f565b6111b086858561145f565b505050505050565b6001600160a01b0381166110555760405163d551823d60e01b815260040160405180910390fd5b600060405160200161121d906020808252601890820152771513d2d15397d514905394d1915497d1d054d7d31253525560421b604082015260600190565b60408051601f198184030181528282528051602091820120908301526001600160a01b03841690820152606001604051602081830303815290604052805190602001209050919050565b60006060600063a9059cbb60e01b8686604051602401611288929190611735565b604051602081830303815290604052906001600160e01b0319166020820180516001600160e01b0383818316178352505050509050600080886001600160a01b031686846040516112d991906117de565b60006040518083038160008787f1925050503d8060008114611317576040519150601f19603f3d011682016040523d82523d6000602084013e61131c565b606091505b509150915081156113bd57805160000361137a576001600160a01b0389163b61137a5760006040518060400160405280601481526020017310d85b1b081d1bc81b9bdb8b58dbdb9d1c9858dd60621b815250945094505050506113c6565b6000815111801561139c57508080602001905181019061139a919061174e565b155b156113af576000945092506113c6915050565b6001945092506113c6915050565b60009450925050505b94509492505050565b606060006044835110156113f6575050604080516020810190915260008082529092909150565b6000611403846020015190565b90506307b9e43360e51b6001600160e01b031982160161144257600484019350838060200190518101906114379190611810565b946001945092505050565b600060405180602001604052806000815250909250925050915091565b8060000361146c57505050565b611475826111b8565b6000611480846103e0565b9050806001600160a01b031663d0e30db0836040518263ffffffff1660e01b81526004016000604051808303818588803b1580156114bd57600080fd5b505af11580156114d1573d6000803e3d6000fd5b5050505050610a4f84828585610e0b565b6001600160a01b0391909116815260200190565b60005b838110156115115781810151838201526020016114f9565b50506000910152565b600081518084526115328160208601602086016114f6565b601f01601f19169290920160200192915050565b602081526000611559602083018461151a565b9392505050565b6001600160a01b038116811461105557600080fd5b60008060006060848603121561158a57600080fd5b833561159581611560565b925060208401356115a581611560565b929592945050506040919091013590565b600080604083850312156115c957600080fd5b82356115d481611560565b946020939093013593505050565b801515811461105557600080fd5b6000806000806080858703121561160657600080fd5b843561161181611560565b9350602085013561162181611560565b9250604085013591506060850135611638816115e2565b939692955090935050565b60006020828403121561165557600080fd5b813561155981611560565b6000806040838503121561167357600080fd5b823561167e81611560565b9150602083013561168e81611560565b809150509250929050565b6000602082840312156116ab57600080fd5b815161155981611560565b600181811c908216806116ca57607f821691505b6020821081036116ea57634e487b7160e01b600052602260045260246000fd5b50919050565b6020808252600a908201526921a7a72a2927a62622a960b11b604082015260600190565b8082018082111561048d57634e487b7160e01b600052601160045260246000fd5b6001600160a01b03929092168252602082015260400190565b60006020828403121561176057600080fd5b8151611559816115e2565b6001600160a01b038316815260406020820181905260009061178f9083018461151a565b949350505050565b6000602082840312156117a957600080fd5b5051919050565b6040815260006117c3604083018561151a565b82810360208401526117d5818561151a565b95945050505050565b600082516117f08184602087016114f6565b9190910192915050565b634e487b7160e01b600052604160045260246000fd5b60006020828403121561182257600080fd5b81516001600160401b0381111561183857600080fd5b8201601f8101841361184957600080fd5b80516001600160401b03811115611862576118626117fa565b604051601f8201601f19908116603f011681016001600160401b0381118282101715611890576118906117fa565b6040528181528282016020018610156118a857600080fd5b6117d58260208301602086016114f656feddf252ad1be2c89b69c2b068fc378daa952ba7f163c4a11628f55a4df523b3efa26469706673582212208509191956af9e630a42e3bd77d650f2f765d7ce71a25c61b55e5c38baec682b64736f6c634300081a0033a264697066735822122094b826c5602c766a84e36869df7408f86bd1f96956fd0ccaba76c628236e3b9564736f6c634300081a0033",
  "linkReferences": {
    "contracts/market/MarketStoreUtils.sol": {
      "MarketStoreUtils": [
        {
          "length": 20,
          "start": 1204
        }
      ]
    }
  },
  "deployedLinkReferences": {
    "contracts/market/MarketStoreUtils.sol": {
      "MarketStoreUtils": [
        {
          "length": 20,
          "start": 941
        }
      ]
    }
  }
}