{
  "_format": "hh-sol-artifact-1",
  "contractName": "MintableBaseToken",
  "sourceName": "contracts/tokens/MintableBaseToken.sol",
  "abi": [
    {
      "inputs": [
        {
          "internalType": "string",
          "name": "_name",
          "type": "string"
        },
        {
          "internalType": "string",
          "name": "_symbol",
          "type": "string"
        },
        {
          "internalType": "uint256",
          "name": "_initialSupply",
          "type": "uint256"
        }
      ],
      "stateMutability": "nonpayable",
      "type": "constructor"
    },
    {
      "anonymous": false,
      "inputs": [
        {
          "indexed": true,
          "internalType": "address",
          "name": "owner",
          "type": "address"
        },
        {
          "indexed": true,
          "internalType": "address",
          "name": "spender",
          "type": "address"
        },
        {
          "indexed": false,
          "internalType": "uint256",
          "name": "value",
          "type": "uint256"
        }
      ],
      "name": "Approval",
      "type": "event"
    },
    {
      "anonymous": false,
      "inputs": [
        {
          "indexed": true,
          "internalType": "address",
          "name": "from",
          "type": "address"
        },
        {
          "indexed": true,
          "internalType": "address",
          "name": "to",
          "type": "address"
        },
        {
          "indexed": false,
          "internalType": "uint256",
          "name": "value",
          "type": "uint256"
        }
      ],
      "name": "Transfer",
      "type": "event"
    },
    {
      "inputs": [
        {
          "internalType": "address",
          "name": "_account",
          "type": "address"
        }
      ],
      "name": "addAdmin",
      "outputs": [],
      "stateMutability": "nonpayable",
      "type": "function"
    },
    {
      "inputs": [
        {
          "internalType": "address",
          "name": "_account",
          "type": "address"
        }
      ],
      "name": "addNonStakingAccount",
      "outputs": [],
      "stateMutability": "nonpayable",
      "type": "function"
    },
    {
      "inputs": [
        {
          "internalType": "address",
          "name": "",
          "type": "address"
        }
      ],
      "name": "admins",
      "outputs": [
        {
          "internalType": "bool",
          "name": "",
          "type": "bool"
        }
      ],
      "stateMutability": "view",
      "type": "function"
    },
    {
      "inputs": [
        {
          "internalType": "address",
          "name": "_owner",
          "type": "address"
        },
        {
          "internalType": "address",
          "name": "_spender",
          "type": "address"
        }
      ],
      "name": "allowance",
      "outputs": [
        {
          "internalType": "uint256",
          "name": "",
          "type": "uint256"
        }
      ],
      "stateMutability": "view",
      "type": "function"
    },
    {
      "inputs": [
        {
          "internalType": "address",
          "name": "",
          "type": "address"
        },
        {
          "internalType": "address",
          "name": "",
          "type": "address"
        }
      ],
      "name": "allowances",
      "outputs": [
        {
          "internalType": "uint256",
          "name": "",
          "type": "uint256"
        }
      ],
      "stateMutability": "view",
      "type": "function"
    },
    {
      "inputs": [
        {
          "internalType": "address",
          "name": "_spender",
          "type": "address"
        },
        {
          "internalType": "uint256",
          "name": "_amount",
          "type": "uint256"
        }
      ],
      "name": "approve",
      "outputs": [
        {
          "internalType": "bool",
          "name": "",
          "type": "bool"
        }
      ],
      "stateMutability": "nonpayable",
      "type": "function"
    },
    {
      "inputs": [
        {
          "internalType": "address",
          "name": "_account",
          "type": "address"
        }
      ],
      "name": "balanceOf",
      "outputs": [
        {
          "internalType": "uint256",
          "name": "",
          "type": "uint256"
        }
      ],
      "stateMutability": "view",
      "type": "function"
    },
    {
      "inputs": [
        {
          "internalType": "address",
          "name": "",
          "type": "address"
        }
      ],
      "name": "balances",
      "outputs": [
        {
          "internalType": "uint256",
          "name": "",
          "type": "uint256"
        }
      ],
      "stateMutability": "view",
      "type": "function"
    },
    {
      "inputs": [
        {
          "internalType": "address",
          "name": "_account",
          "type": "address"
        },
        {
          "internalType": "uint256",
          "name": "_amount",
          "type": "uint256"
        }
      ],
      "name": "burn",
      "outputs": [],
      "stateMutability": "nonpayable",
      "type": "function"
    },
    {
      "inputs": [
        {
          "internalType": "address",
          "name": "_receiver",
          "type": "address"
        }
      ],
      "name": "claim",
      "outputs": [],
      "stateMutability": "nonpayable",
      "type": "function"
    },
    {
      "inputs": [],
      "name": "decimals",
      "outputs": [
        {
          "internalType": "uint8",
          "name": "",
          "type": "uint8"
        }
      ],
      "stateMutability": "view",
      "type": "function"
    },
    {
      "inputs": [],
      "name": "gov",
      "outputs": [
        {
          "internalType": "address",
          "name": "",
          "type": "address"
        }
      ],
      "stateMutability": "view",
      "type": "function"
    },
    {
      "inputs": [],
      "name": "inPrivateTransferMode",
      "outputs": [
        {
          "internalType": "bool",
          "name": "",
          "type": "bool"
        }
      ],
      "stateMutability": "view",
      "type": "function"
    },
    {
      "inputs": [
        {
          "internalType": "address",
          "name": "",
          "type": "address"
        }
      ],
      "name": "isHandler",
      "outputs": [
        {
          "internalType": "bool",
          "name": "",
          "type": "bool"
        }
      ],
      "stateMutability": "view",
      "type": "function"
    },
    {
      "inputs": [
        {
          "internalType": "address",
          "name": "",
          "type": "address"
        }
      ],
      "name": "isMinter",
      "outputs": [
        {
          "internalType": "bool",
          "name": "",
          "type": "bool"
        }
      ],
      "stateMutability": "view",
      "type": "function"
    },
    {
      "inputs": [
        {
          "internalType": "address",
          "name": "_account",
          "type": "address"
        },
        {
          "internalType": "uint256",
          "name": "_amount",
          "type": "uint256"
        }
      ],
      "name": "mint",
      "outputs": [],
      "stateMutability": "nonpayable",
      "type": "function"
    },
    {
      "inputs": [],
      "name": "name",
      "outputs": [
        {
          "internalType": "string",
          "name": "",
          "type": "string"
        }
      ],
      "stateMutability": "view",
      "type": "function"
    },
    {
      "inputs": [
        {
          "internalType": "address",
          "name": "",
          "type": "address"
        }
      ],
      "name": "nonStakingAccounts",
      "outputs": [
        {
          "internalType": "bool",
          "name": "",
          "type": "bool"
        }
      ],
      "stateMutability": "view",
      "type": "function"
    },
    {
      "inputs": [],
      "name": "nonStakingSupply",
      "outputs": [
        {
          "internalType": "uint256",
          "name": "",
          "type": "uint256"
        }
      ],
      "stateMutability": "view",
      "type": "function"
    },
    {
      "inputs": [
        {
          "internalType": "address",
          "name": "_account",
          "type": "address"
        },
        {
          "internalType": "address",
          "name": "_receiver",
          "type": "address"
        }
      ],
      "name": "recoverClaim",
      "outputs": [],
      "stateMutability": "nonpayable",
      "type": "function"
    },
    {
      "inputs": [
        {
          "internalType": "address",
          "name": "_account",
          "type": "address"
        }
      ],
      "name": "removeAdmin",
      "outputs": [],
      "stateMutability": "nonpayable",
      "type": "function"
    },
    {
      "inputs": [
        {
          "internalType": "address",
          "name": "_account",
          "type": "address"
        }
      ],
      "name": "removeNonStakingAccount",
      "outputs": [],
      "stateMutability": "nonpayable",
      "type": "function"
    },
    {
      "inputs": [
        {
          "internalType": "address",
          "name": "_gov",
          "type": "address"
        }
      ],
      "name": "setGov",
      "outputs": [],
      "stateMutability": "nonpayable",
      "type": "function"
    },
    {
      "inputs": [
        {
          "internalType": "address",
          "name": "_handler",
          "type": "address"
        },
        {
          "internalType": "bool",
          "name": "_isActive",
          "type": "bool"
        }
      ],
      "name": "setHandler",
      "outputs": [],
      "stateMutability": "nonpayable",
      "type": "function"
    },
    {
      "inputs": [
        {
          "internalType": "bool",
          "name": "_inPrivateTransferMode",
          "type": "bool"
        }
      ],
      "name": "setInPrivateTransferMode",
      "outputs": [],
      "stateMutability": "nonpayable",
      "type": "function"
    },
    {
      "inputs": [
        {
          "internalType": "string",
          "name": "_name",
          "type": "string"
        },
        {
          "internalType": "string",
          "name": "_symbol",
          "type": "string"
        }
      ],
      "name": "setInfo",
      "outputs": [],
      "stateMutability": "nonpayable",
      "type": "function"
    },
    {
      "inputs": [
        {
          "internalType": "address",
          "name": "_minter",
          "type": "address"
        },
        {
          "internalType": "bool",
          "name": "_isActive",
          "type": "bool"
        }
      ],
      "name": "setMinter",
      "outputs": [],
      "stateMutability": "nonpayable",
      "type": "function"
    },
    {
      "inputs": [
        {
          "internalType": "address[]",
          "name": "_yieldTrackers",
          "type": "address[]"
        }
      ],
      "name": "setYieldTrackers",
      "outputs": [],
      "stateMutability": "nonpayable",
      "type": "function"
    },
    {
      "inputs": [
        {
          "internalType": "address",
          "name": "_account",
          "type": "address"
        }
      ],
      "name": "stakedBalance",
      "outputs": [
        {
          "internalType": "uint256",
          "name": "",
          "type": "uint256"
        }
      ],
      "stateMutability": "view",
      "type": "function"
    },
    {
      "inputs": [],
      "name": "symbol",
      "outputs": [
        {
          "internalType": "string",
          "name": "",
          "type": "string"
        }
      ],
      "stateMutability": "view",
      "type": "function"
    },
    {
      "inputs": [],
      "name": "totalStaked",
      "outputs": [
        {
          "internalType": "uint256",
          "name": "",
          "type": "uint256"
        }
      ],
      "stateMutability": "view",
      "type": "function"
    },
    {
      "inputs": [],
      "name": "totalSupply",
      "outputs": [
        {
          "internalType": "uint256",
          "name": "",
          "type": "uint256"
        }
      ],
      "stateMutability": "view",
      "type": "function"
    },
    {
      "inputs": [
        {
          "internalType": "address",
          "name": "_recipient",
          "type": "address"
        },
        {
          "internalType": "uint256",
          "name": "_amount",
          "type": "uint256"
        }
      ],
      "name": "transfer",
      "outputs": [
        {
          "internalType": "bool",
          "name": "",
          "type": "bool"
        }
      ],
      "stateMutability": "nonpayable",
      "type": "function"
    },
    {
      "inputs": [
        {
          "internalType": "address",
          "name": "_sender",
          "type": "address"
        },
        {
          "internalType": "address",
          "name": "_recipient",
          "type": "address"
        },
        {
          "internalType": "uint256",
          "name": "_amount",
          "type": "uint256"
        }
      ],
      "name": "transferFrom",
      "outputs": [
        {
          "internalType": "bool",
          "name": "",
          "type": "bool"
        }
      ],
      "stateMutability": "nonpayable",
      "type": "function"
    },
    {
      "inputs": [
        {
          "internalType": "address",
          "name": "_token",
          "type": "address"
        },
        {
          "internalType": "address",
          "name": "_account",
          "type": "address"
        },
        {
          "internalType": "uint256",
          "name": "_amount",
          "type": "uint256"
        }
      ],
      "name": "withdrawToken",
      "outputs": [],
      "stateMutability": "nonpayable",
      "type": "function"
    },
    {
      "inputs": [
        {
          "internalType": "uint256",
          "name": "",
          "type": "uint256"
        }
      ],
      "name": "yieldTrackers",
      "outputs": [
        {
          "internalType": "address",
          "name": "",
          "type": "address"
        }
      ],
      "stateMutability": "view",
      "type": "function"
    }
  ],
  "bytecode": "0x608060405234801561001057600080fd5b506040516122f93803806122f983398101604081905261002f91610307565b828282600061003e8482610402565b50600161004b8382610402565b50600480546001600160a01b0319163390811790915561006b9082610076565b5050505050506104f7565b6001600160a01b0382166100dc5760405162461bcd60e51b815260206004820152602360248201527f42617365546f6b656e3a206d696e7420746f20746865207a65726f206164647260448201526265737360e81b606482015260840160405180910390fd5b6100e58261019b565b6002546100f29082610239565b6002556001600160a01b0382166000908152600560205260409020546101189082610239565b6001600160a01b03831660009081526005602090815260408083209390935560089052205460ff1615610156576003546101529082610239565b6003555b6040518181526001600160a01b038316906000907fddf252ad1be2c89b69c2b068fc378daa952ba7f163c4a11628f55a4df523b3ef9060200160405180910390a35050565b60005b600754811015610235576000600782815481106101bd576101bd6104c0565b600091825260209091200154604051635fd6196560e01b81526001600160a01b03858116600483015290911691508190635fd6196590602401600060405180830381600087803b15801561021057600080fd5b505af1158015610224573d6000803e3d6000fd5b50506001909301925061019e915050565b5050565b600061024582846104d6565b90505b92915050565b634e487b7160e01b600052604160045260246000fd5b600082601f83011261027557600080fd5b81516001600160401b0381111561028e5761028e61024e565b604051601f8201601f19908116603f011681016001600160401b03811182821017156102bc576102bc61024e565b6040528181528382016020018510156102d457600080fd5b60005b828110156102f3576020818601810151838301820152016102d7565b506000918101602001919091529392505050565b60008060006060848603121561031c57600080fd5b83516001600160401b0381111561033257600080fd5b61033e86828701610264565b602086015190945090506001600160401b0381111561035c57600080fd5b61036886828701610264565b925050604084015190509250925092565b600181811c9082168061038d57607f821691505b6020821081036103ad57634e487b7160e01b600052602260045260246000fd5b50919050565b601f8211156103fd57806000526020600020601f840160051c810160208510156103da5750805b601f840160051c820191505b818110156103fa57600081556001016103e6565b50505b505050565b81516001600160401b0381111561041b5761041b61024e565b61042f816104298454610379565b846103b3565b6020601f821160018114610463576000831561044b5750848201515b600019600385901b1c1916600184901b1784556103fa565b600084815260208120601f198516915b828110156104935787850151825560209485019460019092019101610473565b50848210156104b15786840151600019600387901b60f8161c191681555b50505050600190811b01905550565b634e487b7160e01b600052603260045260246000fd5b8082018082111561024857634e487b7160e01b600052601160045260246000fd5b611df3806105066000396000f3fe608060405234801561001057600080fd5b50600436106101ac5760003560e01c806301e33667146101b157806306fdde03146101c6578063095ea7b3146101e457806312d43a51146102075780631785f53c1461022757806318160ddd1461023a5780631e83409a1461025157806323b872dd14610264578063276eab4e1461027757806327e235e31461028a578063313ce567146102aa57806340c10f19146102c4578063429b62e5146102d757806346ea87af146102fa57806352cd38d91461031d57806355b6ed5c146103305780635a47a1a71461035b578063602172671461036e5780636228907714610381578063704802751461039457806370a08231146103a7578063817b1cd2146103d05780639554381a146103d857806395d89b41146103fb578063996f11ee146104035780639cb7de4b146104165780639dc29fac14610429578063a9059cbb1461043c578063a923fc401461044f578063aa271e1a14610462578063c93be63614610485578063cf456ae71461048e578063cfad57a2146104a1578063dd62ed3e146104b4578063dfbaefb1146104ed578063fb30d916146104fa575b600080fd5b6101c46101bf366004611758565b61050d565b005b6101ce610559565b6040516101db91906117b9565b60405180910390f35b6101f76101f23660046117ec565b6105e7565b60405190151581526020016101db565b60045461021a906001600160a01b031681565b6040516101db9190611816565b6101c461023536600461182a565b6105fe565b61024360025481565b6040519081526020016101db565b6101c461025f36600461182a565b610649565b6101f7610272366004611758565b6106fa565b6101c461028536600461188b565b610794565b61024361029836600461182a565b60056020526000908152604090205481565b6102b2601281565b60405160ff90911681526020016101db565b6101c46102d23660046117ec565b6107d1565b6101f76102e536600461182a565b60096020526000908152604090205460ff1681565b6101f761030836600461182a565b600b6020526000908152604090205460ff1681565b61021a61032b366004611932565b61080a565b61024361033e36600461194b565b600660209081526000928352604080842090915290825290205481565b6101c461036936600461198f565b610834565b61024361037c36600461182a565b610871565b6101c461038f36600461182a565b6108b6565b6101c46103a236600461182a565b6109a2565b6102436103b536600461182a565b6001600160a01b031660009081526005602052604090205490565b6102436109f0565b6101f76103e636600461182a565b60086020526000908152604090205460ff1681565b6101ce610a0e565b6101c461041136600461194b565b610a1b565b6101c46104243660046119ac565b610af7565b6101c46104373660046117ec565b610b4c565b6101f761044a3660046117ec565b610b85565b6101c461045d366004611a52565b610b92565b6101f761047036600461182a565b600c6020526000908152604090205460ff1681565b61024360035481565b6101c461049c3660046119ac565b610bd5565b6101c46104af36600461182a565b610c2a565b6102436104c236600461194b565b6001600160a01b03918216600090815260066020908152604080832093909416825291909152205490565b600a546101f79060ff1681565b6101c461050836600461182a565b610c76565b6004546001600160a01b031633146105405760405162461bcd60e51b815260040161053790611ab9565b60405180910390fd5b6105546001600160a01b0384168383610d4d565b505050565b6000805461056690611ae7565b80601f016020809104026020016040519081016040528092919081815260200182805461059290611ae7565b80156105df5780601f106105b4576101008083540402835291602001916105df565b820191906000526020600020905b8154815290600101906020018083116105c257829003601f168201915b505050505081565b60006105f4338484610d9f565b5060015b92915050565b6004546001600160a01b031633146106285760405162461bcd60e51b815260040161053790611ab9565b6001600160a01b03166000908152600960205260409020805460ff19169055565b60005b6007548110156106f65760006007828154811061066b5761066b611b21565b6000918252602090912001546040516310e059a160e11b81526001600160a01b03909116915081906321c0b342906106a99033908790600401611b37565b6020604051808303816000875af11580156106c8573d6000803e3d6000fd5b505050506040513d601f19601f820116820180604052508101906106ec9190611b51565b505060010161064c565b5050565b336000908152600b602052604081205460ff16156107255761071d848484610ecd565b50600161078d565b600061076f836040518060600160405280602c8152602001611d22602c91396001600160a01b0388166000908152600660209081526040808320338452909152902054919061113b565b905061077c853383610d9f565b610787858585610ecd565b60019150505b9392505050565b6004546001600160a01b031633146107be5760405162461bcd60e51b815260040161053790611ab9565b80516106f69060079060208401906116c2565b336000908152600c602052604090205460ff166108005760405162461bcd60e51b815260040161053790611b6a565b6106f68282611167565b6007818154811061081a57600080fd5b6000918252602090912001546001600160a01b0316905081565b6004546001600160a01b0316331461085e5760405162461bcd60e51b815260040161053790611ab9565b600a805460ff1916911515919091179055565b6001600160a01b03811660009081526008602052604081205460ff161561089a57506000919050565b506001600160a01b031660009081526005602052604090205490565b3360009081526009602052604090205460ff166108e55760405162461bcd60e51b815260040161053790611ab9565b6001600160a01b03811660009081526008602052604090205460ff16156109595760405162461bcd60e51b815260206004820152602260248201527f42617365546f6b656e3a205f6163636f756e7420616c7265616479206d61726b604482015261195960f21b6064820152608401610537565b61096281611277565b6001600160a01b0381166000908152600860209081526040808320805460ff19166001179055600590915290205460035461099c91611314565b60035550565b6004546001600160a01b031633146109cc5760405162461bcd60e51b815260040161053790611ab9565b6001600160a01b03166000908152600960205260409020805460ff19166001179055565b6000610a0960035460025461132090919063ffffffff16565b905090565b6001805461056690611ae7565b3360009081526009602052604090205460ff16610a4a5760405162461bcd60e51b815260040161053790611ab9565b60005b60075481101561055457600060078281548110610a6c57610a6c611b21565b6000918252602090912001546040516310e059a160e11b81526001600160a01b03909116915081906321c0b34290610aaa9087908790600401611b37565b6020604051808303816000875af1158015610ac9573d6000803e3d6000fd5b505050506040513d601f19601f82011682018060405250810190610aed9190611b51565b5050600101610a4d565b6004546001600160a01b03163314610b215760405162461bcd60e51b815260040161053790611ab9565b6001600160a01b03919091166000908152600b60205260409020805460ff1916911515919091179055565b336000908152600c602052604090205460ff16610b7b5760405162461bcd60e51b815260040161053790611b6a565b6106f6828261132c565b60006105f4338484610ecd565b6004546001600160a01b03163314610bbc5760405162461bcd60e51b815260040161053790611ab9565b6000610bc88382611bee565b5060016105548282611bee565b6004546001600160a01b03163314610bff5760405162461bcd60e51b815260040161053790611ab9565b6001600160a01b03919091166000908152600c60205260409020805460ff1916911515919091179055565b6004546001600160a01b03163314610c545760405162461bcd60e51b815260040161053790611ab9565b600480546001600160a01b0319166001600160a01b0392909216919091179055565b3360009081526009602052604090205460ff16610ca55760405162461bcd60e51b815260040161053790611ab9565b6001600160a01b03811660009081526008602052604090205460ff16610d0d5760405162461bcd60e51b815260206004820152601e60248201527f42617365546f6b656e3a205f6163636f756e74206e6f74206d61726b656400006044820152606401610537565b610d1681611277565b6001600160a01b0381166000908152600860209081526040808320805460ff19169055600590915290205460035461099c91611320565b604080516001600160a01b038416602482015260448082018490528251808303909101815260649091019091526020810180516001600160e01b031663a9059cbb60e01b17905261055490849061145d565b6001600160a01b038316610e065760405162461bcd60e51b815260206004820152602860248201527f42617365546f6b656e3a20617070726f76652066726f6d20746865207a65726f604482015267206164647265737360c01b6064820152608401610537565b6001600160a01b038216610e6b5760405162461bcd60e51b815260206004820152602660248201527f42617365546f6b656e3a20617070726f766520746f20746865207a65726f206160448201526564647265737360d01b6064820152608401610537565b6001600160a01b0383811660008181526006602090815260408083209487168084529482529182902085905590518481527f8c5be1e5ebec7d5bd14f71427d1e84f3dd0314c0f7b2291e5b200ac8c7c3b92591015b60405180910390a3505050565b6001600160a01b038316610f355760405162461bcd60e51b815260206004820152602960248201527f42617365546f6b656e3a207472616e736665722066726f6d20746865207a65726044820152686f206164647265737360b81b6064820152608401610537565b6001600160a01b038216610f9b5760405162461bcd60e51b815260206004820152602760248201527f42617365546f6b656e3a207472616e7366657220746f20746865207a65726f206044820152666164647265737360c81b6064820152608401610537565b600a5460ff161561101357336000908152600b602052604090205460ff166110135760405162461bcd60e51b815260206004820152602560248201527f42617365546f6b656e3a206d73672e73656e646572206e6f742077686974656c6044820152641a5cdd195960da1b6064820152608401610537565b61101c83611277565b61102582611277565b611062816040518060600160405280602a8152602001611d4e602a91396001600160a01b038616600090815260056020526040902054919061113b565b6001600160a01b0380851660009081526005602052604080822093909355908416815220546110919082611314565b6001600160a01b0380841660009081526005602090815260408083209490945591861681526008909152205460ff16156110d6576003546110d29082611320565b6003555b6001600160a01b03821660009081526008602052604090205460ff1615611108576003546111049082611314565b6003555b816001600160a01b0316836001600160a01b0316600080516020611d7883398151915283604051610ec091815260200190565b6000818484111561115f5760405162461bcd60e51b815260040161053791906117b9565b505050900390565b6001600160a01b0382166111c95760405162461bcd60e51b815260206004820152602360248201527f42617365546f6b656e3a206d696e7420746f20746865207a65726f206164647260448201526265737360e81b6064820152608401610537565b6111d282611277565b6002546111df9082611314565b6002556001600160a01b0382166000908152600560205260409020546112059082611314565b6001600160a01b03831660009081526005602090815260408083209390935560089052205460ff16156112435760035461123f9082611314565b6003555b6040518181526001600160a01b03831690600090600080516020611d78833981519152906020015b60405180910390a35050565b60005b6007548110156106f65760006007828154811061129957611299611b21565b600091825260209091200154604051635fd6196560e01b81526001600160a01b0390911691508190635fd61965906112d5908690600401611816565b600060405180830381600087803b1580156112ef57600080fd5b505af1158015611303573d6000803e3d6000fd5b50506001909301925061127a915050565b600061078d8284611cc2565b600061078d8284611cd5565b6001600160a01b0382166113905760405162461bcd60e51b815260206004820152602560248201527f42617365546f6b656e3a206275726e2066726f6d20746865207a65726f206164604482015264647265737360d81b6064820152608401610537565b61139982611277565b6113d681604051806060016040528060268152602001611d98602691396001600160a01b038516600090815260056020526040902054919061113b565b6001600160a01b0383166000908152600560205260409020556002546113fc9082611320565b6002556001600160a01b03821660009081526008602052604090205460ff16156114315760035461142d9082611320565b6003555b6040518181526000906001600160a01b03841690600080516020611d788339815191529060200161126b565b60006114b2826040518060400160405280602081526020017f5361666545524332303a206c6f772d6c6576656c2063616c6c206661696c6564815250856001600160a01b03166115329092919063ffffffff16565b90508051600014806114d35750808060200190518101906114d39190611ce8565b6105545760405162461bcd60e51b815260206004820152602a60248201527f5361666545524332303a204552433230206f7065726174696f6e20646964206e6044820152691bdd081cdd58d8d9595960b21b6064820152608401610537565b60606115418484600085611549565b949350505050565b6060824710156115aa5760405162461bcd60e51b815260206004820152602660248201527f416464726573733a20696e73756666696369656e742062616c616e636520666f6044820152651c8818d85b1b60d21b6064820152608401610537565b600080866001600160a01b031685876040516115c69190611d05565b60006040518083038185875af1925050503d8060008114611603576040519150601f19603f3d011682016040523d82523d6000602084013e611608565b606091505b509150915061161987838387611624565b979650505050505050565b6060831561169357825160000361168c576001600160a01b0385163b61168c5760405162461bcd60e51b815260206004820152601d60248201527f416464726573733a2063616c6c20746f206e6f6e2d636f6e74726163740000006044820152606401610537565b5081611541565b61154183838151156116a85781518083602001fd5b8060405162461bcd60e51b815260040161053791906117b9565b828054828255906000526020600020908101928215611717579160200282015b8281111561171757825182546001600160a01b0319166001600160a01b039091161782556020909201916001909101906116e2565b50611723929150611727565b5090565b5b808211156117235760008155600101611728565b80356001600160a01b038116811461175357600080fd5b919050565b60008060006060848603121561176d57600080fd5b6117768461173c565b92506117846020850161173c565b929592945050506040919091013590565b60005b838110156117b0578181015183820152602001611798565b50506000910152565b60208152600082518060208401526117d8816040850160208701611795565b601f01601f19169190910160400192915050565b600080604083850312156117ff57600080fd5b6118088361173c565b946020939093013593505050565b6001600160a01b0391909116815260200190565b60006020828403121561183c57600080fd5b61078d8261173c565b634e487b7160e01b600052604160045260246000fd5b604051601f8201601f191681016001600160401b038111828210171561188357611883611845565b604052919050565b60006020828403121561189d57600080fd5b81356001600160401b038111156118b357600080fd5b8201601f810184136118c457600080fd5b80356001600160401b038111156118dd576118dd611845565b8060051b6118ed6020820161185b565b9182526020818401810192908101908784111561190957600080fd5b6020850194505b83851015611619576119218561173c565b825260209485019490910190611910565b60006020828403121561194457600080fd5b5035919050565b6000806040838503121561195e57600080fd5b6119678361173c565b91506119756020840161173c565b90509250929050565b801515811461198c57600080fd5b50565b6000602082840312156119a157600080fd5b813561078d8161197e565b600080604083850312156119bf57600080fd5b6119c88361173c565b915060208301356119d88161197e565b809150509250929050565b600082601f8301126119f457600080fd5b81356001600160401b03811115611a0d57611a0d611845565b611a20601f8201601f191660200161185b565b818152846020838601011115611a3557600080fd5b816020850160208301376000918101602001919091529392505050565b60008060408385031215611a6557600080fd5b82356001600160401b03811115611a7b57600080fd5b611a87858286016119e3565b92505060208301356001600160401b03811115611aa357600080fd5b611aaf858286016119e3565b9150509250929050565b6020808252601490820152732130b9b2aa37b5b2b71d103337b93134b23232b760611b604082015260600190565b600181811c90821680611afb57607f821691505b602082108103611b1b57634e487b7160e01b600052602260045260246000fd5b50919050565b634e487b7160e01b600052603260045260246000fd5b6001600160a01b0392831681529116602082015260400190565b600060208284031215611b6357600080fd5b5051919050565b6020808252601c908201527b26b4b73a30b13632a130b9b2aa37b5b2b71d103337b93134b23232b760211b604082015260600190565b601f82111561055457806000526020600020601f840160051c81016020851015611bc75750805b601f840160051c820191505b81811015611be75760008155600101611bd3565b5050505050565b81516001600160401b03811115611c0757611c07611845565b611c1b81611c158454611ae7565b84611ba0565b6020601f821160018114611c4f5760008315611c375750848201515b600019600385901b1c1916600184901b178455611be7565b600084815260208120601f198516915b82811015611c7f5787850151825560209485019460019092019101611c5f565b5084821015611c9d5786840151600019600387901b60f8161c191681555b50505050600190811b01905550565b634e487b7160e01b600052601160045260246000fd5b808201808211156105f8576105f8611cac565b818103818111156105f8576105f8611cac565b600060208284031215611cfa57600080fd5b815161078d8161197e565b60008251611d17818460208701611795565b919091019291505056fe42617365546f6b656e3a207472616e7366657220616d6f756e74206578636565647320616c6c6f77616e636542617365546f6b656e3a207472616e7366657220616d6f756e7420657863656564732062616c616e6365ddf252ad1be2c89b69c2b068fc378daa952ba7f163c4a11628f55a4df523b3ef42617365546f6b656e3a206275726e20616d6f756e7420657863656564732062616c616e6365a2646970667358221220362feaa7b1e6b7ddd48f7cfdc370ed384a9bb782029eb31ce2ee3d11a23b4d0664736f6c634300081a0033",
  "linkReferences": {},
  "deployedLinkReferences": {}
}