{
  "_format": "hh-sol-artifact-1",
  "contractName": "CounterTest",
  "sourceName": "contracts/test/AssemblyReturnTest.sol",
  "abi": [
    {
      "inputs": [],
      "name": "count",
      "outputs": [
        {
          "internalType": "uint256",
          "name": "",
          "type": "uint256"
        }
      ],
      "stateMutability": "view",
      "type": "function"
    },
    {
      "inputs": [],
      "name": "increment",
      "outputs": [],
      "stateMutability": "nonpayable",
      "type": "function"
    }
  ],
  "bytecode": "0x60806040526001600055348015601457600080fd5b5060cc8060226000396000f3fe6080604052348015600f57600080fd5b506004361060325760003560e01c806306661abd146037578063d09de08a146051575b600080fd5b603f60005481565b60405190815260200160405180910390f35b60576059565b005b6000805490806066836070565b9190505560206040f35b600060018201608f57634e487b7160e01b600052601160045260246000fd5b506001019056fea2646970667358221220d5eb4a959613ca0711ed3eb495f5a6538bd704999cf6dcace2944762ce7128b564736f6c634300081a0033",
  "linkReferences": {},
  "deployedLinkReferences": {}
}