{
  "_format": "hh-sol-artifact-1",
  "contractName": "TimeDistributor",
  "sourceName": "contracts/tokens/TimeDistributor.sol",
  "abi": [
    {
      "inputs": [],
      "stateMutability": "nonpayable",
      "type": "constructor"
    },
    {
      "anonymous": false,
      "inputs": [
        {
          "indexed": false,
          "internalType": "address",
          "name": "receiver",
          "type": "address"
        },
        {
          "indexed": false,
          "internalType": "uint256",
          "name": "amount",
          "type": "uint256"
        }
      ],
      "name": "Distribute",
      "type": "event"
    },
    {
      "anonymous": false,
      "inputs": [
        {
          "indexed": false,
          "internalType": "address",
          "name": "receiver",
          "type": "address"
        },
        {
          "indexed": false,
          "internalType": "uint256",
          "name": "amount",
          "type": "uint256"
        },
        {
          "indexed": false,
          "internalType": "address",
          "name": "rewardToken",
          "type": "address"
        }
      ],
      "name": "DistributionChange",
      "type": "event"
    },
    {
      "anonymous": false,
      "inputs": [
        {
          "indexed": false,
          "internalType": "address",
          "name": "receiver",
          "type": "address"
        },
        {
          "indexed": false,
          "internalType": "uint256",
          "name": "amount",
          "type": "uint256"
        }
      ],
      "name": "TokensPerIntervalChange",
      "type": "event"
    },
    {
      "inputs": [],
      "name": "DISTRIBUTION_INTERVAL",
      "outputs": [
        {
          "internalType": "uint256",
          "name": "",
          "type": "uint256"
        }
      ],
      "stateMutability": "view",
      "type": "function"
    },
    {
      "inputs": [],
      "name": "admin",
      "outputs": [
        {
          "internalType": "address",
          "name": "",
          "type": "address"
        }
      ],
      "stateMutability": "view",
      "type": "function"
    },
    {
      "inputs": [],
      "name": "distribute",
      "outputs": [
        {
          "internalType": "uint256",
          "name": "",
          "type": "uint256"
        }
      ],
      "stateMutability": "nonpayable",
      "type": "function"
    },
    {
      "inputs": [
        {
          "internalType": "address",
          "name": "_receiver",
          "type": "address"
        }
      ],
      "name": "getDistributionAmount",
      "outputs": [
        {
          "internalType": "uint256",
          "name": "",
          "type": "uint256"
        }
      ],
      "stateMutability": "view",
      "type": "function"
    },
    {
      "inputs": [
        {
          "internalType": "address",
          "name": "_receiver",
          "type": "address"
        }
      ],
      "name": "getIntervals",
      "outputs": [
        {
          "internalType": "uint256",
          "name": "",
          "type": "uint256"
        }
      ],
      "stateMutability": "view",
      "type": "function"
    },
    {
      "inputs": [
        {
          "internalType": "address",
          "name": "_receiver",
          "type": "address"
        }
      ],
      "name": "getRewardToken",
      "outputs": [
        {
          "internalType": "address",
          "name": "",
          "type": "address"
        }
      ],
      "stateMutability": "view",
      "type": "function"
    },
    {
      "inputs": [],
      "name": "gov",
      "outputs": [
        {
          "internalType": "address",
          "name": "",
          "type": "address"
        }
      ],
      "stateMutability": "view",
      "type": "function"
    },
    {
      "inputs": [
        {
          "internalType": "address",
          "name": "",
          "type": "address"
        }
      ],
      "name": "lastDistributionTime",
      "outputs": [
        {
          "internalType": "uint256",
          "name": "",
          "type": "uint256"
        }
      ],
      "stateMutability": "view",
      "type": "function"
    },
    {
      "inputs": [
        {
          "internalType": "address",
          "name": "",
          "type": "address"
        }
      ],
      "name": "rewardTokens",
      "outputs": [
        {
          "internalType": "address",
          "name": "",
          "type": "address"
        }
      ],
      "stateMutability": "view",
      "type": "function"
    },
    {
      "inputs": [
        {
          "internalType": "address[]",
          "name": "_receivers",
          "type": "address[]"
        },
        {
          "internalType": "uint256[]",
          "name": "_amounts",
          "type": "uint256[]"
        },
        {
          "internalType": "address[]",
          "name": "_rewardTokens",
          "type": "address[]"
        }
      ],
      "name": "setDistribution",
      "outputs": [],
      "stateMutability": "nonpayable",
      "type": "function"
    },
    {
      "inputs": [
        {
          "internalType": "address",
          "name": "_gov",
          "type": "address"
        }
      ],
      "name": "setGov",
      "outputs": [],
      "stateMutability": "nonpayable",
      "type": "function"
    },
    {
      "inputs": [
        {
          "internalType": "address",
          "name": "_receiver",
          "type": "address"
        },
        {
          "internalType": "uint256",
          "name": "_amount",
          "type": "uint256"
        }
      ],
      "name": "setTokensPerInterval",
      "outputs": [],
      "stateMutability": "nonpayable",
      "type": "function"
    },
    {
      "inputs": [
        {
          "internalType": "address",
          "name": "",
          "type": "address"
        }
      ],
      "name": "tokensPerInterval",
      "outputs": [
        {
          "internalType": "uint256",
          "name": "",
          "type": "uint256"
        }
      ],
      "stateMutability": "view",
      "type": "function"
    },
    {
      "inputs": [
        {
          "internalType": "address",
          "name": "_receiver",
          "type": "address"
        }
      ],
      "name": "updateLastDistributionTime",
      "outputs": [],
      "stateMutability": "nonpayable",
      "type": "function"
    }
  ],
  "bytecode": "0x6080604052348015600f57600080fd5b5060008054336001600160a01b03199182168117835560018054909216179055610ce290819061003f90396000f3fe608060405234801561001057600080fd5b50600436106100ba5760003560e01c806308b26b75146100bf57806312d43a51146100db57806319f7ab45146100fb578063270da2401461011057806341d0204b14610130578063770788721461014357806383b3dd241461016f578063847ec40c14610182578063b7fba9f6146101a2578063c27a1acd146101b5578063cfad57a2146101c8578063e4fc6b6d146101db578063f5ab16cc146101e3578063f851a4401461020c575b600080fd5b6100c8610e1081565b6040519081526020015b60405180910390f35b6000546100ee906001600160a01b031681565b6040516100d29190610991565b61010e6101093660046109c1565b61021f565b005b6100c861011e3660046109c1565b60036020526000908152604090205481565b61010e61013e366004610a27565b61025e565b6100ee6101513660046109c1565b6001600160a01b039081166000908152600260205260409020541690565b61010e61017d366004610aca565b6103f4565b6100c86101903660046109c1565b60046020526000908152604090205481565b6100c86101b03660046109c1565b6104ca565b6100c86101c33660046109c1565b6105aa565b61010e6101d63660046109c1565b6105e5565b6100c8610631565b6100ee6101f13660046109c1565b6002602052600090815260409020546001600160a01b031681565b6001546100ee906001600160a01b031681565b6001546001600160a01b031633146102525760405162461bcd60e51b815260040161024990610af4565b60405180910390fd5b61025b816106df565b50565b6000546001600160a01b031633146102885760405162461bcd60e51b815260040161024990610af4565b60005b858110156103eb5760008787838181106102a7576102a7610b28565b90506020020160208101906102bc91906109c1565b6001600160a01b0381166000908152600460205260409020549091501561030a5760006102e8826105aa565b905080156103085760405162461bcd60e51b815260040161024990610b3e565b505b600086868481811061031e5761031e610b28565b905060200201359050600085858581811061033b5761033b610b28565b905060200201602081019061035091906109c1565b6001600160a01b0384811660009081526003602090815260408083208790556002909152902080546001600160a01b0319169183169190911790559050610396836106df565b604080516001600160a01b0385811682526020820185905283168183015290517fabc51c16142cb4f85965fa5b3cfdeed4475e4751d9201718a2bfc334c152f6149181900360600190a150505060010161028b565b50505050505050565b6001546001600160a01b0316331461041e5760405162461bcd60e51b815260040161024990610af4565b6001600160a01b03821660009081526004602052604090205415610469576000610447836105aa565b905080156104675760405162461bcd60e51b815260040161024990610b3e565b505b6001600160a01b038216600090815260036020526040902081905561048d826106df565b7f83a9322775b48550bbef762b82384c8ed0b747ff4c37188bd3bb72e3c7cca82382826040516104be929190610b83565b60405180910390a15050565b6001600160a01b0381166000908152600360205260408120548082036104f35750600092915050565b60006104fe846105aa565b9050600061050c8383610711565b6001600160a01b03808716600090815260026020526040908190205490516370a0823160e01b815292935083929116906370a0823190610550903090600401610991565b602060405180830381865afa15801561056d573d6000803e3d6000fd5b505050506040513d601f19601f820116820180604052508101906105919190610b9c565b10156105a257506000949350505050565b949350505050565b6001600160a01b03811660009081526004602052604081205481906105d0904290610726565b90506105de81610e10610732565b9392505050565b6000546001600160a01b0316331461060f5760405162461bcd60e51b815260040161024990610af4565b600080546001600160a01b0319166001600160a01b0392909216919091179055565b6000338161063e826105aa565b9050806000036106515760009250505090565b600061065c836104ca565b9050610667836106df565b80600003610679576000935050505090565b6001600160a01b0380841660009081526002602052604090205461069f9116848361073e565b7fc1d32ad5cca423e7dda2123dbf8c482f8e77d00b631c06e903a47f2cec1334df83826040516106d0929190610b83565b60405180910390a19392505050565b6106f5610e106106ef4282610732565b90610711565b6001600160a01b03909116600090815260046020526040902055565b600061071d8284610bcb565b90505b92915050565b600061071d8284610be2565b600061071d8284610bf5565b6107948363a9059cbb60e01b848460405160240161075d929190610b83565b60408051601f198184030181529190526020810180516001600160e01b03166001600160e01b031990931692909217909152610799565b505050565b60006107ee826040518060400160405280602081526020017f5361666545524332303a206c6f772d6c6576656c2063616c6c206661696c6564815250856001600160a01b031661086e9092919063ffffffff16565b905080516000148061080f57508080602001905181019061080f9190610c17565b6107945760405162461bcd60e51b815260206004820152602a60248201527f5361666545524332303a204552433230206f7065726174696f6e20646964206e6044820152691bdd081cdd58d8d9595960b21b6064820152608401610249565b60606105a2848460008585600080866001600160a01b031685876040516108959190610c5d565b60006040518083038185875af1925050503d80600081146108d2576040519150601f19603f3d011682016040523d82523d6000602084013e6108d7565b606091505b50915091506108e8878383876108f3565b979650505050505050565b6060831561096257825160000361095b576001600160a01b0385163b61095b5760405162461bcd60e51b815260206004820152601d60248201527f416464726573733a2063616c6c20746f206e6f6e2d636f6e74726163740000006044820152606401610249565b50816105a2565b6105a283838151156109775781518083602001fd5b8060405162461bcd60e51b81526004016102499190610c79565b6001600160a01b0391909116815260200190565b80356001600160a01b03811681146109bc57600080fd5b919050565b6000602082840312156109d357600080fd5b61071d826109a5565b60008083601f8401126109ee57600080fd5b5081356001600160401b03811115610a0557600080fd5b6020830191508360208260051b8501011115610a2057600080fd5b9250929050565b60008060008060008060608789031215610a4057600080fd5b86356001600160401b03811115610a5657600080fd5b610a6289828a016109dc565b90975095505060208701356001600160401b03811115610a8157600080fd5b610a8d89828a016109dc565b90955093505060408701356001600160401b03811115610aac57600080fd5b610ab889828a016109dc565b979a9699509497509295939492505050565b60008060408385031215610add57600080fd5b610ae6836109a5565b946020939093013593505050565b6020808252601a90820152792a34b6b2a234b9ba3934b13aba37b91d103337b93134b23232b760311b604082015260600190565b634e487b7160e01b600052603260045260246000fd5b60208082526025908201527f54696d654469737472696275746f723a2070656e64696e6720646973747269626040820152643aba34b7b760d91b606082015260800190565b6001600160a01b03929092168252602082015260400190565b600060208284031215610bae57600080fd5b5051919050565b634e487b7160e01b600052601160045260246000fd5b808202811582820484141761072057610720610bb5565b8181038181111561072057610720610bb5565b600082610c1257634e487b7160e01b600052601260045260246000fd5b500490565b600060208284031215610c2957600080fd5b815180151581146105de57600080fd5b60005b83811015610c54578181015183820152602001610c3c565b50506000910152565b60008251610c6f818460208701610c39565b9190910192915050565b6020815260008251806020840152610c98816040850160208701610c39565b601f01601f1916919091016040019291505056fea26469706673582212207e30e59580761c0684175b73f095bfa826e05e02cae5e243f4eebf0fab9fdb0c64736f6c634300081a0033",
  "linkReferences": {},
  "deployedLinkReferences": {}
}