{
  "_format": "hh-sol-artifact-1",
  "contractName": "DepositHandler",
  "sourceName": "contracts/exchange/DepositHandler.sol",
  "abi": [
    {
      "inputs": [
        {
          "internalType": "contract RoleStore",
          "name": "_roleStore",
          "type": "address"
        },
        {
          "internalType": "contract DataStore",
          "name": "_dataStore",
          "type": "address"
        },
        {
          "internalType": "contract EventEmitter",
          "name": "_eventEmitter",
          "type": "address"
        },
        {
          "internalType": "contract DepositVault",
          "name": "_depositVault",
          "type": "address"
        },
        {
          "internalType": "contract Oracle",
          "name": "_oracle",
          "type": "address"
        }
      ],
      "stateMutability": "nonpayable",
      "type": "constructor"
    },
    {
      "inputs": [
        {
          "internalType": "uint256[]",
          "name": "compactedValues",
          "type": "uint256[]"
        },
        {
          "internalType": "uint256",
          "name": "index",
          "type": "uint256"
        },
        {
          "internalType": "uint256",
          "name": "slotIndex",
          "type": "uint256"
        },
        {
          "internalType": "string",
          "name": "label",
          "type": "string"
        }
      ],
      "name": "CompactedArrayOutOfBounds",
      "type": "error"
    },
    {
      "inputs": [
        {
          "internalType": "bytes32",
          "name": "key",
          "type": "bytes32"
        }
      ],
      "name": "DisabledFeature",
      "type": "error"
    },
    {
      "inputs": [
        {
          "internalType": "uint256",
          "name": "index",
          "type": "uint256"
        }
      ],
      "name": "EmptyCompactedBlockNumber",
      "type": "error"
    },
    {
      "inputs": [],
      "name": "EndOfOracleSimulation",
      "type": "error"
    },
    {
      "inputs": [
        {
          "internalType": "uint256",
          "name": "startingGas",
          "type": "uint256"
        },
        {
          "internalType": "uint256",
          "name": "estimatedGasLimit",
          "type": "uint256"
        },
        {
          "internalType": "uint256",
          "name": "minAdditionalGasForExecution",
          "type": "uint256"
        }
      ],
      "name": "InsufficientExecutionGas",
      "type": "error"
    },
    {
      "inputs": [
        {
          "internalType": "uint256",
          "name": "startingGas",
          "type": "uint256"
        },
        {
          "internalType": "uint256",
          "name": "minHandleErrorGas",
          "type": "uint256"
        }
      ],
      "name": "InsufficientExecutionGasForErrorHandling",
      "type": "error"
    },
    {
      "inputs": [
        {
          "internalType": "uint256",
          "name": "gas",
          "type": "uint256"
        },
        {
          "internalType": "uint256",
          "name": "minHandleExecutionErrorGas",
          "type": "uint256"
        }
      ],
      "name": "InsufficientHandleExecutionErrorGas",
      "type": "error"
    },
    {
      "inputs": [
        {
          "internalType": "uint256",
          "name": "primaryTokensLength",
          "type": "uint256"
        },
        {
          "internalType": "uint256",
          "name": "primaryPricesLength",
          "type": "uint256"
        }
      ],
      "name": "InvalidPrimaryPricesForSimulation",
      "type": "error"
    },
    {
      "inputs": [
        {
          "internalType": "uint256",
          "name": "requestAge",
          "type": "uint256"
        },
        {
          "internalType": "uint256",
          "name": "requestExpirationAge",
          "type": "uint256"
        },
        {
          "internalType": "string",
          "name": "requestType",
          "type": "string"
        }
      ],
      "name": "RequestNotYetCancellable",
      "type": "error"
    },
    {
      "inputs": [
        {
          "internalType": "address",
          "name": "msgSender",
          "type": "address"
        },
        {
          "internalType": "string",
          "name": "role",
          "type": "string"
        }
      ],
      "name": "Unauthorized",
      "type": "error"
    },
    {
      "inputs": [
        {
          "internalType": "uint256",
          "name": "oracleBlockNumberType",
          "type": "uint256"
        }
      ],
      "name": "UnsupportedOracleBlockNumberType",
      "type": "error"
    },
    {
      "anonymous": false,
      "inputs": [
        {
          "indexed": false,
          "internalType": "string",
          "name": "reason",
          "type": "string"
        }
      ],
      "name": "OracleError",
      "type": "event"
    },
    {
      "inputs": [
        {
          "internalType": "bytes32",
          "name": "key",
          "type": "bytes32"
        },
        {
          "components": [
            {
              "components": [
                {
                  "internalType": "address",
                  "name": "account",
                  "type": "address"
                },
                {
                  "internalType": "address",
                  "name": "receiver",
                  "type": "address"
                },
                {
                  "internalType": "address",
                  "name": "callbackContract",
                  "type": "address"
                },
                {
                  "internalType": "address",
                  "name": "uiFeeReceiver",
                  "type": "address"
                },
                {
                  "internalType": "address",
                  "name": "market",
                  "type": "address"
                },
                {
                  "internalType": "address",
                  "name": "initialLongToken",
                  "type": "address"
                },
                {
                  "internalType": "address",
                  "name": "initialShortToken",
                  "type": "address"
                },
                {
                  "internalType": "address[]",
                  "name": "longTokenSwapPath",
                  "type": "address[]"
                },
                {
                  "internalType": "address[]",
                  "name": "shortTokenSwapPath",
                  "type": "address[]"
                }
              ],
              "internalType": "struct Deposit.Addresses",
              "name": "addresses",
              "type": "tuple"
            },
            {
              "components": [
                {
                  "internalType": "uint256",
                  "name": "initialLongTokenAmount",
                  "type": "uint256"
                },
                {
                  "internalType": "uint256",
                  "name": "initialShortTokenAmount",
                  "type": "uint256"
                },
                {
                  "internalType": "uint256",
                  "name": "minMarketTokens",
                  "type": "uint256"
                },
                {
                  "internalType": "uint256",
                  "name": "updatedAtBlock",
                  "type": "uint256"
                },
                {
                  "internalType": "uint256",
                  "name": "executionFee",
                  "type": "uint256"
                },
                {
                  "internalType": "uint256",
                  "name": "callbackGasLimit",
                  "type": "uint256"
                }
              ],
              "internalType": "struct Deposit.Numbers",
              "name": "numbers",
              "type": "tuple"
            },
            {
              "components": [
                {
                  "internalType": "bool",
                  "name": "shouldUnwrapNativeToken",
                  "type": "bool"
                }
              ],
              "internalType": "struct Deposit.Flags",
              "name": "flags",
              "type": "tuple"
            }
          ],
          "internalType": "struct Deposit.Props",
          "name": "deposit",
          "type": "tuple"
        },
        {
          "components": [
            {
              "internalType": "uint256",
              "name": "signerInfo",
              "type": "uint256"
            },
            {
              "internalType": "address[]",
              "name": "tokens",
              "type": "address[]"
            },
            {
              "internalType": "uint256[]",
              "name": "compactedMinOracleBlockNumbers",
              "type": "uint256[]"
            },
            {
              "internalType": "uint256[]",
              "name": "compactedMaxOracleBlockNumbers",
              "type": "uint256[]"
            },
            {
              "internalType": "uint256[]",
              "name": "compactedOracleTimestamps",
              "type": "uint256[]"
            },
            {
              "internalType": "uint256[]",
              "name": "compactedDecimals",
              "type": "uint256[]"
            },
            {
              "internalType": "uint256[]",
              "name": "compactedMinPrices",
              "type": "uint256[]"
            },
            {
              "internalType": "uint256[]",
              "name": "compactedMinPricesIndexes",
              "type": "uint256[]"
            },
            {
              "internalType": "uint256[]",
              "name": "compactedMaxPrices",
              "type": "uint256[]"
            },
            {
              "internalType": "uint256[]",
              "name": "compactedMaxPricesIndexes",
              "type": "uint256[]"
            },
            {
              "internalType": "bytes[]",
              "name": "signatures",
              "type": "bytes[]"
            },
            {
              "internalType": "address[]",
              "name": "priceFeedTokens",
              "type": "address[]"
            },
            {
              "internalType": "address[]",
              "name": "realtimeFeedTokens",
              "type": "address[]"
            },
            {
              "internalType": "bytes[]",
              "name": "realtimeFeedData",
              "type": "bytes[]"
            }
          ],
          "internalType": "struct OracleUtils.SetPricesParams",
          "name": "oracleParams",
          "type": "tuple"
        },
        {
          "internalType": "address",
          "name": "keeper",
          "type": "address"
        }
      ],
      "name": "_executeDeposit",
      "outputs": [],
      "stateMutability": "nonpayable",
      "type": "function"
    },
    {
      "inputs": [
        {
          "internalType": "bytes32",
          "name": "key",
          "type": "bytes32"
        }
      ],
      "name": "cancelDeposit",
      "outputs": [],
      "stateMutability": "nonpayable",
      "type": "function"
    },
    {
      "inputs": [
        {
          "internalType": "address",
          "name": "account",
          "type": "address"
        },
        {
          "components": [
            {
              "internalType": "address",
              "name": "receiver",
              "type": "address"
            },
            {
              "internalType": "address",
              "name": "callbackContract",
              "type": "address"
            },
            {
              "internalType": "address",
              "name": "uiFeeReceiver",
              "type": "address"
            },
            {
              "internalType": "address",
              "name": "market",
              "type": "address"
            },
            {
              "internalType": "address",
              "name": "initialLongToken",
              "type": "address"
            },
            {
              "internalType": "address",
              "name": "initialShortToken",
              "type": "address"
            },
            {
              "internalType": "address[]",
              "name": "longTokenSwapPath",
              "type": "address[]"
            },
            {
              "internalType": "address[]",
              "name": "shortTokenSwapPath",
              "type": "address[]"
            },
            {
              "internalType": "uint256",
              "name": "minMarketTokens",
              "type": "uint256"
            },
            {
              "internalType": "bool",
              "name": "shouldUnwrapNativeToken",
              "type": "bool"
            },
            {
              "internalType": "uint256",
              "name": "executionFee",
              "type": "uint256"
            },
            {
              "internalType": "uint256",
              "name": "callbackGasLimit",
              "type": "uint256"
            }
          ],
          "internalType": "struct DepositUtils.CreateDepositParams",
          "name": "params",
          "type": "tuple"
        }
      ],
      "name": "createDeposit",
      "outputs": [
        {
          "internalType": "bytes32",
          "name": "",
          "type": "bytes32"
        }
      ],
      "stateMutability": "nonpayable",
      "type": "function"
    },
    {
      "inputs": [],
      "name": "dataStore",
      "outputs": [
        {
          "internalType": "contract DataStore",
          "name": "",
          "type": "address"
        }
      ],
      "stateMutability": "view",
      "type": "function"
    },
    {
      "inputs": [],
      "name": "depositVault",
      "outputs": [
        {
          "internalType": "contract DepositVault",
          "name": "",
          "type": "address"
        }
      ],
      "stateMutability": "view",
      "type": "function"
    },
    {
      "inputs": [],
      "name": "eventEmitter",
      "outputs": [
        {
          "internalType": "contract EventEmitter",
          "name": "",
          "type": "address"
        }
      ],
      "stateMutability": "view",
      "type": "function"
    },
    {
      "inputs": [
        {
          "internalType": "bytes32",
          "name": "key",
          "type": "bytes32"
        },
        {
          "components": [
            {
              "internalType": "uint256",
              "name": "signerInfo",
              "type": "uint256"
            },
            {
              "internalType": "address[]",
              "name": "tokens",
              "type": "address[]"
            },
            {
              "internalType": "uint256[]",
              "name": "compactedMinOracleBlockNumbers",
              "type": "uint256[]"
            },
            {
              "internalType": "uint256[]",
              "name": "compactedMaxOracleBlockNumbers",
              "type": "uint256[]"
            },
            {
              "internalType": "uint256[]",
              "name": "compactedOracleTimestamps",
              "type": "uint256[]"
            },
            {
              "internalType": "uint256[]",
              "name": "compactedDecimals",
              "type": "uint256[]"
            },
            {
              "internalType": "uint256[]",
              "name": "compactedMinPrices",
              "type": "uint256[]"
            },
            {
              "internalType": "uint256[]",
              "name": "compactedMinPricesIndexes",
              "type": "uint256[]"
            },
            {
              "internalType": "uint256[]",
              "name": "compactedMaxPrices",
              "type": "uint256[]"
            },
            {
              "internalType": "uint256[]",
              "name": "compactedMaxPricesIndexes",
              "type": "uint256[]"
            },
            {
              "internalType": "bytes[]",
              "name": "signatures",
              "type": "bytes[]"
            },
            {
              "internalType": "address[]",
              "name": "priceFeedTokens",
              "type": "address[]"
            },
            {
              "internalType": "address[]",
              "name": "realtimeFeedTokens",
              "type": "address[]"
            },
            {
              "internalType": "bytes[]",
              "name": "realtimeFeedData",
              "type": "bytes[]"
            }
          ],
          "internalType": "struct OracleUtils.SetPricesParams",
          "name": "oracleParams",
          "type": "tuple"
        }
      ],
      "name": "executeDeposit",
      "outputs": [],
      "stateMutability": "nonpayable",
      "type": "function"
    },
    {
      "inputs": [],
      "name": "oracle",
      "outputs": [
        {
          "internalType": "contract Oracle",
          "name": "",
          "type": "address"
        }
      ],
      "stateMutability": "view",
      "type": "function"
    },
    {
      "inputs": [],
      "name": "roleStore",
      "outputs": [
        {
          "internalType": "contract RoleStore",
          "name": "",
          "type": "address"
        }
      ],
      "stateMutability": "view",
      "type": "function"
    },
    {
      "inputs": [
        {
          "internalType": "bytes32",
          "name": "key",
          "type": "bytes32"
        },
        {
          "components": [
            {
              "internalType": "address[]",
              "name": "primaryTokens",
              "type": "address[]"
            },
            {
              "components": [
                {
                  "internalType": "uint256",
                  "name": "min",
                  "type": "uint256"
                },
                {
                  "internalType": "uint256",
                  "name": "max",
                  "type": "uint256"
                }
              ],
              "internalType": "struct Price.Props[]",
              "name": "primaryPrices",
              "type": "tuple[]"
            }
          ],
          "internalType": "struct OracleUtils.SimulatePricesParams",
          "name": "params",
          "type": "tuple"
        }
      ],
      "name": "simulateExecuteDeposit",
      "outputs": [],
      "stateMutability": "nonpayable",
      "type": "function"
    }
  ],
  "bytecode": "0x61012060405234801561001157600080fd5b50604051613ca3380380613ca383398101604081905261003091610071565b6001600160a01b0393841660805293831660a05290821660c052811660e05216610100526100e6565b6001600160a01b038116811461006e57600080fd5b50565b600080600080600060a0868803121561008957600080fd5b855161009481610059565b60208701519095506100a581610059565b60408701519094506100b681610059565b60608701519093506100c781610059565b60808701519092506100d881610059565b809150509295509295909350565b60805160a05160c05160e05161010051613aa16102026000396000818161014c01528181610288015281816103f90152818161084c0152610b8b0152600081816101c0015281816103ca015281816105bb01528181610780015261194d0152600081816101730152818161039b015281816105990152818161075f01528181610bcd015261192b01526000818160e601526112d101526000818161012501528181610235015281816102b50152818161036c01528181610520015281816105770152818161066701528181610a1e01528181610bac01528181610c7a01528181610d0501528181610d3101528181610d5e0152818161110301528181611206015281816113af0152818161186501526119090152613aa16000f3fe608060405234801561001057600080fd5b506004361061008e5760003560e01c8063114a123a146100935780632f603040146100a857806331404484146100ce5780634a4a7b04146100e1578063660d0d67146101205780637dc0d1d0146101475780639ff78c301461016e578063b9e2f5ee14610195578063ced96625146101a8578063d7cd3949146101bb575b600080fd5b6100a66100a13660046125a4565b6101e2565b005b6100bb6100b6366004612759565b6104c1565b6040519081526020015b60405180910390f35b6100a66100dc3660046127b0565b610638565b6101087f000000000000000000000000000000000000000000000000000000000000000081565b6040516001600160a01b0390911681526020016100c5565b6101087f000000000000000000000000000000000000000000000000000000000000000081565b6101087f000000000000000000000000000000000000000000000000000000000000000081565b6101087f000000000000000000000000000000000000000000000000000000000000000081565b6100a66101a33660046127d6565b610838565b6100a66101b63660046128fd565b610b0e565b6101087f000000000000000000000000000000000000000000000000000000000000000081565b33301461022b576040805163a35b150b60e01b815233600480830191909152602482019290925260448101919091526329a2a62360e11b60648201526084015b60405180910390fd5b60005a90506102627f000000000000000000000000000000000000000000000000000000000000000061025d30610e84565b610f10565b6101808301516101a084015160405163f81a03c360e01b81526000926001600160a01b037f0000000000000000000000000000000000000000000000000000000000000000169263f81a03c3926102df927f00000000000000000000000000000000000000000000000000000000000000009290916004016129ec565b6000604051808303816000875af11580156102fe573d6000803e3d6000fd5b505050506040513d6000823e601f3d908101601f191682016040526103269190810190612a9b565b905060006103408560400151866020015151846000610f3b565b9050600061035a8660600151876020015151856001610f3b565b905060006040518061012001604052807f00000000000000000000000000000000000000000000000000000000000000006001600160a01b031681526020017f00000000000000000000000000000000000000000000000000000000000000006001600160a01b031681526020017f00000000000000000000000000000000000000000000000000000000000000006001600160a01b031681526020017f00000000000000000000000000000000000000000000000000000000000000006001600160a01b031681526020018a8152602001848152602001838152602001876001600160a01b0316815260200186815250905073__$a26e5ecaf38b60f56220843100c2d8b777$__635f973d4f828a6040518363ffffffff1660e01b8152600401610486929190612d6e565b60006040518083038186803b15801561049e57600080fd5b505af41580156104b2573d6000803e3d6000fd5b50505050505050505050505050565b60006104cb6110ff565b61051b6040516020016104dd90612e33565b604051602081830303815290604052805190602001206040518060400160405280600a81526020016921a7a72a2927a62622a960b11b8152506112ba565b6105487f000000000000000000000000000000000000000000000000000000000000000061025d3061136a565b604051639ef3818960e01b815273__$b47f57a87b0fdb80638269130c078613b3$__90639ef38189906105e7907f0000000000000000000000000000000000000000000000000000000000000000907f0000000000000000000000000000000000000000000000000000000000000000907f00000000000000000000000000000000000000000000000000000000000000009089908990600401612ee6565b602060405180830381865af4158015610604573d6000803e3d6000fd5b505050506040513d601f19601f820116820180604052508101906106289190613047565b90506106326113ad565b92915050565b6106406110ff565b6106526040516020016104dd90612e33565b60005a60405163fdfc26f360e01b81529091507f00000000000000000000000000000000000000000000000000000000000000009060009073__$b63e253a228f0e32f671cc49c7fc32477c$__9063fdfc26f3906106b69085908890600401613060565b600060405180830381865af41580156106d3573d6000803e3d6000fd5b505050506040513d6000823e601f3d908101601f191682016040526106fb919081019061316b565b905061070a8261025d30611463565b6107428261071d83602001516060015190565b6040518060400160405280600781526020016611195c1bdcda5d60ca1b8152506114a6565b73__$b47f57a87b0fdb80638269130c078613b3$__636c6a42ac837f00000000000000000000000000000000000000000000000000000000000000007f0000000000000000000000000000000000000000000000000000000000000000886107a987515190565b60408051808201825260158152741554d15497d2539255125055115117d0d05390d153605a1b602082015290516001600160e01b031960e089901b1681526107fa9695949392918c916004016132d7565b60006040518083038186803b15801561081257600080fd5b505af4158015610826573d6000803e3d6000fd5b505050505050506108356113ad565b50565b61084a6040516020016104dd90612e33565b7f000000000000000000000000000000000000000000000000000000000000000081806020015151816000015151146108a15780515160208201515160405163663de02360e01b8152610222929190600401613341565b60005b815151811015610971576000826000015182815181106108c6576108c661334f565b602002602001015190506000836020015183815181106108e8576108e861334f565b6020908102919091018101516040516347cba33d60e01b81526001600160a01b03858116600483015282516024830152928201516044820152909250908616906347cba33d90606401600060405180830381600087803b15801561094b57600080fd5b505af115801561095f573d6000803e3d6000fd5b5050600190940193506108a492505050565b5061097a6110ff565b6109ec604051806101c0016040528060008152602001606081526020016060815260200160608152602001606081526020016060815260200160608152602001606081526020016060815260200160608152602001606081526020016060815260200160608152602001606081525090565b60405163fdfc26f360e01b815260009073__$b63e253a228f0e32f671cc49c7fc32477c$__9063fdfc26f390610a48907f0000000000000000000000000000000000000000000000000000000000000000908a90600401613060565b600060405180830381865af4158015610a65573d6000803e3d6000fd5b505050506040513d6000823e601f3d908101601f19168201604052610a8d919081019061316b565b6040516308a5091d60e11b8152909150309063114a123a90610ab99089908590879033906004016134c9565b600060405180830381600087803b158015610ad357600080fd5b505af1158015610ae7573d6000803e3d6000fd5b505050505050610af56113ad565b6040516327246e6d60e11b815260040160405180910390fd5b610b166110ff565b610b89604051602001610b49906020808252600c908201526b27a92222a92fa5a2a2a822a960a11b604082015260600190565b604051602081830303815290604052805190602001206040518060400160405280600c81526020016b27a92222a92fa5a2a2a822a960a11b8152506112ba565b7f00000000000000000000000000000000000000000000000000000000000000007f00000000000000000000000000000000000000000000000000000000000000007f0000000000000000000000000000000000000000000000000000000000000000610bf58461350e565b6040516304a76ae360e21b81526001600160a01b0385169063129dab8c90610c259086908690869060040161351a565b600060405180830381600087803b158015610c3f57600080fd5b505af1158015610c53573d6000803e3d6000fd5b5050505060005a9050600073__$b63e253a228f0e32f671cc49c7fc32477c$__63fdfc26f37f00000000000000000000000000000000000000000000000000000000000000008a6040518363ffffffff1660e01b8152600401610cb7929190613060565b600060405180830381865af4158015610cd4573d6000803e3d6000fd5b505050506040513d6000823e601f3d908101601f19168201604052610cfc919081019061316b565b90506000610d2a7f0000000000000000000000000000000000000000000000000000000000000000836115b3565b9050610d577f000000000000000000000000000000000000000000000000000000000000000084836117cd565b6000610d837f00000000000000000000000000000000000000000000000000000000000000008561181b565b6040516308a5091d60e11b8152909150309063114a123a908390610db1908e9088908f90339060040161362e565b600060405180830381600088803b158015610dcb57600080fd5b5087f193505050508015610ddd575060015b610e1e573d808015610e0b576040519150601f19603f3d011682016040523d82523d6000602084013e610e10565b606091505b50610e1c8b8683611860565b505b50505050836001600160a01b031662ccf1556040518163ffffffff1660e01b8152600401600060405180830381600087803b158015610e5c57600080fd5b505af1158015610e70573d6000803e3d6000fd5b5050505050505050610e806113ad565b5050565b6000604051602001610ec5906020808252818101527f455845435554455f4445504f5349545f464541545552455f44495341424c4544604082015260600190565b60408051601f198184030181528282528051602091820120908301526001600160a01b038416908201526060015b604051602081830303815290604052805190602001209050919050565b610f1a82826119b6565b15610e805760405163dd70e0c960e01b815260048101829052602401610222565b60606000835185610f4c919061385b565b6001600160401b03811115610f6357610f63611f7f565b604051908082528060200260200182016040528015610f8c578160200160208202803683370190505b50905060005b85811015610fc957610fa48782611a29565b828281518110610fb657610fb661334f565b6020908102919091010152600101610f92565b506000836001811115610fde57610fde61386e565b0361104c5760005b8451811015611046578481815181106110015761100161334f565b602002602001015160e001516001600160401b0316828288611023919061385b565b815181106110335761103361334f565b6020908102919091010152600101610fe6565b506110f6565b60018360018111156110605761106061386e565b036110c85760005b8451811015611046578481815181106110835761108361334f565b602002602001015160a001516001600160401b03168282886110a5919061385b565b815181106110b5576110b561334f565b6020908102919091010152600101611068565b8260018111156110da576110da61386e565b60405163b602928160e01b815260040161022291815260200190565b95945050505050565b60007f00000000000000000000000000000000000000000000000000000000000000006001600160a01b031663bd02d0f560405160200161113f90613884565b604051602081830303815290604052805190602001206040518263ffffffff1660e01b815260040161117391815260200190565b602060405180830381865afa158015611190573d6000803e3d6000fd5b505050506040513d601f19601f820116820180604052508101906111b49190613047565b905080156112045760405162461bcd60e51b815260206004820152601f60248201527f5265656e7472616e637947756172643a207265656e7472616e742063616c6c006044820152606401610222565b7f00000000000000000000000000000000000000000000000000000000000000006001600160a01b031663e2a4853a60405160200161124290613884565b6040516020818303038152906040528051906020012060016040518363ffffffff1660e01b8152600401611277929190613341565b6020604051808303816000875af1158015611296573d6000803e3d6000fd5b505050506040513d601f19601f82011682018060405250810190610e809190613047565b60405163ac4ab3fb60e01b81526001600160a01b037f0000000000000000000000000000000000000000000000000000000000000000169063ac4ab3fb906113089033908690600401613060565b602060405180830381865afa158015611325573d6000803e3d6000fd5b505050506040513d601f19601f8201168201806040525081019061134991906138b5565b610e8057338160405163a35b150b60e01b81526004016102229291906138d2565b6000604051602001610ec5906020808252601f908201527f4352454154455f4445504f5349545f464541545552455f44495341424c454400604082015260600190565b7f00000000000000000000000000000000000000000000000000000000000000006001600160a01b031663e2a4853a6040516020016113eb90613884565b6040516020818303038152906040528051906020012060006040518363ffffffff1660e01b8152600401611420929190613341565b6020604051808303816000875af115801561143f573d6000803e3d6000fd5b505050506040513d601f19601f820116820180604052508101906108359190613047565b6000604051602001610ec5906020808252601f908201527f43414e43454c5f4445504f5349545f464541545552455f44495341424c454400604082015260600190565b6000836001600160a01b031663bd02d0f56040516020016114f7906020808252601c908201527b524551554553545f45585049524154494f4e5f424c4f434b5f41474560201b604082015260600190565b604051602081830303815290604052805190602001206040518263ffffffff1660e01b815260040161152b91815260200190565b602060405180830381865afa158015611548573d6000803e3d6000fd5b505050506040513d601f19601f8201168201806040525081019061156c9190613047565b9050600083611579611a9b565b61158391906138f6565b9050818110156115ac57808284604051631d04cc8760e31b815260040161022293929190613909565b5050505050565b600080836001600160a01b031663bd02d0f56115cd611b17565b6040518263ffffffff1660e01b81526004016115eb91815260200190565b602060405180830381865afa158015611608573d6000803e3d6000fd5b505050506040513d601f19601f8201168201806040525081019061162c9190613047565b9050600061163d8451610100015190565b51845160e001515161164f919061385b565b9050600061165d8383613928565b905061166b85602001515190565b158061167c57506020808601510151155b156117275780611691866020015160a0015190565b876001600160a01b031663bd02d0f56116aa6001611b6d565b6040518263ffffffff1660e01b81526004016116c891815260200190565b602060405180830381865afa1580156116e5573d6000803e3d6000fd5b505050506040513d601f19601f820116820180604052508101906117099190613047565b611713919061385b565b61171d919061385b565b9350505050610632565b80611737866020015160a0015190565b876001600160a01b031663bd02d0f56117506000611b6d565b6040518263ffffffff1660e01b815260040161176e91815260200190565b602060405180830381865afa15801561178b573d6000803e3d6000fd5b505050506040513d601f19601f820116820180604052508101906117af9190613047565b6117b9919061385b565b6117c3919061385b565b9695505050505050565b60006117d884611bcf565b90506117e4818361385b565b8310156118155760405163bb416f9360e01b8152600481018490526024810183905260448101829052606401610222565b50505050565b60008061182784611c94565b90508083101561184e578281604051631e4a4e5960e21b8152600401610222929190613341565b61185881846138f6565b949350505050565b61188a7f000000000000000000000000000000000000000000000000000000000000000082611cf8565b6000611897826020015190565b90506118a281611d46565b806118bd57506001600160e01b0319811663dd70e0c960e01b145b156118cb576118cb82611d7c565b60006118d683611d85565b50604051631b1a90ab60e21b815290915073__$b47f57a87b0fdb80638269130c078613b3$__90636c6a42ac9061197f907f0000000000000000000000000000000000000000000000000000000000000000907f0000000000000000000000000000000000000000000000000000000000000000907f0000000000000000000000000000000000000000000000000000000000000000908b9033908c908a908d9060040161393f565b60006040518083038186803b15801561199757600080fd5b505af41580156119ab573d6000803e3d6000fd5b505050505050505050565b604051633d70e7e560e11b8152600481018290526000906001600160a01b03841690637ae1cfca90602401602060405180830381865afa1580156119fe573d6000803e3d6000fd5b505050506040513d601f19601f82011682018060405250810190611a2291906138b5565b9392505050565b600080611a758484604060c0600019901c6040518060400160405280601f81526020017f676574556e636f6d7061637465644f7261636c65426c6f636b4e756d62657200815250611e15565b905080600003611a225760405163349f5fdd60e11b815260048101849052602401610222565b6000611aa5611eb2565b15611b125760646001600160a01b031663a3b1b31d6040518163ffffffff1660e01b8152600401602060405180830381865afa158015611ae9573d6000803e3d6000fd5b505050506040513d601f19601f82011682018060405250810190611b0d9190613047565b905090565b504390565b6000604051602001611b529060208082526015908201527414d25391d31157d4d5d05417d1d054d7d312535255605a1b604082015260600190565b60405160208183030381529060405280519060200120905090565b6000604051602001611ba49060208082526011908201527011115413d4d25517d1d054d7d312535255607a1b604082015260600190565b60408051601f1981840301815282825280516020918201209083015283151590820152606001610ef3565b6000816001600160a01b031663bd02d0f5604051602001611c1f906020808252818101527f4d494e5f4144444954494f4e414c5f4741535f464f525f455845435554494f4e604082015260600190565b604051602081830303815290604052805190602001206040518263ffffffff1660e01b8152600401611c5391815260200190565b602060405180830381865afa158015611c70573d6000803e3d6000fd5b505050506040513d601f19601f820116820180604052508101906106329190613047565b6000816001600160a01b031663bd02d0f5604051602001611c1f9060208082526029908201527f4d494e5f48414e444c455f455845435554494f4e5f4552524f525f4741535f5460408201526813d7d193d495d0549160ba1b606082015260800190565b8051151580611d0657503215155b15611d0f575050565b60005a90506000611d1f84611ec9565b905080821015611815578181604051633083b9e560e01b8152600401610222929190613341565b6000611d5182611f1b565b15611d5e57506001919050565b611d6782611f5d565b15611d7457506001919050565b506000919050565b80518060208301fd5b60606000604483511015611dac575050604080516020810190915260008082529092909150565b6000611db9846020015190565b90506307b9e43360e51b6001600160e01b0319821601611df85760048401935083806020019051810190611ded91906139ab565b946001945092505050565b600060405180602001604052806000815250909250925050915091565b600080611e2485610100613a18565b90506000611e328288613a18565b905087518110611e5d578787828660405163bdec9c0d60e01b81526004016102229493929190613a3a565b6000888281518110611e7157611e7161334f565b602002602001015190506000878484611e8a9190613928565b611e94908b6138f6565b611e9e9190613928565b9190911c8616935050505095945050505050565b600061a4b1461480611b0d5750504662066eee1490565b6000816001600160a01b031663bd02d0f5604051602001611c1f906020808252601e908201527f4d494e5f48414e444c455f455845435554494f4e5f4552524f525f4741530000604082015260600190565b600063010dcfd160e71b6001600160e01b0319831601611f3d57506001919050565b6341f057fb60e11b6001600160e01b0319831601611d7457506001919050565b600063329b5fdb60e01b6001600160e01b0319831601611d7457506001919050565b634e487b7160e01b600052604160045260246000fd5b60405160c081016001600160401b0381118282101715611fb757611fb7611f7f565b60405290565b604051602081016001600160401b0381118282101715611fb757611fb7611f7f565b6040516101c081016001600160401b0381118282101715611fb757611fb7611f7f565b604051606081016001600160401b0381118282101715611fb757611fb7611f7f565b60405161012081016001600160401b0381118282101715611fb757611fb7611f7f565b604080519081016001600160401b0381118282101715611fb757611fb7611f7f565b604051601f8201601f191681016001600160401b038111828210171561209157612091611f7f565b604052919050565b6001600160a01b038116811461083557600080fd5b80356120b981612099565b919050565b60006001600160401b038211156120d7576120d7611f7f565b5060051b60200190565b600082601f8301126120f257600080fd5b8135612105612100826120be565b612069565b8082825260208201915060208360051b86010192508583111561212757600080fd5b602085015b8381101561214d57803561213f81612099565b83526020928301920161212c565b5095945050505050565b600060c0828403121561216957600080fd5b612171611f95565b823581526020808401359082015260408084013590820152606080840135908201526080808401359082015260a0928301359281019290925250919050565b801515811461083557600080fd5b80356120b9816121b0565b6000602082840312156121db57600080fd5b6121e3611fbd565b905081356121f0816121b0565b815292915050565b600082601f83011261220957600080fd5b8135612217612100826120be565b8082825260208201915060208360051b86010192508583111561223957600080fd5b602085015b8381101561214d57803583526020928301920161223e565b60006001600160401b0382111561226f5761226f611f7f565b50601f01601f191660200190565b600082601f83011261228e57600080fd5b813561229c612100826120be565b8082825260208201915060208360051b8601019250858311156122be57600080fd5b602085015b8381101561214d5780356001600160401b038111156122e157600080fd5b8601603f810188136122f257600080fd5b602081013561230361210082612256565b8181526040838301018a101561231857600080fd5b816040840160208301376000602083830101528086525050506020830192506020810190506122c3565b60006101c0828403121561235557600080fd5b61235d611fdf565b82358152905060208201356001600160401b0381111561237c57600080fd5b612388848285016120e1565b60208301525060408201356001600160401b038111156123a757600080fd5b6123b3848285016121f8565b60408301525060608201356001600160401b038111156123d257600080fd5b6123de848285016121f8565b60608301525060808201356001600160401b038111156123fd57600080fd5b612409848285016121f8565b60808301525060a08201356001600160401b0381111561242857600080fd5b612434848285016121f8565b60a08301525060c08201356001600160401b0381111561245357600080fd5b61245f848285016121f8565b60c08301525060e08201356001600160401b0381111561247e57600080fd5b61248a848285016121f8565b60e0830152506101008201356001600160401b038111156124aa57600080fd5b6124b6848285016121f8565b610100830152506101208201356001600160401b038111156124d757600080fd5b6124e3848285016121f8565b610120830152506101408201356001600160401b0381111561250457600080fd5b6125108482850161227d565b610140830152506101608201356001600160401b0381111561253157600080fd5b61253d848285016120e1565b610160830152506101808201356001600160401b0381111561255e57600080fd5b61256a848285016120e1565b610180830152506101a08201356001600160401b0381111561258b57600080fd5b6125978482850161227d565b6101a08301525092915050565b600080600080608085870312156125ba57600080fd5b8435935060208501356001600160401b038111156125d757600080fd5b850161010081880312156125ea57600080fd5b6125f2612002565b81356001600160401b0381111561260857600080fd5b8201610120818a03121561261b57600080fd5b612623612024565b61262c826120ae565b815261263a602083016120ae565b602082015261264b604083016120ae565b604082015261265c606083016120ae565b606082015261266d608083016120ae565b608082015261267e60a083016120ae565b60a082015261268f60c083016120ae565b60c082015260e08201356001600160401b038111156126ad57600080fd5b6126b98b8285016120e1565b60e0830152506101008201356001600160401b038111156126d957600080fd5b6126e58b8285016120e1565b610100830152508252506126fc8860208401612157565b602082015261270e8860e084016121c9565b60408281019190915290945086013590506001600160401b0381111561273357600080fd5b61273f87828801612342565b92505061274e606086016120ae565b905092959194509250565b6000806040838503121561276c57600080fd5b823561277781612099565b915060208301356001600160401b0381111561279257600080fd5b830161018081860312156127a557600080fd5b809150509250929050565b6000602082840312156127c257600080fd5b5035919050565b6001600160a01b03169052565b600080604083850312156127e957600080fd5b8235915060208301356001600160401b0381111561280657600080fd5b83016040818603121561281857600080fd5b612820612047565b81356001600160401b0381111561283657600080fd5b612842878285016120e1565b82525060208201356001600160401b0381111561285e57600080fd5b80830192505085601f83011261287357600080fd5b8135612881612100826120be565b8082825260208201915060208360061b8601019250888311156128a357600080fd5b6020850194505b828510156128eb576040858a0312156128c257600080fd5b6128ca612047565b853581526020808701358183015290835260409095019491909101906128aa565b60208401525093969095509350505050565b6000806040838503121561291057600080fd5b8235915060208301356001600160401b0381111561292d57600080fd5b83016101c081860312156127a557600080fd5b60005b8381101561295b578181015183820152602001612943565b50506000910152565b6000815180845261297c816020860160208601612940565b601f01601f19169290920160200192915050565b600082825180855260208501945060208160051b8301016020850160005b838110156129e057601f198584030188526129ca838351612964565b60209889019890935091909101906001016129ae565b50909695505050505050565b6001600160a01b0384168152606060208083018290528451918301829052600091908501906080840190835b81811015612a3f5783516001600160a01b0316835260209384019390920191600101612a18565b50508381036040850152612a538186612990565b979650505050505050565b805163ffffffff811681146120b957600080fd5b8051601781900b81146120b957600080fd5b80516001600160401b03811681146120b957600080fd5b600060208284031215612aad57600080fd5b81516001600160401b03811115612ac357600080fd5b8201601f81018413612ad457600080fd5b8051612ae2612100826120be565b8082825260208201915060206101208402850101925086831115612b0557600080fd5b6020840193505b828410156117c3576101208488031215612b2557600080fd5b612b2d612024565b84518152612b3d60208601612a5e565b6020820152612b4e60408601612a72565b6040820152612b5f60608601612a72565b6060820152612b7060808601612a72565b6080820152612b8160a08601612a84565b60a082015260c08581015190820152612b9c60e08601612a84565b60e0820152612bae6101008601612a84565b61010082015282526101209390930192602090910190612b0c565b600081518084526020840193506020830160005b82811015612bfb578151865260209586019590910190600101612bdd565b5093949350505050565b600081518084526020840193506020830160005b82811015612bfb5781516001600160a01b0316865260209586019590910190600101612c19565b600081516101008452612c58610100850182516127c9565b6020810151612c6b6101208601826127c9565b506040810151612c7f6101408601826127c9565b506060810151612c936101608601826127c9565b506080810151612ca76101808601826127c9565b5060a0810151612cbb6101a08601826127c9565b5060c0810151612ccf6101c08601826127c9565b5060e08101516101206101e0860152612cec610220860182612c05565b9050610100820151915060ff1985820301610200860152612d0d8183612c05565b9150506020830151612d576020860182805182526020810151602083015260408101516040830152606081015160608301526080810151608083015260a081015160a08301525050565b5060408301518051151560e0860152509392505050565b60408152612d806040820184516127c9565b60006020840151612d9460608401826127c9565b506040840151612da760808401826127c9565b506060840151612dba60a08401826127c9565b50608084015160c083015260a084015161012060e0840152612de0610160840182612bc9565b905060c0850151603f1984830301610100850152612dfe8282612bc9565b91505060e0850151612e146101208501826127c9565b5061010085015161014084015282810360208401526110f68185612c40565b6020808252600a908201526921a7a72a2927a62622a960b11b604082015260600190565b6000808335601e19843603018112612e6e57600080fd5b83016020810192503590506001600160401b03811115612e8d57600080fd5b8060051b3603821315612e9f57600080fd5b9250929050565b81835260208301925060008160005b84811015612bfb578135612ec881612099565b6001600160a01b031686526020958601959190910190600101612eb5565b6001600160a01b038681168252858116602083015284811660408301528316606082015260a060808201819052612f27908201612f22846120ae565b6127c9565b6000612f35602084016120ae565b612f4260c08401826127c9565b50612f4f604084016120ae565b612f5c60e08401826127c9565b50612f69606084016120ae565b612f776101008401826127c9565b50612f84608084016120ae565b612f926101208401826127c9565b50612f9f60a084016120ae565b612fad6101408401826127c9565b50612fbb60c0840184612e57565b610180610160850152612fd361022085018284612ea6565b915050612fe360e0850185612e57565b848303609f1901610180860152612ffb838284612ea6565b6101008701356101a0870152925061301991505061012085016121be565b15156101c08401526101408401356101e0840152610160909301356102009092019190915250949350505050565b60006020828403121561305957600080fd5b5051919050565b6001600160a01b03929092168252602082015260400190565b80516120b981612099565b600082601f83011261309557600080fd5b81516130a3612100826120be565b8082825260208201915060208360051b8601019250858311156130c557600080fd5b602085015b8381101561214d5780516130dd81612099565b8352602092830192016130ca565b600060c082840312156130fd57600080fd5b613105611f95565b825181526020808401519082015260408084015190820152606080840151908201526080808401519082015260a0928301519281019290925250919050565b60006020828403121561315657600080fd5b61315e611fbd565b905081516121f0816121b0565b60006020828403121561317d57600080fd5b81516001600160401b0381111561319357600080fd5b820161010081850312156131a657600080fd5b6131ae612002565b81516001600160401b038111156131c457600080fd5b820161012081870312156131d757600080fd5b6131df612024565b6131e882613079565b81526131f660208301613079565b602082015261320760408301613079565b604082015261321860608301613079565b606082015261322960808301613079565b608082015261323a60a08301613079565b60a082015261324b60c08301613079565b60c082015260e08201516001600160401b0381111561326957600080fd5b61327588828501613084565b60e0830152506101008201516001600160401b0381111561329557600080fd5b6132a188828501613084565b610100830152508252506132b885602084016130eb565b60208201526132ca8560e08401613144565b6040820152949350505050565b6001600160a01b03888116825287811660208301528681166040830152606082018690528416608082015260a0810183905261010060c0820181905260009061332290830184612964565b82810360e0840152600081526020810191505098975050505050505050565b918252602082015260400190565b634e487b7160e01b600052603260045260246000fd5b80518252600060208201516101c060208501526133866101c0850182612c05565b90506040830151848203604086015261339f8282612bc9565b915050606083015184820360608601526133b98282612bc9565b915050608083015184820360808601526133d38282612bc9565b91505060a083015184820360a08601526133ed8282612bc9565b91505060c083015184820360c08601526134078282612bc9565b91505060e083015184820360e08601526134218282612bc9565b91505061010083015184820361010086015261343d8282612bc9565b9150506101208301518482036101208601526134598282612bc9565b9150506101408301518482036101408601526134758282612990565b9150506101608301518482036101608601526134918282612c05565b9150506101808301518482036101808601526134ad8282612c05565b9150506101a08301518482036101a08601526110f68282612990565b8481526080602082015260006134e26080830186612c40565b82810360408401526134f48186613365565b91505060018060a01b038316606083015295945050505050565b60006106323683612342565b6001600160a01b038481168252831660208201526060604082018190526000906110f690830184613365565b81835260006001600160fb1b0383111561355f57600080fd5b8260051b80836020870137939093016020019392505050565b81835281816020850137506000828201602090810191909152601f909101601f19169091010190565b60008383855260208501945060208460051b8201018360005b868110156129e057838303601f19018852813536879003601e190181126135e057600080fd5b86016020810190356001600160401b038111156135fc57600080fd5b80360382131561360b57600080fd5b613616858284613578565b60209a8b019a909550939093019250506001016135ba565b8481526080602082015260006136476080830186612c40565b8281036040840152843581526136606020860186612e57565b6101c060208401526136776101c084018284612ea6565b9150506136876040870187612e57565b838303604085015261369a838284613546565b925050506136ab6060870187612e57565b83830360608501526136be838284613546565b925050506136cf6080870187612e57565b83830360808501526136e2838284613546565b925050506136f360a0870187612e57565b83830360a0850152613706838284613546565b9250505061371760c0870187612e57565b83830360c085015261372a838284613546565b9250505061373b60e0870187612e57565b83830360e085015261374e838284613546565b92505050613760610100870187612e57565b838303610100850152613774838284613546565b92505050613786610120870187612e57565b83830361012085015261379a838284613546565b925050506137ac610140870187612e57565b8383036101408501526137c08382846135a1565b925050506137d2610160870187612e57565b8383036101608501526137e6838284612ea6565b925050506137f8610180870187612e57565b83830361018085015261380c838284612ea6565b9250505061381e6101a0870187612e57565b8383036101a08501526138328382846135a1565b9450505050506110f660608301846127c9565b634e487b7160e01b600052601160045260246000fd5b8082018082111561063257610632613845565b634e487b7160e01b600052602160045260246000fd5b6020808252601790820152765245454e5452414e43595f47554152445f53544154555360481b604082015260600190565b6000602082840312156138c757600080fd5b8151611a22816121b0565b6001600160a01b038316815260406020820181905260009061185890830184612964565b8181038181111561063257610632613845565b8381528260208201526060604082015260006110f66060830184612964565b808202811582820484141761063257610632613845565b6001600160a01b03898116825288811660208301528781166040830152606082018790528516608082015260a0810184905261010060c0820181905260009061398a90830185612964565b82810360e084015261399c8185612964565b9b9a5050505050505050505050565b6000602082840312156139bd57600080fd5b81516001600160401b038111156139d357600080fd5b8201601f810184136139e457600080fd5b80516139f261210082612256565b818152856020838501011115613a0757600080fd5b6110f6826020830160208601612940565b600082613a3557634e487b7160e01b600052601260045260246000fd5b500490565b608081526000613a4d6080830187612bc9565b8560208401528460408401528281036060840152612a53818561296456fea26469706673582212204b6042c6f54d410630cbe67a0adc3afbc360b91576b150ea2632773729ede69664736f6c634300081a0033",
  "linkReferences": {
    "contracts/deposit/DepositStoreUtils.sol": {
      "DepositStoreUtils": [
        {
          "length": 20,
          "start": 2190
        },
        {
          "length": 20,
          "start": 3072
        },
        {
          "length": 20,
          "start": 3682
        }
      ]
    },
    "contracts/deposit/DepositUtils.sol": {
      "DepositUtils": [
        {
          "length": 20,
          "start": 1881
        },
        {
          "length": 20,
          "start": 2374
        },
        {
          "length": 20,
          "start": 6891
        }
      ]
    },
    "contracts/deposit/ExecuteDepositUtils.sol": {
      "ExecuteDepositUtils": [
        {
          "length": 20,
          "start": 1617
        }
      ]
    }
  },
  "deployedLinkReferences": {
    "contracts/deposit/DepositStoreUtils.sol": {
      "DepositStoreUtils": [
        {
          "length": 20,
          "start": 1676
        },
        {
          "length": 20,
          "start": 2558
        },
        {
          "length": 20,
          "start": 3168
        }
      ]
    },
    "contracts/deposit/DepositUtils.sol": {
      "DepositUtils": [
        {
          "length": 20,
          "start": 1367
        },
        {
          "length": 20,
          "start": 1860
        },
        {
          "length": 20,
          "start": 6377
        }
      ]
    },
    "contracts/deposit/ExecuteDepositUtils.sol": {
      "ExecuteDepositUtils": [
        {
          "length": 20,
          "start": 1103
        }
      ]
    }
  }
}