{
  "_format": "hh-sol-artifact-1",
  "contractName": "OrderHandler",
  "sourceName": "contracts/exchange/OrderHandler.sol",
  "abi": [
    {
      "inputs": [
        {
          "internalType": "contract RoleStore",
          "name": "_roleStore",
          "type": "address"
        },
        {
          "internalType": "contract DataStore",
          "name": "_dataStore",
          "type": "address"
        },
        {
          "internalType": "contract EventEmitter",
          "name": "_eventEmitter",
          "type": "address"
        },
        {
          "internalType": "contract OrderVault",
          "name": "_orderVault",
          "type": "address"
        },
        {
          "internalType": "contract Oracle",
          "name": "_oracle",
          "type": "address"
        },
        {
          "internalType": "contract SwapHandler",
          "name": "_swapHandler",
          "type": "address"
        },
        {
          "internalType": "contract IReferralStorage",
          "name": "_referralStorage",
          "type": "address"
        }
      ],
      "stateMutability": "nonpayable",
      "type": "constructor"
    },
    {
      "inputs": [
        {
          "internalType": "uint256[]",
          "name": "compactedValues",
          "type": "uint256[]"
        },
        {
          "internalType": "uint256",
          "name": "index",
          "type": "uint256"
        },
        {
          "internalType": "uint256",
          "name": "slotIndex",
          "type": "uint256"
        },
        {
          "internalType": "string",
          "name": "label",
          "type": "string"
        }
      ],
      "name": "CompactedArrayOutOfBounds",
      "type": "error"
    },
    {
      "inputs": [
        {
          "internalType": "bytes32",
          "name": "key",
          "type": "bytes32"
        }
      ],
      "name": "DisabledFeature",
      "type": "error"
    },
    {
      "inputs": [
        {
          "internalType": "address",
          "name": "market",
          "type": "address"
        }
      ],
      "name": "DisabledMarket",
      "type": "error"
    },
    {
      "inputs": [
        {
          "internalType": "uint256",
          "name": "index",
          "type": "uint256"
        }
      ],
      "name": "EmptyCompactedBlockNumber",
      "type": "error"
    },
    {
      "inputs": [],
      "name": "EmptyMarket",
      "type": "error"
    },
    {
      "inputs": [],
      "name": "EmptyOrder",
      "type": "error"
    },
    {
      "inputs": [],
      "name": "EndOfOracleSimulation",
      "type": "error"
    },
    {
      "inputs": [
        {
          "internalType": "uint256",
          "name": "minExecutionFee",
          "type": "uint256"
        },
        {
          "internalType": "uint256",
          "name": "executionFee",
          "type": "uint256"
        }
      ],
      "name": "InsufficientExecutionFee",
      "type": "error"
    },
    {
      "inputs": [
        {
          "internalType": "uint256",
          "name": "startingGas",
          "type": "uint256"
        },
        {
          "internalType": "uint256",
          "name": "estimatedGasLimit",
          "type": "uint256"
        },
        {
          "internalType": "uint256",
          "name": "minAdditionalGasForExecution",
          "type": "uint256"
        }
      ],
      "name": "InsufficientExecutionGas",
      "type": "error"
    },
    {
      "inputs": [
        {
          "internalType": "uint256",
          "name": "startingGas",
          "type": "uint256"
        },
        {
          "internalType": "uint256",
          "name": "minHandleErrorGas",
          "type": "uint256"
        }
      ],
      "name": "InsufficientExecutionGasForErrorHandling",
      "type": "error"
    },
    {
      "inputs": [
        {
          "internalType": "uint256",
          "name": "gas",
          "type": "uint256"
        },
        {
          "internalType": "uint256",
          "name": "minHandleExecutionErrorGas",
          "type": "uint256"
        }
      ],
      "name": "InsufficientHandleExecutionErrorGas",
      "type": "error"
    },
    {
      "inputs": [
        {
          "internalType": "address",
          "name": "keeper",
          "type": "address"
        }
      ],
      "name": "InvalidKeeperForFrozenOrder",
      "type": "error"
    },
    {
      "inputs": [
        {
          "internalType": "uint256",
          "name": "primaryTokensLength",
          "type": "uint256"
        },
        {
          "internalType": "uint256",
          "name": "primaryPricesLength",
          "type": "uint256"
        }
      ],
      "name": "InvalidPrimaryPricesForSimulation",
      "type": "error"
    },
    {
      "inputs": [
        {
          "internalType": "address",
          "name": "market",
          "type": "address"
        }
      ],
      "name": "InvalidSwapMarket",
      "type": "error"
    },
    {
      "inputs": [
        {
          "internalType": "uint256",
          "name": "orderType",
          "type": "uint256"
        }
      ],
      "name": "OrderNotUpdatable",
      "type": "error"
    },
    {
      "inputs": [
        {
          "internalType": "uint256",
          "name": "requestAge",
          "type": "uint256"
        },
        {
          "internalType": "uint256",
          "name": "requestExpirationAge",
          "type": "uint256"
        },
        {
          "internalType": "string",
          "name": "requestType",
          "type": "string"
        }
      ],
      "name": "RequestNotYetCancellable",
      "type": "error"
    },
    {
      "inputs": [
        {
          "internalType": "address",
          "name": "msgSender",
          "type": "address"
        },
        {
          "internalType": "string",
          "name": "role",
          "type": "string"
        }
      ],
      "name": "Unauthorized",
      "type": "error"
    },
    {
      "inputs": [
        {
          "internalType": "uint256",
          "name": "oracleBlockNumberType",
          "type": "uint256"
        }
      ],
      "name": "UnsupportedOracleBlockNumberType",
      "type": "error"
    },
    {
      "inputs": [],
      "name": "UnsupportedOrderType",
      "type": "error"
    },
    {
      "anonymous": false,
      "inputs": [
        {
          "indexed": false,
          "internalType": "string",
          "name": "reason",
          "type": "string"
        }
      ],
      "name": "OracleError",
      "type": "event"
    },
    {
      "inputs": [
        {
          "internalType": "bytes32",
          "name": "key",
          "type": "bytes32"
        },
        {
          "components": [
            {
              "components": [
                {
                  "internalType": "address",
                  "name": "account",
                  "type": "address"
                },
                {
                  "internalType": "address",
                  "name": "receiver",
                  "type": "address"
                },
                {
                  "internalType": "address",
                  "name": "callbackContract",
                  "type": "address"
                },
                {
                  "internalType": "address",
                  "name": "uiFeeReceiver",
                  "type": "address"
                },
                {
                  "internalType": "address",
                  "name": "market",
                  "type": "address"
                },
                {
                  "internalType": "address",
                  "name": "initialCollateralToken",
                  "type": "address"
                },
                {
                  "internalType": "address[]",
                  "name": "swapPath",
                  "type": "address[]"
                }
              ],
              "internalType": "struct Order.Addresses",
              "name": "addresses",
              "type": "tuple"
            },
            {
              "components": [
                {
                  "internalType": "enum Order.OrderType",
                  "name": "orderType",
                  "type": "uint8"
                },
                {
                  "internalType": "enum Order.DecreasePositionSwapType",
                  "name": "decreasePositionSwapType",
                  "type": "uint8"
                },
                {
                  "internalType": "uint256",
                  "name": "sizeDeltaUsd",
                  "type": "uint256"
                },
                {
                  "internalType": "uint256",
                  "name": "initialCollateralDeltaAmount",
                  "type": "uint256"
                },
                {
                  "internalType": "uint256",
                  "name": "triggerPrice",
                  "type": "uint256"
                },
                {
                  "internalType": "uint256",
                  "name": "acceptablePrice",
                  "type": "uint256"
                },
                {
                  "internalType": "uint256",
                  "name": "executionFee",
                  "type": "uint256"
                },
                {
                  "internalType": "uint256",
                  "name": "callbackGasLimit",
                  "type": "uint256"
                },
                {
                  "internalType": "uint256",
                  "name": "minOutputAmount",
                  "type": "uint256"
                },
                {
                  "internalType": "uint256",
                  "name": "updatedAtBlock",
                  "type": "uint256"
                }
              ],
              "internalType": "struct Order.Numbers",
              "name": "numbers",
              "type": "tuple"
            },
            {
              "components": [
                {
                  "internalType": "bool",
                  "name": "isLong",
                  "type": "bool"
                },
                {
                  "internalType": "bool",
                  "name": "shouldUnwrapNativeToken",
                  "type": "bool"
                },
                {
                  "internalType": "bool",
                  "name": "isFrozen",
                  "type": "bool"
                }
              ],
              "internalType": "struct Order.Flags",
              "name": "flags",
              "type": "tuple"
            }
          ],
          "internalType": "struct Order.Props",
          "name": "order",
          "type": "tuple"
        },
        {
          "components": [
            {
              "internalType": "uint256",
              "name": "signerInfo",
              "type": "uint256"
            },
            {
              "internalType": "address[]",
              "name": "tokens",
              "type": "address[]"
            },
            {
              "internalType": "uint256[]",
              "name": "compactedMinOracleBlockNumbers",
              "type": "uint256[]"
            },
            {
              "internalType": "uint256[]",
              "name": "compactedMaxOracleBlockNumbers",
              "type": "uint256[]"
            },
            {
              "internalType": "uint256[]",
              "name": "compactedOracleTimestamps",
              "type": "uint256[]"
            },
            {
              "internalType": "uint256[]",
              "name": "compactedDecimals",
              "type": "uint256[]"
            },
            {
              "internalType": "uint256[]",
              "name": "compactedMinPrices",
              "type": "uint256[]"
            },
            {
              "internalType": "uint256[]",
              "name": "compactedMinPricesIndexes",
              "type": "uint256[]"
            },
            {
              "internalType": "uint256[]",
              "name": "compactedMaxPrices",
              "type": "uint256[]"
            },
            {
              "internalType": "uint256[]",
              "name": "compactedMaxPricesIndexes",
              "type": "uint256[]"
            },
            {
              "internalType": "bytes[]",
              "name": "signatures",
              "type": "bytes[]"
            },
            {
              "internalType": "address[]",
              "name": "priceFeedTokens",
              "type": "address[]"
            },
            {
              "internalType": "address[]",
              "name": "realtimeFeedTokens",
              "type": "address[]"
            },
            {
              "internalType": "bytes[]",
              "name": "realtimeFeedData",
              "type": "bytes[]"
            }
          ],
          "internalType": "struct OracleUtils.SetPricesParams",
          "name": "oracleParams",
          "type": "tuple"
        },
        {
          "internalType": "address",
          "name": "keeper",
          "type": "address"
        }
      ],
      "name": "_executeOrder",
      "outputs": [],
      "stateMutability": "nonpayable",
      "type": "function"
    },
    {
      "inputs": [
        {
          "internalType": "bytes32",
          "name": "key",
          "type": "bytes32"
        }
      ],
      "name": "cancelOrder",
      "outputs": [],
      "stateMutability": "nonpayable",
      "type": "function"
    },
    {
      "inputs": [
        {
          "internalType": "address",
          "name": "account",
          "type": "address"
        },
        {
          "components": [
            {
              "components": [
                {
                  "internalType": "address",
                  "name": "receiver",
                  "type": "address"
                },
                {
                  "internalType": "address",
                  "name": "callbackContract",
                  "type": "address"
                },
                {
                  "internalType": "address",
                  "name": "uiFeeReceiver",
                  "type": "address"
                },
                {
                  "internalType": "address",
                  "name": "market",
                  "type": "address"
                },
                {
                  "internalType": "address",
                  "name": "initialCollateralToken",
                  "type": "address"
                },
                {
                  "internalType": "address[]",
                  "name": "swapPath",
                  "type": "address[]"
                }
              ],
              "internalType": "struct IBaseOrderUtils.CreateOrderParamsAddresses",
              "name": "addresses",
              "type": "tuple"
            },
            {
              "components": [
                {
                  "internalType": "uint256",
                  "name": "sizeDeltaUsd",
                  "type": "uint256"
                },
                {
                  "internalType": "uint256",
                  "name": "initialCollateralDeltaAmount",
                  "type": "uint256"
                },
                {
                  "internalType": "uint256",
                  "name": "triggerPrice",
                  "type": "uint256"
                },
                {
                  "internalType": "uint256",
                  "name": "acceptablePrice",
                  "type": "uint256"
                },
                {
                  "internalType": "uint256",
                  "name": "executionFee",
                  "type": "uint256"
                },
                {
                  "internalType": "uint256",
                  "name": "callbackGasLimit",
                  "type": "uint256"
                },
                {
                  "internalType": "uint256",
                  "name": "minOutputAmount",
                  "type": "uint256"
                }
              ],
              "internalType": "struct IBaseOrderUtils.CreateOrderParamsNumbers",
              "name": "numbers",
              "type": "tuple"
            },
            {
              "internalType": "enum Order.OrderType",
              "name": "orderType",
              "type": "uint8"
            },
            {
              "internalType": "enum Order.DecreasePositionSwapType",
              "name": "decreasePositionSwapType",
              "type": "uint8"
            },
            {
              "internalType": "bool",
              "name": "isLong",
              "type": "bool"
            },
            {
              "internalType": "bool",
              "name": "shouldUnwrapNativeToken",
              "type": "bool"
            },
            {
              "internalType": "bytes32",
              "name": "referralCode",
              "type": "bytes32"
            }
          ],
          "internalType": "struct IBaseOrderUtils.CreateOrderParams",
          "name": "params",
          "type": "tuple"
        }
      ],
      "name": "createOrder",
      "outputs": [
        {
          "internalType": "bytes32",
          "name": "",
          "type": "bytes32"
        }
      ],
      "stateMutability": "nonpayable",
      "type": "function"
    },
    {
      "inputs": [],
      "name": "dataStore",
      "outputs": [
        {
          "internalType": "contract DataStore",
          "name": "",
          "type": "address"
        }
      ],
      "stateMutability": "view",
      "type": "function"
    },
    {
      "inputs": [],
      "name": "eventEmitter",
      "outputs": [
        {
          "internalType": "contract EventEmitter",
          "name": "",
          "type": "address"
        }
      ],
      "stateMutability": "view",
      "type": "function"
    },
    {
      "inputs": [
        {
          "internalType": "bytes32",
          "name": "key",
          "type": "bytes32"
        },
        {
          "components": [
            {
              "internalType": "uint256",
              "name": "signerInfo",
              "type": "uint256"
            },
            {
              "internalType": "address[]",
              "name": "tokens",
              "type": "address[]"
            },
            {
              "internalType": "uint256[]",
              "name": "compactedMinOracleBlockNumbers",
              "type": "uint256[]"
            },
            {
              "internalType": "uint256[]",
              "name": "compactedMaxOracleBlockNumbers",
              "type": "uint256[]"
            },
            {
              "internalType": "uint256[]",
              "name": "compactedOracleTimestamps",
              "type": "uint256[]"
            },
            {
              "internalType": "uint256[]",
              "name": "compactedDecimals",
              "type": "uint256[]"
            },
            {
              "internalType": "uint256[]",
              "name": "compactedMinPrices",
              "type": "uint256[]"
            },
            {
              "internalType": "uint256[]",
              "name": "compactedMinPricesIndexes",
              "type": "uint256[]"
            },
            {
              "internalType": "uint256[]",
              "name": "compactedMaxPrices",
              "type": "uint256[]"
            },
            {
              "internalType": "uint256[]",
              "name": "compactedMaxPricesIndexes",
              "type": "uint256[]"
            },
            {
              "internalType": "bytes[]",
              "name": "signatures",
              "type": "bytes[]"
            },
            {
              "internalType": "address[]",
              "name": "priceFeedTokens",
              "type": "address[]"
            },
            {
              "internalType": "address[]",
              "name": "realtimeFeedTokens",
              "type": "address[]"
            },
            {
              "internalType": "bytes[]",
              "name": "realtimeFeedData",
              "type": "bytes[]"
            }
          ],
          "internalType": "struct OracleUtils.SetPricesParams",
          "name": "oracleParams",
          "type": "tuple"
        }
      ],
      "name": "executeOrder",
      "outputs": [],
      "stateMutability": "nonpayable",
      "type": "function"
    },
    {
      "inputs": [],
      "name": "oracle",
      "outputs": [
        {
          "internalType": "contract Oracle",
          "name": "",
          "type": "address"
        }
      ],
      "stateMutability": "view",
      "type": "function"
    },
    {
      "inputs": [],
      "name": "orderVault",
      "outputs": [
        {
          "internalType": "contract OrderVault",
          "name": "",
          "type": "address"
        }
      ],
      "stateMutability": "view",
      "type": "function"
    },
    {
      "inputs": [],
      "name": "referralStorage",
      "outputs": [
        {
          "internalType": "contract IReferralStorage",
          "name": "",
          "type": "address"
        }
      ],
      "stateMutability": "view",
      "type": "function"
    },
    {
      "inputs": [],
      "name": "roleStore",
      "outputs": [
        {
          "internalType": "contract RoleStore",
          "name": "",
          "type": "address"
        }
      ],
      "stateMutability": "view",
      "type": "function"
    },
    {
      "inputs": [
        {
          "internalType": "bytes32",
          "name": "key",
          "type": "bytes32"
        },
        {
          "components": [
            {
              "internalType": "address[]",
              "name": "primaryTokens",
              "type": "address[]"
            },
            {
              "components": [
                {
                  "internalType": "uint256",
                  "name": "min",
                  "type": "uint256"
                },
                {
                  "internalType": "uint256",
                  "name": "max",
                  "type": "uint256"
                }
              ],
              "internalType": "struct Price.Props[]",
              "name": "primaryPrices",
              "type": "tuple[]"
            }
          ],
          "internalType": "struct OracleUtils.SimulatePricesParams",
          "name": "params",
          "type": "tuple"
        }
      ],
      "name": "simulateExecuteOrder",
      "outputs": [],
      "stateMutability": "nonpayable",
      "type": "function"
    },
    {
      "inputs": [],
      "name": "swapHandler",
      "outputs": [
        {
          "internalType": "contract SwapHandler",
          "name": "",
          "type": "address"
        }
      ],
      "stateMutability": "view",
      "type": "function"
    },
    {
      "inputs": [
        {
          "internalType": "bytes32",
          "name": "key",
          "type": "bytes32"
        },
        {
          "internalType": "uint256",
          "name": "sizeDeltaUsd",
          "type": "uint256"
        },
        {
          "internalType": "uint256",
          "name": "acceptablePrice",
          "type": "uint256"
        },
        {
          "internalType": "uint256",
          "name": "triggerPrice",
          "type": "uint256"
        },
        {
          "internalType": "uint256",
          "name": "minOutputAmount",
          "type": "uint256"
        },
        {
          "components": [
            {
              "components": [
                {
                  "internalType": "address",
                  "name": "account",
                  "type": "address"
                },
                {
                  "internalType": "address",
                  "name": "receiver",
                  "type": "address"
                },
                {
                  "internalType": "address",
                  "name": "callbackContract",
                  "type": "address"
                },
                {
                  "internalType": "address",
                  "name": "uiFeeReceiver",
                  "type": "address"
                },
                {
                  "internalType": "address",
                  "name": "market",
                  "type": "address"
                },
                {
                  "internalType": "address",
                  "name": "initialCollateralToken",
                  "type": "address"
                },
                {
                  "internalType": "address[]",
                  "name": "swapPath",
                  "type": "address[]"
                }
              ],
              "internalType": "struct Order.Addresses",
              "name": "addresses",
              "type": "tuple"
            },
            {
              "components": [
                {
                  "internalType": "enum Order.OrderType",
                  "name": "orderType",
                  "type": "uint8"
                },
                {
                  "internalType": "enum Order.DecreasePositionSwapType",
                  "name": "decreasePositionSwapType",
                  "type": "uint8"
                },
                {
                  "internalType": "uint256",
                  "name": "sizeDeltaUsd",
                  "type": "uint256"
                },
                {
                  "internalType": "uint256",
                  "name": "initialCollateralDeltaAmount",
                  "type": "uint256"
                },
                {
                  "internalType": "uint256",
                  "name": "triggerPrice",
                  "type": "uint256"
                },
                {
                  "internalType": "uint256",
                  "name": "acceptablePrice",
                  "type": "uint256"
                },
                {
                  "internalType": "uint256",
                  "name": "executionFee",
                  "type": "uint256"
                },
                {
                  "internalType": "uint256",
                  "name": "callbackGasLimit",
                  "type": "uint256"
                },
                {
                  "internalType": "uint256",
                  "name": "minOutputAmount",
                  "type": "uint256"
                },
                {
                  "internalType": "uint256",
                  "name": "updatedAtBlock",
                  "type": "uint256"
                }
              ],
              "internalType": "struct Order.Numbers",
              "name": "numbers",
              "type": "tuple"
            },
            {
              "components": [
                {
                  "internalType": "bool",
                  "name": "isLong",
                  "type": "bool"
                },
                {
                  "internalType": "bool",
                  "name": "shouldUnwrapNativeToken",
                  "type": "bool"
                },
                {
                  "internalType": "bool",
                  "name": "isFrozen",
                  "type": "bool"
                }
              ],
              "internalType": "struct Order.Flags",
              "name": "flags",
              "type": "tuple"
            }
          ],
          "internalType": "struct Order.Props",
          "name": "order",
          "type": "tuple"
        }
      ],
      "name": "updateOrder",
      "outputs": [],
      "stateMutability": "nonpayable",
      "type": "function"
    }
  ],
  "bytecode": "0x61016060405234801561001157600080fd5b506040516156eb3803806156eb8339810160408190526100309161007e565b6001600160a01b0395861660805295851660a05292841660c05290831660e052821661012052811661010052166101405261011a565b6001600160a01b038116811461007b57600080fd5b50565b600080600080600080600060e0888a03121561009957600080fd5b87516100a481610066565b60208901519097506100b581610066565b60408901519096506100c681610066565b60608901519095506100d781610066565b60808901519094506100e881610066565b60a08901519093506100f981610066565b60c089015190925061010a81610066565b8091505092959891949750929550565b60805160a05160c05160e05161010051610120516101405161543d6102ae6000396000818160b8015281816111240152611e9801526000818161016b015281816102ae015281816108500152611e430152600081816101920152611e6d0152600081816101b90152818161071b01528181610c550152818161110201528181611a9801528181611b760152611e18015260008181610206015281816106fa0152818161089201528181610e2c015281816110e001528181611a7601528181611b540152611ded01526000818161010a015281816111b80152611ffc01526000818161013101528181610489015281816105a8015281816106d9015281816108710152818161093f015281816109ca015281816109f601528181610a2301528181610b6801528181610c2b01528181610d1301528181610d3f01528181610db401528181611044015281816110be01528181611255015281816113580152818161140e015281816118060152818161185801528181611a5401528181611b3201528181611d7f0152611dc4015261543d6000f3fe608060405234801561001057600080fd5b50600436106100ae5760003560e01c80626cc35e146100b3578063263ea0fa146100f05780634a4a7b0414610105578063660d0d671461012c5780637489ec23146101535780637dc0d1d0146101665780638a53aaac1461018d57806393845e46146101b4578063943a6f4a146101db57806396fe6a93146101ee5780639ff78c3014610201578063af6c1dc314610228578063e31461721461023b575b600080fd5b6100da7f000000000000000000000000000000000000000000000000000000000000000081565b6040516100e791906134f0565b60405180910390f35b6101036100fe3660046136dd565b61025c565b005b6100da7f000000000000000000000000000000000000000000000000000000000000000081565b6100da7f000000000000000000000000000000000000000000000000000000000000000081565b610103610161366004613804565b610579565b6100da7f000000000000000000000000000000000000000000000000000000000000000081565b6100da7f000000000000000000000000000000000000000000000000000000000000000081565b6100da7f000000000000000000000000000000000000000000000000000000000000000081565b6101036101e936600461381d565b6107d3565b6101036101fc366004613a97565b610b49565b6100da7f000000000000000000000000000000000000000000000000000000000000000081565b610103610236366004613eae565b610eeb565b61024e610249366004613f31565b611023565b6040519081526020016100e7565b6102ac60405160200161026e90613f7d565b604051602081830303815290604052805190602001206040518060400160405280600a81526020016921a7a72a2927a62622a960b11b8152506111a1565b7f0000000000000000000000000000000000000000000000000000000000000000818060200151518160000151511461030c5780515160208201515160405163663de02360e01b8152610303929190600401613fa1565b60405180910390fd5b60005b8151518110156103dc5760008260000151828151811061033157610331613faf565b6020026020010151905060008360200151838151811061035357610353613faf565b6020908102919091018101516040516347cba33d60e01b81526001600160a01b03858116600483015282516024830152928201516044820152909250908616906347cba33d90606401600060405180830381600087803b1580156103b657600080fd5b505af11580156103ca573d6000803e3d6000fd5b50506001909401935061030f92505050565b506103e5611251565b610457604051806101c0016040528060008152602001606081526020016060815260200160608152602001606081526020016060815260200160608152602001606081526020016060815260200160608152602001606081526020016060815260200160608152602001606081525090565b60405163fdfc26f360e01b815260009073__$9dcb75ef0bb6c4288f2ccffe7dc492c4eb$__9063fdfc26f3906104b3907f0000000000000000000000000000000000000000000000000000000000000000908a90600401613fc5565b600060405180830381865af41580156104d0573d6000803e3d6000fd5b505050506040513d6000823e601f3d908101601f191682016040526104f89190810190614143565b60405163af6c1dc360e01b8152909150309063af6c1dc39061052490899085908790339060040161467a565b600060405180830381600087803b15801561053e57600080fd5b505af1158015610552573d6000803e3d6000fd5b50505050505061056061140c565b6040516327246e6d60e11b815260040160405180910390fd5b610581611251565b61059360405160200161026e90613f7d565b60005a60405163fdfc26f360e01b81529091507f00000000000000000000000000000000000000000000000000000000000000009060009073__$9dcb75ef0bb6c4288f2ccffe7dc492c4eb$__9063fdfc26f3906105f79085908890600401613fc5565b600060405180830381865af4158015610614573d6000803e3d6000fd5b505050506040513d6000823e601f3d908101601f1916820160405261063c9190810190614143565b905061066d826106683061065285602001515190565b6007811115610663576106636142b6565b6114c2565b611557565b61068161067c82602001515190565b611582565b156106bd576106bd8261069a8360200151610120015190565b6040518060400160405280600581526020016427b93232b960d91b8152506115d6565b73__$18943158f75973db0541c3d7c8650b2485$__631dcc956e7f00000000000000000000000000000000000000000000000000000000000000007f00000000000000000000000000000000000000000000000000000000000000007f00000000000000000000000000000000000000000000000000000000000000008861074487515190565b60408051808201825260158152741554d15497d2539255125055115117d0d05390d153605a1b602082015290516001600160e01b031960e089901b1681526107959695949392918c916004016146bf565b60006040518083038186803b1580156107ad57600080fd5b505af41580156107c1573d6000803e3d6000fd5b505050505050506107d061140c565b50565b6107db611251565b61084e60405160200161080e906020808252600c908201526b27a92222a92fa5a2a2a822a960a11b604082015260600190565b604051602081830303815290604052805190602001206040518060400160405280600c81526020016b27a92222a92fa5a2a2a822a960a11b8152506111a1565b7f00000000000000000000000000000000000000000000000000000000000000007f00000000000000000000000000000000000000000000000000000000000000007f00000000000000000000000000000000000000000000000000000000000000006108ba84614729565b6040516304a76ae360e21b81526001600160a01b0385169063129dab8c906108ea90869086908690600401614735565b600060405180830381600087803b15801561090457600080fd5b505af1158015610918573d6000803e3d6000fd5b5050505060005a9050600073__$9dcb75ef0bb6c4288f2ccffe7dc492c4eb$__63fdfc26f37f00000000000000000000000000000000000000000000000000000000000000008a6040518363ffffffff1660e01b815260040161097c929190613fc5565b600060405180830381865af4158015610999573d6000803e3d6000fd5b505050506040513d6000823e601f3d908101601f191682016040526109c19190810190614143565b905060006109ef7f0000000000000000000000000000000000000000000000000000000000000000836116e3565b9050610a1c7f0000000000000000000000000000000000000000000000000000000000000000848361176e565b6000610a487f0000000000000000000000000000000000000000000000000000000000000000856117bc565b60405163af6c1dc360e01b8152909150309063af6c1dc3908390610a76908e9088908f9033906004016148d8565b600060405180830381600088803b158015610a9057600080fd5b5087f193505050508015610aa2575060015b610ae3573d808015610ad0576040519150601f19603f3d011682016040523d82523d6000602084013e610ad5565b606091505b50610ae18b8683611801565b505b50505050836001600160a01b031662ccf1556040518163ffffffff1660e01b8152600401600060405180830381600087803b158015610b2157600080fd5b505af1158015610b35573d6000803e3d6000fd5b5050505050505050610b4561140c565b5050565b610b51611251565b610b6360405160200161026e90613f7d565b610bad7f000000000000000000000000000000000000000000000000000000000000000061066830610b9785602001515190565b6007811115610ba857610ba86142b6565b611ba8565b610bbc61067c82602001515190565b15610bf4576020810151516007811115610bd857610bd86142b6565b604051639aba92cb60e01b815260040161030391815260200190565b60208101805160409081018790528151608001859052815160a0018690529051610100018390528082015160009101819052610c4f7f0000000000000000000000000000000000000000000000000000000000000000611beb565b905060007f00000000000000000000000000000000000000000000000000000000000000006001600160a01b031663352f9aed836040518263ffffffff1660e01b8152600401610c9f91906134f0565b6020604051808303816000875af1158015610cbe573d6000803e3d6000fd5b505050506040513d601f19601f82011682018060405250810190610ce29190614aef565b9050610d0c81610cf7856020015160c0015190565b610d019190614b1e565b602085015160c00152565b6000610d387f0000000000000000000000000000000000000000000000000000000000000000856116e3565b9050610d737f000000000000000000000000000000000000000000000000000000000000000082610d6e876020015160c0015190565b611c98565b610d7c84611cd9565b610d8584611cf0565b604051630c154e0d60e31b815273__$9dcb75ef0bb6c4288f2ccffe7dc492c4eb$__906360aa706890610de0907f0000000000000000000000000000000000000000000000000000000000000000908d908990600401614b31565b60006040518083038186803b158015610df857600080fd5b505af4158015610e0c573d6000803e3d6000fd5b5050505073__$2cb2169b31257cc84fcd1b9a9c4c15efa9$__6387abcdb27f00000000000000000000000000000000000000000000000000000000000000008b610e5588515190565b60405160e085901b6001600160e01b03191681526001600160a01b03938416600482015260248101929092529091166044820152606481018b9052608481018a905260a4810189905260c4810188905260e40160006040518083038186803b158015610ec057600080fd5b505af4158015610ed4573d6000803e3d6000fd5b50505050505050610ee361140c565b505050505050565b333014610f2f576040805163a35b150b60e01b815233600480830191909152602482019290925260448101919091526329a2a62360e11b6064820152608401610303565b60005a90506000610f4586868686866000611d5c565b604080820151810151015190915080610f7857506001604082015160200151516007811115610f7657610f766142b6565b145b15610f8657610f8683611ffa565b80515160408201516020015151610fb491906106689030906007811115610faf57610faf6142b6565b6120f4565b604051630893a94f60e41b815273__$18943158f75973db0541c3d7c8650b2485$__9063893a94f090610feb908490600401614bd8565b60006040518083038186803b15801561100357600080fd5b505af4158015611017573d6000803e3d6000fd5b50505050505050505050565b600061102d611251565b61103f60405160200161026e90613f7d565b61108f7f00000000000000000000000000000000000000000000000000000000000000006106683061107961012087016101008801614cff565b600781111561108a5761108a6142b6565b612137565b604051636d72f41560e11b815273__$18943158f75973db0541c3d7c8650b2485$__9063dae5e82a90611150907f0000000000000000000000000000000000000000000000000000000000000000907f0000000000000000000000000000000000000000000000000000000000000000907f0000000000000000000000000000000000000000000000000000000000000000907f0000000000000000000000000000000000000000000000000000000000000000908a908a90600401614dc4565b602060405180830381865af415801561116d573d6000803e3d6000fd5b505050506040513d601f19601f820116820180604052508101906111919190614aef565b905061119b61140c565b92915050565b60405163ac4ab3fb60e01b81526001600160a01b037f0000000000000000000000000000000000000000000000000000000000000000169063ac4ab3fb906111ef9033908690600401613fc5565b602060405180830381865afa15801561120c573d6000803e3d6000fd5b505050506040513d601f19601f820116820180604052508101906112309190614ef4565b610b4557338160405163a35b150b60e01b8152600401610303929190614f11565b60007f00000000000000000000000000000000000000000000000000000000000000006001600160a01b031663bd02d0f560405160200161129190614f35565b604051602081830303815290604052805190602001206040518263ffffffff1660e01b81526004016112c591815260200190565b602060405180830381865afa1580156112e2573d6000803e3d6000fd5b505050506040513d601f19601f820116820180604052508101906113069190614aef565b905080156113565760405162461bcd60e51b815260206004820152601f60248201527f5265656e7472616e637947756172643a207265656e7472616e742063616c6c006044820152606401610303565b7f00000000000000000000000000000000000000000000000000000000000000006001600160a01b031663e2a4853a60405160200161139490614f35565b6040516020818303038152906040528051906020012060016040518363ffffffff1660e01b81526004016113c9929190613fa1565b6020604051808303816000875af11580156113e8573d6000803e3d6000fd5b505050506040513d601f19601f82011682018060405250810190610b459190614aef565b7f00000000000000000000000000000000000000000000000000000000000000006001600160a01b031663e2a4853a60405160200161144a90614f35565b6040516020818303038152906040528051906020012060006040518363ffffffff1660e01b815260040161147f929190613fa1565b6020604051808303816000875af115801561149e573d6000803e3d6000fd5b505050506040513d601f19601f820116820180604052508101906107d09190614aef565b6000604051602001611505906020808252601d908201527f43414e43454c5f4f524445525f464541545552455f44495341424c4544000000604082015260600190565b60408051601f198184030181528282528051602091820120908301526001600160a01b038516908201526060810183905260800160405160208183030381529060405280519060200120905092915050565b611561828261217a565b15610b455760405163dd70e0c960e01b815260048101829052602401610303565b600080826007811115611597576115976142b6565b14806115b4575060028260078111156115b2576115b26142b6565b145b8061119b575060045b8260078111156115cf576115cf6142b6565b1492915050565b6000836001600160a01b031663bd02d0f5604051602001611627906020808252601c908201527b524551554553545f45585049524154494f4e5f424c4f434b5f41474560201b604082015260600190565b604051602081830303815290604052805190602001206040518263ffffffff1660e01b815260040161165b91815260200190565b602060405180830381865afa158015611678573d6000803e3d6000fd5b505050506040513d601f19601f8201168201806040525081019061169c9190614aef565b90506000836116a96121ed565b6116b39190614f66565b9050818110156116dc57808284604051631d04cc8760e31b815260040161030393929190614f79565b5050505050565b60006116f96116f483602001515190565b612269565b1561170f57611708838361228d565b905061119b565b61172361171e83602001515190565b6123b2565b1561173257611708838361240e565b61174661174183602001515190565b61256e565b15611755576117088383612591565b60405163c1c0083160e01b815260040160405180910390fd5b600061177984612643565b90506117858183614b1e565b8310156117b65760405163bb416f9360e01b8152600481018490526024810183905260448101829052606401610303565b50505050565b6000806117c884612708565b9050808310156117ef578281604051631e4a4e5960e21b8152600401610303929190613fa1565b6117f98184614f66565b949350505050565b61182b7f00000000000000000000000000000000000000000000000000000000000000008261276c565b6000611838826020015190565b9050600073__$9dcb75ef0bb6c4288f2ccffe7dc492c4eb$__63fdfc26f37f0000000000000000000000000000000000000000000000000000000000000000876040518363ffffffff1660e01b8152600401611895929190613fc5565b600060405180830381865af41580156118b2573d6000803e3d6000fd5b505050506040513d6000823e601f3d908101601f191682016040526118da9190810190614143565b905060006118ed61067c83602001515190565b90506118f8836127ba565b80611907575060408083015101515b8061192b57508015801561192b57506001600160e01b03198316634dfbbff360e01b145b8061194657506001600160e01b03198316631630779760e01b145b8061196157506001600160e01b0319831663dd70e0c960e01b145b8061197c57506001600160e01b03198316630397fb7760e61b145b8061199757506001600160e01b0319831663c1c0083160e01b145b806119b257506001600160e01b03198316630240d0ad60e11b145b156119c0576119c0846127f0565b60006119cb856127f9565b50905081806119ea57506001600160e01b0319841663182e30e360e01b145b80611a0557506001600160e01b031984166341ce349f60e11b145b80611a2057506001600160e01b0319841663bff65b3f60e01b145b15611b0357604051630ee64ab760e11b815273__$18943158f75973db0541c3d7c8650b2485$__90631dcc956e90611aca907f0000000000000000000000000000000000000000000000000000000000000000907f0000000000000000000000000000000000000000000000000000000000000000907f0000000000000000000000000000000000000000000000000000000000000000908d9033908e908a908f90600401614f98565b60006040518083038186803b158015611ae257600080fd5b505af4158015611af6573d6000803e3d6000fd5b5050505050505050505050565b604051633197fa0d60e11b815273__$18943158f75973db0541c3d7c8650b2485$__9063632ff41a90611aca907f0000000000000000000000000000000000000000000000000000000000000000907f0000000000000000000000000000000000000000000000000000000000000000907f0000000000000000000000000000000000000000000000000000000000000000908d9033908e908a908f90600401614f98565b6000604051602001611505906020808252601d908201527f5550444154455f4f524445525f464541545552455f44495341424c4544000000604082015260600190565b6000816001600160a01b03166321f8a721604051602001611c239060208082526003908201526215d39560ea1b604082015260600190565b604051602081830303815290604052805190602001206040518263ffffffff1660e01b8152600401611c5791815260200190565b602060405180830381865afa158015611c74573d6000803e3d6000fd5b505050506040513d601f19601f8201168201806040525081019061119b9190615004565b6000611ca48484612889565b90506000611cb23a83615021565b9050808310156116dc578083604051635dac504d60e01b8152600401610303929190613fa1565b6107d0611ce46121ed565b60208301516101200152565b6000611cfb82515190565b6001600160a01b031603611d2257604051631630779760e01b815260040160405180910390fd5b602081015160400151158015611d3e5750602081015160600151155b156107d057604051631630779760e01b815260040160405180910390fd5b611d6461336f565b611d6c61336f565b6020810188905260408101879052611daf7f0000000000000000000000000000000000000000000000000000000000000000611daa895160c0015190565b612a48565b60608083019190915281516001600160a01b037f000000000000000000000000000000000000000000000000000000000000000081811690925283517f0000000000000000000000000000000000000000000000000000000000000000821660209091015283517f0000000000000000000000000000000000000000000000000000000000000000821660409182015284517f00000000000000000000000000000000000000000000000000000000000000008316940184905284517f0000000000000000000000000000000000000000000000000000000000000000831660809091015284517f000000000000000000000000000000000000000000000000000000000000000090921660a0909201919091526101808901516101a08a0151915163f81a03c360e01b81526000949363f81a03c393611ef3939192600401615038565b6000604051808303816000875af1158015611f12573d6000803e3d6000fd5b505050506040513d6000823e601f3d908101601f19168201604052611f3a919081019061512e565b9050611f528760400151886020015151836000612b03565b60808301526060870151602088015151611f6f9190836001612b03565b60a0830152604082015151608001516001600160a01b031615611fa95781515160408301515160800151611fa39190612cbe565b60c08301525b6001600160a01b03861660e083015261010082018590526101208201846001811115611fd757611fd76142b6565b90816001811115611fea57611fea6142b6565b9052509098975050505050505050565b7f00000000000000000000000000000000000000000000000000000000000000006001600160a01b031663ac4ab3fb8260405160200161206190602080825260139082015272232927ad22a72fa7a92222a92fa5a2a2a822a960691b604082015260600190565b604051602081830303815290604052805190602001206040518363ffffffff1660e01b8152600401612094929190613fc5565b602060405180830381865afa1580156120b1573d6000803e3d6000fd5b505050506040513d601f19601f820116820180604052508101906120d59190614ef4565b6107d05780604051630397fb7760e61b815260040161030391906134f0565b6000604051602001611505906020808252601e908201527f455845435554455f4f524445525f464541545552455f44495341424c45440000604082015260600190565b6000604051602001611505906020808252601d908201527f4352454154455f4f524445525f464541545552455f44495341424c4544000000604082015260600190565b604051633d70e7e560e11b8152600481018290526000906001600160a01b03841690637ae1cfca90602401602060405180830381865afa1580156121c2573d6000803e3d6000fd5b505050506040513d601f19601f820116820180604052508101906121e69190614ef4565b9392505050565b60006121f7612d4f565b156122645760646001600160a01b031663a3b1b31d6040518163ffffffff1660e01b8152600401602060405180830381865afa15801561223b573d6000803e3d6000fd5b505050506040513d601f19601f8201168201806040525081019061225f9190614aef565b905090565b504390565b6000600282600781111561227f5761227f6142b6565b148061119b575060036115bd565b600080836001600160a01b031663bd02d0f56122a7612d66565b6040518263ffffffff1660e01b81526004016122c591815260200190565b602060405180830381865afa1580156122e2573d6000803e3d6000fd5b505050506040513d601f19601f820116820180604052508101906123069190614aef565b9050612317836020015160e0015190565b835160c00151516123289083615021565b856001600160a01b031663bd02d0f561233f612dbc565b6040518263ffffffff1660e01b815260040161235d91815260200190565b602060405180830381865afa15801561237a573d6000803e3d6000fd5b505050506040513d601f19601f8201168201806040525081019061239e9190614aef565b6123a89190614b1e565b6117f99190614b1e565b600060048260078111156123c8576123c86142b6565b14806123e5575060058260078111156123e3576123e36142b6565b145b80612401575060068260078111156123ff576123ff6142b6565b145b8061119b575060076115bd565b600080836001600160a01b031663bd02d0f5612428612d66565b6040518263ffffffff1660e01b815260040161244691815260200190565b602060405180830381865afa158015612463573d6000803e3d6000fd5b505050506040513d601f19601f820116820180604052508101906124879190614aef565b90506000612497845160c0015190565b5190506000602080860151015160028111156124b5576124b56142b6565b146124c8576124c5600182614b1e565b90505b602084015160e001516124db8284615021565b866001600160a01b031663bd02d0f56124f2612dfa565b6040518263ffffffff1660e01b815260040161251091815260200190565b602060405180830381865afa15801561252d573d6000803e3d6000fd5b505050506040513d601f19601f820116820180604052508101906125519190614aef565b61255b9190614b1e565b6125659190614b1e565b95945050505050565b600080826007811115612583576125836142b6565b148061119b575060016115bd565b600080836001600160a01b031663bd02d0f56125ab612d66565b6040518263ffffffff1660e01b81526004016125c991815260200190565b602060405180830381865afa1580156125e6573d6000803e3d6000fd5b505050506040513d601f19601f8201168201806040525081019061260a9190614aef565b905061261b836020015160e0015190565b835160c001515161262c9083615021565b856001600160a01b031663bd02d0f561233f612e38565b6000816001600160a01b031663bd02d0f5604051602001612693906020808252818101527f4d494e5f4144444954494f4e414c5f4741535f464f525f455845435554494f4e604082015260600190565b604051602081830303815290604052805190602001206040518263ffffffff1660e01b81526004016126c791815260200190565b602060405180830381865afa1580156126e4573d6000803e3d6000fd5b505050506040513d601f19601f8201168201806040525081019061119b9190614aef565b6000816001600160a01b031663bd02d0f56040516020016126939060208082526029908201527f4d494e5f48414e444c455f455845435554494f4e5f4552524f525f4741535f5460408201526813d7d193d495d0549160ba1b606082015260800190565b805115158061277a57503215155b15612783575050565b60005a9050600061279384612e72565b9050808210156117b6578181604051633083b9e560e01b8152600401610303929190613fa1565b60006127c582612ec4565b156127d257506001919050565b6127db82612f06565b156127e857506001919050565b506000919050565b80518060208301fd5b60606000604483511015612820575050604080516020810190915260008082529092909150565b600061282d846020015190565b90506307b9e43360e51b6001600160e01b031982160161286c5760048401935083806020019051810190612861919061525c565b946001945092505050565b600060405180602001604052806000815250909250925050915091565b600080836001600160a01b031663bd02d0f56040516020016128dc906020808252601d908201527f455354494d415445445f4741535f4645455f424153455f414d4f554e54000000604082015260600190565b604051602081830303815290604052805190602001206040518263ffffffff1660e01b815260040161291091815260200190565b602060405180830381865afa15801561292d573d6000803e3d6000fd5b505050506040513d601f19601f820116820180604052508101906129519190614aef565b90506000846001600160a01b031663bd02d0f56040516020016129b19060208082526023908201527f455354494d415445445f4741535f4645455f4d554c5449504c4945525f4641436040820152622a27a960e91b606082015260800190565b604051602081830303815290604052805190602001206040518263ffffffff1660e01b81526004016129e591815260200190565b602060405180830381865afa158015612a02573d6000803e3d6000fd5b505050506040513d601f19601f82011682018060405250810190612a269190614aef565b90506000612a348583612f28565b612a3e9084614b1e565b9695505050505050565b6060600082516001600160401b03811115612a6557612a65613504565b604051908082528060200260200182016040528015612a9e57816020015b612a8b6133fb565b815260200190600190039081612a835790505b50905060005b8351811015612afb576000848281518110612ac157612ac1613faf565b60200260200101519050612ad58682612f41565b838381518110612ae757612ae7613faf565b602090810291909101015250600101612aa4565b509392505050565b60606000835185612b149190614b1e565b6001600160401b03811115612b2b57612b2b613504565b604051908082528060200260200182016040528015612b54578160200160208202803683370190505b50905060005b85811015612b9157612b6c8782612fd2565b828281518110612b7e57612b7e613faf565b6020908102919091010152600101612b5a565b506000836001811115612ba657612ba66142b6565b03612c145760005b8451811015612c0e57848181518110612bc957612bc9613faf565b602002602001015160e001516001600160401b0316828288612beb9190614b1e565b81518110612bfb57612bfb613faf565b6020908102919091010152600101612bae565b50612565565b6001836001811115612c2857612c286142b6565b03612c905760005b8451811015612c0e57848181518110612c4b57612c4b613faf565b602002602001015160a001516001600160401b0316828288612c6d9190614b1e565b81518110612c7d57612c7d613faf565b6020908102919091010152600101612c30565b826001811115612ca257612ca26142b6565b60405163b602928160e01b815260040161030391815260200190565b612cc66133fb565b60405163a8d8fff560e01b815260009073__$ff439aa65a80c9eec648f15db20b189505$__9063a8d8fff590612d0290879087906004016152c9565b608060405180830381865af4158015612d1f573d6000803e3d6000fd5b505050506040513d601f19601f82011682018060405250810190612d4391906152e3565b90506121e68482613044565b600061a4b146148061225f5750504662066eee1490565b6000604051602001612da19060208082526015908201527414d25391d31157d4d5d05417d1d054d7d312535255605a1b604082015260600190565b60405160208183030381529060405280519060200120905090565b6000604051602001612da190602080825260189082015277125390d4915054d157d3d491115497d1d054d7d31253525560421b604082015260600190565b6000604051602001612da190602080825260189082015277111150d4915054d157d3d491115497d1d054d7d31253525560421b604082015260600190565b6000604051602001612da19060208082526014908201527314d5d05417d3d491115497d1d054d7d31253525560621b604082015260600190565b6000816001600160a01b031663bd02d0f5604051602001612693906020808252601e908201527f4d494e5f48414e444c455f455845435554494f4e5f4552524f525f4741530000604082015260600190565b600063010dcfd160e71b6001600160e01b0319831601612ee657506001919050565b6341f057fb60e11b6001600160e01b03198316016127e857506001919050565b600063329b5fdb60e01b6001600160e01b03198316016127e857506001919050565b60006121e6838368327cb2734119d3b7a9601e1b613112565b612f496133fb565b60405163a8d8fff560e01b815260009073__$ff439aa65a80c9eec648f15db20b189505$__9063a8d8fff590612f8590879087906004016152c9565b608060405180830381865af4158015612fa2573d6000803e3d6000fd5b505050506040513d601f19601f82011682018060405250810190612fc691906152e3565b90506121e6848261311f565b60008061301e8484604060c0600019901c6040518060400160405280601f81526020017f676574556e636f6d7061637465644f7261636c65426c6f636b4e756d62657200815250613166565b9050806000036121e65760405163349f5fdd60e11b815260048101849052602401610303565b80516001600160a01b031661306c576040516302fde0d760e11b815260040160405180910390fd5b6000826001600160a01b0316637ae1cfca61308a8460000151613203565b6040518263ffffffff1660e01b81526004016130a891815260200190565b602060405180830381865afa1580156130c5573d6000803e3d6000fd5b505050506040513d601f19601f820116820180604052508101906130e99190614ef4565b9050801561310d5781516040516309f8c93760e01b815261030391906004016134f0565b505050565b60006117f9848484613285565b6131298282613044565b80606001516001600160a01b031681604001516001600160a01b031603610b455780516040516332e6f44d60e21b815261030391906004016134f0565b6000806131758561010061537f565b90506000613183828861537f565b9050875181106131ae578787828660405163bdec9c0d60e01b815260040161030394939291906153a1565b60008882815181106131c2576131c2613faf565b6020026020010151905060008784846131db9190615021565b6131e5908b614f66565b6131ef9190615021565b9190911c8616935050505095945050505050565b600060405160200161323b906020808252601290820152711254d7d3505492d15517d11254d05093115160721b604082015260600190565b60408051601f198184030181528282528051602091820120908301526001600160a01b03841690820152606001604051602081830303815290604052805190602001209050919050565b60008080600019858709858702925082811083820303915050806000036132bf578382816132b5576132b5615369565b04925050506121e6565b8084116133065760405162461bcd60e51b81526020600482015260156024820152744d6174683a206d756c446976206f766572666c6f7760581b6044820152606401610303565b60008486880960026001871981018816978890046003810283188082028403028082028403028082028403028082028403028082028403029081029092039091026000889003889004909101858311909403939093029303949094049190911702949350505050565b604080516102008101825260006101408201818152610160830182905261018083018290526101a083018290526101c083018290526101e08301829052825260208201529081016133be613422565b81526020016060815260200160608152602001606081526020016133e06133fb565b81526000602082018190526040820181905260609091015290565b60408051608081018252600080825260208201819052918101829052606081019190915290565b604080516101408101909152600060608083018281526080840183905260a0840183905260c0840183905260e084018390526101008401929092526101208301528152602081016134c060408051610140810190915280600081526020016000815260200160008152602001600081526020016000815260200160008152602001600081526020016000815260200160008152602001600081525090565b815260408051606081018252600080825260208281018290529282015291015290565b6001600160a01b03169052565b6001600160a01b0391909116815260200190565b634e487b7160e01b600052604160045260246000fd5b604080519081016001600160401b038111828210171561353c5761353c613504565b60405290565b60405161014081016001600160401b038111828210171561353c5761353c613504565b604051606081016001600160401b038111828210171561353c5761353c613504565b60405160e081016001600160401b038111828210171561353c5761353c613504565b6040516101c081016001600160401b038111828210171561353c5761353c613504565b60405161012081016001600160401b038111828210171561353c5761353c613504565b604051601f8201601f191681016001600160401b038111828210171561361757613617613504565b604052919050565b60006001600160401b0382111561363857613638613504565b5060051b60200190565b6001600160a01b03811681146107d057600080fd5b803561366281613642565b919050565b600082601f83011261367857600080fd5b813561368b6136868261361f565b6135ef565b8082825260208201915060208360051b8601019250858311156136ad57600080fd5b602085015b838110156136d35780356136c581613642565b8352602092830192016136b2565b5095945050505050565b600080604083850312156136f057600080fd5b8235915060208301356001600160401b0381111561370d57600080fd5b83016040818603121561371f57600080fd5b61372761351a565b81356001600160401b0381111561373d57600080fd5b61374987828501613667565b82525060208201356001600160401b0381111561376557600080fd5b80830192505085601f83011261377a57600080fd5b81356137886136868261361f565b8082825260208201915060208360061b8601019250888311156137aa57600080fd5b6020850194505b828510156137f2576040858a0312156137c957600080fd5b6137d161351a565b853581526020808701358183015290835260409095019491909101906137b1565b60208401525093969095509350505050565b60006020828403121561381657600080fd5b5035919050565b6000806040838503121561383057600080fd5b8235915060208301356001600160401b0381111561384d57600080fd5b83016101c0818603121561386057600080fd5b809150509250929050565b600881106107d057600080fd5b80356136628161386b565b600381106107d057600080fd5b803561366281613883565b600061014082840312156138ae57600080fd5b6138b6613542565b90506138c182613878565b81526138cf60208301613890565b602082015260408281013590820152606080830135908201526080808301359082015260a0808301359082015260c0808301359082015260e0808301359082015261010080830135908201526101209182013591810191909152919050565b80151581146107d057600080fd5b80356136628161392e565b60006060828403121561395957600080fd5b613961613565565b9050813561396e8161392e565b8152602082013561397e8161392e565b602082015260408201356139918161392e565b604082015292915050565b60006101c082840312156139af57600080fd5b6139b7613565565b905081356001600160401b038111156139cf57600080fd5b820160e081850312156139e157600080fd5b6139e9613587565b6139f282613657565b8152613a0060208301613657565b6020820152613a1160408301613657565b6040820152613a2260608301613657565b6060820152613a3360808301613657565b6080820152613a4460a08301613657565b60a082015260c08201356001600160401b03811115613a6257600080fd5b613a6e86828501613667565b60c083015250825250613a84836020840161389b565b6020820152613991836101608401613947565b60008060008060008060c08789031215613ab057600080fd5b863595506020870135945060408701359350606087013592506080870135915060a08701356001600160401b03811115613ae957600080fd5b613af589828a0161399c565b9150509295509295509295565b600082601f830112613b1357600080fd5b8135613b216136868261361f565b8082825260208201915060208360051b860101925085831115613b4357600080fd5b602085015b838110156136d3578035835260209283019201613b48565b60006001600160401b03821115613b7957613b79613504565b50601f01601f191660200190565b600082601f830112613b9857600080fd5b8135613ba66136868261361f565b8082825260208201915060208360051b860101925085831115613bc857600080fd5b602085015b838110156136d35780356001600160401b03811115613beb57600080fd5b8601603f81018813613bfc57600080fd5b6020810135613c0d61368682613b60565b8181526040838301018a1015613c2257600080fd5b81604084016020830137600060208383010152808652505050602083019250602081019050613bcd565b60006101c08284031215613c5f57600080fd5b613c676135a9565b82358152905060208201356001600160401b03811115613c8657600080fd5b613c9284828501613667565b60208301525060408201356001600160401b03811115613cb157600080fd5b613cbd84828501613b02565b60408301525060608201356001600160401b03811115613cdc57600080fd5b613ce884828501613b02565b60608301525060808201356001600160401b03811115613d0757600080fd5b613d1384828501613b02565b60808301525060a08201356001600160401b03811115613d3257600080fd5b613d3e84828501613b02565b60a08301525060c08201356001600160401b03811115613d5d57600080fd5b613d6984828501613b02565b60c08301525060e08201356001600160401b03811115613d8857600080fd5b613d9484828501613b02565b60e0830152506101008201356001600160401b03811115613db457600080fd5b613dc084828501613b02565b610100830152506101208201356001600160401b03811115613de157600080fd5b613ded84828501613b02565b610120830152506101408201356001600160401b03811115613e0e57600080fd5b613e1a84828501613b87565b610140830152506101608201356001600160401b03811115613e3b57600080fd5b613e4784828501613667565b610160830152506101808201356001600160401b03811115613e6857600080fd5b613e7484828501613667565b610180830152506101a08201356001600160401b03811115613e9557600080fd5b613ea184828501613b87565b6101a08301525092915050565b60008060008060808587031215613ec457600080fd5b8435935060208501356001600160401b03811115613ee157600080fd5b613eed8782880161399c565b93505060408501356001600160401b03811115613f0957600080fd5b613f1587828801613c4c565b9250506060850135613f2681613642565b939692955090935050565b60008060408385031215613f4457600080fd5b8235613f4f81613642565b915060208301356001600160401b03811115613f6a57600080fd5b83016101a0818603121561386057600080fd5b6020808252600a908201526921a7a72a2927a62622a960b11b604082015260600190565b918252602082015260400190565b634e487b7160e01b600052603260045260246000fd5b6001600160a01b03929092168252602082015260400190565b805161366281613642565b600082601f830112613ffa57600080fd5b81516140086136868261361f565b8082825260208201915060208360051b86010192508583111561402a57600080fd5b602085015b838110156136d357805161404281613642565b83526020928301920161402f565b80516136628161386b565b805161366281613883565b6000610140828403121561407957600080fd5b614081613542565b905061408c82614050565b815261409a6020830161405b565b602082015260408281015190820152606080830151908201526080808301519082015260a0808301519082015260c0808301519082015260e0808301519082015261010080830151908201526101209182015191810191909152919050565b60006060828403121561410b57600080fd5b614113613565565b905081516141208161392e565b815260208201516141308161392e565b602082015260408201516139918161392e565b60006020828403121561415557600080fd5b81516001600160401b0381111561416b57600080fd5b82016101c0818503121561417e57600080fd5b614186613565565b81516001600160401b0381111561419c57600080fd5b820160e081870312156141ae57600080fd5b6141b6613587565b6141bf82613fde565b81526141cd60208301613fde565b60208201526141de60408301613fde565b60408201526141ef60608301613fde565b606082015261420060808301613fde565b608082015261421160a08301613fde565b60a082015260c08201516001600160401b0381111561422f57600080fd5b61423b88828501613fe9565b60c0830152508252506142518560208401614066565b60208201526142648561016084016140f9565b6040820152949350505050565b600081518084526020840193506020830160005b828110156142ac5781516001600160a01b0316865260209586019590910190600101614285565b5093949350505050565b634e487b7160e01b600052602160045260246000fd5b600881106142dc576142dc6142b6565b9052565b600381106142dc576142dc6142b6565b6142fb8282516142cc565b602081015161430d60208401826142e0565b5060408101516040830152606081015160608301526080810151608083015260a081015160a083015260c081015160c083015260e081015160e08301526101008101516101008301526101208101516101208301525050565b80516101c080845281516001600160a01b0390811691850191909152602082015181166101e08501526040820151166102008401526060810151600091906143b26102208601826134e3565b5060808101516143c66102408601826134e3565b5060a08101516143da6102608601826134e3565b5060c0015160e06102808501526143f56102a0850182614271565b9050602083015161440960208601826142f0565b5060408381015180511515610160870152602081015115156101808701529081015115156101a0860152612afb565b600081518084526020840193506020830160005b828110156142ac57815186526020958601959091019060010161444c565b60005b8381101561448557818101518382015260200161446d565b50506000910152565b600081518084526144a681602086016020860161446a565b601f01601f19169290920160200192915050565b600082825180855260208501945060208160051b8301016020850160005b8381101561450a57601f198584030188526144f483835161448e565b60209889019890935091909101906001016144d8565b50909695505050505050565b80518252600060208201516101c060208501526145376101c0850182614271565b9050604083015184820360408601526145508282614438565b9150506060830151848203606086015261456a8282614438565b915050608083015184820360808601526145848282614438565b91505060a083015184820360a086015261459e8282614438565b91505060c083015184820360c08601526145b88282614438565b91505060e083015184820360e08601526145d28282614438565b9150506101008301518482036101008601526145ee8282614438565b91505061012083015184820361012086015261460a8282614438565b91505061014083015184820361014086015261462682826144ba565b9150506101608301518482036101608601526146428282614271565b91505061018083015184820361018086015261465e8282614271565b9150506101a08301518482036101a086015261256582826144ba565b8481526080602082015260006146936080830186614366565b82810360408401526146a58186614516565b91505060018060a01b038316606083015295945050505050565b6001600160a01b03888116825287811660208301528681166040830152606082018690528416608082015260a0810183905261010060c0820181905260009061470a9083018461448e565b82810360e0840152600081526020810191505098975050505050505050565b600061119b3683613c4c565b6001600160a01b0384811682528316602082015260606040820181905260009061256590830184614516565b6000808335601e1984360301811261477857600080fd5b83016020810192503590506001600160401b0381111561479757600080fd5b8060051b36038213156147a957600080fd5b9250929050565b81835260208301925060008160005b848110156142ac5781356147d281613642565b6001600160a01b0316865260209586019591909101906001016147bf565b81835260006001600160fb1b0383111561480957600080fd5b8260051b80836020870137939093016020019392505050565b81835281816020850137506000828201602090810191909152601f909101601f19169091010190565b60008383855260208501945060208460051b8201018360005b8681101561450a57838303601f19018852813536879003601e1901811261488a57600080fd5b86016020810190356001600160401b038111156148a657600080fd5b8036038213156148b557600080fd5b6148c0858284614822565b60209a8b019a90955093909301925050600101614864565b8481526080602082015260006148f16080830186614366565b82810360408401528435815261490a6020860186614761565b6101c060208401526149216101c0840182846147b0565b9150506149316040870187614761565b83830360408501526149448382846147f0565b925050506149556060870187614761565b83830360608501526149688382846147f0565b925050506149796080870187614761565b838303608085015261498c8382846147f0565b9250505061499d60a0870187614761565b83830360a08501526149b08382846147f0565b925050506149c160c0870187614761565b83830360c08501526149d48382846147f0565b925050506149e560e0870187614761565b83830360e08501526149f88382846147f0565b92505050614a0a610100870187614761565b838303610100850152614a1e8382846147f0565b92505050614a30610120870187614761565b838303610120850152614a448382846147f0565b92505050614a56610140870187614761565b838303610140850152614a6a83828461484b565b92505050614a7c610160870187614761565b838303610160850152614a908382846147b0565b92505050614aa2610180870187614761565b838303610180850152614ab68382846147b0565b92505050614ac86101a0870187614761565b8383036101a0850152614adc83828461484b565b94505050505061256560608301846134e3565b600060208284031215614b0157600080fd5b5051919050565b634e487b7160e01b600052601160045260246000fd5b8082018082111561119b5761119b614b08565b60018060a01b03841681528260208201526060604082015260006125656060830184614366565b80516001600160a01b03908116835260208083015182169084015260408083015182169084015260609182015116910152565b600081518084526020840193506020830160005b828110156142ac57614bb2868351614b58565b6080959095019460209190910190600101614b9f565b600281106142dc576142dc6142b6565b60208152614c3060208201835180516001600160a01b03908116835260208083015182169084015260408083015182169084015260608083015182169084015260808083015182169084015260a09182015116910152565b602082015160e082015260006040830151610240610100840152614c58610260840182614366565b90506060840151601f1984830301610120850152614c768282614b8b565b9150506080840151601f1984830301610140850152614c958282614438565b91505060a0840151601f1984830301610160850152614cb48282614438565b91505060c0840151614cca610180850182614b58565b5060e0840151614cde6102008501826134e3565b50610100840151610220840152610120840151612afb610240850182614bc8565b600060208284031215614d1157600080fd5b81356121e68161386b565b60008135614d2981613642565b6001600160a01b031683526020820135614d4281613642565b6001600160a01b031660208401526040820135614d5e81613642565b6001600160a01b031660408401526060820135614d7a81613642565b614d8760608501826134e3565b50614d9460808301613657565b614da160808501826134e3565b50614daf60a0830183614761565b60c060a086015261256560c0860182846147b0565b6001600160a01b0387811682528681166020830152858116604083015284811660608301528316608082015260c060a0820152600082353684900360be19018112614e0e57600080fd5b6101a060c0840152614e266102608401858301614d1c565b602085013560e08581019190915260408601356101008601526060860135610120860152608086013561014086015260a086013561016086015260c08601356101808601528501356101a08501529050614e836101008501613878565b614e916101c08501826142cc565b50614e9f6101208501613890565b614ead6101e08501826142e0565b50614ebb610140850161393c565b1515610200840152614ed0610160850161393c565b15156102208401526101809390930135610240909201919091525095945050505050565b600060208284031215614f0657600080fd5b81516121e68161392e565b6001600160a01b03831681526040602082018190526000906117f99083018461448e565b6020808252601790820152765245454e5452414e43595f47554152445f53544154555360481b604082015260600190565b8181038181111561119b5761119b614b08565b838152826020820152606060408201526000612565606083018461448e565b6001600160a01b03898116825288811660208301528781166040830152606082018790528516608082015260a0810184905261010060c08201819052600090614fe39083018561448e565b82810360e0840152614ff5818561448e565b9b9a5050505050505050505050565b60006020828403121561501657600080fd5b81516121e681613642565b808202811582820484141761119b5761119b614b08565b6001600160a01b0384168152606060208083018290528451918301829052600091908501906080840190835b8181101561508b5783516001600160a01b0316835260209384019390920191600101615064565b50508381036040850152845180825260208083019350600582901b8301810190870160005b838110156150e257601f198584030186526150cc83835161448e565b60209687019690935091909101906001016150b0565b50909998505050505050505050565b805163ffffffff8116811461366257600080fd5b8051601781900b811461366257600080fd5b80516001600160401b038116811461366257600080fd5b60006020828403121561514057600080fd5b81516001600160401b0381111561515657600080fd5b8201601f8101841361516757600080fd5b80516151756136868261361f565b808282526020820191506020610120840285010192508683111561519857600080fd5b6020840193505b82841015612a3e5761012084880312156151b857600080fd5b6151c06135cc565b845181526151d0602086016150f1565b60208201526151e160408601615105565b60408201526151f260608601615105565b606082015261520360808601615105565b608082015261521460a08601615117565b60a082015260c0858101519082015261522f60e08601615117565b60e08201526152416101008601615117565b6101008201528252610120939093019260209091019061519f565b60006020828403121561526e57600080fd5b81516001600160401b0381111561528457600080fd5b8201601f8101841361529557600080fd5b80516152a361368682613b60565b8181528560208385010111156152b857600080fd5b61256582602083016020860161446a565b6001600160a01b0392831681529116602082015260400190565b600060808284031280156152f657600080fd5b50604051608081016001600160401b038111828210171561531957615319613504565b604052825161532781613642565b8152602083015161533781613642565b6020820152604083015161534a81613642565b6040820152606083015161535d81613642565b60608201529392505050565b634e487b7160e01b600052601260045260246000fd5b60008261539c57634e487b7160e01b600052601260045260246000fd5b500490565b60808082528551908201819052600090602087019060a0840190835b818110156153db5783518352602093840193909201916001016153bd565b505086602085015285604085015283810360608501526153fb818661448e565b9897505050505050505056fea26469706673582212203c765be11f33fcf64fb9759135048996105e3ffc55965b24b5a8ec893d6c2efc64736f6c634300081a0033",
  "linkReferences": {
    "contracts/market/MarketStoreUtils.sol": {
      "MarketStoreUtils": [
        {
          "length": 20,
          "start": 12166
        },
        {
          "length": 20,
          "start": 12809
        }
      ]
    },
    "contracts/order/OrderEventUtils.sol": {
      "OrderEventUtils": [
        {
          "length": 20,
          "start": 4288
        }
      ]
    },
    "contracts/order/OrderStoreUtils.sol": {
      "OrderStoreUtils": [
        {
          "length": 20,
          "start": 1815
        },
        {
          "length": 20,
          "start": 2171
        },
        {
          "length": 20,
          "start": 3027
        },
        {
          "length": 20,
          "start": 4162
        },
        {
          "length": 20,
          "start": 6892
        }
      ]
    },
    "contracts/order/OrderUtils.sol": {
      "OrderUtils": [
        {
          "length": 20,
          "start": 2413
        },
        {
          "length": 20,
          "start": 4721
        },
        {
          "length": 20,
          "start": 4940
        },
        {
          "length": 20,
          "start": 7394
        },
        {
          "length": 20,
          "start": 7616
        }
      ]
    }
  },
  "deployedLinkReferences": {
    "contracts/market/MarketStoreUtils.sol": {
      "MarketStoreUtils": [
        {
          "length": 20,
          "start": 11480
        },
        {
          "length": 20,
          "start": 12123
        }
      ]
    },
    "contracts/order/OrderEventUtils.sol": {
      "OrderEventUtils": [
        {
          "length": 20,
          "start": 3602
        }
      ]
    },
    "contracts/order/OrderStoreUtils.sol": {
      "OrderStoreUtils": [
        {
          "length": 20,
          "start": 1129
        },
        {
          "length": 20,
          "start": 1485
        },
        {
          "length": 20,
          "start": 2341
        },
        {
          "length": 20,
          "start": 3476
        },
        {
          "length": 20,
          "start": 6206
        }
      ]
    },
    "contracts/order/OrderUtils.sol": {
      "OrderUtils": [
        {
          "length": 20,
          "start": 1727
        },
        {
          "length": 20,
          "start": 4035
        },
        {
          "length": 20,
          "start": 4254
        },
        {
          "length": 20,
          "start": 6708
        },
        {
          "length": 20,
          "start": 6930
        }
      ]
    }
  }
}