{
  "_format": "hh-sol-artifact-1",
  "contractName": "Timelock",
  "sourceName": "contracts/config/Timelock.sol",
  "abi": [
    {
      "inputs": [
        {
          "internalType": "contract RoleStore",
          "name": "_roleStore",
          "type": "address"
        },
        {
          "internalType": "contract DataStore",
          "name": "_dataStore",
          "type": "address"
        },
        {
          "internalType": "contract EventEmitter",
          "name": "_eventEmitter",
          "type": "address"
        },
        {
          "internalType": "contract OracleStore",
          "name": "_oracleStore",
          "type": "address"
        },
        {
          "internalType": "uint256",
          "name": "_timelockDelay",
          "type": "uint256"
        }
      ],
      "stateMutability": "nonpayable",
      "type": "constructor"
    },
    {
      "inputs": [],
      "name": "ActionAlreadySignalled",
      "type": "error"
    },
    {
      "inputs": [],
      "name": "ActionNotSignalled",
      "type": "error"
    },
    {
      "inputs": [
        {
          "internalType": "address",
          "name": "receiver",
          "type": "address"
        }
      ],
      "name": "InvalidFeeReceiver",
      "type": "error"
    },
    {
      "inputs": [
        {
          "internalType": "address",
          "name": "receiver",
          "type": "address"
        }
      ],
      "name": "InvalidOracleSigner",
      "type": "error"
    },
    {
      "inputs": [
        {
          "internalType": "uint256",
          "name": "timelockDelay",
          "type": "uint256"
        }
      ],
      "name": "InvalidTimelockDelay",
      "type": "error"
    },
    {
      "inputs": [
        {
          "internalType": "uint256",
          "name": "timelockDelay",
          "type": "uint256"
        }
      ],
      "name": "MaxTimelockDelayExceeded",
      "type": "error"
    },
    {
      "inputs": [
        {
          "internalType": "uint256",
          "name": "signalTime",
          "type": "uint256"
        }
      ],
      "name": "SignalTimeNotYetPassed",
      "type": "error"
    },
    {
      "inputs": [
        {
          "internalType": "address",
          "name": "msgSender",
          "type": "address"
        },
        {
          "internalType": "string",
          "name": "role",
          "type": "string"
        }
      ],
      "name": "Unauthorized",
      "type": "error"
    },
    {
      "inputs": [],
      "name": "MAX_TIMELOCK_DELAY",
      "outputs": [
        {
          "internalType": "uint256",
          "name": "",
          "type": "uint256"
        }
      ],
      "stateMutability": "view",
      "type": "function"
    },
    {
      "inputs": [
        {
          "internalType": "address",
          "name": "account",
          "type": "address"
        }
      ],
      "name": "addOracleSignerAfterSignal",
      "outputs": [],
      "stateMutability": "nonpayable",
      "type": "function"
    },
    {
      "inputs": [
        {
          "internalType": "bytes32",
          "name": "actionKey",
          "type": "bytes32"
        }
      ],
      "name": "cancelAction",
      "outputs": [],
      "stateMutability": "nonpayable",
      "type": "function"
    },
    {
      "inputs": [],
      "name": "dataStore",
      "outputs": [
        {
          "internalType": "contract DataStore",
          "name": "",
          "type": "address"
        }
      ],
      "stateMutability": "view",
      "type": "function"
    },
    {
      "inputs": [],
      "name": "eventEmitter",
      "outputs": [
        {
          "internalType": "contract EventEmitter",
          "name": "",
          "type": "address"
        }
      ],
      "stateMutability": "view",
      "type": "function"
    },
    {
      "inputs": [
        {
          "internalType": "address",
          "name": "account",
          "type": "address"
        },
        {
          "internalType": "bytes32",
          "name": "roleKey",
          "type": "bytes32"
        }
      ],
      "name": "grantRoleAfterSignal",
      "outputs": [],
      "stateMutability": "nonpayable",
      "type": "function"
    },
    {
      "inputs": [
        {
          "internalType": "uint256",
          "name": "_timelockDelay",
          "type": "uint256"
        }
      ],
      "name": "increaseTimelockDelay",
      "outputs": [],
      "stateMutability": "nonpayable",
      "type": "function"
    },
    {
      "inputs": [
        {
          "internalType": "bytes[]",
          "name": "data",
          "type": "bytes[]"
        }
      ],
      "name": "multicall",
      "outputs": [
        {
          "internalType": "bytes[]",
          "name": "results",
          "type": "bytes[]"
        }
      ],
      "stateMutability": "nonpayable",
      "type": "function"
    },
    {
      "inputs": [],
      "name": "oracleStore",
      "outputs": [
        {
          "internalType": "contract OracleStore",
          "name": "",
          "type": "address"
        }
      ],
      "stateMutability": "view",
      "type": "function"
    },
    {
      "inputs": [
        {
          "internalType": "bytes32",
          "name": "",
          "type": "bytes32"
        }
      ],
      "name": "pendingActions",
      "outputs": [
        {
          "internalType": "uint256",
          "name": "",
          "type": "uint256"
        }
      ],
      "stateMutability": "view",
      "type": "function"
    },
    {
      "inputs": [
        {
          "internalType": "address",
          "name": "account",
          "type": "address"
        }
      ],
      "name": "removeOracleSignerAfterSignal",
      "outputs": [],
      "stateMutability": "nonpayable",
      "type": "function"
    },
    {
      "inputs": [
        {
          "internalType": "address",
          "name": "account",
          "type": "address"
        },
        {
          "internalType": "bytes32",
          "name": "roleKey",
          "type": "bytes32"
        }
      ],
      "name": "revokeRole",
      "outputs": [],
      "stateMutability": "nonpayable",
      "type": "function"
    },
    {
      "inputs": [
        {
          "internalType": "address",
          "name": "account",
          "type": "address"
        },
        {
          "internalType": "bytes32",
          "name": "roleKey",
          "type": "bytes32"
        }
      ],
      "name": "revokeRoleAfterSignal",
      "outputs": [],
      "stateMutability": "nonpayable",
      "type": "function"
    },
    {
      "inputs": [],
      "name": "roleStore",
      "outputs": [
        {
          "internalType": "contract RoleStore",
          "name": "",
          "type": "address"
        }
      ],
      "stateMutability": "view",
      "type": "function"
    },
    {
      "inputs": [
        {
          "internalType": "address",
          "name": "account",
          "type": "address"
        }
      ],
      "name": "setFeeReceiverAfterSignal",
      "outputs": [],
      "stateMutability": "nonpayable",
      "type": "function"
    },
    {
      "inputs": [
        {
          "internalType": "bool",
          "name": "value",
          "type": "bool"
        }
      ],
      "name": "setInStrictPriceFeedMode",
      "outputs": [],
      "stateMutability": "nonpayable",
      "type": "function"
    },
    {
      "inputs": [
        {
          "internalType": "address",
          "name": "token",
          "type": "address"
        },
        {
          "internalType": "address",
          "name": "priceFeed",
          "type": "address"
        },
        {
          "internalType": "uint256",
          "name": "priceFeedMultiplier",
          "type": "uint256"
        },
        {
          "internalType": "uint256",
          "name": "priceFeedHeartbeatDuration",
          "type": "uint256"
        },
        {
          "internalType": "uint256",
          "name": "stablePrice",
          "type": "uint256"
        }
      ],
      "name": "setPriceFeedAfterSignal",
      "outputs": [],
      "stateMutability": "nonpayable",
      "type": "function"
    },
    {
      "inputs": [
        {
          "internalType": "address",
          "name": "token",
          "type": "address"
        },
        {
          "internalType": "bytes32",
          "name": "feedId",
          "type": "bytes32"
        },
        {
          "internalType": "uint256",
          "name": "realtimeFeedMultiplier",
          "type": "uint256"
        }
      ],
      "name": "setRealtimeFeedAfterSignal",
      "outputs": [],
      "stateMutability": "nonpayable",
      "type": "function"
    },
    {
      "inputs": [
        {
          "internalType": "address",
          "name": "account",
          "type": "address"
        }
      ],
      "name": "signalAddOracleSigner",
      "outputs": [],
      "stateMutability": "nonpayable",
      "type": "function"
    },
    {
      "inputs": [
        {
          "internalType": "address",
          "name": "account",
          "type": "address"
        },
        {
          "internalType": "bytes32",
          "name": "roleKey",
          "type": "bytes32"
        }
      ],
      "name": "signalGrantRole",
      "outputs": [],
      "stateMutability": "nonpayable",
      "type": "function"
    },
    {
      "inputs": [
        {
          "internalType": "address",
          "name": "account",
          "type": "address"
        }
      ],
      "name": "signalRemoveOracleSigner",
      "outputs": [],
      "stateMutability": "nonpayable",
      "type": "function"
    },
    {
      "inputs": [
        {
          "internalType": "address",
          "name": "account",
          "type": "address"
        },
        {
          "internalType": "bytes32",
          "name": "roleKey",
          "type": "bytes32"
        }
      ],
      "name": "signalRevokeRole",
      "outputs": [],
      "stateMutability": "nonpayable",
      "type": "function"
    },
    {
      "inputs": [
        {
          "internalType": "address",
          "name": "account",
          "type": "address"
        }
      ],
      "name": "signalSetFeeReceiver",
      "outputs": [],
      "stateMutability": "nonpayable",
      "type": "function"
    },
    {
      "inputs": [
        {
          "internalType": "address",
          "name": "token",
          "type": "address"
        },
        {
          "internalType": "address",
          "name": "priceFeed",
          "type": "address"
        },
        {
          "internalType": "uint256",
          "name": "priceFeedMultiplier",
          "type": "uint256"
        },
        {
          "internalType": "uint256",
          "name": "priceFeedHeartbeatDuration",
          "type": "uint256"
        },
        {
          "internalType": "uint256",
          "name": "stablePrice",
          "type": "uint256"
        }
      ],
      "name": "signalSetPriceFeed",
      "outputs": [],
      "stateMutability": "nonpayable",
      "type": "function"
    },
    {
      "inputs": [
        {
          "internalType": "address",
          "name": "token",
          "type": "address"
        },
        {
          "internalType": "bytes32",
          "name": "feedId",
          "type": "bytes32"
        },
        {
          "internalType": "uint256",
          "name": "realtimeFeedMultiplier",
          "type": "uint256"
        }
      ],
      "name": "signalSetRealtimeFeed",
      "outputs": [],
      "stateMutability": "nonpayable",
      "type": "function"
    },
    {
      "inputs": [],
      "name": "timelockDelay",
      "outputs": [
        {
          "internalType": "uint256",
          "name": "",
          "type": "uint256"
        }
      ],
      "stateMutability": "view",
      "type": "function"
    }
  ],
  "bytecode": "0x61010060405234801561001157600080fd5b5060405161420a38038061420a833981016040819052610030916100ba565b600160008190556001600160a01b0380871660805285811660a05284811660c052831660e05281905561006161006b565b5050505050610125565b6206978060015411156100a057600154604051633ebd9bc360e21b815260040161009791815260200190565b60405180910390fd5b565b6001600160a01b03811681146100b757600080fd5b50565b600080600080600060a086880312156100d257600080fd5b85516100dd816100a2565b60208701519095506100ee816100a2565b60408701519094506100ff816100a2565b6060870151909350610110816100a2565b80925050608086015190509295509295909350565b60805160a05160c05160e051613fc5610245600039600081816101c601528181610bc40152611c2b0152600081816102ba015281816104cf0152818161070a015281816108f201528181610ae301528181610c8401528181610e1c01528181610f6b0152818161108f015281816114f1015281816117f80152818161195e01528181611b8201528181611ceb01528181611ea90152818161204d015281816121ce015281816122c2015281816125410152612a5901526000818161023401528181610cd701528181611121015281816111bb01528181611255015281816112ef015281816115d6015281816116700152611d7b0152600081816101fa015281816107f0015281816109e101528181611f4b015261230e0152613fc56000f3fe608060405234801561001057600080fd5b506004361061013e5760003560e01c80630f43905d146101435780630fe29bbc146101585780630ffc3cf61461016b578063208dd1ff1461017e5780632a083ca3146101915780632d6b4cc6146101ae578063392bf7f6146101c15780634a4a7b04146101f55780634a6758461461021c578063660d0d671461022f57806369bc0f3b14610256578063728ca5741461026957806375fa19131461027c578063781cc3d31461028f5780639d89c42b146102a25780639ff78c30146102b5578063a9765cae146102dc578063ac9650d8146102ef578063b6b9b02f1461030f578063bcb151e414610322578063c4fe486c14610335578063d59ba7e414610348578063e30569e51461035b578063e82d14f11461037b578063eef09bad1461038e578063f03278d414610397575b600080fd5b610156610151366004612eca565b6103aa565b005b610156610166366004612eee565b610547565b610156610179366004612f3f565b610786565b61015661018c366004612f3f565b61096b565b61019b6206978081565b6040519081526020015b60405180910390f35b6101566101bc366004612eca565b610b55565b6101e87f000000000000000000000000000000000000000000000000000000000000000081565b6040516101a59190612f6b565b6101e87f000000000000000000000000000000000000000000000000000000000000000081565b61015661022a366004612f8d565b610cbb565b6101e87f000000000000000000000000000000000000000000000000000000000000000081565b610156610264366004612eca565b610e8e565b610156610277366004612f3f565b610fa2565b61015661028a366004612eee565b6110c6565b61015661029d366004612faa565b611528565b6101566102b0366004612fc3565b61157a565b6101e87f000000000000000000000000000000000000000000000000000000000000000081565b6101566102ea366004612f3f565b611872565b6103026102fd366004612ff8565b611995565b6040516101a59190613119565b61015661031d366004612eca565b611aa9565b610156610330366004612eca565b611bb9565b610156610343366004612eca565b611d22565b610156610356366004612f3f565b611ee0565b61019b610369366004612faa565b60026020526000908152604090205481565b610156610389366004612fc3565b612084565b61019b60015481565b6101566103a5366004612faa565b612205565b6103fe6040516020016103bc9061312c565b604051602081830303815290604052805190602001206040518060400160405280600e81526020016d2a24a6a2a627a1a5afa0a226a4a760911b8152506122f7565b6104066123a7565b6001600160a01b038116610438578060405163c1b14c9160e01b815260040161042f9190612f6b565b60405180910390fd5b600061044382612400565b9050610476816040518060400160405280600f81526020016e30b23227b930b1b632a9b4b3b732b960891b815250612453565b61047e612dc4565b805161048b9060016125af565b6040805180820190915260078152661858d8dbdd5b9d60ca1b602082015281516104b89160009086612614565b604051630937807960e21b81526001600160a01b037f000000000000000000000000000000000000000000000000000000000000000016906324de01e4906105069085908590600401613886565b600060405180830381600087803b15801561052057600080fd5b505af1158015610534573d6000803e3d6000fd5b5050505050506105446001600055565b50565b6105596040516020016103bc9061312c565b6105616123a7565b60006105708686868686612671565b90506105a0816040518060400160405280600c81526020016b1cd95d141c9a58d95199595960a21b815250612453565b6105a8612dc4565b80516105b59060026125af565b6040805180820190915260058152643a37b5b2b760d91b602082015281516105e0916000908a612614565b6040805180820190915260098152681c1c9a58d95199595960ba1b6020820152815161060f9160019089612614565b602081015161061f9060036125af565b610666600060405180604001604052806013815260200172383934b1b2a332b2b226bab63a34b83634b2b960691b8152508784602001516126e6909392919063ffffffff16565b6106b460016040518060400160405280601a815260200179383934b1b2a332b2b22432b0b93a3132b0ba223ab930ba34b7b760311b8152508684602001516126e6909392919063ffffffff16565b6106f360026040518060400160405280600b81526020016a737461626c65507269636560a81b8152508584602001516126e6909392919063ffffffff16565b604051630937807960e21b81526001600160a01b037f000000000000000000000000000000000000000000000000000000000000000016906324de01e49061074190859085906004016138d3565b600060405180830381600087803b15801561075b57600080fd5b505af115801561076f573d6000803e3d6000fd5b50505050505061077f6001600055565b5050505050565b6107986040516020016103bc9061312c565b6107a06123a7565b60006107ac8383612739565b90506107d981604051806040016040528060098152602001686772616e74526f6c6560b81b81525061278e565b604051632ac9d0b760e21b81526001600160a01b037f0000000000000000000000000000000000000000000000000000000000000000169063ab2742dc906108279086908690600401613915565b600060405180830381600087803b15801561084157600080fd5b505af1158015610855573d6000803e3d6000fd5b50505050610861612dc4565b805161086e9060016125af565b6040805180820190915260078152661858d8dbdd5b9d60ca1b6020820152815161089b9160009087612614565b60808101516108ab9060016125af565b604080518082019091526007815266726f6c654b657960c81b602082015260808201516108db91600090866126e6565b604051630937807960e21b81526001600160a01b037f000000000000000000000000000000000000000000000000000000000000000016906324de01e490610929908590859060040161392e565b600060405180830381600087803b15801561094357600080fd5b505af1158015610957573d6000803e3d6000fd5b5050505050506109676001600055565b5050565b6109c260405160200161097d90613967565b604051602081830303815290604052805190602001206040518060400160405280601181526020017054494d454c4f434b5f4d554c544953494760781b8152506122f7565b6109ca6123a7565b60405163208dd1ff60e01b81526001600160a01b037f0000000000000000000000000000000000000000000000000000000000000000169063208dd1ff90610a189085908590600401613915565b600060405180830381600087803b158015610a3257600080fd5b505af1158015610a46573d6000803e3d6000fd5b50505050610a52612dc4565b8051610a5f9060016125af565b6040805180820190915260078152661858d8dbdd5b9d60ca1b60208201528151610a8c9160009086612614565b6080810151610a9c9060016125af565b604080518082019091526007815266726f6c654b657960c81b60208201526080820151610acc91600090856126e6565b60405163483624fb60e11b81526001600160a01b037f0000000000000000000000000000000000000000000000000000000000000000169063906c49f690610b189084906004016139af565b600060405180830381600087803b158015610b3257600080fd5b505af1158015610b46573d6000803e3d6000fd5b50505050506109676001600055565b610b676040516020016103bc9061312c565b610b6f6123a7565b6000610b7a82612400565b9050610bad816040518060400160405280600f81526020016e30b23227b930b1b632a9b4b3b732b960891b81525061278e565b6040516375896b0f60e11b81526001600160a01b037f0000000000000000000000000000000000000000000000000000000000000000169063eb12d61e90610bf9908590600401612f6b565b600060405180830381600087803b158015610c1357600080fd5b505af1158015610c27573d6000803e3d6000fd5b50505050610c33612dc4565b8051610c409060016125af565b6040805180820190915260078152661858d8dbdd5b9d60ca1b60208201528151610c6d9160009086612614565b604051630937807960e21b81526001600160a01b037f000000000000000000000000000000000000000000000000000000000000000016906324de01e49061050690859085906004016139d3565b610ccd60405160200161097d90613967565b610cd56123a7565b7f00000000000000000000000000000000000000000000000000000000000000006001600160a01b031663abfdcced604051602001610d4190602080825260199082015278494e5f5354524943545f50524943455f464545445f4d4f444560381b604082015260600190565b60408051601f198184030181529082905280516020909101206001600160e01b031960e084901b168252600482015283151560248201526044016020604051808303816000875af1158015610d9a573d6000803e3d6000fd5b505050506040513d601f19601f82011682018060405250810190610dbe9190613a12565b50610dc7612dc4565b6060810151610dd79060016125af565b60408051808201909152600581526476616c756560d81b60208201526060820151610e0591600090856127a1565b60405163483624fb60e11b81526001600160a01b037f0000000000000000000000000000000000000000000000000000000000000000169063906c49f690610e51908490600401613a2f565b600060405180830381600087803b158015610e6b57600080fd5b505af1158015610e7f573d6000803e3d6000fd5b50505050506105446001600055565b610ea06040516020016103bc9061312c565b610ea86123a7565b6001600160a01b038116610ed1578060405163c1b14c9160e01b815260040161042f9190612f6b565b6000610edc826127f6565b9050610f1281604051806040016040528060128152602001713932b6b7bb32a7b930b1b632a9b4b3b732b960711b815250612453565b610f1a612dc4565b8051610f279060016125af565b6040805180820190915260078152661858d8dbdd5b9d60ca1b60208201528151610f549160009086612614565b604051630937807960e21b81526001600160a01b037f000000000000000000000000000000000000000000000000000000000000000016906324de01e4906105069085908590600401613a71565b610fb46040516020016103bc9061312c565b610fbc6123a7565b6000610fc88383612833565b9050610ff6816040518060400160405280600a8152602001697265766f6b65526f6c6560b01b815250612453565b610ffe612dc4565b805161100b9060016125af565b6040805180820190915260078152661858d8dbdd5b9d60ca1b602082015281516110389160009087612614565b60808101516110489060016125af565b604080518082019091526007815266726f6c654b657960c81b6020820152608082015161107891600090866126e6565b604051630937807960e21b81526001600160a01b037f000000000000000000000000000000000000000000000000000000000000000016906324de01e4906109299085908590600401613ab9565b6110d86040516020016103bc9061312c565b6110e06123a7565b60006110ef8686868686612671565b905061111f816040518060400160405280600c81526020016b1cd95d141c9a58d95199595960a21b81525061278e565b7f00000000000000000000000000000000000000000000000000000000000000006001600160a01b031663ca446dd96111578861286f565b876040518363ffffffff1660e01b8152600401611175929190613af9565b6020604051808303816000875af1158015611194573d6000803e3d6000fd5b505050506040513d601f19601f820116820180604052508101906111b89190613b10565b507f00000000000000000000000000000000000000000000000000000000000000006001600160a01b031663e2a4853a6111f1886128c7565b866040518363ffffffff1660e01b815260040161120f929190613b2d565b6020604051808303816000875af115801561122e573d6000803e3d6000fd5b505050506040513d601f19601f820116820180604052508101906112529190613b3b565b507f00000000000000000000000000000000000000000000000000000000000000006001600160a01b031663e2a4853a61128b88612902565b856040518363ffffffff1660e01b81526004016112a9929190613b2d565b6020604051808303816000875af11580156112c8573d6000803e3d6000fd5b505050506040513d601f19601f820116820180604052508101906112ec9190613b3b565b507f00000000000000000000000000000000000000000000000000000000000000006001600160a01b031663e2a4853a61132588612945565b846040518363ffffffff1660e01b8152600401611343929190613b2d565b6020604051808303816000875af1158015611362573d6000803e3d6000fd5b505050506040513d601f19601f820116820180604052508101906113869190613b3b565b5061138f612dc4565b805161139c9060026125af565b6040805180820190915260058152643a37b5b2b760d91b602082015281516113c7916000908a612614565b6040805180820190915260098152681c1c9a58d95199595960ba1b602082015281516113f69160019089612614565b60208101516114069060036125af565b61144d600060405180604001604052806013815260200172383934b1b2a332b2b226bab63a34b83634b2b960691b8152508784602001516126e6909392919063ffffffff16565b61149b60016040518060400160405280601a815260200179383934b1b2a332b2b22432b0b93a3132b0ba223ab930ba34b7b760311b8152508684602001516126e6909392919063ffffffff16565b6114da60026040518060400160405280600b81526020016a737461626c65507269636560a81b8152508584602001516126e6909392919063ffffffff16565b604051630937807960e21b81526001600160a01b037f000000000000000000000000000000000000000000000000000000000000000016906324de01e4906107419085908590600401613b54565b61153a6040516020016103bc9061312c565b6115426123a7565b611570816040518060400160405280600c81526020016b31b0b731b2b620b1ba34b7b760a11b815250612977565b6105446001600055565b61158c6040516020016103bc9061312c565b6115946123a7565b60006115a1848484612a90565b90506115d4816040518060400160405280600f81526020016e1cd95d1499585b1d1a5b5951995959608a1b81525061278e565b7f00000000000000000000000000000000000000000000000000000000000000006001600160a01b0316634e91db0861160c86612af2565b856040518363ffffffff1660e01b815260040161162a929190613b2d565b6020604051808303816000875af1158015611649573d6000803e3d6000fd5b505050506040513d601f19601f8201168201806040525081019061166d9190613b3b565b507f00000000000000000000000000000000000000000000000000000000000000006001600160a01b031663e2a4853a6116a686612b28565b846040518363ffffffff1660e01b81526004016116c4929190613b2d565b6020604051808303816000875af11580156116e3573d6000803e3d6000fd5b505050506040513d601f19601f820116820180604052508101906117079190613b3b565b50611710612dc4565b805161171d9060016125af565b6040805180820190915260058152643a37b5b2b760d91b602082015281516117489160009088612614565b60808101516117589060016125af565b60408051808201909152600681526519995959125960d21b6020820152608082015161178791600090876126e6565b60208101516117979060016125af565b6117e16000604051806040016040528060168152602001753932b0b63a34b6b2a332b2b226bab63a34b83634b2b960511b8152508584602001516126e6909392919063ffffffff16565b604051630937807960e21b81526001600160a01b037f000000000000000000000000000000000000000000000000000000000000000016906324de01e49061182f9085908590600401613b90565b600060405180830381600087803b15801561184957600080fd5b505af115801561185d573d6000803e3d6000fd5b50505050505061186d6001600055565b505050565b6118846040516020016103bc9061312c565b61188c6123a7565b60006118988383612739565b90506118c581604051806040016040528060098152602001686772616e74526f6c6560b81b815250612453565b6118cd612dc4565b80516118da9060016125af565b6040805180820190915260078152661858d8dbdd5b9d60ca1b602082015281516119079160009087612614565b60808101516119179060016125af565b604080518082019091526007815266726f6c654b657960c81b6020820152608082015161194791600090866126e6565b604051630937807960e21b81526001600160a01b037f000000000000000000000000000000000000000000000000000000000000000016906324de01e4906109299085908590600401613bcf565b6060816001600160401b038111156119af576119af613c0e565b6040519080825280602002602001820160405280156119e257816020015b60608152602001906001900390816119cd5790505b50905060005b82811015611aa15760008030868685818110611a0657611a06613c24565b9050602002810190611a189190613c3a565b604051611a26929190613c87565b600060405180830381855af49150503d8060008114611a61576040519150601f19603f3d011682016040523d82523d6000602084013e611a66565b606091505b509150915081611a7957611a7981612b66565b80848481518110611a8c57611a8c613c24565b602090810291909101015250506001016119e8565b505b92915050565b611abb6040516020016103bc9061312c565b611ac36123a7565b6001600160a01b038116611aec578060405163cb9339d560e01b815260040161042f9190612f6b565b6000611af782612b9f565b9050611b29816040518060400160405280600e81526020016d39b2ba2332b2a932b1b2b4bb32b960911b815250612453565b611b31612dc4565b8051611b3e9060016125af565b6040805180820190915260078152661858d8dbdd5b9d60ca1b60208201528151611b6b9160009086612614565b604051630937807960e21b81526001600160a01b037f000000000000000000000000000000000000000000000000000000000000000016906324de01e4906105069085908590600401613c97565b611bcb6040516020016103bc9061312c565b611bd36123a7565b6000611bde826127f6565b9050611c1481604051806040016040528060128152602001713932b6b7bb32a7b930b1b632a9b4b3b732b960711b81525061278e565b604051630e316ab760e01b81526001600160a01b037f00000000000000000000000000000000000000000000000000000000000000001690630e316ab790611c60908590600401612f6b565b600060405180830381600087803b158015611c7a57600080fd5b505af1158015611c8e573d6000803e3d6000fd5b50505050611c9a612dc4565b8051611ca79060016125af565b6040805180820190915260078152661858d8dbdd5b9d60ca1b60208201528151611cd49160009086612614565b604051630937807960e21b81526001600160a01b037f000000000000000000000000000000000000000000000000000000000000000016906324de01e4906105069085908590600401613cdb565b611d346040516020016103bc9061312c565b611d3c6123a7565b6000611d4782612b9f565b9050611d79816040518060400160405280600e81526020016d39b2ba2332b2a932b1b2b4bb32b960911b81525061278e565b7f00000000000000000000000000000000000000000000000000000000000000006001600160a01b031663ca446dd9604051602001611dd8906020808252600c908201526b2322a2afa922a1a2a4ab22a960a11b604082015260600190565b60405160208183030381529060405280519060200120846040518363ffffffff1660e01b8152600401611e0c929190613af9565b6020604051808303816000875af1158015611e2b573d6000803e3d6000fd5b505050506040513d601f19601f82011682018060405250810190611e4f9190613b10565b50611e58612dc4565b8051611e659060016125af565b6040805180820190915260078152661858d8dbdd5b9d60ca1b60208201528151611e929160009086612614565b604051630937807960e21b81526001600160a01b037f000000000000000000000000000000000000000000000000000000000000000016906324de01e4906105069085908590600401613d1d565b611ef26040516020016103bc9061312c565b611efa6123a7565b6000611f068383612833565b9050611f34816040518060400160405280600a8152602001697265766f6b65526f6c6560b01b81525061278e565b60405163208dd1ff60e01b81526001600160a01b037f0000000000000000000000000000000000000000000000000000000000000000169063208dd1ff90611f829086908690600401613915565b600060405180830381600087803b158015611f9c57600080fd5b505af1158015611fb0573d6000803e3d6000fd5b50505050611fbc612dc4565b8051611fc99060016125af565b6040805180820190915260078152661858d8dbdd5b9d60ca1b60208201528151611ff69160009087612614565b60808101516120069060016125af565b604080518082019091526007815266726f6c654b657960c81b6020820152608082015161203691600090866126e6565b604051630937807960e21b81526001600160a01b037f000000000000000000000000000000000000000000000000000000000000000016906324de01e4906109299085908590600401613d5b565b6120966040516020016103bc9061312c565b61209e6123a7565b60006120ab848484612a90565b90506120de816040518060400160405280600f81526020016e1cd95d1499585b1d1a5b5951995959608a1b815250612453565b6120e6612dc4565b80516120f39060016125af565b6040805180820190915260058152643a37b5b2b760d91b6020820152815161211e9160009088612614565b608081015161212e9060016125af565b60408051808201909152600681526519995959125960d21b6020820152608082015161215d91600090876126e6565b602081015161216d9060016125af565b6121b76000604051806040016040528060168152602001753932b0b63a34b6b2a332b2b226bab63a34b83634b2b960511b8152508584602001516126e6909392919063ffffffff16565b604051630937807960e21b81526001600160a01b037f000000000000000000000000000000000000000000000000000000000000000016906324de01e49061182f9085908590600401613d85565b6122176040516020016103bc9061312c565b61221f6123a7565b6001548111612244576040516373586edb60e11b81526004810182905260240161042f565b6001819055612251612bd8565b612259612dc4565b60208101516122699060016125af565b6122ab60006040518060400160405280600e81526020016d5f74696d656c6f636b44656c617960901b8152508484602001516126e6909392919063ffffffff16565b60405163483624fb60e11b81526001600160a01b037f0000000000000000000000000000000000000000000000000000000000000000169063906c49f690610e51908490600401613dca565b60405163ac4ab3fb60e01b81526001600160a01b037f0000000000000000000000000000000000000000000000000000000000000000169063ac4ab3fb906123459033908690600401613915565b602060405180830381865afa158015612362573d6000803e3d6000fd5b505050506040513d601f19601f820116820180604052508101906123869190613a12565b61096757338160405163a35b150b60e01b815260040161042f929190613e09565b6002600054036123f95760405162461bcd60e51b815260206004820152601f60248201527f5265656e7472616e637947756172643a207265656e7472616e742063616c6c00604482015260640161042f565b6002600055565b6040516e30b23227b930b1b632a9b4b3b732b960891b60208201526001600160601b0319606083901b16602f8201526000906043015b604051602081830303815290604052805190602001209050919050565b600082815260026020526040902054156124805760405163b244a10760e01b815260040160405180910390fd5b60015461248d9042613e2d565b6000838152600260205260409020556124a4612dc4565b60808101516124b49060016125af565b604080518082019091526009815268616374696f6e4b657960b81b602082015260808201516124e691600090866126e6565b60c08101516124f6906001612c06565b60408051808201909152600b81526a1858dd1a5bdb931858995b60aa1b602082015260c082015161252a9160009085612c68565b604051630937807960e21b81526001600160a01b037f000000000000000000000000000000000000000000000000000000000000000016906324de01e4906125789086908590600401613e4e565b600060405180830381600087803b15801561259257600080fd5b505af11580156125a6573d6000803e3d6000fd5b50505050505050565b806001600160401b038111156125c7576125c7613c0e565b60405190808252806020026020018201604052801561260d57816020015b6040805180820190915260608152600060208201528152602001906001900390816125e55790505b5090915250565b818460000151848151811061262b5761262b613c24565b602002602001015160000181905250808460000151848151811061265157612651613c24565b6020908102919091018101516001600160a01b0390921691015250505050565b604080516b1cd95d141c9a58d95199595960a21b60208201526001600160601b0319606088811b8216602c84015287901b169181019190915260548101849052607481018390526094810182905260009060b40160405160208183030381529060405280519060200120905095945050505050565b81846000015184815181106126fd576126fd613c24565b602002602001015160000181905250808460000151848151811061272357612723613c24565b6020026020010151602001818152505050505050565b604051686772616e74526f6c6560b81b60208201526001600160601b0319606084901b166029820152603d8101829052600090605d015b60405160208183030381529060405280519060200120905092915050565b61279782612cba565b6109678282612977565b81846000015184815181106127b8576127b8613c24565b60200260200101516000018190525080846000015184815181106127de576127de613c24565b60209081029190910181015191151591015250505050565b604051713932b6b7bb32a7b930b1b632a9b4b3b732b960711b60208201526001600160601b0319606083901b166032820152600090604601612436565b604051697265766f6b65526f6c6560b01b60208201526001600160601b0319606084901b16602a820152603e8101829052600090605e01612770565b600060405160200161289f906020808252600a908201526914149250d157d191515160b21b604082015260600190565b6040516020818303038152906040528051906020012082604051602001612436929190613af9565b600060405160200161289f90602080825260159082015274282924a1a2afa322a2a22fa6aaa62a24a82624a2a960591b604082015260600190565b600060405160200161289f906020808252601d908201527f50524943455f464545445f4845415254424541545f4455524154494f4e000000604082015260600190565b600060405160200161289f906020808252600c908201526b535441424c455f505249434560a01b604082015260600190565b60008281526002602052604081205490036129a557604051634a7ed75160e11b815260040160405180910390fd5b6000828152600260205260408120556129bc612dc4565b60808101516129cc9060016125af565b604080518082019091526009815268616374696f6e4b657960b81b602082015260808201516129fe91600090866126e6565b60c0810151612a0e906001612c06565b60408051808201909152600b81526a1858dd1a5bdb931858995b60aa1b602082015260c0820151612a429160009085612c68565b604051630937807960e21b81526001600160a01b037f000000000000000000000000000000000000000000000000000000000000000016906324de01e4906125789086908590600401613e91565b6040516e1cd95d1499585b1d1a5b5951995959608a1b60208201526001600160601b0319606085901b16602f82015260438101839052606381018290526000906083016040516020818303038152906040528051906020012090509392505050565b600060405160200161289f9060208082526010908201526f149150531512535157d191515117d25160821b604082015260600190565b600060405160200161289f906020808252601890820152772922a0a62a24a6a2afa322a2a22fa6aaa62a24a82624a2a960411b604082015260600190565b600080612b7283612d2b565b915091508015612b96578160405162461bcd60e51b815260040161042f9190613ed3565b61186d83612dbb565b6040516d39b2ba2332b2a932b1b2b4bb32b960911b60208201526001600160601b0319606083901b16602e820152600090604201612436565b620697806001541115612c0457600154604051633ebd9bc360e21b815260040161042f91815260200190565b565b806001600160401b03811115612c1e57612c1e613c0e565b60405190808252806020026020018201604052801561260d57816020015b6040805180820190915260608082526020820152815260200190600190039081612c3c57505090915250565b8184600001518481518110612c7f57612c7f613c24565b6020026020010151600001819052508084600001518481518110612ca557612ca5613c24565b60200260200101516020018190525050505050565b6000818152600260205260408120549003612ce857604051634a7ed75160e11b815260040160405180910390fd5b426000828152600260205260409020541115610544576000818152600260205260409081902054905163082c8d6160e21b8152600481019190915260240161042f565b60606000604483511015612d52575050604080516020810190915260008082529092909150565b6000612d5f846020015190565b90506307b9e43360e51b6001600160e01b0319821601612d9e5760048401935083806020019051810190612d939190613ee6565b946001945092505050565b600060405180602001604052806000815250909250925050915091565b80518060208301fd5b604080516101208101909152606060e0820181815261010083019190915281908152602001612e06604051806040016040528060608152602001606081525090565b8152602001612e28604051806040016040528060608152602001606081525090565b8152602001612e4a604051806040016040528060608152602001606081525090565b8152602001612e6c604051806040016040528060608152602001606081525090565b8152602001612e8e604051806040016040528060608152602001606081525090565b8152602001612eb0604051806040016040528060608152602001606081525090565b905290565b6001600160a01b038116811461054457600080fd5b600060208284031215612edc57600080fd5b8135612ee781612eb5565b9392505050565b600080600080600060a08688031215612f0657600080fd5b8535612f1181612eb5565b94506020860135612f2181612eb5565b94979496505050506040830135926060810135926080909101359150565b60008060408385031215612f5257600080fd5b8235612f5d81612eb5565b946020939093013593505050565b6001600160a01b0391909116815260200190565b801515811461054457600080fd5b600060208284031215612f9f57600080fd5b8135612ee781612f7f565b600060208284031215612fbc57600080fd5b5035919050565b600080600060608486031215612fd857600080fd5b8335612fe381612eb5565b95602085013595506040909401359392505050565b6000806020838503121561300b57600080fd5b82356001600160401b0381111561302157600080fd5b8301601f8101851361303257600080fd5b80356001600160401b0381111561304857600080fd5b8560208260051b840101111561305d57600080fd5b6020919091019590945092505050565b60005b83811015613088578181015183820152602001613070565b50506000910152565b600081518084526130a981602086016020860161306d565b601f01601f19169290920160200192915050565b600082825180855260208501945060208160051b8301016020850160005b8381101561310d57601f198584030188526130f7838351613091565b60209889019890935091909101906001016130db565b50909695505050505050565b602081526000612ee760208301846130bd565b6020808252600e908201526d2a24a6a2a627a1a5afa0a226a4a760911b604082015260600190565b600082825180855260208501945060208160051b8301016020850160005b8381101561310d57601f1985840301885281518051604085526131986040860182613091565b6020928301518682038785015280518083529084019360009350909101905b808310156131e25783516001600160a01b0316825260209384019360019390930192909101906131b7565b5060209a8b019a90955093909301925050600101613172565b60006040830182516040855281815180845260608701915060608160051b880101935060208301925060005b8181101561327557605f19888603018352835180516040875261324d6040880182613091565b6020928301516001600160a01b03169783019790975250938401939290920191600101613227565b50505050602083015184820360208601526132908282613154565b95945050505050565b600082825180855260208501945060208160051b8301016020850160005b8381101561310d57601f1985840301885281518051604085526132dd6040860182613091565b6020928301518682038785015280518083529084019360009350909101905b8083101561331f57835182526020820191506020840193506001830192506132fc565b5060209a8b019a909550939093019250506001016132b7565b60006040830182516040855281815180845260608701915060608160051b880101935060208301925060005b818110156133a957605f19888603018352835180516040875261338a6040880182613091565b6020928301519783019790975250938401939290920191600101613364565b50505050602083015184820360208601526132908282613299565b60006040830182516040855281815180845260608701915060608160051b880101935060208301925060005b818110156133a957605f1988860301835283518051604087526134166040880182613091565b60209283015197830197909752509384019392909201916001016133f0565b600082825180855260208501945060208160051b8301016020850160005b8381101561310d57601f1985840301885281518051604085526134796040860182613091565b6020928301518682038785015280518083529084019360009350909101905b808310156134bd57835115158252602082019150602084019350600183019250613498565b5060209a8b019a90955093909301925050600101613453565b60006040830182516040855281815180845260608701915060608160051b880101935060208301925060005b8181101561354957605f1988860301835283518051604087526135286040880182613091565b60209283015115159783019790975250938401939290920191600101613502565b50505050602083015184820360208601526132908282613435565b600082825180855260208501945060208160051b8301016020850160005b8381101561310d57601f1985840301885281518051604085526135a86040860182613091565b90506020820151915084810360208601526135c381836130bd565b60209a8b019a90955093909301925050600101613582565b60006040830182516040855281815180845260608701915060608160051b880101935060208301925060005b8181101561365f57605f19888603018352835180516040875261362d6040880182613091565b90506020820151915086810360208801526136488183613091565b965050506020938401939290920191600101613607565b50505050602083015184820360208601526132908282613564565b600082825180855260208501945060208160051b8301016020850160005b8381101561310d57601f1985840301885281518051604085526136be6040860182613091565b6020928301518682038785015280518083529084019391925081830191600582901b84010160005b8281101561371757601f19858303018452613702828751613091565b602096870196949094019391506001016136e6565b508097505050505050602082019150602088019750600181019050613698565b60006040830182516040855281815180845260608701915060608160051b880101935060208301925060005b818110156137bb57605f1988860301835283518051604087526137896040880182613091565b90506020820151915086810360208801526137a48183613091565b965050506020938401939290920191600101613763565b5050505060208301518482036020860152613290828261367a565b6000815160e084526137eb60e08501826131fb565b9050602083015184820360208601526138048282613338565b9150506040830151848203604086015261381e82826133c4565b9150506060830151848203606086015261383882826134d6565b915050608083015184820360808601526138528282613338565b91505060a083015184820360a086015261386c82826135db565b91505060c083015184820360c08601526132908282613737565b60608152601560608201527429b4b3b730b620b23227b930b1b632a9b4b3b732b960591b608082015282602082015260a0604082015260006138cb60a08301846137d6565b949350505050565b60608152601260608201527114da59db985b14d95d141c9a58d95199595960721b608082015282602082015260a0604082015260006138cb60a08301846137d6565b6001600160a01b03929092168252602082015260400190565b6060815260096060820152684772616e74526f6c6560b81b608082015282602082015260a0604082015260006138cb60a08301846137d6565b60208082526011908201527054494d454c4f434b5f4d554c544953494760781b604082015260600190565b600a8152695265766f6b65526f6c6560b01b602082015260400190565b6040815260006139c160408301613992565b82810360208401526138cb81856137d6565b60608152600f60608201526e20b23227b930b1b632a9b4b3b732b960891b608082015282602082015260a0604082015260006138cb60a08301846137d6565b600060208284031215613a2457600080fd5b8151612ee781612f7f565b604081526018604082015277536574496e5374726963745072696365466565644d6f646560401b6060820152608060208201526000612ee760808301846137d6565b60608152601860608201527729b4b3b730b62932b6b7bb32a7b930b1b632a9b4b3b732b960411b608082015282602082015260a0604082015260006138cb60a08301846137d6565b60608152601060608201526f5369676e616c5265766f6b65526f6c6560801b608082015282602082015260a0604082015260006138cb60a08301846137d6565b9182526001600160a01b0316602082015260400190565b600060208284031215613b2257600080fd5b8151612ee781612eb5565b918252602082015260400190565b600060208284031215613b4d57600080fd5b5051919050565b60608152600c60608201526b14d95d141c9a58d95199595960a21b608082015282602082015260a0604082015260006138cb60a08301846137d6565b60608152600f60608201526e14d95d1499585b1d1a5b5951995959608a1b608082015282602082015260a0604082015260006138cb60a08301846137d6565b60608152600f60608201526e5369676e616c4772616e74526f6c6560881b608082015282602082015260a0604082015260006138cb60a08301846137d6565b634e487b7160e01b600052604160045260246000fd5b634e487b7160e01b600052603260045260246000fd5b6000808335601e19843603018112613c5157600080fd5b8301803591506001600160401b03821115613c6b57600080fd5b602001915036819003821315613c8057600080fd5b9250929050565b8183823760009101908152919050565b60608152601460608201527329b4b3b730b629b2ba2332b2a932b1b2b4bb32b960611b608082015282602082015260a0604082015260006138cb60a08301846137d6565b6060815260126060820152712932b6b7bb32a7b930b1b632a9b4b3b732b960711b608082015282602082015260a0604082015260006138cb60a08301846137d6565b60608152600e60608201526d29b2ba2332b2a932b1b2b4bb32b960911b608082015282602082015260a0604082015260006138cb60a08301846137d6565b606081526000613d6d60608301613992565b846020840152828103604084015261329081856137d6565b60608152601560608201527414da59db985b14d95d1499585b1d1a5b5951995959605a1b608082015282602082015260a0604082015260006138cb60a08301846137d6565b604081526015604082015274496e63726561736554696d656c6f636b44656c617960581b6060820152608060208201526000612ee760808301846137d6565b6001600160a01b03831681526040602082018190526000906138cb90830184613091565b80820180821115611aa357634e487b7160e01b600052601160045260246000fd5b60608152601360608201527229b4b3b730b62832b73234b733a0b1ba34b7b760691b608082015282602082015260a0604082015260006138cb60a08301846137d6565b60608152601260608201527121b632b0b92832b73234b733a0b1ba34b7b760711b608082015282602082015260a0604082015260006138cb60a08301846137d6565b602081526000612ee76020830184613091565b600060208284031215613ef857600080fd5b81516001600160401b03811115613f0e57600080fd5b8201601f81018413613f1f57600080fd5b80516001600160401b03811115613f3857613f38613c0e565b604051601f8201601f19908116603f011681016001600160401b0381118282101715613f6657613f66613c0e565b604052818152828201602001861015613f7e57600080fd5b61329082602083016020860161306d56fea26469706673582212207f7dfa6362600b51a7d060a18ae56cf6164225661b8652f0907738c39669bd4d64736f6c634300081a0033",
  "linkReferences": {},
  "deployedLinkReferences": {}
}