{
  "_format": "hh-sol-artifact-1",
  "contractName": "Config",
  "sourceName": "contracts/config/Config.sol",
  "abi": [
    {
      "inputs": [
        {
          "internalType": "contract RoleStore",
          "name": "_roleStore",
          "type": "address"
        },
        {
          "internalType": "contract DataStore",
          "name": "_dataStore",
          "type": "address"
        },
        {
          "internalType": "contract EventEmitter",
          "name": "_eventEmitter",
          "type": "address"
        }
      ],
      "stateMutability": "nonpayable",
      "type": "constructor"
    },
    {
      "inputs": [
        {
          "internalType": "bytes32",
          "name": "baseKey",
          "type": "bytes32"
        }
      ],
      "name": "InvalidBaseKey",
      "type": "error"
    },
    {
      "inputs": [
        {
          "internalType": "uint256",
          "name": "value",
          "type": "uint256"
        }
      ],
      "name": "InvalidClaimableFactor",
      "type": "error"
    },
    {
      "inputs": [
        {
          "internalType": "bytes32",
          "name": "baseKey",
          "type": "bytes32"
        },
        {
          "internalType": "uint256",
          "name": "value",
          "type": "uint256"
        }
      ],
      "name": "InvalidFeeFactor",
      "type": "error"
    },
    {
      "inputs": [
        {
          "internalType": "address",
          "name": "msgSender",
          "type": "address"
        },
        {
          "internalType": "string",
          "name": "role",
          "type": "string"
        }
      ],
      "name": "Unauthorized",
      "type": "error"
    },
    {
      "inputs": [],
      "name": "MAX_FEE_FACTOR",
      "outputs": [
        {
          "internalType": "uint256",
          "name": "",
          "type": "uint256"
        }
      ],
      "stateMutability": "view",
      "type": "function"
    },
    {
      "inputs": [
        {
          "internalType": "bytes32",
          "name": "",
          "type": "bytes32"
        }
      ],
      "name": "allowedBaseKeys",
      "outputs": [
        {
          "internalType": "bool",
          "name": "",
          "type": "bool"
        }
      ],
      "stateMutability": "view",
      "type": "function"
    },
    {
      "inputs": [
        {
          "internalType": "bytes32",
          "name": "",
          "type": "bytes32"
        }
      ],
      "name": "allowedLimitedBaseKeys",
      "outputs": [
        {
          "internalType": "bool",
          "name": "",
          "type": "bool"
        }
      ],
      "stateMutability": "view",
      "type": "function"
    },
    {
      "inputs": [],
      "name": "dataStore",
      "outputs": [
        {
          "internalType": "contract DataStore",
          "name": "",
          "type": "address"
        }
      ],
      "stateMutability": "view",
      "type": "function"
    },
    {
      "inputs": [],
      "name": "eventEmitter",
      "outputs": [
        {
          "internalType": "contract EventEmitter",
          "name": "",
          "type": "address"
        }
      ],
      "stateMutability": "view",
      "type": "function"
    },
    {
      "inputs": [
        {
          "internalType": "bytes[]",
          "name": "data",
          "type": "bytes[]"
        }
      ],
      "name": "multicall",
      "outputs": [
        {
          "internalType": "bytes[]",
          "name": "results",
          "type": "bytes[]"
        }
      ],
      "stateMutability": "nonpayable",
      "type": "function"
    },
    {
      "inputs": [],
      "name": "roleStore",
      "outputs": [
        {
          "internalType": "contract RoleStore",
          "name": "",
          "type": "address"
        }
      ],
      "stateMutability": "view",
      "type": "function"
    },
    {
      "inputs": [
        {
          "internalType": "bytes32",
          "name": "baseKey",
          "type": "bytes32"
        },
        {
          "internalType": "bytes",
          "name": "data",
          "type": "bytes"
        },
        {
          "internalType": "address",
          "name": "value",
          "type": "address"
        }
      ],
      "name": "setAddress",
      "outputs": [],
      "stateMutability": "nonpayable",
      "type": "function"
    },
    {
      "inputs": [
        {
          "internalType": "bytes32",
          "name": "baseKey",
          "type": "bytes32"
        },
        {
          "internalType": "bytes",
          "name": "data",
          "type": "bytes"
        },
        {
          "internalType": "bool",
          "name": "value",
          "type": "bool"
        }
      ],
      "name": "setBool",
      "outputs": [],
      "stateMutability": "nonpayable",
      "type": "function"
    },
    {
      "inputs": [
        {
          "internalType": "bytes32",
          "name": "baseKey",
          "type": "bytes32"
        },
        {
          "internalType": "bytes",
          "name": "data",
          "type": "bytes"
        },
        {
          "internalType": "bytes32",
          "name": "value",
          "type": "bytes32"
        }
      ],
      "name": "setBytes32",
      "outputs": [],
      "stateMutability": "nonpayable",
      "type": "function"
    },
    {
      "inputs": [
        {
          "internalType": "address",
          "name": "market",
          "type": "address"
        },
        {
          "internalType": "address",
          "name": "token",
          "type": "address"
        },
        {
          "internalType": "uint256",
          "name": "timeKey",
          "type": "uint256"
        },
        {
          "internalType": "address",
          "name": "account",
          "type": "address"
        },
        {
          "internalType": "uint256",
          "name": "factor",
          "type": "uint256"
        }
      ],
      "name": "setClaimableCollateralFactorForAccount",
      "outputs": [],
      "stateMutability": "nonpayable",
      "type": "function"
    },
    {
      "inputs": [
        {
          "internalType": "address",
          "name": "market",
          "type": "address"
        },
        {
          "internalType": "address",
          "name": "token",
          "type": "address"
        },
        {
          "internalType": "uint256",
          "name": "timeKey",
          "type": "uint256"
        },
        {
          "internalType": "uint256",
          "name": "factor",
          "type": "uint256"
        }
      ],
      "name": "setClaimableCollateralFactorForTime",
      "outputs": [],
      "stateMutability": "nonpayable",
      "type": "function"
    },
    {
      "inputs": [
        {
          "internalType": "bytes32",
          "name": "baseKey",
          "type": "bytes32"
        },
        {
          "internalType": "bytes",
          "name": "data",
          "type": "bytes"
        },
        {
          "internalType": "int256",
          "name": "value",
          "type": "int256"
        }
      ],
      "name": "setInt",
      "outputs": [],
      "stateMutability": "nonpayable",
      "type": "function"
    },
    {
      "inputs": [
        {
          "internalType": "address",
          "name": "market",
          "type": "address"
        },
        {
          "internalType": "uint256",
          "name": "minPositionImpactPoolAmount",
          "type": "uint256"
        },
        {
          "internalType": "uint256",
          "name": "positionImpactPoolDistributionRate",
          "type": "uint256"
        }
      ],
      "name": "setPositionImpactDistributionRate",
      "outputs": [],
      "stateMutability": "nonpayable",
      "type": "function"
    },
    {
      "inputs": [
        {
          "internalType": "bytes32",
          "name": "baseKey",
          "type": "bytes32"
        },
        {
          "internalType": "bytes",
          "name": "data",
          "type": "bytes"
        },
        {
          "internalType": "uint256",
          "name": "value",
          "type": "uint256"
        }
      ],
      "name": "setUint",
      "outputs": [],
      "stateMutability": "nonpayable",
      "type": "function"
    }
  ],
  "bytecode": "0x60e060405234801561001057600080fd5b506040516167aa3803806167aa83398101604081905261002f91612975565b60016000556001600160a01b0380841660805282811660a052811660c052610055610065565b61005d61278d565b505050612abb565b600180600060405160200161009d906020808252600f908201526e484f4c44494e475f4144445245535360881b604082015260600190565b60405160208183030381529060405280519060200120815260200190815260200160002060006101000a81548160ff021916908315150217905550600180600060405160200161011e906020808252601e908201527f4d494e5f48414e444c455f455845435554494f4e5f4552524f525f4741530000604082015260600190565b60405160208183030381529060405280519060200120815260200190815260200160002060006101000a81548160ff02191690831515021790555060018060006040516020016101b19060208082526029908201527f4d494e5f48414e444c455f455845435554494f4e5f4552524f525f4741535f5460408201526813d7d193d495d0549160ba1b606082015260800190565b60405160208183030381529060405280519060200120815260200190815260200160002060006101000a81548160ff0219169083151502179055506001806000604051602001610230906020808252818101527f4d494e5f4144444954494f4e414c5f4741535f464f525f455845435554494f4e604082015260600190565b60405160208183030381529060405280519060200120815260200190815260200160002060006101000a81548160ff02191690831515021790555060018060006040516020016102a6906020808252601290820152711254d7d3505492d15517d11254d05093115160721b604082015260600190565b60405160208183030381529060405280519060200120815260200190815260200160002060006101000a81548160ff02191690831515021790555060018060006040516020016103279060208082526014908201527f4d41585f535741505f504154485f4c454e475448000000000000000000000000604082015260600190565b60405160208183030381529060405280519060200120815260200190815260200160002060006101000a81548160ff02191690831515021790555060018060006040516020016103a89060208082526016908201527f4d41585f43414c4c4241434b5f4741535f4c494d495400000000000000000000604082015260600190565b60405160208183030381529060405280519060200120815260200190815260200160002060006101000a81548160ff02191690831515021790555060018060006040516020016104299060208082526015908201527f4d494e5f504f534954494f4e5f53495a455f5553440000000000000000000000604082015260600190565b60405160208183030381529060405280519060200120815260200190815260200160002060006101000a81548160ff02191690831515021790555060018060006040516020016104be906020808252602b908201527f4d41585f504f534954494f4e5f494d504143545f464143544f525f464f525f4c60408201526a49515549444154494f4e5360a81b606082015260800190565b60405160208183030381529060405280519060200120815260200190815260200160002060006101000a81548160ff021916908315150217905550600180600060405160200161050d906129c2565b60405160208183030381529060405280519060200120815260200190815260200160002060006101000a81548160ff021916908315150217905550600180600060405160200161055c906129eb565b60405160208183030381529060405280519060200120815260200190815260200160002060006101000a81548160ff02191690831515021790555060018060006040516020016105ab90612a22565b60405160208183030381529060405280519060200120815260200190815260200160002060006101000a81548160ff02191690831515021790555060018060006040516020016106389060208082526023908201527f4d494e5f4d41524b45545f544f4b454e535f464f525f46495253545f4445504f60408201526214d25560ea1b606082015260800190565b60405160208183030381529060405280519060200120815260200190815260200160002060006101000a81548160ff02191690831515021790555060018060006040516020016106b9906020808252601f908201527f4352454154455f4445504f5349545f464541545552455f44495341424c454400604082015260600190565b60405160208183030381529060405280519060200120815260200190815260200160002060006101000a81548160ff021916908315150217905550600180600060405160200161073a906020808252601f908201527f43414e43454c5f4445504f5349545f464541545552455f44495341424c454400604082015260600190565b60405160208183030381529060405280519060200120815260200190815260200160002060006101000a81548160ff02191690831515021790555060018060006040516020016107b9906020808252818101527f455845435554455f4445504f5349545f464541545552455f44495341424c4544604082015260600190565b60405160208183030381529060405280519060200120815260200190815260200160002060006101000a81548160ff02191690831515021790555060018060006040516020016108459060208082526022908201527f4352454154455f5749544844524157414c5f464541545552455f44495341424c604082015261115160f21b606082015260800190565b60405160208183030381529060405280519060200120815260200190815260200160002060006101000a81548160ff02191690831515021790555060018060006040516020016108d19060208082526022908201527f43414e43454c5f5749544844524157414c5f464541545552455f44495341424c604082015261115160f21b606082015260800190565b60405160208183030381529060405280519060200120815260200190815260200160002060006101000a81548160ff021916908315150217905550600180600060405160200161095e9060208082526023908201527f455845435554455f5749544844524157414c5f464541545552455f444953414260408201526213115160ea1b606082015260800190565b60405160208183030381529060405280519060200120815260200190815260200160002060006101000a81548160ff02191690831515021790555060018060006040516020016109df906020808252601d908201527f4352454154455f4f524445525f464541545552455f44495341424c4544000000604082015260600190565b60405160208183030381529060405280519060200120815260200190815260200160002060006101000a81548160ff0219169083151502179055506001806000604051602001610a60906020808252601e908201527f455845435554455f4f524445525f464541545552455f44495341424c45440000604082015260600190565b60405160208183030381529060405280519060200120815260200190815260200160002060006101000a81548160ff0219169083151502179055506001806000604051602001610ae1906020808252601c908201527f455845435554455f41444c5f464541545552455f44495341424c454400000000604082015260600190565b60405160208183030381529060405280519060200120815260200190815260200160002060006101000a81548160ff0219169083151502179055506001806000604051602001610b62906020808252601d908201527f5550444154455f4f524445525f464541545552455f44495341424c4544000000604082015260600190565b60405160208183030381529060405280519060200120815260200190815260200160002060006101000a81548160ff0219169083151502179055506001806000604051602001610be3906020808252601d908201527f43414e43454c5f4f524445525f464541545552455f44495341424c4544000000604082015260600190565b60405160208183030381529060405280519060200120815260200190815260200160002060006101000a81548160ff0219169083151502179055506001806000604051602001610c709060208082526023908201527f434c41494d5f46554e44494e475f464545535f464541545552455f444953414260408201526213115160ea1b606082015260800190565b60405160208183030381529060405280519060200120815260200190815260200160002060006101000a81548160ff0219169083151502179055506001806000604051602001610cfb9060208082526021908201527f434c41494d5f434f4c4c41544552414c5f464541545552455f44495341424c456040820152601160fa1b606082015260800190565b60405160208183030381529060405280519060200120815260200190815260200160002060006101000a81548160ff0219169083151502179055506001806000604051602001610d8d9060208082526028908201527f434c41494d5f414646494c494154455f524557415244535f464541545552455f604082015267111254d05093115160c21b606082015260800190565b60405160208183030381529060405280519060200120815260200190815260200160002060006101000a81548160ff0219169083151502179055506001806000604051602001610e0e906020808252601e908201527f434c41494d5f55495f464545535f464541545552455f44495341424c45440000604082015260600190565b60405160208183030381529060405280519060200120815260200190815260200160002060006101000a81548160ff0219169083151502179055506001806000604051602001610e8f906020808252601b908201527f5355424143434f554e545f464541545552455f44495341424c45440000000000604082015260600190565b60405160208183030381529060405280519060200120815260200190815260200160002060006101000a81548160ff0219169083151502179055506001806000604051602001610f10906020808252601e908201527f4d494e5f4f5241434c455f424c4f434b5f434f4e4649524d4154494f4e530000604082015260600190565b60405160208183030381529060405280519060200120815260200190815260200160002060006101000a81548160ff0219169083151502179055506001806000604051602001610f919060208082526014908201527f4d41585f4f5241434c455f50524943455f414745000000000000000000000000604082015260600190565b60405160208183030381529060405280519060200120815260200190815260200160002060006101000a81548160ff02191690831515021790555060018060006040516020016110209060208082526025908201527f4d41585f4f5241434c455f5245465f50524943455f444556494154494f4e5f4660408201526420a1aa27a960d91b606082015260800190565b60405160208183030381529060405280519060200120815260200190815260200160002060006101000a81548160ff02191690831515021790555060018060006040516020016110a1906020808252601c908201527f504f534954494f4e5f4645455f52454345495645525f464143544f5200000000604082015260600190565b60405160208183030381529060405280519060200120815260200190815260200160002060006101000a81548160ff02191690831515021790555060018060006040516020016111229060208082526018908201527f535741505f4645455f52454345495645525f464143544f520000000000000000604082015260600190565b60405160208183030381529060405280519060200120815260200190815260200160002060006101000a81548160ff02191690831515021790555060018060006040516020016111a3906020808252601d908201527f424f52524f57494e475f4645455f52454345495645525f464143544f52000000604082015260600190565b60405160208183030381529060405280519060200120815260200190815260200160002060006101000a81548160ff02191690831515021790555060018060006040516020016111f290612a4d565b60405160208183030381529060405280519060200120815260200190815260200160002060006101000a81548160ff021916908315150217905550600180600060405160200161127f9060208082526023908201527f455354494d415445445f4741535f4645455f4d554c5449504c4945525f4641436040820152622a27a960e91b606082015260800190565b60405160208183030381529060405280519060200120815260200190815260200160002060006101000a81548160ff02191690831515021790555060018060006040516020016112ce90612a84565b60405160208183030381529060405280519060200120815260200190815260200160002060006101000a81548160ff021916908315150217905550600180600060405160200161135b9060208082526023908201527f455845435554494f4e5f4741535f4645455f4d554c5449504c4945525f4641436040820152622a27a960e91b606082015260800190565b60405160208183030381529060405280519060200120815260200190815260200160002060006101000a81548160ff02191690831515021790555060018060006040516020016113d09060208082526011908201527011115413d4d25517d1d054d7d312535255607a1b604082015260600190565b60405160208183030381529060405280519060200120815260200190815260200160002060006101000a81548160ff021916908315150217905550600180600061141e6128e260201b60201c565b815260200190815260200160002060006101000a81548160ff02191690831515021790555060018060006040516020016114899060208082526015908201527f53494e474c455f535741505f4741535f4c494d49540000000000000000000000604082015260600190565b60405160208183030381529060405280519060200120815260200190815260200160002060006101000a81548160ff021916908315150217905550600180600060405160200161150a9060208082526018908201527f494e4352454153455f4f524445525f4741535f4c494d49540000000000000000604082015260600190565b60405160208183030381529060405280519060200120815260200190815260200160002060006101000a81548160ff021916908315150217905550600180600060405160200161158b9060208082526018908201527f44454352454153455f4f524445525f4741535f4c494d49540000000000000000604082015260600190565b60405160208183030381529060405280519060200120815260200190815260200160002060006101000a81548160ff021916908315150217905550600180600060405160200161160c9060208082526014908201527f535741505f4f524445525f4741535f4c494d4954000000000000000000000000604082015260600190565b60405160208183030381529060405280519060200120815260200190815260200160002060006101000a81548160ff021916908315150217905550600180600060405160200161168d9060208082526018908201527f544f4b454e5f5452414e534645525f4741535f4c494d49540000000000000000604082015260600190565b60405160208183030381529060405280519060200120815260200190815260200160002060006101000a81548160ff021916908315150217905550600180600060405160200161170e906020808252601f908201527f4e41544956455f544f4b454e5f5452414e534645525f4741535f4c494d495400604082015260600190565b60405160208183030381529060405280519060200120815260200190815260200160002060006101000a81548160ff021916908315150217905550600180600060405160200161178f906020808252601c908201527f524551554553545f45585049524154494f4e5f424c4f434b5f41474500000000604082015260600190565b60405160208183030381529060405280519060200120815260200190815260200160002060006101000a81548160ff02191690831515021790555060018060006040516020016118109060208082526015908201527f4d494e5f434f4c4c41544552414c5f464143544f520000000000000000000000604082015260600190565b60405160208183030381529060405280519060200120815260200190815260200160002060006101000a81548160ff02191690831515021790555060018060006040516020016118ac9060208082526032908201527f4d494e5f434f4c4c41544552414c5f464143544f525f464f525f4f50454e5f49604082015271272a22a922a9aa2fa6aaa62a24a82624a2a960711b606082015260800190565b60405160208183030381529060405280519060200120815260200190815260200160002060006101000a81548160ff02191690831515021790555060018060006040516020016119229060208082526012908201527113525397d0d3d31310551154905317d554d160721b604082015260600190565b60405160208183030381529060405280519060200120815260200190815260200160002060006101000a81548160ff02191690831515021790555060018060006040516020016119969060208082526010908201526f1592549515505317d513d2d15397d25160821b604082015260600190565b60405160208183030381529060405280519060200120815260200190815260200160002060006101000a81548160ff0219169083151502179055506001806000604051602001611a0b906020808252601190820152701592549515505317d3505492d15517d251607a1b604082015260600190565b60405160208183030381529060405280519060200120815260200190815260200160002060006101000a81548160ff0219169083151502179055506001806000604051602001611a8c906020808252601b908201527f5649525455414c5f494e56454e544f52595f464f525f53574150530000000000604082015260600190565b60405160208183030381529060405280519060200120815260200190815260200160002060006101000a81548160ff0219169083151502179055506001806000604051602001611b0d906020808252601f908201527f5649525455414c5f494e56454e544f52595f464f525f504f534954494f4e5300604082015260600190565b60405160208183030381529060405280519060200120815260200190815260200160002060006101000a81548160ff0219169083151502179055506001806000604051602001611b8e9060208082526016908201527f504f534954494f4e5f494d504143545f464143544f5200000000000000000000604082015260600190565b60405160208183030381529060405280519060200120815260200190815260200160002060006101000a81548160ff0219169083151502179055506001806000604051602001611c0f906020808252601f908201527f504f534954494f4e5f494d504143545f4558504f4e454e545f464143544f5200604082015260600190565b60405160208183030381529060405280519060200120815260200190815260200160002060006101000a81548160ff0219169083151502179055506001806000604051602001611c90906020808252601a908201527f4d41585f504f534954494f4e5f494d504143545f464143544f52000000000000604082015260600190565b60405160208183030381529060405280519060200120815260200190815260200160002060006101000a81548160ff0219169083151502179055506001806000604051602001611d119060208082526013908201527f504f534954494f4e5f4645455f464143544f5200000000000000000000000000604082015260600190565b60405160208183030381529060405280519060200120815260200190815260200160002060006101000a81548160ff0219169083151502179055506001806000604051602001611d879060208082526012908201527129aba0a82fa4a6a820a1aa2fa320a1aa27a960711b604082015260600190565b60405160208183030381529060405280519060200120815260200190815260200160002060006101000a81548160ff0219169083151502179055506001806000604051602001611e08906020808252601b908201527f535741505f494d504143545f4558504f4e454e545f464143544f520000000000604082015260600190565b60405160208183030381529060405280519060200120815260200190815260200160002060006101000a81548160ff0219169083151502179055506001806000604051602001611e7b906020808252600f908201526e29aba0a82fa322a2afa320a1aa27a960891b604082015260600190565b60405160208183030381529060405280519060200120815260200190815260200160002060006101000a81548160ff0219169083151502179055506001806000604051602001611ef09060208082526011908201527026a0ac2faaa4afa322a2afa320a1aa27a960791b604082015260600190565b60405160208183030381529060405280519060200120815260200190815260200160002060006101000a81548160ff0219169083151502179055506001806000604051602001611f5f906020808252600b908201526a4f5241434c455f5459504560a81b604082015260600190565b60405160208183030381529060405280519060200120815260200190815260200160002060006101000a81548160ff0219169083151502179055506001806000604051602001611fd1906020808252600e908201526d2922a9a2a92b22afa320a1aa27a960911b604082015260600190565b60405160208183030381529060405280519060200120815260200190815260200160002060006101000a81548160ff0219169083151502179055506001806000604051602001612052906020808252601c908201527f4f50454e5f494e5445524553545f524553455256455f464143544f5200000000604082015260600190565b60405160208183030381529060405280519060200120815260200190815260200160002060006101000a81548160ff02191690831515021790555060018060006040516020016120c4906020808252600e908201526d26a0ac2fa827262fa320a1aa27a960911b604082015260600190565b60405160208183030381529060405280519060200120815260200190815260200160002060006101000a81548160ff02191690831515021790555060018060006040516020016121459060208082526018908201527f4d494e5f504e4c5f464143544f525f41465445525f41444c0000000000000000604082015260600190565b60405160208183030381529060405280519060200120815260200190815260200160002060006101000a81548160ff02191690831515021790555060018060006040516020016121b7906020808252600e908201526d232aa72224a723afa320a1aa27a960911b604082015260600190565b60405160208183030381529060405280519060200120815260200190815260200160002060006101000a81548160ff02191690831515021790555060018060006040516020016122389060208082526017908201527f46554e44494e475f4558504f4e454e545f464143544f52000000000000000000604082015260600190565b60405160208183030381529060405280519060200120815260200190815260200160002060006101000a81548160ff02191690831515021790555060018060006040516020016122c49060208082526022908201527f46554e44494e475f494e4352454153455f464143544f525f5045525f5345434f604082015261139160f21b606082015260800190565b60405160208183030381529060405280519060200120815260200190815260200160002060006101000a81548160ff02191690831515021790555060018060006040516020016123509060208082526022908201527f46554e44494e475f44454352454153455f464143544f525f5045525f5345434f604082015261139160f21b606082015260800190565b60405160208183030381529060405280519060200120815260200190815260200160002060006101000a81548160ff02191690831515021790555060018060006040516020016123d1906020808252601d908201527f4d494e5f46554e44494e475f464143544f525f5045525f5345434f4e44000000604082015260600190565b60405160208183030381529060405280519060200120815260200190815260200160002060006101000a81548160ff0219169083151502179055506001806000604051602001612452906020808252601d908201527f4d41585f46554e44494e475f464143544f525f5045525f5345434f4e44000000604082015260600190565b60405160208183030381529060405280519060200120815260200190815260200160002060006101000a81548160ff02191690831515021790555060018060006040516020016124d3906020808252601c908201527f5448524553484f4c445f464f525f535441424c455f46554e44494e4700000000604082015260600190565b60405160208183030381529060405280519060200120815260200190815260200160002060006101000a81548160ff0219169083151502179055506001806000604051602001612554906020808252601e908201527f5448524553484f4c445f464f525f44454352454153455f46554e44494e470000604082015260600190565b60405160208183030381529060405280519060200120815260200190815260200160002060006101000a81548160ff02191690831515021790555060018060006040516020016125c89060208082526010908201526f2127a92927aba4a723afa320a1aa27a960811b604082015260600190565b60405160208183030381529060405280519060200120815260200190815260200160002060006101000a81548160ff02191690831515021790555060018060006040516020016126499060208082526019908201527f424f52524f57494e475f4558504f4e454e545f464143544f5200000000000000604082015260600190565b60405160208183030381529060405280519060200120815260200190815260200160002060006101000a81548160ff02191690831515021790555060018060006040516020016126d69060208082526023908201527f534b49505f424f52524f57494e475f4645455f464f525f534d414c4c45525f5360408201526249444560e81b606082015260800190565b60405160208183030381529060405280519060200120815260200190815260200160002060006101000a81548160ff0219169083151502179055506001806000604051602001612757906020808252601d908201527f50524943455f464545445f4845415254424541545f4455524154494f4e000000604082015260600190565b60408051808303601f19018152918152815160209283012083529082019290925201600020805460ff1916911515919091179055565b6001600260006040516020016127a290612a4d565b60405160208183030381529060405280519060200120815260200190815260200160002060006101000a81548160ff0219169083151502179055506001600260006040516020016127f290612a84565b60405160208183030381529060405280519060200120815260200190815260200160002060006101000a81548160ff021916908315150217905550600160026000604051602001612842906129c2565b60405160208183030381529060405280519060200120815260200190815260200160002060006101000a81548160ff021916908315150217905550600160026000604051602001612892906129eb565b60405160208183030381529060405280519060200120815260200190815260200160002060006101000a81548160ff02191690831515021790555060016002600060405160200161275790612a22565b60006040516020016129259060208082526014908201527f5749544844524157414c5f4741535f4c494d4954000000000000000000000000604082015260600190565b60408051601f198184030181528282528051602091820120908301520160405160208183030381529060405280519060200120905090565b6001600160a01b038116811461297257600080fd5b50565b60008060006060848603121561298a57600080fd5b83516129958161295d565b60208501519093506129a68161295d565b60408501519092506129b78161295d565b809150509250925092565b6020808252600f908201526e13505617d413d3d317d05353d55395608a1b604082015260600190565b6020808252601b908201527f4d41585f504f4f4c5f414d4f554e545f464f525f4445504f5349540000000000604082015260600190565b60208082526011908201527013505617d3d4115397d2539511549154d5607a1b604082015260600190565b6020808252601d908201527f455354494d415445445f4741535f4645455f424153455f414d4f554e54000000604082015260600190565b6020808252601d908201527f455845435554494f4e5f4741535f4645455f424153455f414d4f554e54000000604082015260600190565b60805160a05160c051613be0612bca600039600081816101bb015281816105970152818161085f01528181610c1801528181610e2e0152818161120001528181611555015281816119e001528181611a700152611ced01526000818161018101528181610452015281816106c401528181610ac901528181610cc0015281816110a0015281816114050152818161188d01528181611a4801528181611aee0152611b88015260008181610142015281816102840152818161033f01528181610904015281816109bf01528181610ed201528181610f8d01528181611239015281816112f4015281816116c80152818161178301528181611dd901528181611ec601526121900152613be06000f3fe608060405234801561001057600080fd5b50600436106100c55760003560e01c8063039f2ca6146100ca57806306850ad9146100df57806313a39b5214610117578063160d0ce61461012a5780634a4a7b041461013d578063660d0d671461017c5780636a0a6cca146101a35780639ff78c30146101b6578063a43f85c5146101dd578063aa0179a5146101f0578063ac9650d814610203578063af4937fc14610223578063c830360214610239578063f70f0da21461025c578063ffe478f31461026f575b600080fd5b6100dd6100d8366004612ba2565b610282565b005b6101026100ed366004612bf2565b60016020526000908152604090205460ff1681565b60405190151581526020015b60405180910390f35b6100dd610125366004612c20565b610611565b6100dd610138366004612c7b565b610902565b6101647f000000000000000000000000000000000000000000000000000000000000000081565b6040516001600160a01b03909116815260200161010e565b6101647f000000000000000000000000000000000000000000000000000000000000000081565b6100dd6101b1366004612cd5565b610c4f565b6101647f000000000000000000000000000000000000000000000000000000000000000081565b6100dd6101eb366004612ba2565b610ed0565b6100dd6101fe366004612d29565b611237565b610216610211366004612d78565b61158c565b60405161010e9190612e99565b61022b6116a0565b60405190815260200161010e565b610102610247366004612bf2565b60026020526000908152604090205460ff1681565b6100dd61026a366004612eb3565b6116c6565b6100dd61027d366004612f02565b611a17565b7f00000000000000000000000000000000000000000000000000000000000000006001600160a01b031663ac4ab3fb336040516020016102c190612f37565b604051602081830303815290604052805190602001206040518363ffffffff1660e01b81526004016102f4929190612f66565b602060405180830381865afa158015610311573d6000803e3d6000fd5b505050506040513d601f19601f820116820180604052508101906103359190612f7f565b1580156103f257507f00000000000000000000000000000000000000000000000000000000000000006001600160a01b031663ac4ab3fb3360405160200161037c90612f9c565b604051602081830303815290604052805190602001206040518363ffffffff1660e01b81526004016103af929190612f66565b602060405180830381865afa1580156103cc573d6000803e3d6000fd5b505050506040513d601f19601f820116820180604052508101906103f09190612f7f565b155b1561041b573360405163a35b150b60e01b81526004016104129190612fc3565b60405180910390fd5b610423611d7e565b61042c83611dd7565b60006104388484611fca565b6040516309d23b6160e31b81529091506001600160a01b037f00000000000000000000000000000000000000000000000000000000000000001690634e91db08906104899084908690600401613006565b6020604051808303816000875af11580156104a8573d6000803e3d6000fd5b505050506040513d601f19601f820116820180604052508101906104cc9190613014565b506104d56129ee565b60808101516104e590600261200d565b604080518082019091526007815266626173654b657960c81b602082015260808201516105159160009088612072565b60408051808201909152600581526476616c756560d81b602082015260808201516105439160019086612072565b60a08101516105539060016120c5565b6040805180820190915260048152636461746160e01b602082015260a08201516105809160009087612127565b604051630937807960e21b81526001600160a01b037f000000000000000000000000000000000000000000000000000000000000000016906324de01e4906105ce908890859060040161375f565b600060405180830381600087803b1580156105e857600080fd5b505af11580156105fc573d6000803e3d6000fd5b50505050505061060c6001600055565b505050565b61066460405160200161062390612f9c565b604051602081830303815290604052805190602001206040518060400160405280600d81526020016c21a7a72324a3afa5a2a2a822a960991b815250612179565b61066c611d7e565b68327cb2734119d3b7a9601e1b81111561069c57604051636c2738d360e01b815260048101829052602401610412565b60006106aa8686868661222d565b604051637152429d60e11b81529091506001600160a01b037f0000000000000000000000000000000000000000000000000000000000000000169063e2a4853a906106fb9084908690600401613006565b6020604051808303816000875af115801561071a573d6000803e3d6000fd5b505050506040513d601f19601f8201168201806040525081019061073e9190613014565b506107476129ee565b805161075490600361200d565b6040805180820190915260068152651b585c9ad95d60d21b60208201528151610780916000908a6122a5565b6040805180820190915260058152643a37b5b2b760d91b602082015281516107ab91600190896122a5565b6040805180820190915260078152661858d8dbdd5b9d60ca1b602082015281516107d891600290876122a5565b60208101516107e890600261200d565b61082360006040518060400160405280600781526020016674696d654b657960c81b815250878460200151612072909392919063ffffffff16565b61085d6001604051806040016040528060068152602001653330b1ba37b960d11b815250858460200151612072909392919063ffffffff16565b7f00000000000000000000000000000000000000000000000000000000000000006001600160a01b03166363d1636361089589612302565b61089e89612302565b846040518463ffffffff1660e01b81526004016108bd939291906137a1565b600060405180830381600087803b1580156108d757600080fd5b505af11580156108eb573d6000803e3d6000fd5b5050505050506108fb6001600055565b5050505050565b7f00000000000000000000000000000000000000000000000000000000000000006001600160a01b031663ac4ab3fb3360405160200161094190612f37565b604051602081830303815290604052805190602001206040518363ffffffff1660e01b8152600401610974929190612f66565b602060405180830381865afa158015610991573d6000803e3d6000fd5b505050506040513d601f19601f820116820180604052508101906109b59190612f7f565b158015610a7257507f00000000000000000000000000000000000000000000000000000000000000006001600160a01b031663ac4ab3fb336040516020016109fc90612f9c565b604051602081830303815290604052805190602001206040518363ffffffff1660e01b8152600401610a2f929190612f66565b602060405180830381865afa158015610a4c573d6000803e3d6000fd5b505050506040513d601f19601f82011682018060405250810190610a709190612f7f565b155b15610a92573360405163a35b150b60e01b81526004016104129190612fc3565b610a9a611d7e565b610aa383611dd7565b6000610aaf8484611fca565b60405163ca446dd960e01b81529091506001600160a01b037f0000000000000000000000000000000000000000000000000000000000000000169063ca446dd990610b009084908690600401613803565b6020604051808303816000875af1158015610b1f573d6000803e3d6000fd5b505050506040513d601f19601f82011682018060405250810190610b43919061381a565b50610b4c6129ee565b6080810151610b5c90600161200d565b604080518082019091526007815266626173654b657960c81b60208201526080820151610b8c9160009088612072565b60a0810151610b9c9060016120c5565b6040805180820190915260048152636461746160e01b602082015260a0820151610bc99160009087612127565b8051610bd690600161200d565b60408051808201909152600581526476616c756560d81b60208201528151610c0191600090866122a5565b604051630937807960e21b81526001600160a01b037f000000000000000000000000000000000000000000000000000000000000000016906324de01e4906105ce9088908590600401613837565b610c6160405160200161062390612f9c565b610c69611d7e565b68327cb2734119d3b7a9601e1b811115610c9957604051636c2738d360e01b815260048101829052602401610412565b6000610ca685858561230e565b604051637152429d60e11b81529091506001600160a01b037f0000000000000000000000000000000000000000000000000000000000000000169063e2a4853a90610cf79084908690600401613006565b6020604051808303816000875af1158015610d16573d6000803e3d6000fd5b505050506040513d601f19601f82011682018060405250810190610d3a9190613014565b50610d436129ee565b8051610d5090600261200d565b6040805180820190915260068152651b585c9ad95d60d21b60208201528151610d7c91600090896122a5565b6040805180820190915260058152643a37b5b2b760d91b60208201528151610da791600190886122a5565b6020810151610db790600261200d565b610df260006040518060400160405280600781526020016674696d654b657960c81b815250868460200151612072909392919063ffffffff16565b610e2c6001604051806040016040528060068152602001653330b1ba37b960d11b815250858460200151612072909392919063ffffffff16565b7f00000000000000000000000000000000000000000000000000000000000000006001600160a01b03166363d16363610e6488612302565b610e6d88612302565b846040518463ffffffff1660e01b8152600401610e8c93929190613871565b600060405180830381600087803b158015610ea657600080fd5b505af1158015610eba573d6000803e3d6000fd5b505050505050610eca6001600055565b50505050565b7f00000000000000000000000000000000000000000000000000000000000000006001600160a01b031663ac4ab3fb33604051602001610f0f90612f37565b604051602081830303815290604052805190602001206040518363ffffffff1660e01b8152600401610f42929190612f66565b602060405180830381865afa158015610f5f573d6000803e3d6000fd5b505050506040513d601f19601f82011682018060405250810190610f839190612f7f565b15801561104057507f00000000000000000000000000000000000000000000000000000000000000006001600160a01b031663ac4ab3fb33604051602001610fca90612f9c565b604051602081830303815290604052805190602001206040518363ffffffff1660e01b8152600401610ffd929190612f66565b602060405180830381865afa15801561101a573d6000803e3d6000fd5b505050506040513d601f19601f8201168201806040525081019061103e9190612f7f565b155b15611060573360405163a35b150b60e01b81526004016104129190612fc3565b611068611d7e565b61107183611dd7565b600061107d8484611fca565b90506110898483612376565b604051637152429d60e11b81526001600160a01b037f0000000000000000000000000000000000000000000000000000000000000000169063e2a4853a906110d79084908690600401613006565b6020604051808303816000875af11580156110f6573d6000803e3d6000fd5b505050506040513d601f19601f8201168201806040525081019061111a9190613014565b506111236129ee565b608081015161113390600161200d565b604080518082019091526007815266626173654b657960c81b602082015260808201516111639160009088612072565b60a08101516111739060016120c5565b6040805180820190915260048152636461746160e01b602082015260a08201516111a09160009087612127565b60208101516111b090600161200d565b6111e960006040518060400160405280600581526020016476616c756560d81b815250858460200151612072909392919063ffffffff16565b604051630937807960e21b81526001600160a01b037f000000000000000000000000000000000000000000000000000000000000000016906324de01e4906105ce90889085906004016138d0565b7f00000000000000000000000000000000000000000000000000000000000000006001600160a01b031663ac4ab3fb3360405160200161127690612f37565b604051602081830303815290604052805190602001206040518363ffffffff1660e01b81526004016112a9929190612f66565b602060405180830381865afa1580156112c6573d6000803e3d6000fd5b505050506040513d601f19601f820116820180604052508101906112ea9190612f7f565b1580156113a757507f00000000000000000000000000000000000000000000000000000000000000006001600160a01b031663ac4ab3fb3360405160200161133190612f9c565b604051602081830303815290604052805190602001206040518363ffffffff1660e01b8152600401611364929190612f66565b602060405180830381865afa158015611381573d6000803e3d6000fd5b505050506040513d601f19601f820116820180604052508101906113a59190612f7f565b155b156113c7573360405163a35b150b60e01b81526004016104129190612fc3565b6113cf611d7e565b6113d883611dd7565b60006113e48484611fca565b60405163abfdcced60e01b81526004810182905283151560248201529091507f00000000000000000000000000000000000000000000000000000000000000006001600160a01b03169063abfdcced906044016020604051808303816000875af1158015611456573d6000803e3d6000fd5b505050506040513d601f19601f8201168201806040525081019061147a9190612f7f565b506114836129ee565b608081015161149390600161200d565b604080518082019091526007815266626173654b657960c81b602082015260808201516114c39160009088612072565b60a08101516114d39060016120c5565b6040805180820190915260048152636461746160e01b602082015260a08201516115009160009087612127565b606081015161151090600161200d565b60408051808201909152600581526476616c756560d81b6020820152606082015161153e91600090866127ed565b604051630937807960e21b81526001600160a01b037f000000000000000000000000000000000000000000000000000000000000000016906324de01e4906105ce9088908590600401613907565b6060816001600160401b038111156115a6576115a6612adf565b6040519080825280602002602001820160405280156115d957816020015b60608152602001906001900390816115c45790505b50905060005b8281101561169857600080308686858181106115fd576115fd61393e565b905060200281019061160f9190613954565b60405161161d9291906139a1565b600060405180830381855af49150503d8060008114611658576040519150601f19603f3d011682016040523d82523d6000602084013e61165d565b606091505b5091509150816116705761167081612842565b808484815181106116835761168361393e565b602090810291909101015250506001016115df565b505b92915050565b60646116b968327cb2734119d3b7a9601e1b60056139b1565b6116c391906139d6565b81565b7f00000000000000000000000000000000000000000000000000000000000000006001600160a01b031663ac4ab3fb3360405160200161170590612f37565b604051602081830303815290604052805190602001206040518363ffffffff1660e01b8152600401611738929190612f66565b602060405180830381865afa158015611755573d6000803e3d6000fd5b505050506040513d601f19601f820116820180604052508101906117799190612f7f565b15801561183657507f00000000000000000000000000000000000000000000000000000000000000006001600160a01b031663ac4ab3fb336040516020016117c090612f9c565b604051602081830303815290604052805190602001206040518363ffffffff1660e01b81526004016117f3929190612f66565b602060405180830381865afa158015611810573d6000803e3d6000fd5b505050506040513d601f19601f820116820180604052508101906118349190612f7f565b155b15611856573360405163a35b150b60e01b81526004016104129190612fc3565b61185e611d7e565b61186783611dd7565b60006118738484611fca565b6040516303e49bed60e41b81529091506001600160a01b037f00000000000000000000000000000000000000000000000000000000000000001690633e49bed0906118c49084908690600401613006565b6020604051808303816000875af11580156118e3573d6000803e3d6000fd5b505050506040513d601f19601f820116820180604052508101906119079190613014565b506119106129ee565b608081015161192090600161200d565b604080518082019091526007815266626173654b657960c81b602082015260808201516119509160009088612072565b60a08101516119609060016120c5565b6040805180820190915260048152636461746160e01b602082015260a082015161198d9160009087612127565b604081015161199d90600161200d565b604080518082018252600581526476616c756560d81b6020820152908201516119c99160009086612072565b604051630937807960e21b81526001600160a01b037f000000000000000000000000000000000000000000000000000000000000000016906324de01e4906105ce90889085906004016139f8565b611a2960405160200161062390612f9c565b611a31611d7e565b60405163c468d13560e01b81526001600160a01b037f0000000000000000000000000000000000000000000000000000000000000000811660048301527f0000000000000000000000000000000000000000000000000000000000000000811660248301528416604482015273__$e53db83827f4e07ebc418caf7145b8c2d5$__9063c468d1359060640160006040518083038186803b158015611ad457600080fd5b505af4158015611ae8573d6000803e3d6000fd5b505050507f00000000000000000000000000000000000000000000000000000000000000006001600160a01b031663e2a4853a611b248561287b565b846040518363ffffffff1660e01b8152600401611b42929190613006565b6020604051808303816000875af1158015611b61573d6000803e3d6000fd5b505050506040513d601f19601f82011682018060405250810190611b859190613014565b507f00000000000000000000000000000000000000000000000000000000000000006001600160a01b031663e2a4853a611bbe85612903565b836040518363ffffffff1660e01b8152600401611bdc929190613006565b6020604051808303816000875af1158015611bfb573d6000803e3d6000fd5b505050506040513d601f19601f82011682018060405250810190611c1f9190613014565b50611c286129ee565b8051611c3590600161200d565b6040805180820190915260068152651b585c9ad95d60d21b60208201528151611c6191600090876122a5565b6020810151611c7190600261200d565b611cc060006040518060400160405280601b81526020017a1b5a5b941bdcda5d1a5bdb925b5c1858dd141bdbdb105b5bdd5b9d602a1b815250858460200151612072909392919063ffffffff16565b611ceb6001604051806060016040528060228152602001613b89602291396020840151919085612072565b7f00000000000000000000000000000000000000000000000000000000000000006001600160a01b03166324de01e4611d2386612302565b836040518363ffffffff1660e01b8152600401611d41929190613a2e565b600060405180830381600087803b158015611d5b57600080fd5b505af1158015611d6f573d6000803e3d6000fd5b505050505061060c6001600055565b600260005403611dd05760405162461bcd60e51b815260206004820152601f60248201527f5265656e7472616e637947756172643a207265656e7472616e742063616c6c006044820152606401610412565b6002600055565b7f00000000000000000000000000000000000000000000000000000000000000006001600160a01b031663ac4ab3fb33604051602001611e1690612f9c565b604051602081830303815290604052805190602001206040518363ffffffff1660e01b8152600401611e49929190612f66565b602060405180830381865afa158015611e66573d6000803e3d6000fd5b505050506040513d601f19601f82011682018060405250810190611e8a9190612f7f565b15611ec45760008181526001602052604090205460ff16611ec15760405163eb19d3f560e01b815260048101829052602401610412565b50565b7f00000000000000000000000000000000000000000000000000000000000000006001600160a01b031663ac4ab3fb33604051602001611f0390612f37565b604051602081830303815290604052805190602001206040518363ffffffff1660e01b8152600401611f36929190612f66565b602060405180830381865afa158015611f53573d6000803e3d6000fd5b505050506040513d601f19601f82011682018060405250810190611f779190612f7f565b15611fae5760008181526002602052604090205460ff16611ec15760405163eb19d3f560e01b815260048101829052602401610412565b60405163eb19d3f560e01b815260048101829052602401610412565b60008151600003611fdc57508161169a565b8282604051602001611fef929190613a89565b60405160208183030381529060405280519060200120905092915050565b806001600160401b0381111561202557612025612adf565b60405190808252806020026020018201604052801561206b57816020015b6040805180820190915260608152600060208201528152602001906001900390816120435790505b5090915250565b81846000015184815181106120895761208961393e565b60200260200101516000018190525080846000015184815181106120af576120af61393e565b6020026020010151602001818152505050505050565b806001600160401b038111156120dd576120dd612adf565b60405190808252806020026020018201604052801561206b57816020015b60408051808201909152606080825260208201528152602001906001900390816120fb57505090915250565b818460000151848151811061213e5761213e61393e565b60200260200101516000018190525080846000015184815181106121645761216461393e565b60200260200101516020018190525050505050565b60405163ac4ab3fb60e01b81526001600160a01b037f0000000000000000000000000000000000000000000000000000000000000000169063ac4ab3fb906121c79033908690600401612f66565b602060405180830381865afa1580156121e4573d6000803e3d6000fd5b505050506040513d601f19601f820116820180604052508101906122089190612f7f565b61222957338160405163a35b150b60e01b8152600401610412929190613aaf565b5050565b600060405160200161223e90613ad3565b60408051601f198184030181528282528051602091820120908301526001600160a01b0380881691830191909152808616606083015260808201859052831660a082015260c001604051602081830303815290604052805190602001209050949350505050565b81846000015184815181106122bc576122bc61393e565b60200260200101516000018190525080846000015184815181106122e2576122e261393e565b6020908102919091018101516001600160a01b0390921691015250505050565b6001600160a01b031690565b600060405160200161231f90613ad3565b60408051808303601f190181528282528051602091820120818401526001600160a01b03968716838301529490951660608201526080808201939093528451808203909301835260a0019093528051910120919050565b6040516020016123a8906020808252600e908201526d232aa72224a723afa320a1aa27a960911b604082015260600190565b6040516020818303038152906040528051906020012082148061241357506040516020016123fa9060208082526010908201526f2127a92927aba4a723afa320a1aa27a960811b604082015260600190565b6040516020818303038152906040528051906020012082145b1561245f57606461243168327cb2734119d3b7a9601e1b60016139b1565b61243b91906139d6565b81111561245f578181604051633384d6fd60e21b8152600401610412929190613006565b604051602001612492906020808252600f908201526e29aba0a82fa322a2afa320a1aa27a960891b604082015260600190565b6040516020818303038152906040528051906020012082148061250057506040516020016124e7906020808252601390820152722827a9a4aa24a7a72fa322a2afa320a1aa27a960691b604082015260600190565b6040516020818303038152906040528051906020012082145b80612554575060405160200161253b9060208082526011908201527026a0ac2faaa4afa322a2afa320a1aa27a960791b604082015260600190565b6040516020818303038152906040528051906020012082145b156125a057606461257268327cb2734119d3b7a9601e1b60056139b1565b61257c91906139d6565b8111156125a0578181604051633384d6fd60e21b8152600401610412929190613006565b6040516020016125e0906020808252601c908201527b2827a9a4aa24a7a72fa322a2afa922a1a2a4ab22a92fa320a1aa27a960211b604082015260600190565b60405160208183030381529060405280519060200120821480612653575060405160200161263a9060208082526018908201527729aba0a82fa322a2afa922a1a2a4ab22a92fa320a1aa27a960411b604082015260600190565b6040516020818303038152906040528051906020012082145b806126b3575060405160200161269a906020808252601d908201527f424f52524f57494e475f4645455f52454345495645525f464143544f52000000604082015260600190565b6040516020818303038152906040528051906020012082145b8061270b57506040516020016126f29060208082526015908201527426a4a72fa1a7a62620aa22a920a62fa320a1aa27a960591b604082015260600190565b6040516020818303038152906040528051906020012082145b8061275c5750604051602001612743906020808252600e908201526d26a0ac2fa827262fa320a1aa27a960911b604082015260600190565b6040516020818303038152906040528051906020012082145b806127b7575060405160200161279e9060208082526018908201527713525397d4139317d19050d513d497d05195115497d0511360421b604082015260600190565b6040516020818303038152906040528051906020012082145b156122295768327cb2734119d3b7a9601e1b811115612229578181604051633384d6fd60e21b8152600401610412929190613006565b81846000015184815181106128045761280461393e565b602002602001015160000181905250808460000151848151811061282a5761282a61393e565b60209081029190910181015191151591015250505050565b60008061284e83612955565b915091508015612872578160405162461bcd60e51b81526004016104129190613b08565b61060c836129e5565b60006040516020016128be906020808252601f908201527f4d494e5f504f534954494f4e5f494d504143545f504f4f4c5f414d4f554e5400604082015260600190565b60405160208183030381529060405280519060200120826040516020016128e6929190613803565b604051602081830303815290604052805190602001209050919050565b60006040516020016128be9060208082526026908201527f504f534954494f4e5f494d504143545f504f4f4c5f444953545249425554494f6040820152654e5f5241544560d01b606082015260800190565b6060600060448351101561297c575050604080516020810190915260008082529092909150565b6000612989846020015190565b90506307b9e43360e51b6001600160e01b03198216016129c857600484019350838060200190518101906129bd9190613b1b565b946001945092505050565b600060405180602001604052806000815250909250925050915091565b80518060208301fd5b604080516101208101909152606060e0820181815261010083019190915281908152602001612a30604051806040016040528060608152602001606081525090565b8152602001612a52604051806040016040528060608152602001606081525090565b8152602001612a74604051806040016040528060608152602001606081525090565b8152602001612a96604051806040016040528060608152602001606081525090565b8152602001612ab8604051806040016040528060608152602001606081525090565b8152602001612ada604051806040016040528060608152602001606081525090565b905290565b634e487b7160e01b600052604160045260246000fd5b604051601f8201601f191681016001600160401b0381118282101715612b1d57612b1d612adf565b604052919050565b60006001600160401b03821115612b3e57612b3e612adf565b50601f01601f191660200190565b600082601f830112612b5d57600080fd5b8135612b70612b6b82612b25565b612af5565b818152846020838601011115612b8557600080fd5b816020850160208301376000918101602001919091529392505050565b600080600060608486031215612bb757600080fd5b8335925060208401356001600160401b03811115612bd457600080fd5b612be086828701612b4c565b93969395505050506040919091013590565b600060208284031215612c0457600080fd5b5035919050565b6001600160a01b0381168114611ec157600080fd5b600080600080600060a08688031215612c3857600080fd5b8535612c4381612c0b565b94506020860135612c5381612c0b565b9350604086013592506060860135612c6a81612c0b565b949793965091946080013592915050565b600080600060608486031215612c9057600080fd5b8335925060208401356001600160401b03811115612cad57600080fd5b612cb986828701612b4c565b9250506040840135612cca81612c0b565b809150509250925092565b60008060008060808587031215612ceb57600080fd5b8435612cf681612c0b565b93506020850135612d0681612c0b565b93969395505050506040820135916060013590565b8015158114611ec157600080fd5b600080600060608486031215612d3e57600080fd5b8335925060208401356001600160401b03811115612d5b57600080fd5b612d6786828701612b4c565b9250506040840135612cca81612d1b565b60008060208385031215612d8b57600080fd5b82356001600160401b03811115612da157600080fd5b8301601f81018513612db257600080fd5b80356001600160401b03811115612dc857600080fd5b8560208260051b8401011115612ddd57600080fd5b6020919091019590945092505050565b60005b83811015612e08578181015183820152602001612df0565b50506000910152565b60008151808452612e29816020860160208601612ded565b601f01601f19169290920160200192915050565b600082825180855260208501945060208160051b8301016020850160005b83811015612e8d57601f19858403018852612e77838351612e11565b6020988901989093509190910190600101612e5b565b50909695505050505050565b602081526000612eac6020830184612e3d565b9392505050565b600080600060608486031215612ec857600080fd5b8335925060208401356001600160401b03811115612ee557600080fd5b612ef186828701612b4c565b925050604084013590509250925092565b600080600060608486031215612f1757600080fd5b8335612f2281612c0b565b95602085013595506040909401359392505050565b6020808252601590820152742624a6a4aa22a22fa1a7a72324a3afa5a2a2a822a960591b604082015260600190565b6001600160a01b03929092168252602082015260400190565b600060208284031215612f9157600080fd5b8151612eac81612d1b565b6020808252600d908201526c21a7a72324a3afa5a2a2a822a960991b604082015260600190565b6001600160a01b03919091168152604060208201819052601790820152762624a6a4aa22a210179021a7a72324a39025a2a2a822a960491b606082015260800190565b918252602082015260400190565b60006020828403121561302657600080fd5b5051919050565b600082825180855260208501945060208160051b8301016020850160005b83811015612e8d57601f1985840301885281518051604085526130716040860182612e11565b6020928301518682038785015280518083529084019360009350909101905b808310156130bb5783516001600160a01b031682526020938401936001939093019290910190613090565b5060209a8b019a9095509390930192505060010161304b565b60006040830182516040855281815180845260608701915060608160051b880101935060208301925060005b8181101561314e57605f1988860301835283518051604087526131266040880182612e11565b6020928301516001600160a01b03169783019790975250938401939290920191600101613100565b5050505060208301518482036020860152613169828261302d565b95945050505050565b600082825180855260208501945060208160051b8301016020850160005b83811015612e8d57601f1985840301885281518051604085526131b66040860182612e11565b6020928301518682038785015280518083529084019360009350909101905b808310156131f857835182526020820191506020840193506001830192506131d5565b5060209a8b019a90955093909301925050600101613190565b60006040830182516040855281815180845260608701915060608160051b880101935060208301925060005b8181101561328257605f1988860301835283518051604087526132636040880182612e11565b602092830151978301979097525093840193929092019160010161323d565b50505050602083015184820360208601526131698282613172565b60006040830182516040855281815180845260608701915060608160051b880101935060208301925060005b8181101561328257605f1988860301835283518051604087526132ef6040880182612e11565b60209283015197830197909752509384019392909201916001016132c9565b600082825180855260208501945060208160051b8301016020850160005b83811015612e8d57601f1985840301885281518051604085526133526040860182612e11565b6020928301518682038785015280518083529084019360009350909101905b8083101561339657835115158252602082019150602084019350600183019250613371565b5060209a8b019a9095509390930192505060010161332c565b60006040830182516040855281815180845260608701915060608160051b880101935060208301925060005b8181101561342257605f1988860301835283518051604087526134016040880182612e11565b602092830151151597830197909752509384019392909201916001016133db565b5050505060208301518482036020860152613169828261330e565b600082825180855260208501945060208160051b8301016020850160005b83811015612e8d57601f1985840301885281518051604085526134816040860182612e11565b905060208201519150848103602086015261349c8183612e3d565b60209a8b019a9095509390930192505060010161345b565b60006040830182516040855281815180845260608701915060608160051b880101935060208301925060005b8181101561353857605f1988860301835283518051604087526135066040880182612e11565b90506020820151915086810360208801526135218183612e11565b9650505060209384019392909201916001016134e0565b5050505060208301518482036020860152613169828261343d565b600082825180855260208501945060208160051b8301016020850160005b83811015612e8d57601f1985840301885281518051604085526135976040860182612e11565b6020928301518682038785015280518083529084019391925081830191600582901b84010160005b828110156135f057601f198583030184526135db828751612e11565b602096870196949094019391506001016135bf565b508097505050505050602082019150602088019750600181019050613571565b60006040830182516040855281815180845260608701915060608160051b880101935060208301925060005b8181101561369457605f1988860301835283518051604087526136626040880182612e11565b905060208201519150868103602088015261367d8183612e11565b96505050602093840193929092019160010161363c565b50505050602083015184820360208601526131698282613553565b6000815160e084526136c460e08501826130d4565b9050602083015184820360208601526136dd8282613211565b915050604083015184820360408601526136f7828261329d565b9150506060830151848203606086015261371182826133af565b9150506080830151848203608086015261372b8282613211565b91505060a083015184820360a086015261374582826134b4565b91505060c083015184820360c08601526131698282613610565b60608152600a60608201526929b2ba213cba32b9999960b11b608082015282602082015260a06040820152600061379960a08301846136af565b949350505050565b60808152602660808201527f536574436c61696d61626c65436f6c6c61746572616c466163746f72466f724160a08201526518d8dbdd5b9d60d21b60c082015283602082015282604082015260e06060820152600061316960e08301846136af565b9182526001600160a01b0316602082015260400190565b60006020828403121561382c57600080fd5b8151612eac81612c0b565b60608152600a6060820152695365744164647265737360b01b608082015282602082015260a06040820152600061379960a08301846136af565b60808152602360808201527f536574436c61696d61626c65436f6c6c61746572616c466163746f72466f725460a082015262696d6560e81b60c082015283602082015282604082015260e06060820152600061316960e08301846136af565b60608152600760608201526614d95d155a5b9d60ca1b608082015282602082015260a06040820152600061379960a08301846136af565b60608152600760608201526614d95d109bdbdb60ca1b608082015282602082015260a06040820152600061379960a08301846136af565b634e487b7160e01b600052603260045260246000fd5b6000808335601e1984360301811261396b57600080fd5b8301803591506001600160401b0382111561398557600080fd5b60200191503681900382131561399a57600080fd5b9250929050565b8183823760009101908152919050565b808202811582820484141761169a57634e487b7160e01b600052601160045260246000fd5b6000826139f357634e487b7160e01b600052601260045260246000fd5b500490565b60608152600660608201526514d95d125b9d60d21b608082015282602082015260a06040820152600061379960a08301846136af565b60608152602560608201527f536574506f736974696f6e496d70616374506f6f6c446973747269627574696f6080820152646e5261746560d81b60a082015282602082015260c06040820152600061379960c08301846136af565b82815260008251613aa1816020850160208701612ded565b919091016020019392505050565b6001600160a01b038316815260406020820181905260009061379990830184612e11565b6020808252601b908201527a21a620a4a6a0a12622afa1a7a62620aa22a920a62fa320a1aa27a960291b604082015260600190565b602081526000612eac6020830184612e11565b600060208284031215613b2d57600080fd5b81516001600160401b03811115613b4357600080fd5b8201601f81018413613b5457600080fd5b8051613b62612b6b82612b25565b818152856020838501011115613b7757600080fd5b613169826020830160208601612ded56fe706f736974696f6e496d70616374506f6f6c446973747269627574696f6e52617465a26469706673582212209d8f579934535f80b78517c3f747d823edf6c53c7104f5bd6e2e6d596ed97f2764736f6c634300081a0033",
  "linkReferences": {
    "contracts/market/MarketUtils.sol": {
      "MarketUtils": [
        {
          "length": 20,
          "start": 18025
        }
      ]
    }
  },
  "deployedLinkReferences": {
    "contracts/market/MarketUtils.sol": {
      "MarketUtils": [
        {
          "length": 20,
          "start": 6815
        }
      ]
    }
  }
}