{
  "_format": "hh-sol-artifact-1",
  "contractName": "WithdrawalStoreUtilsTest",
  "sourceName": "contracts/test/WithdrawalStoreUtilsTest.sol",
  "abi": [
    {
      "inputs": [],
      "name": "getEmptyWithdrawal",
      "outputs": [
        {
          "components": [
            {
              "components": [
                {
                  "internalType": "address",
                  "name": "account",
                  "type": "address"
                },
                {
                  "internalType": "address",
                  "name": "receiver",
                  "type": "address"
                },
                {
                  "internalType": "address",
                  "name": "callbackContract",
                  "type": "address"
                },
                {
                  "internalType": "address",
                  "name": "uiFeeReceiver",
                  "type": "address"
                },
                {
                  "internalType": "address",
                  "name": "market",
                  "type": "address"
                },
                {
                  "internalType": "address[]",
                  "name": "longTokenSwapPath",
                  "type": "address[]"
                },
                {
                  "internalType": "address[]",
                  "name": "shortTokenSwapPath",
                  "type": "address[]"
                }
              ],
              "internalType": "struct Withdrawal.Addresses",
              "name": "addresses",
              "type": "tuple"
            },
            {
              "components": [
                {
                  "internalType": "uint256",
                  "name": "marketTokenAmount",
                  "type": "uint256"
                },
                {
                  "internalType": "uint256",
                  "name": "minLongTokenAmount",
                  "type": "uint256"
                },
                {
                  "internalType": "uint256",
                  "name": "minShortTokenAmount",
                  "type": "uint256"
                },
                {
                  "internalType": "uint256",
                  "name": "updatedAtBlock",
                  "type": "uint256"
                },
                {
                  "internalType": "uint256",
                  "name": "executionFee",
                  "type": "uint256"
                },
                {
                  "internalType": "uint256",
                  "name": "callbackGasLimit",
                  "type": "uint256"
                }
              ],
              "internalType": "struct Withdrawal.Numbers",
              "name": "numbers",
              "type": "tuple"
            },
            {
              "components": [
                {
                  "internalType": "bool",
                  "name": "shouldUnwrapNativeToken",
                  "type": "bool"
                }
              ],
              "internalType": "struct Withdrawal.Flags",
              "name": "flags",
              "type": "tuple"
            }
          ],
          "internalType": "struct Withdrawal.Props",
          "name": "",
          "type": "tuple"
        }
      ],
      "stateMutability": "pure",
      "type": "function"
    },
    {
      "inputs": [
        {
          "internalType": "contract DataStore",
          "name": "dataStore",
          "type": "address"
        },
        {
          "internalType": "bytes32",
          "name": "key",
          "type": "bytes32"
        },
        {
          "internalType": "address",
          "name": "account",
          "type": "address"
        }
      ],
      "name": "removeWithdrawal",
      "outputs": [],
      "stateMutability": "nonpayable",
      "type": "function"
    },
    {
      "inputs": [
        {
          "internalType": "contract DataStore",
          "name": "dataStore",
          "type": "address"
        },
        {
          "internalType": "bytes32",
          "name": "key",
          "type": "bytes32"
        },
        {
          "components": [
            {
              "components": [
                {
                  "internalType": "address",
                  "name": "account",
                  "type": "address"
                },
                {
                  "internalType": "address",
                  "name": "receiver",
                  "type": "address"
                },
                {
                  "internalType": "address",
                  "name": "callbackContract",
                  "type": "address"
                },
                {
                  "internalType": "address",
                  "name": "uiFeeReceiver",
                  "type": "address"
                },
                {
                  "internalType": "address",
                  "name": "market",
                  "type": "address"
                },
                {
                  "internalType": "address[]",
                  "name": "longTokenSwapPath",
                  "type": "address[]"
                },
                {
                  "internalType": "address[]",
                  "name": "shortTokenSwapPath",
                  "type": "address[]"
                }
              ],
              "internalType": "struct Withdrawal.Addresses",
              "name": "addresses",
              "type": "tuple"
            },
            {
              "components": [
                {
                  "internalType": "uint256",
                  "name": "marketTokenAmount",
                  "type": "uint256"
                },
                {
                  "internalType": "uint256",
                  "name": "minLongTokenAmount",
                  "type": "uint256"
                },
                {
                  "internalType": "uint256",
                  "name": "minShortTokenAmount",
                  "type": "uint256"
                },
                {
                  "internalType": "uint256",
                  "name": "updatedAtBlock",
                  "type": "uint256"
                },
                {
                  "internalType": "uint256",
                  "name": "executionFee",
                  "type": "uint256"
                },
                {
                  "internalType": "uint256",
                  "name": "callbackGasLimit",
                  "type": "uint256"
                }
              ],
              "internalType": "struct Withdrawal.Numbers",
              "name": "numbers",
              "type": "tuple"
            },
            {
              "components": [
                {
                  "internalType": "bool",
                  "name": "shouldUnwrapNativeToken",
                  "type": "bool"
                }
              ],
              "internalType": "struct Withdrawal.Flags",
              "name": "flags",
              "type": "tuple"
            }
          ],
          "internalType": "struct Withdrawal.Props",
          "name": "withdrawal",
          "type": "tuple"
        }
      ],
      "name": "setWithdrawal",
      "outputs": [],
      "stateMutability": "nonpayable",
      "type": "function"
    }
  ],
  "bytecode": "0x6080604052348015600f57600080fd5b506108148061001f6000396000f3fe608060405234801561001057600080fd5b50600436106100415760003560e01c8063ab4f9d7f14610046578063bfd8ccd11461005b578063fb909db31461006e575b600080fd5b610059610054366004610218565b61008c565b005b61005961006936600461043d565b61010c565b610076610147565b604051610083919061062e565b60405180910390f35b6040516374b6fe1360e01b81526001600160a01b038085166004830152602482018490528216604482015273__$3dc24d71d6ebafc0c4ce8ac2f69cd1548a$__906374b6fe13906064015b60006040518083038186803b1580156100ef57600080fd5b505af4158015610103573d6000803e3d6000fd5b50505050505050565b604051631a9d46f160e21b815273__$3dc24d71d6ebafc0c4ce8ac2f69cd1548a$__90636a751bc4906100d7908690869086906004016106fe565b61014f61015c565b61015761015c565b919050565b604080516101408101909152600060608083018281526080840183905260a0840183905260c0840183905260e08401929092526101008301819052610120830152819081526020016101dd6040518060c001604052806000815260200160008152602001600081526020016000815260200160008152602001600081525090565b81526040805160208181019092526000815291015290565b6001600160a01b038116811461020a57600080fd5b50565b8035610157816101f5565b60008060006060848603121561022d57600080fd5b8335610238816101f5565b925060208401359150604084013561024f816101f5565b809150509250925092565b634e487b7160e01b600052604160045260246000fd5b604051606081016001600160401b03811182821017156102925761029261025a565b60405290565b60405160e081016001600160401b03811182821017156102925761029261025a565b604051601f8201601f191681016001600160401b03811182821017156102e2576102e261025a565b604052919050565b600082601f8301126102fb57600080fd5b81356001600160401b038111156103145761031461025a565b8060051b610324602082016102ba565b9182526020818501810192908101908684111561034057600080fd5b6020860192505b8383101561036b57823561035a816101f5565b825260209283019290910190610347565b9695505050505050565b600060c0828403121561038757600080fd5b60405160c081016001600160401b03811182821017156103a9576103a961025a565b604090815283358252602080850135908301528381013590820152606080840135908201526080808401359082015260a0928301359281019290925250919050565b6000602082840312156103fd57600080fd5b604051602081016001600160401b038111828210171561041f5761041f61025a565b6040529050808235801515811461043557600080fd5b905292915050565b60008060006060848603121561045257600080fd5b833561045d816101f5565b92506020840135915060408401356001600160401b0381111561047f57600080fd5b8401610100818703121561049257600080fd5b61049a610270565b81356001600160401b038111156104b057600080fd5b820160e081890312156104c257600080fd5b6104ca610298565b6104d38261020d565b81526104e16020830161020d565b60208201526104f26040830161020d565b60408201526105036060830161020d565b60608201526105146080830161020d565b608082015260a08201356001600160401b0381111561053257600080fd5b61053e8a8285016102ea565b60a08301525060c08201356001600160401b0381111561055d57600080fd5b6105698a8285016102ea565b60c08301525082525061057f8760208401610375565b60208201526105918760e084016103eb565b604082015280925050509250925092565b6001600160a01b03169052565b600081518084526020840193506020830160005b828110156105ea5781516001600160a01b03168652602095860195909101906001016105c3565b5093949350505050565b805182526020810151602083015260408101516040830152606081015160608301526080810151608083015260a081015160a08301525050565b602080825282516101008383015280516001600160a01b0390811661012085015291810151821661014084015260408101519091166101608301526060810151600091906106806101808501826105a2565b5060808101516106946101a08501826105a2565b5060a081015160e06101c08501526106b06102008501826105af565b905060c0820151915061011f19848203016101e08501526106d181836105af565b91505060208401516106e660408501826105f4565b50604084015180511515610100850152509392505050565b6001600160a01b038481168252602080830185905260606040808501829052855161010083870152805185166101608701529283015184166101808601528201519092166101a0840152908101516000919061075e6101c08501826105a2565b5060808101516107726101e08501826105a2565b5060a081015160e061020085015261078e6102408501826105af565b905060c0820151915061015f19848203016102208501526107af81836105af565b91505060208401516107c460808501826105f4565b50604084015180511515610140850152509594505050505056fea2646970667358221220c85f5f3aed344bcfae1a8f5ab17b5984212fb4b6c352a4dfa062f92ff82c77e264736f6c634300081a0033",
  "linkReferences": {
    "contracts/withdrawal/WithdrawalStoreUtils.sol": {
      "WithdrawalStoreUtils": [
        {
          "length": 20,
          "start": 216
        },
        {
          "length": 20,
          "start": 314
        }
      ]
    }
  },
  "deployedLinkReferences": {
    "contracts/withdrawal/WithdrawalStoreUtils.sol": {
      "WithdrawalStoreUtils": [
        {
          "length": 20,
          "start": 185
        },
        {
          "length": 20,
          "start": 283
        }
      ]
    }
  }
}