{
  "_format": "hh-sol-artifact-1",
  "contractName": "RoleModule",
  "sourceName": "contracts/role/RoleModule.sol",
  "abi": [
    {
      "inputs": [
        {
          "internalType": "contract RoleStore",
          "name": "_roleStore",
          "type": "address"
        }
      ],
      "stateMutability": "nonpayable",
      "type": "constructor"
    },
    {
      "inputs": [],
      "name": "roleStore",
      "outputs": [
        {
          "internalType": "contract RoleStore",
          "name": "",
          "type": "address"
        }
      ],
      "stateMutability": "view",
      "type": "function"
    }
  ],
  "bytecode": "0x60a0604052348015600f57600080fd5b50604051610127380380610127833981016040819052602c91603c565b6001600160a01b0316608052606a565b600060208284031215604d57600080fd5b81516001600160a01b0381168114606357600080fd5b9392505050565b60805160a561008260003960006031015260a56000f3fe6080604052348015600f57600080fd5b506004361060285760003560e01c80634a4a7b0414602d575b600080fd5b60537f000000000000000000000000000000000000000000000000000000000000000081565b6040516001600160a01b03909116815260200160405180910390f3fea26469706673582212204a04fdc07c904987b0d9c6fffd61f73f613b994d24670bbaa993fc1573793f8964736f6c634300081a0033",
  "linkReferences": {},
  "deployedLinkReferences": {}
}