{
  "_format": "hh-sol-artifact-1",
  "contractName": "OrderStoreUtilsTest",
  "sourceName": "contracts/test/OrderStoreUtilsTest.sol",
  "abi": [
    {
      "inputs": [],
      "name": "getEmptyOrder",
      "outputs": [
        {
          "components": [
            {
              "components": [
                {
                  "internalType": "address",
                  "name": "account",
                  "type": "address"
                },
                {
                  "internalType": "address",
                  "name": "receiver",
                  "type": "address"
                },
                {
                  "internalType": "address",
                  "name": "callbackContract",
                  "type": "address"
                },
                {
                  "internalType": "address",
                  "name": "uiFeeReceiver",
                  "type": "address"
                },
                {
                  "internalType": "address",
                  "name": "market",
                  "type": "address"
                },
                {
                  "internalType": "address",
                  "name": "initialCollateralToken",
                  "type": "address"
                },
                {
                  "internalType": "address[]",
                  "name": "swapPath",
                  "type": "address[]"
                }
              ],
              "internalType": "struct Order.Addresses",
              "name": "addresses",
              "type": "tuple"
            },
            {
              "components": [
                {
                  "internalType": "enum Order.OrderType",
                  "name": "orderType",
                  "type": "uint8"
                },
                {
                  "internalType": "enum Order.DecreasePositionSwapType",
                  "name": "decreasePositionSwapType",
                  "type": "uint8"
                },
                {
                  "internalType": "uint256",
                  "name": "sizeDeltaUsd",
                  "type": "uint256"
                },
                {
                  "internalType": "uint256",
                  "name": "initialCollateralDeltaAmount",
                  "type": "uint256"
                },
                {
                  "internalType": "uint256",
                  "name": "triggerPrice",
                  "type": "uint256"
                },
                {
                  "internalType": "uint256",
                  "name": "acceptablePrice",
                  "type": "uint256"
                },
                {
                  "internalType": "uint256",
                  "name": "executionFee",
                  "type": "uint256"
                },
                {
                  "internalType": "uint256",
                  "name": "callbackGasLimit",
                  "type": "uint256"
                },
                {
                  "internalType": "uint256",
                  "name": "minOutputAmount",
                  "type": "uint256"
                },
                {
                  "internalType": "uint256",
                  "name": "updatedAtBlock",
                  "type": "uint256"
                }
              ],
              "internalType": "struct Order.Numbers",
              "name": "numbers",
              "type": "tuple"
            },
            {
              "components": [
                {
                  "internalType": "bool",
                  "name": "isLong",
                  "type": "bool"
                },
                {
                  "internalType": "bool",
                  "name": "shouldUnwrapNativeToken",
                  "type": "bool"
                },
                {
                  "internalType": "bool",
                  "name": "isFrozen",
                  "type": "bool"
                }
              ],
              "internalType": "struct Order.Flags",
              "name": "flags",
              "type": "tuple"
            }
          ],
          "internalType": "struct Order.Props",
          "name": "",
          "type": "tuple"
        }
      ],
      "stateMutability": "pure",
      "type": "function"
    },
    {
      "inputs": [
        {
          "internalType": "contract DataStore",
          "name": "dataStore",
          "type": "address"
        },
        {
          "internalType": "bytes32",
          "name": "key",
          "type": "bytes32"
        },
        {
          "internalType": "address",
          "name": "account",
          "type": "address"
        }
      ],
      "name": "removeOrder",
      "outputs": [],
      "stateMutability": "nonpayable",
      "type": "function"
    },
    {
      "inputs": [
        {
          "internalType": "contract DataStore",
          "name": "dataStore",
          "type": "address"
        },
        {
          "internalType": "bytes32",
          "name": "key",
          "type": "bytes32"
        },
        {
          "components": [
            {
              "components": [
                {
                  "internalType": "address",
                  "name": "account",
                  "type": "address"
                },
                {
                  "internalType": "address",
                  "name": "receiver",
                  "type": "address"
                },
                {
                  "internalType": "address",
                  "name": "callbackContract",
                  "type": "address"
                },
                {
                  "internalType": "address",
                  "name": "uiFeeReceiver",
                  "type": "address"
                },
                {
                  "internalType": "address",
                  "name": "market",
                  "type": "address"
                },
                {
                  "internalType": "address",
                  "name": "initialCollateralToken",
                  "type": "address"
                },
                {
                  "internalType": "address[]",
                  "name": "swapPath",
                  "type": "address[]"
                }
              ],
              "internalType": "struct Order.Addresses",
              "name": "addresses",
              "type": "tuple"
            },
            {
              "components": [
                {
                  "internalType": "enum Order.OrderType",
                  "name": "orderType",
                  "type": "uint8"
                },
                {
                  "internalType": "enum Order.DecreasePositionSwapType",
                  "name": "decreasePositionSwapType",
                  "type": "uint8"
                },
                {
                  "internalType": "uint256",
                  "name": "sizeDeltaUsd",
                  "type": "uint256"
                },
                {
                  "internalType": "uint256",
                  "name": "initialCollateralDeltaAmount",
                  "type": "uint256"
                },
                {
                  "internalType": "uint256",
                  "name": "triggerPrice",
                  "type": "uint256"
                },
                {
                  "internalType": "uint256",
                  "name": "acceptablePrice",
                  "type": "uint256"
                },
                {
                  "internalType": "uint256",
                  "name": "executionFee",
                  "type": "uint256"
                },
                {
                  "internalType": "uint256",
                  "name": "callbackGasLimit",
                  "type": "uint256"
                },
                {
                  "internalType": "uint256",
                  "name": "minOutputAmount",
                  "type": "uint256"
                },
                {
                  "internalType": "uint256",
                  "name": "updatedAtBlock",
                  "type": "uint256"
                }
              ],
              "internalType": "struct Order.Numbers",
              "name": "numbers",
              "type": "tuple"
            },
            {
              "components": [
                {
                  "internalType": "bool",
                  "name": "isLong",
                  "type": "bool"
                },
                {
                  "internalType": "bool",
                  "name": "shouldUnwrapNativeToken",
                  "type": "bool"
                },
                {
                  "internalType": "bool",
                  "name": "isFrozen",
                  "type": "bool"
                }
              ],
              "internalType": "struct Order.Flags",
              "name": "flags",
              "type": "tuple"
            }
          ],
          "internalType": "struct Order.Props",
          "name": "order",
          "type": "tuple"
        }
      ],
      "name": "setOrder",
      "outputs": [],
      "stateMutability": "nonpayable",
      "type": "function"
    }
  ],
  "bytecode": "0x6080604052348015600f57600080fd5b5061090d8061001f6000396000f3fe608060405234801561001057600080fd5b50600436106100415760003560e01c80632a1a042214610046578063adc2db001461005b578063e23e70381461006e575b600080fd5b610059610054366004610240565b61008c565b005b6100596100693660046104d0565b61010c565b610076610147565b604051610083919061073d565b60405180910390f35b6040516374b6fe1360e01b81526001600160a01b038085166004830152602482018490528216604482015273__$9dcb75ef0bb6c4288f2ccffe7dc492c4eb$__906374b6fe13906064015b60006040518083038186803b1580156100ef57600080fd5b505af4158015610103573d6000803e3d6000fd5b50505050505050565b604051630c154e0d60e31b815273__$9dcb75ef0bb6c4288f2ccffe7dc492c4eb$__906360aa7068906100d790869086908690600401610802565b61014f61015c565b61015761015c565b919050565b604080516101408101909152600060608083018281526080840183905260a0840183905260c0840183905260e084018390526101008401929092526101208301528152602081016101fa60408051610140810190915280600081526020016000815260200160008152602001600081526020016000815260200160008152602001600081526020016000815260200160008152602001600081525090565b815260408051606081018252600080825260208281018290529282015291015290565b6001600160a01b038116811461023257600080fd5b50565b80356101578161021d565b60008060006060848603121561025557600080fd5b83356102608161021d565b92506020840135915060408401356102778161021d565b809150509250925092565b634e487b7160e01b600052604160045260246000fd5b60405161014081016001600160401b03811182821017156102bb576102bb610282565b60405290565b604051606081016001600160401b03811182821017156102bb576102bb610282565b60405160e081016001600160401b03811182821017156102bb576102bb610282565b604051601f8201601f191681016001600160401b038111828210171561032d5761032d610282565b604052919050565b600082601f83011261034657600080fd5b81356001600160401b0381111561035f5761035f610282565b8060051b61036f60208201610305565b9182526020818501810192908101908684111561038b57600080fd5b6020860192505b838310156103b65782356103a58161021d565b825260209283019290910190610392565b9695505050505050565b80356008811061015757600080fd5b80356003811061015757600080fd5b600061014082840312156103f157600080fd5b6103f9610298565b9050610404826103c0565b8152610412602083016103cf565b602082015260408281013590820152606080830135908201526080808301359082015260a0808301359082015260c0808301359082015260e0808301359082015261010080830135908201526101209182013591810191909152919050565b8035801515811461015757600080fd5b60006060828403121561049357600080fd5b61049b6102c1565b90506104a682610471565b81526104b460208301610471565b60208201526104c560408301610471565b604082015292915050565b6000806000606084860312156104e557600080fd5b83356104f08161021d565b92506020840135915060408401356001600160401b0381111561051257600080fd5b84016101c0818703121561052557600080fd5b61052d6102c1565b81356001600160401b0381111561054357600080fd5b820160e0818903121561055557600080fd5b61055d6102e3565b61056682610235565b815261057460208301610235565b602082015261058560408301610235565b604082015261059660608301610235565b60608201526105a760808301610235565b60808201526105b860a08301610235565b60a082015260c08201356001600160401b038111156105d657600080fd5b6105e28a828501610335565b60c0830152508252506105f887602084016103de565b602082015261060b876101608401610481565b604082015280925050509250925092565b6001600160a01b03169052565b600081518084526020840193506020830160005b828110156106645781516001600160a01b031686526020958601959091019060010161063d565b5093949350505050565b634e487b7160e01b600052602160045260246000fd5b600881106106945761069461066e565b9052565b600381106106945761069461066e565b6106b3828251610684565b60208101516106c56020840182610698565b5060408101516040830152606081015160608301526080810151608083015260a081015160a083015260c081015160c083015260e081015160e08301526101008101516101008301526101208101516101208301525050565b8051151582526020808201511515908301526040908101511515910152565b602080825282516101c08383015280516001600160a01b039081166101e0850152918101518216610200840152604081015190911661022083015260608101516000919061078f61024085018261061c565b5060808101516107a361026085018261061c565b5060a08101516107b761028085018261061c565b5060c0015160e06102a08401526107d26102c0840182610629565b905060208401516107e660408501826106a8565b5060408401516107fa61018085018261071e565b509392505050565b6001600160a01b03848116825260208083018590526060604080850182905285516101c08387015280518516610220870152928301518416610240860152820151909216610260840152908101516000919061086261028085018261061c565b5060808101516108766102a085018261061c565b5060a081015161088a6102c085018261061c565b5060c0015160e06102e08401526108a5610300840182610629565b905060208401516108b960808501826106a8565b5060408401516108cd6101c085018261071e565b509594505050505056fea264697066735822122044edbd469c7f23a440f0b3593274908900099b81e7786a2df1444e930c179c1364736f6c634300081a0033",
  "linkReferences": {
    "contracts/order/OrderStoreUtils.sol": {
      "OrderStoreUtils": [
        {
          "length": 20,
          "start": 216
        },
        {
          "length": 20,
          "start": 314
        }
      ]
    }
  },
  "deployedLinkReferences": {
    "contracts/order/OrderStoreUtils.sol": {
      "OrderStoreUtils": [
        {
          "length": 20,
          "start": 185
        },
        {
          "length": 20,
          "start": 283
        }
      ]
    }
  }
}