{
  "_format": "hh-sol-artifact-1",
  "contractName": "OracleModuleTest",
  "sourceName": "contracts/test/OracleModuleTest.sol",
  "abi": [
    {
      "inputs": [
        {
          "internalType": "uint256[]",
          "name": "compactedValues",
          "type": "uint256[]"
        },
        {
          "internalType": "uint256",
          "name": "index",
          "type": "uint256"
        },
        {
          "internalType": "uint256",
          "name": "slotIndex",
          "type": "uint256"
        },
        {
          "internalType": "string",
          "name": "label",
          "type": "string"
        }
      ],
      "name": "CompactedArrayOutOfBounds",
      "type": "error"
    },
    {
      "inputs": [
        {
          "internalType": "uint256",
          "name": "index",
          "type": "uint256"
        },
        {
          "internalType": "string",
          "name": "label",
          "type": "string"
        }
      ],
      "name": "DuplicatedIndex",
      "type": "error"
    },
    {
      "inputs": [
        {
          "internalType": "uint256",
          "name": "index",
          "type": "uint256"
        }
      ],
      "name": "EmptyCompactedBlockNumber",
      "type": "error"
    },
    {
      "inputs": [
        {
          "internalType": "uint256",
          "name": "index",
          "type": "uint256"
        }
      ],
      "name": "EmptyCompactedPrice",
      "type": "error"
    },
    {
      "inputs": [
        {
          "internalType": "uint256",
          "name": "index",
          "type": "uint256"
        }
      ],
      "name": "EmptyCompactedTimestamp",
      "type": "error"
    },
    {
      "inputs": [
        {
          "internalType": "address",
          "name": "recoveredSigner",
          "type": "address"
        },
        {
          "internalType": "address",
          "name": "expectedSigner",
          "type": "address"
        }
      ],
      "name": "InvalidSignature",
      "type": "error"
    },
    {
      "inputs": [
        {
          "internalType": "uint256",
          "name": "index",
          "type": "uint256"
        },
        {
          "internalType": "string",
          "name": "label",
          "type": "string"
        }
      ],
      "name": "MaskIndexOutOfBounds",
      "type": "error"
    },
    {
      "anonymous": false,
      "inputs": [
        {
          "indexed": false,
          "internalType": "string",
          "name": "reason",
          "type": "string"
        }
      ],
      "name": "OracleError",
      "type": "event"
    },
    {
      "inputs": [
        {
          "internalType": "contract DataStore",
          "name": "dataStore",
          "type": "address"
        },
        {
          "components": [
            {
              "internalType": "uint256",
              "name": "signerInfo",
              "type": "uint256"
            },
            {
              "internalType": "address[]",
              "name": "tokens",
              "type": "address[]"
            },
            {
              "internalType": "uint256[]",
              "name": "compactedMinOracleBlockNumbers",
              "type": "uint256[]"
            },
            {
              "internalType": "uint256[]",
              "name": "compactedMaxOracleBlockNumbers",
              "type": "uint256[]"
            },
            {
              "internalType": "uint256[]",
              "name": "compactedOracleTimestamps",
              "type": "uint256[]"
            },
            {
              "internalType": "uint256[]",
              "name": "compactedDecimals",
              "type": "uint256[]"
            },
            {
              "internalType": "uint256[]",
              "name": "compactedMinPrices",
              "type": "uint256[]"
            },
            {
              "internalType": "uint256[]",
              "name": "compactedMinPricesIndexes",
              "type": "uint256[]"
            },
            {
              "internalType": "uint256[]",
              "name": "compactedMaxPrices",
              "type": "uint256[]"
            },
            {
              "internalType": "uint256[]",
              "name": "compactedMaxPricesIndexes",
              "type": "uint256[]"
            },
            {
              "internalType": "bytes[]",
              "name": "signatures",
              "type": "bytes[]"
            },
            {
              "internalType": "address[]",
              "name": "priceFeedTokens",
              "type": "address[]"
            },
            {
              "internalType": "address[]",
              "name": "realtimeFeedTokens",
              "type": "address[]"
            },
            {
              "internalType": "bytes[]",
              "name": "realtimeFeedData",
              "type": "bytes[]"
            }
          ],
          "internalType": "struct OracleUtils.SetPricesParams",
          "name": "params",
          "type": "tuple"
        }
      ],
      "name": "getReportInfo",
      "outputs": [
        {
          "components": [
            {
              "internalType": "uint256",
              "name": "minOracleBlockNumber",
              "type": "uint256"
            },
            {
              "internalType": "uint256",
              "name": "maxOracleBlockNumber",
              "type": "uint256"
            },
            {
              "internalType": "uint256",
              "name": "oracleTimestamp",
              "type": "uint256"
            },
            {
              "internalType": "bytes32",
              "name": "blockHash",
              "type": "bytes32"
            },
            {
              "internalType": "address",
              "name": "token",
              "type": "address"
            },
            {
              "internalType": "bytes32",
              "name": "tokenOracleType",
              "type": "bytes32"
            },
            {
              "internalType": "uint256",
              "name": "precision",
              "type": "uint256"
            },
            {
              "internalType": "uint256",
              "name": "minPrice",
              "type": "uint256"
            },
            {
              "internalType": "uint256",
              "name": "maxPrice",
              "type": "uint256"
            }
          ],
          "internalType": "struct OracleUtils.ReportInfo[]",
          "name": "",
          "type": "tuple[]"
        }
      ],
      "stateMutability": "view",
      "type": "function"
    },
    {
      "inputs": [],
      "name": "getSalt",
      "outputs": [
        {
          "internalType": "bytes32",
          "name": "",
          "type": "bytes32"
        }
      ],
      "stateMutability": "view",
      "type": "function"
    },
    {
      "inputs": [
        {
          "internalType": "contract DataStore",
          "name": "dataStore",
          "type": "address"
        },
        {
          "internalType": "address",
          "name": "token",
          "type": "address"
        }
      ],
      "name": "getTokenOracleType",
      "outputs": [
        {
          "internalType": "bytes32",
          "name": "",
          "type": "bytes32"
        }
      ],
      "stateMutability": "view",
      "type": "function"
    },
    {
      "inputs": [
        {
          "components": [
            {
              "internalType": "uint256",
              "name": "minOracleBlockNumber",
              "type": "uint256"
            },
            {
              "internalType": "uint256",
              "name": "maxOracleBlockNumber",
              "type": "uint256"
            },
            {
              "internalType": "uint256",
              "name": "oracleTimestamp",
              "type": "uint256"
            },
            {
              "internalType": "bytes32",
              "name": "blockHash",
              "type": "bytes32"
            },
            {
              "internalType": "address",
              "name": "token",
              "type": "address"
            },
            {
              "internalType": "bytes32",
              "name": "tokenOracleType",
              "type": "bytes32"
            },
            {
              "internalType": "uint256",
              "name": "precision",
              "type": "uint256"
            },
            {
              "internalType": "uint256",
              "name": "minPrice",
              "type": "uint256"
            },
            {
              "internalType": "uint256",
              "name": "maxPrice",
              "type": "uint256"
            }
          ],
          "internalType": "struct OracleUtils.ReportInfo",
          "name": "info",
          "type": "tuple"
        },
        {
          "internalType": "bytes",
          "name": "signature",
          "type": "bytes"
        },
        {
          "internalType": "address",
          "name": "expectedSigner",
          "type": "address"
        }
      ],
      "name": "validateSigner",
      "outputs": [],
      "stateMutability": "view",
      "type": "function"
    },
    {
      "inputs": [
        {
          "internalType": "bytes32",
          "name": "SALT",
          "type": "bytes32"
        },
        {
          "components": [
            {
              "internalType": "uint256",
              "name": "minOracleBlockNumber",
              "type": "uint256"
            },
            {
              "internalType": "uint256",
              "name": "maxOracleBlockNumber",
              "type": "uint256"
            },
            {
              "internalType": "uint256",
              "name": "oracleTimestamp",
              "type": "uint256"
            },
            {
              "internalType": "bytes32",
              "name": "blockHash",
              "type": "bytes32"
            },
            {
              "internalType": "address",
              "name": "token",
              "type": "address"
            },
            {
              "internalType": "bytes32",
              "name": "tokenOracleType",
              "type": "bytes32"
            },
            {
              "internalType": "uint256",
              "name": "precision",
              "type": "uint256"
            },
            {
              "internalType": "uint256",
              "name": "minPrice",
              "type": "uint256"
            },
            {
              "internalType": "uint256",
              "name": "maxPrice",
              "type": "uint256"
            }
          ],
          "internalType": "struct OracleUtils.ReportInfo",
          "name": "info",
          "type": "tuple"
        },
        {
          "internalType": "bytes",
          "name": "signature",
          "type": "bytes"
        },
        {
          "internalType": "address",
          "name": "expectedSigner",
          "type": "address"
        }
      ],
      "name": "validateSignerWithSalt",
      "outputs": [],
      "stateMutability": "pure",
      "type": "function"
    },
    {
      "inputs": [
        {
          "internalType": "contract Oracle",
          "name": "oracle",
          "type": "address"
        },
        {
          "internalType": "contract DataStore",
          "name": "dataStore",
          "type": "address"
        },
        {
          "internalType": "contract EventEmitter",
          "name": "eventEmitter",
          "type": "address"
        },
        {
          "components": [
            {
              "internalType": "uint256",
              "name": "signerInfo",
              "type": "uint256"
            },
            {
              "internalType": "address[]",
              "name": "tokens",
              "type": "address[]"
            },
            {
              "internalType": "uint256[]",
              "name": "compactedMinOracleBlockNumbers",
              "type": "uint256[]"
            },
            {
              "internalType": "uint256[]",
              "name": "compactedMaxOracleBlockNumbers",
              "type": "uint256[]"
            },
            {
              "internalType": "uint256[]",
              "name": "compactedOracleTimestamps",
              "type": "uint256[]"
            },
            {
              "internalType": "uint256[]",
              "name": "compactedDecimals",
              "type": "uint256[]"
            },
            {
              "internalType": "uint256[]",
              "name": "compactedMinPrices",
              "type": "uint256[]"
            },
            {
              "internalType": "uint256[]",
              "name": "compactedMinPricesIndexes",
              "type": "uint256[]"
            },
            {
              "internalType": "uint256[]",
              "name": "compactedMaxPrices",
              "type": "uint256[]"
            },
            {
              "internalType": "uint256[]",
              "name": "compactedMaxPricesIndexes",
              "type": "uint256[]"
            },
            {
              "internalType": "bytes[]",
              "name": "signatures",
              "type": "bytes[]"
            },
            {
              "internalType": "address[]",
              "name": "priceFeedTokens",
              "type": "address[]"
            },
            {
              "internalType": "address[]",
              "name": "realtimeFeedTokens",
              "type": "address[]"
            },
            {
              "internalType": "bytes[]",
              "name": "realtimeFeedData",
              "type": "bytes[]"
            }
          ],
          "internalType": "struct OracleUtils.SetPricesParams",
          "name": "oracleParams",
          "type": "tuple"
        }
      ],
      "name": "withOraclePricesTest",
      "outputs": [],
      "stateMutability": "nonpayable",
      "type": "function"
    }
  ],
  "bytecode": "0x6080604052348015600f57600080fd5b50611cf28061001f6000396000f3fe608060405234801561001057600080fd5b50600436106100625760003560e01c806313a9589c14610067578063787944b9146100825780637913b39a146100a2578063a3ebe46d146100b5578063c9855283146100ca578063cc758e2d146100dd575b600080fd5b61006f6100f0565b6040519081526020015b60405180910390f35b6100956100903660046114f3565b610146565b6040516100799190611542565b61006f6100b03660046115e8565b61052e565b6100c86100c33660046116a2565b6105ae565b005b6100c86100d836600461170f565b6105c0565b6100c86100eb366004611783565b610682565b60004660405160200161012b918152604060208201819052600e908201526d786765742d6f7261636c652d763160901b606082015260800190565b60405160208183030381529060405280519060200120905090565b606060008260200151516001600160401b0381111561016757610167611007565b6040519080825280602002602001820160405280156101a057816020015b61018d610f21565b8152602001906001900390816101855790505b50905060005b836020015151811015610524576101bb610f7c565b6101c3610f21565b6101d186604001518461069a565b815260608601516101e2908461069a565b602082015260808601516101f69084610711565b60408201526020860151805184908110610212576102126117e8565b60209081029190910101516001600160a01b0316608082015260a086015161023a9084610783565b61024590600a6118fb565b60c082015260808101516001600160a01b0388169063a6ed563e90610269906107cf565b6040518263ffffffff1660e01b815260040161028791815260200190565b602060405180830381865afa1580156102a4573d6000803e3d6000fd5b505050506040513d601f19601f820116820180604052508101906102c89190611907565b60a0820152805160ff906102da61084a565b6102e49190611920565b116102fa5780516102f4906108c6565b60608201525b604080516001808252818301909252906020808301908036833750505060a0830152604080516001808252818301909252906020808301908036833750505060c083015260005b60018110156103d35780610356856001611933565b610360919061194a565b6020840181905260c08801516103759161093b565b8360a00151828151811061038b5761038b6117e8565b6020026020010181815250506103aa876101000151846020015161093b565b8360c0015182815181106103c0576103c06117e8565b6020908102919091010152600101610341565b5060005b60018110156104fb57806103ec856001611933565b6103f6919061194a565b6040840181905260e088015161040b916109a3565b6060840152610120870151604084015161042591906109a3565b6080840152606083015160408051808201909152600d81526c0dad2dca0e4d2c6ca92dcc8caf609b1b602082015260e08501516104639290916109ea565b608083015160408051808201909152600d81526c0dac2f0a0e4d2c6ca92dcc8caf609b1b602082015261010085015161049d9290916109ea565b8260a001518360600151815181106104b7576104b76117e8565b60200260200101518260e00181815250508260c001518360800151815181106104e2576104e26117e8565b60209081029190910101516101008301526001016103d7565b508084848151811061050f5761050f6117e8565b602090810291909101015250506001016101a6565b5090505b92915050565b6000826001600160a01b031663a6ed563e610548846107cf565b6040518263ffffffff1660e01b815260040161056691815260200190565b602060405180830381865afa158015610583573d6000803e3d6000fd5b505050506040513d601f19601f820116820180604052508101906105a79190611907565b9392505050565b6105ba84848484610a45565b50505050565b83838383836001600160a01b031663129dab8c8484846040518463ffffffff1660e01b81526004016105f493929190611a76565b600060405180830381600087803b15801561060e57600080fd5b505af1158015610622573d6000803e3d6000fd5b50505050836001600160a01b031662ccf1556040518163ffffffff1660e01b8152600401600060405180830381600087803b15801561066057600080fd5b505af1158015610674573d6000803e3d6000fd5b505050505050505050505050565b61069561068d6100f0565b848484610a45565b505050565b6000806106e68484604060c0600019901c6040518060400160405280601f81526020017f676574556e636f6d7061637465644f7261636c65426c6f636b4e756d62657200815250610b9b565b9050806000036105a75760405163349f5fdd60e11b8152600481018490526024015b60405180910390fd5b60008061075d8484604060c0600019901c6040518060400160405280601d81526020017f676574556e636f6d7061637465644f7261636c6554696d657374616d70000000815250610b9b565b9050806000036105a757604051639ffb34e960e01b815260048101849052602401610708565b6000806107c78484600860f8600019901c6040518060400160405280601581526020017419d95d155b98dbdb5c1858dd1959111958da5b585b605a1b815250610b9b565b949350505050565b6000604051602001610800906020808252600b908201526a4f5241434c455f5459504560a81b604082015260600190565b60408051601f198184030181528282528051602091820120908301526001600160a01b03841690820152606001604051602081830303815290604052805190602001209050919050565b6000610854610c38565b156108c15760646001600160a01b031663a3b1b31d6040518163ffffffff1660e01b8152600401602060405180830381865afa158015610898573d6000803e3d6000fd5b505050506040513d601f19601f820116820180604052508101906108bc9190611907565b905090565b504390565b60006108d0610c38565b15610936576040516315a03d4160e11b815260048101839052606490632b407a8290602401602060405180830381865afa158015610912573d6000803e3d6000fd5b505050506040513d601f19601f820116820180604052508101906105289190611907565b504090565b60008061097d8484602060e0600019901c60405180604001604052806013815260200172676574556e636f6d706163746564507269636560681b815250610b9b565b9050806000036105a757604051630554193160e21b815260048101849052602401610708565b6000806107c78484600860f8600019901c604051806040016040528060188152602001770cecae8aadcc6dedae0c2c6e8cac8a0e4d2c6ca92dcc8caf60431b815250610b9b565b6101008210610a10578181604051630a1f10ab60e11b8152600401610708929190611c3a565b82516001831b90811615610a3b57828260405163d406473760e01b8152600401610708929190611c3a565b8351179092525050565b6000610b2385856000015186602001518760400151886060015189608001518a60a001518b60c001518c60e001518d6101000151604051602001610adb9a99989796959493929190998a5260208a01989098526040890196909652606088019490945260808701929092526001600160a01b031660a086015260c085015260e08401526101008301526101208201526101400190565b604051602081830303815290604052805190602001207b0ca2ba3432b932bab69029b4b3b732b21026b2b9b9b0b3b29d05199960211b6000908152601c91909152603c902090565b9050610b328460e00151610c4f565b610b40846101000151610c4f565b6000610b4c8285610c97565b9050826001600160a01b0316816001600160a01b031614610b93576040516310b5d43760e21b81526001600160a01b03808316600483015284166024820152604401610708565b505050505050565b600080610baa85610100611c53565b90506000610bb88288611c53565b905087518110610be3578787828660405163bdec9c0d60e01b81526004016107089493929190611c75565b6000888281518110610bf757610bf76117e8565b602002602001015190506000878484610c109190611933565b610c1a908b611920565b610c249190611933565b9190911c8616935050505095945050505050565b600061a4b14614806108bc5750504662066eee1490565b610c9481604051602401610c6591815260200190565b60408051601f198184030181529190526020810180516001600160e01b031663f82c50f160e01b179052610cb3565b50565b6000806000610ca68585610cbc565b9150915061052481610d01565b610c9481610e46565b6000808251604103610cf25760208301516040840151606085015160001a610ce687828585610e67565b94509450505050610cfa565b506000905060025b9250929050565b6000816004811115610d1557610d15611ca6565b03610d1d5750565b6001816004811115610d3157610d31611ca6565b03610d795760405162461bcd60e51b815260206004820152601860248201527745434453413a20696e76616c6964207369676e617475726560401b6044820152606401610708565b6002816004811115610d8d57610d8d611ca6565b03610dda5760405162461bcd60e51b815260206004820152601f60248201527f45434453413a20696e76616c6964207369676e6174757265206c656e677468006044820152606401610708565b6003816004811115610dee57610dee611ca6565b03610c945760405162461bcd60e51b815260206004820152602260248201527f45434453413a20696e76616c6964207369676e6174757265202773272076616c604482015261756560f01b6064820152608401610708565b60006a636f6e736f6c652e6c6f679050600080835160208501845afa505050565b6000806fa2a8918ca85bafe22016d0b997e4df60600160ff1b03831115610e945750600090506003610f18565b6040805160008082526020820180845289905260ff881692820192909252606081018690526080810185905260019060a0016020604051602081039080840390855afa158015610ee8573d6000803e3d6000fd5b5050604051601f1901519150506001600160a01b038116610f1157600060019250925050610f18565b9150600090505b94509492505050565b6040518061012001604052806000815260200160008152602001600081526020016000801916815260200160006001600160a01b03168152602001600080191681526020016000815260200160008152602001600081525090565b60405180610120016040528060008019168152602001600081526020016000815260200160008152602001600081526020016060815260200160608152602001610fd26040518060200160405280600081525090565b8152602001610fed6040518060200160405280600081525090565b905290565b6001600160a01b0381168114610c9457600080fd5b634e487b7160e01b600052604160045260246000fd5b6040516101c081016001600160401b038111828210171561104057611040611007565b60405290565b60405161012081016001600160401b038111828210171561104057611040611007565b604051601f8201601f191681016001600160401b038111828210171561109157611091611007565b604052919050565b60006001600160401b038211156110b2576110b2611007565b5060051b60200190565b80356110c781610ff2565b919050565b600082601f8301126110dd57600080fd5b81356110f06110eb82611099565b611069565b8082825260208201915060208360051b86010192508583111561111257600080fd5b602085015b8381101561113857803561112a81610ff2565b835260209283019201611117565b5095945050505050565b600082601f83011261115357600080fd5b81356111616110eb82611099565b8082825260208201915060208360051b86010192508583111561118357600080fd5b602085015b83811015611138578035835260209283019201611188565b600082601f8301126111b157600080fd5b81356001600160401b038111156111ca576111ca611007565b6111dd601f8201601f1916602001611069565b8181528460208386010111156111f257600080fd5b816020850160208301376000918101602001919091529392505050565b600082601f83011261122057600080fd5b813561122e6110eb82611099565b8082825260208201915060208360051b86010192508583111561125057600080fd5b602085015b838110156111385780356001600160401b0381111561127357600080fd5b611282886020838a01016111a0565b84525060209283019201611255565b60006101c082840312156112a457600080fd5b6112ac61101d565b82358152905060208201356001600160401b038111156112cb57600080fd5b6112d7848285016110cc565b60208301525060408201356001600160401b038111156112f657600080fd5b61130284828501611142565b60408301525060608201356001600160401b0381111561132157600080fd5b61132d84828501611142565b60608301525060808201356001600160401b0381111561134c57600080fd5b61135884828501611142565b60808301525060a08201356001600160401b0381111561137757600080fd5b61138384828501611142565b60a08301525060c08201356001600160401b038111156113a257600080fd5b6113ae84828501611142565b60c08301525060e08201356001600160401b038111156113cd57600080fd5b6113d984828501611142565b60e0830152506101008201356001600160401b038111156113f957600080fd5b61140584828501611142565b610100830152506101208201356001600160401b0381111561142657600080fd5b61143284828501611142565b610120830152506101408201356001600160401b0381111561145357600080fd5b61145f8482850161120f565b610140830152506101608201356001600160401b0381111561148057600080fd5b61148c848285016110cc565b610160830152506101808201356001600160401b038111156114ad57600080fd5b6114b9848285016110cc565b610180830152506101a08201356001600160401b038111156114da57600080fd5b6114e68482850161120f565b6101a08301525092915050565b6000806040838503121561150657600080fd5b823561151181610ff2565b915060208301356001600160401b0381111561152c57600080fd5b61153885828601611291565b9150509250929050565b602080825282518282018190526000918401906040840190835b818110156115dd5783518051845260208101516020850152604081015160408501526060810151606085015260018060a01b03608082015116608085015260a081015160a085015260c081015160c085015260e081015160e0850152610100810151610100850152506101208301925060208401935060018101905061155c565b509095945050505050565b600080604083850312156115fb57600080fd5b823561160681610ff2565b9150602083013561161681610ff2565b809150509250929050565b6000610120828403121561163457600080fd5b61163c611046565b82358152602080840135908201526040808401359082015260608084013590820152905061166c608083016110bc565b608082015260a0828101359082015260c0808301359082015260e080830135908201526101009182013591810191909152919050565b60008060008061018085870312156116b957600080fd5b843593506116ca8660208701611621565b92506101408501356001600160401b038111156116e657600080fd5b6116f2878288016111a0565b92505061016085013561170481610ff2565b939692955090935050565b6000806000806080858703121561172557600080fd5b843561173081610ff2565b9350602085013561174081610ff2565b9250604085013561175081610ff2565b915060608501356001600160401b0381111561176b57600080fd5b61177787828801611291565b91505092959194509250565b6000806000610160848603121561179957600080fd5b6117a38585611621565b92506101208401356001600160401b038111156117bf57600080fd5b6117cb868287016111a0565b9250506101408401356117dd81610ff2565b809150509250925092565b634e487b7160e01b600052603260045260246000fd5b634e487b7160e01b600052601160045260246000fd5b6001815b600184111561184f57808504811115611833576118336117fe565b600184161561184157908102905b60019390931c928002611818565b935093915050565b60008261186657506001610528565b8161187357506000610528565b81600181146118895760028114611893576118af565b6001915050610528565b60ff8411156118a4576118a46117fe565b50506001821b610528565b5060208310610133831016604e8410600b84101617156118d2575081810a610528565b6118df6000198484611814565b80600019048211156118f3576118f36117fe565b029392505050565b60006105a78383611857565b60006020828403121561191957600080fd5b5051919050565b81810381811115610528576105286117fe565b8082028115828204841417610528576105286117fe565b80820180821115610528576105286117fe565b600081518084526020840193506020830160005b828110156119985781516001600160a01b0316865260209586019590910190600101611971565b5093949350505050565b600081518084526020840193506020830160005b828110156119985781518652602095860195909101906001016119b6565b6000815180845260005b818110156119fa576020818501810151868301820152016119de565b506000602082860101526020601f19601f83011685010191505092915050565b600082825180855260208501945060208160051b8301016020850160005b83811015611a6a57601f19858403018852611a548383516119d4565b6020988901989093509190910190600101611a38565b50909695505050505050565b6001600160a01b03848116825283166020808301919091526060604083018190528351908301528201516101c06080830152600090611ab961022084018261195d565b90506040840151605f198483030160a0850152611ad682826119a2565b9150506060840151605f198483030160c0850152611af482826119a2565b9150506080840151605f198483030160e0850152611b1282826119a2565b91505060a0840151605f1984830301610100850152611b3182826119a2565b91505060c0840151605f1984830301610120850152611b5082826119a2565b91505060e0840151605f1984830301610140850152611b6f82826119a2565b915050610100840151605f1984830301610160850152611b8f82826119a2565b915050610120840151605f1984830301610180850152611baf82826119a2565b915050610140840151605f19848303016101a0850152611bcf8282611a1a565b915050610160840151605f19848303016101c0850152611bef828261195d565b915050610180840151605f19848303016101e0850152611c0f828261195d565b9150506101a0840151605f1984830301610200850152611c2f8282611a1a565b979650505050505050565b8281526040602082015260006107c760408301846119d4565b600082611c7057634e487b7160e01b600052601260045260246000fd5b500490565b608081526000611c8860808301876119a2565b8560208401528460408401528281036060840152611c2f81856119d4565b634e487b7160e01b600052602160045260246000fdfea26469706673582212202cb36cf01a6cfdd1849d79663b29c83e4eff2a26baf14e50608502f3ab96032664736f6c634300081a0033",
  "linkReferences": {},
  "deployedLinkReferences": {}
}