{
  "_format": "hh-sol-artifact-1",
  "contractName": "DepositStoreUtilsTest",
  "sourceName": "contracts/test/DepositStoreUtilsTest.sol",
  "abi": [
    {
      "inputs": [],
      "name": "getEmptyDeposit",
      "outputs": [
        {
          "components": [
            {
              "components": [
                {
                  "internalType": "address",
                  "name": "account",
                  "type": "address"
                },
                {
                  "internalType": "address",
                  "name": "receiver",
                  "type": "address"
                },
                {
                  "internalType": "address",
                  "name": "callbackContract",
                  "type": "address"
                },
                {
                  "internalType": "address",
                  "name": "uiFeeReceiver",
                  "type": "address"
                },
                {
                  "internalType": "address",
                  "name": "market",
                  "type": "address"
                },
                {
                  "internalType": "address",
                  "name": "initialLongToken",
                  "type": "address"
                },
                {
                  "internalType": "address",
                  "name": "initialShortToken",
                  "type": "address"
                },
                {
                  "internalType": "address[]",
                  "name": "longTokenSwapPath",
                  "type": "address[]"
                },
                {
                  "internalType": "address[]",
                  "name": "shortTokenSwapPath",
                  "type": "address[]"
                }
              ],
              "internalType": "struct Deposit.Addresses",
              "name": "addresses",
              "type": "tuple"
            },
            {
              "components": [
                {
                  "internalType": "uint256",
                  "name": "initialLongTokenAmount",
                  "type": "uint256"
                },
                {
                  "internalType": "uint256",
                  "name": "initialShortTokenAmount",
                  "type": "uint256"
                },
                {
                  "internalType": "uint256",
                  "name": "minMarketTokens",
                  "type": "uint256"
                },
                {
                  "internalType": "uint256",
                  "name": "updatedAtBlock",
                  "type": "uint256"
                },
                {
                  "internalType": "uint256",
                  "name": "executionFee",
                  "type": "uint256"
                },
                {
                  "internalType": "uint256",
                  "name": "callbackGasLimit",
                  "type": "uint256"
                }
              ],
              "internalType": "struct Deposit.Numbers",
              "name": "numbers",
              "type": "tuple"
            },
            {
              "components": [
                {
                  "internalType": "bool",
                  "name": "shouldUnwrapNativeToken",
                  "type": "bool"
                }
              ],
              "internalType": "struct Deposit.Flags",
              "name": "flags",
              "type": "tuple"
            }
          ],
          "internalType": "struct Deposit.Props",
          "name": "",
          "type": "tuple"
        }
      ],
      "stateMutability": "pure",
      "type": "function"
    },
    {
      "inputs": [
        {
          "internalType": "contract DataStore",
          "name": "dataStore",
          "type": "address"
        },
        {
          "internalType": "bytes32",
          "name": "key",
          "type": "bytes32"
        },
        {
          "internalType": "address",
          "name": "account",
          "type": "address"
        }
      ],
      "name": "removeDeposit",
      "outputs": [],
      "stateMutability": "nonpayable",
      "type": "function"
    },
    {
      "inputs": [
        {
          "internalType": "contract DataStore",
          "name": "dataStore",
          "type": "address"
        },
        {
          "internalType": "bytes32",
          "name": "key",
          "type": "bytes32"
        },
        {
          "components": [
            {
              "components": [
                {
                  "internalType": "address",
                  "name": "account",
                  "type": "address"
                },
                {
                  "internalType": "address",
                  "name": "receiver",
                  "type": "address"
                },
                {
                  "internalType": "address",
                  "name": "callbackContract",
                  "type": "address"
                },
                {
                  "internalType": "address",
                  "name": "uiFeeReceiver",
                  "type": "address"
                },
                {
                  "internalType": "address",
                  "name": "market",
                  "type": "address"
                },
                {
                  "internalType": "address",
                  "name": "initialLongToken",
                  "type": "address"
                },
                {
                  "internalType": "address",
                  "name": "initialShortToken",
                  "type": "address"
                },
                {
                  "internalType": "address[]",
                  "name": "longTokenSwapPath",
                  "type": "address[]"
                },
                {
                  "internalType": "address[]",
                  "name": "shortTokenSwapPath",
                  "type": "address[]"
                }
              ],
              "internalType": "struct Deposit.Addresses",
              "name": "addresses",
              "type": "tuple"
            },
            {
              "components": [
                {
                  "internalType": "uint256",
                  "name": "initialLongTokenAmount",
                  "type": "uint256"
                },
                {
                  "internalType": "uint256",
                  "name": "initialShortTokenAmount",
                  "type": "uint256"
                },
                {
                  "internalType": "uint256",
                  "name": "minMarketTokens",
                  "type": "uint256"
                },
                {
                  "internalType": "uint256",
                  "name": "updatedAtBlock",
                  "type": "uint256"
                },
                {
                  "internalType": "uint256",
                  "name": "executionFee",
                  "type": "uint256"
                },
                {
                  "internalType": "uint256",
                  "name": "callbackGasLimit",
                  "type": "uint256"
                }
              ],
              "internalType": "struct Deposit.Numbers",
              "name": "numbers",
              "type": "tuple"
            },
            {
              "components": [
                {
                  "internalType": "bool",
                  "name": "shouldUnwrapNativeToken",
                  "type": "bool"
                }
              ],
              "internalType": "struct Deposit.Flags",
              "name": "flags",
              "type": "tuple"
            }
          ],
          "internalType": "struct Deposit.Props",
          "name": "deposit",
          "type": "tuple"
        }
      ],
      "name": "setDeposit",
      "outputs": [],
      "stateMutability": "nonpayable",
      "type": "function"
    }
  ],
  "bytecode": "0x6080604052348015600f57600080fd5b506108b88061001f6000396000f3fe608060405234801561001057600080fd5b50600436106100415760003560e01c8063706e666714610046578063db4f82a91461005b578063f3f9957614610079575b600080fd5b610059610054366004610410565b61008c565b005b6100636100fc565b6040516100709190610626565b60405180910390f35b610059610087366004610728565b610111565b60405163151a2c8b60e11b815273__$b63e253a228f0e32f671cc49c7fc32477c$__90632a345916906100c79086908690869060040161076a565b60006040518083038186803b1580156100df57600080fd5b505af41580156100f3573d6000803e3d6000fd5b50505050505050565b610104610160565b61010c610160565b919050565b6040516374b6fe1360e01b81526001600160a01b038085166004830152602482018490528216604482015273__$b63e253a228f0e32f671cc49c7fc32477c$__906374b6fe13906064016100c7565b604080516101808101909152600060608083018281526080840183905260a0840183905260c0840183905260e0840183905261010084018390526101208401929092526101408301819052610160830152819081526020016101f16040518060c001604052806000815260200160008152602001600081526020016000815260200160008152602001600081525090565b81526040805160208181019092526000815291015290565b6001600160a01b038116811461021e57600080fd5b50565b634e487b7160e01b600052604160045260246000fd5b604051606081016001600160401b038111828210171561025957610259610221565b60405290565b60405161012081016001600160401b038111828210171561025957610259610221565b604051601f8201601f191681016001600160401b03811182821017156102aa576102aa610221565b604052919050565b803561010c81610209565b600082601f8301126102ce57600080fd5b81356001600160401b038111156102e7576102e7610221565b8060051b6102f760208201610282565b9182526020818501810192908101908684111561031357600080fd5b6020860192505b8383101561033e57823561032d81610209565b82526020928301929091019061031a565b9695505050505050565b600060c0828403121561035a57600080fd5b60405160c081016001600160401b038111828210171561037c5761037c610221565b604090815283358252602080850135908301528381013590820152606080840135908201526080808401359082015260a0928301359281019290925250919050565b6000602082840312156103d057600080fd5b604051602081016001600160401b03811182821017156103f2576103f2610221565b6040529050808235801515811461040857600080fd5b905292915050565b60008060006060848603121561042557600080fd5b833561043081610209565b92506020840135915060408401356001600160401b0381111561045257600080fd5b8401610100818703121561046557600080fd5b61046d610237565b81356001600160401b0381111561048357600080fd5b8201610120818903121561049657600080fd5b61049e61025f565b6104a7826102b2565b81526104b5602083016102b2565b60208201526104c6604083016102b2565b60408201526104d7606083016102b2565b60608201526104e8608083016102b2565b60808201526104f960a083016102b2565b60a082015261050a60c083016102b2565b60c082015260e08201356001600160401b0381111561052857600080fd5b6105348a8285016102bd565b60e0830152506101008201356001600160401b0381111561055457600080fd5b6105608a8285016102bd565b610100830152508252506105778760208401610348565b60208201526105898760e084016103be565b604082015280925050509250925092565b6001600160a01b03169052565b600081518084526020840193506020830160005b828110156105e25781516001600160a01b03168652602095860195909101906001016105bb565b5093949350505050565b805182526020810151602083015260408101516040830152606081015160608301526080810151608083015260a081015160a08301525050565b602081526000825161010060208401526106456101208401825161059a565b602081015161065861014085018261059a565b50604081015161066c61016085018261059a565b50606081015161068061018085018261059a565b5060808101516106946101a085018261059a565b5060a08101516106a86101c085018261059a565b5060c08101516106bc6101e085018261059a565b5060e08101516101206102008501526106d96102408501826105a7565b9050610100820151915061011f19848203016102208501526106fb81836105a7565b915050602084015161071060408501826105ec565b50604084015180511515610100850152509392505050565b60008060006060848603121561073d57600080fd5b833561074881610209565b925060208401359150604084013561075f81610209565b809150509250925092565b60018060a01b03841681528260208201526060604082015260008251610100606084015261079d6101608401825161059a565b60208101516107b061018085018261059a565b5060408101516107c46101a085018261059a565b5060608101516107d86101c085018261059a565b5060808101516107ec6101e085018261059a565b5060a081015161080061020085018261059a565b5060c081015161081461022085018261059a565b5060e08101516101206102408501526108316102808501826105a7565b9050610100820151915061015f198482030161026085015261085381836105a7565b915050602084015161086860808501826105ec565b50604084015180511515610140850152509594505050505056fea264697066735822122086a80ce6398a95264b406147abe35f9bdbda8030bdccdcc8901d24838717351164736f6c634300081a0033",
  "linkReferences": {
    "contracts/deposit/DepositStoreUtils.sol": {
      "DepositStoreUtils": [
        {
          "length": 20,
          "start": 186
        },
        {
          "length": 20,
          "start": 349
        }
      ]
    }
  },
  "deployedLinkReferences": {
    "contracts/deposit/DepositStoreUtils.sol": {
      "DepositStoreUtils": [
        {
          "length": 20,
          "start": 155
        },
        {
          "length": 20,
          "start": 318
        }
      ]
    }
  }
}